:020000040800F2
:1000000040D400202D020008113A0008ED34000809
:100010002D390008890A0008F76100080000000077
:10002000000000000000000000000000054C000877
:10003000A30D000800000000BB020008314D0008BD
:10004000470200084702000847020008214B000849
:100050004702000847020008A50D000847020008F3
:10006000470200087D0F0008470200084702000809
:10007000470200084702000847020008470200083C
:10008000790B0008470200084702000847020008F1
:10009000470200084702000847020008C90F00088D
:1000A00047020008A94E000847020008470200085E
:1000B000F14F000859520008A554000847020008F3
:1000C00047020008470200084702000847020008EC
:1000D00047020008BD5F0008470200084702000809
:1000E000FD0D00084702000847020008470200080B
:1000F000D95A0008470200084702000847020008D2
:10010000470200084702000831570008470200086C
:10011000470200084702000861590008A959000871
:10012000470200084702000847020008470200088B
:1001300000F002F800F06BF80AA090E8000C82448E
:100140008344AAF10107DA4501D100F060F8AFF26B
:10015000090EBAE80F0013F0010F18BFFB1A43F0A5
:100160000103184780930000A09300000A444FF059
:10017000000C10F8013B13F0070408BF10F8014B06
:100180001D1108BF10F8015B641E05D010F8016B4B
:10019000641E01F8016BF9D113F0080F1EBF10F8AF
:1001A000014BAD1C0C1B09D16D1E58BF01F801CBD2
:1001B000FAD505E014F8016B01F8016B6D1EF9D555
:1001C0009142D6D37047000000230024002500266A
:1001D000103A28BF78C1FBD8520728BF30C148BFAA
:1001E0000B607047642900F0F980752900F0F680F3
:1001F000782900F02F81632900F0B582732900F07F
:10020000BA82002070471FB51FBD10B510BD00F0A9
:10021000EDFA1146FFF7F7FF06F0E6FA00F00BFBE8
:1002200003B4FFF7F2FF03BC06F00EF8094880475D
:1002300009480047FEE7FEE7FEE7FEE7FEE7FEE7C8
:10024000FEE7FEE7FEE7FEE704480549054A064BE0
:10025000704700004D4D00083101000840CE0020DD
:1002600040D4002040D0002040D00020EFF3108088
:1002700072B6704780F310887047204C204D25607F
:100280004FF0000484F309881E4C4FF001052570DF
:100290001D4C4FF08055256062B6FEE730B41A4C15
:1002A0004FF08055256030BC704730B4164C4FF08D
:1002B0008055256030BC704700BF72B6EFF30980EF
:1002C00028B1203880E8F00F10490968086000B5AF
:1002D0000F4880475DF804EB0E480F490A7802701A
:1002E0000A480E490A680260106890E8F00F203052
:1002F00080F309884EF0040E62B6704720ED00E0EE
:100300000000FFFF2602002004ED00E02C02002088
:100310009D4000081B0200201C0200203402002027
:10032000704700000FB4044910B503AA029800F00A
:1003300027FA10BC5DF814FBC401002070B5044618
:1003400085690068C10601D5302600E02026C00777
:1003500007D070BDD4E9012130469047206A401C87
:1003600020626D1EF6D570BD70B5044685690078B3
:10037000C00707D170BDD4E9012120209047206A31
:10038000401C20626D1EF6D570BD70B50C4605464A
:10039000012A05D02878800600D5EA69002302E00A
:1003A000012305E05B1C934202D2E05C0028F9D1F6
:1003B000A869E618C01AA861286A18442862284665
:1003C000FFF7BCFF04E0D5E9012114F8010B9047C9
:1003D000B442F8D32846FFF7C7FF70BD2DE9F041BE
:1003E0000646002410687529314616A510D0AFF3D3
:1003F0000080002802DA404213A507E031688A072E
:1004000001D512A502E0490704D511A5012401E098
:10041000AFF3008000210A2206F1240709E0B0FBB7
:10042000F2FCB0FBF2F302FB1C00303078541846AB
:10043000491C0028F3D123462A463046BDE8F04146
:1004400000F02EB9000000002D0000002B0000007D
:100450002000000070B504460D4621461068AFF339
:1004600000802188090502D50F4A7A4402E00E4A2D
:100470007A440E32002104F1240305E000F00F0657
:100480000009965D5E54491C0028F7D120780023AE
:10049000000704D5702D02D009B102231132204685
:1004A000BDE8704000F0FCB81E8E00002DE9F05F42
:1004B000894604464FF0000ADFF874B1FB44C0F8E7
:1004C00020A02046E1688847002874D0252806D05F
:1004D000D4E901219047206A401C2062F1E7002600
:1004E0005F462046E16888472028054607DB312D16
:1004F00005D2781910F8200C08B10643F1E7B007CF
:1005000001D526F00406C4F81CA00027C4F818A0E2
:100510002A2D09D0284605F090FE38B304EB870851
:10052000303DC8F8185019E059F8041B204604EB78
:1005300087029161E1688847012F054618D1E0697B
:10054000002820DA26F020061DE0D8F8180000EB7D
:10055000800005EB40003038C8F818002046E168FC
:100560008847054605F069FE0028EED1012F0AD024
:100570002E2D08D12046E16888477F1C0546022FB2
:1005800046F02006C4DBA069002803DA404246F0AA
:100590000106A061F00701D026F010066C2D0BD0EB
:1005A000682D09D04C2D39D06A2D35D0742D35D019
:1005B0007A2D33D016E038E0E1682F462046884790
:1005C000B842054609D16C2F26D04FF48060E1680F
:1005D000064320468847054604E06C2F1AD04FF4A6
:1005E000807006430DB3A5F14100192802D82035CB
:1005F00046F400664A462946204626604E46FFF7E6
:10060000F1FD80B101280BD0F61D26F0070000F1A6
:10061000080956E74020E4E78020D8E70020D6E725
:1006200006F104094DE7284652E7206ABDE8F09F2D
:10063000F48D00004FF0000200B513469446964634
:10064000203922BFA0E80C50A0E80C50B1F12001E5
:10065000BFF4F7AF090728BFA0E80C5048BF0CC093
:100660005DF804EB890028BF40F8042B08BF7047F1
:1006700048BF20F8022B11F0804F18BF00F8012B63
:100680007047704770477047704710B500F08AF8A0
:10069000006810BD10B5044600F084F8046010BD79
:1006A0002DE9F0470D4699469246044600F124088C
:1006B0000168880604D5E06921F01001216000E09E
:1006C0000120A84201DD471B00E00027A1697A193B
:1006D00002EB0900081AA0612078C00602D4204667
:1006E000FFF72CFE002608E0D4E901211AF80600E5
:1006F0009047206A401C761C20624E45F4DB20782F
:10070000C0060AD52046FFF719FE06E0D4E901210C
:1007100030209047206A401C2062381EA7F1010754
:10072000F4DC07E0D4E9012118F805009047206ABD
:10073000401C2062281EA5F10105F3DC2046FFF7CE
:1007400013FE2078000602D50220BDE8F0870120C4
:10075000FBE710B5436913B1AFF3008001E0FFF789
:1007600014FE012010BD127800F124010A7000224D
:100770004A700122EDE711684FF0FF32E9E700000F
:10078000074B70B50D467B4400F015F8044628462B
:1007900000F024F810B14FF0FF3070BD204670BD5E
:1007A0004B5F000000487047E0CD002001694A1C03
:1007B00002610878704700B58FB0CDE901310021A2
:1007C000059105497944CDE9031011466846FFF7C4
:1007D0006DFE0FB000BD0000E5FFFFFF007B00F0E5
:1007E0008000704700487047E0CD00207546FFF755
:1007F000F9FFAE4605006946534620F007008546DE
:1008000018B020B5FFF720FDBDE820404FF00006EE
:100810004FF000074FF000084FF0000B21F00701E8
:10082000AC46ACE8C009ACE8C009ACE8C009ACE82B
:10083000C0098D46704710B50446AFF300802046CE
:10084000BDE81040FFF7ECBC21B1826842F0010224
:10085000826003E0826822F001028260704700003B
:1008600010B504461248844208D10121401504F015
:100870009DF80021601504F099F817E00D488442B6
:1008800008D10121001504F091F80021201504F091
:100890008DF80BE00848844208D10121C80304F018
:1008A00085F800214FF4004004F080F810BD0000EE
:1008B0000024014000280140003C01400146002086
:1008C0008A6802F004020AB1012000E000207047AB
:1008D0000146C86C80B270470246002013680B4086
:1008E0000BB1012000E000207047014600208A681B
:1008F00002F008020AB1012000E000207047000069
:1009000030B502460020002350680F4C20400D797E
:100910000C6844EA05242043506090680B4C20404A
:10092000D1E902542C434D7944EA450420439060B8
:10093000D06A20F470000C7C641EE4B2234340EAC9
:100940000350D06230BD0000FFFEF0FFFDF7F1FF65
:10095000F0B504460D4600200021092D11DDE068A8
:10096000A5F10A0606EB4607072606FA07F18843B3
:10097000A5F10A0606EB460603FA06F10843E06015
:100980000CE0206905EB4507072606FA07F18843C6
:1009900005EB450603FA06F108432061072A0FDA42
:1009A000606B561E06EB86071F2606FA07F1884382
:1009B000561E06EB860605FA06F10843606322E040
:1009C0000D2A0FDA206BD61F06EB86071F2606FAC4
:1009D00007F18843D61F06EB860605FA06F10843A1
:1009E000206310E0E06AA2F10D0606EB86071F26E1
:1009F00006FA07F18843A2F10D0606EB860605FA12
:100A000006F10843E062F0BD816841F008018160B1
:100A1000704721B1826842F4A002826003E08268DC
:100A200022F4A00282607047816841F00401816075
:100A3000704710B502F0FCFE04F032F802F058FDE9
:100A400002F076FF02F0B0FE10BD000000200A495F
:100A5000487001200870002008498870052008703F
:100A6000002007498870052008700020054988701B
:100A70000420087070470000B0030020CC03002061
:100A8000E80300201004002000BFFEE712480078B1
:100A9000042812DC11480068012801D001207047A9
:100AA0000F488068406A0E49098A884212D00C4873
:100AB0008068407870B90120F1E709488068406A91
:100AC0000749098A884205D005488068407808B9F6
:100AD0000120E4E70020E2E71004002008012242A0
:100AE000CC03002010480068012814D10F4800688A
:100AF000012816D10E484068407890B90D484068EA
:100B0000406A0C49496988420BD10A4840684078DC
:100B100038B90120704706484068407808B901207C
:100B2000F8E70020F6E70000080122420C8122428B
:100B300010040020E803002010B5064800680128D2
:100B400005D00021022000F0B5FB002010BD0120DF
:100B5000FCE700000481224210B506480068012825
:100B600005D00021102000F0A5FB002010BD0120C1
:100B7000FCE700003801234210B54FF4001000F0EC
:100B8000D1F850B14FF4001000F00CF8FA210348EE
:100B9000FFF750FD024802F0B7FE10BD74090020B7
:100BA0006C00024000F0805111B10349086001E07F
:100BB00002494860704700000404024000000240FF
:100BC00021B1026842F00102026004E002684FF6BF
:100BD000FE731A400260704701684FF6FE721140C2
:100BE00001600021016041608160C1604B49884221
:100BF00008D14A490839496841F00F01474A083A83
:100C000051608AE045491431884208D14349083986
:100C1000496841F0F001414A083A51607DE03F499E
:100C20002831884208D13D490839496841F470614A
:100C30003A4A083A516070E038493C31884208D15C
:100C400036490839496841F47041344A083A5160DC
:100C500063E032495031884208D130490839496847
:100C600041F470212D4A083A516056E02B49643115
:100C7000884208D129490839496841F47001274A56
:100C8000083A516049E025497831884208D1234922
:100C90000839496841F07061204A083A51603CE0E7
:100CA0001F49884206D1011F096841F00F01021F48
:100CB000116032E01A491431884208D11849091FDD
:100CC000096841F0F001164A121F116025E014492D
:100CD0002831884208D11249091F096841F470611E
:100CE0000F4A121F116018E00D493C31884208D1AB
:100CF0000B49091F096841F47041094A121F11602C
:100D00000BE007495031884207D10549091F09689E
:100D100041F47021024A121F11607047080002401E
:100D20000804024001460020002201F0805313B164
:100D3000054B1A6801E0054B1A6802EA01030BB182
:100D4000012000E000207047000402400000024043
:100D50001AB103680B43036002E003688B4303602E
:100D6000704710B50022026847F6F0739A430C6A88
:100D70008B6823430C6923434C6923438C692343C9
:100D8000CC6923434C6A23438C6A23431A43026091
:100D9000CB6843600B6883604B68C36010BD4160E3
:100DA0007047704710B5012000F026FAC8B10D4811
:100DB000807880B9322005F0A7FB0B480068012835
:100DC00009D10021800704F035FF08480069054972
:100DD000486200204870012000F008FA04A0FFF7E4
:100DE000A1FA10BD2C010020008122421004002035
:100DF0006578746920310D0A0000000010B541A02B
:100E0000FFF790FA4FF4806000F0F6F9A8B13220B5
:100E100005F07AFB3E480068012807D100213D48D3
:100E200004F008FF00203C49486248703BA0FFF7EF
:100E300079FA4FF4806000F0D9F94FF4006000F0C7
:100E4000DBF9B0B1C82005F05FFB3148001D006838
:100E5000012807D00021354804F0ECFE0020344979
:100E6000486248704FF4006000F0C0F931A0FFF70D
:100E700059FA4FF4805000F0BFF9D0B1C82005F006
:100E800043FB23480830006801280BD100212D487E
:100E900004F0D0FE01201E497431086000202A4968
:100EA000486248704FF4805000F0A0F927A0FFF787
:100EB00039FA4FF4005000F09FF9B0B1322005F03C
:100EC00023FB13480C300068012807D10021234878
:100ED00004F0B0FE00202249486248704FF40050F0
:100EE00000F084F91FA0FFF71DFA4FF4004000F056
:100EF00083F930B14FF4004000F078F91CA0FFF7FF
:100F000011FA10BD6578746931352D31300D0A0044
:100F100028012342002C01402C00002047455F732C
:100F2000746172745F53656E0D0A0000000C00401E
:100F30006C00002047435F726F745F53656E0D0A4B
:100F40000000000000040040AC00002047435F7632
:100F500065725F73656E0D0A000000000034014089
:100F6000EC000020457874692031330D0A00000040
:100F7000657874692031350D0A00000010B508202D
:100F800000F03AF9A0B1322005F0BEFA0948006835
:100F9000012807D10021800704F04CFE00200649FB
:100FA00048624870082000F021F904A0FFF7BAF960
:100FB00010BD00000C8122422C010020657874696C
:100FC00020330D0A0000000010B5202000F014F9B5
:100FD000B0B1322005F098FA5F480068012809D1C5
:100FE0000021800704F026FE5C4840695C494862A5
:100FF00000204870202000F0F9F85AA0FFF792F97D
:10100000402000F0F9F8A8B1322005F07DFA5248EE
:10101000001D0068012807D10021564804F00AFE8F
:101020000020554948624870402000F0DFF853A086
:10103000FFF778F9802000F0DFF800283AD09620FA
:1010400005F062FA45480078072818DD4248083064
:10105000006801282BD04848806AC8280BD9002195
:10106000444804F0E7FD002043494870886247A0E7
:10107000FFF758F91BE049A0FFF754F917E037488C
:101080000078062813D1354890F8240001280ED1A5
:10109000314808300068012809D00021354804F0A3
:1010A000C9FD00203449487040A0FFF73BF980207B
:1010B00000F09CF84FF4807000F09EF8F8B13220F8
:1010C00005F022FA3D480078072814D13C48007802
:1010D00070B93C48006801280DD100213A4804F05D
:1010E000A9FD00203949487039A0FFF71BF902E03B
:1010F0000020334908704FF4807000F077F84FF407
:10110000007000F079F828B3322005F0FDF92B4883
:101110000078062803D029480078072816D12948E6
:1011200010300068012811D12648001D00680128F0
:101130000CD10021244804F07DFD00202349487093
:1011400027A0FFF7EFF801201D4908704FF4007049
:1011500000F04CF810BD0000148122421004002061
:101160002C010020474F485F656E645F73656E0D0C
:101170000A000000000800406C010020474F565F45
:1011800073746172745F53656E0D0A00676C6173EE
:10119000732073746F700D0A00000000676C617338
:1011A00073206572726F720D0A000000474F565F20
:1011B00067616C73735F73656E0D0A00B003002086
:1011C0002B00002020012342002C01402C00002095
:1011D00047455F646F776E5F53656E200D0A0000B0
:1011E00047455F75705F53656E0D0A0001490860E1
:1011F0007047000014040140014600200022074B04
:101200001B6803EA0102054B14331B680B4013B142
:101210000AB1012000E000207047000000040140F6
:10122000002123498279002A3AD00A4612680368CD
:101230009A430B461A600A1D126803689A430B1DF5
:101240001A60027911440A6803681A430A60184A4E
:101250000832126803689A43154B08331A601A1D46
:10126000126803689A43124B0C331A604279102AB1
:101270000ED11A1F126803681A430D4B08331A6007
:101280001A1D126803681A43094B0C331A600DE0EB
:101290000749427911440A6803681A430A6005E065
:1012A000027911440A6803689A430A607047000093
:1012B0000004014070B504460D462A46214614A09C
:1012C000FFF730F8194805F08FFF194805F08CFF3B
:1012D000184805F089FF184805F086FF174805F003
:1012E00083FF174805F080FF002016498875487075
:1012F00008701549087688700870144981F8230031
:1013000088700870124981F824008870087070BDD8
:10131000457272726F723A25642C4572726F725FF9
:1013200073656E736F723A25640000002C00002014
:10133000AC0000206C000020EC0000202C010020FC
:101340006C010020B0030020CC030020E803002043
:101350001004002008B50121302003F017FBFB200A
:10136000ADF8000048208DF803006946054801F0FB
:101370008BFA0420ADF800006946034801F084FAB6
:1013800008BD0000001401400010014008B5012113
:10139000402003F0FBFA4FF47F40ADF800004820F6
:1013A0008DF803006946024801F06EFA08BD00009E
:1013B000001801401CB5FFF7CDFF0121084603F0DE
:1013C000E5FA00208DF8040001208DF806000021C8
:1013D000032001F039FA08208DF805000120009063
:1013E0006846FFF71DFF0321084601F02DFA08208B
:1013F0008DF8050000906846FFF712FF05210320D5
:1014000001F022FA08208DF805002020009068469F
:10141000FFF706FF0621032001F016FA08208DF8D9
:101420000500402000906846FFF7FAFE07210320E0
:1014300001F00AFA0C208DF8050080200090684623
:10144000FFF7EEFE1CBD0EB5FFF7A0FF0121084619
:1014500003F09CFA00208DF8080001208DF80A00A6
:101460000D21042001F0F0F908208DF80900800218
:10147000019001A8FFF7D4FE0C21042001F0E4F94B
:1014800008208DF809004002019001A8FFF7C8FE6E
:101490000B21042001F0D8F90C208DF809004FF43D
:1014A0000060019001A8FFF7BBFE0A21042001F0B3
:1014B000CBF908208DF80900C001019001A8FFF7C1
:1014C000AFFE0921042001F0BFF908208DF80900C2
:1014D0008001019001A8FFF7A3FE0821042001F07C
:1014E000B3F908208DF809004001019001A8FFF729
:1014F00097FE28208DF8000002208DF801000020C2
:101500008DF8020001208DF80300684602F082FA8F
:1015100017208DF8000002208DF8010000208DF8C2
:10152000020001208DF80300684602F073FA0EBD38
:1015300010B547480078102809D2DFE800F0080904
:101540000C120F151D252D464B51667B84857CE0C2
:1015500003F004FB79E003F001FB76E003F0FEFA10
:1015600073E003F0FBFA70E00020394948704876D8
:1015700008768870087068E0002035494870487621
:1015800008768870087060E03148807E18B90321C1
:10159000082002F081FA58E02E48007807280AD186
:1015A0002C484078022806D1002029498870087606
:1015B0000920087008E027480078092804D10E2087
:1015C00023490870002088703FE004210A2002F0BF
:1015D00063FA3AE000201E4988700B20087034E05E
:1015E0001D48007808280FD11B48807802280BD1AD
:1015F0001A484068406A19494969884204D1002064
:10160000134988700C2008701FE0134800780928DF
:101610000FD11148807802280BD110484068406AE9
:101620000E494969884204D10020094988700D207B
:1016300008700AE00648807E20B9002004498870BE
:101640000720087001E000E000BF00BF10BD0000EF
:10165000CC030020B003002010040020E803002089
:1016600010B5A4480078102809D2DFE800F0080976
:1016700013282E3575C4C8DFFCFAF9F8F7F636E101
:101680009C4900224868114605F092F901209949C9
:1016900088702CE198480068012803D00220954901
:1016A00088700BE0FFF71EFA40B19249002288686B
:1016B000114605F07DF901208E49887017E101205F
:1016C0008E4908608B49887011E100208B490860C1
:1016D0000120884988700AE18648007E28B985493A
:1016E0000878032102F0D8F935E08248007E01280D
:1016F00005D180490878012102F0CEF92BE07D4820
:10170000007E02281FD17C480068012817D00020E5
:101710007849896888707749886805F035FA754A8C
:10172000926892884FF4C87302FB03F1714A906883
:10173000002205F01BF901206E4988700BE00320A0
:101740006C49087607E06B48007E032803D102212C
:10175000002002F0A1F9CAE06648017E68A0FEF709
:10176000E1FD6448007E28B962490878012102F051
:1017700093F93FE05F48007E012808D1FFF7B2F9F6
:1017800008B35C490878022102F086F932E0594832
:10179000007E02281CD15F480068012814D15E48F1
:1017A0004068406A5C490969884223D15A484068C8
:1017B000407840B901204F4988700A46118A9068E4
:1017C000002205F0F5F815E002204A49887011E082
:1017D0004848007E032805D146490878032102F0D5
:1017E0005BF907E04348007E042803D10221002072
:1017F00002F052F97BE002203E49887077E03D48D4
:101800008068406A3B494969884203D102203949CE
:1018100088700AE0FFF766F938B1364A518A906855
:1018200005F028F901203349887060E03248083813
:101830000068012810D030480C38006801280BD10E
:1018400036484068407838B92A4A5169506805F0EE
:1018500011F901202749887049E047E045E02FE071
:1018600018E00CE0FFE7234A5269A2F57A51214AB9
:10187000506805F0FFF801201E49887037E01D49C7
:1018800043F274124868002105F092F801201949CA
:1018900088702CE018480068012803D00220154900
:1018A00088700CE0FFF71EF948B112494FF4C86286
:1018B0008868002105F07CF801200E49887016E048
:1018C00015484068406A1449096988420CD1124899
:1018D0004068407840B9074A118A9068002205F0B4
:1018E00067F801200349887001E000E000BF00BFF5
:1018F00010BD0000CC0300202C012342B481224201
:101900004743207265736574206F6E3A25640D0A33
:10191000200000000801224210040020B003002033
:1019200010B565480078102809D2DFE800F00809F2
:101930001AAE6C273E5B5C647E8697A4C0C1B8E09B
:101940005E480068012803D102205B49887007E0E7
:1019500059484068407818B910212020FFF7AAFCA8
:10196000A7E05648001F0068012803D00220524912
:10197000887002E05048806840789AE04E48007EC7
:1019800090B14D48007E01280ED04B48007E0228C1
:1019900009D149488068407830B9002046498870AC
:1019A0000320087600E000BF83E04348007EC0B11A
:1019B0004148007E012814D03F48007E02280BD108
:1019C0003D488068407860B900203B4988700846EF
:1019D000007E401C087604E03748007E032800D0D3
:1019E00000BF66E065E034488068407810B90220A6
:1019F000314988705DE030484068407810B9022075
:101A00002D49887055E02C48C06864280CD92C48B2
:101A10000068012803D102202749887004E04FF4B0
:101A200000412020FFF746FC43E02348406840780F
:101A300010B90220204988703BE020480068012846
:101A400003D102201C49887007E01B484068407899
:101A500018B910212020FFF72DFC2AE01748001F9D
:101A60000068012803D002201349887002E0124860
:101A70008068407800BF10488068407820B9012015
:101A80000D4988760220887013E00B48C0686428EE
:101A90000CD90B480068012803D002200649887041
:101AA00004E04FF400412020FFF704FC01E000E0D7
:101AB00000BF00BF10BD0000CC0300203001234256
:101AC0000801224210B51448807820B9FFF7C8FDFC
:101AD00000201149C86010488078012810D1FFF714
:101AE0001FFF0D48C068401C0B49C8600846C0680D
:101AF00044F62061884203D900214020FFF7DAFB39
:101B000005488078022805D104480078022801D0D1
:101B1000FFF70EFD10BD0000CC0300203C040020A8
:101B200010B52B4800780B284FD2DFE800F00607ED
:101B30000D12171C222C454C4D0046E00020244974
:101B400008704870887540E000202149087048708E
:101B50003BE000201E490870487036E000201C4918
:101B60000870487031E0002019494870062008705C
:101B70002BE00020164948700720087000204875A7
:101B80000120087521E01248407D78B104F010FC76
:101B900088B11048006801280DD00E48001D00686B
:101BA000012808D000200A49487004E000200849B4
:101BB00048700820087008E0002005494875487002
:101BC0000620087001E000E000BF00BF10BD00006B
:101BD000B00300202001234210B57A4800780B287A
:101BE00007D2DFE800F006073A47647493B4CAE608
:101BF000E700E4E07348807DF0B97348006801288D
:101C000016D100206F49496888706E49486804F011
:101C1000BBFF6C4A5268928802EB82025100694A0B
:101C20005068002204F0A2FE01206649487013E0CB
:101C30000120644988750FE06248807D01280BD13E
:101C400004F0B6FB40B15F4900224868114604F039
:101C5000AFFE01205B494870B1E004F0A9FB40B140
:101C6000584900224868114604F0A2FE0120554957
:101C70004870A4E05448006801280BD151494868D5
:101C800005F0B2FA00204F494968486202204D49E8
:101C900048700BE004F08CFB40B14A4900224868D0
:101CA000114604F085FE01204649487087E004F0A3
:101CB0007FFB58B1434A5268126AA2F16401414A5B
:101CC000506804F0D7FE01203E49487077E00020BC
:101CD0003C4908753C48006801280AD1486805F06D
:101CE00083FA002037494968486202203549487024
:101CF0000BE004F05DFB40B1324900224868114618
:101D000004F056FE01202F49487058E02E48001F6D
:101D10000068012803D102202A49487016E004F027
:101D200047FB98B1274A1269264BDB681A44254BBA
:101D30005B689B8832246343C3EB4201214A5068AD
:101D4000002204F035FE01201E49487037E004F0FF
:101D50002FFB88B100201B494968887019494868E1
:101D600004F012FF174AD16850684FF4FA6204F089
:101D7000FDFD01201349487021E004F019FBB8B1C2
:101D800000201049496888700E49486804F0FCFE3C
:101D90000C4A52689288C2EB02125100094A5068FC
:101DA000002204F0E3FD0120064948700020487538
:101DB00005E004E0002003494870087000BF00BF40
:101DC00010BD0000B00300202801234210B559487F
:101DD00000780B2807D2DFE800F006072B3E4F57AC
:101DE000687CA0A8A900A2E05248807D48B951486B
:101DF00040684078D8B900204E4948700120887565
:101E000015E04C48807D012811D14B48006801281D
:101E100005D10220474948700020887507E04548F1
:101E20004068407818B901212020FFF743FA7EE08E
:101E300041480068012805D102203E494870002031
:101E4000887507E03B484068407818B90121202098
:101E5000FFF730FA6BE038480068012803D1022010
:101E60003449487007E033484068407818B9012188
:101E70002020FFF71FFA5AE02E484068407810B93A
:101E800002202C49487052E02B480068012803D1F9
:101E900002202849487007E026484068407818B971
:101EA00001212020FFF706FA41E0224840684078EF
:101EB00070B92148001F0068012804D11D49087528
:101EC0000220487004E000201A4948700920087078
:101ED0002DE0184840684078F0B91748001F0068A6
:101EE00001280AD0144808380068012805D10220CA
:101EF00010494870012048750EE00F48001F006827
:101F0000012805D102200B4948700020487503E0E4
:101F100006212020FFF7CEF909E006484068407806
:101F200010B902200349487001E000E000BF00BF83
:101F300010BD0000B00300202801234210B5144852
:101F4000407820B9FFF748FE00201149886010480A
:101F50004078012810D1FFF739FF0D488068401CF8
:101F60000B4988600846806844F62061884203D99E
:101F700000214020FFF79EF905484078022805D14E
:101F800004480078022801D0FFF7CAFD10BD000008
:101F9000B00300203C04002010B5534800780F28FF
:101FA00009D2DFE800F008090C0F1822362C40583F
:101FB0006983889C9D0094E002F0EAFD91E002F0C4
:101FC000E7FD8EE048488068416A48A0FEF7AAF91C
:101FD00002F0DEFD85E00020434981F825004870CD
:101FE0008870087081F824007BE000203E4981F869
:101FF000250048708870087081F8240071E0002086
:10200000394981F8250048708870087081F82400EB
:1020100067E00020344981F8250048708870087016
:1020200081F824005DE0364800780C2809D1344856
:102030008078022805D100202B498870092008707B
:1020400008E02F4800780E2804D10D20264908709A
:102050000020887045E02A488068406A2849498AFB
:10206000884208D127480068012804D100201E4971
:1020700088700A20087034E0FEF7F8F822490860FA
:10208000194890F82600401C174981F826001F487F
:102090000078401E1D4908701B480068FEF7EAF8EA
:1020A0000020114988700B2008701AE003210820D5
:1020B00001F022FD15E0FEF7D9F8134908600A483F
:1020C00090F82700401C084981F827000E48006856
:1020D000FEF7D0F80321082001F00EFD01E000E03A
:1020E00000BF00BF10BD00001004002061646A2022
:1020F000626F7820706F733A25640D0A000000004B
:10210000CC030020000123421800002044040020DA
:1021100010B5FB480078002803DC0120F94981F85C
:102120002B00F848007830B1F64890F82420017868
:10213000F5A0FEF7F7F8F34800780F2809D2DFE89A
:1021400000F00809213F63D1F2F1F0EFEEEDECEB86
:10215000EA0031E2F248006801280AD1E9498868BA
:1021600005F042F80220E74988700020896848623B
:1021700007E00120E349887000228868114604F0D6
:1021800017FC19E2E6480C38006801280AD1DD493D
:10219000486805F029F80220DA498870002049686B
:1021A00048620CE0FEF772FC48B1D64945F2C032F5
:1021B0004868002104F0FCFB0120D2498870FBE153
:1021C0000120D0498870002089688870CD498868CE
:1021D00004F0DAFCD248006801280AD1D1A0FEF749
:1021E000A1F8C849002288684FF4FA7104F0BEFBD8
:1021F00009E0CFA0FEF796F8C249002288684FF4A4
:102200002F7104F0B3FBD7E1BE4890F8240000BB67
:10221000C3480C380068012816D10020B949496824
:102220008870B849486804F0AFFCB64A5268928892
:1022300002EB82025100B34A5068002204F096FB80
:102240000120B04988704CE00120AE4981F824009B
:1022500047E0AC4890F82400012808D1FEF716FCAE
:1022600028B3A8490878022101F046FC39E0A548C6
:1022700090F82400022820D1A9480068012817D12D
:102280000020A049896888709E49886804F07CFC19
:102290009C4A9268928802EB82025100994A9068A7
:1022A0004FF4FA5204F062FB01209649887018E05E
:1022B0000320944981F8240013E0924890F8240008
:1022C000032805D18F490878012101F015FC08E0A9
:1022D0008C4890F82400042803D10321002001F049
:1022E0000BFC69E1874890F82400E8B98C480C3869
:1022F0000068012806D1002082498870012081F8F9
:1023000024003BE0FEF7C2FB38B37E490878022187
:1023100001F0F2FB32E04EE14CE131E11EE1C0E0C0
:102320009CE07DE02BE033E0764890F82400012823
:1023300018D183480068012810D182488068406A1B
:1023400058B980488068407838B96E4A1169506839
:1023500004F090FB01206B4988700FE0022069496E
:1023600088700BE0674890F82400022806D1FEF739
:102370008DFB18B10221002001F0BEFB1CE1614A77
:10238000116A906804F076FB01205E49887013E1C1
:102390005C4890F8240058B9FEF7DEFB38B3594981
:1023A0008868002104F066FB01205649887036E0F9
:1023B000544890F8240001281AD15948006801288F
:1023C00004D102204F4981F8240028E000204D4923
:1023D000896888704B49886804F0D6FB494A116ABD
:1023E0009068002204F0C2FA01204649887016E085
:1023F000444890F82400022811D149480068012877
:1024000003D13C203E49087002E01E203C49087080
:1024100000203C4981F82B00032101F06DFBCBE04B
:102420003F480C38006801280AD13649486804F052
:10243000DBFE0220334988700020496848620CE0C6
:10244000FEF724FB48B12F4945F2C032486800210D
:1024500004F0AEFA01202B498870ADE029484068AD
:10246000406A2849096988420BD12649486804F026
:10247000BBFE02202349887008460069496848620B
:102480000EE03148006801280AD02D480068012874
:1024900006D11C4988700A461169506804F0EAFAAE
:1024A0008AE01F48001F006801280BD115494868C1
:1024B00004F09AFE02201349887008464069496872
:1024C00048624AE00F4890F82B00012804D100210F
:1024D0008020FEF7EFFE40E0FEF73EFBB0B3104871
:1024E000001D0068012833D0FEF7D0FA78B3012030
:1024F000044988700A465169506804F0BBFA2CE020
:102500004404002010040020474F207461736B3A8C
:102510002564207375627461736B3A25640D0A003B
:10252000188122426475616C20626F780D0A000088
:1025300073696E67616C20626F780D0A000000009D
:1025400008012242CC0300202C01234200E004E0D9
:102550004FF480613020FEF7ADFE2DE000201749DA
:10256000896888701549886804F00EFB134AD169A0
:102570009068002204F0FAF90120104988701BE0ED
:102580000F480068012811D100200C498968887023
:102590000A49886804F0F8FA084A916990680022AC
:1025A00004F0E4F901200549887002E002200349A3
:1025B000887001E000E000BF00BF10BD10040020E3
:1025C0001C81224210B57D4800780F2809D2DFE82F
:1025D00000F008091B2D355B79719AACB4C7E0F0A7
:1025E000F100E8E076480068012803D10220734931
:1025F000887008E071488068407820B94FF4007115
:102600002020FEF757FED6E06D480C380068012800
:1026100003D102206949887007E068484068407823
:1026200018B940212020FEF745FEC4E063488068C9
:10263000407810B9022061498870BCE05F4890F88A
:10264000240050B95D4840684078E0B900205B49FB
:102650008870012081F8240015E0584890F8240083
:10266000012810D0554890F8240002280AD1534878
:102670008068407838B9002050498870032081F87C
:10268000240000E000BF96E04C4890F8240080B1A0
:102690004A4890F8240001280AD148484068407808
:1026A00038B9002045498870022081F8240000E0F4
:1026B00000BF80E041488068407810B902203F495F
:1026C000887078E03D4890F8240050B93B48806815
:1026D0004078B8B9002039498870012081F8240079
:1026E00010E0364890F8240001280AD13348806869
:1026F000407838B9002031498870022081F82400E0
:1027000000E000BF57E02E480C380068012803D1D4
:1027100002202A49887007E028484068407818B9A4
:1027200040212020FEF7C6FD45E02448406840785F
:1027300010B90220214988703DE02148001F00683F
:10274000012803D102201D49887008E01B48406819
:10275000407820B94FF480712020FEF7ABFD2AE0CD
:1027600016488068407898B914488068416A15A076
:10277000FDF7D8FD1248001D0068012803D0022093
:102780000E49887004E000200C4988700C20087005
:1027900011E00A488068407840B9022007498870F3
:1027A00008468068416A0CA0FDF7BCFD03E001E02B
:1027B000FFE700E000BF00BF10BD000010040020D4
:1027C000188122426F757420626F7820706F733A9F
:1027D00025640D0A000000006E65787420626F7831
:1027E00020706F733A25640D0A00000010B514487C
:1027F000807820B9FFF78CFC00201149C860104890
:102800008078012810D1FFF7DDFE0D48C068401C1C
:102810000B49C8600846C06844F62061884203D965
:1028200000214020FEF746FD05488078022805D1AA
:1028300004480078022801D0FFF7AEFB10BD00006D
:10284000100400203C04002030B500228B071C0F30
:102850000F2303FA04F20B4B8C1053F824309343EC
:10286000084C8D1044F8253023468C1053F8243042
:102870008C07240F00FA04F42343024C8D1044F813
:10288000253030BD080001402DE9F0410246002509
:102890000026002000230024002791F803C00CF03C
:1028A0000F0591F803C00CF0100CBCF1000F03D021
:1028B00091F802C04CEA050591F800C0BCF1000F88
:1028C00031D0146800202BE04FF0010C0CFA00F31B
:1028D000B1F800C00CEA03069E4220D183004FF0FD
:1028E0000F0C0CFA03F7BC4305FA03FC4CEA040492
:1028F00091F803C0BCF1280F06D14FF0010C0CFA7F
:1029000000FCC2F814C00AE091F803C0BCF1480F03
:1029100005D14FF0010C0CFA00FCC2F810C0401CAD
:102920000828D1D31460B1F800C0BCF1FF0F34DD2A
:10293000546800202EE000F1080C4FF0010808FA5E
:102940000CF3B1F800C00CEA03069E4221D18300CB
:102950004FF00F0C0CFA03F7BC4305FA03FC4CEAEA
:10296000040491F803C0BCF1280F05D100F1080C54
:1029700008FA0CF8C2F8148091F803C0BCF1480FB3
:1029800007D100F1080C4FF0010808FA0CF8C2F862
:102990001080401C0828CED35460BDE8F0810000B0
:1029A000F0B50A46002300240021002500F000466F
:1029B000B6F1004F02D11D4EF16901E01B4E716866
:1029C000C0F3034583B200F44016B6F5401F08D1AA
:1029D00021F07061154E766826F07066134F7E60A8
:1029E00012E000F48016B6F5801F06D1032606FA21
:1029F00005F4A14341F0706106E0460D360103FA8B
:102A000006F6B14341F0706122B1460D360103FA7A
:102A100006F6314300F00046B6F1004F02D1034EF6
:102A2000F16101E0014E7160F0BD00000000014065
:102A3000416170470161704710B55E480078112808
:102A40000AD2DFE800F0090A1316191C232A444DA4
:102A50005F718E97A0B3B400AAE000F05DFE002085
:102A6000544981F8230088700870A1E002F082F8D0
:102A70009EE002F07FF89BE002F07CF898E00020F6
:102A80004C4981F823008870087091E00020494982
:102A900081F82300887008708AE047480078092888
:102AA0000BDB454800780B2807DC0020414981F802
:102AB000230088700820087008E03F4800780E283E
:102AC00004D10F203B4908700020887070E000207E
:102AD0003849887009200870002081F8230067E0D9
:102AE00036480068012808D10020324988700A2041
:102AF0000870002081F8230003E000210120FEF788
:102B0000D9FB55E02D480068012808D1002029494B
:102B100088700B200870002081F8230003E000215A
:102B20000120FEF7C7FB43E0234800780D280CD1B5
:102B300021488078022808D100201E4988700C2086
:102B40000870002081F823000AE01B4800780E2856
:102B500006D10F20174908700020887081F82300E3
:102B600026E00020134988700D200870002081F8AD
:102B700023001DE000200F4988700E2008700020FF
:102B800081F8230014E00D483C38006801280CD07F
:102B90000B480068012808D10020074988760549BC
:102BA00081F8230088700720087001E000E000BF72
:102BB00000BF10BDE8030020CC0300203C012342ED
:102BC0001081224210B5E248007811280AD2DFE8CD
:102BD00000F0090A1021384488CCF5FEF2F1F0EF3C
:102BE000EEEDEC00B1E100F0A9FB0120D8498870BE
:102BF000ABE1D8480068012803D10220D44988708D
:102C000007E00120D249887000224868114603F08D
:102C1000CFFE9AE1CF4834380068012807D1CE486A
:102C20000068012803D10220C949887008E001200A
:102C3000C949A0310860C949C1F8AC01C4498870CC
:102C400083E10120C6490860C449C1F8B801C249FE
:102C5000AC310860BE49887077E1BD4890F8230028
:102C600028B9BB490878042100F02CFF38E0B848A7
:102C700090F82300012805D1B5490878032100F018
:102C800021FF2DE0B24890F8230002281FD1B1485F
:102C90000068012816D10020AD4949688870AC4908
:102CA000486803F071FFAA4A5268928802EB8202D8
:102CB0005100A74A5068002203F058FE0120A449A1
:102CC00088700DE00320A24981F8230008E0A048A5
:102CD00090F82300032803D10221002000F0F2FE27
:102CE00033E19B4890F8230028B9994908780421DA
:102CF00000F0E8FE38E0964890F82300012805D15E
:102D000093490878032100F0DDFE2DE0904890F80B
:102D1000230002281BD18F480838006801280DD0F5
:102D20008D48001F0068012808D18E4800680128DE
:102D300004D00221002000F0C5FE15E0844A51694C
:102D4000506803F097FE0120814988700CE08048AC
:102D500090F82300032807D182480068012803D097
:102D60000221002000F0AEFEEFE0FDF7E5FED8B155
:102D7000774890F8230028B975490878032100F0B6
:102D8000A1FE11E0724890F82300012805D1704996
:102D90000878022100F096FE06E06D4890F82300C6
:102DA000022801D16A498870CFE0CDE0CBE096E0FF
:102DB00058E043E03BE023E009E0FFE701206449FD
:102DC00088700A465169506803F054FEBDE06048BF
:102DD00090F8230038B900205F49A0310860012035
:102DE0005B4988700BE05A4890F82300012806D10F
:102DF000002059499C310860012055498870A4E0A1
:102E000054480830006801280CD10020544908605B
:102E10005249C1F8B8015049AC31086001204C4911
:102E2000887003E000210120FEF744FA8DE00120C4
:102E300049499C3108604649887086E04A48806864
:102E4000406A4949098A88420BD1474880684078DE
:102E500038B901203E4988700A469169506803F0EC
:102E600009FE72E03B480068012803D1022038497E
:102E7000887033E0364890F8230028B9012034499F
:102E8000887000F05BFA29E0314890F823000128AF
:102E90000CD12F4988700B469B690C46E469191BBD
:102EA0002B4B1A8C586803F083FD17E0284890F8E4
:102EB0002300022805D101202549887000F034FA4A
:102EC0000CE0234890F82300032807D10120204973
:102ED000887000224868114603F06AFD35E01C48FE
:102EE00090F8230038B900201B499C31086001206C
:102EF0001749887026E0164890F82300012805D16C
:102F00001549A0310860124988701BE0104890F8FC
:102F10002300022806D101200F49A83108600C497E
:102F200088700FE00A4890F8230003280AD1012096
:102F30000B4908600949C1F8B8010749AC3108607C
:102F40000349887001E000E000BF00BF10BD000031
:102F5000E8030020340123421081224200802242F3
:102F60008081214208012242CC03002010B5C148D3
:102F7000007811280AD2DFE800F0090A15263F4739
:102F8000627D7E86B1C4D9E1F3F2F1006FE1B94808
:102F90008068B0F5FA6F04D900F0C6F90220B5498F
:102FA000887064E1B4480068012803D10220B14967
:102FB000887007E0AF484068407818B9202108467B
:102FC000FEF778F953E1AB48806840F2DC51884263
:102FD00011D9A94834380068012807D1A7480068EA
:102FE000012803D10220A349887004E04FF4C041B6
:102FF0002020FEF75FF93AE19E488068642802D9F4
:1030000002209C49887032E19A4890F82300A8B1C8
:10301000984890F82300012810D0964890F8230093
:1030200002280AD193484068407838B90220914973
:1030300081F823000020887000E000BF17E18D4870
:1030400090F82300A8B18B4890F82300012810D0F5
:10305000884890F8230002280AD1864840684078C2
:1030600038B90320834981F823000020887000E0EC
:1030700000BFFCE0FBE07F484068407810B90220C8
:103080007C498870F3E07B4890F8230078B9794850
:103090008068B0F5967F20D97848006801281CD058
:1030A0000120744981F823000020887015E07148E0
:1030B00090F82300012810D16E48806840F2DC515E
:1030C00088420AD96C4834380068012805D00020AD
:1030D000684981F8230002208870C8E0654880684C
:1030E00064280DD9644808300068012803D1022003
:1030F0006049887004E04FF400612020FEF7DAF8A0
:10310000B5E05C48806840F2DC5188420DD95A48ED
:1031100034380068012803D102205649887004E041
:103120004FF400512020FEF7C5F8A0E05148406858
:10313000407810B902204F49887098E04D4890F8C7
:10314000230070B94B488068B0F57A7F41D90020E0
:1031500048498870012081F823003AE086E084E045
:1031600038E0444890F8230001280AD141484068DB
:10317000407828BB00203F498870022081F8230056
:1031800027E03C4890F8230002280AD1394880689B
:1031900064281ED9002037498870032081F8230055
:1031A00017E0344890F82300032812D13248006811
:1031B000012806D100202F4981F8230002208870C1
:1031C00007E02C484068407818B920210846FEF7EF
:1031D00071F84CE0274890F8230070B925488068C2
:1031E0002449898988423FD90020224988700120DA
:1031F00081F823000020886036E01E4890F8230004
:1032000001280ED11B4880681A49C98988422BD9E8
:10321000002018498870022081F82300002088606F
:1032200022E0144890F8230002280CD1114880684D
:10323000642819D900200F498870032081F82300E1
:103240000020886010E00B4890F8230003280BD181
:1032500008488068642807D90020064981F82300BF
:10326000022088700020886001E000E000BF00BFFD
:1032700010BD0000E80300203401234210812242E7
:1032800010B51448807820B9FFF79CFC0020114944
:10329000886010488078012810D1FFF767FE0D483C
:1032A0008068401C0B4988600846806844F62061AD
:1032B000884203D900214020FDF7FCFF05488078B3
:1032C000022805D104480078022801D0FFF7B4FB9A
:1032D00010BD0000E80300203C04002010B501F000
:1032E000C5FA00F053FA00200C4908600C49C1F8F7
:1032F000A4010120094908310860091D0860091D61
:103300000860064918310860091D08600549086011
:10331000091D08600249C1F8B40110BDA081224214
:10332000008022428081214210B5012002490860BC
:1033300000F0F2F910BD00008481214210B504496B
:1033400091F8220000F004FA00200249086010BD44
:10335000E80300208481214210B501F057FA114999
:10336000086011490F48006805F0B2FD0AD201203B
:103370000E490860642003F091F801200C49C1F85F
:10338000A00110BD0B490748006805F0A1FC06D25A
:103390000020064908600649C1F8A001F1E7064887
:1033A0000078EEE7B00100200000A043A481224293
:1033B0000080224200007A43AC01002010B50024B6
:1033C0000020134908601349C1F8B00101201049D9
:1033D0000C310860091D08600F490860091D08606C
:1033E0000B490831086001F011FA04460B492046E8
:1033F00005F06EFC05D201200549091F0860032075
:1034000010BD00200249091F08600220F8E70000F3
:10341000AC81224200802242808121420000204172
:103420002DE9F04F89B005460E4617469846002410
:103430004146129805F0B8FD089000BF48E04FF0F3
:103440008041304605F01AFB4FF08041079030462E
:1034500005F014FB0490204605F00EFC039004993F
:1034600005F0A2FD0590139905F066FC06900799FA
:1034700005F004FB82468AF00040019003F072F8E8
:103480004FF07E51029005F085FA039005F056FA50
:1034900002460B46CDE904010020134904F0E0FF89
:1034A000CDE9060104F0AAFF81464946089805F0D7
:1034B00043FC4146079005F06DFA8346594638466D
:1034C00005F0DCFA079005F0B7FB25F81400641C42
:1034D000204605F0D1FB3146079005F0F9FBAED34D
:1034E00009B0BDE8F08F00000000F03F00BFFEE72C
:1034F00038B5002401217C2001F048FA10208DF815
:10350000030003208DF8020041F20304ADF80040EF
:1035100069460F48FFF7B8F921460D48FFF78AFAC8
:103520004FF47F44ADF8004069460A48FFF7ACF914
:1035300021460848FFF77EFA8024ADF8004069462E
:103540000548FFF7A1F921460348FFF773FA38BD94
:10355000000C0140001401400018014008B5012191
:10356000042001F013FA0121102001F00FFA1020BD
:10357000ADF800008DF8030003208DF802006946C5
:103580000848FFF781F90220ADF8000069460648B7
:10359000FFF77AF90120054908600549C1F8900153
:1035A00008BD0000000801400010014084012242D3
:1035B0000000214270B504461448006820F47020D1
:1035C000124908600846006840F440300860002056
:1035D0000F490860002516E0E0090E490860600602
:1035E000040E022003F0BDFB01200B49C1F8840149
:1035F000022003F0B6FB002005490860022003F01A
:10360000B0FB681CC5B2082DE6DB70BD00080140A8
:1036100084012242900121420000224210B50F484D
:10362000006820F470200D4908600846006840F4E6
:103630004030086001200A4908600A49C1F8840145
:10364000042003F08EFB002005490860042003F0ED
:1036500088FB00200349C1F8840110BD0008014027
:10366000900121420000224210B50F48006820F46A
:1036700070200D4908600846006840F4403008603A
:1036800000200A4908600A49C1F89001042003F0AB
:1036900068FB0120054908600549C1F89001042034
:1036A00003F05FFB10BD00000008014084012242CE
:1036B0000000214210B500241348006820F4702057
:1036C000114908600846006840F4002008600120A5
:1036D0000E49086003F045FB01200D49C1F8840143
:1036E00003F03FFB07E0601CC4B2FA2C03DDFFF7D8
:1036F000BBFF012010BD0548803800680028F2D1CA
:103700000449086000BFF5E700080140900121422C
:10371000000022428401224210B506A0FCF702FEFE
:1037200000200A49086000224021902001F0A2F800
:1037300010BD0000495456303031315F4949435F74
:1037400044697361626C650D0A0000008C012342BC
:1037500010B50446214606A0FCF7E4FD01200A4905
:10376000086022464021902001F084F810BD00003E
:10377000495456303031315F4949435F456E61628B
:103780006C652025640D0A008C01234210B50020D1
:1037900004490860FFF7E2FE00224021902001F07A
:1037A00069F810BD8C01234208B501217C2001F08D
:1037B000EDF84FF4C050ADF8000048208DF803003C
:1037C00069461648FFF760F82020ADF80000482051
:1037D0008DF8030069461248FFF756F80420ADF84B
:1037E000000048208DF8030069460E48FFF74CF8AA
:1037F000FB20ADF8000048208DF8030069460A4818
:10380000FFF742F84FF60170ADF8000048208DF840
:10381000030069460548FFF737F808BD0008014076
:10382000000C01400010014000140140001801404C
:1038300008B50121102001F0A9F83020ADF80000F2
:1038400010208DF8030003208DF80200694604481B
:10385000FFF71AF830210248FFF7ECF808BD000026
:1038600000100140F8B507460D4616461C461020CC
:103870008DF8000002208DF8010000208DF8020074
:1038800001208DF80300684600F0C4F801210846C5
:1038900001F05CF83846FDF79FF917480480174897
:1038A000056046600020154988600846C460002015
:1038B00008618020486100208861C86108624FF477
:1038C00080504862002088623846FDF74AFA01229B
:1038D00002210B48FDF73CFA01210A4802F0B6FB31
:1038E00001213846FDF76CF94FF40010FDF75AF945
:1038F000034800F009F8F8BDB8010020480900208D
:103900006C0002400044004010B5044600212046EF
:10391000FDF756F9044801882046FDF740FA0121D9
:103920002046FDF74DF910BDB801002000BFFEE7AD
:1039300038B5002401217C2001F028F810208DF8F2
:10394000030003208DF802008224ADF80040694690
:103950002048FEF799FF21461E48FFF769F8982492
:10396000ADF8004069461C48FEF78EFF21461A4814
:10397000FFF75EF842F28134ADF80040694617481F
:10398000FEF782FF21461548FFF752F84224ADF8B2
:10399000004069461248FEF777FF21461048FFF7BE
:1039A00047F84FF4E054ADF8004069460B48FEF785
:1039B0006BFF21460948FFF73BF80424ADF80040AF
:1039C00069460848FEF760FF21460648FFF730F8D1
:1039D00038BD000000080140000C0140001001400B
:1039E000001801400014014010B5482001F0DEF934
:1039F000242001F03BFE242001F0F2FC482001F0DD
:103A0000F3FF242001F04AFF242001F0AFFB10BD9A
:103A10007047000070B5002100230F22C47804B362
:103A2000154C246804F4E064C4F5E064210AC1F193
:103A30000403CA40447804FA03F184781440214313
:103A400009010E4C0678A155047804F01F050124E5
:103A5000AC4005786D11AD0005F1E025C5F80041D9
:103A600009E0047804F01F050124AC40044D0678F9
:103A7000761145F8264070BD0CED00E000E400E052
:103A800080E100E002490143024A116070470000F2
:103A90000000FA050CED00E0094A507012788242ED
:103AA00005D1074A127E521C054B5A7602E00022CD
:103AB000034B5A760022024B9A701A4611707047D7
:103AC000CC0300200B4A50701278824207D1094A79
:103AD00092F82320521C074B83F8242003E0002295
:103AE000044B83F824200022024B9A701A4611706E
:103AF00070470000E80300200B4A507012788242A1
:103B000007D1094A92F82420521C074B83F825203C
:103B100003E00022044B83F825200022024B9A7018
:103B20001A461170704700001004002010B500F014
:103B300013F800F0EFFB00F017FC00F037FC00F08A
:103B4000BFFB00F091FB00F0CBFC00F06FFC00F03D
:103B500095FC00F002F810BD7047704706480078E9
:103B6000012808D105480078FF2804D203480078CE
:103B7000401C0249087070472602002019020020EC
:103B800010B500241A480078012830D1FCF76EFBEC
:103B900004461848007820B116480078401E1549A0
:103BA000087014480078F8B913480078E0B900F0BC
:103BB000F9FC12481249097850F8210011490860AF
:103BC0000F4800781049097888420DD00D480068E8
:103BD000806B401C0B49096888630C480068401CD6
:103BE0000A490860FCF761FB2046FCF743FB10BD67
:103BF00026020020190200201A02002078C80020A6
:103C00001C020020340200201B02002000020020C1
:103C100010B500240B480078012811D1FCF726FBD1
:103C200004460948007840B908480078FF2804D2C3
:103C300006480078401C054908702046FCF71AFB2E
:103C400010BD000026020020190200201A020020E8
:103C500010B5002413480078012821D1FCF706FB99
:103C6000044611480078C0B10F480078401E0E4944
:103C700008700846007860B90C48007828B92046DA
:103C8000FCF7F8FA00F054FC0AE02046FCF7F2FAE0
:103C900006E02046FCF7EEFA02E02046FCF7EAFADE
:103CA00010BD0000260200201A0200201902002088
:103CB00010B50B48007890B900F074FC0948007802
:103CC0000949087009480749097850F8210008494E
:103CD00008600846006807490860FCF7CEFA10BD86
:103CE000260200201C0200201B02002078C80020B1
:103CF000340200202C020020704700002DE9FE4F06
:103D000006460F4690461C464FF00009FCF7AEFAF7
:103D100081461F48007828B14846FCF7ABFA3C20A2
:103D2000BDE8FE8F1B4850F8240060BB01201949F4
:103D300041F824004846FCF79DFA002342463946E4
:103D4000304600F009F982460020009001900346B9
:103D5000024651460290204600F03AFC054635B92D
:103D60000D48007801280CD100F0E2FB09E0FCF7D7
:103D70007DFA81460020074941F824004846FCF7B7
:103D800079FA2846CCE74846FCF774FA2820C7E7BA
:103D90001902002078C80020260200202DE9F04FEB
:103DA00085B081468A4693461C46DDE90F78129D10
:103DB00000200390FCF75AFA03902348007830B1B2
:103DC0000398FCF757FA3C2005B0BDE8F08F1F4878
:103DD00050F8240088BB01201C4941F824000398B6
:103DE000FCF748FA2A464146384600F001FD2B46CA
:103DF0005A465146484600F0AFF804901198CDE974
:103E0000008002953A4620460E9B049900F0E0FBA4
:103E1000064636B90E48007801280CD100F088FB20
:103E200009E0FCF723FA03900020084941F8240038
:103E30000398FCF71FFA3046C6E7FFE70398FCF744
:103E400019FA2820C0E700001902002078C80020D5
:103E500026020020704770472DE9F04106460F46C4
:103E600014464FF000081548007818B11220207051
:103E7000BDE8F081FCF7FAF98046FF2E03D1104827
:103E8000006890F832600F4850F826502DB940462F
:103E9000FCF7F0F943202070EAE7012D05D14046F8
:103EA000FCF7E8F943202070E2E7EF644046FCF7B6
:103EB000E1F90020207000BFDAE7000019020020BD
:103EC0002C02002078C80020704700002DE9F04740
:103ED00007460D464FF0000A002028606860FCF796
:103EE000C5F98246FF2F03D11948006890F8327057
:103EF000184850F827402CB95046FCF7BBF943202E
:103F0000BDE8F087012C04D15046FCF7B3F94320FB
:103F1000F6E7207C00F0010020B95046FCF7AAF932
:103F20004520EDE70026D4F80C90D4F808805046E0
:103F3000FCF7A0F900E0761C58F8041B0029FAD021
:103F4000B0002860A9EB0600800068600020D7E779
:103F50002C02002078C8002070B5044610464FF0AF
:103F600080750560051F28462C606FF00106051F4F
:103F700028462E604FF01236051F28462E604FF05F
:103F80000336051F28462E604FF00236051F2846CF
:103F90002E607610051F28462E60051F28462960D2
:103FA0004FF01136051F28462E604FF01036051FC2
:103FB00028462E604FF00936051F28462E604FF028
:103FC0000836051F28462E604FF00736051F284685
:103FD0002E604FF00636051F28462E604FF005363E
:103FE000051F28462E604FF00436051F28462E6018
:103FF00070BD00002DE9F04105464FF00008FCF7C8
:1040000035F98046FF2D05D12048006890F83250E0
:10401000012608E01D48006890F83200A84201D14E
:10402000012600E000261A4850F825402CB94046E9
:10403000FCF720F94820BDE8F081012C04D140466E
:10404000FCF718F94320F6E794F834701148C05D86
:1040500094F8351088430F49C8550846C05D30B9FB
:1040600094F836100C48007888430B49087094F88F
:10407000300040F0080084F830004046FCF7FAF8C1
:10408000012E01D100F054FA0020D4E72C020020C8
:1040900078C800201E0200201D020020704700008A
:1040A00070B5054600261748007800B170BD164867
:1040B000007800B1FAE71DB3FCF7D8F806461348BC
:1040C000006890F834401248005D1049096891F882
:1040D000351088430E4908550846005D40B90B4825
:1040E000006890F836100B4800788843094908703A
:1040F00006480068C5623046FCF7BCF800F018FAC4
:1041000000BFD3E7190200201A0200202C02002071
:104110001E0200201D0200202DE9F04104460D463C
:1041200016461F461248007810B15520BDE8F081B0
:104130001048007808B13220F8E7B81CC82148437D
:104140004FF47A71B0FBF1F14FF461606043C5EB5D
:10415000051200EB8200304400EBC00202EB0010BD
:1041600001EBC0084046FFF79BFF0020DEE70000A0
:10417000190200201A02002070B5002600F072F823
:10418000FCF774F8064631480068401C2F49086067
:104190003046FCF76FF82E480078012853D12D489F
:1041A000007820B1012804D0022809D103E00125BC
:1041B0000BE0002509E0012501202649087004E0F4
:1041C000012500202349087000BF00BF05B970BD5C
:1041D0002148046833E0FCF749F80646E06A50B32A
:1041E000E06A401EE062E06A28BB94F8300000F00C
:1041F000370040B114F8300F00F0C80020700120E3
:104200006070303C02E0002084F8310094F8300007
:1042100000F0080078B93434A078104909780843D0
:104220000E49087020780E49085C6178084314F83C
:1042300034190B4A505464693046FCF71BF894F863
:1042400032003F28C7D100BFC1E700004402002070
:10425000260200203C020020380200201D0200201F
:104260001E020020704700002DE9F0415021114846
:1042700000F02CF900250DE0681C86B20D4800EB1B
:10428000051400EB06170020207067600AA0E060AC
:10429000681C85B2042DEFD3064800EB05140020FE
:1042A0002070606004A0E060024804490860BDE836
:1042B000F081000028C400203F0000000802002018
:1042C00070B5C821114800F001F900230FE0581C17
:1042D00085B203EB83000D4901EB800405EB8500FB
:1042E00001EB8006002020706660581C83B2092B09
:1042F000EDD303EB8300054901EB8004002020701F
:10430000606008460249086070BD000060C300207C
:104310000402002000200A4908600A4908700A497E
:1043200008700A4908700A4908700A4908600A4971
:1043300008600A4908600A4908600A49087070471D
:1043400044020020190200201A0200202702002047
:104350002602002000020020280200201402002073
:10436000100200201802002000210A4A11700020CB
:1043700004E00021084A1154411CC8B20828F8D3AF
:104380000021064A1170064A1170064A1160064A59
:10439000116070471D0200201E0200201B02002039
:1043A0001C020020340200202C02002070B54FF4C3
:1043B0007C71194800F08AF84FF48071174800F0BA
:1043C00085F8002413E0601CC5B2C4EBC40000EB08
:1043D0004000114901EB8003C5EBC50000EB400034
:1043E00001EB80065E610EA0D864601CC4B20B2C89
:1043F000E9D3C4EBC40000EB4000074901EB8003A4
:104400000020586106A0D8640020064908600248D0
:104410000549086070BD000078C9002078C80020F8
:104420003F000000380200203002002000B587B0B5
:104430000320002180220A4BCDE90132CDE903108F
:104440004FF6FF703F23074A00900748FFF7A6FC8E
:1044500006AA06A13F20FFF7FFFC07B000BD000041
:1044600078C6002074C800200547000875432F4F08
:10447000532D49492049646C6500000000B587B0A0
:104480000320002180220A4BCDE90132CDE903103F
:104490004FF6FE703E23074A00900748FFF77EFC68
:1044A00006AA06A13E20FFF7D7FC07B000BD00001A
:1044B00078C4002074C600202D47000875432F4F94
:1044C000532D4949205374617400000004E0002218
:1044D00000F8012B4A1E91B20029F8D17047000064
:1044E0002DE9F04178211048FFF7F0FF00240DE09E
:1044F000601C86B204EB44000B4901EBC00506EBDF
:10450000460001EBC0072F60601C84B2042CEFD37F
:1045100004EB4400044901EBC00500202860084674
:1045200002490860BDE8F08168CD0020400200200B
:1045300010B50024FBF79AFE044613480078F8B93A
:1045400012480078E0B900F02DF8114811490978B7
:1045500050F82100104908600E4800780F4909788A
:1045600088420DD00C480068806B401C0A490968DD
:1045700088630B480068401C09490860FBF78EFE01
:104580002046FBF777FE10BD190200201A0200201A
:1045900078C800201C020020340200201B020020EA
:1045A000000200200649074A1278885C0649095C27
:1045B000034A515C01EBC001044A117070470000CE
:1045C0008C9100081D0200201E0200201C02002009
:1045D0002DE9F84F05460F4690469946DDE90AABAE
:1045E00000200090FBF742FE00903F480468002C3A
:1045F00074D0183454F8040C3B4908600098FBF759
:1046000039FE44F8187CA57600202076607660613B
:1046100044F814BC44F80CAC44F8108C0C9824F802
:10462000080C24F8069C0020E077E810207705F0BD
:104630000700E076217F01208840A077E17E0120FD
:104640008840607700206060E060A0602062A06227
:104650006062E062206325A06063183C002606E0EB
:10466000002104F1500040F82610701CC6B2002E44
:10467000F6D02046FFF740FB2046FFF7EBFBFBF7A9
:10468000F5FD00901A4840F825401A48006860611E
:104690000020A0611748006810B1164800688461C6
:1046A000144804603434A078134909780843124947
:1046B000087020781149085C6178084314F83419AF
:1046C0000E4A50540E480078401C0D49087000985E
:1046D000FBF7D0FD0020BDE8F88FFFE70098FBF75F
:1046E000C9FD4220F7E70000300200203F00000033
:1046F00078C80020380200201D0200201E02002081
:1047000027020020002400BF00BFFBF7AFFD0446D6
:1047100005480068401C044908602046FBF7AAFDD4
:10472000FFF799FBF1E7000028020020002400BFFA
:1047300002E02820FFF7B4FC194800780028F8D0E0
:10474000184800686421B0FBF1F01649086008467B
:10475000006828B9002014490870FF20FFF74AFCC0
:1047600000BFFBF783FD044610480068104908604D
:1047700000200E4908602046FBF77CFD0C480068CD
:1047800008490968B0FBF1F0C0F1640006490870FF
:10479000FFF79AFB00F00EF81420FFF781FCE0E72A
:1047A00018020020100200200C0200202802002025
:1047B000140200207CB5002514E069462846FFF766
:1047C00085FB064666B9094850F8254044B1012CDE
:1047D00006D0D4E9020100EB810060640198A06476
:1047E000681CC5B23F2DE8D97CBD000078C8002008
:1047F00002F0010343B102F002032BB102E0491EB3
:10480000002308C00029FAD1704700002DE9FC47B9
:104810004FF0000A01F01AFD0FFA80FAAAF5CD70E8
:104820000FFA80FABAF1000F17DD504603F070FF5F
:10483000064600220A4B03F013FE04460022094BF1
:1048400003F07EFF80460022074B03F079FFCDE99D
:10485000000103F0D3FDBDE8FC870020FBE700006A
:104860000000B0400000F43F00408F4010B501F060
:1048700005FD10BD70B506460C461546FEF7CEFE8A
:104880003046FEF797FEFEF715FF2046FEF792FE34
:10489000FEF710FF2846FEF78DFEFEF70BFFFEF732
:1048A000E3FE012070BD000010B5164800781649DF
:1048B0000870012013490870144802F095FC144850
:1048C00002F092FC134802F08FFC134802F08CFCBB
:1048D000124802F089FC124802F086FC1148007868
:1048E0001049C875104800780F49C8760F480078FD
:1048F0000E4981F825000E4800780D4981F82800FE
:1049000010BD00003C0400203D0400202C000020CD
:10491000AC0000206C000020EC0000202C010020E6
:104920006C010020B0030020CC030020E80300202D
:104930001004002001460020034A506820F4404043
:1049400008435060704700000010024029B1064A39
:1049500052690243044B5A6104E0034A526982439C
:10496000014B5A61704700000010024029B1064A0D
:10497000D2690243044BDA6104E0034AD2698243FC
:10498000014BDA61704700000010024029B1064A6D
:1049900092690243044B9A6104E0034A926982439C
:1049A000014B9A61704700000010024029B1064A8D
:1049B000D2680243044BDA6004E0034AD2688243BF
:1049C000014BDA60704700000010024030B5002152
:1049D0000022002400232D4D6D6805F00C0121B14B
:1049E000042905D0082923D105E0294D056022E0DE
:1049F000274D05601FE0254D6D6805F47012234DAD
:104A00006D6805F48034022505EB92421CB9214DF6
:104A1000554305600BE01D4D6D6805F400351DB173
:104A20001C4D5543056002E0194D5543056002E0F9
:104A3000174D056000BF00BF144D6D6805F0F00113
:104A40000909154D6B5C0568DD4045600F4D6D68CB
:104A500005F4E061090A104D6B5C4568DD40856036
:104A60000A4D6D6805F46051C90A0B4D6B5C4568D1
:104A7000DD40C560054D6D6805F44041890B074D6B
:104A80006B5CC568B5FBF3F5056130BD00100240F5
:104A900000127A0000093D00EC010020FC0100201A
:104AA00008B501214020FFF771FF3C20ADF8000060
:104AB00010208DF8030003208DF802006946084895
:104AC000FDF7E2FE0020074908600749C1F88C01A4
:104AD0000449083108600449C1F8940108BD000088
:104AE000001801408801234200002342024909883E
:104AF0008143014A1180704704280040014600208C
:104B0000064A12880A40D0B2044A121F12880A408C
:104B100012B108B1012000E00020704704280040D5
:104B200010B50120FFF7EAFF20B10120FFF7DEFFFB
:104B300000F00AF80220FFF7E1FF20B10220FFF7A2
:104B4000D5FF00F001F810BD00BF0348008800F059
:104B500020000028F9D070470428004000200449B4
:104B600088700846407E087608464078087070478E
:104B7000CC030020002005498870084690F82400E6
:104B800081F823000846407808707047E803002049
:104B9000002005498870084690F8250081F8240017
:104BA00008464078087070471004002070B505462C
:104BB0001021002002F0C2F904460CB3284601F08F
:104BC00009FE60B9B5F1004F05D92146002002F079
:104BD000A3F9002070BD284602F00DFA05462946CB
:104BE000002002F0ABF92060206828B9214600209F
:104BF00002F092F90020EDE765600020E060A0601F
:104C00002046E7E7704710B500F002F810BD00003D
:104C10000CB50020019000903348006840F48030CB
:104C20003149086000BF3048006800F4003000904F
:104C30000198401C0190009818B90198B0F5A06F38
:104C4000F1D12948006800F4003010B10120009033
:104C500001E0002000900098012843D1234800681B
:104C600040F01000214908600846006820F0030069
:104C700008600846006840F0020008601A48406872
:104C8000194948600846406848600846406840F452
:104C9000806048600846406820F47C104860084600
:104CA000406840F4E81048600846006840F08070B2
:104CB000086000BF0C48006800F000700028F9D0C0
:104CC0000948406820F003000749486008464068EA
:104CD00040F00200486000BF0348406800F00C004C
:104CE0000828F9D10CBD000000100240002002404D
:104CF00018B10121034A116002E00021014A11604C
:104D0000704700008C812142042808D14FF0E02137
:104D1000096941F004014FF0E022116107E04FF012
:104D2000E021096921F004014FF0E0221161704790
:104D300010B505480078012805D1FEF70FFFFFF7F1
:104D40001BFAFEF71DFF10BD2602002010B5134808
:104D5000006840F0010011490860084640681049A9
:104D600008400E494860084600680E4908400B4953
:104D700008600846006820F4802008600846406803
:104D800020F4FE0048604FF41F008860FFF73BFFEF
:104D90004FF000600449086010BD000000100240A0
:104DA0000000FFF8FFFFF6FE08ED00E010B58AB046
:104DB00004460121C802FFF7E9FD01210420FFF7A5
:104DC000E5FD01210846FFF7E1FD01213148FDF72E
:104DD000E7FD314890FBF4F03049C8624FF4807031
:104DE000ADF8240018208DF8270003208DF8260048
:104DF00009A92B48FDF748FD4FF47A70ADF81C0067
:104E0000601E80B2ADF818000020ADF81E00ADF8AD
:104E10001A008DF8200006A9224800F09BFF01220D
:104E20001146204800F032FF01211E4800F0FCFE30
:104E30007020ADF808000020ADF810000120ADF89A
:104E40000A004FF4FA70ADF80E0002A9154800F000
:104E500027FF0821134800F06FFF0121114800F0DF
:104E6000D7FE19208DF8040001208DF805000020E0
:104E70008DF8060001208DF8070001A8FEF7CAFD95
:104E80000121084800F0E2FE0021064800F0D2FEB1
:104E90000AB010BD0002300000A24A042C0000201D
:104EA00000080140002C014010B501214E4800F0DF
:104EB000DCFE002842D001214B4800F0B8FE4B48F0
:104EC000807828B94948406A401C4849486204E053
:104ED0004648406A401E454948624448806A401C32
:104EE0004249886208464069896A884207D8002199
:104EF0003D4800F09FFE00203C49487010BD3B48F3
:104F0000006A3A49496A884207DC0021364800F0C5
:104F100091FE002035494870F0E734484078022877
:104F20000DD13248C188304800F00FFF2F48C488A7
:104F300004EBD47041102C4800F009FF51E02B48DD
:104F4000407801284DD12948806A2849C96988429A
:104F500015D82648006B254A926A30F8121022486C
:104F600000F0F3FE2148006B204A926A30F81240AC
:104F700004EBD47041101C4800F0E9FE31E01B48FE
:104F800040691A49C969401A1849896A88421BD878
:104F900016484069154A926A801A144A126B32F810
:104FA0001010114800F0D1FE104840690F4A926A73
:104FB000801A0E4A126B32F8104004EBD470411084
:104FC000094800F0C4FE0CE00848C188064800F01B
:104FD000BCFE0648C48804EBD4704110024800F0BF
:104FE000B6FE00BF8AE70000002C01402C00002024
:104FF00010B50221480700F038FE002859D00221E0
:10500000480700F014FE57480078401C55490870C6
:10501000087800EBD0714910A0EB4101514A1170A2
:105020001046007878BB5048807828B94E48406ACE
:10503000401C4D49486204E04B48406A401E4A49C2
:1050400048624948806A401C47498862084640696E
:10505000896A884208D800214FF0804000F0EAFDBC
:1050600000204149487010BD3F48006A3E49496AE6
:10507000884209DC00214FF0804000F0DBFD002079
:1050800039494870EFE7FFE737484078022811D1E7
:105090004007808C3449C98808444FF6FF7190FB63
:1050A000F1F201FB120084B221464FF0804000F083
:1050B0004EFE55E02C484078012851D12A48806A9C
:1050C0002949C969884216D82748006B2649896A48
:1050D00030F811004FF08041898C08444FF6FF7181
:1050E00090FBF1F201FB120084B221464FF08040A8
:1050F00000F02DFE34E01C4840691B49C969401A84
:105100001949896A884219D8174840691649896A35
:10511000401A1549096B31F810004FF08041898C15
:1051200008444FF6FF7190FBF1F201FB120084B2CC
:1051300021464FF0804000F00AFE11E04FF0804021
:10514000808C0949C98808444FF6FF7190FBF1F241
:1051500001FB120084B221464FF0804000F0F7FDC1
:1051600000BF80E7CB0100202C01002010B58AB0E1
:10517000044601210846FFF7F9FB01210520FFF74E
:1051800005FC01212F48FDF70BFC01212E48FDF7FE
:1051900007FC2E4890FBF4F02D49C8624FF4004004
:1051A000ADF8040018208DF8070003208DF80600E4
:1051B00001A92848FDF768FB4FF6FF70ADF8200005
:1051C000601E80B2ADF81C000020ADF82200ADF8E2
:1051D0001E0007A94FF0804000F0BCFD3020ADF864
:1051E0000C004FF4FA70ADF812000120ADF80E007B
:1051F0000020ADF814004FF48070ADF818000020C6
:10520000ADF81A0003A94FF0804000F049FD0021DD
:105210004FF0804000F090FD01220221480700F08D
:1052200035FD1C208DF8080001208DF809000020B4
:105230008DF80A0001208DF80B0002A8FEF7EAFBAA
:105240000AB010BD00031800000230000051250212
:105250002C0100200008014010B502215C4800F03C
:1052600004FD00285DD00221594800F0E0FC5948B7
:105270000078401C57490870087800EBD07149103D
:10528000A0EB4101534A117010460078002833D139
:105290005148807828B95048406A401C4E494862BD
:1052A00004E04D48406A401E4B4948624A48806AC3
:1052B000401C4949886208464069896A88420AD880
:1052C0000021434800F0B6FC01204449086000205A
:1052D0004149487010BD4048006A3F49496A8842C8
:1052E0000ADC00213A4800F0A5FC01203B49086097
:1052F000002039494870EDE737484078022811D13D
:105300003348243000883449C98808444FF6FF7177
:1053100090FBF1F201FB120084B221462C4800F010
:1053200016FD52E02C48407801284ED12A48806A68
:105330002949C969884215D82748006B2649896AD6
:1053400030F8110022492431098808444FF6FF71D2
:1053500090FBF1F201FB120084B221461C4800F0E0
:10536000F6FC32E01C4840691B49C969401A1A49D9
:10537000896A884218D8184840691749896A401ACA
:105380001549096B31F81000114924310988084486
:105390004FF6FF7190FBF1F201FB120084B221463F
:1053A0000B4800F0D4FC10E00948243000880A497A
:1053B000C98808444FF6FF7190FBF1F201FB12001F
:1053C00084B22146024800F0C2FC00BF82E7000020
:1053D00000040040CC010020AC0000209C012342CE
:1053E00010B58AB0044601210220FFF7BFFA01215F
:1053F0000520FFF7CBFA274890FBF4F02649C86256
:105400004020ADF8040018208DF8070003208DF827
:10541000060001A92148FDF737FA4FF6FF70ADF8F5
:105420002000601E80B2ADF81C000020ADF8220004
:10543000ADF81E0007A91A4800F08CFC3020ADF82A
:105440000C004FF4FA70ADF812000120ADF80E0018
:105450000020ADF8140003A9114800F021FC002140
:105460000F4800F069FC012202210D4800F00EFCFB
:105470001D208DF8080001208DF8090000208DF80E
:105480000A0001208DF80B0002A8FEF7C3FA0AB04B
:1054900010BD000000512502AC00002000080140B2
:1054A0000004004010B50221654800F0DEFB002832
:1054B00074D00221624800F0BAFB62480078401CB8
:1054C00060490870087800EBD0714910A0EB4101E9
:1054D0005C4A117010460078002836D15A4880780E
:1054E00028B95948406A401C5749486204E0564868
:1054F000406A401E544948625348806A401C5249E1
:10550000886208464069896A884207D800214C4869
:1055100000F090FB00204C49487010BD4A48006ADA
:105520004949496A884210DC0021454800F082FB65
:105530000020454948700120444981F82B00424829
:10554000416A43A0FAF7EEFEE7E7404800780628F4
:105550000FD13E4890F8240058B94348006801280C
:1055600007D00021364800F065FB0020364948701E
:10557000D3E735484078022811D1314824300088DB
:105580003149C98808444FF6FF7190FBF1F201FBE5
:10559000120084B221462A4800F0D9FB4EE02A4886
:1055A000806A2949C969884215D82748006B26496D
:1055B000896A30F8110022492431098808444FF6DD
:1055C000FF7190FBF1F201FB120084B221461C48EE
:1055D00000F0BDFB32E01C4840691B49C969401A14
:1055E0001949896A884218D8174840691649896A52
:1055F000401A1549096B31F8100011492431098806
:1056000008444FF6FF7190FBF1F201FB120084B2E7
:1056100021460B4800F09BFB10E00948243000882D
:105620000949C98808444FF6FF7190FBF1F201FB6C
:10563000120084B22146024800F089FB00BF6CE7EB
:1056400000080040CD0100206C0100201004002063
:1056500066756C6C2074686520706F7320697320A8
:1056600025640D0A000000003801234210B58AB0FD
:10567000044601210420FFF779F901210920FFF7F1
:1056800085F9274890FBF4F02649C8624020ADF820
:10569000040018208DF8070003208DF8060001A9EA
:1056A0002148FDF7F1F84FF6FF70ADF82000601EBD
:1056B00080B2ADF81C000020ADF82200ADF81E004D
:1056C00007A91A4800F046FB3020ADF80C004FF453
:1056D000FA70ADF812000120ADF80E000020ADF810
:1056E000140003A9114800F0DBFA00210F4800F074
:1056F00023FB012202210D4800F0C8FA1E208DF87C
:10570000080001208DF8090000208DF80A00012012
:105710008DF80B0002A8FEF77DF90AB010BD00005D
:10572000005125026C010020000C014000080040DF
:1057300010B50221564800F098FA002856D00221F0
:10574000534800F074FA53480078401C51490870DF
:10575000087800EBD0714910A0EB41014D4A11705F
:105760001046007868BB4C48807828B94A48406A9F
:10577000401C4949486204E04748406A401E464987
:1057800048624548806A401C43498862084640692F
:10579000896A884207D800213D4800F04BFA002072
:1057A0003D49487010BD3C48006A3B49496A8842FF
:1057B00007DC0021364800F03DFA002036494870E9
:1057C000F0E735484078022811D13148243000886C
:1057D0003149C98808444FF6FF7190FBF1F201FB93
:1057E000120084B221462A4800F0B1FA4EE02A485D
:1057F000806A2949C969884215D82748006B26491B
:10580000896A30F8110022492431098808444FF68A
:10581000FF7190FBF1F201FB120084B221461C489B
:1058200000F095FA32E01C4840691B49C969401AEA
:105830001949896A884218D8174840691649896AFF
:10584000401A1549096B31F81000114924310988B3
:1058500008444FF6FF7190FBF1F201FB120084B295
:1058600021460B4800F073FA10E009482430008804
:105870000949C98808444FF6FF7190FBF1F201FB1A
:10588000120084B22146024800F061FA00BF89E7A5
:10589000000C0040CE0100206C00002010B58AB042
:1058A000044601210820FFF761F801210520FFF7D8
:1058B0006DF8274890FBF4F02649C8620120ADF846
:1058C000040018208DF8070003208DF8060001A9B8
:1058D0002148FCF7D9FF4FF6FF70ADF82000601E9D
:1058E00080B2ADF81C000020ADF82200ADF81E001B
:1058F00007A91A4800F02EFA3020ADF80C004FF43A
:10590000FA70ADF812000120ADF80E000020ADF8DD
:10591000140003A9114800F0C3F900210F4800F05A
:105920000BFA012202210D4800F0B0F932208DF867
:10593000080001208DF8090000208DF80A000120E0
:105940008DF80B0002A8FEF765F80AB010BD000044
:10595000005125026C00002000080140000C0040AE
:1059600010B501210D4800F080F9B0B101210B48BC
:1059700000F05DF90A480078012808D0FCF7DEFA4B
:10598000FCF7A0F8FDF77CFCFCF730FF05E00548CC
:10599000007810B103200249087010BD00100040CB
:1059A0003C0400203E04002010B501210B4800F00B
:1059B0005CF9012810D10121084800F038F90848A5
:1059C0000068401C064908600648006808B90120C4
:1059D00000E000200349086010BD000000140040F2
:1059E000200000209001224210B58AB00446012117
:1059F0004803FEF7CBFF01211020FEF7C7FF01216E
:105A00000846FEF7C3FF304890FBF4F02F49C86208
:105A10004020ADF8240018208DF8270003208DF8D1
:105A2000260009A92A48FCF72FFF4FF47A70ADF839
:105A30001C00601E80B2ADF818000020ADF81E00FA
:105A4000ADF81A008DF8200006A9224800F082F96E
:105A5000012211461F4800F019F901211D4800F0EC
:105A6000E3F87020ADF808000020ADF81000012028
:105A7000ADF80A004FF4FA70ADF80E0002A915480F
:105A800000F00EF90821134800F056F901211148E1
:105A900000F0BEF82C208DF8040001208DF80500E0
:105AA00000208DF8060001208DF8070001A8FDF701
:105AB000B1FF0121074800F0C9F80021054800F0B6
:105AC000B9F80AB010BD000000A24A04EC000020A2
:105AD000001001400034014010B501214A4800F097
