:020000040800F2
:10000000605D00204D020008C14400085D3E00080C
:10001000C54300087F0B00081B7A000800000000A1
:100020000000000000000000000000002959000846
:10003000A30E000800000000DB020008DD5D0008E0
:100040006702000867020008670200089D55000863
:100050006702000867020008A50E00086702000892
:1000600067020008A1100008670200086702000884
:1000700067020008710C00086702000867020008A8
:1000800067020008670200086702000867020008AC
:10009000670200086702000867020008ED10000808
:1000A00067020008555F0008670200086702000841
:1000B0009D6000080563000851650008670200089C
:1000C000670200086702000867020008670200086C
:1000D00067020008E177000867020008670200086D
:1000E000210F000867020008670200086702000885
:1000F000B16B000867020008670200086702000889
:100100006702000867020008BD6700086702000870
:100110006702000867020008ED690008816A0008AC
:10012000670200086702000867020008670200080B
:1001300000F002F800F06BF80AA090E8000C82448E
:100140008344AAF10107DA4501D100F060F8AFF26B
:10015000090EBAE80F0013F0010F18BFFB1A43F0A5
:10016000010318476C2C01008C2C01000A444FF04D
:10017000000C10F8013B13F0070408BF10F8014B06
:100180001D1108BF10F8015B641E05D010F8016B4B
:10019000641E01F8016BF9D113F0080F1EBF10F8AF
:1001A000014BAD1C0C1B09D16D1E58BF01F801CBD2
:1001B000FAD505E014F8016B01F8016B6D1EF9D555
:1001C0009142D6D37047000000230024002500266A
:1001D000103A28BF78C1FBD8520728BF30C148BFAA
:1001E0000B607047642900F00981752900F00681D1
:1001F000782900F03F81632900F02183732900F002
:100200002683002070471FB51FBD10B510BD00F03C
:1002100087FB1146FFF7F7FF08F0F4F800F0A5FBA5
:1002200003B4FFF7F2FF03BC07F075FDEFF309809D
:10023000704780F309887047EFF30880704780F3B8
:100240000888704740BA7047C0BA7047094880476D
:1002500009480047FEE7FEE7FEE7FEE7FEE7FEE7A8
:10026000FEE7FEE7FEE7FEE704480549054A064BC0
:1002700070470000F95D0008310100086057002058
:10028000605D00206059002060590020EFF310806D
:1002900072B6704780F310887047204C204D25605F
:1002A0004FF0000484F309881E4C4FF001052570BF
:1002B0001D4C4FF08055256062B6FEE730B41A4CF5
:1002C0004FF08055256030BC704730B4164C4FF06D
:1002D0008055256030BC704700BF72B6EFF30980CF
:1002E00028B1203880E8F00F10490968086000B58F
:1002F0000F4880475DF804EB0E480F490A780270FA
:100300000A480E490A680260106890E8F00F203031
:1003100080F309884EF0040E62B6704720ED00E0CD
:100320000000FFFF2A02002004ED00E03002002060
:10033000554B00081F020020200200203802002038
:10034000704700000FB4044910B503AA029800F0EA
:1003500083FA10BC5DF814FBC801002070B5044698
:1003600085690068C10601D5302600E02026C00757
:1003700007D070BDD4E9012130469047206A401C67
:1003800020626D1EF6D570BD70B504468569007893
:10039000C00707D170BDD4E9012120209047206A11
:1003A000401C20626D1EF6D570BD70B50C4605462A
:1003B000012A05D02878800600D5EA69002302E0EA
:1003C000012305E05B1C934202D2E05C0028F9D1D6
:1003D000A869E618C01AA861286A18442862284645
:1003E000FFF7BCFF04E0D5E9012114F8010B9047A9
:1003F000B442F8D32846FFF7C7FF70BD2DE9F0419E
:100400000646002410687529314616A510D0AFF3B2
:100410000080002802DA404213A507E031688A070D
:1004200001D512A502E0490704D511A5012401E078
:10043000AFF3008000210A2206F1240709E0B0FB97
:10044000F2FCB0FBF2F302FB1C003030785418468B
:10045000491C0028F3D123462A463046BDE8F04126
:1004600000F08AB9000000002D0000002B00000001
:100470002000000070B504460D4621461068AFF319
:1004800000802188090502D50F4A7A4402E00E4A0D
:100490007A440E32002104F1240305E000F00F0637
:1004A0000009965D5E54491C0028F7D1207800238E
:1004B000000704D5702D02D009B102231132204665
:1004C000BDE8704000F058B9FE2601002DE9F05F4C
:1004D000894604464FF0000ADFF874B1FB44C0F8C7
:1004E00020A02046E1688847002874D0252806D03F
:1004F000D4E901219047206A401C2062F1E70026E0
:100500005F462046E16888472028054607DB312DF5
:1005100005D2781910F8200C08B10643F1E7B007AE
:1005200001D526F00406C4F81CA00027C4F818A0C2
:100530002A2D09D0284607F0E7FB38B304EB8708DB
:10054000303DC8F8185019E059F8041B204604EB58
:1005500087029161E1688847012F054618D1E0695B
:10056000002820DA26F020061DE0D8F8180000EB5D
:10057000800005EB40003038C8F818002046E168DC
:100580008847054607F0C0FB0028EED1012F0AD0AE
:100590002E2D08D12046E16888477F1C0546022F92
:1005A00046F02006C4DBA069002803DA404246F08A
:1005B0000106A061F00701D026F010066C2D0BD0CB
:1005C000682D09D04C2D39D06A2D35D0742D35D0F9
:1005D0007A2D33D016E038E0E1682F462046884770
:1005E000B842054609D16C2F26D04FF48060E168EF
:1005F000064320468847054604E06C2F1AD04FF486
:10060000807006430DB3A5F14100192802D82035AA
:1006100046F400664A462946204626604E46FFF7C5
:10062000E1FD80B101280BD0F61D26F0070000F196
:10063000080956E74020E4E78020D8E70020D6E705
:1006400006F104094DE7284652E7206ABDE8F09F0D
:10065000D4260100032A40F2308010F0030C00F091
:10066000158011F8013BBCF1020F624498BF11F8EC
:1006700001CB00F8013B38BF11F8013BA2F10402A5
:1006800098BF00F801CB38BF00F8013B11F003031D
:1006900000F0F480083AC0F0088051F8043B083AB2
:1006A00051F804CBA0E80810F5E7121D5CBF51F823
:1006B000043B40F8043BAFF30080D20724BF11F89D
:1006C000013B11F801CB48BF11F8012B24BF00F802
:1006D000013B00F801CB48BF00F8012B70474FF0F9
:1006E00000020429C0F0128010F0030C00F01B80FF
:1006F000CCF1040CBCF1020F18BF00F8012BA8BF0D
:1007000020F8022BA1EB0C0100F00DB85FEAC17CD0
:1007100024BF00F8012B00F8012B48BF00F8012B83
:1007200070474FF0000200B51346944696462039B4
:1007300022BFA0E80C50A0E80C50B1F12001BFF49A
:10074000F7AF090728BFA0E80C5048BF0CC05DF800
:1007500004EB890028BF40F8042B08BF704748BF4E
:1007600020F8022B11F0804F18BF00F8012B7047C2
:1007700070477047704770472DE9F0470D4699461E
:100780009246044600F124080168880604D5E06911
:1007900021F01001216000E00120A84201DD471B8B
:1007A00000E00027A1697A1902EB0900081AA0618C
:1007B0002078C00602D42046FFF7D0FD002608E0CE
:1007C000D4E901211AF806009047206A401C761CE3
:1007D00020624E45F4DB2078C0060AD52046FFF79C
:1007E000BDFD06E0D4E9012130209047206A401C7D
:1007F0002062381EA7F10107F4DC07E0D4E90121EB
:1008000018F805009047206A401C2062281EA5F1B8
:100810000105F3DC2046FFF7B7FD2078000602D57E
:100820000220BDE8F0870120FBE710B5436913B152
:10083000AFF3008001E0FFF7B8FD012010BD127892
:1008400000F124010A7000224A700122EDE71168CC
:100850004FF0FF32E9E70000074B70B50D467B44CF
:1008600000F043F80446284600F052F810B14FF06B
:10087000FF3070BD204670BD6F7A000010B5203A81
:10088000C0F00B80B1E81850203AA0E81850B1E849
:100890001850A0E81850BFF4F5AF5FEA027C24BFFF
:1008A000B1E81850A0E8185044BF18C918C0BDE8F6
:1008B00010405FEA827C24BF51F8043B40F8043BBF
:1008C00008BF7047D20728BF31F8023B48BF11F874
:1008D000012B28BF20F8023B48BF00F8012B7047CE
:1008E00001694A1C02610878704700B58FB0CDE9F4
:1008F00001310021059105497944CDE903101146E4
:100900006846FFF7E3FD0FB000BD0000E5FFFFFF05
:10091000007B00F0800070470048704700570020BF
:100920007546FFF7F9FFAE4605006946534620F0CD
:100930000700854618B020B5FFF796FCBDE82040BB
:100940004FF000064FF000074FF000084FF0000B8B
:1009500021F00701AC46ACE8C009ACE8C009ACE83E
:10096000C009ACE8C0098D46704710B50446AFF326
:1009700000802046BDE81040FFF752BC21B18268DC
:1009800042F00102826003E0826822F0010282608C
:100990007047000010B504461248844208D1012176
:1009A000401504F03BFD0021601504F037FD17E011
:1009B0000D48844208D10121001504F02FFD0021CB
:1009C000201504F02BFD0BE00848844208D10121DA
:1009D000C80304F023FD00214FF4004004F01EFD85
:1009E00010BD00000024014000280140003C0140EF
:1009F000014600208A6802F004020AB1012000E0EA
:100A0000002070470146C86C80B270470246002043
:100A100013680B400BB1012000E000207047014635
:100A200000208A6802F008020AB1012000E00020DC
:100A30007047000030B502460020002350680F4C7C
:100A400020400D790C6844EA0524204350609068EA
:100A50000B4C2040D1E902542C434D7944EA450423
:100A600020439060D06A20F470000C7C641EE4B2D5
:100A7000234340EA0350D06230BD0000FFFEF0FF88
:100A8000FDF7F1FFF0B504460D4600200021092DC9
:100A900011DDE068A5F10A0606EB4607072606FA0F
:100AA00007F18843A5F10A0606EB460603FA06F1AC
:100AB0000843E0600CE0206905EB4507072606FACD
:100AC00007F1884305EB450603FA06F10843206168
:100AD000072A0FDA606B561E06EB86071F2606FAFA
:100AE00007F18843561E06EB860605FA06F1084311
:100AF000606322E00D2A0FDA206BD61F06EB860713
:100B00001F2606FA07F18843D61F06EB860605FA6C
:100B100006F10843206310E0E06AA2F10D0606EB3F
:100B200086071F2606FA07F18843A2F10D0606EB99
:100B3000860605FA06F10843E062F0BD816841F0DF
:100B400008018160704721B1826842F4A00282608E
:100B500003E0826822F4A00282607047816841F05D
:100B600004018160704710B503F0AEFB04F0D6FCC1
:100B700003F076F903F028FC03F062FB10BD00BF20
:100B8000FEE7000012480078042812DC11480068D3
:100B9000012801D0012070470F488068C0690E49C4
:100BA000098A884212D00C488068407870B90120C8
:100BB000F1E709488068C0690749098A884205D079
:100BC00005488068407808B90120E4E70020E2E7A2
:100BD0003004002008012242E4030020104800688D
:100BE000012814D10F480068012816D10E4840682A
:100BF000407890B90D484068C0690C4949698842FD
:100C00000BD10A484068407838B90120704706483F
:100C10004068407808B90120F8E70020F6E70000B6
:100C2000080122420C8122423004002008040020E6
:100C300010B506480068012805D00021402000F0CA
:100C400019FC002010BD0120FCE7000004812242B5
:100C500010B506480068012805D00021102000F0DA
:100C600009FC002010BD0120FCE7000038012342F0
:100C700010B54FF4007000F0D5F850B14FF400708B
:100C800000F00CF880210348FFF74BFD024803F009
:100C900087FB10BDF01E00203000024000F08051A4
:100CA00011B10349086001E0024948607047000043
:100CB000040402400000024021B1026842F0010237
:100CC000026004E002684FF6FE731A40026070474B
:100CD00001684FF6FE721140016000210160416021
:100CE0008160C1604B49884208D14A490839496846
:100CF00041F00F01474A083A51608AE045491431F2
:100D0000884208D143490839496841F0F001414A15
:100D1000083A51607DE03F492831884208D13D4979
:100D20000839496841F470613A4A083A516070E004
:100D300038493C31884208D136490839496841F47C
:100D40007041344A083A516063E032495031884278
:100D500008D130490839496841F470212D4A083AD0
:100D6000516056E02B496431884208D1294908393D
:100D7000496841F47001274A083A516049E0254921
:100D80007831884208D123490839496841F07061B7
:100D9000204A083A51603CE01F49884206D1011FB1
:100DA000096841F00F01021F116032E01A49143145
:100DB000884208D11849091F096841F0F001164A14
:100DC000121F116025E014492831884208D11249C8
:100DD000091F096841F470610F4A121F116018E081
:100DE0000D493C31884208D10B49091F096841F47B
:100DF0007041094A121F11600BE0074950318842C7
:100E000007D10549091F096841F47021024A121FE0
:100E1000116070470800024008040240014648681B
:100E200080B2704701460020002201F0805313B1C8
:100E3000054B1A6801E0054B1A6802EA01030BB181
:100E4000012000E000207047000402400000024042
:100E50001AB103680B43036002E003688B4303602D
:100E6000704710B50022026847F6F0739A430C6A87
:100E70008B6823430C6923434C6923438C692343C8
:100E8000CC6923434C6A23438C6A23431A43026090
:100E9000CB6843600B6883604B68C36010BD4160E2
:100EA0007047704710B5012000F0B6F970B33220DA
:100EB00007F008F916480078072810DD1548006883
:100EC000012820D01448006AC8281CD900211348E2
:100ED00005F01CFF002010494870086213E00C4820
:100EE000007806280FD10A4890F8280001280AD176
:100EF00008480068012806D00021084805F006FFD0
:100F0000002005494870012000F080F910BD000064
:100F100030040020008122427401002000080040BB
:100F200010B541A0FFF70EFA4FF4806000F074F99D
:100F3000A8B1322007F0C6F83E480068012807D162
:100F400000213D4805F0E2FE00203C49C8614870A0
:100F50003BA0FFF7F7F94FF4806000F057F94FF42A
:100F6000006000F059F9B0B1C82007F0ABF8314883
:100F7000001D0068012807D00021354805F0C6FE95
:100F800000203449C86148704FF4006000F03EF919
:100F900031A0FFF7D7F94FF4805000F03DF9D0B100
:100FA000322007F08FF823480830006801280BD161
:100FB00000212D4805F0AAFE01201E497431086069
:100FC00000202A49C86148704FF4805000F01EF993
:100FD00027A0FFF7B7F94FF4005000F01DF9B0B1AA
:100FE000322007F06FF813480C300068012807D151
:100FF0000021234805F08AFE00202249C86148707C
:101000004FF4005000F002F91FA0FFF79BF94FF4D6
:10101000004000F001F930B14FF4004000F0F6F864
:101020001CA0FFF78FF910BD6578746931352D313B
:10103000300D0A0028012342002C01404800002006
:1010400047455F73746172745F53656E0D0A0000EB
:10105000000C00408400002047435F726F745F53B0
:10106000656E0D0A0000000000040040C000002072
:1010700047435F7665725F73656E0D0A000000007E
:1010800000340140FC000020457874692031330DA4
:101090000A000000657874692031350D0A000000EF
:1010A00010B5082000F0B8F8A0B1322007F00AF817
:1010B00009480068012807D10021800705F026FEB5
:1010C00000200649C8614870082000F09FF804A07D
:1010D000FFF738F910BD00000C81224238010020D2
:1010E0006578746920330D0A0000000010B52020D7
:1010F00000F092F8B0B1322006F0E4FF2E4800680C
:10110000012809D10021800705F000FE2B48406925
:101110002B49C86100204870202000F077F829A0F2
:10112000FFF710F9402000F077F8A8B1322006F060
:10113000C9FF2148001D0068012807D1002125486A
:1011400005F0E4FD00202449C8614870402000F00B
:101150005DF822A0FFF7F6F84FF4807000F05CF81D
:10116000E8B1322006F0AEFF20480078062812D100
:101170001F48006801280ED11D48001D0068012885
:1011800009D000211B4805F0C1FD00201A49487014
:101190001AA0FFF7D7F84FF4807000F037F84FF43B
:1011A000007000F039F830B1322006F08BFF4FF4B8
:1011B000007000F02BF810BD148122423004002092
:1011C00038010020474F485F656E645F73656E0DA0
:1011D0000A0000000008004074010020474F565FDD
:1011E00073746172745F53656E0D0A00C40300204E
:1011F00020012342002C01404800002047455F6445
:101200006F776E5F53656E200D0A0000014908601C
:101210007047000014040140014600200022074BE3
:101220001B6803EA0102054B14331B680B4013B122
:101230000AB1012000E000207047000000040140D6
:10124000002123498279002A3AD00A4612680368AD
:101250009A430B461A600A1D126803689A430B1DD5
:101260001A60027911440A6803681A430A60184A2E
:101270000832126803689A43154B08331A601A1D26
:10128000126803689A43124B0C331A604279102A91
:101290000ED11A1F126803681A430D4B08331A60E7
:1012A0001A1D126803681A43094B0C331A600DE0CB
:1012B0000749427911440A6803681A430A6005E045
:1012C000027911440A6803689A430A607047000073
:1012D0000004014008B53D4802683D4801883DA032
:1012E000FFF730F83A48008800F0010068B137484D
:1012F00000783F49009008780978491C3C4B1970E8
:1013000001230622114606F04FFD3148008800F007
:10131000200050B1364908780978491C344B1970BF
:1013200009230622114606F01FFD2948008800F017
:10133000400050B12E4908780978491C2C4B19708F
:101340000A230622114606F00FFD2148008800F00E
:10135000100050B1264908780978491C244B1970AF
:1013600008230622114606F0FFFC1948008800F009
:10137000800050B11E4908780978491C1C4B19702F
:101380000B230622114606F0EFFC1148008800F4FA
:10139000807050B1164908780978491C144B1970AF
:1013A0000C230622114606F0DFFC0948008800F4F1
:1013B000007050B10E4908780978491C0C4B19701F
:1013C0000D230622114606F0CFFC08BD20000020A8
:1013D000660400206572726F723A2564206572722D
:1013E0006F725F73656E736F7225640D0A00000083
:1013F000C301002038B504460D4605F093FE0020D9
:10140000164988764870082008700020144981F831
:101410002000C8700F2008700020124981F82300B6
:1014200088701020087000200F4981F8280088700B
:101430000E2008700D48008840F002000B4908801B
:101440000B49009508780978491C094B1970234607
:101450000622114606F0A8FC38BD0000C403002097
:10146000E40300200804002030040020660400206B
:10147000C301002070B504460D464E480088204345
:101480004C4908804C4805600846008800F001007F
:1014900018B305F047FEFFF71DFF00204749887687
:1014A00002204870082008700020454981F820007B
:1014B0000220C8700F2008700020424981F82300E4
:1014C000022088701020087000203F4981F8280011
:1014D000022088700E20087070BDFFF7FBFE3548B3
:1014E000008800F0200030B109203649C870002083
:1014F0008870102008702F48008800F0400038B134
:10150000304800782F49C87000208870102008707B
:101510002848008800F0100038B12B4800782A498C
:10152000C870002088700E2008702248008800F0E3
:10153000800038B1244800782349C87000208870A2
:101540000E2008701B48008800F4807030B109201C
:101550001B4988700020C8700F200870154800884B
:1015600000F4007008B307201649C8700020887086
:1015700010200870002081F8230008201249C8704C
:10158000002088700E200870002081F828000C4888
:1015900000780B2809DD0B20094988700020C870ED
:1015A0000F200870002081F82000032007490870F0
:1015B00000BF91E76604002020000020C403002043
:1015C000E40300200804002030040020640400200C
:1015D00008B50121302003F011FFFB20ADF8000019
:1015E00048208DF803006946054801F015FD0420E8
:1015F000ADF800006946034801F00EFD08BD00008B
:10160000001401400010014008B50121402003F002
:10161000F5FE4FF47F40ADF8000048208DF8030040
:101620006946024801F0F8FC08BD000000180140BE
:101630001CB5FFF7CDFF0121084603F0DFFE0020B7
:101640008DF8040001208DF806000021032001F030
:10165000C3FC0C208DF80500012000906846FFF7C0
:10166000EFFD0321084601F0B7FC08208DF80500C6
:1016700000906846FFF7E4FD0521032001F0ACFC73
:1016800008208DF80500202000906846FFF7D8FD5F
:101690000621032001F0A0FC08208DF80500402061
:1016A00000906846FFF7CCFD0721032001F094FC71
:1016B0000C208DF80500802000906846FFF7C0FDE3
:1016C0001CBD0EB5FFF7A0FF0121084603F096FEF2
:1016D00000208DF8080001208DF80A000D2104205B
:1016E00001F07AFC08208DF809008002019001A821
:1016F000FFF7A6FD0C21042001F06EFC08208DF8F8
:1017000009004002019001A8FFF79AFD0B21042077
:1017100001F062FC0C208DF809004FF4006001908C
:1017200001A8FFF78DFD0A21042001F055FC0820D7
:101730008DF80900C001019001A8FFF781FD092182
:10174000042001F049FC08208DF809008001019077
:1017500001A8FFF775FD0821042001F03DFC0820D9
:101760008DF809004001019001A8FFF769FD2820CC
:101770008DF8000002208DF8010000208DF8020095
:1017800001208DF80300684602F09CFE17208DF8BA
:10179000000002208DF8010000208DF802000120D9
:1017A0008DF80300684602F08DFE0EBD0149C86049
:1017B000704700000020024030B5044604254FF475
:1017C000302000F06FF80546042D17D10C48006951
:1017D00040F002000A49086108464461006940F08F
:1017E000400008614FF4302000F05CF805460448E2
:1017F000006941F6FD71084001490861284630BD85
:101800000020024004200B49C96801F0010109B120
:1018100001200EE00749C96801F0040109B1022066
:1018200007E00449C96801F0100109B1032000E094
:1018300004207047002002400348006940F0800007
:1018400001490861704700000020024070B504465D
:101850000D460426F00200F025F80646042E11D1AC
:101860000948006940F00100074908612580F0023D
:1018700000F018F806460448006941F6FE71084079
:1018800001490861304670BD00200240024803490A
:1018900048600348486070472301674500200240C4
:1018A000AB89EFCD00B502460423FFF7ABFF03463B
:1018B00003E0FFF7A7FF0346521E012B01D1002AC8
:1018C000F7D102B90523184600BD000010B55048F5
:1018D0000078102809D2DFE800F008090C120F1573
:1018E0001F29324F545D748B97988FE003F074FE7C
:1018F0008CE003F071FE89E003F06EFE86E003F0F9
:101900006BFE83E000204249487081F8210081F895
:101910002000C870087079E000203D49487081F8C7
:10192000210081F82000C87008706FE0384890F8F6
:10193000220018B90321082002F006FE66E03548AF
:10194000007806280BD133484078022807D10020C0
:101950002F49C87081F82000092008700BE02D483D
:101960000078072807D10020294981F820000E209F
:1019700008700020C87049E004210A2002F0E4FD4C
:1019800044E000202249C8700B200870002081F834
:1019900020003BE020480078082811D11E488078BC
:1019A00002280DD11D484068C0691C494969884218
:1019B00006D10020164981F82000C8700C2008705C
:1019C00024E015480078092811D1134880780228AE
:1019D0000DD112484068C06910494969884206D152
:1019E00000200B4981F82000C8700D2008700DE020
:1019F000074890F8220030B90020054981F82000FE
:101A0000C8700720087001E000E000BF00BF10BDF3
:101A1000E4030020C4030020300400200804002058
:101A200010B5E8480078102809D2DFE800F008096E
:101A300013282E357AFAFEF7F6F5F4F3F2F1BEE14B
:101A4000E04900224868114606F03CFE0120DD49CD
:101A5000C870B4E1DC480068012803D00220D949ED
:101A6000C8700BE0FFF7BAF840B1D6490022886889
:101A7000114606F027FE0120D249C8709FE10120DF
:101A8000D2490860CF49C87099E10020CF49086069
:101A90000120CC49C87092E1CA4890F8200028B9CA
:101AA000C8490878032102F04FFD39E0C54890F895
:101AB0002000012805D1C3490878012102F044FD26
:101AC0002EE0C04890F82000022820D1BE480068CF
:101AD000012817D00020BB4989688870B9498868F7
:101AE00006F0DCFEB74A926892884FF4C87302FB96
:101AF00003F1B44A9068002206F0C2FD0120B1490A
:101B0000C8700DE00320AF4981F8200008E0AD481F
:101B100090F82000032803D10221002002F014FDD8
:101B20004DE1A84890F8200028B9A649087801217D
:101B300002F00AFD6BE0A34890F8200001281BD1B9
:101B4000A248A8380068012805D19E4908780221DA
:101B500002F0FAFC5BE09E484068C0699C49096954
:101B6000884254D19A484068407800284FD10320D9
:101B7000944981F820004AE0924890F82000022819
:101B80001DD194480068012814D191484068C0696B
:101B90008F49096988423AD18D484068407838BBFE
:101BA00001208849C8700A46118A9068002206F010
:101BB00089FD2CE00320834981F8200027E081483B
:101BC00090F82000032805D17E490878032102F00F
:101BD000BBFC1CE07B4890F82000042809D1794A1E
:101BE000518A9068002206F06DFD01207549C87089
:101BF0000DE0744890F82000052808D17348A838F3
:101C00000068012803D10221002002F09DFCD6E0EB
:101C100080E07EE069E050E042E034E01CE004E077
:101C2000FFE702206749C870C9E066488068C0695C
:101C300064494969884203D102206249C8700AE0B8
:101C4000FEF7CCFF38B15F4A518A906806F09CFDE0
:101C500001205C49C870B2E05B4808380068012880
:101C600010D059480C38006801280BD15A484068F8
:101C7000407838B9534A5169506806F085FD012013
:101C80005049C8709BE04F4A52694E4B9B69D11A2C
:101C90004C4A506806F078FD01204A49C8708EE031
:101CA0004849496889684A0046494868002106F061
:101CB00009FD01204349C87081E0434800680128BC
:101CC00003D002203F49C8700EE0FEF787FF58B1ED
:101CD0003C49896889684A003A498868002106F0C9
:101CE000F1FC01203749C87069E039484068C06993
:101CF0003749096988420BD135484068407838B97E
:101D0000304A118A906806F03FFD01202D49C870C5
:101D100055E054E03148008800F4807060B12949F2
:101D2000496889684A0027494868002106F0CAFCCA
:101D300001202449C87041E02848008800F4007060
:101D4000C0B3204890F82000E0B91E488068C06900
:101D50001C49498A884207D11A488068407818B9D6
:101D600002201849C87029E019484068407800BB33
:101D7000144900228868114606F0A4FC012011498C
:101D8000C8701BE00F4890F82000012816D10F48BA
:101D9000A8380068012811D10D484068407840B942
:101DA000084A518A9068002206F08CFC01200549FF
:101DB000C87003E0FFE702200249C87000BF00BFFF
:101DC00010BD0000E40300202C012342B481224214
:101DD0003004002008012242C403002066040020D1
:101DE00010B592480078102809D2DFE800F0080901
:101DF0001ACB8927427879819AA2B3C0DCDD12E13F
:101E00008B480068012803D102208849C87007E088
:101E100086484068407818B905210120FFF72AFB61
:101E200001E18348001F0068012803D002207F4998
:101E3000C87002E07D4880684078F4E07B4890F804
:101E40002000A8B1794890F82000012810D07748E8
:101E500090F8200002280AD174488068407838B988
:101E600000207249C870032081F8200000E000BF04
:101E7000D9E06E4890F8200070B36C4890F82000CC
:101E800001282BD0694890F8200002280DD167481E
:101E90008068407800BB00206449C870084690F80C
:101EA0002000401C81F8200018E0604890F82000D5
:101EB000032813D05D4890F8200004280DD15B481A
:101EC0008068407840B900205849C870084690F8AA
:101ED0002000401C81F8200000E000BFA3E0A2E049
:101EE00052488068407810B902205049C8709AE082
:101EF0004E484068407810B902204C49C87092E0C2
:101F00004A48C06864280BD94A480068012803D1B0
:101F100002204649C87003E010210120FFF7AAFA09
:101F200081E042484068407810B902203F49C870BB
:101F300079E03F480068012803D102203B49C8707E
:101F400007E03A484068407818B905210120FFF7BA
:101F500091FA68E03648001F0068012803D002208B
:101F60003249C87002E031488068407800BF2F488D
:101F70008068407828B901202C4981F8220002208D
:101F8000C87050E02948C06864280BD92948006807
:101F9000012803D002202549C87003E01021012048
:101FA000FFF768FA3FE03EE02348008800F48070C5
:101FB00080B11F480068012803D102201B49C87066
:101FC00030E01A484068407860BB05210120FFF7E7
:101FD00051FA27E01848008800F4007010B3134845
:101FE00090F8200078B91248001F0068012806D038
:101FF00000200E49C870012081F8200012E00B4833
:10200000806840780EE0094890F82000012809D146
:1020100006488068407828B902200449C87000202A
:1020200081F8200000BF00BF10BD0000E4030020C5
:1020300030012342080122426604002010B51848EE
:10204000C07820B9FFF7ECFC00201549C86014489F
:10205000C078012811D1FFF7C3FE1148C068401CA9
:102060000F49C8600846C06844F62061884204D918
:102070000B4801780320FFF7BDF90948C078022812
:102080000CD107480078062802DCFFF71FFC05E0AA
:1020900004480078022801D0FFF718FC10BD0000AA
:1020A000E40300206404002008B5464800780128B5
:1020B00007D145480078444908720720087000207D
:1020C00048704148007809287AD2DFE800F0050618
:1020D000234052616777780072E03C480078C0B9CD
:1020E0003B480078A8B93B48007890B93648007F53
:1020F00050B100203449087702200090C87E0123A7
:102100000522062105F050FE00202F490870487076
:10211000887655E02D480078C0B92D480078A8B9D8
:102120002C48007890B92848007F50B100202649FB
:10213000087702200090C87E08230522062105F0BA
:1021400033FE0020204908704870887638E000206F
:102150001D49087048700846007F48B10020087784
:1021600002200090C87E03230522062105F01CFEF4
:1021700026E01548007F50B100201349087702205F
:102180000090C87E04230522062105F00DFE17E00D
:1021900000200D4948700620087011E005F0EEFEA1
:1021A00058B10D480068012807D00B48001D006891
:1021B000012802D000200449487001E000E000BF7F
:1021C00000BF08BD64040020C4030020E403002015
:1021D00008040020300400202001234210B5564896
:1021E0000078092806D2DFE800F005063946637357
:1021F000929FA0009DE05048807EF0B94F48006853
:10220000012816D100204C49496888704A4948681D
:1022100006F044FB484A5268928802EB8202510061
:10222000454A5068002206F02BFA012042494870C6
:1022300013E00120404988760FE03F48807E012866
:102240000BD105F09BFE40B13B4900224868114686
:1022500006F038FA0120384948706AE005F08EFE31
:1022600040B1354900224868114606F02BFA01209A
:10227000314948705DE03148006801280BD12E4992
:10228000486808F04FF900202B494968C8610220CE
:10229000294948700BE005F071FE40B12649002243
:1022A0004868114606F00EFA01202349487040E0C4
:1022B00005F064FE58B1204A52689269A2F16401A7
:1022C0001D4A506806F060FA01201B49487030E052
:1022D0000020194908761948006801280AD1486881
:1022E00008F020F9002014494968C8610220124909
:1022F00048700BE005F042FE40B10F4900224868EB
:10230000114606F0DFF901200B49487011E005F095
:1023100035FE40B1084A11695068002206F0D2F932
:1023200001200549487004E003E00220024948709A
:1023300000BF00BF10BD0000C403002028012342DD
:1023400010B548480078092806D2DFE800F00506F5
:102350002A3D4E566786870081E04248807E48B914
:10236000404840684078D8B900203E494870012074
:10237000887615E03B48807E012811D13A480068F4
:10238000012805D10220374948700020887607E0EF
:1023900034484068407818B901210846FFF76AF8C8
:1023A0005DE031480068012805D102202D494870C0
:1023B0000020887607E02B484068407818B9012152
:1023C0000846FFF757F84AE027480068012803D17C
:1023D00002202449487007E022484068407818B934
:1023E00001210846FFF746F839E01E48406840786A
:1023F00010B902201B49487031E01B4800680128D1
:1024000003D102201749487007E016484068407819
:1024100018B901210846FFF72DF820E0114840685F
:102420004078C8B90F484068C0690E4909698842B8
:1024300005D107200B490870002048700FE00A48BA
:1024400008380068012803D102200649487003E0DB
:1024500003210120FFF70EF801E000E000BF00BFFC
:1024600010BD0000C40300202801234210B5184805
:10247000407820B9FFF7B2FE00201549C860144823
:102480004078012811D1FFF75BFF1148C068401C5C
:102490000F49C8600846C06844F62061884204D9E4
:1024A0000B4801780220FEF7A5FF09484078022872
:1024B0000CD107480078042802DCFFF7F5FD05E0A1
:1024C00004480078022801D0FFF7EEFD10BD00009F
:1024D000C40300206404002008B5614800780F2878
:1024E00009D2DFE800F008090C0F1822442C5E889E
:1024F00099A9AEB8B900B0E003F08AF8ADE003F0F6
:1025000087F8AAE056488068C16956A0FDF71AFF0F
:1025100003F07EF8A1E00020514981F829004870BD
:102520008870087081F8280097E000204C4981F8F5
:10253000290048708870087081F828008DE000201C
:10254000474981F8280081F829004870084690F82A
:102550002B0058B1002081F82B000220009091F848
:102560002A0004230522062105F01EFC75E0002048
:102570003B4981F82900487081F82800887008706C
:10258000084690F82B0058B1002081F82B0002205B
:10259000009091F82A0004230522062105F004FC8E
:1025A0005BE0354800780C2809D13348C078022810
:1025B00005D100202A498870092008701AE02E48A9
:1025C00000780E2816D10D2025490870002088704B
:1025D0002A48007801280DD0294908780978491C33
:1025E000274B197007230522062105F0BDFB0720A4
:1025F0002249087031E020488068C0691E49498A34
:10260000884208D11F480068012804D100201449DD
:1026100088700A20087020E01B480078401E1A4984
:1026200008701A480078401C1849087000200C49AE
:1026300088700B20087010E00321082001F0B8FF1B
:102640000BE013480078401C114908700321082052
:1026500001F0AEFF01E000E000BF00BF08BD0000D8
:102660003004002061646A20626F7820706F733AD2
:1026700025640D0A00000000E4030020640400202B
:10268000C3010020000123426A04002068040020E6
:102690006904002010B5FC480078002803DC012004
:1026A000FA4981F82C00F94800780F2809D2DFE8B0
:1026B00000F00809213E60D5F2F1F0EFEEEDECEB11
:1026C000EA00E1E2F248006801280AD1EF4988688F
:1026D00007F028FF0220ED49887000208968C86152
:1026E00007E00120E949887000228868114605F05A
:1026F000E9FFC9E2E6480C38006801280AD1E3493D
:10270000486807F00FFF0220E04988700020496800
:10271000C8610BE0FEF736FA40B1DC490022486898
:10272000114605F0CFFF0120D8498870ACE20120A6
:10273000D6498870002089688870D449886806F076
:10274000ADF8D3480068012809D1D2A0FDF7FAFD01
:10275000CE4AD18C9068002205F092FF08E0D0A00C
:10276000FDF7F0FDC94A918C9068002205F088FFC2
:102770008AE20120C54981F82C000020C249087076
:10278000C24890F8280000BBC1480C3800680128F6
:1027900016D10020BD4949688870BC49486806F0D8
:1027A0007DF8BA4A5268928802EB82025100B74A19
:1027B0005068002205F064FF0120B44988704CE0A5
:1027C0000120B24981F8280047E0B04890F828007D
:1027D000012808D1FEF7D6F928B3AC4908780221C0
:1027E00001F0E6FE39E0A94890F82800022820D13F
:1027F000A7480068012817D10020A449896888707B
:10280000A249886806F04AF8A04A9268928802EBCA
:10281000820251009D4A90684FF4FA5205F030FF51
:1028200001209A49887018E00320984981F828000F
:1028300013E0964890F82800032805D193490878BA
:10284000012101F0B5FE08E0904890F82800042826
:1028500003D10321002001F0ABFE15E28B4890F874
:10286000280048BBFEF78EF900285AD088480C385B
:102870000068012810D1854890F82800401C834941
:1028800081F828004DE08EE18CE170E15DE129E105
:10289000E7E0C8E046E055E085488068C0698449C3
:1028A000498A88423DD182488068407808BB02212D
:1028B000002001F07DFE34E0744890F828000128E3
:1028C00018D17C480068012810D17B480068012895
:1028D00027D077488068407858B96C4A11695068A9
:1028E00005F052FF0120694988701AE0022067490B
:1028F000887016E0654890F82800022811D1FEF78C
:1029000041F970B16A488068C0696949498A88425A
:1029100007D167488068407818B90221002001F08B
:1029200047FEB1E10120594981F82C0000205649A9
:102930000870564A116A906805F026FF0120534935
:102940008870A1E1514890F8280008BB5A480C3023
:102950000068012808D14D498868002105F014FF5E
:1029600001204A4988705DE00220484988700720AC
:1029700008705248008840F0100050490880FEF767
:10298000A9FC4E48008820F010004C49088049E01E
:102990003E4890F8280001281AD13D4800680128D7
:1029A00004D10220394981F828003BE00020374952
:1029B000896888703549886805F070FF334A116A64
:1029C0009068002205F07EFE01203049887029E0E1
:1029D0002E4890F82800022824D137480C3000688F
:1029E000012817D136480078401C3549087028481E
:1029F0000068012803D13C202349087002E01E2012
:102A0000214908700020214981F82C00032101F0A0
:102A1000CFFD07E000201D490870887000211020BC
:102A2000FEF728FD30E11A480C38006801280AD169
:102A30001649486807F076FD022014498870002086
:102A40004968C8610CE0FEF79DF848B10F4945F2AE
:102A5000C0324868002105F035FE01200B4988701E
:102A600012E10A484068C06908490969884229D1C9
:102A70000649486807F056FD022004498870084658
:102A800000694968C8612CE06A0400203004002015
:102A9000188122426475616C20626F780D0A000013
:102AA00073696E67616C20626F780D0A0000000028
:102AB000E4030020080122422C0123426604002086
:102AC000690400207148006801280AD07048006835
:102AD000012806D16F4988700A461169506805F0CF
:102AE00053FED1E06C48006801280BD16949486861
:102AF00007F018FD02206749887008464069496858
:102B0000C86121E0634890F82C00012804D100211D
:102B10008020FEF7AFFC17E0FEF79AF880B15E4820
:102B20001438006801280BD0FEF72CF860B10120A2
:102B3000584988700A465169506805F025FE03E03F
:102B40000B210120FEF796FC9EE000205149896888
:102B500088705049886805F0A1FE4E4AD169906896
:102B6000002205F08DFD01204A4988708CE04A481A
:102B700014380068012811D10020464989688870FE
:102B80004449886805F08AFE424A916990680022AB
:102B900005F076FD01203F49887002E002203D49A2
:102BA000887071E070E03D48008800F0100018B1B6
:102BB00002203849887066E03848008800F08000BC
:102BC00018B10220334988705DE03448008800F471
:102BD0000070E8B32F4890F82800F8B92E4808385C
:102BE0000068012808D12B484068407820B90120AE
:102BF000284981F8280046E024480068012842D08E
:102C000027488068407810BB224900224868114656
:102C100005F058FD01201F49887034E01D4890F8E8
:102C20002800012815D11E488068C0691C49498ABE
:102C3000884228D11A488068407840B9154A116BFB
:102C40005068002205F03EFD0120124988701AE00C
:102C500016E0104890F82800022814D11148807816
:102C6000022810D10F48007810280CD10949002201
:102C70004868114605F026FD01200649887002E0EB
:102C800002200449887000BF00BF10BD2C01234200
:102C900008012242300400201481224266040020F0
:102CA000E40300200804002010B5A74800780F288E
:102CB00009D2DFE800F008091A2C345A787099AB71
:102CC000B3C5DEECED003DE1A0480068012803D16A
:102CD00002209D49887007E09B488068407818B9B9
:102CE0000A210120FEF7C6FB2CE198480C38006849
:102CF000012803D102209449887007E09248406877
:102D0000407818B907210120FEF7B4FB1AE18E487C
:102D10008068407810B902208B49887012E18A4897
:102D200090F8280050B9884840684078E0B9002001
:102D300085498870012081F8280015E0824890F8C4
:102D40002800012810D0804890F8280002280AD1D5
:102D50007D488068407838B900207B49887003201E
:102D600081F8280000E000BFECE0774890F82800E8
:102D700080B1754890F8280001280AD1724840684F
:102D8000407838B9002070498870022081F8280006
:102D900000E000BFD6E06C488068407810B902209F
:102DA00069498870CEE0684890F8280050B96648B4
:102DB00080684078B8B9002063498870012081F8A4
:102DC000280010E0604890F8280001280AD15E48E9
:102DD0008068407838B900205B498870022081F80B
:102DE000280000E000BFADE058480C38006801281A
:102DF00003D102205449887007E053484068407866
:102E000018B907210120FEF735FB9BE04E484068CA
:102E1000407810B902204C49887093E04B48001F5D
:102E20000068012803D102204749887007E046481E
:102E30004068407818B909210120FEF71BFB81E0AA
:102E400041488068407898B93F488068C16940A08F
:102E5000FDF778FA3D4818380068012803D00220B1
:102E60003949887004E00020374988700C200870C8
:102E700068E035488068407840B90220324988705F
:102E800008468068C16937A0FDF75CFA5AE059E04E
:102E90003948008800F0100018B102202A498870D3
:102EA0004FE03548008800F0800018B10220264924
:102EB000887046E03048008800F4007038B322483B
:102EC00090F82800A0B921480C380068012806D1E4
:102ED00000201D498870012081F8280031E01A483F
:102EE0004068407898B907210120FEF7C3FA28E02E
:102EF000154890F8280001280AD113484068407806
:102F000028B9002010498870022081F8280018E0B4
:102F10000D4890F82800022813D10C480C3800689E
:102F2000012806D1022008498870002081F8280075
:102F300007E005484068407818B907210120FEF7EE
:102F400099FA00BF00BF10BD300400201881224252
:102F50006F757420626F7820706F733A25640D0A64
:102F6000000000006E65787420626F7820706F73C7
:102F70003A25640D0A0000006604002010B51448CC
:102F8000807820B9FFF786FB00201149C8601048FF
:102F90008078012811D1FFF787FE0D48C068401CDA
:102FA0000B49C8600846C06844F62061884204D9CD
:102FB000074801780520FEF71DFA054880780228A9
:102FC00005D104480078022801D0FFF785FA10BD2A
:102FD000300400206404002030B500228B071C0F51
:102FE0000F2303FA04F20B4B8C1053F82430934355
:102FF000084C8D1044F8253023468C1053F82430AB
:103000008C07240F00FA04F42343024C8D1044F87B
:10301000253030BD080001402DE9F0410246002571
:103020000026002000230024002791F803C00CF0A4
:103030000F0591F803C00CF0100CBCF1000F03D089
:1030400091F802C04CEA050591F800C0BCF1000FF0
:1030500031D0146800202BE04FF0010C0CFA00F383
:10306000B1F800C00CEA03069E4220D183004FF065
:103070000F0C0CFA03F7BC4305FA03FC4CEA0404FA
:1030800091F803C0BCF1280F06D14FF0010C0CFAE7
:1030900000FCC2F814C00AE091F803C0BCF1480F6C
:1030A00005D14FF0010C0CFA00FCC2F810C0401C16
:1030B0000828D1D31460B1F800C0BCF1FF0F34DD93
:1030C000546800202EE000F1080C4FF0010808FAC7
:1030D0000CF3B1F800C00CEA03069E4221D1830034
:1030E0004FF00F0C0CFA03F7BC4305FA03FC4CEA53
:1030F000040491F803C0BCF1280F05D100F1080CBD
:1031000008FA0CF8C2F8148091F803C0BCF1480F1B
:1031100007D100F1080C4FF0010808FA0CF8C2F8CA
:103120001080401C0828CED35460BDE8F081000018
:10313000F0B50A46002300240021002500F00046D7
:10314000B6F1004F02D11D4EF16901E01B4E7168CE
:10315000C0F3034583B200F44016B6F5401F08D112
:1031600021F07061154E766826F07066134F7E6010
:1031700012E000F48016B6F5801F06D1032606FA89
:1031800005F4A14341F0706106E0460D360103FAF3
:1031900006F6B14341F0706122B1460D360103FAE3
:1031A00006F6314300F00046B6F1004F02D1034E5F
:1031B000F16101E0014E7160F0BD000000000140CE
:1031C0000246002093680B400BB1012000E0002074
:1031D00070474161704701617047000010B5684851
:1031E000007811280AD2DFE800F0090A16191C1F1E
:1031F00029334F586A7CA3ACB5C6C700BDE000F0C8
:10320000ADFD00205E4981F82400487081F823005C
:1032100088700870B1E002F0EDF9AEE002F0EAF972
:10322000ABE002F0E7F9A8E00020554981F824005E
:10323000487081F82300887008709EE00020504993
:1032400081F82400487081F823008870087094E0A9
:103250004C48007809280BDB4A4800780B2807DC2B
:103260000020474981F823008870082008700AE090
:10327000444800780E2806D10F20414908700020EC
:10328000887081F8230078E000203D49887009208B
:103290000870002081F823006FE03B480068012897
:1032A00008D10020364988700A200870002081F873
:1032B000230003E000212020FEF7DCF85DE0324827
:1032C0000068012808D100202D4988700B20087063
:1032D000002081F8230003E000212020FEF7CAF837
:1032E0004BE0284800780D2816D12648C0780228DF
:1032F00012D125480068012808D100202049887093
:103300000C200870002081F8230010E000214FF409
:103310000070FEF7AFF80AE01A4800780E2806D1D0
:103320000F20174908700020887081F8230024E0DE
:103330000020134988700D200870002081F82300B8
:103340001BE000200E4988700E200870002081F8D4
:10335000230012E00C483C38006801280AD00B48D2
:103360000068012806D10020054981F823008870F3
:103370000720087001E000E000BF00BF10BD0000A2
:1033800008040020E40300203C0123421081224273
:1033900010B5FA48007811280AD2DFE800F0090ACF
:1033A000102138478BF4F2F1F0EFEEEDECEBEA0090
:1033B00049E200F0DDFC0120F049887043E2F0486A
:1033C0000068012803D10220EC49887007E0012041
:1033D000EA49887000224868114605F073F932E224
:1033E000E74834380068012807D1E648006801281A
:1033F00003D10220E149887008E00120E149A031B1
:103400000860E149C1F8AC01DC4988701BE2012089
:10341000DE490860DC49C1F8B801DA49AC3108601E
:1034200000F09CFC0120D54988700CE2D34890F84C
:10343000230028B9D1490878042101F09FF838E029
:10344000CE4890F82300012805D1CC490878032103
:1034500001F094F82DE0C94890F8230002281FD10C
:10346000C7480068012816D10020C44949688870FF
:10347000C249486805F012FAC04A5268928802EBC5
:1034800082025100BD4A5068002205F0F9F801207F
:10349000BA4988700DE00320B84981F8230008E09C
:1034A000B64890F82300032803D10221002001F040
:1034B00065F8C8E1B14890F8230090B9B0480830E9
:1034C0000068012808D1AD4A5169506805F05CF9DF
:1034D0000120AA4988704BE00220A84981F8230006
:1034E00046E0A64890F82300012807D10020A5490E
:1034F0009C3108600120A149887039E09F4890F80C
:103500002300022805D19D490878042101F036F8EE
:103510002EE09A4890F82300032805D197490878AF
:10352000032101F02BF823E0944890F823000428AD
:1035300011D197480068012804D00221002001F031
:103540001DF815E08D4A5169506805F01DF90120FC
:103550008A4988700CE0894890F82300052807D133
:103560008B480068012803D00221002001F006F8F2
:1035700069E1F6E0F4E0BFE081E06CE061E049E0A1
:103580002FE025E0FFE7FDF753FB00B37B4890F801
:10359000230028B979490878032100F0EFFF16E0ED
:1035A000764890F82300012805D174490878022153
:1035B00000F0E4FF0BE0714890F82300022806D1E8
:1035C0000020744981F8220002206C4988703AE199
:1035D00001206A4988700A465169506805F0D4F89C
:1035E00031E1664890F8230038B900206549A031E0
:1035F00008600120614988700BE0604890F8230062
:10360000012806D100205F499C31086001205B49F8
:10361000887018E15A480830006801280CD1002051
:103620005A4908605849C1F8B8015649AC31086098
:1036300001205249887003E000212020FDF71AFF85
:1036400001E101204F499C3108605349C1F88C01C8
:103650004A498870F7E04F488068C0694D49098A37
:1036600088420BD14B488068407838B901204349E3
:1036700088700A469169506805F086F8E3E0404892
:103680000068012803D102203C49887033E03B48A0
:1036900090F8230028B901203849887000F068FBB1
:1036A00029E0364890F8230001280CD1334988706E
:1036B0000B469B690C46E469191B304B1A8C586801
:1036C00005F000F817E02D4890F82300022805D1F6
:1036D00001202A49887000F041FB0CE0274890F84F
:1036E0002300032807D1012024498870002248685C
:1036F000114604F0E7FFA6E0204890F8230038B90F
:10370000002020499C31086001201C49887026E077
:103710001A4890F82300012805D11A49A031086001
:10372000164988701BE0154890F82300022806D13E
:1037300001201449A8310860104988700FE00F4833
:1037400090F8230003280AD10120104908600E498F
:10375000C1F8B8010B49AC3108600849887072E0C3
:1037600071E00E48008800F02000C8B10120054932
:103770009C3108600149887064E000000804002062
:103780003401234210812242008022428081214262
:1037900008012242E40300200000234266040020C6
:1037A0002A48008800F0400018B10220284988709B
:1037B00048E02648008800F40070A0B3244890F840
:1037C000230080B923484068C0692249096B8842B8
:1037D00038D11F4900224868114604F073FF0120C8
:1037E0001B4988702EE01A4890F82300012806D162
:1037F00000201949086001201549887022E014480A
:1038000090F8230002280FD10120144908601449C0
:10381000C1F8B80110491031086000F09FFA01208A
:103820000B4988700EE00AE0094890F8230003284D
:1038300008D10120084908600549887002E002208B
:103840000349887000BF00BF10BD0000660400205F
:103850000804002030040020AC81224280812142F3
:103860000080224210B5FE48007811280AD2DFE815
:1038700000F0090A15263E46619E9FA7D2E4FDF698
:10388000F5F4F3000FE2F6488068B0F5FA6F04D95A
:1038900000F064FA0220F249887004E2F1480068FE
:1038A000012803D10220EE49887007E0EC48406807
:1038B000407818B906210120FDF7DCFDF3E1E84866
:1038C000806840F2DC51884210D9E64834380068FC
:1038D000012807D1E4480068012803D10220E0490B
:1038E000887003E00E210120FDF7C4FDDBE1DC4818
:1038F0008068642802D90220D9498870D3E1D84869
:1039000090F82300A8B1D64890F82300012810D0E1
:10391000D34890F8230002280AD1D1484068407863
:1039200038B90220CE4981F823000020887000E0D9
:1039300000BFB8E1CA4890F8230050B9C8484068B1
:10394000407888BB0120C64981F823000020887098
:103950002CE0C34890F8230001280CD1C0488068AF
:1039600040F2DC51884221D90220BD4981F8230070
:10397000002088701AE0BA4890F82300022815D079
:10398000B74890F82300032810D0B54890F82300DA
:1039900004280AD1B2484068407828B90320B049C9
:1039A00081F823000020887000E000BF7BE17AE10D
:1039B000AB484068407810B90220A949887072E18C
:1039C000A74890F8230078B9A5488068B0F5967F9D
:1039D00020D9A548006801281CD00120A04981F801
:1039E00023000020887015E09D4890F823000128EE
:1039F00010D19B48806840F2DC5188420AD999482E
:103A000034380068012805D00020954981F823004A
:103A10000220887047E19248806864280CD9914858
:103A200008300068012803D102208D49887003E026
:103A30000C210120FDF71EFD35E18948806840F228
:103A4000DC51884211D9874834380068012808D1F0
:103A500002208349887008E0A5E0A3E056E00DE06D
:103A600004E00E210120FDF705FD1CE17C484068C3
:103A7000407810B902207A49887014E1784890F8AB
:103A8000230050B97648806864283ED900207449E4
:103A90008870012081F8230037E0714890F82300F6
:103AA00001280AD16E484068407828BB00206C4944
:103AB0008870022081F8230027E0694890F82300ED
:103AC00002280AD16648806864281ED9002064490B
:103AD0008870032081F8230017E0614890F82300E4
:103AE000032812D15F480068012806D100205C49F4
:103AF00081F823000220887007E059484068407828
:103B000018B906210120FDF7B5FCCCE0544890F827
:103B1000230070B95248806851498989884240D948
:103B200000204F498870012081F823000020886020
:103B300037E04B4890F8230001280ED148488068B0
:103B40004749C98988422CD90020454988700220FC
:103B500081F823000020886023E0414890F823008A
:103B600002280CD13E48806864281AD900203C49BC
:103B70008870032081F823000020886011E0384815
:103B800090F8230003280CD135488068B0F57A7F7F
:103B900007D90020324981F82300022088700020D4
:103BA000886080E07FE03148008800F0200098B114
:103BB0002B48806840F2DC51884273D92948343858
:103BC0000068012803D10220254988706AE00E218F
:103BD0000120FDF74FFC65E02448008800F040001C
:103BE00060BB2248008800F4007038B31C4890F88D
:103BF000230090B91B480068012805D1184981F8B5
:103C00002300002088704DE0154840684078A8B92E
:103C100006210120FDF72EFC44E0114890F8230016
:103C200001280CD10E48806840F2DC51884239D915
:103C300002200B4981F823000020887032E00848F8
:103C400090F82300022813D105488068642829D9F8
:103C50000320034981F823000020887022E000003F
:103C6000080400203401234210812242660400200F
:103C70000E4890F82300032814D10C48806840F2C5
:103C8000DC5188420ED90A480068012806D102207A
:103C900006498870002081F8230003E00E210120EE
:103CA000FDF7E8FB00BF00BF10BD000008040020C6
:103CB0000001234210B51448807820B9FFF768FB53
:103CC00000201149886010488078012811D1FFF741
:103CD000C9FD0D488068401C0B4988600846806813
:103CE00044F62061884204D9074801780420FDF792
:103CF00081FB05488078022805D104480078022815
:103D000001D0FFF76BFA10BD080400206404002006
:103D100010B501F007FB00F085FA00200C4908609F
:103D20000C49C1F8A4010120094908310860091DA6
:103D30000860091D0860064918310860091D0860FF
:103D400005490860091D08600249C1F8B40110BDA9
:103D5000A0812242008022428081214210B50120B0
:103D60000249086000F01CFA10BD00008481214265
:103D700010B5044991F8220000F01EFA0020024913
:103D8000086010BD080400208481214210B501F0B4
:103D900099FA1149086011490F48006808F0BFF806
:103DA0000AD201200E490860642004F055F9012070
:103DB0000C49C1F8A00110BD0B490748006808F084
:103DC0002FF806D20020064908600649C1F8A00174
:103DD000F1E706480078EEE7B40100200000A043B8
:103DE000A48122420080224200007A43B0010020D8
:103DF00010B500240020154908601549C1F8B0012C
:103E0000012012490C310860091D08601149086041
:103E1000091D08600D49083108600D49C1F8A0016D
:103E2000FFF79CFF01F04EFA04460B49204607F0CD
:103E3000F7FF05D201200549091F0860032010BDC6
:103E400000200249091F08600220F8E7AC812242E5
:103E500000802242808121420000204100BFFEE715
:103E600038B5002401217C2001F0C8FA10208DF81B
:103E7000030003208DF8020041F20304ADF8004076
:103E800069460F48FFF7C8F821460D48FFF7A3F928
:103E90004FF47F44ADF8004069460A48FFF7BCF88C
:103EA00021460848FFF797F98024ADF8004069469D
:103EB0000548FFF7B1F821460348FFF78CF938BDF4
:103EC000000C0140001401400018014010B5002012
:103ED0000F4908600F48006820F470200D49086001
:103EE0000846006840F44030086000200A49C1F8E4
:103EF0009001022004F063FE0120054908600220C1
:103F000004F05DFE00200549C1F8840110BD0000E9
:103F100084012242000801400000214200002242A8
:103F200008B50121042001F069FA0121102001F0F7
:103F300065FA1020ADF800008DF8030003208DF81D
:103F4000020069460848FFF767F80220ADF8000054
:103F500069460648FFF760F80120054908600549F1
:103F6000C1F8900108BD00000008014000100140A8
:103F7000840122420000214210B500200F49086050
:103F80000F48006820F470200D490860084600685A
:103F900040F44030086001200A49C1F89001022035
:103FA00004F00DFE012005490860022004F007FE20
:103FB00000200549C1F8840110BD0000840122429F
:103FC00000080140000021420000224270B5054671
:103FD00000241648006820F4702014490860084640
:103FE000006840F400200860002615E00020104919
:103FF0000860022004F0E3FD01200E49C1F88401AD
:104000006006040E0C48006808B1601CC4B20120B0
:1040100004F0D5FD701CC6B2082EE7DB15B9FFF71A
:10402000ABFF01E0FFF752FF204670BD00080140E2
:1040300084012242000022421001214270B5044650
:104040001448006820F4702012490860084600688F
:1040500040F44030086000200F490860002516E059
:10406000E0090E4908606006040E022004F0A7FD76
:1040700001200B49C1F88401022004F0A0FD0020BA
:1040800005490860022004F09AFD681CC5B2082D9D
:10409000E6DB70BD0008014084012242900121420C
:1040A0000000224210B50F48006820F470200D492E
:1040B00008600846006840F44030086001200A4962
:1040C00008600A49C1F88401042004F078FD00204A
:1040D00005490860042004F072FD00200349C1F87E
:1040E000840110BD000801409001214200002242DD
:1040F00010B50F48006820F470200D49086008468C
:10410000006840F44030086000200A4908600A490D
:10411000C1F89001042004F052FD01200549086017
:104120000549C1F89001042004F049FD10BD0000CC
:1041300000080140840122420000214210B5002401
:104140001348006820F47020114908600846006890
:1041500040F40020086001200E49086004F02FFDA3
:1041600001200D49C1F8840104F029FD07E0601C1D
:10417000C4B2FA2C03DDFFF7BBFF012010BD0548D8
:10418000803800680028F2D10449086000BFF5E7D4
:104190000008014090012142000022428401224295
:1041A00010B500200349086000224021902001F052
:1041B000DFF810BD8C01234210B5044601200449EC
:1041C000086022464021902001F0D2F810BD000086
:1041D0008C01234270B50025002400BF09E0412175
:1041E000902001F0A3F80444322003F035FF681C4E
:1041F000C5B2052DF3DB052094FBF0F4A4F13500E6
:10420000002801D5002070BDA4F13500CC2190FB21
:10421000F1F0C0EB001000EB40000A2101EB400080
:10422000C0B2F0E710B5002004490860FFF778FE3F
:1042300000224021902001F09BF810BD8C01234208
:1042400008B501217C2001F0D9F84FF4C050ADF839
:10425000000048208DF8030069461648FEF7DCFE92
:104260002020ADF8000048208DF803006946124870
:10427000FEF7D2FE0420ADF8000048208DF80300C0
:1042800069460E48FEF7C8FEFB20ADF80000482046
:104290008DF8030069460A48FEF7BEFE4FF601702E
:1042A000ADF8000048208DF8030069460548FEF788
:1042B000B3FE08BD00080140000C014000100140A1
:1042C000001401400018014008B50121102001F040
:1042D00095F83020ADF8000010208DF80300032081
:1042E0008DF8020069460448FEF796FE3021024828
:1042F000FEF771FF08BD000000100140F8B5074649
:104300000D4616461C460D208DF8000003208DF842
:10431000010000208DF8020001208DF8030068469E
:1043200000F0D0F80121084601F048F83846FCF7C3
:10433000CFFC1748048017480560466000201549E7
:1043400088600846C4600020086180204861002021
:104350008861C86108624FF480504862002088621A
:104360003846FCF77EFD012202210B48FCF770FD68
:1043700001210A4803F07CFA01213846FCF79CFC35
:104380004FF40070FCF78AFC034800F009F8F8BD10
:10439000C0010020C41E0020300002400048004040
:1043A00010B5044600212046FCF786FC044801882D
:1043B0002046FCF774FD01212046FCF77DFC10BD72
:1043C000C001002000BFFEE738B5002401217C2099
:1043D00001F014F810208DF8030003208DF802007E
:1043E0008224ADF8004069462648FEF715FE2146B6
:1043F0002448FEF7EEFE9824ADF8004069462248B6
:10440000FEF70AFE21462048FEF7E3FE42F2813421
:10441000ADF8004069461D48FEF7FEFD21461B48E9
:10442000FEF7D7FE4224ADF8004069461848FEF773
:10443000F3FD21461648FEF7CCFE4FF4E054ADF8EC
:10444000004069461148FEF7E7FD21460F48FEF798
:10445000C0FE0424ADF8004069460E48FEF7DCFDBE
:1044600021460C48FEF7B5FE0120ADF800001820EB
:104470008DF8030003208DF8020069460148FEF71D
:10448000CBFD38BD00080140000C01400010014088
:10449000001801400014014010B5482001F0DCFC78
:1044A000242002F029F9242001F0F0FF482002F036
:1044B00007FB242002F038FA242001F0ADFE10BDE5
:1044C0007047000070B5002100230F22C47804B3A8
:1044D000154C246804F4E064C4F5E064210AC1F1D9
:1044E0000403CA40447804FA03F184781440214359
:1044F00009010E4C0678A155047804F01F0501242B
:10450000AC4005786D11AD0005F1E025C5F800411E
:1045100009E0047804F01F050124AC40044D06783E
:10452000761145F8264070BD0CED00E000E400E097
:1045300080E100E002490143024A11607047000037
:104540000000FA050CED00E00B4A50701278824230
:1045500007D1094A92F82020521C074B83F82120EA
:1045600003E00022044B83F821200022024BDA7082
:104570001A46117070470000E40300200B4A507087
:104580001278824207D1094A92F82320521C074B25
:1045900083F8242003E00022044B83F82420002227
:1045A000024B9A701A4611707047000008040020F0
:1045B0000B4A50701278824207D1094A92F828209B
:1045C000521C074B83F8292003E00022044B83F898
:1045D00029200022024B9A701A4611707047000081
:1045E0003004002010B500F013F800F0EFFB00F0ED
:1045F00017FC00F037FC00F0BFFB00F091FB00F06F
:10460000CBFC00F06FFC00F095FC00F002F810BD50
:104610007047704706480078012808D1054800789F
:10462000FF2804D203480078401C024908707047F4
:104630002A0200201D02002010B500241A4800782C
:10464000012830D1FBF722FE04461848007820B13B
:1046500016480078401E1549087014480078F8B9CB
:1046600013480078E0B900F0F9FC124812490978C3
:1046700050F82100114908600F4800781049097866
:1046800088420DD00D480068806B401C0B490968BA
:1046900088630C480068401C0A490860FBF715FE57
:1046A0002046FBF7F7FD10BD2A0200201D02002066
:1046B0001E02002058500020200200203802002056
:1046C0001F0200200402002010B500240B480078CF
:1046D000012811D1FBF7DAFD04460948007840B9FA
:1046E00008480078FF2804D206480078401C054995
:1046F00008702046FBF7CEFD10BD00002A02002006
:104700001D0200201E02002010B50024134800786E
:10471000012821D1FBF7BAFD044611480078C0B149
:104720000F480078401E0E4908700846007860B9AE
:104730000C48007828B92046FBF7ACFD00F054FC8B
:104740000AE02046FBF7A6FD06E02046FBF7A2FDA7
:1047500002E02046FBF79EFD10BD00002A0200206B
:104760001E0200201D02002010B50B48007890B9F1
:1047700000F074FC094800780949087009480749A5
:10478000097850F821000849086008460068074980
:104790000860FBF782FD10BD2A02002020020020E5
:1047A0001F02002058500020380200203002002054
:1047B000704700002DE9FE4F06460F4690461C4606
:1047C0004FF00009FBF762FD81461F48007828B1D1
:1047D0004846FBF75FFD3C20BDE8FE8F1B4850F8C4
:1047E000240060BB0120194941F824004846FBF72A
:1047F00051FD002342463946304600F009F9824611
:104800000020009001900346024651460290204647
:1048100000F03AFC054635B90D48007801280CD166
:1048200000F0E2FB09E0FBF731FD8146002007497B
:1048300041F824004846FBF72DFD2846CCE74846C2
:10484000FBF728FD2820C7E71D0200205850002054
:104850002A0200202DE9F04F85B081468A46934612
:104860001C46DDE90F78129D00200390FBF70EFD3A
:1048700003902348007830B10398FBF70BFD3C20F0
:1048800005B0BDE8F08F1F4850F8240088BB012018
:104890001C4941F824000398FBF7FCFC2A464146DA
:1048A000384600F001FD2B465A465146484600F076
:1048B000AFF804901198CDE9008002953A46204661
:1048C0000E9B049900F0E0FB064636B90E480078CE
:1048D00001280CD100F088FB09E0FBF7D7FC03901E
:1048E0000020084941F824000398FBF7D3FC304628
:1048F000C6E7FFE70398FBF7CDFC2820C0E70000E0
:104900001D020020585000202A02002070477047E6
:104910002DE9F04106460F4614464FF000081548B1
:10492000007818B112202070BDE8F081FBF7AEFCD2
:104930008046FF2E03D11048006890F832600F487F
:1049400050F826502DB94046FBF7A4FC43202070B8
:10495000EAE7012D05D14046FBF79CFC432020707F
:10496000E2E7EF644046FBF795FC0020207000BFB3
:10497000DAE700001D02002030020020585000201D
:10498000704700002DE9F04707460D464FF0000A3A
:10499000002028606860FBF779FC8246FF2F03D176
:1049A0001948006890F83270184850F827402CB920
:1049B0005046FBF76FFC4320BDE8F087012C04D183
:1049C0005046FBF767FC4320F6E7207C00F001002F
:1049D00020B95046FBF75EFC4520EDE70026D4F8F1
:1049E0000C90D4F808805046FBF754FC00E0761C8D
:1049F00058F8041B0029FAD0B0002860A9EB060083
:104A0000800068600020D7E7300200205850002066
:104A100070B5044610464FF080750560051F2846A6
:104A20002C606FF00106051F28462E604FF01236ED
:104A3000051F28462E604FF00336051F28462E60BE
:104A40004FF00236051F28462E607610051F2846B7
:104A50002E60051F284629604FF01136051F284695
:104A60002E604FF01036051F28462E604FF0093695
:104A7000051F28462E604FF00836051F28462E6079
:104A80004FF00736051F28462E604FF00636051FEB
:104A900028462E604FF00536051F28462E604FF041
:104AA0000436051F28462E6070BD00002DE9F04138
:104AB00005464FF00008FBF7E9FB8046FF2D05D1C6
:104AC0002048006890F83250012608E01D48006830
:104AD00090F83200A84201D1012600E000261A48D1
:104AE00050F825402CB94046FBF7D4FB4820BDE8E0
:104AF000F081012C04D14046FBF7CCFB4320F6E7C4
:104B000094F834701148C05D94F8351088430F490B
:104B1000C8550846C05D30B994F836100C48007886
:104B200088430B49087094F8300040F0080084F87E
:104B300030004046FBF7AEFB012E01D100F054FAE5
:104B40000020D4E73002002058500020220200202C
:104B5000210200207047000070B505460026174866
:104B6000007800B170BD1648007800B1FAE71DB3B7
:104B7000FBF78CFB06461348006890F83440124857
:104B8000005D1049096891F8351088430E490855B1
:104B90000846005D40B90B48006890F836100B4895
:104BA000007888430949087006480068C5623046A5
:104BB000FBF770FB00F018FA00BFD3E71D020020DE
:104BC0001E020020300200202202002021020020CC
:104BD0002DE9F04104460D4616461F46124800785E
:104BE00010B15520BDE8F0811048007808B132209E
:104BF000F8E7B81CC82148434FF47A71B0FBF1F1D3
:104C00004FF461606043C5EB051200EB8200304455
:104C100000EBC00202EB001001EBC0084046FFF7BA
:104C20009BFF0020DEE700001D0200201E02002086
:104C300070B5002600F072F8FBF728FB06463148F5
:104C40000068401C2F4908603046FBF723FB2E48C4
:104C50000078012853D12D48007820B1012804D0D4
:104C6000022809D103E001250BE0002509E0012518
:104C700001202649087004E001250020234908701E
:104C800000BF00BF05B970BD2148046833E0FBF7E1
:104C9000FDFA0646E06A50B3E06A401EE062E06A50
:104CA00028BB94F8300000F0370040B114F8300F02
:104CB00000F0C800207001206070303C02E000204D
:104CC00084F8310094F8300000F0080078B93434EA
:104CD000A0781049097808430E49087020780E49D9
:104CE000085C6178084314F834190B4A505464691D
:104CF0003046FBF7CFFA94F832003F28C7D100BF07
:104D0000C1E70000480200202A02002040020020E3
:104D10003C020020210200202202002070470000F7
:104D20002DE9F0415021114800F02CF900250DE04B
:104D3000681C86B20D4800EB051400EB0617002036
:104D4000207067600AA0E060681C85B2042DEFD374
:104D5000064800EB051400202070606004A0E060AD
:104D6000024804490860BDE8F0810000084C0020BA
:104D70003F0000000C02002070B5C821114800F06F
:104D800001F900230FE0581C85B203EB83000D49A5
:104D900001EB800405EB850001EB8006002020700C
:104DA0006660581C83B2092BEDD303EB83000549E1
:104DB00001EB800400202070606008460249086012
:104DC00070BD0000404B00200802002000200A496E
:104DD00008600A4908700A4908700A4908700A49B7
:104DE00008700A4908600A4908600A4908600A49C7
:104DF00008600A4908707047480200201D02002020
:104E00001E0200202B0200202A02002004020020A3
:104E10002C02002018020020140200201C02002096
:104E200000210A4A1170002004E00021084A1154B0
:104E3000411CC8B20828F8D30021064A1170064A5E
:104E40001170064A1160064A116070472102002065
:104E5000220200201F020020200200203802002031
:104E60003002002070B54FF47C71194800F08AF8C8
:104E70004FF48071174800F085F8002413E0601C9F
:104E8000C5B2C4EBC40000EB4000114901EB800344
:104E9000C5EBC50000EB400001EB80065E610EA093
:104EA000D864601CC4B20B2CE9D3C4EBC40000EB83
:104EB0004000074901EB80030020586106A0D86438
:104EC00000200649086002480549086070BD0000DE
:104ED00058510020585000203F0000003C020020A4
:104EE0003402002000B587B00320002180220A4B45
:104EF000CDE90132CDE903104FF6FF703F23074A99
:104F000000900748FFF7A6FC06AA06A13F20FFF77E
:104F1000FFFC07B000BD0000584E00205450002098
:104F2000BD51000875432F4F532D49492049646CEA
:104F30006500000000B587B00320002180220A4BE5
:104F4000CDE90132CDE903104FF6FE703E23074A4A
:104F500000900748FFF77EFC06AA06A13E20FFF757
:104F6000D7FC07B000BD0000584C0020544E002074
:104F7000E551000875432F4F532D49492053746163
:104F80007400000004E0002200F8012B4A1E91B2D8
:104F90000029F8D1704700002DE9F0417821104830
:104FA000FFF7F0FF00240DE0601C86B204EB440024
:104FB0000B4901EBC00506EB460001EBC0072F6073
:104FC000601C84B2042CEFD304EB4400044901EBD1
:104FD000C00500202860084602490860BDE8F0814D
:104FE000485500204402002010B50024FBF74EF97C
:104FF000044613480078F8B912480078E0B900F088
:105000002DF811481149097850F82100104908601D
:105010000E4800780F49097888420DD00C48006886
:10502000806B401C0A49096888630B480068401C73
:1050300009490860FBF742F92046FBF72BF910BD40
:105040001D0200201E0200205850002020020020D7
:10505000380200201F020020040200200649074AEF
:105060001278885C0649095C034A515C01EBC00177
:10507000044A1170704700008C2A010821020020A8
:1050800022020020200200202DE9F84F05460F469D
:1050900090469946DDE90AAB00200090FBF7F6F850
:1050A00000903F480468002C74D0183454F8040C65
:1050B0003B4908600098FBF7EDF844F8187CA576AA
:1050C000002020766076606144F814BC44F80CAC93
:1050D00044F8108C0C9824F8080C24F8069C002046
:1050E000E077E810207705F00700E076217F0120C7
:1050F0008840A077E17E01208840607700206060D2
:10510000E060A0602062A0626062E062206325A08F
:105110006063183C002606E0002104F1500040F8CE
:105120002610701CC6B2002EF6D02046FFF740FBBA
:105130002046FFF7EBFBFBF7A9F800901A4840F870
:1051400025401A48006860610020A0611748006887
:1051500010B1164800688461144804603434A078A3
:105160001349097808431249087020781149085CEE
:105170006178084314F834190E4A50540E480078E8
:10518000401C0D4908700098FBF784F80020BDE82A
:10519000F88FFFE70098FBF77DF84220F7E7000063
:1051A000340200203F000000585000203C02002044
:1051B00021020020220200202B020020002400BF38
:1051C00000BFFBF763F8044605480068401C04492B
:1051D00008602046FBF75EF8FFF799FBF1E7000057
:1051E0002C020020002400BF02E02820FFF7B4FCBE
:1051F000194800780028F8D0184800686421B0FBEE
:10520000F1F0164908600846006828B900201449E2
:105210000870FF20FFF74AFC00BFFBF737F8044691
:10522000104800681049086000200E4908602046B8
:10523000FBF730F80C48006808490968B0FBF1F04A
:10524000C0F1640006490870FFF79AFB00F00EF801
:105250001420FFF781FCE0E71C020020140200206C
:10526000100200202C020020180200207CB500252E
:1052700014E069462846FFF785FB064666B90948EB
:1052800050F8254044B1012C06D0D4E9020100EBCE
:10529000810060640198A064681CC5B23F2DE8D904
:1052A0007CBD00005850002002F0010343B102F021
:1052B00002032BB102E0491E002308C00029FAD1E5
:1052C000704700002DE9FC474FF0000A02F092FD04
:1052D0000FFA80FAAAF5CD700FFA80FABAF1000F32
:1052E00017DD504606F05AFC064600220A4B06F02F
:1052F000FDFA04460022094B06F068FC80460022B5
:10530000074B06F063FCCDE9000106F0BDFABDE8ED
:10531000FC870020FBE700000000B0400000F43FE5
:1053200000408F4010B502F07DFD10BD70B5044601
:105330000D460026FEF7B6FE2046FEF77FFEFEF77E
:10534000FDFE2846FEF77AFEFEF7F8FEFEF7D0FED9
:10535000FEF7A8FE44F00100FEF770FEFEF7EEFE39
:105360000020FEF733FE0646FEF7C2FE304670BD53
:1053700070B506460C461546FEF794FE3046FEF71D
:105380005DFEFEF7DBFE2046FEF758FEFEF7D6FE7A
:105390002846FEF753FEFEF7D1FEFEF7A9FE0120D8
:1053A00070BD000001460020034A506820F44040D0
:1053B00008435060704700000010024029B1064ABF
:1053C00052690243044B5A6104E0034A5269824322
:1053D000014B5A61704700000010024029B1064A93
:1053E000D2690243044BDA6104E0034AD269824382
:1053F000014BDA61704700000010024029B1064AF3
:1054000092690243044B9A6104E0034A9269824321
:10541000014B9A61704700000010024029B1064A12
:10542000D2680243044BDA6004E0034AD268824344
:10543000014BDA60704700000010024030B50021D7
:105440000022002400232D4D6D6805F00C0121B1D0
:10545000042905D0082923D105E0294D056022E063
:10546000274D05601FE0254D6D6805F47012234D32
:105470006D6805F48034022505EB92421CB9214D7C
:10548000554305600BE01D4D6D6805F400351DB1F9
:105490001C4D5543056002E0194D5543056002E07F
:1054A000174D056000BF00BF144D6D6805F0F00199
:1054B0000909154D6B5C0568DD4045600F4D6D6851
:1054C00005F4E061090A104D6B5C4568DD408560BC
:1054D0000A4D6D6805F46051C90A0B4D6B5C456857
:1054E000DD40C560054D6D6805F44041890B074DF1
:1054F0006B5CC568B5FBF3F5056130BD001002407B
:1055000000127A0000093D00F00100200002002096
:1055100001490860704700000000424208B50121BF
:105520004020FFF76BFF3C20ADF8000010208DF805
:10553000030003208DF8020069460848FDF76CFD62
:105540000020074908600749C1F88C010449083167
:1055500008600449C1F8940108BD0000001801402A
:105560008801234200002342024909888143014AFD
:10557000118070470428004001460020064A128826
:105580000A40D0B2044A121F12880A4012B108B170
:10559000012000E0002070470428004010B50120E1
:1055A000FFF7EAFF20B10120FFF7DEFF00F00AF865
:1055B0000220FFF7E1FF20B10220FFF7D5FF00F046
:1055C00001F810BD00BF0348008800F0200000284B
:1055D000F9D070470428004000200549C8700846EB
:1055E00090F8210081F82000084640780870704744
:1055F000E4030020002005498870084690F8240044
:1056000081F823000846407808707047080400209D
:10561000002005498870084690F8290081F8280084
:1056200008464078087070473004002070B5044682
:1056300000BF2579204600F05FF8281AC0B270BD7F
:105640002DE9F04104460F461546FAF71FFE1B49A7
:1056500008602046FFF7EAFFA84201DD284602E085
:105660002046FFF7E3FF054620796179401AA842FA
:1056700001DD284602E020796179401AC6B20F4860
:105680000068FAF707FE62792168881832463946C1
:10569000FAF7E0FFB54204DDAA1BB9192068FAF752
:1056A000D9FF6079284460716079217990FBF1F22B
:1056B00001FB120060712846BDE8F0811C0000204B
:1056C000014600BF48798A79904204DD48798A7999
:1056D000801AC0B20BE088794A79904206DD887959
:1056E0004A79801A0A79101AC0B200E0002008B97D
:1056F000012070470020FCE7014648798A799042F2
:1057000004DD48798A79801AC0B2704788794A796D
:10571000904206DD88794A79801A0A79101AC0B257
:10572000F3E70020F1E700002DE9F04104460F46C1
:105730001546FAF7ABFD1B4908602046FFF7DCFF72
:10574000A84201DD284602E02046FFF7D5FF0546C6
:105750002079A179401AA84201DD284602E020798B
:10576000A179401AC6B20F480068FAF793FDA279F2
:105770002068811832463846FAF76CFFB54204DDDE
:10578000AA1BB8192168FAF765FFA0792844A0710F
:10579000A079217990FBF1F201FB1200A07128465B
:1057A000BDE8F0811C00002000B587B00121082071
:1057B000FFF724FE01218803FFF710FE4FF460403D
:1057C000ADF8180018208DF81B0003208DF81A0082
:1057D00006A91848FDF720FC4FF460411548FDF775
:1057E000FAFC0020ADF804004FF48270ADF806001A
:1057F0000020ADF808000220ADF80A000120ADF845
:105800000C004002ADF80E003820ADF8100000206A
:10581000ADF812000720ADF8140001A9064800F009
:1058200065F80121044800F047F8FF2000F006F871
:1058300007B000BD000C01400038004070B50546BF
:10584000002405E0601CC4B2C82C01DD002070BD3E
:1058500002210E4800F03CF80028F3D029460B48FE
:1058600000F042F8002405E0601CC4B2C82C01DD41
:105870000020ECE70121054800F02AF80028F3D0C9
:10588000024800F02EF8C0B2E1E700000038004006
:1058900010B50446074800884FF6C771084005490F
:1058A000088008460088204308800121014800F054
:1058B00003F810BD0038004021B1028842F04002D8
:1058C000028004E002884FF6BF731A4002807047DE
:1058D0000246002013890B400BB1012000E000209C
:1058E00070470146888970478181704710B5002252
:1058F000028802F441520B884C8823438C8823434E
:10590000CC8823430C8923434C8923438C8923432C
:10591000CC8923431A430280838B4FF2FF742340C8
:1059200083830B8A038210BD70470000F8B5002600
:105930000024002545480078C8B1FAF7A7FC44497F
:10594000086042480078401E40490870404800689E
:10595000FAF7A0FC00203F49009008780978491C1C
:105960003C4B197001230322114602F01DFA3A48FC
:105970000078C8B1FAF78AFC3549086036480078E3
:10598000401E3549087032480068FAF783FC002051
:105990003049009008780978491C2E4B1970022371
:1059A0000322114602F000FA2C48007800284BD15F
:1059B0002B48FFF785FEE0B92021002003F0ECF929
:1059C000054620212846FAF78AFE20222946244847
:1059D000FFF7AAFE0646002404E0285D04F0D6F98D
:1059E000601CC4B2B442F8DB2946002003F0C2F9BF
:1059F00000251C48FFF764FE30BB2021002003F087
:105A0000CBF9054620212846FAF769FE20222946CF
:105A10001448FFF789FE064613A0FAF793FC00240A
:105A200008E0295D12A0FAF78DFC285D04F0AEF9BC
:105A3000601CC4B2B442F4DB0CA0FAF783FC294624
:105A4000002003F097F90025F8BD0000680400204D
:105A50001C000020C301002069040020C4010020B4
:105A60006C04002074040020616E733A0D0A00007B
:105A70002578200010B500F001F810BD0CB500200D
:105A8000019000903348006840F48030314908604C
:105A900000BF3048006800F4003000900198401CBE
:105AA0000190009818B90198B0F5A06FF1D129487C
:105AB000006800F4003010B10120009001E00020E7
:105AC00000900098012843D12348006840F010005E
:105AD000214908600846006820F003000860084675
