:020000040800F2
:10000000E01700202D020008C1100008B10E000802
:10001000DD0F0008F50700084B3200080000000063
:10002000000000000000000000000000291F000880
:10003000F907000800000000BB0200085520000876
:10004000470200084702000847020008470200086C
:10005000470200084702000847020008470200085C
:10006000470200084702000847020008470200084C
:10007000470200084702000847020008470200083C
:10008000470200084702000847020008470200082C
:100090004702000847020008470200081D0900083F
:1000A00047020008CD210008470200084702000867
:1000B000F5220008352500084D27000847020008F2
:1000C00047020008470200084702000847020008EC
:1000D00047020008213000084702000847020008D4
:1000E000FD07000847020008470200084702000811
:1000F000A12C000847020008470200084702000838
:10010000470200084702000861290008470200086A
:10011000470200084702000847020008792B000840
:10012000470200084702000847020008470200088B
:1001300000F002F800F06BF80AA090E8000C82448E
:100140008344AAF10107DA4501D100F060F8AFF26B
:10015000090EBAE80F0013F0010F18BFFB1A43F0A5
:1001600001031847BC460000DC4600000A444FF07B
:10017000000C10F8013B13F0070408BF10F8014B06
:100180001D1108BF10F8015B641E05D010F8016B4B
:10019000641E01F8016BF9D113F0080F1EBF10F8AF
:1001A000014BAD1C0C1B09D16D1E58BF01F801CBD2
:1001B000FAD505E014F8016B01F8016B6D1EF9D555
:1001C0009142D6D37047000000230024002500266A
:1001D000103A28BF78C1FBD8520728BF30C148BFAA
:1001E0000B607047642900F0F980752900F0F680F3
:1001F000782900F02F81632900F08382732900F0B1
:100200008882002070471FB51FBD10B510BD00F0DB
:10021000B7FA1146FFF7F7FF03F0C6F800F0D5FA7A
:1002200003B4FFF7F2FF03BC03F018F80948804756
:1002300009480047FEE7FEE7FEE7FEE7FEE7FEE7C8
:10024000FEE7FEE7FEE7FEE704480549054A064BE0
:10025000704700007120000831010008E011002003
:10026000E0170020E0130020E0130020EFF31080DF
:1002700072B6704780F310887047204C204D25607F
:100280004FF0000484F309881E4C4FF001052570DF
:100290001D4C4FF08055256062B6FEE730B41A4C15
:1002A0004FF08055256030BC704730B4164C4FF08D
:1002B0008055256030BC704700BF72B6EFF30980EF
:1002C00028B1203880E8F00F10490968086000B5AF
:1002D0000F4880475DF804EB0E480F490A7802701A
:1002E0000A480E490A680260106890E8F00F203052
:1002F00080F309884EF0040E62B6704720ED00E0EE
:100300000000FFFFDE01002004ED00E0E40100201A
:10031000B9160008D3010020D4010020EC01002010
:10032000704700000FB4044910B503AA029800F00A
:10033000F5F910BC5DF814FB9801002070B5044677
:1003400085690068C10601D5302600E02026C00777
:1003500007D070BDD4E9012130469047206A401C87
:1003600020626D1EF6D570BD70B5044685690078B3
:10037000C00707D170BDD4E9012120209047206A31
:10038000401C20626D1EF6D570BD70B50C4605464A
:10039000012A05D02878800600D5EA69002302E00A
:1003A000012305E05B1C934202D2E05C0028F9D1F6
:1003B000A869E618C01AA861286A18442862284665
:1003C000FFF7BCFF04E0D5E9012114F8010B9047C9
:1003D000B442F8D32846FFF7C7FF70BD2DE9F041BE
:1003E0000646002410687529314616A510D0AFF3D3
:1003F0000080002802DA404213A507E031688A072E
:1004000001D512A502E0490704D511A5012401E098
:10041000AFF3008000210A2206F1240709E0B0FBB7
:10042000F2FCB0FBF2F302FB1C00303078541846AB
:10043000491C0028F3D123462A463046BDE8F04146
:1004400000F0FCB8000000002D0000002B000000B0
:100450002000000070B504460D4621461068AFF339
:1004600000802188090502D50F4A7A4402E00E4A2D
:100470007A440E32002104F1240305E000F00F0657
:100480000009965D5E54491C0028F7D120780023AE
:10049000000704D5702D02D009B102231132204685
:1004A000BDE8704000F0CAB8C64200002DE9F05F18
:1004B000894604464FF0000ADFF874B1FB44C0F8E7
:1004C00020A02046E1688847002874D0252806D05F
:1004D000D4E901219047206A401C2062F1E7002600
:1004E0005F462046E16888472028054607DB312D16
:1004F00005D2781910F8200C08B10643F1E7B007CF
:1005000001D526F00406C4F81CA00027C4F818A0E2
:100510002A2D09D0284602F09AFE38B304EB87084A
:10052000303DC8F8185019E059F8041B204604EB78
:1005300087029161E1688847012F054618D1E0697B
:10054000002820DA26F020061DE0D8F8180000EB7D
:10055000800005EB40003038C8F818002046E168FC
:100560008847054602F073FE0028EED1012F0AD01D
:100570002E2D08D12046E16888477F1C0546022FB2
:1005800046F02006C4DBA069002803DA404246F0AA
:100590000106A061F00701D026F010066C2D0BD0EB
:1005A000682D09D04C2D39D06A2D35D0742D35D019
:1005B0007A2D33D016E038E0E1682F462046884790
:1005C000B842054609D16C2F26D04FF48060E1680F
:1005D000064320468847054604E06C2F1AD04FF4A6
:1005E000807006430DB3A5F14100192802D82035CB
:1005F00046F400664A462946204626604E46FFF7E6
:10060000F1FD80B101280BD0F61D26F0070000F1A6
:10061000080956E74020E4E78020D8E70020D6E725
:1006200006F104094DE7284652E7206ABDE8F09F2D
:100630009C42000070477047704770472DE9F047B3
:100640000D4699469246044600F124080168880642
:1006500004D5E06921F01001216000E00120A842EA
:1006600001DD471B00E00027A1697A1902EB0900B0
:10067000081AA0612078C00602D42046FFF75EFE6B
:10068000002608E0D4E901211AF806009047206A04
:10069000401C761C20624E45F4DB2078C0060AD54B
:1006A0002046FFF74BFE06E0D4E9012130209047B9
:1006B000206A401C2062381EA7F10107F4DC07E025
:1006C000D4E9012118F805009047206A401C2062F7
:1006D000281EA5F10105F3DC2046FFF745FE207832
:1006E000000602D50220BDE8F0870120FBE710B527
:1006F000436913B1AFF3008001E0FFF746FE01202C
:1007000010BD127800F124010A7000224A70012203
:10071000EDE711684FF0FF32E9E70000074B70B5D5
:100720000D467B4400F011F80446284600F020F8FE
:1007300010B14FF0FF3070BD204670BD5F2C00003F
:1007400001694A1C02610878704700B58FB0CDE995
:1007500001310021059105497944CDE90310114685
:100760006846FFF7A3FE0FB000BD0000E5FFFFFFE6
:10077000007B00F080007047004870478011002027
:100780007546FFF7F9FFAE4605006946534620F06F
:100790000700854618B020B5FFF756FDBDE820409C
:1007A0004FF000064FF000074FF000084FF0000B2D
:1007B00021F00701AC46ACE8C009ACE8C009ACE8E0
:1007C000C009ACE8C0098D46704710B50446AFF3C8
:1007D00000802046BDE81040FFF722BD10B500F0B4
:1007E000E3FB01F07BFB00F065FB00F0F9FB00F0A0
:1007F00097FB10BD00BFFEE77047000010B54FF437
:10080000806000F013F9B0B12948806978B93220CE
:1008100002F08AFD27480068012808D12449C86BE6
:10082000002102F0DFFA00202149486248704FF4AD
:10083000806000F0F5F84FF4006000F0F7F830B198
:100840001DA0FFF76FFD4FF4006000F0E9F84FF4D2
:10085000805000F0EBF830B11CA0FFF763FD4FF4BF
:10086000805000F0DDF84FF4005000F0DFF830B1B8
:100870001BA0FFF757FD4FF4005000F0D1F84FF4E4
:10088000804000F0D3F830B11AA0FFF74BFD4FF4D1
:10089000804000F0C5F84FF4004000F0C7F830B1D8
:1008A00019A0FFF73FFD4FF4004000F0B9F810BD6C
:1008B00014000020200123426578697431312074CE
:1008C0007269676765720D0A0000000065786974D7
:1008D000313220747269676765720D0A000000008A
:1008E00065786974313320747269676765720D0ABF
:1008F000000000006578697431342074726967679C
:1009000065720D0A00000000657869743135207445
:100910007269676765720D0A0000000010B520203B
:1009200000F084F828B128A0FFF7FCFC202000F09C
:1009300077F8402000F07AF828B127A0FFF7F2FC02
:10094000402000F06DF8802000F070F828B126A05B
:10095000FFF7E8FC802000F063F84FF4807000F0AF
:1009600065F820B324A0FFF7DDFC274800680128C4
:1009700014D18007808C00F57A704FF6FF7190FBE0
:10098000F1F201FB120084B221464FF0804002F0E8
:10099000C2FA0121880702F025FA04E000214FF095
:1009A000804002F01FFA4FF4807000F039F84FF4E5
:1009B000007000F03BF830B114A0FFF7B3FC4FF427
:1009C000007000F02DF810BD6578697435207472E0
:1009D00069676765720D0A006578697436207472FC
:1009E00069676765720D0A006578697437207472EB
:1009F00069676765720D0A006578697438207472DA
:100A000069676765720D0A00200123426578697481
:100A1000203920747269676765720D0A0000000052
:100A2000014908607047000014040140014600209D
:100A30000022074B1B6803EA0102054B14331B68B5
:100A40000B4013B10AB1012000E000207047000004
:100A500000040140002123498279002A3AD00A4645
:100A6000126803689A430B461A600A1D12680368ED
:100A70009A430B1D1A60027911440A6803681A43ED
:100A80000A60184A0832126803689A43154B083303
:100A90001A601A1D126803689A43124B0C331A60CD
:100AA0004279102A0ED11A1F126803681A430D4B9F
:100AB00008331A601A1D126803681A43094B0C3375
:100AC0001A600DE00749427911440A6803681A4325
:100AD0000A6005E0027911440A6803689A430A60D3
:100AE000704700000004014008B50121302001F0EA
:100AF0007BF9FB20ADF8000048208DF80300694623
:100B0000054800F0FDF80420ADF8000069460348F0
:100B100000F0F6F808BD000000140140001001408C
:100B200008B50121402001F05FF94FF47F40ADF896
:100B3000000048208DF803006946024800F0E0F804
:100B400008BD0000001801401CB5FFF7CDFF0121D2
:100B5000084601F049F900208DF8040001208DF8C5
:100B600006000521032000F0ABF808208DF80500F1
:100B7000202000906846FFF76DFF0621032000F05B
:100B80009FF808208DF80500402000906846FFF788
:100B900061FF0721032000F093F808208DF805007D
:100BA000802000906846FFF755FF1CBD0EB5FFF78B
:100BB000B7FF0121084601F017F900208DF8080061
:100BC00001208DF80A000F21042000F079F8082098
:100BD0008DF809000003019001A8FFF73BFF0E21EB
:100BE000042000F06DF808208DF80900C002019083
:100BF00001A8FFF72FFF0D21042000F061F8082065
:100C00008DF809008002019001A8FFF723FF0C2155
:100C1000042000F055F808208DF8090040020190EA
:100C200001A8FFF717FF0B21042000F049F8082066
:100C30008DF809000002019001A8FFF70BFF0A21BF
:100C4000042000F03DF808208DF80900C001019053
:100C500001A8FFF7FFFE0921042000F031F8082069
:100C60008DF809008001019001A8FFF7F3FE08212B
:100C7000042000F025F808208DF8090040010190BB
:100C800001A8FFF7E7FE28208DF8000001208DF86D
:100C900001008DF802008DF80300684600F012FA9A
:100CA00017208DF8000001208DF8010000208DF83C
:100CB000020001208DF80300684600F003FA0EBD23
:100CC00030B500228B071C0F0F2303FA04F20B4BE5
:100CD0008C1053F824309343084C8D1044F8253081
:100CE00023468C1053F824308C07240F00FA04F4A8
:100CF0002343024C8D1044F8253030BD08000140DC
:100D00002DE9F041024600250026002000230024A2
:100D1000002791F803C00CF00F0591F803C00CF008
:100D2000100CBCF1000F03D091F802C04CEA05058D
:100D300091F800C0BCF1000F31D0146800202BE006
:100D40004FF0010C0CFA00F3B1F800C00CEA0306F6
:100D50009E4220D183004FF00F0C0CFA03F7BC43E6
:100D600005FA03FC4CEA040491F803C0BCF1280F17
:100D700006D14FF0010C0CFA00FCC2F814C00AE0D6
:100D800091F803C0BCF1480F05D14FF0010C0CFAEB
:100D900000FCC2F810C0401C0828D1D31460B1F880
:100DA00000C0BCF1FF0F34DD546800202EE000F1DC
:100DB000080C4FF0010808FA0CF3B1F800C00CEA77
:100DC00003069E4221D183004FF00F0C0CFA03F76B
:100DD000BC4305FA03FC4CEA040491F803C0BCF1DF
:100DE000280F05D100F1080C08FA0CF8C2F814809D
:100DF00091F803C0BCF1480F07D100F1080C4FF087
:100E0000010808FA0CF8C2F81080401C0828CED35C
:100E10005460BDE8F0810000F0B50A4600230024CC
:100E20000021002500F00046B6F1004F02D11D4E12
:100E3000F16901E01B4E7168C0F3034583B200F411
:100E40004016B6F5401F08D121F07061154E766846
:100E500026F07066134F7E6012E000F48016B6F53F
:100E6000801F06D1032606FA05F4A14341F0706104
:100E700006E0460D360103FA06F6B14341F0706113
:100E800022B1460D360103FA06F6314300F0004662
:100E9000B6F1004F02D1034EF16101E0014E7160E5
:100EA000F0BD0000000001404161704701617047E2
:100EB00000BFFEE738B5002401217C2000F094FF3C
:100EC00010208DF8030003208DF8020041F2030486
:100ED000ADF8004069460F48FFF712FF21460D4864
:100EE000FFF7E4FF4FF47F44ADF8004069460A483D
:100EF000FFF706FF21460848FFF7D8FF8024ADF82A
:100F0000004069460548FFF7FBFE21460348FFF70E
:100F1000CDFF38BD000C0140001401400018014015
:100F200008B501217C2000F05FFF4FF4C050ADF800
:100F3000000048208DF8030069461648FFF7E0FEE0
:100F40002020ADF8000048208DF8030069461248C3
:100F5000FFF7D6FE0420ADF8000048208DF803000E
:100F600069460E48FFF7CCFEFB20ADF80000482094
:100F70008DF8030069460A48FFF7C2FE4FF601707C
:100F8000ADF8000048208DF8030069460548FFF7DA
:100F9000B7FE08BD00080140000C014000100140F0
:100FA000001401400018014008B50121102000F094
:100FB0001BFF3020ADF8000010208DF80300032047
:100FC0008DF8020069460448FFF79AFE3021024876
:100FD000FFF76CFF08BD00000010014000BFFEE7F6
:100FE00038B5002401217C2000F0FEFE10208DF891
:100FF000030003208DF802008224ADF8004069460A
:101000002048FFF77DFE21461E48FFF74DFF98243C
:10101000ADF8004069461C48FFF772FE21461A48A9
:10102000FFF742FF42F28134ADF8004069461748AD
:10103000FFF766FE21461548FFF736FF4224ADF85C
:10104000004069461248FFF75BFE21461048FFF753
:101050002BFF4FF4E054ADF8004069460B48FFF712
:101060004FFE21460948FFF71FFF0424ADF800405A
:1010700069460848FFF744FE21460648FFF714FF7B
:1010800038BD000000080140000C01400010014084
:10109000001801400014014010B5482001F018F874
:1010A000242001F0FBFB242001F0EEFA482001F09F
:1010B0007FFD242001F0FEFC242001F0C5F910BDC5
:1010C0007047000070B5002100230F22C47804B3DC
:1010D000154C246804F4E064C4F5E064210AC1F10D
:1010E0000403CA40447804FA03F18478144021438D
:1010F00009010E4C0678A155047804F01F0501245F
:10110000AC4005786D11AD0005F1E025C5F8004152
:1011100009E0047804F01F050124AC40044D067872
:10112000761145F8264070BD0CED00E000E400E0CB
:1011300080E100E002490143024A1160704700006B
:101140000000FA050CED00E010B500F013F800F017
:10115000BFFB00F0E7FB00F007FC00F08FFB00F0A6
:1011600061FB00F09BFC00F03FFC00F065FC00F030
:1011700002F810BD7047704706480078012808D172
:1011800005480078FF2804D203480078401C024933
:1011900008707047DE010020D101002010B5002446
:1011A0001A480078012830D1FFF760F80446184843
:1011B000007820B116480078401E15490870144880
:1011C0000078F8B913480078E0B900F0C9FC12487B
:1011D0001249097850F82100114908600F48007839
:1011E0001049097888420DD00D480068806B401C7A
:1011F0000B49096888630C480068401C0A4908606C
:10120000FFF753F82046FFF735F810BDDE01002048
:10121000D1010020D2010020180C0020D4010020B0
:10122000EC010020D3010020B801002010B50024FB
:101230000B480078012811D1FFF718F80446094837
:10124000007840B908480078FF2804D206480078A2
:10125000401C054908702046FFF70CF810BD00003F
:10126000DE010020D1010020D201002010B50024B1
:1012700013480078012821D1FEF7F8FF04461148F1
:101280000078C0B10F480078401E0E49087008462B
:10129000007860B90C48007828B92046FEF7EAFFCC
:1012A00000F024FC0AE02046FEF7E4FF06E02046BA
:1012B000FEF7E0FF02E02046FEF7DCFF10BD000075
:1012C000DE010020D2010020D101002010B50B4822
:1012D000007890B900F044FC09480078094908708A
:1012E00009480749097850F821000849086008466C
:1012F000006807490860FEF7C0FF10BDDE0100204E
:10130000D4010020D3010020180C0020EC010020A3
:10131000E4010020704700002DE9FE4F06460F460D
:1013200090461C464FF00009FEF7A0FF81461F487B
:10133000007828B14846FEF79DFF3C20BDE8FE8FAF
:101340001B4850F8240060BB0120194941F82400D3
:101350004846FEF78FFF002342463946304600F0EC
:1013600009F982460020009001900346024651464A
:101370000290204600F00AFC054635B90D48007879
:1013800001280CD100F0B2FB09E0FEF76FFF8146A7
:101390000020074941F824004846FEF76BFF284625
:1013A000CCE74846FEF766FF2820C7E7D1010020BA
:1013B000180C0020DE0100202DE9F04F85B0814699
:1013C0008A4693461C46DDE90F78129D0020039063
:1013D000FEF74CFF03902348007830B10398FEF7E6
:1013E00049FF3C2005B0BDE8F08F1F4850F82400AD
:1013F00088BB01201C4941F824000398FEF73AFFFE
:101400002A464146384600F0D1FC2B465A46514602
:10141000484600F0AFF804901198CDE9008002959D
:101420003A4620460E9B049900F0B0FB064636B9BA
:101430000E48007801280CD100F058FB09E0FEF7B7
:1014400015FF03900020084941F824000398FEF797
:1014500011FF3046C6E7FFE70398FEF70BFF282091
:10146000C0E70000D1010020180C0020DE010020A0
:10147000704770472DE9F04106460F4614464FF07D
:1014800000081548007818B112202070BDE8F081DE
:10149000FEF7ECFE8046FF2E03D11048006890F85E
:1014A00032600F4850F826502DB94046FEF7E2FE54
:1014B00043202070EAE7012D05D14046FEF7DAFE11
:1014C00043202070E2E7EF644046FEF7D3FE0020A1
:1014D000207000BFDAE70000D1010020E401002005
:1014E000180C0020704700002DE9F04707460D4614
:1014F0004FF0000A002028606860FEF7B7FE8246C1
:10150000FF2F03D11948006890F83270184850F83E
:1015100027402CB95046FEF7ADFE4320BDE8F087CA
:10152000012C04D15046FEF7A5FE4320F6E7207CAF
:1015300000F0010020B95046FEF79CFE4520EDE783
:101540000026D4F80C90D4F808805046FEF792FE9E
:1015500000E0761C58F8041B0029FAD0B00028607F
:10156000A9EB0600800068600020D7E7E4010020B6
:10157000180C002070B5044610464FF080750560C9
:10158000051F28462C606FF00106051F28462E60B7
:101590004FF01236051F28462E604FF00336051F08
:1015A00028462E604FF00236051F28462E60761022
:1015B000051F28462E60051F284629604FF011366A
:1015C000051F28462E604FF01036051F28462E6056
:1015D0004FF00936051F28462E604FF00836051FCC
:1015E00028462E604FF00736051F28462E604FF024
:1015F0000636051F28462E604FF00536051F284683
:101600002E604FF00436051F28462E6070BD000086
:101610002DE9F04105464FF00008FEF727FE804611
:10162000FF2D05D12048006890F83250012608E0CF
:101630001D48006890F83200A84201D1012600E060
:1016400000261A4850F825402CB94046FEF712FEF5
:101650004820BDE8F081012C04D14046FEF70AFE87
:101660004320F6E794F834701148C05D94F83510C3
:1016700088430F49C8550846C05D30B994F8361004
:101680000C48007888430B49087094F8300040F00B
:10169000080084F830004046FEF7ECFD012E01D131
:1016A00000F024FA0020D4E7E4010020180C002008
:1016B000D6010020D50100207047000070B5054616
:1016C00000261748007800B170BD1648007800B1B8
:1016D000FAE71DB3FEF7CAFD06461348006890F806
:1016E00034401248005D1049096891F8351088436C
:1016F0000E4908550846005D40B90B48006890F84F
:1017000036100B480078884309490870064800687D
:10171000C5623046FEF7AEFD00F0E8F900BFD3E742
:10172000D1010020D2010020E4010020D6010020D8
:10173000D501002070B5002600F072F8FEF796FD86
:10174000064631480068401C2F4908603046FEF7C5
:1017500091FD2E480078012853D12D48007820B102
:10176000012804D0022809D103E001250BE000255F
:1017700009E0012501202649087004E00125002028
:101780002349087000BF00BF05B970BD2148046837
:1017900033E0FEF76BFD0646E06A50B3E06A401E98
:1017A000E062E06A28BB94F8300000F0370040B1F6
:1017B00014F8300F00F0C800207001206070303C39
:1017C00002E0002084F8310094F8300000F00800B6
:1017D00078B93434A0781049097808430E49087064
:1017E00020780E49085C6178084314F834190B4AD4
:1017F000505464693046FEF73DFD94F832003F28AE
:10180000C7D100BFC1E70000FC010020DE010020BD
:10181000F4010020F0010020D5010020D6010020B5
:10182000704700002DE9F0415021114800F02CF9DB
:1018300000250DE0681C86B20D4800EB051400EB96
:1018400006170020207067600AA0E060681C85B25F
:10185000042DEFD3064800EB0514002020706060D3
:1018600004A0E060024804490860BDE8F08100007F
:10187000C80700203F000000C001002070B5C8214B
:10188000114800F001F900230FE0581C85B203EB6A
:1018900083000D4901EB800405EB850001EB800618
:1018A000002020706660581C83B2092BEDD303EB37
:1018B0008300054901EB8004002020706060084629
:1018C0000249086070BD000000070020BC01002034
:1018D00000200A4908600A4908700A4908700A4944
:1018E00008700A4908700A4908600A4908600A49EC
:1018F00008600A4908600A4908707047FC01002026
:10190000D1010020D2010020DF010020DE010020F3
:10191000B8010020E0010020CC010020C801002017
:10192000D001002000210A4A1170002004E00021AB
:10193000084A1154411CC8B20828F8D30021064AAD
:101940001170064A1170064A1160064A116070470C
:10195000D5010020D6010020D3010020D4010020B1
:10196000EC010020E401002070B54FF47C711948AF
:1019700000F08AF84FF48071174800F085F80024D1
:1019800013E0601CC5B2C4EBC40000EB4000114979
:1019900001EB8003C5EBC50000EB400001EB8006C6
:1019A0005E610EA0D864601CC4B20B2CE9D3C4EBFA
:1019B000C40000EB4000074901EB800300205861A0
:1019C00006A0D8640020064908600248054908605E
:1019D00070BD0000180D0020180C00203F00000012
:1019E000F0010020E801002000B587B003200021AD
:1019F00080220A4BCDE90132CDE903104FF6FF708A
:101A00003F23074A00900748FFF7D6FC06AA06A125
:101A10003F20FFF72FFD07B000BD0000180A00208F
:101A2000140C0020C11C000875432F4F532D494949
:101A30002049646C6500000000B587B003200021D8
:101A400080220A4BCDE90132CDE903104FF6FE703A
:101A50003E23074A00900748FFF7AEFC06AA06A1FE
:101A60003E20FFF707FD07B000BD0000180800206A
:101A7000140A0020E91C000875432F4F532D4949D3
:101A8000205374617400000004E0002200F8012B70
:101A90004A1E91B20029F8D1704700002DE9F041AB
:101AA00078211048FFF7F0FF00240DE0601C86B29B
:101AB00004EB44000B4901EBC00506EB460001EBCB
:101AC000C0072F60601C84B2042CEFD304EB4400E9
:101AD000044901EBC005002028600846024908605F
:101AE000BDE8F08108110020F801002010B50024A5
:101AF000FEF7BCFB044613480078F8B9124800789A
:101B0000E0B900F02DF811481149097850F821008A
:101B1000104908600E4800780F49097888420DD0B6
:101B20000C480068806B401C0A49096888630B48B0
:101B30000068401C09490860FEF7B0FB2046FEF72C
:101B400099FB10BDD1010020D2010020180C00200B
:101B5000D4010020EC010020D3010020B8010020B6
:101B60000649074A1278885C0649095C034A515CB9
:101B700001EBC001044A11707047000034460008B0
:101B8000D5010020D6010020D40100202DE9F84F16
:101B900005460F4690469946DDE90AAB00200090C5
:101BA000FEF764FB00903F480468002C74D01834A2
:101BB00054F8040C3B4908600098FEF75BFB44F8BE
:101BC000187CA576002020766076606144F814BC0D
:101BD00044F80CAC44F8108C0C9824F8080C24F849
:101BE000069C0020E077E810207705F00700E076FB
:101BF000217F01208840A077E17E01208840607726
:101C000000206060E060A0602062A0626062E0622C
:101C1000206325A06063183C002606E0002104F143
:101C2000500040F82610701CC6B2002EF6D0204698
:101C3000FFF770FB2046FFF71BFCFEF717FB009039
:101C40001A4840F825401A48006860610020A061E9
:101C50001748006810B11648006884611448046091
:101C60003434A07813490978084312490870207861
:101C70001149085C6178084314F834190E4A50542D
:101C80000E480078401C0D4908700098FEF7F2FAE3
:101C90000020BDE8F88FFFE70098FEF7EBFA42203E
:101CA000F7E70000E80100203F000000180C0020CA
:101CB000F0010020D5010020D6010020DF01002026
:101CC000002400BF00BFFEF7D1FA044605480068B3
:101CD000401C044908602046FEF7CCFAFFF7C9FB18
:101CE000F1E70000E0010020002400BF02E028200E
:101CF000FFF7E4FC194800780028F8D0184800687D
:101D00006421B0FBF1F0164908600846006828B964
:101D1000002014490870FF20FFF77AFC00BFFEF78F
:101D2000A5FA0446104800681049086000200E49D2
:101D300008602046FEF79EFA0C48006808490968CA
:101D4000B0FBF1F0C0F1640006490870FFF7CAFB70
:101D500000F00EF81420FFF7B1FCE0E7D0010020FE
:101D6000C8010020C4010020E0010020CC010020B7
:101D70007CB5002514E069462846FFF7B5FB06460A
:101D800066B9094850F8254044B1012C06D0D4E981
:101D9000020100EB810060640198A064681CC5B278
:101DA0003F2DE8D97CBD0000180C002002F0010393
:101DB00043B102F002032BB102E0491E002308C028
:101DC0000029FAD17047000029B1064AD2690243BE
:101DD000044BDA6104E0034AD2698243014BDA61C1
:101DE000704700000010024029B1064A9269024380
:101DF000044B9A6104E0034A92698243014B9A6161
:101E0000704700000010024030B50021002200247D
:101E100000232D4D6D6805F00C0121B1042905D07A
:101E2000082923D105E0294D056022E0274D0560F2
:101E30001FE0254D6D6805F47012234D6D6805F4A3
:101E40008034022505EB92421CB9214D55430560B3
:101E50000BE01D4D6D6805F400351DB11C4D55435B
:101E6000056002E0194D5543056002E0174D05601D
:101E700000BF00BF144D6D6805F0F0010909154D54
:101E80006B5C0568DD4045600F4D6D6805F4E061F1
:101E9000090A104D6B5C4568DD4085600A4D6D6830
:101EA00005F46051C90A0B4D6B5C4568DD40C560A7
:101EB000054D6D6805F44041890B074D6B5CC568A5
:101EC000B5FBF3F5056130BD0010024000127A0049
:101ED00000093D00A2010020B201002008B5012147
:101EE0004020FFF781FF3C20ADF8000010208DF866
:101EF000030003208DF8020069460848FEF700FF42
:101F00000020074908600749C1F88C0104490831DD
:101F100008600449C1F8940108BD000000180140A0
:101F20008801234200002342704710B500F002F8F8
:101F300010BD00000CB500200190009033480068EF
:101F400040F480303149086000BF3048006800F438
:101F5000003000900198401C0190009818B9019839
:101F6000B0F5A06FF1D12948006800F4003010B13D
:101F70000120009001E0002000900098012843D14A
:101F80002348006840F010002149086008460068B6
:101F900020F0030008600846006840F00200086076
:101FA0001A48406819494860084640684860084631
:101FB000406840F4806048600846406820F47C1027
:101FC00048600846406840F4E810486008460068E9
:101FD00040F08070086000BF0C48006800F000709E
:101FE0000028F9D00948406820F0030007494860FC
:101FF0000846406840F00200486000BF034840685F
:1020000000F00C000828F9D10CBD000000100240BF
:102010000020024018B10121034A116002E00021B2
:10202000014A1160704700008C812142042808D1C8
:102030004FF0E021096941F004014FF0E022116105
:1020400007E04FF0E021096921F004014FF0E022A0
:102050001161704710B505480078012805D1FFF7D8
:102060008BF8FFF767FBFFF799F810BDDE01002042
:1020700010B51348006840F0010011490860084697
:102080004068104908400E494860084600680E49FB
:1020900008400B4908600846006820F4802008606A
:1020A0000846406820F4FE0048604FF41F00886036
:1020B000FFF73BFF4FF000600449086010BD0000CF
:1020C000001002400000FFF8FFFFF6FE08ED00E000
:1020D00010B58AB004460121C802FFF785FE012130
:1020E0000420FFF781FE01210846FFF77DFE012154
:1020F0003148FEF791FE314890FBF4F03049888575
:102100004FF48070ADF8240018208DF827000320CC
:102110008DF8260009A92B48FEF7F2FD4FF47A70DE
:10212000ADF81C00601E80B2ADF818000020ADF8BC
:102130001E00ADF81A008DF8200006A9224800F014
:10214000EFFE01221146204800F084FE01211E48C6
:1021500000F042FE7020ADF808000020ADF810003D
:102160000120ADF80A004FF4FA70ADF80E0002A994
:10217000154800F079FE0821134800F0C1FE012146
:10218000114800F01DFE19208DF8040002208DF882
:10219000050000208DF8060001208DF8070001A839
:1021A000FEF790FF0121084800F028FE00210648B4
:1021B00000F018FE0AB010BD0002300000A24A0470
:1021C0001400002000080140002C014010B501213E
:1021D000454800F02EFE002835D00121424800F08D
:1021E000FEFD4248807828B94048406A401C3F497B
:1021F000486204E03D48406A401E3C4948623B4812
:10220000806A401C39498862084640693849896AB1
:10221000884207D10021344800F0E4FD0020334912
:10222000487010BD3148407802280DD12F48C18830
:102230002D4800F06EFE2D48C48804EBD470411088
:10224000294800F068FE4DE02848806A2749C9699E
:10225000884215D82548006B244A926A30F812103B
:10226000214800F056FE2148006B204A926A30F85F
:10227000124004EBD47041101B4800F04CFE31E0DA
:102280001A4840691949C969401A1849896A884237
:102290001BD816484069154A926A801A134A126B75
:1022A00032F81010104800F034FE104840690F4A10
:1022B000926A801A0D4A126B32F8104004EBD47007
:1022C0004110094800F027FE0CE00848C188064884
:1022D00000F01FFE0548C48804EBD470411002488A
:1022E00000F019FE00BF9CE7002C01401400002004
:1022F0001401002010B50221480700F09AFD0028C3
:1023000049D00221480700F06AFD4D480078401C82
:102310004B490870087800EBD0714910A0EB4101DF
:10232000474A11701046007800BB4648807828B9AB
:102330004448406A401C4349486204E04148406ABE
:10234000401E404948623F48806A401C3D498862BF
:1023500008464069896A884208D100214FF08040D0
:1023600000F040FD00203749487010BD35484078E6
:10237000022811D14007808C3249C98808444FF6A1
:10238000FF7190FBF1F201FB120084B221464FF085
:10239000804000F0C0FD51E02A48806A2949C9699F
:1023A000884216D82748006B2649896A30F8110000
:1023B0004FF08041898C08444FF6FF7190FBF1F299
:1023C00001FB120084B221464FF0804000F0A3FDD3
:1023D00034E01C4840691B49C969401A1949896A97
:1023E000884219D8174840691649896A401A154920
:1023F000096B31F810004FF08041898C08444FF68A
:10240000FF7190FBF1F201FB120084B221464FF004
:10241000804000F080FD11E04FF08040808C094941
:10242000C98808444FF6FF7190FBF1F201FB1200DE
:1024300084B221464FF0804000F06DFD00BF94E76C
:102440009E0100201401002010B58AB0044601212D
:102450000846FFF7B9FC01210520FFF7C5FC012163
:102460002F48FEF7D9FC01212E48FEF7D5FC2E4857
:1024700090FBF4F02D4988854FF40040ADF804003E
:1024800018208DF8070003208DF8060001A92848C0
:10249000FEF736FC4FF6FF70ADF82000601E80B2EC
:1024A000ADF81C000020ADF82200ADF81E0007A911
:1024B0004FF0804000F034FD3020ADF80C004FF4B8
:1024C000FA70ADF812000120ADF80E000020ADF852
:1024D00014004FF48070ADF818000020ADF81A0019
:1024E00003A94FF0804000F0BFFC00214FF0804076
:1024F00000F006FD01220221480700F0ABFC1C2081
:102500008DF8080002208DF8090000208DF80A00DF
:1025100001208DF80B0002A8FEF7D4FD0AB010BD13
:1025200000031800000230000051250214010020B1
:102530000008014010B502214F4800F07AFC002845
:1025400048D002214C4800F04AFC4C480078401C1E
:102550004A490870087800EBD0714910A0EB41019E
:10256000464A117010460078F8B94548807828B975
:102570004348406A401C4249486204E04048406A7F
:10258000401E3F4948623E48806A401C3C49886280
:1025900008464069896A884207D10021364800F020
:1025A00021FC00203649487010BD3548407802288B
:1025B00011D13148243000883149C98808444FF688
:1025C000FF7190FBF1F201FB120084B221462A4810
:1025D00000F0A1FC4DE02A48806A2949C969884277
:1025E00015D82748006B2649896A30F8110022491E
:1025F0002431098808444FF6FF7190FBF1F201FB8A
:10260000120084B221461C4800F085FC31E01C48D1
:1026100040691B49C969401A1949896A884217D813
:10262000174840691649896A401A1549096B31F8FB
:1026300010001449098808444FF6FF7190FBF1F22D
:1026400001FB120084B221460B4800F064FC10E04C
:102650000948243000880A49C98808444FF6FF71A8
:1026600090FBF1F201FB120084B22146024800F017
:1026700052FC00BF98E70000000400409F010020CA
:1026800094000020242C014010B58AB0044601219A
:102690000220FFF799FB01210520FFF7A5FB274842
:1026A00090FBF4F0264988854020ADF804001820FE
:1026B0008DF8070003208DF8060001A92148FEF7D8
:1026C0001FFB4FF6FF70ADF82000601E80B2ADF822
:1026D0001C000020ADF82200ADF81E0007A91A4822
:1026E00000F01EFC3020ADF80C004FF4FA70ADF88D
:1026F00012000120ADF80E000020ADF8140003A96F
:10270000114800F0B1FB00210F4800F0F9FB012255
:1027100002210D4800F09EFB1D208DF808000220CC
:102720008DF8090000208DF80A0001208DF80B00BB
:1027300002A8FEF7C7FC0AB010BD00000051250238
:1027400094000020000801400004004010B5022160
:102750004F4800F06EFB002848D002214C4800F0A2
:102760003EFB4C480078401C4A490870087800EB52
:10277000D0714910A0EB4101464A11701046007813
:10278000F8B94548807828B94348406A401C424916
:10279000486204E04048406A401E3F4948623E4863
:1027A000806A401C3C49886208464069896A8842C0
:1027B00007D10021364800F015FB0020364948704B
:1027C00010BD35484078022811D1314824300088A6
:1027D0003149C98808444FF6FF7190FBF1F201FBC3
:1027E000120084B221462A4800F095FB4EE02A48A8
:1027F000806A2949C969884215D82748006B26494B
:10280000896A30F8110022492431098808444FF6BA
:10281000FF7190FBF1F201FB120084B221461C48CB
:1028200000F079FB32E01C4840691B49C969401A35
:102830001949896A884218D8174840691649896A2F
:10284000401A1549096B31F81000114924310988E3
:1028500008444FF6FF7190FBF1F201FB120084B2C5
:1028600021460B4800F057FB10E00948243000884F
:102870000949C98808444FF6FF7190FBF1F201FB4A
:10288000120084B22146024800F045FB00BF97E7E2
:1028900000080040A00100205401002010B58AB0BB
:1028A000044601210420FFF78FFA01210920FFF7D8
:1028B0009BFA274890FBF4F0264988854020ADF824
:1028C000040018208DF8070003208DF8060001A9E8
:1028D0002148FEF715FA4FF6FF70ADF82000601E94
:1028E00080B2ADF81C000020ADF82200ADF81E004B
:1028F00007A91A4800F014FB3020ADF80C004FF483
:10290000FA70ADF812000120ADF80E000020ADF80D
:10291000140003A9114800F0A7FA00210F4800F0A5
:10292000EFFA012202210D4800F094FA1E208DF8E2
:10293000080002208DF8090000208DF80A0001200F
:102940008DF80B0002A8FEF7BDFB0AB010BD000019
:102950000051250254010020000C014000080040F5
:1029600010B502214F4800F064FA002848D0022137
:102970004C4800F034FA4C480078401C4A49087032
:10298000087800EBD0714910A0EB4101464A117064
:1029900010460078F8B94548807828B94348406A1D
:1029A000401C4249486204E04048406A401E3F499A
:1029B00048623E48806A401C3C498862084640693B
:1029C000896A884207D10021364800F00BFA0020BE
:1029D0003649487010BD35484078022811D1314839
:1029E000243000883149C98808444FF6FF7190FBB4
:1029F000F1F201FB120084B221462A4800F08BFA62
:102A00004DE02A48806A2949C969884215D8274873
:102A1000006B2649896A30F811002249243109885F
:102A200008444FF6FF7190FBF1F201FB120084B2F3
:102A300021461C4800F06FFA31E01C4840691B49F0
:102A4000C969401A1949896A884217D817484069E4
:102A50001649896A401A1549096B31F81000144962
:102A6000098808444FF6FF7190FBF1F201FB120058
:102A700084B221460B4800F04EFA10E00948243099
:102A800000880A49C98808444FF6FF7190FBF1F2AB
:102A900001FB120084B22146024800F03CFA00BF5C
:102AA00098E70000000C0040A10100205400002025
:102AB0002408004010B58AB0044601210820FFF721
:102AC00083F901210520FFF78FF9274890FBF4F0E7
:102AD000264988850120ADF8040018208DF80700EC
:102AE00003208DF8060001A92148FEF709F94FF6E9
:102AF000FF70ADF82000601E80B2ADF81C00002011
:102B0000ADF82200ADF81E0007A91A4800F008FA37
:102B10003020ADF80C004FF4FA70ADF8120001202F
:102B2000ADF80E000020ADF8140003A9114800F024
:102B30009BF900210F4800F0E3F9012202210D4822
:102B400000F088F932208DF8080002208DF8090085
:102B500000208DF80A0001208DF80B0002A8FEF776
:102B6000B1FA0AB010BD0000005125025400002047
:102B700000080140000C004010B501210A4800F097
:102B800058F901280AD109490869804700210648F7
:102B900000F0C3F96421044800F0BBF901210248A8
:102BA00000F01DF910BD0000001400404402002098
:102BB00010B58AB0044601214803FFF715F9012139
:102BC0001020FFF711F901210846FFF70DF93048F1
:102BD00090FBF4F02F4988854020ADF824001820A0
:102BE0008DF8270003208DF8260009A92A48FEF752
:102BF00087F84FF47A70ADF81C00601E80B2ADF813
:102C000018000020ADF81E00ADF81A008DF8200065
:102C100006A9224800F084F9012211461F4800F05D
:102C200019F901211D4800F0D7F87020ADF808000F
:102C30000020ADF810000120ADF80A004FF4FA7042
:102C4000ADF80E0002A9154800F00EF9082113484E
:102C500000F056F90121114800F0B2F82C208DF84F
:102C6000040002208DF8050000208DF806000120E8
:102C70008DF8070001A8FEF725FA0121074800F0AA
:102C8000BDF80021054800F0ADF80AB010BD000005
:102C900000A24A04D400002000100140003401408A
:102CA00010B50121434800F0C4F8002834D00121B8
:102CB000404800F094F84048807828B93E48406A7F
:102CC000401C3D49486204E03B48406A401E3A4986
:102CD00048623948806A401C374988620846406922
:102CE000896A884207D10021324800F07BF8002031
:102CF0003149487010BD3048407802280DD12F4826
:102D0000C1882C4800F005F92C48C48804EBD47025
:102D10004110284800F0FFF84AE02748806A264919
:102D2000C969884215D82448006B234A926A30F852
:102D30001210204800F0EDF81F48006B1E4A926AFE
:102D400030F8124004EBD47041101A4800F0E3F858
:102D50002EE0194840691849C969401A1649896A1C
:102D6000884218D814484069134A926A801A124A55
:102D7000126B32F810100F4800F0CBF80E48406983
:102D80000D4A926A801A0C4A126B32F810100948E8
:102D900000F0C1F80CE00948C188064800F0B9F815
:102DA0000648C48804EBD4704110024800F0B3F820
:102DB00000BF9FE700340140D400002054000020F1
:102DC00021B1028842F08002028004E002884FF6BE
:102DD0007F731A4002807047CA4302827047CA4319
:102DE0000282704721B1028842F00102028004E0B1
:102DF00002884FF6FE731A400280704731B1B0F876
:102E0000442042F40042A0F8442005E0B0F84420F9
:102E1000C2F30E02A0F8442070470146888C704728
:102E200002460020138A0B400BB1012000E0002075
:102E3000704730B50246002000230024158A05EAB9
:102E40000103958905EA010413B10CB1012000E0EA
:102E5000002030BD1AB183890B43838102E083894E
:102E60008B4383817047000070B50024002200234B
:102E7000058C4FF6FE7635400584028C8388048BE2
:102E80004FF68F752C40B51E2C400D882C43751EB7
:102E90002A400D892A434D882A43144DA8420BD05D
:102EA000134DA84208D0134DA84205D0124DA84298
:102EB00002D0124DA84213D14FF6F7752A404D8922
:102EC0002A434FF6FB752A408D882A434FF6FF654B
:102ED0002B404FF6FF552B408D892B43CD892B433B
:102EE00083800483CD888586028470BD002C0140D8
:102EF00000340140004001400044014000480140CE
:102F00000A460021018B4FF6F773194011430183E4
:102F100070478185704781867047818470470000C3
:102F2000002202881D4B98420ED01D4B98420BD0B8
:102F3000B0F1804F08D01B4B984205D01A4B9842F5
:102F400002D01A4B984204D14FF68F731A404B8827
:102F50001A43174B984207D0164B984204D04FF6AD
:102F6000FF431A40CB881A4302808B8883850B88E5
:102F700003850A4B98420BD0094B984208D00E4B60
:102F8000984205D00D4B984202D00D4B984201D18A
:102F90000B7A03860123838270470000002C0140D6
:102FA000003401400004004000080040000C0040D4
:102FB0000010004000140040004001400044014067
:102FC000004801407FB505460C4601212020FEF750
:102FD000FBFEADF80850ADF804400020ADF80A0043
:102FE000ADF8060001A90D48FFF79AFF0122412123
:102FF0000A48FFF72FFF37208DF8000003208DF8D7
:1030000001008DF8020001208DF803006846FEF7EC
:1030100059F801210148FFF7E5FE7FBD001400408B
:1030200010B5FEF7A9F840F225511E4800F04CF803
:1030300010B31C4800F004F9C4B21B48008800F427
:103040000040C8B91848008800F4804060B10A2CDC
:1030500003D000201449088020E01348008840F481
:1030600000401149088019E00D2C06D10E48008857
:1030700040F480400C49088010E00B480088C0F301
:103080000D000A490C5408480088401C0649088075
:1030900008460088C72801DD00200880FEF77EF87A
:1030A00010BD0000003801409C01002038060020BF
:1030B00021B1828942F40052828104E082894DF676
:1030C000FF731A408281704770B5024600240023C6
:1030D0000025002040F66A16B14200D100BFC1F3BE
:1030E000421501F01F03012606FA03F3012D02D158
:1030F0009689334006E0022D02D1168A334001E062
:10310000968A33400C12012606FA04F416883440DD
:1031100013B10CB1012000E0002070BDF0B50346F2
:10312000002400260025002040F66A17B94200D18D
:1031300000BF1846C1F3421401F01F06012707FA29
:1031400006F5012C01D10C3004E0022C01D1103025
:1031500000E014301AB107682F43076002E00768E7
:10316000AF430760F0BD00002DE9F04786B005468B
:103170000E460024A24600BFA1460027B08900B138
:1031800000BF2F462C8A4CF6FF700440F0880443A1
:103190002C82AC894EF6F3100440B0883189084384
:1031A000718908430443AC81AC8A4FF6FF40044068
:1031B000B0890443AC8201A8FEF726FE1F4887426F
:1031C00002D1DDF810A001E0DDF80CA0A88900F420
:1031D000004040B10AEBCA0000EB0A103168490018
:1031E000B0FBF1F807E00AEBCA0000EB0A10316807
:1031F0008900B0FBF1F86420B8FBF0F0040120096D
:10320000642101FB1089A88900F4004040B13220FC
:1032100000EBC900B0FBF1F000F00700044308E048
:10322000322000EB09106421B0FBF1F000F00F0038
:1032300004432C8106B0BDE8F0870000003801404F
:1032400001468888C0F30800704700BFFEE73038A9
:103250000A2801D2012070470020704700BF704744
:1032600010B56FF00400FEF7E1FE10480068104949
:10327000B0FBF1F00F4908700C4800680C49B0FB36
:10328000F1F441F28830444305200B4908804FF0A7
:10329000E020006940F002004FF0E021086108469C
:1032A0004461006940F00100086110BD0000002089
:1032B00000127A00940100209601002070B50446A7
:1032C0000F480078A0B10F48007888B90E480088F0
:1032D000844206DB0C48008894FBF0F5284600F099
:1032E0001DF80948008894FBF0F100FB114084B2FE
:1032F0004FF47A7104FB01F000F016F870BD000085
:10330000DE010020D10100209601002010B5FDF75C
:103310008DFF10BD10B5FDF7A9FF10BD10B5044617
:103320002046FEF7CBF910BD2DE9F04707460026F1
:103330004FF0E020D0F814901148007807FB00F817
:1033400000BFFFF7E3FF4FF0E020856911E04FF089
:10335000E0208469AC420CD0AC4202D2281B064467
:1033600003E0A9EB0400284406442546464500D363
:1033700000E0ECE700BFFFF7CDFFBDE8F0870000FD
:103380009401002000BF054A128802F04002002A82
:10339000F9D0C2B2014B1B1D1A80704700380140A2
:1033A00000BFFEE700BFFEE710B54FF4A060FDF7D9
:1033B000C1FEFFF755FFFDF711FA4FF4E13000F0C1
:1033C0006DF80D4800680D49B0FBF1F0C4B20C482F
:1033D00041682046884700F019F8FDF75DFEFDF7CB
:1033E000B3FE0A23074A00210748FDF795FFFDF7C2
:1033F0006DFF002010BD00000000002040420F00C3
:1034000044020020340400205934000808B5FDF7B8
:103410009BFBFDF7CBFB28208DF8000001208DF8E9
:10342000010000208DF8020001208DF8030068469D
:10343000FDF748FE17208DF8000001208DF80100EF
:103440008DF802008DF803006846FDF73BFE08BDCD
:10345000014608687047000070B50446002500BFAB
:10346000FCF704FF05460723084A00210848FDF73A
:1034700053FF0623074A00210748FDF74DFF0A20A6
:10348000FEF7C6F82846FCF7F5FE70BD34050020AF
:10349000A133000834060020A533000810B586B01B
:1034A0000446012144F20400FEF79EFC4FF4007034
:1034B000ADF8140003208DF8160018208DF81700C1
:1034C00005A91C48FDF71CFC4FF48060ADF8140002
:1034D00004208DF8170005A91648FDF711FC2520DA
:1034E0008DF8000003208DF801008DF80200012006
:1034F0008DF803006846FDF7E5FD01940020ADF866
:103500000800ADF80A00ADF80C00ADF810000C2072
:10351000ADF80E0001A90848FFF726FE012240F28F
:1035200025510548FFF7FAFD01210348FFF7C0FDCB
:1035300006B010BD000801400038014030B595B01C
:10354000054613AB12AA09A9284600F039FA044629
:1035500014B1204615B030BD0020149026E0224959
:1035600009689DF8502001EBC20113AB11AA48680D
:1035700001A900F025FA04460CB12046EAE709A9A2
:1035800001A800F0BBFC60B99DF844009DF848100C
:10359000884201DD0220DDE79DF850001249887560
:1035A0000AE09DF85000401CC0B214900E48007D07
:1035B0009DF850108842D2DC00BF0B48007D9DF87A
:1035C0005010884201D10420C4E714A9284600F015
:1035D000D7FA04460CB12046BCE79DF850000249DA
:1035E00048750020B6E70000440200202DE9F041B4
:1035F0009AB09C48847D007DA04202DC1AB0BDE8F0
:10360000F0819849096801EBC40106AB07AA486834
:1036100008A900F0D5F908A993A0FCF783FE0026BD
:1036200044E09048008B0121B1400840D8B12221EC
:103630008FA0FCF777FE304600F028FB8949243143
:10364000471839468BA0FCF76DFE222188A0FCF7B5
:1036500069FE304600F01AFB82492431084410A963
:1036600041F8260018E0304600F010FB7D49243177
:10367000085810A941F826007A48C07D30B910A832
:1036800050F826107CA0FCF74DFE05E010A850F87D
:1036900026107AA0FCF746FE9DF81C00401EB042A2
:1036A00002D078A0FCF73EFE701CC6B29DF81C004C
:1036B0008642B6DB74A0FCF735FE00F039FB6948A2
:1036C000407D0B280DD2DFE800F0060D151E2732D5
:1036D0003F4E5F7287006349096851F834008047A4
:1036E000054690E05F4A126852F8341010988847F7
:1036F000054688E05B4B1B6853F83420DDE9100178
:10370000904705467FE0574F3F6857F8343010A880
:1037100007C89847054676E0DFF848C1DCF800C0E6
:103720005CF8347010A80FC8B84705466BE01498D1
:10373000DFF830C10090DCF800C05CF8347010A8ED
:103740000FC8B84705465EE0DDE91401DFF814C193
:10375000CDE90001DCF800C05CF8347010A80FC897
:10376000B84705464FE0DDE914121698DFF8F4C0BB
:10377000CDE900120290DCF800C05CF8347010A8AB
:103780000FC8B84705463EE0DDE91423DDE9161011
:10379000DFF8D0C0CDE90023CDE90210DCF800C08D
:1037A0005CF8347010A80FC8B84705462BE0DDE977
:1037B0001523DDE91710CDE90123CDE90310149895
:1037C000DFF8A0C00090DCF800C05CF8347010A8EE
:1037D0000FC8B847054616E0DDE91623DDE91810E5
:1037E000CDE90223CDE90410DDE91401DFF874C04E
:1037F000CDE90001DCF800C05CF8347010A80FC8F7
:10380000B847054600BF00BF00F050FA9DF8180009
:1038100001280CD11348C07D20B929461BA0FCF714
:1038200081FD07E029461BA0FCF77CFD02E018A003
:10383000FCF778FD0B4890F8EC0088B10948D0F807
:10384000F0000A21B0FBF1F201FB12070548D0F8A5
:10385000F000B0FBF1F83A46414611A0FCF762FDDA
:1038600000BFCBE6440200200D0A257328000000AB
:103870002563000025730000256C7500305825581D
:10388000000000002C000000290000003D256C75A0
:103890003B0D0A003D305825583B0D0A0000000042
:1038A00046756E6374696F6E2052756E2054696D33
:1038B000653A25642E2531646D730D0A0000000001
:1038C000F0B503461546002000220026002455E0EE
:1038D0001F782C2F01D104B901221F78292F01D084
:1038E0001F780FB904B94AE0002E34D11F78302F69
:1038F00002DB1F78392F11DD1F78612F02DB1F7863
:10390000662F0BDD1F78412F02DB1F78462F05DD68
:103910001F78582F02D01F78782F0CD102B12EE0DB
:103920001F78612F03DB1F78203F0F7001E01F78A5
:103930000F70491C1FE01F78222F04D102B11EE036
:103940000126012417E01F78202F14D01F782C2F78
:1039500011D0FF2613E01F78222F00D1002402B1DE
:103960000DE044B11F785C2F02D15B1C471CF8B2FC
:103970001F780F70491C471CF8B25B1CA8E700BFFA
:1039800000270F702E70F0BD10B504460020107097
:103990000BE020780870641C491C1078401C1070E3
:1039A0001078984201DB012010BD2078202802D039
:1039B00020780028EDD10020087000BFF4E7000057
:1039C0002DE9FF4F85B080468946002700200490EE
:1039D0000390012002904FF0000B002544461DE0AB
:1039E0002078202816D005F07F00052812DA0DB9BE
:1039F00045F0800505F07F00042803D120782A28AF
:103A000000D00EE0207805F07F010DF80100681C61
:103A1000C5B202E0852D00D103E0641C20780028A7
:103A2000DED100BF8DB1002005F07F010DF801004F
:103A300051A1684600F062FA18B900210898017097
:103A400002E001210898017000254FF0000A444669
:103A500014E0641C0AF1010000F0FF0A207820281D
:103A600002D020782A2809D1204600F0D7F906464E
:103A7000282E03D02A2E01D0CDF810A02078282897
:103A800002D020780028E4D14446049810B104986C
:103A9000401C04444FF0000A002654E0207810B97E
:103AA0004FF0010A50E02078282803D116B9781C7D
:103AB000C7B213E02078292808D13EB917B1781E83
:103AC000C7B201E04FF0010A47B93DE02078222853
:103AD00004D10EB9012000E00020064647B9207845
:103AE00020282FD0207889F8000009F1010929E069
:103AF00020782C2804D101200290681CC5B214E063
:103B00002078202811D0207828280ED04DB9BBF17C
:103B1000050F06DA20780DF80B000BF1010000F01C
:103B2000FF0B0298401CC0B20290012F0AD10298EC
:103B3000022807D10298401CC0B202900398401C92
:103B4000C0B20390641CA9E700BF0398012809D103
:103B500000200DF80B0008A1684600F0CFF908B965
:103B600000200390079903980870002089F800004E
:103B7000504609B0BDE8F08F766F69640000000020
:103B80002DE9F043B5B005460F460024002604E0B9
:103B900000213D488155701CC6B20A2EF8DB06E0B4
:103BA0006D1C287818B9012035B0BDE8F08328785D
:103BB0002828F5D16D1C61E034AA69462846FFF734
:103BC0007FFE064635449DF8D00020B1012827D05D
:103BD000FF284CD149E09DF8000000B333A96846A6
:103BE00000F027F906460EB10220DDE7204600F07E
:103BF0004DF825490A31339A0A50A1F12400008B6F
:103C00000121A140884320491A39088304211E4814
:103C10000155601CC4B20A2C01DD0320C4E726E074
:103C2000684600F087F9401C00F0FF08204600F0CD
:103C30002DF815490A3100EB01094946684600F0A4
:103C40006EF911481A38018B0120A040014388B257
:103C50000D491A3908830C4800F80480601CC4B26E
:103C60000A2C01DD03209FE701E002209CE700BF52
:103C70002878292801D0287800B900E09CE700BF07
:103C80003C70002090E700005E0200200246002009
:103C9000002105E0044B5B5C0344D8B24B1CD9B255
:103CA0009142F7DB704700005E02002010B5012151
:103CB0000D48FFF7B5F8012808D10C48D0F8F000FE
:103CC0004FF6FF7108440949C1F8F0000648FFF7B4
:103CD000A4F80649D1F8F01008440449C1F8F000EE
:103CE0000846D0F8F00010BD001400404402002047
:103CF00010B5044604EBC40000EB04100122C2EB33
:103D0000800081B24FF47A70FFF75CF9012001491D
:103D1000C87510BD4402002010B50246012000E025
:103D200050430B1EA1F10104E1B2F9D110BD000016
:103D300010B501210848FFF74FF84FF6FF7106480C
:103D4000FFF7E7F800210448FFF7E7F800200349F0
:103D5000C1F8F00010BD0000001400404402002033
:103D600070B51D48008800F40040002833D01A4880
:103D7000057800201949485519488168174888472F
:103D800004461CB91649C868804721E0134800F072
:103D9000DDF80546012D00D02C46CCB1012C06D013
:103DA000022C08D0032C0AD0042C10D10BE00DA05B
:103DB000FCF7B8FA0BE00EA0FCF7B4FA07E00FA08E
:103DC000FCF7B0FA03E010A0FCF7ACFA00BF00BFAC
:103DD00000200149088070BD9C01002038060020A9
:103DE00044020020BAAFCAFDB4EDCEF3210D0A00A3
:103DF000B2CECAFDB4EDCEF3210D0A00B2CECAFD9B
:103E0000CCABB6E0210D0A00CEB4D5D2B5BDC6A567
:103E1000C5E4B5C4BAAFCAFD210D0A000146491C6C
:103E200000E0491C0878202801D10029F9D1087840
:103E300070472DE9F04307460E4600254FF00A086B
:103E40003C46002030601FE02078392802DC2078D2
:103E500030280ADA2078462802DC2078412804DA63
:103E60002078582809D1012D07D12078412801DB7D
:103E70004FF01008681CC5B205E0207800B904E0D6
:103E80000120BDE8F083641CDEE700BF3C46B8F1CA
:103E9000100F0FD1032D01DA0220F2E7207830282D
:103EA00006D16078582803D1A41CA81EC5B204E02E
:103EB0000320E6E70DB90420E3E71BE00DB1681E1F
:103EC000C5B22078392806DC2078302803DB20783A
:103ED000A0F1300902E02078A0F1370929464046D8
:103EE000FFF71AFF316809FB00103060641C20786E
:103EF00000B900E0E2E700BF0020C2E702460AE0A6
:103F000010780B78984201D001207047107800B9E2
:103F100002E0521C491CF3E700BF0020F5E706E071
:103F200002780A70027802B902E0401C491CF7E7E7
:103F300000BF70470146002005E00A7802B903E09F
:103F4000421CD0B2491CF8E700BF704710B58CB0D6
:103F500004461E230BAA03A92046FFF715FD009077
:103F6000009810B101200CB010BD9DF82C00044445
:103F700000200B900EE040489DF82C2050F82210B5
:103F800003A8FFF7BBFF00B908E09DF82C00401C18
:103F9000C0B20B909DF82C000728ECD300BF9DF811
:103FA0002C00072863D2DFE800F004053C5E65645E
:103FB000630000BF31A0FCF7B5F931A0FCF7B2F9FE
:103FC0003FA0FCF7AFF94EA0FCF7ACF95CA0FCF702
:103FD000A9F96BA0FCF7A6F979A0FCF7A3F986A0D4
:103FE000FCF7A0F98BA0FCF79DF990A0FCF79AF9DB
:103FF00094A0FCF797F999A0FCF794F99EA0FCF720
:1040000091F9A4A0FCF78EF9B0A0FCF78BF9BDA044
:10401000FCF788F9C8A0FCF785F9D4A0FCF782F971
:104020009AE216A0FCF77EF9E0A0FCF77BF90020ED
:104030000B900EE0ED4800689DF82C2000EBC200CC
:104040004168EBA0FCF76EF99DF82C00401CC0B253
:104050000B90E648007D9DF82C108842EADC07A012
:10406000FCF760F978E205A0FCF75CF9C4E171E2C5
:1040700045E219E2ECE10000000200200D0A000018
:104080002D2D2D2D2D2D2D2D2D2D2D2D2D2D2D2D60
:104090002D2D2D2D2D2D2D2D55534D415254205666
:1040A000332E312D2D2D2D2D2D2D2D2D2D2D2D2D35
:1040B0002D2D2D2D2D2D2D2D2D2D2D200D0A0000DA
:1040C0002020202055534D415254CAC7D3C9414CDA
:1040D00049454E54454BBFAAB7A2B5C4D2BBB8F6AA
:1040E000C1E9C7C9B5C4B4AEBFDAB5F7CAD4BBA578
:1040F000BDBBD7E9BCFE2CCDA8B9FD200D0A000040
:10410000CBFC2CC4E3BFC9D2D4CDA8B9FDB4AEBF9B
:10411000DAD6FACAD6B5F7D3C3B3CCD0F2C0EFC360
:10412000E6B5C4C8CEBACEBAAFCAFD2CB2A2D6B4D8
:10413000D0D02ED2F2B4CB2CC4E3BFC90D0A0000FC
:10414000D2D4CBE6D2E2B8FCB8C4BAAFCAFDB5C48B
:10415000CAE4C8EBB2CECAFD28D6A7B3D6CAFDD7EB
:10416000D62831302F3136BDF8D6C629A1A2D7D6F0
:10417000B7FBB4AEA1A2BAAFCAFDC8EB0D0A0000EE
:10418000BFDAB5D8D6B7B5C8D7F7CEAAB2CECAFD72
:10419000292CB5A5B8F6BAAFCAFDD7EEB6E0D6A7BA
:1041A000B3D63130B8F6CAE4C8EBB2CECAFD2CB2F1
:1041B000A2D6A7B3D6BAAFCAFDB7B5200D0A000084
:1041C000BBD8D6B5CFD4CABE2ED0C2D4F6B2CECAD2
:1041D000FDCFD4CABEBDF8D6C6C9E8D6C3B9A6C4F9
:1041E000DC2CD0C2D4F6BDF8D6C6D7AABBBBB9A6C4
:1041F000C4DC2E0D0A000000BCBCCAF5D6A7B3D69D
:104200003A7777772E6F70656E6564762E636F6D83
:104210000D0A000055534D415254D3D037B8F6CF54
:10422000B5CDB3C3FCC1EE3A0D0A00003F3A2020E1
:1042300020202020BBF1C8A1B0EFD6FAD0C5CFA274
:104240000D0A000068656C703A202020BBF1C8A1FF
:10425000B0EFD6FAD0C5CFA20D0A00006C69737416
:104260003A202020BFC9D3C3B5C4BAAFCAFDC1D05C
:10427000B1ED0D0A0A00000069643A2020202020D8
:10428000BFC9D3C3BAAFCAFDB5C44944C1D0B1EDAB
:104290000D0A0A006865783A20202020B2CECAFDB7
:1042A0003136BDF8D6C6CFD4CABE2CBAF3B8FABFE1
:1042B000D5B8F12BCAFDD7D6BCB4D6B4D0D0BDF892
:1042C000D6C6D7AABBBB0D0A0A0000006465633AD4
:1042D00020202020B2CECAFD3130BDF8D6C6CFD4C2
:1042E000CABE2CBAF3B8FABFD5B8F12BCAFDD7D6DF
:1042F000BCB4D6B4D0D0BDF8D6C6D7AABBBB0D0AC5
:104300000A00000072756E74696D653A312CBFAA9F
:10431000C6F4BAAFCAFDD4CBD0D0BCC6CAB13B300C
:104320002CB9D8B1D5BAAFCAFDD4CBD0D0BCC6CA8F
:10433000B13B0D0A0A000000C7EBB0B4D5D5B3CC31
:10434000D0F2B1E0D0B4B8F1CABDCAE4C8EBBAAF9C
:10435000CAFDC3FBBCB0B2CECAFDB2A2D2D4BBD898
:10436000B3B5BCFCBDE1CAF82E0D0A002D2D2D2DD4
:104370002D2D2D2D2D2D2D2D2D2D2D2D2D2D2D2D6D
:104380002D2D2D2D2D2D414C49454E54454B2D2D78
:104390002D2D2D2D2D2D2D2D2D2D2D2D2D2D2D2D4D
:1043A0002D2D2D2D2D2D2D200D0A00002D2D2D2DE7
:1043B0002D2D2D2D2D2D2D2D2D2D2D2D2D2D2D2D2D
:1043C0002D2D2D2D2DBAAFCAFDC7E5B5A52D2D2D4F
:1043D0002D2D2D2D2D2D2D2D2D2D2D2D2D2D2D2D0D
:1043E0002D2D2D2D2D2D2D2D200D0A0044020020C8
:1043F00025730D0A0000000059A0FBF793FF002071
:104400000B901AE0664909689DF82C2001EBC20167
:1044100001AB02AA486803A9FFF7D2FA6048006816
:104420009DF82C1050F8312003A95EA0FBF77AFF0D
:104430009DF82C00401CC0B20B905948007D9DF89F
:104440002C108842DEDCAFF2CC30FBF76BFF83E050
:10445000AFF2D830FBF766FF0BAA03A92046FFF79F
:104460002FFA9DF82C00C8B9694603A8FFF7E1FCB4
:104470000B909DF82C0020B94FA00099FBF752FF3C
:104480000EE09DF82C00042801D002206BE54DA021
:10449000FBF748FF01204249C87501E0022062E5B0
:1044A00047A0FBF73FFF57E045A0FBF73BFF0BAAF8
:1044B00003A92046FFF704FA9DF82C00C8B9694605
:1044C00003A8FFF7B6FC0B909DF82C0020B942A082
:1044D0000099FBF727FF0EE09DF82C00042801D07F
:1044E000022040E53FA0FBF71DFF00202C49C875C6
:1044F00001E0022037E532A0FBF714FF2CE030A0EA
:10450000FBF710FF0BAA03A92046FFF7D9F99DF886
:104510002C00C8B9694603A8FFF78BFC0B909DF8E7
:104520002C0078B91E49009881F8EC00084690F8F4
:10453000EC0018B130A0FBF7F5FE07E035A0FBF763
:10454000F1FE03E002200EE502200CE51CA0FBF7C3
:10455000E9FE01E0012006E500BF002003E50000C0
:104560002D2D2D2D2D2D2D2D2D2D2D2D2D2D2D2D7B
:104570002D2D2D2D2D2D2D2D2DBAAFCAFD204944C9
:10458000202D2D2D2D2D2D2D2D2D2D2D2D2D2D2D68
:104590002D2D2D2D2D2D2D2D2D2D2D2D200D0A00C8
:1045A0004402002025732069642069733A0D0A30A3
:1045B00058253038580D0A004845583A3058255883
:1045C0000D0A00003136BDF8D6C6B2CECAFDCFD432
:1045D000CABE210D0A0000004445433A256C750D02
:1045E0000A0000003130BDF8D6C6B2CECAFDCFD425
:1045F000CABE210D0A00000052756E2054696D6517
:104600002043616C63756C6174696F6E204F4E0D51
:104610000A00000052756E2054696D652043616C7C
:1046200063756C6174696F6E204F46460D0A000019
:10463000016070470000010002000100030001005A
:10464000020001000400010002000100030001005B
:10465000020001000500010002000100030001004A
:10466000020001000400010002000100030001003B
:104670000200010006000100020001000300010029
:10468000020001000400010002000100030001001B
:10469000020001000500010002000100030001000A
:1046A00002000100040001000200010003000100FB
:1046B00002000100070001000200010003000100E8
:1046C00002000100040001000200010003000100DB
:1046D00002000100050001000200010003000100CA
:1046E00002000100040001000200010003000100BB
:1046F00002000100060001000200010003000100A9
:10470000020001000400010002000100030001009A
:104710000200010005000100020001000300010089
:10472000020001000400010002000100030001007A
:1047300002000100303132333435363738394142E6
:1047400043444546403058003031323334353637F3
:10475000383961626364656640307800040000089F
:104760000000000000000002000100001000000036
:104770003F000000646563006964000072756E7438
:10478000696D650068656C70000000006C69737489
:104790000000000068657800766F696420777269B0
:1047A00074655F6164647228753332206164647279
:1047B0002C7533322076616C29000000753332206D
:1047C000726561645F61646472287533322061646C
:1047D00064722900766F6964205365745F6D6F742D
:1047E0006F725F64697228753820646972290000ED
:1047F000766F69642064656C61795F6D73287531CB
:1048000036206E6D73290000766F69642064656CD4
:1048100061795F757328753332206E7573290000D6
:104820004048000800000020380300006C01000828
:10483000E048000838030020A8140000C801000860
:104840001184A24A0400093401020304060708097E
:1048500082017C2C01400C093240120C0B3A4002C0
:104860004012040B3A4003400D3A34014004402109
:104870000B3A40054012080A11401E2C02030404A2
:1048800000094A06070809020406081370471B08B6
:1048900084041A8C041A78041A94041A74041A7C76
:1048A000041351341B08BC081331461B0898081325
:1048B000BD321B08F00813293314080848140815E2
:1048C000201B08D410131C021420F13C14083D35A1
:1048D0001B08ED0413613D9B0805D301D4000000C3
:040000050800022DC0
:00000001FF
