:020000040800F2
:1000000000D600202D020008ED310008FD2D00086B
:1000100009310008FB090008BB5700080000000078
:100020000000000000000000000000001542000871
:10003000FF09000800000000BB020008414300085F
:10004000470200084702000847020008470200086C
:10005000470200084702000847020008470200085C
:10006000470200084702000847020008470200084C
:10007000470200084702000847020008470200083C
:10008000470200084702000847020008470200082C
:10009000470200084702000847020008650B0008F5
:1000A00047020008B9440008470200084702000858
:1000B00009460008CD480008094B0008470200081F
:1000C00047020008470200084702000847020008EC
:1000D000470200089155000847020008470200083F
:1000E000010A00084702000847020008470200080A
:1000F000F1500008470200084702000847020008C4
:100100004702000847020008454D00084702000862
:100110004702000847020008814F0008C94F000845
:10012000470200084702000847020008470200088B
:1001300000F002F800F06BF80AA090E8000C82448E
:100140008344AAF10107DA4501D100F060F8AFF26B
:10015000090EBAE80F0013F0010F18BFFB1A43F0A5
:1001600001031847F0830000108400000A444FF098
:10017000000C10F8013B13F0070408BF10F8014B06
:100180001D1108BF10F8015B641E05D010F8016B4B
:10019000641E01F8016BF9D113F0080F1EBF10F8AF
:1001A000014BAD1C0C1B09D16D1E58BF01F801CBD2
:1001B000FAD505E014F8016B01F8016B6D1EF9D555
:1001C0009142D6D37047000000230024002500266A
:1001D000103A28BF78C1FBD8520728BF30C148BFAA
:1001E0000B607047642900F0F980752900F0F680F3
:1001F000782900F02F81632900F08E82732900F0A6
:100200009382002070471FB51FBD10B510BD00F0D0
:10021000C5FA1146FFF7F7FF05F0FAFC00F0E3FA24
:1002200003B4FFF7F2FF03BC05F0F0FA094880477A
:1002300009480047FEE7FEE7FEE7FEE7FEE7FEE7C8
:10024000FEE7FEE7FEE7FEE704480549054A064BE0
:10025000704700005D4300083101000800D0002015
:1002600000D6002000D2002000D20020EFF3108042
:1002700072B6704780F310887047204C204D25607F
:100280004FF0000484F309881E4C4FF001052570DF
:100290001D4C4FF08055256062B6FEE730B41A4C15
:1002A0004FF08055256030BC704730B4164C4FF08D
:1002B0008055256030BC704700BF72B6EFF30980EF
:1002C00028B1203880E8F00F10490968086000B5AF
:1002D0000F4880475DF804EB0E480F490A7802701A
:1002E0000A480E490A680260106890E8F00F203052
:1002F00080F309884EF0040E62B6704720ED00E0EE
:100300000000FFFF0602002004ED00E00C020020C8
:10031000E5370008FB010020FC010020140200204A
:10032000704700000FB4044910B503AA029800F00A
:10033000FFF910BC5DF814FBA401002070B5044661
:1003400085690068C10601D5302600E02026C00777
:1003500007D070BDD4E9012130469047206A401C87
:1003600020626D1EF6D570BD70B5044685690078B3
:10037000C00707D170BDD4E9012120209047206A31
:10038000401C20626D1EF6D570BD70B50C4605464A
:10039000012A05D02878800600D5EA69002302E00A
:1003A000012305E05B1C934202D2E05C0028F9D1F6
:1003B000A869E618C01AA861286A18442862284665
:1003C000FFF7BCFF04E0D5E9012114F8010B9047C9
:1003D000B442F8D32846FFF7C7FF70BD2DE9F041BE
:1003E0000646002410687529314616A510D0AFF3D3
:1003F0000080002802DA404213A507E031688A072E
:1004000001D512A502E0490704D511A5012401E098
:10041000AFF3008000210A2206F1240709E0B0FBB7
:10042000F2FCB0FBF2F302FB1C00303078541846AB
:10043000491C0028F3D123462A463046BDE8F04146
:1004400000F007B9000000002D0000002B000000A4
:100450002000000070B504460D4621461068AFF339
:1004600000802188090502D50F4A7A4402E00E4A2D
:100470007A440E32002104F1240305E000F00F0657
:100480000009965D5E54491C0028F7D120780023AE
:10049000000704D5702D02D009B102231132204685
:1004A000BDE8704000F0D5B8AA7F00002DE9F05FEC
:1004B000894604464FF0000ADFF874B1FB44C0F8E7
:1004C00020A02046E1688847002874D0252806D05F
:1004D000D4E901219047206A401C2062F1E7002600
:1004E0005F462046E16888472028054607DB312D16
:1004F00005D2781910F8200C08B10643F1E7B007CF
:1005000001D526F00406C4F81CA00027C4F818A0E2
:100510002A2D09D0284605F072F938B304EB870874
:10052000303DC8F8185019E059F8041B204604EB78
:1005300087029161E1688847012F054618D1E0697B
:10054000002820DA26F020061DE0D8F8180000EB7D
:10055000800005EB40003038C8F818002046E168FC
:100560008847054605F04BF90028EED1012F0AD047
:100570002E2D08D12046E16888477F1C0546022FB2
:1005800046F02006C4DBA069002803DA404246F0AA
:100590000106A061F00701D026F010066C2D0BD0EB
:1005A000682D09D04C2D39D06A2D35D0742D35D019
:1005B0007A2D33D016E038E0E1682F462046884790
:1005C000B842054609D16C2F26D04FF48060E1680F
:1005D000064320468847054604E06C2F1AD04FF4A6
:1005E000807006430DB3A5F14100192802D82035CB
:1005F00046F400664A462946204626604E46FFF7E6
:10060000F1FD80B101280BD0F61D26F0070000F1A6
:10061000080956E74020E4E78020D8E70020D6E725
:1006200006F104094DE7284652E7206ABDE8F09F2D
:10063000807F0000704770477047704710B500F02A
:100640008DF8006810BD10B5044600F087F804600E
:1006500010BD2DE9F0470D4699469246044600F13B
:1006600024080168880604D5E06921F010012160A2
:1006700000E00120A84201DD471B00E00027A1693E
:100680007A1902EB0900081AA0612078C00602D48A
:100690002046FFF753FE002608E0D4E901211AF8AE
:1006A00006009047206A401C761C20624E45F4DB11
:1006B0002078C0060AD52046FFF740FE06E0D4E9C0
:1006C000012130209047206A401C2062381EA7F18B
:1006D0000107F4DC07E0D4E9012118F80500904790
:1006E000206A401C2062281EA5F10105F3DC20468B
:1006F000FFF73AFE2078000602D50220BDE8F08719
:100700000120FBE710B5436913B1AFF3008001E0AE
:10071000FFF73BFE012010BD127800F124010A70A2
:1007200000224A700122EDE711684FF0FF32E9E73D
:10073000074B70B50D467B4400F019F80446284677
:1007400000F028F810B14FF0FF3070BD204670BDAA
:100750004F54000000487047A0CF00200048704769
:10076000A0CF002001694A1C02610878704700B5DB
:100770008FB0CDE901310021059105497944CDE9DA
:10078000031011466846FFF791FE0FB000BD000050
:10079000E5FFFFFF007B00F0800070477546FFF724
:1007A000D9FFAE4605006946534620F0070085464E
:1007B00018B020B5FFF748FDBDE820404FF0000617
:1007C0004FF000074FF000084FF0000B21F0070139
:1007D000AC46ACE8C009ACE8C009ACE8C009ACE87C
:1007E000C0098D46704710B50446AFF3008020461F
:1007F000BDE81040FFF714BD21B1826842F001024C
:10080000826003E0826822F001028260704700008B
:1008100010B504461248844208D10121401503F066
:1008200059FC0021601503F055FC17E00D48844287
:1008300008D10121001503F04DFC0021201503F023
:1008400049FC0BE00848844208D10121C80303F0A9
:1008500041FC00214FF4004003F03CFC10BD0000BF
:100860000024014000280140003C014001460020D6
:100870008A6802F004020AB1012000E000207047FB
:100880000146C86C80B270470246002013680B40D6
:100890000BB1012000E000207047014600208A686B
:1008A00002F008020AB1012000E0002070470000B9
:1008B00030B502460020002350680F4C20400D79CF
:1008C0000C6844EA05242043506090680B4C20409B
:1008D000D1E902542C434D7944EA45042043906009
:1008E000D06A20F470000C7C641EE4B2234340EA1A
:1008F0000350D06230BD0000FFFEF0FFFDF7F1FFB6
:10090000F0B504460D4600200021092D11DDE068F8
:10091000A5F10A0606EB4607072606FA07F1884303
:10092000A5F10A0606EB460603FA06F10843E06065
:100930000CE0206905EB4507072606FA07F1884316
:1009400005EB450603FA06F108432061072A0FDA92
:10095000606B561E06EB86071F2606FA07F18843D2
:10096000561E06EB860605FA06F10843606322E090
:100970000D2A0FDA206BD61F06EB86071F2606FA14
:1009800007F18843D61F06EB860605FA06F10843F1
:10099000206310E0E06AA2F10D0606EB86071F2631
:1009A00006FA07F18843A2F10D0606EB860605FA62
:1009B00006F10843E062F0BD816841F00801816002
:1009C000704721B1826842F4A002826003E082682D
:1009D00022F4A00282607047816841F004018160C6
:1009E000704710B502F076FB03F0EEFB02F008FA58
:1009F00002F08CFB02F02AFB10BD00BFFEE770473F
:100A000010B54FF4806000F073F990B1322004F01B
:100A1000D5FF49480068012807D10021474804F064
:100A20001DFC00204649486248704FF4806000F089
:100A300059F94FF4006000F05BF998B1322004F0EE
:100A4000BDFF3D480C300068012807D100213D481A
:100A500004F004FC00203C49486248704FF40060F8
:100A600000F040F94FF4805000F042F998B1322084
:100A700004F0A4FF304810300068012807D100219D
:100A8000324804F0EBFB00203149486248704FF4D3
:100A9000805000F027F94FF4005000F029F998B188
:100AA000322004F08BFF244814300068012807D15D
:100AB0000021284804F0D2FB0020274948624870F2
:100AC0004FF4005000F00EF94FF4804000F010F9A0
:100AD00098B1322004F072FF1748183000680128DE
:100AE00007D10021800704F0B9FB00201B494862B0
:100AF00048704FF4804000F0F5F84FF4004000F0EB
:100B0000F7F8C0B11548807888B9322004F056FF54
:100B100009481C300068012809D10021800704F031
:100B20009DFB0F4800690D494862002048704FF452
:100B3000004000F0D7F810BD20012342002C0140F6
:100B400018000020000C0040580000200004004065
:100B50009800002000340140D80000201801002037
:100B6000C403002010B5202000F0C2F898B1322054
:100B700004F024FF4A480068012809D100218007B9
:100B800004F06CFB474840694749486200204870C0
:100B9000202000F0A7F8402000F0AAF890B1322001
:100BA00004F00CFF3E48001D0068012807D1002119
:100BB0003E4804F053FB00203D4948624870402005
:100BC00000F090F8802000F093F858B33548007892
:100BD00004280CDD32480830006801281CD00021B0
:100BE000324804F03BFB00203149487014E02D48A6
:100BF0000078032810D12B4890F8240002280BD14C
:100C0000274808300068012806D00021274804F052
:100C100025FB00202649487026A0FFF783FB802093
:100C200000F060F84FF4807000F062F8C8B125A0C1
:100C3000FFF778FB2748007804280EDB254800786A
:100C400006280ADC24480068012806D10021234830
:100C500004F004FB0020224948704FF4807000F03B
:100C600041F84FF4007000F043F8B8B1194800782B
:100C700004280FDB1748007806280BDC1648001FF5
:100C80000068012806D10021144804F0E7FA00208A
:100C9000134948704FF4007000F024F810BD0000B4
:100CA00014812242C40300201801002000080040E3
:100CB0005801002065786974372074726967676528
:100CC000720D0A0065786974382074726967676507
:100CD000720D0A006803002028012342002C014005
:100CE000180000200149086070470000140401400A
:100CF000014600200022074B1B6803EA0102054B56
:100D000014331B680B4013B10AB1012000E000202E
:100D10007047000000040140002123498279002A25
:100D20003AD00A46126803689A430B461A600A1DB5
:100D3000126803689A430B1D1A60027911440A680D
:100D400003681A430A60184A0832126803689A4313
:100D5000154B08331A601A1D126803689A43124B28
:100D60000C331A604279102A0ED11A1F12680368D8
:100D70001A430D4B08331A601A1D126803681A4390
:100D8000094B0C331A600DE00749427911440A6897
:100D900003681A430A6005E0027911440A6803688F
:100DA0009A430A60704700000004014070B5054690
:100DB0000C4603F01DF90020144988750120487085
:100DC0000D200870002012490876012048700D207F
:100DD000087000200F4981F82300012048700D2081
:100DE000087000200C4981F82400012048700D2073
:100DF000084908700948007828430849087024B158
:100E00000748006820430649086070BD6803002059
:100E1000800300209C030020C4030020EE03002078
:100E20001400002008B50121302003F043F9FB2015
:100E3000ADF8000048208DF803006946054801F030
:100E4000EFFA0420ADF800006946034801F0E8FA23
:100E500008BD0000001401400010014008B5012148
:100E6000402003F027F94FF47F40ADF80000482000
:100E70008DF803006946024801F0D2FA08BD00006F
:100E8000001801401CB5FFF7CDFF0121084603F013
:100E900011F900208DF8040001208DF806000521CD
:100EA000032001F09DFA08208DF805002020009015
:100EB0006846FFF731FF0621032001F091FA082070
:100EC0008DF80500402000906846FFF725FF0721B8
:100ED000032001F085FA0C208DF805008020009099
:100EE0006846FFF719FF1CBD0EB5FFF7B7FF0121DC
:100EF000084603F0DFF800208DF8080001208DF887
:100F00000A000F21042001F06BFA08208DF8090077
:100F10000003019001A8FFF7FFFE0E21042001F05D
:100F20005FFA08208DF80900C002019001A8FFF7C0
:100F3000F3FE0D21042001F053FA08208DF809007A
:100F40008002019001A8FFF7E7FE0C21042001F0C8
:100F500047FA08208DF809004002019001A8FFF728
:100F6000DBFE0B21042001F03BFA08208DF809007C
:100F70000002019001A8FFF7CFFE0A21042001F032
:100F80002FFA08208DF80900C001019001A8FFF791
:100F9000C3FE0921042001F023FA08208DF809007E
:100FA0008001019001A8FFF7B7FE0821042001F09D
:100FB00017FA08208DF809004001019001A8FFF7F9
:100FC000ABFE28208DF8000001208DF801008DF87F
:100FD00002008DF80300684602F00AF917208DF828
:100FE000000001208DF8010000208DF80200012092
:100FF0008DF80300684602F0FBF80EBD4B48007800
:101000000E2808D2DFE800F007080E13212E4E54F8
:101010005E6C7A848E8F87E00020444948700320FC
:10102000087081E000204149487008707CE0012090
:101030003F4908603F48D0F80001012804D0002053
:101040003A494870042008706EE001203849086071
:101050003848D0F80001012803D0002033494870F7
:10106000087061E00120324908603248D0F8000180
:10107000012816D030480078052809D12E4840783C
:10108000022805D10020294948700620087008E090
:1010900029480078072804D10220244948700C20F0
:1010A000087041E0002021494870072008703BE0AB
:1010B00022480068012804D100201C4948700820FB
:1010C000087031E01E480078052808D11C48407897
:1010D000022804D10020154948700920087023E037
:1010E00017480078062808D115484078022804D10E
:1010F00000200E4948700A20087015E01148007859
:10110000092804DC0020094948700B2008700BE016
:101110000A480068012804D00020044948700520CE
:10112000087001E000E000BF00BF704780030020AE
:10113000B4812242000023426803002000012342C0
:10114000C40300209C03002010B5A84800780E2896
:1011500008D2DFE800F007080E92AECBD7F1F8EE28
:10116000EDECEBEA3FE10120A14908609F4948709E
:1011700039E19E48007E78B99E480068012802D176
:101180009A49087678E099494868002104F0DEFD24
:101190000120964948706FE09448007E01281DD1D7
:1011A00092488068406A9149498A884203D1022066
:1011B0008E49087660E08F480830006801285BD1CE
:1011C0008D4840684078002856D1884A518A9068F6
:1011D00004F0BCFD0120854948704DE08348007E45
:1011E00002281AD18348001F0068012803D1032078
:1011F0007E49087640E07F480830006801283BD1EE
:101200007D484068407828BB78498868002104F010
:101210009DFD0120754948702EE07448007E03282A
:1012200011D174480C300068012825D172484068FB
:10123000407878B96D4A118A906804F087FD0120E2
:101240006A49487018E06948007E042803D10120EB
:101250006749086010E06548007E05280CD16548A4
:1012600030380068012807D0604A518A906804F03D
:101270006DFD01205D494870B5E05E4800680128B9
:101280000BD15A49486805F0B8F800205749496819
:1012900048620220554948700AE00120544908601C
:1012A00052494868002104F051FD01204F4948701F
:1012B00099E05048001F006801280BD14B4988680D
:1012C00005F09BF800204949896848620220474997
:1012D00048700AE0012046490860444988680021B6
:1012E00004F034FD0120414948707CE00120404970
:1012F00008603E4A518A906804F028FD01203B496D
:10130000487070E03B480838006801280CD1394823
:101310000C380068012807D0344A5169506804F03D
:1013200015FD0120314948705DE05BE059E04EE079
:1013300035E019E007E0FFE700202D4908600120B3
:101340002A4948704FE02B480068012803D1022049
:101350002649487007E025494868002104F0F6FC5A
:101360000120224948703EE02248001F0068012801
:1013700003D102201D49487010E01E480830006863
:1013800001280BD11C484068407838B91749886853
:10139000002104F0DBFC01201449487023E01548CB
:1013A0000C300068012811D10020134949684870A9
:1013B00060B112480078092808DC0C4A118A90684C
:1013C000002204F063FC0120084948700BE00B4840
:1013D0000078092804DC01200549086003494870A9
:1013E00001E000E000BF00BF10BD0000800300204E
:1013F000B481224230012342C40300209C03002018
:1014000010B59E4800780E2808D2DFE800F00708E3
:101410001A94AEC8D0D8F0EEEDECEBEA2CE1974888
:10142000C06864280CD996480068012803D00220BF
:101430009249487004E04FF400412020FFF7B6FCC9
:101440001AE18E48007ED8B98D48303000680128F6
:101450000CD18A49486804F0D0FF002087494968C8
:101460004862864948700120087663E083484068F6
:10147000407800285ED110212020FFF797FC59E02A
:101480007E48007E012809D17C4880684078002889
:1014900050D17A494870022008764BE07748007EA8
:1014A00002281AD176482C30006801280CD17349E3
:1014B000886804F0A2FF00207049896848626F497B
:1014C00048700320087635E06C488068407818BB87
:1014D00008212020FFF76AFC2CE06848007E0328E2
:1014E00009D1664880684078B0B9002063494870E7
:1014F000042008761EE06148007E04280DD15F4874
:10150000C068642816D95E480068012812D00020FF
:101510005A494870052008760CE05848007E052896
:1015200008D156488068407820B902205349487055
:1015300000200876A0E052483030006801280BD126
:101540004E49486804F059FF00204C4949684862F8
:1015500002204A49487007E048484068407818B976
:1015600010212020FFF722FC86E045482C3000683F
:1015700001280BD14149886804F03FFF00203F4912
:101580008968486202203D49487007E03B4880680E
:10159000407818B908212020FFF708FC6CE0374894
:1015A0008068407810B902203449487064E03348BC
:1015B0004068407810B90220304948705CE02F48FC
:1015C000C06864280CD92E480068012803D1022085
:1015D0002A49487004E04FF400412020FFF7E6FB61
:1015E0004AE048E046E03DE035E01AE0FFE7244805
:1015F0003030006801280BD12049486804F0FDFE16
:1016000000201E494968486202201C49487007E0D2
:101610001A484068407818B910212020FFF7C6FB0F
:101620002AE017482C30006801280BD1134988683C
:1016300004F0E3FE002011498968486202200F4946
:10164000487007E00D488068407818B908212020CC
:10165000FFF7ACFB10E00948806810B90220074989
:10166000487009E00548C068642802D9022003498F
:10167000487001E000E000BF00BF10BD8003002003
:101680000001234210B51448407820B9FFF75CFDF3
:1016900000201149C86010484078012810D1FFF798
:1016A000AFFE0D48C068401C0B49C8600846C068C2
:1016B00040F6B831884203D900214020FFF776FB7D
:1016C00005484078022805D104480078022801D056
:1016D000FFF794FC10BD000080030020EC03002005
:1016E00010B523480078092840D2DFE800F005064D
:1016F0000B11171D363D3E0038E000201C490870D4
:10170000487033E000201A490870487088752DE051
:101710000020174948700420087027E00020144971
:1017200048700520087021E004F0D4F830B1114869
:101730000068012802D000200D4948700D48001FA4
:101740000068012808D10B480068012804D1002056
:10175000074948700620087008E0002004494875D1
:1017600048700420087001E000E000BF00BF10BD19
:10177000680300202801234210B562480078092838
:1017800006D2DFE800F00506224A628399B7B80066
:10179000B6E05D48006801280BD15A49486804F05A
:1017A0002CFE00205749496848620220554948707C
:1017B0000AE004F08FF838B152494868002104F07B
:1017C000C5FA01204F4948709AE04E48807D90B993
:1017D0004D480068012802D14A4988751CE004F090
:1017E00079F8C8B147494868002104F0AFFA0120F0
:1017F0004449487010E04348807D01280CD104F032
:1018000069F848B13F4A5268116A3E4A506804F08C
:101810009DFA01203B49487072E03B48006801286E
:1018200007D100203749496848620220354948708D
:101830000AE004F04FF838B132494868002104F05A
:1018400085FA01202F4948705AE02F48001D006892
:1018500001280AD12C4808300068012805D102204F
:1018600028494870012008750FE004F033F860B192
:10187000244A1269234BDB681A445100214A5068FC
:1018800004F064FA01201F49487039E01E4808300E
:101890000068012803D102201A4948700BE004F0C7
:1018A00019F840B1174AD1685068002204F0EEF9E7
:1018B00001201449487023E01348001D00680128E6
:1018C0000AD0114808300068012805D000200D49D1
:1018D0004870042008700CE003F0FCFF48B1094A8E
:1018E0001169506804F032FA01200649487000205E
:1018F000487505E004E0002002494870087000BF08
:1019000000BF10BD680300202001234210B56B48C2
:101910000078092806D2DFE800F005061F4A638B2D
:10192000B1CCCD00C7E06648006801280BD16349FF
:10193000486804F062FD002060494968486202205E
:101940005E49487007E05D484068407818B9012159
:101950002020FFF72BFAAEE05848807DC8B95848E0
:10196000006801280CD15549486804F046FD002064
:10197000524949684862514948700120887515E00C
:101980004E484068407888B901212020FFF70EFAC0
:101990000CE04A48807D012808D1484840684078DA
:1019A00020B90220454948700020887583E04448EA
:1019B000006801280BD14149486804F01EFD002051
:1019C0003E494968486202203C49487007E03B486C
:1019D0004068407818B901212020FFF7E7F96AE054
:1019E0003748001D006801280ED1354808300068CE
:1019F000012809D13149486804F0FFFC02202F4931
:101A000048700120087512E02C484068407870B991
:101A10002A48007D38B10020284908750220487006
:101A20000720087003E000210820FFF7BFF942E01B
:101A30002348001D0068012804D0214808300068B0
:101A4000012812D11D49486804F0D7FC02201B4927
:101A500048701B48001D006801280ED01848083047
:101A60000068012809D1487507E0144840684078AB
:101A700018B906212020FFF799F91CE01048001D35
:101A8000006801280CD00E4808300068012807D0F3
:101A90000A49486804F0B1FC02200849487007E090
:101AA00006484068407818B906212020FFF77EF9E3
:101AB00001E000E000BF00BF10BD0000680300208F
:101AC0002001234210B51448007820B9FFF754FED6
:101AD00000201149886010480078012810D1FFF7D4
:101AE00015FF0D488068401C0B49886008468068D7
:101AF00040F6B831884203D900214020FFF756F95B
:101B000005480078022805D104480078022801D051
:101B1000FFF7E6FD10BD000068030020EC03002085
:101B200010B5434800780E2808D2DFE800F0070817
:101B30000F1716223A445A63737F7D7E76E00020A9
:101B40003B494870087081F824006FE00020384954
:101B50004870087081F8240068E067E0002035498B
:101B60000870334948700A200870002081F824006A
:101B70005CE031480078092809D12F4840780228D4
:101B800005D100202A4948700620087008E02A483C
:101B900000780C2804DB0220254948700C200870CE
:101BA00044E025480078082804DC002020494870DB
:101BB000072008703AE02148006801280BD11C4832
:101BC00090F82500401C1A4981F825000020487033
:101BD0000820087004E04FF480612020FFF7E6F849
:101BE00024E00520134908700020114948700A209C
:101BF00008701BE00E4890F82600401C0C4981F844
:101C0000260005200B4908700020094948700A2069
:101C100008700BE0002006494870064800780870FC
:101C200000200449087001E000E000BF00BF10BDC3
:101C3000C4030020EF030020800300201C81224207
:101C400010B5D84800780E2808D2DFE800F0070861
:101C500044CAA2FBFAF9F8F7F607F5F49FE1D14878
:101C600090F82400C8B9D048006801280CD1CD49AB
:101C7000486804F0C2FB0020CA4949684862012054
:101C8000C84981F8240025E0C6494868002104F0CD
:101C90005DF80120C34948701CE0C24890F8240058
:101CA000012817D1C148006801280BD1BD498868B7
:101CB00004F0A3FB0020BB49896848620220B949AF
:101CC000487007E0B7498868002104F03FF8012018
:101CD000B449487063E1B34890F82400F8B9B248B9
:101CE0000068012806D10020AE494870012081F823
:101CF00024004DE0AE4880684078002848D1AC48C8
:101D00008068406AAA49098A884241D0A549486842
:101D1000002104F01BF80120A249487038E0A148D6
:101D200090F8240001281FD19F48001D0068012859
:101D300006D100209B494870022081F8240027E04A
:101D40009B488068407818BB99488068406A9849E9
:101D5000098A88421CD0934A1169506803F0F6FF43
:101D600001209049487013E08E4890F82400022822
:101D70000ED18F488068406A8D49498A884207D1D0
:101D800088494868002103F0E1FF01208549487037
:101D900005E1844890F8240098B983480068012838
:101DA00006D100207F494870012081F8240017E007
:101DB0007C494868002103F0C9FF01207949487037
:101DC0000EE0784890F82400012809D1754A126A7B
:101DD0005100744A906803F0B9FF012071494870BE
:101DE000DDE0704890F8240098B96F480068012839
:101DF00006D100206B494870012081F824003AE0A8
:101E000068494868002103F0A1FF01206549487036
:101E100031E0644890F82400012819D16548006831
:101E2000012810D15F498868002103F08FFF01204D
:101E30005C4948701FE0B1E0AFE09DE08AE077E0E8
:101E40004DE032E018E000211020FEF7AFFF12E075
:101E5000544890F8240002280DD1524A9268526AE0
:101E6000504B9B69D1184F4A9068002203F00EFF37
:101E700001204C49487092E04E48006801280FD17B
:101E800049480068012803D10220464948700BE008
:101E90000120444948704868002103F057FF03E0DF
:101EA00000211020FEF782FF79E03F48001D006806
:101EB000012803D102203B4948700FE03C4880686C
:101EC000406A58B9384838380068012806D1354981
:101ED00048700A461169506803F038FF5FE03348E4
:101EE000001F0068012803D102202E4948701EE01F
:101EF0003048006801280DD12C48001D00680128D9
:101F000008D00120274948700A465169506803F0FB
:101F10001DFF0CE027480068012808D12348001D58
:101F20000068012803D100211020FEF73FFF36E0B2
:101F30001E48001D0068012808D11A4948700A4649
:101F4000D1699068002203F0A1FE02E00220154949
:101F5000487024E01548001D0068012808D1114987
:101F600048700A4691699068002203F08FFE02E0F3
:101F700002200C49487012E001200A4948700A46C4
:101F80009268536A0A469268928803EB4201054AB6
:101F90009068002203F07AFE01E000E000BF00BF7D
:101FA00010BD0000C40300203801234218812242E2
:101FB000800300201481214210B5EE4800780E28DD
:101FC00008D2DFE800F0070849D9ADF6F5F4F3F2DE
:101FD000F107F0EFCCE1E74890F82400D0B9E648EB
:101FE000006801280DD1E349486804F006FA002092
:101FF000E04949684862DF494870012081F82400BF
:1020000029E0DC484068407828BB40212020FEF7CA
:10201000CDFE20E0D74890F8240001281BD1D748F6
:10202000006801280ED1D349886804F0E6F9002041
:10203000D049896848620220CE494870002081F862
:10204000240008E0CB488068407820B94FF4007144
:102050002020FEF7ABFE8BE1C64890F82400D8B9EB
:10206000C548006801280DD1C249486804F0C5F987
:102070000020C04949684862BE494870012081F883
:1020800024004CE0BB4840684078002847D14021FC
:102090002020FEF78BFE42E0B64890F8240001288D
:1020A0001DD1B548001D006801280FD1B14948680D
:1020B00004F0A3F9AF480069AE49496848620020BE
:1020C000AC494870022081F8240028E0A948406803
:1020D000407820BB80212020FEF768FE1FE0A54845
:1020E00090F8240002281AD1A348006801280ED1D4
:1020F000A049486804F081F900209E494968486277
:1021000002209C494870002081F8240007E099488B
:102110004068407818B940212020FEF747FE27E1AB
:10212000944890F82400D0B99348006801280DD154
:102130009049486804F061F900208E494968486276
:102140008C494870012081F8240014E089484068D7
:10215000407880B940212020FEF728FE0BE085481A
:1021600090F82400012806D182488068407810B990
:10217000022080494870FBE07E4890F8240010BBA4
:102180007D480068012815D17A49486804F035F97E
:10219000002078494968486276494870012081F8F2
:1021A000240034E0E3E0E1E0D8E0ACE080E063E08C
:1021B00047E02DE06F484068407840BB4021202038
:1021C000FEF7F4FD23E06B4890F82400012812D1BB
:1021D0006A480068012803D069480068012816D0C1
:1021E0006449886804F009F90220624981F82400F2
:1021F000002048700BE05F4890F82400022806D1C8
:102200005C488068407810B902205A494870AFE0B5
:102210005948006801280BD15649486804F0EDF888
:10222000002054494968486202205249487007E03A
:1022300050484068407818B940212020FEF7B6FD8C
:1022400096E04D48001D006801280CD149494868B6
:1022500004F0D3F8474800694649496848620220BB
:102260004449487007E043484068407818B98021E5
:102270002020FEF79BFD7BE04048001F00680128FE
:102280000CD13C49486804F0B8F83A4840693949EB
:102290004968486202203749487008E0354840687C
:1022A000407820B94FF480712020FEF77FFD5FE079
:1022B0003248001D0068012807D02E49886804F0C4
:1022C0009CF802202B4948701CE02A48806840781E
:1022D00060B928488068406A2649096A884205D260
:1022E000002024494870092008700BE021488068CC
:1022F000406A2049096A884204D900201D49487073
:102300000C20087034E01D48001D0068012807D02B
:102310001849886804F071F80220164948701CE0DA
:10232000144880684078C0B912488068406A1149F2
:102330008968096A884205D200200E4948700C203D
:1023400008700AE00B4890F82600401C094981F803
:10235000260000211020FEF729FD09E005488068CD
:10236000407810B900200349487001E000E000BF48
:1023700000BF10BDC403002038012342188122424F
:102380001481214210B51448407820B9FFF758FC59
:1023900000201149C86010484078012810D1FFF78B
:1023A0000BFE0D48C068401C0B49C8600846C06859
:1023B00040F6B831884203D900214020FEF7F6FCF0
:1023C00005484078022805D104480078022801D049
:1023D000FFF7A6FB10BD0000C4030020EC030020A3
:1023E00030B500228B071C0F0F2303FA04F20B4BAE
:1023F0008C1053F824309343084C8D1044F825304A
:1024000023468C1053F824308C07240F00FA04F470
:102410002343024C8D1044F8253030BD08000140A4
:102420002DE9F0410246002500260020002300246B
:10243000002791F803C00CF00F0591F803C00CF0D1
:10244000100CBCF1000F03D091F802C04CEA050556
:1024500091F800C0BCF1000F31D0146800202BE0CF
:102460004FF0010C0CFA00F3B1F800C00CEA0306BF
:102470009E4220D183004FF00F0C0CFA03F7BC43AF
:1024800005FA03FC4CEA040491F803C0BCF1280FE0
:1024900006D14FF0010C0CFA00FCC2F814C00AE09F
:1024A00091F803C0BCF1480F05D14FF0010C0CFAB4
:1024B00000FCC2F810C0401C0828D1D31460B1F849
:1024C00000C0BCF1FF0F34DD546800202EE000F1A5
:1024D000080C4FF0010808FA0CF3B1F800C00CEA40
:1024E00003069E4221D183004FF00F0C0CFA03F734
:1024F000BC4305FA03FC4CEA040491F803C0BCF1A8
:10250000280F05D100F1080C08FA0CF8C2F8148065
:1025100091F803C0BCF1480F07D100F1080C4FF04F
:10252000010808FA0CF8C2F81080401C0828CED325
:102530005460BDE8F0810000F0B50A460023002495
:102540000021002500F00046B6F1004F02D11D4EDB
:10255000F16901E01B4E7168C0F3034583B200F4DA
:102560004016B6F5401F08D121F07061154E76680F
:1025700026F07066134F7E6012E000F48016B6F508
:10258000801F06D1032606FA05F4A14341F07061CD
:1025900006E0460D360103FA06F6B14341F07061DC
:1025A00022B1460D360103FA06F6314300F000462B
:1025B000B6F1004F02D1034EF16101E0014E7160AE
:1025C000F0BD0000000001404161704701617047AB
:1025D00010B5494800780F2809D2DFE800F0080953
:1025E0000E13181E323B4A59676D7688890080E0C9
:1025F00000204149487008707BE000203E49487047
:10260000087076E000203C490870487071E00020B6
:1026100039494870052008706BE038480078062872
:1026200009DB364800780C2805DA0020324948706A
:102630000620087004E00D202F4908700220487021
:1026400057E000202C49487007200870002081F8CE
:1026500023004EE02A480068012805D100202649C1
:1026600048700820087003E000210120FEF79EFB5F
:102670003FE023480068012805D100201E4948702A
:102680000920087003E000210120FEF78FFB30E0F5
:102690001A4800780A2808D118484078022804D13E
:1026A0000020154948700A20087022E000201249D5
:1026B00048700B2008701CE000200F4948700C2067
:1026C0000870002081F8230013E00D480C300068EA
:1026D00001280BD00A4810300068012806D10020DC
:1026E000054981F8230048700420087001E000E0EB
:1026F00000BF00BF10BD00009C030020800300202D
:102700000081224210B57E4800780F2809D2DFE808
:1027100000F00809141E3B5060697F969EB2C8F213
:10272000F300EAE001207749086000207649C1F80B
:10273000AC01012072494870DFE000207149086057
:1027400001207149C1F8AC016D494870D5E06C4871
:1027500090F8230050B900206A49091F0860012041
:102760006949C1F8B001664948700CE0644890F8C6
:102770002300012807D162494868002103F0E6FAE6
:1027800001205F494870B8E05E48AC380068012815
:1027900004D000210220FEF709FB09E0002059497E
:1027A000091F086001205849C1F8B0015449487018
:1027B000A3E056480068012803D102205049487020
:1027C00006E001204E4948704868002103F0BEFA37
:1027D00093E001204A4948700A465169506803F065
:1027E000B5FA8AE0464890F8230030B90020454900
:1027F000086001204249487009E0414890F82300F0
:10280000012804D13F49091F08603D49487074E020
:102810003C48B038006801280CD100203C490860D1
:102820003949C1F8B80137490C31086001203449F1
:10283000487003E000210120FEF7B8FA5DE00020B7
:102840003049091F086001202D49487055E0314882
:102850008068406A2F49098A88420BD12D488068D8
:10286000407838B90120264948700A469169506875
:1028700003F06CFA41E025480068012803D10220EA
:102880001F4948700CE001201D4948700020204974
:10289000091D08601A490A8C4868002103F0F6F9FE
:1028A0002BE0174890F8230020B901201549091F93
:1028B00008601DE0124890F82300012802D1114958
:1028C000086015E00E4890F82300022804D101208A
:1028D0000C49083108600BE0094890F823000328F0
:1028E00006D1012007490C3108600B49C1F880016D
:1028F00003E001E0FFE700E000BF00BF10BD000003
:102900009C030020B08122420080224234012342F5
:1029100080812142800300200080214210B5A2481E
:1029200000780F2809D2DFE800F00809121B506276
:10293000777FA9B2BFC7F5F3F20032E19A48806809
:10294000B0F5FA6F02D902209749487029E19648FC
:102950008068B0F5FA6F02D902209349487020E1EF
:10296000914890F82300A0B98F488068B0F57A6F3D
:102970002AD98E480068012826D18C48001D00689D
:10298000012821D1002088494870012081F82300C6
:102990001AE0854890F82300012815D18448006882
:1029A00001280DD18049486803F027FD00207E49A9
:1029B000496848627C4981F823000220487003E09E
:1029C00020210846FEF7F2F9EBE077488068B0F581
:1029D000FA6F0BD975480068012807D17348001DAC
:1029E0000068012802D102206F494870D9E0704880
:1029F000006801280BD16C49486803F0FEFC0020F8
:102A000069494968486202206749487003E020210B
:102A10000846FEF7CBF9C4E063484068407810B937
:102A2000022061494870BCE05F4890F8230080B9FB
:102A30005D488068B0F5FA6F1FD95C48001D0068DA
:102A400001281AD00120584981F82300002048703D
:102A500013E0554890F8230001280ED152488068B1
:102A6000B0F5FA6F09D951480068012805D0002057
:102A70004D4981F823000220487092E04A4880685E
:102A8000B0F57A7F02D902204749487089E046486C
:102A90008068B0F5FA6F06D944480068012802D171
:102AA0000220414948707CE03F484068407810B9B6
:102AB00002203D49487074E03B4880693A49C96941
:102AC000401A39494968496A884202D9012039497E
:102AD00008603748006801280DD13649086032493E
:102AE000486803F08AFC00202F49496848620220A8
:102AF0002D4948700AE02C484068407830B90120E0
:102B00002C49086020210846FEF750F949E047E0CB
:102B100045E0FFE7244890F8230060B92248806828
:102B200021498989884239D900201F4948700120EC
:102B300081F8230032E01C4890F8230001280CD1D2
:102B4000194880681849C989884227D90020164940
:102B50004870022081F8230020E0134890F82300F9
:102B600002280BD110488068B0F57A7F16D9002072
:102B70000D494870032081F823000FE00A4890F8BF
:102B8000230003280AD108488068B0F57A7F05D968
:102B90000020054981F823000220487001E000E090
:102BA00000BF00BF10BD00009C0300200C8122422A
:102BB000340123428481214210B51448407820B961
:102BC000FFF7A0FD002011498860104840780128D7
:102BD00010D1FFF7A3FE0D488068401C0B498860A8
:102BE0000846806840F6B831884203D90021402069
:102BF000FEF7DCF805484078022805D10448007843
:102C0000022801D0FFF7E4FC10BD00009C03002067
:102C1000EC03002010B501F0CDF900F00DFA002012
:102C20000D4908600D49C1F8A40101200A49083185
:102C300008600020091D08600120091D0860064980
:102C400018310860091D086005490860091D086001
:102C50000249C1F8B40110BDA08122420080224285
:102C60008081214210B5044601F074F912490860D0
:102C700012491148006805F0F1F90AD20120104903
:102C80000860642002F064FE01200E49C1F8A00132
:102C900010BD0D490848006805F0E0F806D2002094
:102CA000074908600749C1F8A001F1E7204600F094
:102CB000BBF900BFECE700009C0100200000A0432E
:102CC000A48122420080224200007A4310B50024F1
:102CD00001201349086000201249C1F8B001012009
:102CE0000F490C310860091D08600F490860091D73
:102CF00008600B490831086001F02CF904460B49C3
:102D0000204605F0ABF805D201200549091F0860EF
:102D1000032010BD00200249091F08600220F8E7C7
:102D2000AC81224200802242808121420000204169
:102D30002DE9F04F89B005460E4617469846002407
:102D40004146129805F0F6F9089000BF48E04FF0B0
:102D50008041304604F058FF4FF0804107903046E4
:102D600004F052FF0490204605F04CF803900499BB
:102D700005F0E0F90590139905F0A4F8069007997D
:102D800004F042FF82468AF00040019002F044FEC7
:102D90004FF07E51029004F0C3FE039004F094FEC5
:102DA00002460B46CDE904010020134904F01EFC45
:102DB000CDE9060104F0E8FB81464946089805F094
:102DC00081F84146079004F0ABFE834659463846E9
:102DD00004F01AFF079004F0F5FF25F81400641CB6
:102DE000204605F00FF83146079005F037F8AED3CE
:102DF00009B0BDE8F08F00000000F03F00BFFEE723
:102E000038B5002401217C2001F054F910208DF800
:102E1000030003208DF8020041F20304ADF80040E6
:102E200069460F48FFF7FCFA21460D48FFF7CEFB35
:102E30004FF47F44ADF8004069460A48FFF7F0FAC6
:102E400021460848FFF7C2FB8024ADF800406946E0
:102E50000548FFF7E5FA21460348FFF7B7FB38BD01
:102E6000000C0140001401400018014008B5012188
:102E7000042001F01FF90121102001F01BF910209E
:102E8000ADF800008DF8030003208DF802006946BC
:102E90000848FFF7C5FA0220ADF800006946064869
:102EA000FFF7BEFA0120054908600549C1F8900105
:102EB00008BD0000000801400010014084012242CA
:102EC0000000214270B504461448006820F47020C8
:102ED000124908600846006840F44030086000204D
:102EE0000F490860002516E0E0090E4908606006F9
:102EF000040E022003F0E0F801200B49C1F8840120
:102F0000022003F0D9F8002005490860022003F0F0
:102F1000D3F8681CC5B2082DE6DB70BD000801407F
:102F200084012242900121420000224210B50F4844
:102F3000006820F470200D4908600846006840F4DD
:102F40004030086001200A4908600A49C1F884013C
:102F5000042003F0B1F8002005490860042003F0C4
:102F6000ABF800200349C1F8840110BD00080140FE
:102F7000900121420000224210B50F48006820F461
:102F800070200D4908600846006840F44030086031
:102F900000200A4908600A49C1F89001042003F0A2
:102FA0008BF80120054908600549C1F8900104200B
:102FB00003F082F810BD00000008014084012242A5
:102FC0000000214210B500241348006820F470204E
:102FD000114908600846006840F40020086001209C
:102FE0000E49086003F068F801200D49C1F884011A
:102FF00003F062F807E0601CC4B2FA2C03DDFFF7AF
:10300000BBFF012010BD0548803800680028F2D1C0
:103010000449086000BFF5E7000801409001214223
:10302000000022428401224210B50446224640217B
:10303000902000F0C3FF10BD10B5FFF717FF00226E
:103040004021902000F0BAFF10BD000008B501211A
:103050007C2001F02FF84FF4C050ADF8000048205C
:103060008DF8030069461648FFF7DAF92020ADF81D
:10307000000048208DF8030069461248FFF7D0F998
:103080000420ADF8000048208DF8030069460E4882
:10309000FFF7C6F9FB20ADF8000048208DF80300CB
:1030A00069460A48FFF7BCF94FF60170ADF8000019
:1030B00048208DF8030069460548FFF7B1F908BDBF
:1030C00000080140000C01400010014000140140C4
:1030D0000018014008B50121102000F0EBFF30205E
:1030E000ADF8000010208DF8030003208DF80200D9
:1030F00069460448FFF794F930210248FFF766FA61
:1031000008BD00000010014000BFFEE738B50024F4
:1031100001217C2000F0CEFF10208DF80300032059
:103120008DF802008224ADF8004069462048FFF780
:1031300077F921461E48FFF747FA9824ADF800407A
:1031400069461C48FFF76CF921461A48FFF73CFA1C
:1031500042F28134ADF8004069461748FFF760F944
:1031600021461548FFF730FA4224ADF80040694681
:103170001248FFF755F921461048FFF725FA4FF49A
:10318000E054ADF8004069460B48FFF749F9214685
:103190000948FFF719FA0424ADF8004069460848C9
:1031A000FFF73EF921460648FFF70EFA38BD00004A
:1031B00000080140000C01400010014000180140CF
:1031C0000014014010B5482001F0F8F8242001F067
:1031D00057FD242001F036FC482001F011FF242087
:1031E00001F06CFE242001F0FBFA10BD70470000D6
:1031F00070B5002100230F22C47804B3154C246855
:1032000004F4E064C4F5E064210AC1F10403CA4097
:10321000447804FA03F184781440214309010E4CE8
:103220000678A155047804F01F050124AC40057808
:103230006D11AD0005F1E025C5F8004109E0047805
:1032400004F01F050124AC40044D0678761145F8C2
:10325000264070BD0CED00E000E400E080E100E0FD
:1032600002490143024A1160704700000000FA055C
:103270000CED00E010B500F013F800F0EFFB00F0EB
:1032800017FC00F037FC00F0BFFB00F091FB00F0F2
:10329000CBFC00F06FFC00F095FC00F002F810BDD4
:1032A0007047704706480078012808D10548007823
:1032B000FF2804D203480078401C02490870704778
:1032C00006020020F901002010B500241A480078F9
:1032D000012830D1FCF7CAFF04461848007820B115
:1032E00016480078401E1549087014480078F8B94F
:1032F00013480078E0B900F0F9FC12481249097847
:1033000050F82100114908600F48007810490978E9
:1033100088420DD00D480068806B401C0B4909683D
:1033200088630C480068401C0A490860FCF7BDFF30
:103330002046FCF79FFF10BD06020020F901002087
:10334000FA01002038CA0020FC01002014020020ED
:10335000FB010020E001002010B500240B4800789C
:10336000012811D1FCF782FF04460948007840B9D2
:1033700008480078FF2804D206480078401C054918
:1033800008702046FCF776FF10BD00000602002002
:10339000F9010020FA01002010B50024134800783C
:1033A000012821D1FCF762FF044611480078C0B122
:1033B0000F480078401E0E4908700846007860B932
:1033C0000C48007828B92046FCF754FF00F054FC64
:1033D0000AE02046FCF74EFF06E02046FCF74AFFD5
:1033E00002E02046FCF746FF10BD00000602002068
:1033F000FA010020F901002010B50B48007890B9BF
:1034000000F074FC09480078094908700948074928
:10341000097850F821000849086008460068074903
:103420000860FCF72AFF10BD06020020FC01002006
:10343000FB01002038CA0020140200200C020020EA
:10344000704700002DE9FE4F06460F4690461C4689
:103450004FF00009FCF70AFF81461F48007828B1A9
:103460004846FCF707FF3C20BDE8FE8F1B4850F89C
:10347000240060BB0120194941F824004846FCF7AC
:10348000F9FE002342463946304600F009F98246EB
:1034900000200090019003460246514602902046CB
:1034A00000F03AFC054635B90D48007801280CD1EA
:1034B00000F0E2FB09E0FCF7D9FE81460020074955
:1034C00041F824004846FCF7D5FE2846CCE748469C
:1034D000FCF7D0FE2820C7E7F901002038CA0020F9
:1034E000060200202DE9F04F85B081468A469346BA
:1034F0001C46DDE90F78129D00200390FCF7B6FE14
:1035000003902348007830B10398FCF7B3FE3C20C9
:1035100005B0BDE8F08F1F4850F8240088BB01209B
:103520001C4941F824000398FCF7A4FE2A464146B2
:10353000384600F001FD2B465A465146484600F0F9
:10354000AFF804901198CDE9008002953A462046E4
:103550000E9B049900F0E0FB064636B90E48007851
:1035600001280CD100F088FB09E0FCF77FFE0390F6
:103570000020084941F824000398FCF77BFE304600
:10358000C6E7FFE70398FCF775FE2820C0E70000B8
:10359000F901002038CA0020060200207047704759
:1035A0002DE9F04106460F4614464FF00008154835
:1035B000007818B112202070BDE8F081FCF756FEAB
:1035C0008046FF2E03D11048006890F832600F4803
:1035D00050F826502DB94046FCF74CFE4320207091
:1035E000EAE7012D05D14046FCF744FE4320207058
:1035F000E2E7EF644046FCF73DFE0020207000BF8C
:10360000DAE70000F90100200C02002038CA00208F
:10361000704700002DE9F04707460D464FF0000ABD
:10362000002028606860FCF721FE8246FF2F03D14E
:103630001948006890F83270184850F827402CB9A3
:103640005046FCF717FE4320BDE8F087012C04D15B
:103650005046FCF70FFE4320F6E7207C00F0010007
:1036600020B95046FCF706FE4520EDE70026D4F8C9
:103670000C90D4F808805046FCF7FCFD00E0761C66
:1036800058F8041B0029FAD0B0002860A9EB060006
:10369000800068600020D7E70C02002038CA0020B4
:1036A00070B5044610464FF080750560051F28462A
:1036B0002C606FF00106051F28462E604FF0123671
:1036C000051F28462E604FF00336051F28462E6042
:1036D0004FF00236051F28462E607610051F28463B
:1036E0002E60051F284629604FF01136051F284619
:1036F0002E604FF01036051F28462E604FF0093619
:10370000051F28462E604FF00836051F28462E60FC
:103710004FF00736051F28462E604FF00636051F6E
:1037200028462E604FF00536051F28462E604FF0C4
:103730000436051F28462E6070BD00002DE9F041BB
:1037400005464FF00008FCF791FD8046FF2D05D19E
:103750002048006890F83250012608E01D480068B3
:1037600090F83200A84201D1012600E000261A4854
:1037700050F825402CB94046FCF77CFD4820BDE8B8
:10378000F081012C04D14046FCF774FD4320F6E79C
:1037900094F834701148C05D94F8351088430F498F
:1037A000C8550846C05D30B994F836100C4800780A
:1037B00088430B49087094F8300040F0080084F802
:1037C00030004046FCF756FD012E01D100F054FABE
:1037D0000020D4E70C02002038CA0020FE0100209F
:1037E000FD0100207047000070B50546002617480F
:1037F000007800B170BD1648007800B1FAE71DB33B
:10380000FCF734FD06461348006890F8344012482F
:10381000005D1049096891F8351088430E49085534
:103820000846005D40B90B48006890F836100B4818
:10383000007888430949087006480068C562304628
:10384000FCF718FD00F018FA00BFD3E7F9010020DB
:10385000FA0100200C020020FE010020FD010020E2
:103860002DE9F04104460D4616461F4612480078E1
:1038700010B15520BDE8F0811048007808B1322021
:10388000F8E7B81CC82148434FF47A71B0FBF1F156
:103890004FF461606043C5EB051200EB82003044D9
:1038A00000EBC00202EB001001EBC0084046FFF73E
:1038B0009BFF0020DEE70000F9010020FA01002054
:1038C00070B5002600F072F8FCF7D0FC06463148CF
:1038D0000068401C2F4908603046FCF7CBFC2E489E
:1038E0000078012853D12D48007820B1012804D058
:1038F000022809D103E001250BE0002509E001259C
:1039000001202649087004E00125002023490870A1
:1039100000BF00BF05B970BD2148046833E0FCF763
:10392000A5FC0646E06A50B3E06A401EE062E06A29
:1039300028BB94F8300000F0370040B114F8300F85
:1039400000F0C800207001206070303C02E00020D0
:1039500084F8310094F8300000F0080078B934346D
:10396000A0781049097808430E49087020780E495C
:10397000085C6178084314F834190B4A50546469A0
:103980003046FCF777FC94F832003F28C7D100BFDF
:10399000C1E7000024020020060200201C020020D3
:1039A00018020020FD010020FE01002070470000E9
:1039B0002DE9F0415021114800F02CF900250DE0CF
:1039C000681C86B20D4800EB051400EB06170020BA
:1039D000207067600AA0E060681C85B2042DEFD3F8
:1039E000064800EB051400202070606004A0E06031
:1039F000024804490860BDE8F0810000E8C50020E5
:103A00003F000000E801002070B5C821114800F017
:103A100001F900230FE0581C85B203EB83000D4928
:103A200001EB800405EB850001EB8006002020708F
:103A30006660581C83B2092BEDD303EB8300054964
:103A400001EB800400202070606008460249086095
:103A500070BD000020C50020E401002000200A49BC
:103A600008600A4908700A4908700A4908700A493A
:103A700008700A4908600A4908600A4908600A494A
:103A800008600A490870704724020020F9010020EC
:103A9000FA0100200702002006020020E0010020B9
:103AA00008020020F4010020F0010020F8010020AD
:103AB00000210A4A1170002004E00021084A115434
:103AC000411CC8B20828F8D30021064A1170064AE2
:103AD0001170064A1160064A11607047FD0100200E
:103AE000FE010020FB010020FC0100201402002048
:103AF0000C02002070B54FF47C71194800F08AF870
:103B00004FF48071174800F085F8002413E0601C22
:103B1000C5B2C4EBC40000EB4000114901EB8003C7
:103B2000C5EBC50000EB400001EB80065E610EA016
:103B3000D864601CC4B20B2CE9D3C4EBC40000EB06
:103B40004000074901EB80030020586106A0D864BB
:103B500000200649086002480549086070BD000061
:103B600038CB002038CA00203F0000001802002097
:103B70001002002000B587B00320002180220A4BEC
:103B8000CDE90132CDE903104FF6FF703F23074A1C
:103B900000900748FFF7A6FC06AA06A13F20FFF702
:103BA000FFFC07B000BD000038C8002034CA002068
:103BB0004D3E000875432F4F532D49492049646CF1
:103BC0006500000000B587B00320002180220A4B69
:103BD000CDE90132CDE903104FF6FE703E23074ACE
:103BE00000900748FFF77EFC06AA06A13E20FFF7DB
:103BF000D7FC07B000BD000038C6002034C8002044
:103C0000753E000875432F4F532D49492053746169
:103C10007400000004E0002200F8012B4A1E91B25B
:103C20000029F8D1704700002DE9F04178211048B3
:103C3000FFF7F0FF00240DE0601C86B204EB4400A7
:103C40000B4901EBC00506EB460001EBC0072F60F6
:103C5000601C84B2042CEFD304EB4400044901EB54
:103C6000C00500202860084602490860BDE8F081D0
:103C700028CF00202002002010B50024FCF7F6FA1F
:103C8000044613480078F8B912480078E0B900F00B
:103C90002DF811481149097850F8210010490860A1
:103CA0000E4800780F49097888420DD00C4800680A
:103CB000806B401C0A49096888630B480068401CF7
:103CC00009490860FCF7EAFA2046FCF7D3FA10BD70
:103CD000F9010020FA01002038CA0020FC01002070
:103CE00014020020FB010020E00100200649074AE1
:103CF0001278885C0649095C034A515C01EBC001FB
:103D0000044A11707047000018830008FD0100206C
:103D1000FE010020FC0100202DE9F84F05460F466A
:103D200090469946DDE90AAB00200090FCF79EFA28
:103D300000903F480468002C74D0183454F8040CE8
:103D40003B4908600098FCF795FA44F8187CA57682
:103D5000002020766076606144F814BC44F80CAC16
:103D600044F8108C0C9824F8080C24F8069C0020C9
:103D7000E077E810207705F00700E076217F01204A
:103D80008840A077E17E0120884060770020606055
:103D9000E060A0602062A0626062E062206325A013
:103DA0006063183C002606E0002104F1500040F852
:103DB0002610701CC6B2002EF6D02046FFF740FB3E
:103DC0002046FFF7EBFBFCF751FA00901A4840F849
:103DD00025401A48006860610020A061174800680B
:103DE00010B1164800688461144804603434A07827
:103DF0001349097808431249087020781149085C72
:103E00006178084314F834190E4A50540E4800786B
:103E1000401C0D4908700098FCF72CFA0020BDE802
:103E2000F88FFFE70098FCF725FA4220F7E700003B
:103E3000100200203F00000038CA002018020020B5
:103E4000FD010020FE01002007020020002400BF29
:103E500000BFFCF70BFA044605480068401C044903
:103E600008602046FCF706FAFFF799FBF1E700002F
:103E700008020020002400BF02E02820FFF7B4FC65
:103E8000194800780028F8D0184800686421B0FB71
:103E9000F1F0164908600846006828B90020144966
:103EA0000870FF20FFF74AFC00BFFCF7DFF904466B
:103EB000104800681049086000200E49086020463C
:103EC000FCF7D8F90C48006808490968B0FBF1F024
:103ED000C0F1640006490870FFF79AFB00F00EF885
:103EE0001420FFF781FCE0E7F8010020F00100203A
:103EF000EC01002008020020F40100207CB5002520
:103F000014E069462846FFF785FB064666B909486E
:103F100050F8254044B1012C06D0D4E9020100EB51
:103F2000810060640198A064681CC5B23F2DE8D987
:103F30007CBD000038CA002002F0010343B102F04A
:103F400002032BB102E0491E002308C00029FAD168
:103F5000704700002DE9FC474FF0000A01F058FCC3
:103F60000FFA80FAAAF5CD700FFA80FABAF1000FB5
:103F700017DD504603F092FC064600220A4B03F080
:103F800035FB04460022094B03F0A0FC80460022CA
:103F9000074B03F09BFCCDE9000103F0F5FABDE807
:103FA000FC870020FBE700000000B0400000F43F69
:103FB00000408F4010B501F043FC10BD70B50646BF
:103FC0000C461546FEF7B2FF3046FEF77BFFFEF7C4
:103FD000F9FF2046FEF776FFFEF7F4FF2846FEF7CE
:103FE00071FFFEF7EFFFFEF7C7FF012070BD000075
:103FF00010B516480078164908700120134908705A
:10400000144802F0FAF9144802F0F7F9134802F0E4
:10401000F4F9134802F0F1F9124802F0EEF91248EF
:1040200002F0EBF9114800781049C8751048007883
:104030000F4948760F4800780E4981F824000E4851
:1040400000780D4981F8270010BD0000EC03002026
:10405000ED030020180000209800002058000020E8
:10406000D80000201801002058010020680300201B
:10407000800300209C030020C40300200146002090
:10408000034A506820F440400843506070470000E5
:104090000010024029B1064AD2690243044BDA619A
:1040A00004E0034AD2698243014BDA6170470000A1
:1040B0000010024029B1064A92690243044B9A61FA
:1040C00004E0034A92698243014B9A617047000001
:1040D0000010024029B1064AD2680243044BDA605C
:1040E00004E0034AD2688243014BDA607047000063
:1040F0000010024030B500210022002400232D4D85
:104100006D6805F00C0121B1042905D0082923D1DF
:1041100005E0294D056022E0274D05601FE0254D93
:104120006D6805F47012234D6D6805F48034022526
:1041300005EB92421CB9214D554305600BE01D4D26
:104140006D6805F400351DB11C4D5543056002E056
:10415000194D5543056002E0174D056000BF00BFD3
:10416000144D6D6805F0F0010909154D6B5C05688B
:10417000DD4045600F4D6D6805F4E061090A104DA2
:104180006B5C4568DD4085600A4D6D6805F46051E3
:10419000C90A0B4D6B5C4568DD40C560054D6D6817
:1041A00005F44041890B074D6B5CC568B5FBF3F521
:1041B000056130BD0010024000127A0000093D0088
:1041C000CC010020DC01002008B501214020FFF7D0
:1041D00071FF3C20ADF8000010208DF80300032093
:1041E0008DF8020069460848FEF71AF900200749D1
:1041F00008600749C1F88C01044908310860044986
:10420000C1F8940108BD0000001801408801234254
:1042100000002342704710B500F002F810BD000006
:104220000CB50020019000903348006840F48030C5
:104230003149086000BF3048006800F40030009049
:104240000198401C0190009818B90198B0F5A06F32
:10425000F1D12948006800F4003010B1012000902D
:1042600001E0002000900098012843D12348006815
:1042700040F01000214908600846006820F0030063
:1042800008600846006840F0020008601A4840686C
:10429000194948600846406848600846406840F44C
:1042A000806048600846406820F47C1048600846FA
:1042B000406840F4E81048600846006840F08070AC
:1042C000086000BF0C48006800F000700028F9D0BA
:1042D0000948406820F003000749486008464068E4
:1042E00040F00200486000BF0348406800F00C0046
:1042F0000828F9D10CBD0000001002400020024047
:1043000018B10121034A116002E00021014A116045
:10431000704700008C812142042808D14FF0E02131
:10432000096941F004014FF0E022116107E04FF00C
:10433000E021096921F004014FF0E022116170478A
:1043400010B505480078012805D1FEF7ABFFFFF74F
:10435000B7FAFEF7B9FF10BD0602002010B51348EA
:10436000006840F0010011490860084640681049A3
:1043700008400E494860084600680E4908400B494D
:1043800008600846006820F48020086008464068FD
:1043900020F4FE0048604FF41F008860FFF73BFFE9
:1043A0004FF000600449086010BD0000001002409A
:1043B0000000FFF8FFFFF6FE08ED00E010B58AB040
:1043C00004460121C802FFF775FE01210420FFF712
:1043D00071FE01210846FFF76DFE01213148FEF70D
:1043E000ABF8314890FBF4F0304988854FF4807089
:1043F000ADF8240018208DF8270003208DF8260042
:1044000009A92B48FEF70CF84FF47A70ADF81C00A0
:10441000601E80B2ADF818000020ADF81E00ADF8A7
:104420001A008DF8200006A9224800F0B5FF0122ED
:104430001146204800F04AFF01211E4800F008FF05
:104440007020ADF808000020ADF810000120ADF894
:104450000A004FF4FA70ADF80E0002A9154800F0FA
:104460003FFF0821134800F087FF0121114800F0A9
:10447000E3FE19208DF8040002208DF805000020CD
:104480008DF8060001208DF8070001A8FEF7B0FEA8
:104490000121084800F0EEFE0021064800F0DEFE93
:1044A0000AB010BD0002300000A24A04180000202B
:1044B00000080140002C014010B501214E4800F0D9
:1044C000F4FE002846D001214B4800F0C4FE4B48C2
:1044D000807828B94948406A401C4849486204E04D
:1044E0004648406A401E454948624448806A401C2C
:1044F00042498862084640694149896A884207D131
:1045000000213D4800F0AAFE00203C49487010BD43
:104510003A48807801280CD13A480068012808D12F
:104520000021354800F09AFE002034494862487066
:10453000EDE73248407802280DD13048C1882E4836
:1045400000F023FF2D48C48804EBD47041102A48A2
:1045500000F01DFF4DE02948806A2849C96988425A
:1045600015D82648006B254A926A30F81210224866
:1045700000F00BFF2148006B204A926A30F812408D
:1045800004EBD47041101C4800F001FF31E01B48DF
:1045900040691A49C969401A1849896A88421BD872
:1045A00016484069154A926A801A144A126B32F80A
:1045B0001010114800F0E9FE104840690F4A926A55
:1045C000801A0E4A126B32F8104004EBD47041107E
:1045D000094800F0DCFE0CE00848C188064800F0FD
:1045E000D4FE0648C48804EBD4704110024800F0A1
:1045F000CEFE00BF8BE70000002C01401800002019
:10460000180100202001234210B50221480700F0C4
:104610004CFE00286FD00221480700F01CFE6B48BA
:104620000078401C69490870087800EBD071491087
:10463000A0EB4101654A11701046007800BB644848
:10464000807828B96248406A401C6149486204E0A9
:104650005F48406A401E5E4948625D48806A401C6F
:104660005B49886208464069896A884208D100210E
:104670004FF0804000F0F2FD00205549487010BD19
:104680005348806960B953480068012808D1002167
:10469000800700F0E3FD00204D4948704862EEE7D6
:1046A0004B4880694C49096988420FD14948001D2F
:1046B000006801280AD10021800700F0CFFD00200A
:1046C00043494870444800694862D8E740488069D7
:1046D0004149496988420FD14048006801280BD1FF
:1046E0000021800700F0BAFD0020394948703A489F
:1046F00040694862C3E767E035484078022811D135
:104700004007808C3249C98808444FF6FF7190FBFE
:10471000F1F201FB120084B221464FF0804000F01C
:1047200036FE51E02A48806A2949C969884216D86C
:104730002748006B2649896A30F811004FF0804104
:10474000898C08444FF6FF7190FBF1F201FB1200D7
:1047500084B221464FF0804000F019FE34E01C483E
:1047600040691B49C969401A1949896A884219D8A0
:10477000174840691649896A401A1549096B31F88A
:1047800010004FF08041898C08444FF6FF7190FB78
:10479000F1F201FB120084B221464FF0804000F09C
:1047A000F6FD11E04FF08040808C0949C98808442B
:1047B0004FF6FF7190FBF1F201FB120084B221462B
:1047C0004FF0804000F0E3FD00BF58E7AA01002051
:1047D0001801002038012342C40300201481224222
:1047E00010B58AB0044601210846FFF753FC0121A9
:1047F0000520FFF75FFC01212F48FDF79DFE0121F9
:104800002E48FDF799FE2E4890FBF4F02D4988853F
:104810004FF40040ADF8040018208DF80700032085
:104820008DF8060001A92848FDF7FAFD4FF6FF7044
:10483000ADF82000601E80B2ADF81C000020ADF87D
:104840002200ADF81E0007A94FF0804000F0A4FD43
:104850003020ADF80C004FF4FA70ADF812000120D2
:10486000ADF80E000020ADF814004FF48070ADF8E4
:1048700018000020ADF81A0003A94FF0804000F0A6
:104880002FFD00214FF0804000F076FD0122022133
:10489000480700F01BFD1C208DF8080002208DF851
:1048A000090000208DF80A0001208DF80B0002A8F5
:1048B000FEF79EFC0AB010BD000318000002300095
:1048C00000512502180100200008014010B5022106
:1048D000574800F0EAFC002858D00221544800F064
:1048E000BAFC54480078401C52490870087800EB24
:1048F000D0714910A0EB41014E4A1170104600786A
:10490000F8B94D48807828B94B48406A401C4A495C
:10491000486204E04848406A401E474948624648A9
:10492000806A401C4449886208464069896A884216
:1049300007D100213E4800F091FC00203E4948701C
:1049400010BD3D48806960B93C480068012808D125
:104950000021374800F082FC002037494870486247
:10496000EEE735484078022811D1314824300088DC
:104970003149C98808444FF6FF7190FBF1F201FB01
:10498000120084B221462A4800F001FD4DE02A4879
:10499000806A2949C969884215D82748006B264989
:1049A000896A30F8110022492431098808444FF6F9
:1049B000FF7190FBF1F201FB120084B221461C480A
:1049C00000F0E5FC31E01C4840691B49C969401A08
:1049D0001949896A884217D8174840691649896A6F
:1049E000401A1549096B31F8100015490988084427
:1049F0004FF6FF7190FBF1F201FB120084B22146E9
:104A00000B4800F0C4FC10E00948243000880A4933
:104A1000C98808444FF6FF7190FBF1F201FB1200C8
:104A200084B22146024800F0B2FC00BF88E70000D3
:104A300000040040AB010020980000203001234218
:104A4000242C014010B58AB0044601210220FFF752
:104A500021FB01210520FFF72DFB274890FBF4F0F7
:104A6000264988854020ADF8040018208DF80700FD
:104A700003208DF8060001A92148FDF7D1FC4FF66F
:104A8000FF70ADF82000601E80B2ADF81C00002061
:104A9000ADF82200ADF81E0007A91A4800F07CFC12
:104AA0003020ADF80C004FF4FA70ADF81200012080
:104AB000ADF80E000020ADF8140003A9114800F075
:104AC0000FFC00210F4800F057FC012202210D4885
:104AD00000F0FCFB1D208DF8080002208DF8090075
:104AE00000208DF80A0001208DF80B0002A8FEF7C7
:104AF0007FFB0AB010BD0000005125029800002085
:104B0000000801400004004010B50221584800F0A0
:104B1000CCFB002859D00221554800F09CFB554899
:104B20000078401C53490870087800EBD071491098
:104B3000A0EB41014F4A117010460078F8B94E4879
:104B4000807828B94C48406A401C4B49486204E0D0
:104B50004948406A401E484948624748806A401CAC
:104B60004549886208464069896A884207D1002120
:104B70003F4800F073FB00203F49487010BD3F489C
:104B8000006801280CD13C488078012808D1002118
:104B9000374800F063FB0020374948704862EDE772
:104BA00035484078022811D13148243000883249F4
:104BB000C98808444FF6FF7190FBF1F201FB120027
:104BC00084B221462A4800F0E2FB4EE02A48806A7F
:104BD0002949C969884215D82748006B2649896A3E
:104BE00030F8110022492431098808444FF6FF713A
:104BF00090FBF1F201FB120084B221461C4800F048
:104C0000C6FB32E01C4840691B49C969401A1A4971
:104C1000896A884218D8184840691749896A401A31
:104C20001549096B31F810001149243109880844ED
:104C30004FF6FF7190FBF1F201FB120084B22146A6
:104C40000B4800F0A4FB10E00948243000880A4912
:104C5000C98808444FF6FF7190FBF1F201FB120086
:104C600084B22146024800F092FB00BF86E70000B4
:104C700000080040AC0100205801002018812242A9
:104C800010B58AB0044601210420FFF703FA012180
:104C90000920FFF70FFA274890FBF4F02649888592
:104CA0004020ADF8040018208DF8070003208DF88F
:104CB000060001A92148FDF7B3FB4FF6FF70ADF8E0
:104CC0002000601E80B2ADF81C000020ADF822006C
:104CD000ADF81E0007A91A4800F05EFB3020ADF8C1
:104CE0000C004FF4FA70ADF812000120ADF80E0080
:104CF0000020ADF8140003A9114800F0F1FA0021DA
:104D00000F4800F039FB012202210D4800F0DEFAC5
:104D10001E208DF8080002208DF8090000208DF873
:104D20000A0001208DF80B0002A8FEF761FA0AB014
:104D300010BD00000051250258010020000C014068
:104D40000008004010B50221574800F0AEFA0028D4
:104D500059D00221544800F07EFA54480078401C93
:104D600052490870087800EBD0714910A0EB41015E
:104D70004E4A117010460078F8B94D48807828B92D
:104D80004B48406A401C4A49486204E04848406A2F
:104D9000401E474948624648806A401C4449886230
:104DA00008464069896A884207D100213E4800F0E0
:104DB00055FA00203E49487010BD3D4880780128D2
:104DC0000CD13C480068012808D10021364800F089
:104DD00045FA0020364948704862EDE7344840788B
:104DE000022811D13048243000883149C98808444C
:104DF0004FF6FF7190FBF1F201FB120084B22146E5
:104E0000294800F0C4FA4DE02948806A2849C96958
:104E1000884215D82648006B2549896A30F8110068
:104E200021492431098808444FF6FF7190FBF1F2C3
:104E300001FB120084B221461B4800F0A8FA31E0C1
:104E40001B4840691A49C969401A1949896A884248
:104E500017D8174840691649896A401A1449096BDE
:104E600031F810001449098808444FF6FF7190FB8F
:104E7000F1F201FB120084B221460B4800F087FAE0
:104E800010E00948243000880949C98808444FF6D1
:104E9000FF7190FBF1F201FB120084B2214602483F
:104EA00000F075FA00BF87E7000C0040AD0100205C
:104EB000580000202C0123422408004010B58AB07D
:104EC000044601210820FFF7E5F801210520FFF73E
:104ED000F1F8274890FBF4F0264988850120ADF8C9
:104EE000040018208DF8070003208DF8060001A9A2
:104EF0002148FDF795FA4FF6FF70ADF82000601ECF
:104F000080B2ADF81C000020ADF82200ADF81E0004
:104F100007A91A4800F040FA3020ADF80C004FF411
:104F2000FA70ADF812000120ADF80E000020ADF8C7
:104F3000140003A9114800F0D3F900210F4800F034
:104F40001BFA012202210D4800F0C0F932208DF831
:104F5000080002208DF8090000208DF80A000120C9
:104F60008DF80B0002A8FEF743F90AB010BD00004F
:104F7000005125025800002000080140000C0040AC
:104F800010B501210D4800F090F9B0B101210B4896
:104F900000F061F90A480078012808D0FCF792FD7A
:104FA000FCF770FBFDF708FEFDF7ECF905E005489E
:104FB000007810B103200249087010BD00100040B5
:104FC000EC030020EE03002010B501210A4800F098
:104FD0006CF901280AD1094908698047002106486F
:104FE00000F0D7F96421044800F0CFF9012102480C
:104FF00000F031F910BD00000014004074020020E0
:1050000010B58AB0044601214803FFF753F8012187
:105010001020FFF74FF801210846FFF74BF8304802
:1050200090FBF4F02F4988854020ADF8240018202B
:105030008DF8270003208DF8260009A92A48FDF7DE
:10504000EFF94FF47A70ADF81C00601E80B2ADF835
:1050500018000020ADF81E00ADF81A008DF82000F1
:1050600006A9224800F098F9012211461F4800F0D5
:105070002DF901211D4800F0EBF87020ADF8080073
:105080000020ADF810000120ADF80A004FF4FA70CE
:10509000ADF80E0002A9154800F022F908211348C6
:1050A00000F06AF90121114800F0C6F82C208DF8B3
:1050B000040002208DF8050000208DF80600012074
:1050C0008DF8070001A8FEF793F80121074800F0CA
:1050D000D1F80021054800F0C1F80AB010BD000069
:1050E00000A24A04D8000020001001400034014012
:1050F00010B501214C4800F0D8F8002845D0012116
:10510000494800F0A8F84948807828B94748406ADB
:10511000401C4649486204E04448406A401E4349F6
:1051200048624248806A401C40498862084640699B
:10513000896A884207D100213B4800F08FF800209F
:105140003A49487010BD3948807801280CD1384858
:105150000068012808D10021334800F07FF80020C2
:10516000324948704862EDE73048407802280DD156
:105170003048C1882C4800F008F92E48C48804EB58
:10518000D4704110284800F002F94AE02748806AAC
:105190002649C969884215D82448006B234A926A77
:1051A00030F81210204800F0F0F82048006B1F4A39
:1051B000926A30F8124004EBD47041101A4800F0A3
:1051C000E6F82EE0194840691849C969401A17499C
:1051D000896A884218D815484069144A926A801A28
:1051E000124A126B32F810100F4800F0CEF80F4838
:1051F00040690E4A926A801A0C4A126B32F81010FB
:10520000094800F0C4F80CE00A48C188064800F0DC
:10521000BCF80848C48804EBD4704110024800F080
:10522000B6F800BF8EE7000000340140D80000202F
:10523000340123425800002021B1028842F080024C
:10524000028004E002884FF67F731A4002807047A4
:10525000CA4302827047CA430282704721B1028862
:1052600042F00102028004E002884FF6FE731A4009
:105270000280704731B1B0F8442042F40042A0F8F7
:10528000442005E0B0F84420C2F30E02A0F8442008
:1052900070470146888C704702460020138A0B40F5
:1052A0000BB1012000E00020704730B5024600201D
:1052B00000230024158A05EA0103958905EA010403
:1052C00013B10CB1012000E0002030BD1AB1838978
:1052D0000B43838102E083898B4383817047000005
:1052E00070B5002400220023058C4FF6FE76354071
:1052F0000584028C8388048B4FF68F752C40B51E75
:105300002C400D882C43751E2A400D892A434D8858
:105310002A43144DA8420BD0134DA84208D0134D78
:10532000A84205D0124DA84202D0124DA84213D176
:105330004FF6F7752A404D892A434FF6FB752A40F0
:105340008D882A434FF6FF652B404FF6FF552B40C3
:105350008D892B43CD892B4383800483CD8885861B
:10536000028470BD002C0140003401400040014027
:1053700000440140004801400A460021018B4FF6DD
:10538000F773194011430183704781857047818607
:105390007047818470470000002202881D4B9842AC
:1053A0000ED01D4B98420BD0B0F1804F08D01B4B54
:1053B000984205D01A4B984202D01A4B984204D119
:1053C0004FF68F731A404B881A43174B984207D0F9
:1053D000164B984204D04FF6FF431A40CB881A432D
:1053E00002808B8883850B8803850A4B98420BD0FB
:1053F000094B984208D00E4B984205D00D4B98426D
:1054000002D00D4B984201D10B7A0386012383828F
:1054100070470000002C01400034014000040040AF
:1054200000080040000C0040001000400014004044
:10543000004001400044014000480140104800780D
:1054400050B91048007838B90F48007820B90F4893
:10545000007808B9012070470948007807280DD165
:10546000084800780C2809D1074800780D2805D194
:10547000064800780C2801D10120ECE70020EAE77B
:1054800068030020800300209C030020C403002048
:105490001FB501211020FEF7FDFD0920ADF8080021
:1054A00041F61F40ADF804000020ADF80A00ADF849
:1054B000060001A93048FFF76FFF012211462E4870
:1054C000FFF704FF36208DF8000002208DF8010060
:1054D00003208DF8020001208DF803006846FDF7D7
:1054E00087FE01212448FFF7B9FE2448D0F88C003C
:1054F000234908612148D0F88800C8601F48B0F8E7
:105500004000204908821D48B0F8420048821B48EC
:10551000806C48611948B0F85E001B49C881174883
:10552000B0F85C0088811548B0F860000882134824
:10553000806E48611148C06E88611048006FC86174
:105540000E48B0F8740008840C4890F8760081F892
:1055500022000A48406D0D4948610848006D086105
:105560000648806F88610548C06FC8610348D0F85D
:10557000800008621FBD000000100040F00C0020F9
:1055800068030020800300209C030020C403002047
:1055900010B5FDF787FE40F225511E4800F04CF88B
:1055A00010B31C4800F004F9C4B21B48008800F492
:1055B0000040C8B91848008800F4804060B10A2C47
:1055C00003D000201449088020E01348008840F4EC
:1055D00000401149088019E00D2C06D10E480088C2
:1055E00040F480400C49088010E00B480088C0F36C
:1055F0000D000A490C5408480088401C06490880E0
:1056000008460088C72801DD00200880FDF75CFE01
:1056100010BD000000380140A8010020840D0020CA
:1056200021B1828942F40052828104E082894DF6E0
:10563000FF731A408281704770B502460024002330
:105640000025002040F66A16B14200D100BFC1F328
:10565000421501F01F03012606FA03F3012D02D1C2
:105660009689334006E0022D02D1168A334001E0CC
:10567000968A33400C12012606FA04F41688344048
:1056800013B10CB1012000E0002070BDF0B503465D
:10569000002400260025002040F66A17B94200D1F8
:1056A00000BF1846C1F3421401F01F06012707FA94
:1056B00006F5012C01D10C3004E0022C01D1103090
:1056C00000E014301AB107682F43076002E0076852
:1056D000AF430760F0BD00002DE9F04786B00546F6
:1056E0000E460024A24600BFA1460027B08900B1A3
:1056F00000BF2F462C8A4CF6FF700440F08804430C
:105700002C82AC894EF6F3100440B08831890843EE
:10571000718908430443AC81AC8A4FF6FF400440D2
:10572000B0890443AC8201A8FEF7E4FC1F4887421D
:1057300002D1DDF810A001E0DDF80CA0A88900F48A
:10574000004040B10AEBCA0000EB0A103168490082
:10575000B0FBF1F807E00AEBCA0000EB0A10316871
:105760008900B0FBF1F86420B8FBF0F004012009D7
:10577000642101FB1089A88900F4004040B1322067
:1057800000EBC900B0FBF1F000F00700044308E0B3
:10579000322000EB09106421B0FBF1F000F00F00A3
:1057A00004432C8106B0BDE8F087000000380140BA
:1057B00001468888C0F30800704700BFFEE741003B
:1057C000080218BF04200A0E18BF40F001004FF075
:1057D0007F4232EA010108BF40F00200012808BF01
:1057E00005207047012102F04CBD61214FF0E040DF
:1057F00002F047BD6FF05E01080702F042BD30388D
:105800000A2801D2012070470020704700BF70476E
:1058100010B5072301220D210848FBF771F801217B
:105820000648FBF7CEF800BF02210448FBF72CF82E
:105830000028F9D00148FBF723F810BD00280140EB
:1058400000B587B001214FF48260FEF733FC0820D9
:10585000ADF8040000208DF8070003208DF8060045
:1058600001A91A48FCF7DCFD4FF40040FEF706FCE6
:105870001748FAF7CDFF002002908DF80C008DF844
:105880000D004FF4602004900020059001208DF859
:10589000180002A90E48FBF70BF801210C48FAF793
:1058A000ABFF0B48FBF788F800BF0948FAF7F5FF94
:1058B0000028FAD10648FBF78FF800BF0448FAF732
:1058C000D5FF0028FAD107B000BD0000001001404C
:1058D0000028014005480068012805D104484068B7
:1058E000407808B9012070470020FCE730012342CE
:1058F0008003002010B56FF00400FEF70DFD104886
:1059000000681049B0FBF1F00F4908700C480068BE
:105910000C49B0FBF1F441F28830444305200B49B7
:1059200008804FF0E020006940F002004FF0E021D5
:10593000086108464461006940F00100086110BD3B
:105940000000002000127A00A0010020A201002027
:1059500070B504460F480078A0B10F48007888B9A8
:105960000E480088844206DB0C48008894FBF0F562
:10597000284600F01DF80948008894FBF0F100FB70
:10598000114084B24FF47A7104FB01F000F016F874
:1059900070BD000006020020F9010020A2010020D5
:1059A00010B5FDF7D9FC10BD10B5FDF7F5FC10BD25
:1059B00010B504462046FDF717FF10BD2DE9F0474E
:1059C000074600264FF0E020D0F8149011480078E8
:1059D00007FB00F800BFFFF7E3FF4FF0E020856909
:1059E00011E04FF0E0208469AC420CD0AC4202D20E
:1059F000281B064403E0A9EB04002844064425467E
:105A0000464500D300E0ECE700BFFFF7CDFFBDE85F
:105A1000F0870000A00100202DE9F04104464FF07E
:105A200019404E49002500EB440088424AD84C49B1
:105A3000204602F047FA02F043FB804602F0A6F946
:105A400006464849404602F03DFA07464649404668
:105A500002F038FA214602F063FB394602F06AFB95
:105A60000446424902F02EFA414902F059F8214613
:105A700002F028FA6FF0414102F052F8214602F09C
:105A800021FA3C4902F04CF8214602F01BFA01468B
:105A9000394806F00304784450F8240002F012FA62
:105AA0003649794451F8241002F03AF834497944DF
:105AB00051F8241002F034F8B11085BBBDE8F04174
:105AC00002F0DFBB4FF0FF4131EA040018D04FF085
:105AD000CE41B1EB440F84BF4FF07E50BDE8F08162
