:020000040800F2
:1000000060D500202D020008A52D0008B5290008A4
:10001000C12C0008FB0900086F5100080000000017
:10002000000000000000000000000000413D00084A
:10003000FF09000800000000BB0200086D3E000838
:10004000470200084702000847020008470200086C
:10005000470200084702000847020008470200085C
:10006000470200084702000847020008470200084C
:10007000470200084702000847020008470200083C
:10008000470200084702000847020008470200082C
:10009000470200084702000847020008650B0008F5
:1000A00047020008E53F0008470200084702000831
:1000B00035410008F94300083546000847020008AA
:1000C00047020008470200084702000847020008EC
:1000D00047020008454F0008470200084702000891
:1000E000010A00084702000847020008470200080A
:1000F000F94B0008470200084702000847020008C1
:10010000470200084702000871480008470200083B
:100110004702000847020008AD4A0008D14A00081B
:10012000470200084702000847020008470200088B
:1001300000F002F800F06BF80AA090E8000C82448E
:100140008344AAF10107DA4501D100F060F8AFF26B
:10015000090EBAE80F0013F0010F18BFFB1A43F0A5
:10016000010318475C7B00007C7B00000A444FF0D1
:10017000000C10F8013B13F0070408BF10F8014B06
:100180001D1108BF10F8015B641E05D010F8016B4B
:10019000641E01F8016BF9D113F0080F1EBF10F8AF
:1001A000014BAD1C0C1B09D16D1E58BF01F801CBD2
:1001B000FAD505E014F8016B01F8016B6D1EF9D555
:1001C0009142D6D37047000000230024002500266A
:1001D000103A28BF78C1FBD8520728BF30C148BFAA
:1001E0000B607047642900F0F980752900F0F680F3
:1001F000782900F02F81632900F08E82732900F0A6
:100200009382002070471FB51FBD10B510BD00F0D0
:10021000C5FA1146FFF7F7FF05F0BCF900F0E3FA65
:1002200003B4FFF7F2FF03BC04F0CAFF094880479C
:1002300009480047FEE7FEE7FEE7FEE7FEE7FEE7C8
:10024000FEE7FEE7FEE7FEE704480549054A064BE0
:1002500070470000893E00083101000860CF00208F
:1002600060D5002060D1002060D10020EFF3108025
:1002700072B6704780F310887047204C204D25607F
:100280004FF0000484F309881E4C4FF001052570DF
:100290001D4C4FF08055256062B6FEE730B41A4C15
:1002A0004FF08055256030BC704730B4164C4FF08D
:1002B0008055256030BC704700BF72B6EFF30980EF
:1002C00028B1203880E8F00F10490968086000B5AF
:1002D0000F4880475DF804EB0E480F490A7802701A
:1002E0000A480E490A680260106890E8F00F203052
:1002F00080F309884EF0040E62B6704720ED00E0EE
:100300000000FFFFFE01002004ED00E004020020D9
:100310009D330008F3010020F40100200C020020AE
:10032000704700000FB4044910B503AA029800F00A
:10033000FFF910BC5DF814FB9C01002070B5044669
:1003400085690068C10601D5302600E02026C00777
:1003500007D070BDD4E9012130469047206A401C87
:1003600020626D1EF6D570BD70B5044685690078B3
:10037000C00707D170BDD4E9012120209047206A31
:10038000401C20626D1EF6D570BD70B50C4605464A
:10039000012A05D02878800600D5EA69002302E00A
:1003A000012305E05B1C934202D2E05C0028F9D1F6
:1003B000A869E618C01AA861286A18442862284665
:1003C000FFF7BCFF04E0D5E9012114F8010B9047C9
:1003D000B442F8D32846FFF7C7FF70BD2DE9F041BE
:1003E0000646002410687529314616A510D0AFF3D3
:1003F0000080002802DA404213A507E031688A072E
:1004000001D512A502E0490704D511A5012401E098
:10041000AFF3008000210A2206F1240709E0B0FBB7
:10042000F2FCB0FBF2F302FB1C00303078541846AB
:10043000491C0028F3D123462A463046BDE8F04146
:1004400000F007B9000000002D0000002B000000A4
:100450002000000070B504460D4621461068AFF339
:1004600000802188090502D50F4A7A4402E00E4A2D
:100470007A440E32002104F1240305E000F00F0657
:100480000009965D5E54491C0028F7D120780023AE
:10049000000704D5702D02D009B102231132204685
:1004A000BDE8704000F0D5B8167700002DE9F05F88
:1004B000894604464FF0000ADFF874B1FB44C0F8E7
:1004C00020A02046E1688847002874D0252806D05F
:1004D000D4E901219047206A401C2062F1E7002600
:1004E0005F462046E16888472028054607DB312D16
:1004F00005D2781910F8200C08B10643F1E7B007CF
:1005000001D526F00406C4F81CA00027C4F818A0E2
:100510002A2D09D0284604F04CFE38B304EB870896
:10052000303DC8F8185019E059F8041B204604EB78
:1005300087029161E1688847012F054618D1E0697B
:10054000002820DA26F020061DE0D8F8180000EB7D
:10055000800005EB40003038C8F818002046E168FC
:100560008847054604F025FE0028EED1012F0AD069
:100570002E2D08D12046E16888477F1C0546022FB2
:1005800046F02006C4DBA069002803DA404246F0AA
:100590000106A061F00701D026F010066C2D0BD0EB
:1005A000682D09D04C2D39D06A2D35D0742D35D019
:1005B0007A2D33D016E038E0E1682F462046884790
:1005C000B842054609D16C2F26D04FF48060E1680F
:1005D000064320468847054604E06C2F1AD04FF4A6
:1005E000807006430DB3A5F14100192802D82035CB
:1005F00046F400664A462946204626604E46FFF7E6
:10060000F1FD80B101280BD0F61D26F0070000F1A6
:10061000080956E74020E4E78020D8E70020D6E725
:1006200006F104094DE7284652E7206ABDE8F09F2D
:10063000EC760000704770477047704710B500F0C7
:100640008DF8006810BD10B5044600F087F804600E
:1006500010BD2DE9F0470D4699469246044600F13B
:1006600024080168880604D5E06921F010012160A2
:1006700000E00120A84201DD471B00E00027A1693E
:100680007A1902EB0900081AA0612078C00602D48A
:100690002046FFF753FE002608E0D4E901211AF8AE
:1006A00006009047206A401C761C20624E45F4DB11
:1006B0002078C0060AD52046FFF740FE06E0D4E9C0
:1006C000012130209047206A401C2062381EA7F18B
:1006D0000107F4DC07E0D4E9012118F80500904790
:1006E000206A401C2062281EA5F10105F3DC20468B
:1006F000FFF73AFE2078000602D50220BDE8F08719
:100700000120FBE710B5436913B1AFF3008001E0AE
:10071000FFF73BFE012010BD127800F124010A70A2
:1007200000224A700122EDE711684FF0FF32E9E73D
:10073000074B70B50D467B4400F019F80446284677
:1007400000F028F810B14FF0FF3070BD204670BDAA
:10075000034E00000048704700CF0020004870475B
:1007600000CF002001694A1C02610878704700B57B
:100770008FB0CDE901310021059105497944CDE9DA
:10078000031011466846FFF791FE0FB000BD000050
:10079000E5FFFFFF007B00F0800070477546FFF724
:1007A000D9FFAE4605006946534620F0070085464E
:1007B00018B020B5FFF748FDBDE820404FF0000617
:1007C0004FF000074FF000084FF0000B21F0070139
:1007D000AC46ACE8C009ACE8C009ACE8C009ACE87C
:1007E000C0098D46704710B50446AFF3008020461F
:1007F000BDE81040FFF714BD21B1826842F001024C
:10080000826003E0826822F001028260704700008B
:1008100010B504461248844208D10121401503F066
:10082000EFF90021601503F0EBF917E00D48844261
:1008300008D10121001503F0E3F90021201503F090
:10084000DFF90BE00848844208D10121C80303F016
:10085000D7F900214FF4004003F0D2F910BD000099
:100860000024014000280140003C014001460020D6
:100870008A6802F004020AB1012000E000207047FB
:100880000146C86C80B270470246002013680B40D6
:100890000BB1012000E000207047014600208A686B
:1008A00002F008020AB1012000E0002070470000B9
:1008B00030B502460020002350680F4C20400D79CF
:1008C0000C6844EA05242043506090680B4C20409B
:1008D000D1E902542C434D7944EA45042043906009
:1008E000D06A20F470000C7C641EE4B2234340EA1A
:1008F0000350D06230BD0000FFFEF0FFFDF7F1FFB6
:10090000F0B504460D4600200021092D11DDE068F8
:10091000A5F10A0606EB4607072606FA07F1884303
:10092000A5F10A0606EB460603FA06F10843E06065
:100930000CE0206905EB4507072606FA07F1884316
:1009400005EB450603FA06F108432061072A0FDA92
:10095000606B561E06EB86071F2606FA07F18843D2
:10096000561E06EB860605FA06F10843606322E090
:100970000D2A0FDA206BD61F06EB86071F2606FA14
:1009800007F18843D61F06EB860605FA06F10843F1
:10099000206310E0E06AA2F10D0606EB86071F2631
:1009A00006FA07F18843A2F10D0606EB860605FA62
:1009B00006F10843E062F0BD816841F00801816002
:1009C000704721B1826842F4A002826003E082682D
:1009D00022F4A00282607047816841F004018160C6
:1009E000704710B502F052F903F084F901F0E4FF0A
:1009F00002F068F902F006F910BD00BFFEE770478B
:100A000010B54FF4806000F061F990B1322004F02D
:100A1000AFFC49480068012807D10021474804F08D
:100A2000A1F900204649486248704FF4806000F008
:100A300047F94FF4006000F049F998B1322004F012
:100A400097FC3D480C300068012807D100213D4843
:100A500004F088F900203C49486248704FF4006077
:100A600000F02EF94FF4805000F030F998B13220A8
:100A700004F07EFC304810300068012807D10021C6
:100A8000324804F06FF900203149486248704FF451
:100A9000805000F015F94FF4005000F017F998B1AC
:100AA000322004F065FC244814300068012807D186
:100AB0000021284804F056F9002027494862487070
:100AC0004FF4005000F0FCF84FF4804000F0FEF8C6
:100AD00098B1322004F04CFC174818300068012807
:100AE00007D10021800704F03DF900201B4948622E
:100AF00048704FF4804000F0E3F84FF4004000F0FD
:100B0000E5F8C0B11548807888B9322004F030FC8F
:100B100009481C300068012809D10021800704F031
:100B200021F90F4800690D494862002048704FF4D0
:100B3000004000F0C5F810BD20012342002C014008
:100B400018000020000C0040580000200004004065
:100B50009800002000340140D80000201801002037
:100B6000BC03002010B5202000F0B0F898B132206E
:100B700004F0FEFB41480068012809D100218007EC
:100B800004F0F0F83E4840693E4948620020487051
:100B9000202000F095F8402000F098F890B1322025
:100BA00004F0E6FB3548001D0068012807D100214C
:100BB000354804F0D7F80020344948624870402096
:100BC00000F07EF8802000F081F8A0B1322004F01F
:100BD000CFFB2A4808300068012806D000212A48A7
:100BE00004F0C0F800202949487029A0FFF79AFBBB
:100BF000802000F065F84FF4807000F067F8E0B1F5
:100C000027A0FFF78FFB2A480078042811DB28482B
:100C1000007806280DDC322004F0AAFB2548006885
:100C2000012806D10021244804F09CF80020234923
:100C300048704FF4807000F043F84FF4007000F0FB
:100C400045F8D0B11A480078042812DB184800781B
:100C500006280EDC322004F08BFB1648001F0068CB
:100C6000012806D10021144804F07CF80020134923
:100C700048704FF4007000F023F810BD1481224238
:100C8000BC0300201801002000080040580100208B
:100C9000657869743720747269676765720D0A0038
:100CA000657869743820747269676765720D0A0027
:100CB0006003002028012342002C0140180000207E
:100CC00001490860704700001404014001460020FB
:100CD0000022074B1B6803EA0102054B14331B6813
:100CE0000B4013B10AB1012000E000207047000062
:100CF00000040140002123498279002A3AD00A46A3
:100D0000126803689A430B461A600A1D126803684A
:100D10009A430B1D1A60027911440A6803681A434A
:100D20000A60184A0832126803689A43154B083360
:100D30001A601A1D126803689A43124B0C331A602A
:100D40004279102A0ED11A1F126803681A430D4BFC
:100D500008331A601A1D126803681A43094B0C33D2
:100D60001A600DE00749427911440A6803681A4382
:100D70000A6005E0027911440A6803689A430A6030
:100D800070470000000401400022084B9A750222BF
:100D90005A7008221A701A46927802439A7021B14A
:100DA000034A12680A43024B1A607047600300202E
:100DB000140000200022084B1A7602225A700E22DC
:100DC0001A701A46927802439A7021B1034A126847
:100DD0000A43024B1A607047780300201400002079
:100DE0000022094B83F8232002225A700D221A7028
:100DF0001A46927802439A7021B1044A12680A4353
:100E0000024B1A6070470000940300201400002079
:100E10000022094B83F8242002225A700B221A70F8
:100E20001A46927802439A7021B1044A12680A4322
:100E3000024B1A6070470000BC0300201400002021
:100E400008B50121302002F0CBFEFB20ADF80000F8
:100E500048208DF803006946054801F05BF904203D
:100E6000ADF800006946034801F054F908BD0000E0
:100E7000001401400010014008B50121402002F09B
:100E8000AFFE4FF47F40ADF8000048208DF803001E
:100E90006946024801F03EF908BD00000018014013
:100EA0001CB5FFF7CDFF0121084602F099FE002096
:100EB0008DF8040001208DF806000521032001F0C3
:100EC00009F908208DF80500202000906846FFF7FA
:100ED00011FF0621032001F0FDF808208DF8050020
:100EE000402000906846FFF705FF0721032001F02E
:100EF000F1F80C208DF80500802000906846FFF77F
:100F0000F9FE1CBD0EB5FFF7B7FF0121084602F040
:100F100067FE00208DF8080001208DF80A000F21DF
:100F2000042001F0D7F808208DF809000003019093
:100F300001A8FFF7DFFE0E21042001F0CBF8082006
:100F40008DF80900C002019001A8FFF7D3FE0D2122
:100F5000042001F0BFF808208DF8090080020190FC
:100F600001A8FFF7C7FE0C21042001F0B3F8082008
:100F70008DF809004002019001A8FFF7BBFE0B218C
:100F8000042001F0A7F808208DF809000002019064
:100F900001A8FFF7AFFE0A21042001F09BF808200A
:100FA0008DF80900C001019001A8FFF7A3FE0921F7
:100FB000042001F08FF808208DF8090080010190CD
:100FC00001A8FFF797FE0821042001F083F808200C
:100FD0008DF809004001019001A8FFF78BFE282041
:100FE0008DF8000001208DF801008DF802008DF8C9
:100FF0000300684601F0D8FE17208DF8000001209C
:101000008DF8010000208DF8020001208DF803000A
:10101000684601F0C9FE0EBD504800780F2809D27D
:10102000DFE800F0089A090F14222F4F555F6D7BFF
:101030008598990090E00020484948700420087085
:101040008AE0002045494870087085E00120444945
:1010500008604448D0F80001012804D000203F492E
:1010600048700520087077E001203D4908603D4840
:10107000D0F80001012803D00020384948700870DA
:101080006AE00120364908603648D0F8000101289E
:1010900016D035480078052809D133484078022811
:1010A00005D100202D4948700720087008E02E481F
:1010B0000078072804D10220284948700D200870C4
:1010C0004AE00020254948700820087044E027487D
:1010D0000068012804D100202049487009200870C8
:1010E0003AE023480078042808D1214840780228B3
:1010F00004D10020194948700A2008702CE01C48CF
:101100000078052808D11A484078022804D1002028
:10111000124948700B2008701EE016480078082815
:1011200004DC00200D4948700C20087014E00F48C2
:10113000006801280DD00C480078072804D10D2044
:1011400006490870022048700020044948700620B3
:10115000087001E000E000BF00BF70477803002086
:10116000B08121420000234260030020000123429D
:10117000BC0300209403002010B5824800780F289B
:1011800009D2DFE800F008FC090D4E6A8793A6AD8E
:10119000BED9F4FAFB00F2E001207B490860EEE0E2
:1011A0007848007E28B90120774908607549487061
:1011B00036E07448007E012810D174480068012888
:1011C00003D102206F4908762AE06E494868002161
:1011D00004F073FA01206B49487021E06948007EF1
:1011E000022811D16948001F0068012803D103209B
:1011F0006449087614E063498868002104F05DFAC8
:101200000120604948700BE05E48007E032807D14A
:101210005C4A518A906804F050FA0120594948709C
:10122000ADE05A48006801280BD15649486804F0DF
:101230009AFC00205349496848620220514948708D
:101240000AE00120504908604E494868002104F036
:1012500034FA01204B49487091E04C48001F006867
:1012600001280BD14749886804F07DFC00204549DE
:10127000896848620220434948700AE001204249D7
:10128000086040498868002104F017FA01203D49B0
:10129000487074E001203C4908603A4A518A9068DD
:1012A00004F00BFA01203749487068E037480838E5
:1012B000006801280CD135480C380068012807D097
:1012C000304A5169506804F0F8F901202D494870FE
:1012D00055E000202C49086001202A4948704EE062
:1012E0002A480068012803D102202649487007E0F7
:1012F00024494868002104F0E0F9012021494870A0
:101300003DE02248001F0068012803D102201D494A
:10131000487010E01D480830006801280BD11C48B7
:101320004068407838B917498868002104F0C5F949
:1013300001201449487022E014480C30006801284C
:1013400011D1002012494968487060B111480078F5
:10135000082808DC0B4A118A9068002204F054F92E
:101360000120084948700AE008E006E0FFE7012094
:10137000054908600349487001E000E000BF00BF74
:1013800010BD000078030020B081214230012342CB
:10139000BC0300209403002010B58D4800780F286E
:1013A00009D2DFE800F00808091B748EA8B0B8CA9B
:1013B000E4F8F7F6F50009E18548C06864280CD91F
:1013C00084480068012803D002208149487004E065
:1013D0004FF400411020FFF7EDFCF7E07C48007E61
:1013E00048B97B48C068642850D9002078494870C3
:1013F000012008764AE07648007E01281AD1754817
:101400003030006801280CD17149486804F0ABFB0A
:1014100000206F49496848626D494870022008768B
:1014200034E06B484068407810BB10210846FFF755
:10143000C1FC2BE06648007E02281AD165482C309A
:10144000006801280CD16249886804F08CFB0020F8
:101450005F49896848625E4948700320087615E054
:101460005B488068407818B908211020FFF7A2FC7B
:101470000CE05748007E032808D155488068407822
:1014800020B9022052494870002008769EE0514859
:101490003030006801280BD14D49486804F063FBE7
:1014A00000204B494968486202204949487007E0DA
:1014B00047484068407818B910210846FFF77AFC81
:1014C00084E044482C30006801280BD140498868EA
:1014D00004F049FB00203E498968486202203C49EB
:1014E000487007E03A488068407818B90821102011
:1014F000FFF760FC6AE036488068407810B9022047
:101500003349487062E032484068407810B90220A0
:101510002F4948705AE02E48C06864280CD92D48DD
:101520000068012803D102202949487004E04FF4E3
:1015300000411020FFF73EFC48E0264830300068AC
:1015400001280BD12249486804F00DFB00202049F6
:101550004968486202201E49487007E01C484068FC
:10156000407818B910210846FFF724FC2EE01948EE
:101570002C30006801280FD11549886804F0F3FA6F
:1015800000201349896848620220114948700BE025
:101590001BE019E010E008E00D488068407818B9B9
:1015A00008211020FFF706FC10E00948806810B9F8
:1015B00002200749487009E00548C068642802D93C
:1015C00002200349487001E000E000BF00BF10BDE9
:1015D000780300200001234210B51248407820B95A
:1015E000FFF7CAFD00200F49C8600E484078012867
:1015F00010D1FFF7D1FE0B48C068401C0949C860F4
:101600000846C06840F6B831884203D9002140201E
:10161000FFF7D0FB03484078022801D1FFF7FCFC1C
:1016200010BD00007803002010B523480078092879
:1016300040D2DFE800F005060B11171D363D3E00D5
:1016400038E000201C490870487033E000201A4937
:101650000870487088752DE00020174948700420F4
:10166000087027E00020144948700520087021E028
:1016700003F00AFE30B111480068012802D00020B2
:101680000D4948700D48001F0068012808D10B481B
:101690000068012804D1002007494870062008701E
:1016A00008E000200449487548700420087001E0F3
:1016B00000E000BF00BF10BD6003002028012342EE
:1016C00010B567480078092806D2DFE800F0050663
:1016D0002248608197BCBD00BFE0624800680128D5
:1016E0000BD15F49486804F03EFA00205C49496824
:1016F000486202205A4948700AE003F0C5FD38B13B
:1017000057494868002103F0D8FF01205449487028
:10171000A3E05348807D90B952480068012802D167
:101720004F4988751AE003F0AFFDB8B14C494868DD
:10173000002103F0C2FF0120494948700EE04848EB
:10174000807D01280AD103F09FFD38B1444A117D04
:10175000506803F0B2FF0120414948707DE04148E4
:101760000068012807D100203D49496848620220ED
:101770003B4948700AE003F087FD38B138494868B2
:10178000002103F09AFF01203549487065E0354893
:10179000001D006801280AD132480830006801287D
:1017A00005D102202E494870012008750FE003F092
:1017B0006BFD60B12A4A1269294BDB681A4451005B
:1017C000274A506803F079FF01202549487044E01A
:1017D000244808300068012803D1022020494870BD
:1017E0000BE003F051FD40B11D4AD1685068002262
:1017F00003F00AFF01201A4948702EE01948001D25
:10180000006801280AD0174808300068012805D070
:101810000020134948700420087013E01048407DF0
:1018200018B900210120FFF7AFFA03F02DFD48B1F0
:101830000B4A1169506803F040FF012008494870C5
:101840000020487509E008E00549486804F08BF974
:10185000002003494870087000BF00BF10BD0000A1
:10186000600300202001234210B568480078092851
:1018700006D2DFE800F005061B465F85ABC6C70051
:10188000C1E06348006801280BD16049486804F052
:101890006AF900205D494968486202205B49487046
:1018A00003E001211020FFF76FFAACE05748807D7C
:1018B000C8B95748006801280CD15449486804F059
:1018C00052F9002051494968486250494870012046
:1018D000887515E04D484068407888B9012110208E
:1018E000FFF752FA0CE04948807D012808D14748AB
:1018F0004068407820B9022044494870002088752B
:1019000081E04348006801280BD14049486804F051
:101910002AF900203D494968486202203B49487045
:1019200007E03A484068407818B901211020FFF7D5
:101930002BFA68E03648001D006801280ED13448B3
:1019400008300068012809D13049486804F00BF9D3
:1019500002202E4948700120087510E02B4840688D
:10196000407860B92948007D28B102202749487095
:101970000720087003E000210420FFF705FA42E089
:101980002348001D0068012804D021480830006861
:10199000012812D11D49486804F0E5F802201B49CE
:1019A00048701B48001D006801280ED018480830F8
:1019B0000068012809D1487507E01448406840785C
:1019C00018B906211020FFF7DFF91CE01048001DB0
:1019D000006801280CD00E4808300068012807D0A4
:1019E0000A49486804F0BFF802200849487007E037
:1019F00006484068407818B906211020FFF7C4F95E
:101A000001E000E000BF00BF10BD00006003002047
:101A10002001234210B51248007820B9FFF750FE8C
:101A200000200F4988600E480078012810D1FFF788
:101A30001BFF0B488068401C094988600846806885
:101A400040F6B831884203D900214020FFF79CF9C5
:101A500003480078022801D1FFF7E6FD10BD000021
:101A60006003002010B5354800780C2864D2DFE808
:101A700000F006070E0F162E384E546061625BE0D0
:101A800000202E494870087081F8240054E053E08B
:101A900000202A494870087081F824004CE028484A
:101AA00000780A2809D126484078022805D100206C
:101AB000224948700520087008E0214800780D2868
:101AC00004DB02201D4948700A20087034E01C48DD
:101AD0000078092804DC00201849487006200870A6
:101AE0002AE01848006801280BD1144890F8250016
:101AF000401C124981F8250000204870072008701A
:101B000004E04FF480611020FFF782F914E0002018
:101B10000A494870042008700EE0084890F8260032
:101B2000401C064981F826000020487004200870F7
:101B300002E001E000E000BF00BF10BDBC030020D8
:101B4000780300201C81224210B5954800780C28AB
:101B500007D2DFE800F00607436BA2BBD5FBF3F228
:101B6000F1F01AE18E4890F82400C8B98D48006859
:101B700001280CD18A49486803F0F5FF0020884904
:101B8000496848620120864981F8240025E084499B
:101B90004868002103F091FD0120814948701CE054
:101BA0007F4890F82400012817D17F480068012859
:101BB0000BD17B49886803F0D6FF002078498968FB
:101BC000486202207649487007E07549886800211C
:101BD00003F073FD012072494870DEE0704890F810
:101BE000240098B96F480068012806D100206C498C
:101BF0004870012081F8240017E0694948680021F5
:101C000003F05BFD0120664948700EE0644890F8DF
:101C10002400012809D1624A126A5100604A906882
:101C200003F04BFD01205E494870B6E05C4890F837
:101C3000240098B95B480068012806D10020584963
:101C40004870012081F8240026E0554948680021A9
:101C500003F033FD0120524948701DE0504890F8D0
:101C60002400012818D15148006801280BD14E48A2
:101C7000001D0068012806D0022049494870002054
:101C800081F8240008E0464900228868114603F0E4
:101C9000BBFC0120424948707FE0444800680128AD
:101CA0000FD140480068012803D102203C49487008
:101CB0000BE001203A4948704868002103F0FDFC20
:101CC00003E000210820FFF7A3F866E03548001D77
:101CD0000068012803D10220314948700FE03448E0
:101CE0008068406A58B92F4838380068012806D102
:101CF0002B4948700A461169506803F0DEFC4CE03D
:101D00002948001F0068012803D102202449487097
:101D10001BE026480068012812D12348001D0068F6
:101D200001280DD001201E4948700A4651695068AB
:101D300003F0C3FC09E02FE02DE02BE018E005E004
:101D40004FF482311020FFF763F826E01648001D9B
:101D50000068012808D1124948700A46D169906884
:101D6000002203F051FC02E002200D49487014E00B
:101D70000D48001D0068012808D1094948700A462D
:101D800091699068002203F03FFC02E002200449C0
:101D9000487002E001E000E000BF00BF10BD00009D
:101DA000BC030020380123421881224214812142C1
:101DB0007803002010B5AF4800780C2807D2DFE880
:101DC00000F006074874C3DCFDF2F1F0EFEE4FE1DE
:101DD000A84890F82400D0B9A748006801280DD180
:101DE000A449486803F0BFFE0020A2494968486240
:101DF000A0494870012081F8240029E09D484068EE
:101E0000407828BB40211020FFF702F820E09948D5
:101E100090F8240001281BD19848006801280ED1B1
:101E20009449886803F09FFE0020924989684862BF
:101E3000022090494870002081F8240008E08D4875
:101E40008068407820B94FF400711020FEF7E0FF61
:101E50000EE1884890F82400D0B98748006801282E
:101E60000DD18449486803F07EFE0020814949680D
:101E7000486280494870012081F8240014E07D48C0
:101E80004068407880B940211020FEF7C1FF0BE088
:101E9000784890F82400012806D176488068407878
:101EA00010B9022073494870E2E0724890F82400AB
:101EB000D0B97148006801280DD16E49486803F017
:101EC00052FE00206B49496848626A494870012007
:101ED00081F8240037E067484068407830BB4021F3
:101EE0001020FEF795FF2EE0624890F824000128AC
:101EF00029D162480068012819D06148006801288A
:101F00000BD15E48001D0068012806D00220594907
:101F10004870002081F8240015E059480068012825
:101F200011D04FF480311020FEF772FF0BE05149C1
:101F3000486803F018FE4F4800694E4949684862F6
:101F400002204C49487093E04B48006801280BD1AF
:101F50004849486803F007FE00204649496848623E
:101F600002204449487007E042484068407818B968
:101F700040211020FEF74CFF7AE03F48001D00682A
:101F8000012812D13B49486803F0EDFD394800694A
:101F90003849496848620220364948700DE066E0D9
:101FA00064E062E03DE025E008E0324840684078C7
:101FB00018B980211020FEF72BFF59E02F48001F91
:101FC000006801280CD12B49486803F0CCFD294852
:101FD000406928494968486202202649487008E05B
:101FE00024484068407820B94FF480711020FEF7F3
:101FF0000FFF3DE02148001D0068012807D01D4962
:10200000886803F0B0FD02201A49487008E01948BA
:102010008068407820B90020164948700820087070
:1020200026E01648001D0068012807D0114988687D
:1020300003F099FD02200F49487015E00D488068B3
:10204000407888B90B488068406A0A49096A884222
:1020500005D90020074948700A20087004E04FF4B1
:1020600080611020FEF7D4FE02E001E000E000BF36
:1020700000BF10BDBC03002038012342188122425A
:102080001481214210B51248407820B9FFF75CFD59
:1020900000200F49C8600E484078012810D1FFF792
:1020A00089FE0B48C068401C0949C8600846C068E2
:1020B00040F6B831884203D900214020FEF7A8FE3F
:1020C00003484078022801D1FFF7CCFC10BD000086
:1020D000BC03002030B500228B071C0F0F2303FA2E
:1020E00004F20B4B8C1053F824309343084C8D10A2
:1020F00044F8253023468C1053F824308C07240FE5
:1021000000FA04F42343024C8D1044F8253030BD0E
:10211000080001402DE9F04102460025002600207C
:1021200000230024002791F803C00CF00F0591F85C
:1021300003C00CF0100CBCF1000F03D091F802C0EA
:102140004CEA050591F800C0BCF1000F31D01468CD
:1021500000202BE04FF0010C0CFA00F3B1F800C0A6
:102160000CEA03069E4220D183004FF00F0C0CFABC
:1021700003F7BC4305FA03FC4CEA040491F803C0DE
:10218000BCF1280F06D14FF0010C0CFA00FCC2F88C
:1021900014C00AE091F803C0BCF1480F05D14FF01C
:1021A000010C0CFA00FCC2F810C0401C0828D1D366
:1021B0001460B1F800C0BCF1FF0F34DD546800209A
:1021C0002EE000F1080C4FF0010808FA0CF3B1F80A
:1021D00000C00CEA03069E4221D183004FF00F0C91
:1021E0000CFA03F7BC4305FA03FC4CEA040491F82B
:1021F00003C0BCF1280F05D100F1080C08FA0CF857
:10220000C2F8148091F803C0BCF1480F07D100F167
:10221000080C4FF0010808FA0CF8C2F81080401CB6
:102220000828CED35460BDE8F0810000F0B50A461E
:10223000002300240021002500F00046B6F1004FE5
:1022400002D11D4EF16901E01B4E7168C0F30345D8
:1022500083B200F44016B6F5401F08D121F070613A
:10226000154E766826F07066134F7E6012E000F41B
:102270008016B6F5801F06D1032606FA05F4A143A1
:1022800041F0706106E0460D360103FA06F6B143EF
:1022900041F0706122B1460D360103FA06F6314372
:1022A00000F00046B6F1004F02D1034EF16101E0AB
:1022B000014E7160F0BD00000000014041617047B7
:1022C0000161704710B5464800780E2808D2DFE853
:1022D00000F007080D12182C354453616770828393
:1022E0007BE000203E494870087076E000203C49C1
:1022F0004870087071E00020394948700420087067
:102300006BE038480078072809DB364800780D284C
:1023100005DA0020324948700520087004E00C20DE
:102320002F4908700220487057E000202C4948705F
:1023300006200870002081F823004EE02A4800683B
:10234000012805D10020264948700720087003E0C5
:1023500000210220FEF744FD3FE0234800680128E9
:1023600005D100201E4948700820087003E00021B4
:102370000220FEF735FD30E01A4800780B2808D11E
:1023800018484078022804D10020154948700920D7
:10239000087022E00020124948700A2008701CE0F2
:1023A00000200F4948700B200870002081F823009E
:1023B00013E00D480C30006801280BD00A4810309B
:1023C0000068012806D10020054981F823004870E3
:1023D0000320087001E000E000BF00BF10BD000056
:1023E00094030020780300200081224210B56E483B
:1023F00000780E2808D2DFE800F00708131D3242EB
:102400004B61798195ABD3D4CCE00120674908605A
:1024100000206749C1F8B401012063494870C1E058
:102420000020624908606249C1F8B40101205E4998
:102430004870B7E05D48B4380068012804D0002136
:102440002020FEF7CDFC09E000205849091F086054
:1024500001205749C1F8B80153494870A2E05548D6
:102460000068012803D102204F49487006E001208E
:102470004D4948704868002103F01FF992E001209F
:10248000494948700A465169506803F016F989E0D5
:10249000454890F8230030B90020444908600120E5
:1024A0004149487009E0404890F82300012804D1D0
:1024B0003E49091F08603C49487073E03B48B83802
:1024C000006801280DD100203849103908603849CA
:1024D000C1F8AC013549083908600120324948701B
:1024E00003E000210220FEF77BFC5BE000202F4987
:1024F000091F086001202C49487053E02E4880686D
:10250000406A2D49098A88420BD12B48806840785F
:1025100038B90120244948700A469169506803F08F
:10252000CCF83FE023480068012803D102201E496F
:1025300048700CE001201C49487000201B49091D0F
:10254000086019490A8C4868002103F05DF829E009
:10255000154890F8230020B901201449091F08608C
:102560001DE0114890F82300012802D10F490860AE
:1025700015E00D4890F82300022804D101200B49F2
:102580000C3908600BE0084890F82300032806D1B6
:1025900001200649083908600549C1F8A80101E091
:1025A00000E000BF00BF10BD94030020B8812242AC
:1025B00000802242340123427803002010B588486D
:1025C00000780E2808D2DFE800F00708111A2C4125
:1025D00049737C8991BFF4F3FFE081488068B0F5CE
:1025E000FA6F02D902207E494870F6E07C48806884
:1025F000B0F5FA6F02D9022079494870EDE07848C9
:102600008068B0F5FA6F0BD976480068012807D1C9
:102610007448001D0068012802D1022070494870EA
:10262000DBE07148006801280BD16D49486803F070
:102630009AFA00206A49496848620220684948704D
:1026400003E020211020FEF7CBFBC6E06448406881
:10265000407810B9022062494870BEE0604890F8A6
:10266000230080B95E488068B0F5FA6F1FD95D48D5
:10267000001D006801281AD00120594981F8230063
:102680000020487013E0564890F8230001280ED12E
:1026900053488068B0F5FA6F09D95248006801289C
:1026A00005D000204E4981F823000220487094E0B4
:1026B0004B488068B0F57A7F02D9022048494870BB
:1026C0008BE047488068B0F5FA6F06D94548006846
:1026D000012802D10220424948707EE0404840680B
:1026E000407810B902203E49487076E03C48806945
:1026F0003B49C969401A3A494968496A884203D93D
:1027000001203849B03108603748006801280ED1EF
:102710003449B03108603249486803F024FA002097
:102720002F494968486202202D4948700BE02C4827
:102730004068407838B901202A49B031086020212A
:102740001020FEF74DFB48E0254890F8230060B9C3
:10275000234880682249898988423BD90020204942
:102760004870012081F8230034E01D4890F82300D0
:1027700001280CD11A4880681949C989884229D989
:10278000002017494870022081F8230022E01448F5
:1027900090F8230002280DD111488068B0F57A7FA7
:1027A00018D900200E494870032081F8230011E059
:1027B00012E010E00A4890F8230003280AD10848E4
:1027C0008068B0F57A7F05D90020054981F823009B
:1027D0000220487001E000E000BF00BF10BD000013
:1027E000940300200C8122423401234210B5124888
:1027F000407820B9FFF7FAFD00200F4988600E48A5
:102800004078012810D1FFF7D9FE0B488068401CA2
:10281000094988600846806840F6B831884203D983
:1028200000214020FEF7DCFA03484078022801D15D
:10283000FFF748FD10BD00009403002010B501F023
:1028400095F900F0D5F900200D4908600D49C1F84F
:10285000A40101200A4914310860091D08600849D3
:102860000C310860091D08600549083108600449F9
:102870001C310860044908600449C1F89C0110BD7E
:10288000A081224200802242B081214200002342E6
:1028900010B5002401F03AF904460F49204604F02F
:1028A00093FF05D201200D4908600D49C1F8A00130
:1028B0000C49204604F088FE05D200200749086034
:1028C0000749C1F8A001322000F08AF94FF4FA70EC
:1028D00002F018FD10BD00000000A043A4812242B8
:1028E00000802242000096432DE9F04F89B0054652
:1028F0000E461746984600244146129804F0D0FF31
:10290000089000BF48E04FF08041304604F032FDAF
:102910004FF080410790304604F02CFD0490204693
:1029200004F026FE0390049904F0BAFF0590139971
:1029300004F07EFE0690079904F01CFD82468AF0A2
:102940000040019002F042FD4FF07E51029004F0F1
:102950009DFC039004F06EFC02460B46CDE9040199
:102960000020134904F0F8F9CDE9060104F0C2F99A
:1029700081464946089804F05BFE4146079004F002
:1029800085FC83465946384604F0F4FC079004F071
:10299000CFFD25F81400641C204604F0E9FD314603
:1029A000079004F011FEAED309B0BDE8F08F00002F
:1029B0000000F03F00BFFEE738B5002401217C2075
:1029C00001F00EF910208DF8030003208DF80200AD
:1029D00041F20304ADF8004069460F48FFF79AFB47
:1029E00021460D48FFF76CFC4FF47F44ADF80040E2
:1029F00069460A48FFF78EFB21460848FFF760FC4E
:102A00008024ADF8004069460548FFF783FB214666
:102A10000348FFF755FC38BD000C0140001401408D
:102A20000018014008B50121042001F0D9F8012166
:102A3000102001F0D5F81020ADF800008DF803004B
:102A400003208DF8020069460848FFF763FB022067
:102A5000ADF8000069460648FFF75CFB0120054918
:102A600008600549C1F8900108BD00000008014058
:102A700000100140840122420000214270B504464A
:102A80001448006820F47020124908600846006865
:102A900040F44030086000200F490860002516E02F
:102AA000E0090E4908606006040E022002F0BAFE3A
:102AB00001200B49C1F88401022002F0B3FE00207E
:102AC00005490860022002F0ADFE681CC5B2082D61
:102AD000E6DB70BD000801408401224290012142E2
:102AE0000000224210B50F48006820F470200D4904
:102AF00008600846006840F44030086001200A4938
:102B000008600A49C1F88401042002F08BFE00200D
:102B100005490860042002F085FE00200349C1F841
:102B2000840110BD000801409001214200002242B2
:102B300010B50F48006820F470200D490860084661
:102B4000006840F44030086000200A4908600A49E3
:102B5000C1F89001042002F065FE012005490860DB
:102B60000549C1F89001042002F05CFE10BD000090
:102B700000080140840122420000214210B50024D7
:102B80001348006820F47020114908600846006866
:102B900040F40020086001200E49086002F042FE67
:102BA00001200D49C1F8840102F03CFE07E0601CE1
:102BB000C4B2FA2C03DDFFF7BBFF012010BD0548AE
:102BC000803800680028F2D10449086000BFF5E7AA
:102BD000000801409001214200002242840122426B
:102BE00010B5044622464021902000F0C3FF10BDDE
:102BF00010B5FFF717FF00224021902000F0BAFF28
:102C000010BD000008B501217C2000F0E9FF4FF461
:102C1000C050ADF8000048208DF803006946164802
:102C2000FFF778FA2020ADF8000048208DF8030067
:102C300069461248FFF76EFA0420ADF800004820FC
:102C40008DF8030069460E48FFF764FAFB20ADF8E3
:102C5000000048208DF8030069460A48FFF75AFA39
:102C60004FF60170ADF8000048208DF8030069466A
:102C70000548FFF74FFA08BD00080140000C01406D
:102C800000100140001401400018014008B5012166
:102C9000102000F0A5FF3020ADF8000010208DF8C6
:102CA000030003208DF8020069460448FFF732FA5A
:102CB00030210248FFF704FB08BD0000001001406E
:102CC00000BFFEE738B5002401217C2000F088FF1A
:102CD00010208DF8030003208DF802008224ADF847
:102CE000004069462048FFF715FA21461E48FFF7C5
:102CF000E5FA9824ADF8004069461C48FFF70AFA47
:102D000021461A48FFF7DAFA42F28134ADF8004062
:102D100069461748FFF7FEF921461548FFF7CEFA36
:102D20004224ADF8004069461248FFF7F3F9214606
:102D30001048FFF7C3FA4FF4E054ADF8004069467D
:102D40000B48FFF7E7F921460948FFF7B7FA0424D3
:102D5000ADF8004069460848FFF7DCF9214606480F
:102D6000FFF7ACFA38BD000000080140000C01403C
:102D700000100140001801400014014010B5482027
:102D800001F0B2F8242001F011FD242001F0F0FB45
:102D9000482001F0B9FE242001F026FE242001F095
:102DA000B5FA10BD7047000070B5002100230F2256
:102DB000C47804B3154C246804F4E064C4F5E064FA
:102DC000210AC1F10403CA40447804FA03F184786B
:102DD0001440214309010E4C0678A155047804F0F3
:102DE0001F050124AC4005786D11AD0005F1E0250B
:102DF000C5F8004109E0047804F01F050124AC4047
:102E0000044D0678761145F8264070BD0CED00E0C3
:102E100000E400E080E100E002490143024A116061
:102E2000704700000000FA050CED00E010B500F05E
:102E300013F800F0EFFB00F017FC00F037FC00F097
:102E4000BFFB00F091FB00F0CBFC00F06FFC00F04A
:102E500095FC00F002F810BD7047704706480078F6
:102E6000012808D105480078FF2804D203480078DB
:102E7000401C024908707047FE010020F10100204B
:102E800010B500241A480078012830D1FDF7EEF97A
:102E900004461848007820B116480078401E1549AD
:102EA000087014480078F8B913480078E0B900F0C9
:102EB000F9FC12481249097850F8210011490860BC
:102EC0000F4800781049097888420DD00D480068F5
:102ED000806B401C0B49096888630C480068401CE3
:102EE0000A490860FDF7E1F92046FDF7C3F910BD76
:102EF000FE010020F1010020F201002098C900200D
:102F0000F40100200C020020F3010020D801002071
:102F100010B500240B480078012811D1FDF7A6F95F
:102F200004460948007840B908480078FF2804D2D0
:102F300006480078401C054908702046FDF79AF9BC
:102F400010BD0000FE010020F1010020F201002070
:102F500010B5002413480078012821D1FDF786F927
:102F6000044611480078C0B10F480078401E0E4951
:102F700008700846007860B90C48007828B92046E7
:102F8000FDF778F900F054FC0AE02046FDF772F9ED
:102F900006E02046FDF76EF902E02046FDF76AF9EB
:102FA00010BD0000FE010020F2010020F101002010
:102FB00010B50B48007890B900F074FC094800780F
:102FC0000949087009480749097850F8210008495B
:102FD00008600846006807490860FDF74EF910BD13
:102FE000FE010020F4010020F301002098C9002018
:102FF0000C02002004020020704700002DE9FE4F63
:1030000006460F4690461C464FF00009FDF72EF984
:1030100081461F48007828B14846FDF72BF93C202F
:10302000BDE8FE8F1B4850F8240060BB0120194901
:1030300041F824004846FDF71DF900234246394671
:10304000304600F009F982460020009001900346C6
:10305000024651460290204600F03AFC054635B93A
:103060000D48007801280CD100F0E2FB09E0FDF7E3
:10307000FDF881460020074941F824004846FDF745
:10308000F9F82846CCE74846FDF7F4F82820C7E7CA
:10309000F101002098C90020FE0100202DE9F04F29
:1030A00085B081468A4693461C46DDE90F78129D1D
:1030B00000200390FDF7DAF803902348007830B140
:1030C0000398FDF7D7F83C2005B0BDE8F08F1F4806
:1030D00050F8240088BB01201C4941F824000398C3
:1030E000FDF7C8F82A464146384600F001FD2B4658
:1030F0005A465146484600F0AFF804901198CDE981
:10310000008002953A4620460E9B049900F0E0FBB1
:10311000064636B90E48007801280CD100F088FB2D
:1031200009E0FDF7A3F803900020084941F82400C6
:103130000398FDF79FF83046C6E7FFE70398FDF7D1
:1031400099F82820C0E70000F101002098C900206C
:10315000FE010020704770472DE9F04106460F46FA
:1031600014464FF000081548007818B1122020705E
:10317000BDE8F081FDF77AF88046FF2E03D11048B4
:10318000006890F832600F4850F826502DB940463C
:10319000FDF770F843202070EAE7012D05D1404685
:1031A000FDF768F843202070E2E7EF644046FDF742
:1031B00061F80020207000BFDAE70000F101002074
:1031C0000402002098C90020704700002DE9F04754
:1031D00007460D464FF0000A002028606860FDF7A2
:1031E00045F88246FF2F03D11948006890F83270E5
:1031F000184850F827402CB95046FDF73BF84320BB
:10320000BDE8F087012C04D15046FDF733F8432088
:10321000F6E7207C00F0010020B95046FDF72AF8BF
:103220004520EDE70026D4F80C90D4F808805046ED
:10323000FDF720F800E0761C58F8041B0029FAD0AE
:10324000B0002860A9EB0600800068600020D7E786
:103250000402002098C9002070B5044610464FF0C3
:1032600080750560051F28462C606FF00106051F5C
:1032700028462E604FF01236051F28462E604FF06C
:103280000336051F28462E604FF00236051F2846DC
:103290002E607610051F28462E60051F28462960DF
:1032A0004FF01136051F28462E604FF01036051FCF
:1032B00028462E604FF00936051F28462E604FF035
:1032C0000836051F28462E604FF00736051F284692
:1032D0002E604FF00636051F28462E604FF005364B
:1032E000051F28462E604FF00436051F28462E6025
:1032F00070BD00002DE9F04105464FF00008FCF7D5
:10330000B5FF8046FF2D05D12048006890F8325067
:10331000012608E01D48006890F83200A84201D15B
:10332000012600E000261A4850F825402CB94046F6
:10333000FCF7A0FF4820BDE8F081012C04D14046F5
:10334000FCF798FF4320F6E794F834701148C05D0D
:1033500094F8351088430F49C8550846C05D30B908
:1033600094F836100C48007888430B49087094F89C
:10337000300040F0080084F830004046FCF77AFF47
:10338000012E01D100F054FA0020D4E704020020FD
:1033900098C90020F6010020F501002070470000C8
:1033A00070B5054600261748007800B170BD164874
:1033B000007800B1FAE71DB3FCF758FF0646134842
:1033C000006890F834401248005D1049096891F88F
:1033D000351088430E4908550846005D40B90B4832
:1033E000006890F836100B48007888430949087047
:1033F00006480068C5623046FCF73CFF00F018FA4A
:1034000000BFD3E7F1010020F201002004020020F8
:10341000F6010020F50100202DE9F04104460D469B
:1034200016461F461248007810B15520BDE8F081BD
:103430001048007808B13220F8E7B81CC82148438A
:103440004FF47A71B0FBF1F14FF461606043C5EB6A
:10345000051200EB8200304400EBC00202EB0010CA
:1034600001EBC0084046FFF79BFF0020DEE70000AD
:10347000F1010020F201002070B5002600F072F882
:10348000FCF7F4FE064631480068401C2F490860EE
:103490003046FCF7EFFE2E480078012853D12D4826
:1034A000007820B1012804D0022809D103E00125C9
:1034B0000BE0002509E0012501202649087004E001
:1034C000012500202349087000BF00BF05B970BD69
:1034D0002148046833E0FCF7C9FE0646E06A50B3B1
:1034E000E06A401EE062E06A28BB94F8300000F019
:1034F000370040B114F8300F00F0C80020700120F0
:103500006070303C02E0002084F8310094F8300014
:1035100000F0080078B93434A078104909780843DD
:103520000E49087020780E49085C6178084314F849
:1035300034190B4A505464693046FCF79BFE94F8EA
:1035400032003F28C7D100BFC1E700001C020020A5
:10355000FE0100201402002010020020F5010020CE
:10356000F6010020704700002DE9F041502111487C
:1035700000F02CF900250DE0681C86B20D4800EB28
:10358000051400EB06170020207067600AA0E060B9
:10359000681C85B2042DEFD3064800EB051400200B
:1035A0002070606004A0E060024804490860BDE843
:1035B000F081000048C500203F000000E00100202D
:1035C00070B5C821114800F001F900230FE0581C24
:1035D00085B203EB83000D4901EB800405EB850008
:1035E00001EB8006002020706660581C83B2092B16
:1035F000EDD303EB8300054901EB8004002020702C
:10360000606008460249086070BD000080C4002068
:10361000DC01002000200A4908600A4908700A49B4
:1036200008700A4908700A4908700A4908600A497E
:1036300008600A4908600A4908600A49087070472A
:103640001C020020F1010020F2010020FF010020F7
:10365000FE010020D801002000020020EC01002023
:10366000E8010020F001002000210A4A117000202A
:1036700004E00021084A1154411CC8B20828F8D3BC
:103680000021064A1170064A1170064A1160064A66
:1036900011607047F5010020F6010020F3010020C1
:1036A000F40100200C0200200402002070B54FF449
:1036B0007C71194800F08AF84FF48071174800F0C7
:1036C00085F8002413E0601CC5B2C4EBC40000EB15
:1036D0004000114901EB8003C5EBC50000EB400041
:1036E00001EB80065E610EA0D864601CC4B20B2C96
:1036F000E9D3C4EBC40000EB4000074901EB8003B1
:103700000020586106A0D8640020064908600248DD
:103710000549086070BD000098CA002098C90020C3
:103720003F000000100200200802002000B587B012
:103730000320002180220A4BCDE90132CDE903109C
:103740004FF6FF703F23074A00900748FFF7A6FC9B
:1037500006AA06A13F20FFF7FFFC07B000BD00004E
:1037600098C7002094C90020053A000875432F4FE0
:10377000532D49492049646C6500000000B587B0AD
:103780000320002180220A4BCDE90132CDE903104C
:103790004FF6FE703E23074A00900748FFF77EFC75
:1037A00006AA06A13E20FFF7D7FC07B000BD000027
:1037B00098C5002094C700202D3A000875432F4F6C
:1037C000532D4949205374617400000004E0002225
:1037D00000F8012B4A1E91B20029F8D17047000071
:1037E0002DE9F04178211048FFF7F0FF00240DE0AB
:1037F000601C86B204EB44000B4901EBC00506EBEC
:10380000460001EBC0072F60601C84B2042CEFD38C
:1038100004EB4400044901EBC00500202860084681
:1038200002490860BDE8F08188CE0020180200201F
:1038300010B50024FCF71AFD044613480078F8B9C7
:1038400012480078E0B900F02DF8114811490978C4
:1038500050F82100104908600E4800780F49097897
:1038600088420DD00C480068806B401C0A490968EA
:1038700088630B480068401C09490860FCF70EFD8E
:103880002046FCF7F7FC10BDF1010020F2010020FA
:1038900098C90020F40100200C020020F301002050
:1038A000D80100200649074A1278885C0649095C5D
:1038B000034A515C01EBC001044A117070470000DB
:1038C000847A0008F5010020F6010020F4010020B0
:1038D0002DE9F84F05460F4690469946DDE90AABBB
:1038E00000200090FCF7C2FC00903F480468002CC8
:1038F00074D0183454F8040C3B4908600098FCF765
:10390000B9FC44F8187CA5760020207660766061CA
:1039100044F814BC44F80CAC44F8108C0C9824F80F
:10392000080C24F8069C0020E077E810207705F0CA
:103930000700E076217F01208840A077E17E01200A
:103940008840607700206060E060A0602062A06234
:103950006062E062206325A06063183C002606E0F8
:10396000002104F1500040F82610701CC6B2002E51
:10397000F6D02046FFF740FB2046FFF7EBFBFCF7B5
:1039800075FC00901A4840F825401A4800686061AC
:103990000020A0611748006810B1164800688461D3
:1039A000144804603434A078134909780843124954
:1039B000087020781149085C6178084314F83419BC
:1039C0000E4A50540E480078401C0D49087000986B
:1039D000FCF750FC0020BDE8F88FFFE70098FCF7EB
:1039E00049FC4220F7E70000080200203F000000E9
:1039F00098C9002010020020F5010020F6010020E7
:103A0000FF010020002400BF00BFFCF72FFC04468C
:103A100005480068401C044908602046FCF72AFC61
:103A2000FFF799FBF1E7000000020020002400BF2F
:103A300002E02820FFF7B4FC194800780028F8D0ED
:103A4000184800686421B0FBF1F016490860084688
:103A5000006828B9002014490870FF20FFF74AFCCD
:103A600000BFFCF703FC04461048006810490860DA
:103A700000200E4908602046FCF7FCFB0C4800685B
:103A800008490968B0FBF1F0C0F16400064908700C
:103A9000FFF79AFB00F00EF81420FFF781FCE0E737
:103AA000F0010020E8010020E401002000020020D5
:103AB000EC0100207CB5002514E069462846FFF79C
:103AC00085FB064666B9094850F8254044B1012CEB
:103AD00006D0D4E9020100EB810060640198A06483
:103AE000681CC5B23F2DE8D97CBD000098C90020F4
:103AF00002F0010343B102F002032BB102E0491EC0
:103B0000002308C00029FAD1704700002DE9FC47C6
:103B10004FF0000A01F056FB0FFA80FAAAF5CD70BB
:103B20000FFA80FABAF1000F17DD504603F06CFA75
:103B3000064600220A4B03F00FF904460022094B07
:103B400003F07AFA80460022074B03F075FACDE9BC
:103B5000000103F0CFF8BDE8FC870020FBE7000080
:103B60000000B0400000F43F00408F4010B501F06D
:103B700041FB10BD70B506460C461546FEF7B2FF78
:103B80003046FEF77BFFFEF7F9FF2046FEF776FF93
:103B9000FEF7F4FF2846FEF771FFFEF7EFFFFEF792
:103BA000C7FF012070BD000001460020034A506895
:103BB00020F440400843506070470000001002406D
:103BC00029B1064AD2690243044BDA6104E0034A90
:103BD000D2698243014BDA61704700000010024055
:103BE00029B1064A92690243044B9A6104E0034AF0
:103BF00092698243014B9A617047000000100240B5
:103C000029B1064AD2680243044BDA6004E0034A51
:103C1000D2688243014BDA60704700000010024016
:103C200030B500210022002400232D4D6D6805F0E1
:103C30000C0121B1042905D0082923D105E0294D23
:103C4000056022E0274D05601FE0254D6D6805F4F5
:103C50007012234D6D6805F48034022505EB924205
:103C60001CB9214D554305600BE01D4D6D6805F4F1
:103C700000351DB11C4D5543056002E0194D5543FB
:103C8000056002E0174D056000BF00BF144D6D6870
:103C900005F0F0010909154D6B5C0568DD404560D4
:103CA0000F4D6D6805F4E061090A104D6B5C4568C5
:103CB000DD4085600A4D6D6805F46051C90A0B4D01
:103CC0006B5C4568DD40C560054D6D6805F440419D
:103CD000890B074D6B5CC568B5FBF3F5056130BD1D
:103CE0000010024000127A0000093D00C4010020CB
:103CF000D401002008B501214020FFF771FF3C20CE
:103D0000ADF8000010208DF8030003208DF80200AC
:103D100069460848FEF7FEF9002007490860074990
:103D2000C1F88C010449083108600449C1F89401C4
:103D300008BD000000180140880123420000234212
:103D4000704710B500F002F810BD00000CB500205F
:103D5000019000903348006840F480303149086099
:103D600000BF3048006800F4003000900198401C0B
:103D70000190009818B90198B0F5A06FF1D12948C9
:103D8000006800F4003010B10120009001E0002034
:103D900000900098012843D12348006840F01000AB
:103DA000214908600846006820F0030008600846C2
:103DB000006840F0020008601A48406819494860ED
:103DC0000846406848600846406840F480604860A3
:103DD0000846406820F47C1048600846406840F47B
:103DE000E81048600846006840F08070086000BF36
:103DF0000C48006800F000700028F9D009484068BD
:103E000020F00300074948600846406840F002007F
:103E1000486000BF0348406800F00C000828F9D152
:103E20000CBD0000001002400020024018B101212A
:103E3000034A116002E00021014A1160704700004E
:103E40008C812142042808D14FF0E021096941F01A
:103E500004014FF0E022116107E04FF0E021096911
:103E600021F004014FF0E0221161704710B50548C0
:103E70000078012805D1FEF7F1FFFFF7FDFAFEF704
:103E8000FFFF10BDFE01002010B51348006840F090
:103E900001001149086008464068104908400E4971
:103EA0004860084600680E4908400B49086008460B
:103EB000006820F4802008600846406820F4FE0076
:103EC00048604FF41F008860FFF73BFF4FF0006031
:103ED0000449086010BD0000001002400000FFF817
:103EE000FFFFF6FE08ED00E010B58AB004460121A0
:103EF000C802FFF775FE01210420FFF771FE0121C2
:103F00000846FFF76DFE01213148FEF78FF9314871
:103F100090FBF4F0304988854FF48070ADF82400B0
:103F200018208DF8270003208DF8260009A92B48BA
:103F3000FEF7F0F84FF47A70ADF81C00601E80B206
:103F4000ADF818000020ADF81E00ADF81A008DF88D
:103F5000200006A9224800F0A3FF012211462048B4
:103F600000F038FF01211E4800F0F6FE7020ADF889
:103F700008000020ADF810000120ADF80A004FF451
:103F8000FA70ADF80E0002A9154800F02DFF0821C7
:103F9000134800F075FF0121114800F0D1FE1920EF
:103FA0008DF8040002208DF8050000208DF8060031
:103FB00001208DF8070001A8FEF7F6FE0121084850
:103FC00000F0DCFE0021064800F0CCFE0AB010BD77
:103FD0000002300000A24A0418000020000801403E
:103FE000002C014010B501214E4800F0E2FE0028EF
:103FF00046D001214B4800F0B2FE4B48807828B9EA
:104000004948406A401C4849486204E04648406AC2
:10401000401E454948624448806A401C42498862C3
:10402000084640694149896A884207D100213D48D4
:1040300000F098FE00203C49487010BD3A48807856
:1040400001280CD13A480068012808D100213548E0
:1040500000F088FE0020344948624870EDE732489D
:10406000407802280DD13048C1882E4800F011FF59
:104070002D48C48804EBD47041102A4800F00BFF8F
:104080004DE02948806A2849C969884215D82648E0
:10409000006B254A926A30F81210224800F0F9FEAF
:1040A0002148006B204A926A30F8124004EBD47029
:1040B00041101C4800F0EFFE31E01B4840691A49EE
:1040C000C969401A1849896A88421BD8164840694C
:1040D000154A926A801A144A126B32F8101011486D
:1040E00000F0D7FE104840690F4A926A801A0E4AC3
:1040F000126B32F8104004EBD4704110094800F004
:10410000CAFE0CE00848C188064800F0C2FE064816
:10411000C48804EBD4704110024800F0BCFE00BF1C
:104120008BE70000002C014018000020180100203F
:104130002001234210B50221480700F03AFE002872
:104140006FD00221480700F00AFE6B480078401C3F
:1041500069490870087800EBD0714910A0EB410163
:10416000654A11701046007800BB6448807828B911
:104170006248406A401C6149486204E05F48406A06
:10418000401E5E4948625D48806A401C5B49886207
:1041900008464069896A884208D100214FF0804072
:1041A00000F0E0FD00205549487010BD534880697B
:1041B00060B953480068012808D10021800700F049
:1041C000D1FD00204D4948704862EEE74B488069B8
:1041D0004C49096988420FD14948001D00680128EF
:1041E0000AD10021800700F0BDFD0020434948703E
:1041F000444800694862D8E74048806941494969B4
:1042000088420FD14048006801280BD10021800767
:1042100000F0A8FD0020394948703A4840694862DA
:10422000C3E767E035484078022811D14007808C09
:104230003249C98808444FF6FF7190FBF1F201FB47
:10424000120084B221464FF0804000F024FE51E07D
:104250002A48806A2949C969884216D82748006BCC
:104260002649896A30F811004FF08041898C084452
:104270004FF6FF7190FBF1F201FB120084B2214670
:104280004FF0804000F007FE34E01C4840691B49B5
:10429000C969401A1949896A884219D8174840697A
:1042A0001649896A401A1549096B31F810004FF018
:1042B0008041898C08444FF6FF7190FBF1F201FBBD
:1042C000120084B221464FF0804000F0E4FD11E07E
:1042D0004FF08040808C0949C98808444FF6FF712F
:1042E00090FBF1F201FB120084B221464FF08040B6
:1042F00000F0D1FD00BF58E7A20100201801002006
:1043000038012342BC0300201481224210B58AB038
:10431000044601210846FFF753FC01210520FFF761
:104320005FFC01212F48FDF781FF01212E48FDF799
:104330007DFF2E4890FBF4F02D4988854FF4004016
:10434000ADF8040018208DF8070003208DF8060052
:1043500001A92848FDF7DEFE4FF6FF70ADF82000FA
:10436000601E80B2ADF81C000020ADF82200ADF850
:104370001E0007A94FF0804000F092FD3020ADF8FC
:104380000C004FF4FA70ADF812000120ADF80E00E9
:104390000020ADF814004FF48070ADF81800002034
:1043A000ADF81A0003A94FF0804000F01DFD002178
:1043B0004FF0804000F064FD01220221480700F028
:1043C00009FD1C208DF8080002208DF8090000204E
:1043D0008DF80A0001208DF80B0002A8FEF7E4FC1E
:1043E0000AB010BD00031800000230000051250281
:1043F000180100200008014010B50221574800F0C4
:10440000D8FC002858D00221544800F0A8FC544899
:104410000078401C52490870087800EBD0714910B0
:10442000A0EB41014E4A117010460078F8B94D4892
:10443000807828B94B48406A401C4A49486204E0E9
:104440004848406A401E474948624648806A401CC6
:104450004449886208464069896A884207D1002138
:104460003E4800F07FFC00203E49487010BD3D48AA
:10447000806960B93C480068012808D100213748AC
:1044800000F070FC0020374948704862EEE735487C
:104490004078022811D13148243000883149C98838
:1044A00008444FF6FF7190FBF1F201FB120084B259
:1044B00021462A4800F0EFFC4DE02A48806A29494D
:1044C000C969884215D82748006B2649896A30F89F
:1044D000110022492431098808444FF6FF7190FBEE
:1044E000F1F201FB120084B221461C4800F0D3FC1B
:1044F00031E01C4840691B49C969401A1949896A59
:10450000884217D8174840691649896A401A1549E0
:10451000096B31F810001549098808444FF6FF71FE
:1045200090FBF1F201FB120084B221460B4800F02F
:10453000B2FC10E00948243000880A49C9880844C0
:104540004FF6FF7190FBF1F201FB120084B221469D
:10455000024800F0A0FC00BF88E700000004004013
:10456000A30100209800002030012342242C0140A8
:1045700010B58AB0044601210220FFF721FB01217A
:104580000520FFF72DFB274890FBF4F0264988858E
:104590004020ADF8040018208DF8070003208DF8A6
:1045A000060001A92148FDF7B5FD4FF6FF70ADF8F3
:1045B0002000601E80B2ADF81C000020ADF8220083
:1045C000ADF81E0007A91A4800F06AFC3020ADF8CB
:1045D0000C004FF4FA70ADF812000120ADF80E0097
:1045E0000020ADF8140003A9114800F0FDFB0021E4
:1045F0000F4800F045FC012202210D4800F0EAFBC3
:104600001D208DF8080002208DF8090000208DF88B
:104610000A0001208DF80B0002A8FEF7C5FB0AB0C6
:1046200010BD000000512502980000200008014044
:104630000004004010B50221584800F0BAFB0028E1
:1046400059D00221554800F08AFB55480078401C9B
:1046500053490870087800EBD0714910A0EB410174
:104660004F4A117010460078F8B94E48807828B942
:104670004C48406A401C4B49486204E04948406A43
:10468000401E484948624748806A401C4549886244
:1046900008464069896A884207D100213F4800F0F6
:1046A00061FB00203F49487010BD3F480068012869
:1046B0000CD13C488078012808D10021374800F00F
:1046C00051FB0020374948704862EDE73548407893
:1046D000022811D13148243000883249C988084461
:1046E0004FF6FF7190FBF1F201FB120084B22146FC
:1046F0002A4800F0D0FB4EE02A48806A2949C9695F
:10470000884215D82748006B2649896A30F811007D
:1047100022492431098808444FF6FF7190FBF1F2D9
:1047200001FB120084B221461C4800F0B4FB32E0C9
:104730001C4840691B49C969401A1A49896A88425C
:1047400018D8184840691749896A401A1549096BF1
:1047500031F8100011492431098808444FF6FF71DF
:1047600090FBF1F201FB120084B221460B4800F0ED
:1047700092FB10E00948243000880A49C98808449F
:104780004FF6FF7190FBF1F201FB120084B221465B
:10479000024800F080FB00BF86E7000000080040F0
:1047A000A4010020580100201881224210B58AB0CF
:1047B000044601210420FFF703FA01210920FFF735
:1047C0000FFA274890FBF4F0264988854020ADF881
:1047D000040018208DF8070003208DF8060001A9B9
:1047E0002148FDF797FC4FF6FF70ADF82000601EE2
:1047F00080B2ADF81C000020ADF82200ADF81E001C
:1048000007A91A4800F04CFB3020ADF80C004FF41B
:10481000FA70ADF812000120ADF80E000020ADF8DE
:10482000140003A9114800F0DFFA00210F4800F03E
:1048300027FB012202210D4800F0CCFA1E208DF842
:10484000080002208DF8090000208DF80A000120E0
:104850008DF80B0002A8FEF7A7FA0AB010BD000001
:104860000051250258010020000C014000080040C2
:1048700010B50221574800F09CFA002859D00221B7
:10488000544800F06CFA54480078401C52490870B3
:10489000087800EBD0714910A0EB41014E4A11702D
:1048A00010460078F8B94D48807828B94B48406ADE
:1048B000401C4A49486204E04848406A401E474953
:1048C00048624648806A401C4449886208464069FC
:1048D000896A884207D100213E4800F043FA00204F
:1048E0003E49487010BD3D48807801280CD13C48B5
:1048F0000068012808D10021364800F033FA002072
:10490000364948704862EDE734484078022811D1B2
:104910003048243000883149C98808444FF6FF7177
:1049200090FBF1F201FB120084B22146294800F00D
:10493000B2FA4DE02948806A2849C969884215D8E9
:104940002648006B2549896A30F811002149243135
:10495000098808444FF6FF7190FBF1F201FB120049
:1049600084B221461B4800F096FA31E01B484069AA
:104970001A49C969401A1949896A884217D81748DB
:1049800040691649896A401A1449096B31F81000C8
:104990001449098808444FF6FF7190FBF1F201FBBE
:1049A000120084B221460B4800F075FA10E0094865
:1049B000243000880949C98808444FF6FF7190FBEC
:1049C000F1F201FB120084B22146024800F063FAC2
:1049D00000BF87E7000C0040A50100205800002020
:1049E0002C0123422408004010B58AB0044601215E
:1049F0000820FFF7E5F801210520FFF7F1F8274827
:104A000090FBF4F0264988850120ADF804001820B9
:104A10008DF8070003208DF8060001A92148FDF755
:104A200079FB4FF6FF70ADF82000601E80B2ADF844
:104A30001C000020ADF82200ADF81E0007A91A489E
:104A400000F02EFA3020ADF80C004FF4FA70ADF8FB
:104A500012000120ADF80E000020ADF8140003A9EB
:104A6000114800F0C1F900210F4800F009FA0122B5
:104A700002210D4800F0AEF932208DF80800022026
:104A80008DF8090000208DF80A0001208DF80B0038
:104A900002A8FEF789F90AB010BD000000512502F6
:104AA0005800002000080140000C004010B5012112
:104AB000064800F07EF938B1FCF7ACFFFCF78CFD3E
:104AC000FDF794FEFDF7DEFA10BD00000010004077
:104AD00010B501210A4800F06CF901280AD10949F2
:104AE000086980470021064800F0D7F9642104488E
:104AF00000F0CFF90121024800F031F910BD0000AB
:104B0000001400406C02002010B58AB00446012158
:104B10004803FFF765F801211020FFF761F8012134
:104B20000846FFF75DF8304890FBF4F02F49888580
:104B30004020ADF8240018208DF8270003208DF8C0
:104B4000260009A92A48FDF7E5FA4FF47A70ADF876
:104B50001C00601E80B2ADF818000020ADF81E00E9
:104B6000ADF81A008DF8200006A9224800F098F947
:104B7000012211461F4800F02DF901211D4800F0C7
:104B8000EBF87020ADF808000020ADF8100001200F
:104B9000ADF80A004FF4FA70ADF80E0002A91548FE
:104BA00000F022F90821134800F06AF901211148A8
:104BB00000F0C6F82C208DF8040002208DF80500C6
:104BC00000208DF8060001208DF8070001A8FEF7EF
:104BD000EBF80121074800F0D1F80021054800F06A
:104BE000C1F80AB010BD000000A24A04D80000209D
:104BF000001001400034014010B501214C4800F084
:104C0000D8F8002845D00121494800F0A8F84948C3
:104C1000807828B94748406A401C4649486204E009
:104C20004448406A401E434948624248806A401CEA
:104C30004049886208464069896A884207D1002154
:104C40003B4800F08FF800203A49487010BD3948C1
:104C5000807801280CD138480068012808D100214B
:104C6000334800F07FF80020324948704862EDE791
:104C70003048407802280DD13048C1882C4800F0D7
:104C800008F92E48C48804EBD4704110284800F07D
:104C900002F94AE02748806A2649C969884215D83E
:104CA0002448006B234A926A30F81210204800F022
:104CB000F0F82048006B1F4A926A30F8124004EB6B
:104CC000D47041101A4800F0E6F82EE01948406907
:104CD0001849C969401A1749896A884218D815487D
:104CE0004069144A926A801A124A126B32F8101004
:104CF0000F4800F0CEF80F4840690E4A926A801AB9
:104D00000C4A126B32F81010094800F0C4F80CE09D
:104D10000A48C188064800F0BCF80848C48804EB7B
:104D2000D4704110024800F0B6F800BF8EE70000D2
:104D300000340140D80000203401234258000020F4
:104D400021B1028842F08002028004E002884FF61E
:104D50007F731A4002807047CA4302827047CA4379
:104D60000282704721B1028842F00102028004E011
:104D700002884FF6FE731A400280704731B1B0F8D6
:104D8000442042F40042A0F8442005E0B0F844205A
:104D9000C2F30E02A0F8442070470146888C704789
:104DA00002460020138A0B400BB1012000E00020D6
:104DB000704730B50246002000230024158A05EA1A
:104DC0000103958905EA010413B10CB1012000E04B
:104DD000002030BD1AB183890B43838102E08389AF
:104DE0008B4383817047000070B5002400220023AC
:104DF000058C4FF6FE7635400584028C8388048B43
:104E00004FF68F752C40B51E2C400D882C43751E17
:104E10002A400D892A434D882A43144DA8420BD0BD
:104E2000134DA84208D0134DA84205D0124DA842F8
:104E300002D0124DA84213D14FF6F7752A404D8982
:104E40002A434FF6FB752A408D882A434FF6FF65AB
:104E50002B404FF6FF552B408D892B43CD892B439B
:104E600083800483CD888586028470BD002C014038
:104E7000003401400040014000440140004801402E
:104E80000A460021018B4FF6F77319401143018345
:104E90007047818570478186704781847047000024
:104EA000002202881D4B98420ED01D4B98420BD019
:104EB000B0F1804F08D01B4B984205D01A4B984256
:104EC00002D01A4B984204D14FF68F731A404B8888
:104ED0001A43174B984207D0164B984204D04FF60E
:104EE000FF431A40CB881A4302808B8883850B8846
:104EF00003850A4B98420BD0094B984208D00E4BC1
:104F0000984205D00D4B984202D00D4B984201D1EA
:104F10000B7A03860123838270470000002C014036
:104F2000003401400004004000080040000C004034
:104F300000100040001400400040014000440140C7
:104F40000048014010B5FDF789FF40F225511E4889
:104F500000F04CF810B31C4800F004F9C4B21B4830
:104F6000008800F40040C8B91848008800F4804068
:104F700060B10A2C03D000201449088020E01348B7
:104F8000008840F400401149088019E00D2C06D13A
:104F90000E48008840F480400C49088010E00B481F
:104FA0000088C0F30D000A490C5408480088401CD2
:104FB0000649088008460088C72801DD00200880CF
:104FC000FDF75EFF10BD000000380140A001002089
:104FD000E40C002021B1828942F40052828104E075
:104FE00082894DF6FF731A408281704770B5024680
:104FF000002400230025002040F66A16B14200D1AB
:1050000000BFC1F3421501F01F03012606FA03F3A6
:10501000012D02D19689334006E0022D02D1168A75
:10502000334001E0968A33400C12012606FA04F45C
:105030001688344013B10CB1012000E0002070BD8F
:10504000F0B50346002400260025002040F66A172C
:10505000B94200D100BF1846C1F3421401F01F0647
:10506000012707FA06F5012C01D10C3004E0022CCF
:1050700001D1103000E014301AB107682F430760E7
:1050800002E00768AF430760F0BD00002DE9F0477C
:1050900086B005460E460024A24600BFA146002762
:1050A000B08900B100BF2F462C8A4CF6FF70044037
:1050B000F08804432C82AC894EF6F3100440B0888B
:1050C00031890843718908430443AC81AC8A4FF6A7
:1050D000FF400440B0890443AC8201A8FEF7A0FD64
:1050E0001F48874202D1DDF810A001E0DDF80CA0D6
:1050F000A88900F4004040B10AEBCA0000EB0A1096
:1051000031684900B0FBF1F807E00AEBCA0000EB98
:105110000A1031688900B0FBF1F86420B8FBF0F0A8
:1051200004012009642101FB1089A88900F40040D2
:1051300040B1322000EBC900B0FBF1F000F00700F5
:10514000044308E0322000EB09106421B0FBF1F0C9
:1051500000F00F0004432C8106B0BDE8F08700008A
:105160000038014001468888C0F30800704700BF3E
:10517000FEE74100080218BF04200A0E18BF40F0E5
:1051800001004FF07F4232EA010108BF40F0020007
:10519000012808BF05207047012102F028BC6121C9
:1051A0004FF0E04002F023BC6FF05E01080702F010
:1051B0001EBC30380A2801D20120704700207047F9
:1051C00000BF704710B5072301220D210848FBF7E7
:1051D00097FB01210648FBF7F4FB00BF02210448BE
:1051E000FBF752FB0028F9D00148FBF749FB10BD43
:1051F0000028014000B587B001214FF48260FEF71E
:10520000EFFC0820ADF8040000208DF80700032013
:105210008DF8060001A91A48FCF77CFF4FF4004006
:10522000FEF7C2FC1748FBF7F3FA002002908DF856
:105230000C008DF80D004FF46020049000200590C4
:1052400001208DF8180002A90E48FBF731FB01215F
:105250000C48FBF7D1FA0B48FBF7AEFB00BF09483F
:10526000FBF71BFB0028FAD10648FBF7B5FB00BF94
:105270000448FBF7FBFA0028FAD107B000BD000094
:10528000001001400028014005480068012805D1B0
:1052900004484068407808B9012070470020FCE7C6
:1052A000300123427803002010B56FF00400FEF7B0
:1052B000C9FD104800681049B0FBF1F00F490870B3
:1052C0000C4800680C49B0FBF1F441F288304443CB
:1052D00005200B4908804FF0E020006940F00200F3
:1052E0004FF0E021086108464461006940F0010088
:1052F000086110BD0000002000127A009801002013
:105300009A01002070B504460F480078A0B10F48FC
:10531000007888B90E480088844206DB0C48008873
:1053200094FBF0F5284600F01DF80948008894FB2E
:10533000F0F100FB114084B24FF47A7104FB01F0EC
:1053400000F016F870BD0000FE010020F101002001
:105350009A01002010B5FDF7DBFD10BD10B5FDF77B
:10536000F7FD10BD10B504462046FEF719F810BD34
:105370002DE9F047074600264FF0E020D0F81490C2
:105380001148007807FB00F800BFFFF7E3FF4FF07C
:10539000E020856911E04FF0E0208469AC420CD038
:1053A000AC4202D2281B064403E0A9EB04002844C7
:1053B00006442546464500D300E0ECE700BFFFF772
:1053C000CDFFBDE8F0870000980100202DE9F041F5
:1053D00004464FF019404E49002500EB4400884236
:1053E0004AD84C49204602F023F902F01FFA8046C1
:1053F00002F082F806464849404602F019F907468D
:105400004649404602F014F9214602F03FFA394677
:1054100002F046FA0446424902F00AF9414901F015
:1054200035FF214602F004F96FF0414101F02EFFF3
:10543000214602F0FDF83C4901F028FF214602F028
:10544000F7F80146394806F00304784450F8240080
:1054500002F0EEF83649794451F8241001F016FFB5
:105460003449794451F8241001F010FFB11085BB84
:10547000BDE8F04102F0BBBA4FF0FF4131EA040051
:1054800018D04FF0CE41B1EB440F84BF4FF07E50A7
:10549000BDE8F0812849B1EB440F28BF0125A0D217
:1054A0000220FBF7D0F814F0004F0ED0BDE8F04119
:1054B000FFF77ABE204614F5000F04BF0020BDE8B8
:1054C000F081BDE8F041FFF767BEBDE8F041FFF7AE
:1054D00066BE02F08CFA04000BD0B4F1FF4F0FD07F
:1054E000FFF747FE042808BFFFF75EFE2046BDE831
:1054F000F0810220FBF7A7F8BDE8F041FFF754BEAA
:105500000220FBF7A0F8BDE8F041FFF748BE00001D
:105510000000501E3BAAB840F4FD05370070313E34
:1055200012BB2A3D12BB2A3EFFFF7F3F922700009D
:10553000762700005A2700000000A08500BF054A1A
:10554000128802F04002002AF9D0C2B2014B1B1DA2
:105550001A8070470038014007E0FDF799F964238D
:10556000002211461046FDF757FFF6E770B50546D5
:105570000C4635B10120A04081B20548FCF7A0FEE1
:1055800005E00120A04081B20148FCF797FE70BD04
:105590000014014010B54FF4A060FDF73DFCFFF78B
:1055A00083FEFBF71EFA4FF4E13000F0E5FA1148F4
:1055B00000681149B0FBF1F0C4B2104841682046C0
:1055C000884700F039FAFDF739F9FDF7D7FB0020DD
:1055D00000F06CF96420FFF795FEFDF727FC0A2325
:1055E000074A00210748FDF709FDFDF7E1FC00200F
:1055F00010BD00000000002040420F006C0200209F
:10560000E0040020595500082DE9F04104460D46FC
:1056100017464FF000080026002D03DDA561606AE3
:105620002E1A15E00020A061207800F09BF80128D8
:1056300007D1204600F097FA002060626061BDE863
:10564000F081606A002801DC206A6062606A2E1ABC
:1056500094F80280002E06DD0020A0700021204674
:1056600000F0ACF80DE0002E07DA0120A070012157
:10567000204600F0A3F8764203E0204600F073FADB
:10568000DDE7A078404502D0052000F0CBF80220ED
:10569000607066610020A06227B1A08DB0FBF7F0BA
:1056A000E08004E0A08D2169B0FBF1F0E080E188AA
:1056B000204600F026FA00BFC1E72DE9F04104467C
:1056C0000D4600270026A778002D03DDA561606A3E
:1056D0002E1A16E00020A061207800F043F801287F
:1056E00008D1204600F03FFA00206062606101208E
:1056F000BDE8F081606A002801DC206A6062606AAF
:105700002E1A002E06DD0020A0700021204600F099
:1057100055F80EE0002E07DA0120A0700121204686
:1057200000F04CF8764204E0204600F01CFA01201C
:10573000DEE766610020A062A078B84202D00520B2
:1057400000F070F8204600F09CF9206B28B1206B27
:105750000188204600F0D5F902E000206070C7E71C
:105760000120C5E70146062920D2DFE801F0030742
:105770000C11161B0F480068C0B270470D480C3062
:105780000068C0B2F9E70B4810300068C0B2F4E717
:10579000084814300068C0B2EFE7064818300068C7
:1057A000C0B2EAE704480068C0B2E6E700BF00BF45
:1057B00000BFE2E7200123421881224210B50246D1
:1057C000002011B992F8340006E092F834300BB999
:1057D000012300E0002318461378062B19D2DFE8D6
:1057E00003F00306090D10140B4B186012E00B4B6D
:1057F00018600FE0094B183318600BE0084B186075
:1058000008E0054B1B1F186004E0034B0C331860C5
:1058100000E000BF00BF10BD908121428401214201
:105820009C012242002106E0022100BF0A1EA1F1D4
:10583000010399B2FAD1021EA0F10100F4D1704720
:105840002DE9F04104460E461548005D38B914486C
:1058500018380168204688470120BDE8F0811148CA
:1058600050F82400B04219D90F4850F82400B6FB74
:10587000F0F10B48083850F8240030F811200025CA
:1058800008E000230648083850F824004F1920F893
:1058900017306D1C9542F4DB0020DEE70220DCE7C8
:1058A000C00100207C7A0008747A000810B5044614
:1058B0000C4951F824104A000B4951F824000021EA
:1058C00000F0B0F8094951F824200749083951F887
:1058D0002400002100F0A6F80121034808300155FA
:1058E00010BD00006C7A0008B80100207C7A000826
:1058F0002DE9F04704460F460025A9462348005DE0
:1059000020B9224818380168204688471FB94FF04F
:10591000FF30BDE8F0871E4850F82400B7FBF0F6D2
:105920001B4850F82400B7FBF0F100FB117000B1E8
:10593000761C184850F82400451E22E01348083809
:1059400050F8240030F8150010B909F1010901E000
:105950004FF00009B14513D14FF0000809E00B48A2
:10596000083850F8240005EB080220F8126008F10E
:105970000108B045F3D3064850F824006843C8E74F
:105980006D1E002DDADA4FF0FF30C2E7C0010020B3
:10599000747A00086C7A000810B5014600230022D2
:1059A00007E00B4850F8210030F8120000B15B1CF2
:1059B000521C084850F821009042F2D86420584305
:1059C000044C54F82140B0FBF4F0C0B210BD00000C
:1059D000B80100206C7A000870B505460C4604B981
:1059E00070BD054850F82500261A31462846FFF7B5
:1059F00027FF00BFF4E70000B001002070B50446A7
:105A00000E4631462046FFF773FF0546681C08B96D
:105A1000002070BD024850F824002844F9E7000037
:105A2000B001002030B5034601E003F8011B141E4D
:105A3000A2F10102F9D130BD08B5FBF731FAFBF74D
:105A400061FA28208DF8000001208DF80100002067
:105A50008DF8020001208DF803006846FDF7A4F9D7
:105A600017208DF8000001208DF801008DF802004C
:105A70008DF803006846FDF797F908BD01460868F0
:105A800070472DE9FC410446206B18B10020216BC2
:105A9000FFF7A2FFA18801EB81016069B0EB810FE4
:105AA00026D3E06941000020FFF7A8FF2063A08D06
:105AB000A168B0FBF1F0E080A06801F071FD05463F
:105AC000E06801F06DFD0646A08D01F069FD074616
:105AD000E06901F065FD8046A06BCDE900503346DA
