:020000040800F2
:10000000485E00208502000821460008BD3F000828
:1000100025450008F30B0008F77A000800000000EF
:10002000000000000000000000000000715A0008FD
:10003000170F000800000000130300087D5E000891
:100040009F0200089F0200089F020008FD5600085A
:100050009F0200089F020008190F00089F02000875
:100060009F020008A9100008E11000089F02000884
:100070009F020008E50C00089F0200089F0200088C
:100080009F0200089F0200089F0200089F020008CC
:100090009F0200089F0200089F0200081911000833
:1000A0009F020008F55F00089F0200089F020008F9
:1000B0003D610008A5630008F16500089F02000883
:1000C0009F0200089F0200089F0200089F0200088C
:1000D0009F020008BD7800089F0200089F020008E8
:1000E0008D0F00089F0200089F0200089F02000871
:1000F000516C00089F0200089F0200089F02000840
:100100009F0200089F0200085D6800089F02000827
:100110009F0200089F0200088D6A0008216B0008FA
:100120009F0200089F0200089F0200089F0200082B
:1001300000F002F800F06DF80AA090E8000C82448C
:100140008344AAF10107DA4501D100F062F8AFF269
:10015000090EBAE80F0013F0010F18BFFB1A43F0A5
:1001600001031847302D0100502D01000A444FF0C3
:10017000000C10F8013B13F0070408BF10F8014B06
:100180001D1108BF10F8015B641E05D010F8016B4B
:10019000641E01F8016BF9D113F0080F1EBF10F8AF
:1001A000014BAD1C0C1B09D16D1E58BF01F801CBD2
:1001B000FAD505E014F8016B01F8016B6D1EF9D555
:1001C0009142D6D37047000000230024002500266A
:1001D000103A28BF78C1FBD8520728BF30C148BFAA
:1001E0000B607047642900F02581752900F0228199
:1001F000782900F05B81632900F05B83732900F0AC
:100200006083002070471FB500F055FA1FBD10B580
:1002100010BD00F0BFFB1146FFF7F5FF08F064F9D1
:1002200000F0DDFB03B4FFF7F2FF03BC07F0E1FDD4
:10023000EFF30980704780F309887047EFF3088077
:10024000704780F30888704740BA7047C0BA70475B
:100250000B49D1F800C04A685CF8043B10681844A8
:1002600042F8040B8C4528BFA1F1DC0C8A4228BF60
:10027000A1F1DC02C1F800C04A6020F000407047E4
:10028000DC5700200948804709480047FEE7FEE7A1
:10029000FEE7FEE7FEE7FEE7FEE7FEE7FEE7FEE736
:1002A00004480549054A064B70470000995E00085E
:1002B0003101000848580020485E0020485A0020BC
:1002C000485A0020EFF3108072B6704780F3108810
:1002D0007047204C204D25604FF0000484F30988BE
:1002E0001E4C4FF0010525701D4C4FF080552560C8
:1002F00062B6FEE730B41A4C4FF08055256030BC32
:10030000704730B4164C4FF08055256030BC7047B4
:1003100000BF72B6EFF3098028B1203880E8F00FF3
:1003200010490968086000B50F4880475DF804EB84
:100330000E480F490A7802700A480E490A6802609E
:10034000106890E8F00F203080F309884EF0040E1A
:1003500062B6704720ED00E00000FFFF2E02002093
:1003600004ED00E034020020B54C00082302002018
:10037000240200203C020020704700000FB4044912
:1003800010B503AA029800F0A1FA10BC5DF814FBA6
:10039000CC01002070B5044685690068C10601D50E
:1003A000302600E02026C00707D070BDD4E9012127
:1003B00030469047206A401C20626D1EF6D570BD05
:1003C00070B5044685690078C00707D170BDD4E9CF
:1003D000012120209047206A401C20626D1EF6D526
:1003E00070BD70B50C460546012A05D028788006F8
:1003F00000D5EA69002302E0012305E05B1C93427B
:1004000002D2E05C0028F9D1A869E618C01AA861F8
:10041000286A184428622846FFF7BCFF04E0D5E9A3
:10042000012114F8010B9047B442F8D32846FFF796
:10043000C7FF70BD2DE9F0410646002410687529FC
:10044000314616A510D0AFF30080002802DA4042F2
:1004500013A507E031688A0701D512A502E0490714
:1004600004D511A5012401E0AFF3008000210A2288
:1004700006F1240709E0B0FBF2FCB0FBF2F302FB4B
:100480001C00303078541846491C0028F3D123460C
:100490002A463046BDE8F04100F0A8B9000000004F
:1004A0002D0000002B0000002000000070B5044665
:1004B0000D4621461068AFF300802188090502D55A
:1004C0000F4A7A4402E00E4A7A440E32002104F1C7
:1004D000240305E000F00F060009965D5E54491CF8
:1004E0000028F7D120780023000704D5702D02D012
:1004F00009B1022311322046BDE8704000F076B900
:100500008A2701002DE9F05F894604464FF0000A72
:10051000DFF874B1FB44C0F820A02046E1688847AA
:10052000002874D0252806D0D4E901219047206AFC
:10053000401C2062F1E700265F462046E1688847BC
:100540002028054607DB312D05D2781910F8200C3C
:1005500008B10643F1E7B00701D526F00406C4F858
:100560001CA00027C4F818A02A2D09D0284607F09F
:1005700039FC38B304EB8708303DC8F8185019E04F
:1005800059F8041B204604EB87029161E168884713
:10059000012F054618D1E069002820DA26F0200650
:1005A0001DE0D8F8180000EB800005EB4000303863
:1005B000C8F818002046E1688847054607F012FC95
:1005C0000028EED1012F0AD02E2D08D12046E16857
:1005D00088477F1C0546022F46F02006C4DBA06931
:1005E000002803DA404246F00106A061F00701D07E
:1005F00026F010066C2D0BD0682D09D04C2D39D06B
:100600006A2D35D0742D35D07A2D33D016E038E0F0
:10061000E1682F4620468847B842054609D16C2F2D
:1006200026D04FF48060E16806432046884705469F
:1006300004E06C2F1AD04FF4807006430DB3A5F17F
:100640004100192802D8203546F400664A4629465A
:10065000204626604E46FFF7C5FD80B101280BD02D
:10066000F61D26F0070000F1080956E74020E4E7F0
:100670008020D8E70020D6E706F104094DE7284698
:1006800052E7206ABDE8F09F602701000B4910B5D2
:10069000A1F17C020A4CC2E93712372106E000EBD7
:1006A000104342F82130074B00FB03400B1EA1F121
:1006B0000101F4DC10BD0120E8E700007C570020B8
:1006C000E119D666CD0D0100032A40F2308010F00A
:1006D000030C00F0158011F8013BBCF1020F6244DD
:1006E00098BF11F801CB00F8013B38BF11F8013B6E
:1006F000A2F1040298BF00F801CB38BF00F8013B1B
:1007000011F0030300F0F480083AC0F0088051F8BB
:10071000043B083A51F804CBA0E80810F5E7121D95
:100720005CBF51F8043B40F8043BAFF30080D207B4
:1007300024BF11F8013B11F801CB48BF11F8012B80
:1007400024BF00F8013B00F801CB48BF00F8012BA3
:1007500070474FF000020429C0F0128010F0030C23
:1007600000F01B80CCF1040CBCF1020F18BF00F8A4
:10077000012BA8BF20F8022BA1EB0C0100F00DB853
:100780005FEAC17C24BF00F8012B00F8012B48BFB1
:1007900000F8012B70474FF0000200B51346944655
:1007A0009646203922BFA0E80C50A0E80C50B1F1C9
:1007B0002001BFF4F7AF090728BFA0E80C5048BFDD
:1007C0000CC05DF804EB890028BF40F8042B08BF7B
:1007D000704748BF20F8022B11F0804F18BF00F877
:1007E000012B704770477047704770472DE9F047FD
:1007F0000D4699469246044600F124080168880691
:1008000004D5E06921F01001216000E00120A84238
:1008100001DD471B00E00027A1697A1902EB0900FE
:10082000081AA0612078C00602D42046FFF7B2FD66
:10083000002608E0D4E901211AF806009047206A52
:10084000401C761C20624E45F4DB2078C0060AD599
:100850002046FFF79FFD06E0D4E9012130209047B4
:10086000206A401C2062381EA7F10107F4DC07E073
:10087000D4E9012118F805009047206A401C206245
:10088000281EA5F10105F3DC2046FFF799FD20782D
:10089000000602D50220BDE8F0870120FBE710B575
:1008A000436913B1AFF3008001E0FFF79AFD012027
:1008B00010BD127800F124010A7000224A70012252
:1008C000EDE711684FF0FF32E9E70000074B70B524
:1008D0000D467B4400F043F80446284600F052F8E9
:1008E00010B14FF0FF3070BD204670BDEF7A0000B0
:1008F00010B5203AC0F00B80B1E81850203AA0E8BB
:100900001850B1E81850A0E81850BFF4F5AF5FEAEE
:10091000027C24BFB1E81850A0E8185044BF18C9A1
:1009200018C0BDE810405FEA827C24BF51F8043B48
:1009300040F8043B08BF7047D20728BF31F8023B9C
:1009400048BF11F8012B28BF20F8023B48BF00F830
:10095000012B704701694A1C02610878704700B595
:100960008FB0CDE901310021059105497944CDE9E8
:10097000031011466846FFF7C5FD0FB000BD00002B
:10098000E5FFFFFF007B00F08000704700487047E4
:10099000E45700207546FFF7F9FFAE4605006946AB
:1009A000534620F00700854618B020B5FFF778FCC5
:1009B000BDE820404FF000064FF000074FF0000860
:1009C0004FF0000B21F00701AC46ACE8C009ACE8E1
:1009D000C009ACE8C009ACE8C0098D46704710B545
:1009E0000446AFF300802046BDE81040FFF71ABC74
:1009F00021B1826842F00102826003E0826822F045
:100A0000010282607047000010B50446124884421B
:100A100008D10121401504F0B1FD0021601504F05A
:100A2000ADFD17E00D48844208D10121001504F006
:100A3000A5FD0021201504F0A1FD0BE0084884422B
:100A400008D10121C80304F099FD00214FF40040B2
:100A500004F094FD10BD0000002401400028014076
:100A6000003C0140014600208A6802F004020AB1FD
:100A7000012000E0002070470146C86C80B270473A
:100A80000246002013680B400BB1012000E000205B
:100A90007047014600208A6802F008020AB101206E
:100AA00000E000207047000030B50246002000231F
:100AB00050680F4C20400D790C6844EA052420430F
:100AC000506090680B4C2040D1E902542C434D7982
:100AD00044EA450420439060D06A20F470000C7C06
:100AE000641EE4B2234340EA0350D06230BD0000EC
:100AF000FFFEF0FFFDF7F1FFF0B504460D460020C4
:100B00000021092D11DDE068A5F10A0606EB460774
:100B1000072606FA07F18843A5F10A0606EB460602
:100B200003FA06F10843E0600CE0206905EB450795
:100B3000072606FA07F1884305EB450603FA06F196
:100B400008432061072A0FDA606B561E06EB860702
:100B50001F2606FA07F18843561E06EB860605FA9D
:100B600006F10843606322E00D2A0FDA206BD61FDE
:100B700006EB86071F2606FA07F18843D61F06EB09
:100B8000860605FA06F10843206310E0E06AA2F148
:100B90000D0606EB86071F2606FA07F18843A2F129
:100BA0000D0606EB860605FA06F10843E062F0BD85
:100BB000816841F008018160704721B1826842F488
:100BC000A002826003E0826822F4A0028260704783
:100BD000816841F004018160704710B503F024FC86
:100BE00004F04CFD03F0ECF903F09EFC03F0D8FB9D
:100BF00010BD00BFFEE7000012480078042812DC98
:100C000011480068012801D0012070470F48806812
:100C1000C0690E49098A884212D00C488068407821
:100C200070B90120F1E709488068C0690749098A5D
:100C3000884205D005488068407808B90120E4E77B
:100C40000020E2E73404002008012242E8030020EB
:100C500010480068012814D10F480068012816D1F7
:100C60000E484068407890B90D484068C0690C490A
:100C7000496988420BD10A484068407838B9012058
:100C8000704706484068407808B90120F8E700201E
:100C9000F6E70000080122420C81224234040020C1
:100CA0000C04002010B506480068012805D000217A
:100CB000402000F013FC002010BD0120FCE70000E4
:100CC0000481224210B506480068012805D00021A1
:100CD000102000F003FC002010BD0120FCE7000004
:100CE0003801234210B54FF4007000F0D5F850B130
:100CF0004FF4007000F00CF880210348FFF74BFD23
:100D0000024803F0FDFB10BDF41E0020300002403D
:100D100000F0805111B10349086001E002494860C8
:100D200070470000040402400000024021B1026844
:100D300042F00102026004E002684FF6FE731A40BE
:100D40000260704701684FF6FE7211400160002199
:100D5000016041608160C1604B49884208D14A49C5
:100D60000839496841F00F01474A083A51608AE062
:100D700045491431884208D143490839496841F04E
:100D8000F001414A083A51607DE03F4928318842EC
:100D900008D13D490839496841F470613A4A083A36
:100DA000516070E038493C31884208D136490839F1
:100DB000496841F47041344A083A516063E032496D
:100DC0005031884208D130490839496841F47021CE
:100DD0002D4A083A516056E02B496431884208D1C7
:100DE00029490839496841F47001274A083A516095
:100DF00049E025497831884208D1234908394968B2
:100E000041F07061204A083A51603CE01F49884235
:100E100006D1011F096841F00F01021F116032E085
:100E20001A491431884208D11849091F096841F04C
:100E3000F001164A121F116025E01449283188423A
:100E400008D11249091F096841F470610F4A121F45
:100E5000116018E00D493C31884208D10B49091F47
:100E6000096841F47041094A121F11600BE00749FB
:100E70005031884207D10549091F096841F47021A2
:100E8000024A121F11607047080002400804024025
:100E90000146486880B2704701460020002201F0F8
:100EA000805313B1054B1A6801E0054B1A6802EA3A
:100EB00001030BB1012000E0002070470004024054
:100EC000000002401AB103680B43036002E00368AC
:100ED0008B430360704710B50022026847F6F07339
:100EE0009A430C6A8B6823430C6923434C69234360
:100EF0008C692343CC6923434C6A23438C6A234384
:100F00001A430260CB6843600B6883604B68C36020
:100F100010BD41607047704710B5012000F0A8F97E
:100F200050B3322007F048F9144800780C280CD14F
:100F30001348006801281CD00021124805F036FF34
:100F4000002011494870086213E00C480078062818
:100F50000FD10A4890F8280001280AD108480068F3
:100F6000012806D00021074805F020FF002006498F
:100F70004870012000F076F910BD00003404002014
:100F800000812242000800407801002010B53AA0FC
:100F9000FFF7F4F94FF4806000F06AF990B1322065
:100FA00007F00AF937480068012807D100213648C0
:100FB00005F0FCFE00203549C86148704FF48060A0
:100FC00000F050F94FF4006000F052F998B1C820D9
:100FD00007F0F2F82B48001D0068012807D0002117
:100FE0002B4805F0E3FE00202A49C86148704FF401
:100FF000006000F037F94FF4805000F039F9B8B1D3
:10100000322007F0D9F81F480830006801280BD1BA
:101010000021214805F0CAFE01201A4974310860F8
:1010200000201E49C86148704FF4805000F01AF942
:101030004FF4005000F01CF998B1322007F0BCF8D2
:1010400010480C300068012807D10021144805F031
:10105000ADFE00201349C86148704FF4005000F005
:1010600001F94FF4004000F003F918B14FF40040CB
:1010700000F0F8F810BD00006578746931352D3145
:10108000300D0A0028012342002C01404C000020B2
:10109000000C00408800002000040040C400002034
:1010A000003401400001002010B5082000F0E0F8F5
:1010B00088B1322007F080F807480068012807D17E
:1010C0000021800705F072FE00200449C8614870C5
:1010D000082000F0C7F810BD0C8122423C0100201E
:1010E00010B5102000F0C4F888B1322007F064F881
:1010F00007480068012807D1064800780E2803D168
:101100000120044981F82500102000F0ABF810BD43
:10111000108122420C04002010B5202000F0A8F815
:10112000B0B1322007F048F838480068012809D1EA
:101130000021800705F03AFE354840693549C8610D
:1011400000204870202000F08DF833A0FFF716F93A
:10115000402000F08DF8A8B1322007F02DF82B4880
:10116000001D0068012807D100212F4805F01EFE50
:1011700000202E49C8614870402000F073F82CA070
:10118000FFF7FCF8802000F073F890B1322007F0F0
:1011900013F81E4808300068012807D12848007855
:1011A0000E2803D10120264981F82500802000F077
:1011B00059F84FF4807000F05BF8E8B1322006F087
:1011C000FBFF20480078062812D11F48006801283C
:1011D0000ED11D48001D0068012809D000211B48C0
:1011E00005F0E4FD00201A4948701AA0FFF7C6F880
:1011F0004FF4807000F036F84FF4007000F038F8CB
:1012000018B14FF4007000F02DF810BD1481224287
:10121000340400203C010020474F485F656E645F46
:1012200073656E0D0A000000000800407801002080
:10123000474F565F73746172745F53656E0D0A0099
:101240000C040020C803002020012342002C014090
:101250004C00002047455F646F776E5F53656E20DA
:101260000D0A0000014908607047000014040140A5
:10127000014600200022074B1B6803EA0102054BD0
:1012800014331B680B4013B10AB1012000E00020A9
:101290007047000000040140002123498279002AA0
:1012A0003AD00A46126803689A430B461A600A1D30
:1012B000126803689A430B1D1A60027911440A6888
:1012C00003681A430A60184A0832126803689A438E
:1012D000154B08331A601A1D126803689A43124BA3
:1012E0000C331A604279102A0ED11A1F1268036853
:1012F0001A430D4B08331A601A1D126803681A430B
:10130000094B0C331A600DE00749427911440A6811
:1013100003681A430A6005E0027911440A68036809
:101320009A430A60704700000004014008B5414834
:1013300002684148018841A0FFF720F83E48008834
:1013400000F0010070B13B480078434900900878F4
:101350000978491C404B197001230622114606F0FA
:1013600091FD08BD3448008800F0200058B13A498A
:1013700008780978491C384B197009230622114650
:1013800006F060FDEDE72C48008800F0400058B101
:10139000314908780978491C2F4B19700A23062215
:1013A000114606F04FFDDCE72348008800F01000EE
:1013B00058B1294908780978491C274B1970082326
:1013C0000622114606F03EFDCBE71B48008800F0E0
:1013D000800058B1204908780978491C1E4B1970C3
:1013E0000B230622114606F02DFDBAE712480088AD
:1013F00000F4807058B1184908780978491C164BD8
:1014000019700C230622114606F01CFDA9E70A48B4
:10141000008800F4007058B10F4908780978491C19
:101420000D4B19700D230622114606F00BFD98E7AF
:1014300000BF96E7240000206A0400206572726FE6
:10144000723A2564206572726F725F73656E736F96
:101450007225640D0A000000C701002038B504465B
:101460000D4605F0C1FE0020164988764870082018
:1014700008700020144981F82000C8700F200870FF
:101480000020124981F82300887010200870002085
:101490000F4981F8280088700F2008700D480088D7
:1014A00040F002000B4908800B4900950878097844
:1014B000491C094B197023460622114606F0E2FC2E
:1014C00038BD0000C8030020E80300200C04002001
:1014D000340400206A040020C701002070B50446CF
:1014E0000D464E48008820434C4908804C48056012
:1014F0000846008800F0010018B305F075FEFFF7FC
:1015000015FF00204749887602204870082008709F
:101510000020454981F820000220C8700F20087083
:101520000020424981F823000220887010200870B2
:1015300000203F4981F82800022088700F200870A1
:1015400070BDFFF7F3FE3548008800F0200030B191
:1015500009203649C87000208870102008702F4874
:10156000008800F0400038B1304800782F49C8703A
:1015700000208870102008702848008800F01000B3
:1015800038B12B4800782A49C870002088700F2095
:1015900008702248008800F0800038B124480078A4
:1015A0002349C870002088700F2008701B480088ED
:1015B00000F4807030B109201B4988700020C87089
:1015C0000F2008701548008800F4007008B3072049
:1015D0001649C8700020887010200870002081F81B
:1015E000230008201249C870002088700F2008705E
:1015F000002081F828000C4800780B2809DD0B201A
:10160000094988700020C8700F200870002081F8F8
:10161000200003200749087000BF91E76A040020FA
:1016200024000020C8030020E80300200C04002050
:10163000340400206804002008B50121302003F0A4
:101640008DFFFB20ADF8000048208DF803006946AF
:10165000054801F0B3FD0420ADF8000069460348D9
:1016600001F0ACFD08BD0000001401400010014075
:1016700008B50121402003F071FF4FF47F40ADF821
:10168000000048208DF803006946024801F096FDED
:1016900008BD0000001801401CB5FFF7CDFF012177
:1016A000084603F05BFF00208DF8040001208DF850
:1016B00006000021032001F061FD0C208DF80500DB
:1016C000012000906846FFF7E7FD0321084601F07E
:1016D00055FD08208DF8050000906846FFF7DCFDF9
:1016E0000421032001F04AFD08208DF80500102098
:1016F00000906846FFF7D0FD0521032001F03EFD74
:1017000008208DF80500202000906846FFF7C4FDF2
:101710000621032001F032FD08208DF8050040204D
:1017200000906846FFF7B8FD0721032001F026FD71
:1017300008208DF80500802000906846FFF7ACFD7A
:101740001CBD0EB5FFF794FF0121084603F006FF0C
:1017500000208DF8080001208DF80A000D210420DA
:1017600001F00CFD08208DF809008002019001A80D
:10177000FFF792FD0C21042001F000FD08208DF8F8
:1017800009004002019001A8FFF786FD0B2104200B
:1017900001F0F4FC0C208DF809004FF4006001907A
:1017A00001A8FFF779FD0A21042001F0E7FC0820D9
:1017B0008DF80900C001019001A8FFF76DFD082117
:1017C000042001F0DBFC08208DF8090040010190A5
:1017D00001A8FFF761FD28208DF8000002208DF898
:1017E000010000208DF8020001208DF803006846FA
:1017F00002F018FF17208DF8000002208DF801007C
:1018000000208DF8020001208DF80300684602F0E8
:1018100009FF0EBD0149C86070470000002002406A
:1018200030B5044604254FF4302000F06FF805462B
:10183000042D17D10C48006940F002000A490861E4
:1018400008464461006940F0400008614FF43020D0
:1018500000F05CF805460448006941F6FD71084057
:1018600001490861284630BD0020024004200B4990
:10187000C96801F0010109B101200EE00749C968FA
:1018800001F0040109B1022007E00449C96801F030
:10189000100109B1032000E004207047002002403D
:1018A0000348006940F0800001490861704700006A
:1018B0000020024070B504460D460426F00200F0F8
:1018C00025F80646042E11D10948006940F00100B0
:1018D000074908612580F00200F018F80646044820
:1018E000006941F6FE71084001490861304670BD4B
:1018F000002002400248034948600348486070479E
:101900002301674500200240AB89EFCD00B50246B8
:101910000423FFF7ABFF034603E0FFF7A7FF0346EF
:10192000521E012B01D1002AF7D102B90523184616
:1019300000BD000010B549480078102809D2DFE842
:1019400000F008090C120F151F292A474C556C7C12
:10195000888980E003F0F0FE7DE003F0EDFE7AE0A0
:1019600003F0EAFE77E003F0E7FE74E000203B4975
:10197000487081F8210081F82000C87008706AE082
:1019800000203649487081F8210081F82000C87095
:10199000087060E05FE03248007806280BD13048DC
:1019A0004078022807D100202C49C87081F8200017
:1019B000092008700BE02A480078072807D100208A
:1019C000264981F820000E2008700020C87042E0EF
:1019D00004210A2002F068FE3DE000201F49C87083
:1019E0000B200870002081F8200034E01D480078AA
:1019F000082811D11B48807802280DD11A48406868
:101A0000C06919494969884206D10020134981F803
:101A10002000C8700C2008701DE0124800780928CA
:101A20000AD110488078022806D100200B4981F89D
:101A30002000C8700D2008700DE0084890F82200C2
:101A400030B90020054981F82000C87007200870CF
:101A500001E000E000BF00BF10BD0000E80300206F
:101A6000C8030020340400200C04002010B5F748FF
:101A70000078102809D2DFE800F0080913282E3575
:101A80007AF8F7F6F5F4F3F2F1F0F1E1EF4900221C
:101A90004868114606F0A2FE0120EC49C870E7E153
:101AA000EB480068012803D00220E849C8700BE029
:101AB000FFF7CEF840B1E54900228868114606F0EC
:101AC0008DFE0120E149C870D2E10120E1490860A2
:101AD000DE49C870CCE10020DE4908600120DB4906
:101AE000C870C5E1D94890F8200028B9D7490878CE
:101AF000032102F0D9FD39E0D44890F820000128F4
:101B000005D1D2490878012102F0CEFD2EE0CF4860
:101B100090F82000022820D1CD480068012817D075
:101B20000020CA4989688870C849886806F042FF61
:101B3000C64A926892884FF4C87302FB03F1C34A05
:101B40009068002206F028FE0120C049C8700DE010
:101B50000320BE4981F8200008E0BC4890F820002E
:101B6000032803D10221002002F09EFD80E1B74846
:101B700090F82000F0B9B8480068012815D1B348A2
:101B80008068C069B149098A884208D1AF48806835
:101B9000407820B90220AD4981F820007CE0AB49B3
:101BA0000878012102F080FD76E00520A74981F840
:101BB000200071E0A54890F82000012812D1A54826
:101BC000A8380068012867D1A448406840780028F8
:101BD00062D19E4A118A906806F062FE01209B49FC
:101BE000C87059E0994890F82000022814D19B4809
:101BF0004068C0699949096988424DD19748406851
:101C0000407848BB914AD1695068002206F0E6FD51
:101C100001208E49C8703FE08C4890F820000328CE
:101C200005D18A490878032102F03EFD34E0874857
:101C300090F82000042805D184490878022102F098
:101C400033FD29E0814890F8200005280ED17F4916
:101C50000878012102F028FD1EE0A6E0A4E08EE055
:101C60007BE06DE05FE047E02FE016E0774890F81A
:101C70002000062810D17748A838006801280BD129
:101C800076484068407838B9704A118A906806F002
:101C900007FE01206D49C870EAE06C4890F8220008
:101CA00090B96A4890F8200028B96849087803215B
:101CB00002F0FAFC08E0654890F82000012803D102
:101CC0000221082002F0F0FCD2E060488068C06980
:101CD0005E494969884203D102205C49C8700AE024
:101CE000FEF7B6FF38B1594A518A906806F0D8FD20
:101CF00001205649C870BBE05548083800680128E3
:101D000010D053480C38006801280BD15448406863
:101D1000407838B94D4A5169506806F0C1FD01203C
:101D20004A49C870A4E0494A5269484B9B69D11A94
:101D3000464A506806F0B4FD01204449C87097E057
:101D40004249496889684A0040494868002106F0CC
:101D500045FD01203D49C8708AE03E48A83800682A
:101D600001280BD13D484068407838B9374A118A7C
:101D7000906806F095FD01203449C87078E0374836
:101D80004068C0693549096988420CD133484068C8
:101D9000407840B92D4AD1695068002206F01EFDF6
:101DA00001202A49C87063E062E02E48008800F4F0
:101DB000807060B12549496889684A0023494868AC
:101DC000002106F00BFD01202049C8704FE0254896
:101DD000008800F40070C0B31C4890F82000E0B9FF
:101DE0001A488068C0691949498A884207DC17483F
:101DF0008068407818B902201449C87037E0134849
:101E00008068407800BB114840684078E0B90F49CD
:101E10000878012102F048FC29E00C4890F82000E5
:101E2000012824D10B48A838006801281FD10B488D
:101E30004068407840B9054A518A9068002206F00F
:101E4000CDFC01200149C87011E00DE0E80300203D
:101E50002C012342B4812242080122423404002092
:101E6000C80300206A04002002200249C87000BF95
:101E700000BF10BDE803002010B58F48007810287F
:101E800009D2DFE800F008091A27384964AAABB381
:101E9000BBC3D4DCE7E80DE188480068012803D122
:101EA00002208549C87007E083484068407818B927
:101EB00005210120FFF712FBFCE08048001F0068AD
:101EC000012803D002207C49C87002E07A4880686B
:101ED0004078EFE07848C06864280BD978480068FB
:101EE000012803D002207449C87003E010210120AA
:101EF000FFF7F4FADEE07048C06864280BD9704838
:101F00000068012803D102206B49C87003E010214A
:101F10000120FFF7E3FACDE0674890F82000A8B170
:101F2000654890F82000012810D0634890F8200000
:101F300002280AD160488068407838B900205E499C
:101F4000C870032081F8200000E000BFB2E05A48CA
:101F500090F8200020B3584890F8200001280DD1B7
:101F6000554880684078D8B900205349C870084661
:101F700090F82000401C81F820002DE04E4890F899
:101F8000200002280DD14C484068407840B900201C
:101F90004949C870084690F82000401C81F820008C
:101FA0001AE0454890F82000032815D0424890F8E0
:101FB0002000042810D0404890F8200005280BD0BD
:101FC0003D4890F82000062806D13B4880684078BC
:101FD00010B902203849C8706CE06BE03648806860
:101FE000407810B902203449C87063E03248406834
:101FF000407810B902203049C8705BE02E48406834
:10200000407810B902202C49C87053E02B48006872
:10201000012803D102202849C87007E026484068FB
:10202000407818B905210120FFF758FA42E022480C
:102030008068407810B902201F49C8703AE01E48F5
:102040004068407828B901201B4981F8220002200D
:10205000C8702FE02EE01B48008800F4807080B12B
:1020600016480068012803D102201349C87020E0F7
:10207000114840684078E0B905210120FFF72EFAA9
:1020800017E01048008800F4007090B10A4890F8FA
:10209000200070B1084890F82000012809D10648B6
:1020A0008068407828B902200349C870002081F870
:1020B000200000BF00BF10BDE80300203001234214
:1020C000080122426A04002010B51848C07820B9DF
:1020D000FFF7CCFC00201549C8601448C0780128DF
:1020E00011D1FFF7C9FE1148C068401C0F49C860F4
:1020F0000846C06844F62061884204D90B4801783C
:102100000320FFF7ABF90948C07802280CD1074833
:102110000078062802DCFFF70DFC05E00448007893
:10212000022801D0FFF706FC10BD0000E8030020E4
:102130006804002008B546480078012807D14548C2
:102140000078444908720720087000204870414810
:10215000007809287AD2DFE800F0050623405261B2
:102160006777780072E03C480078C0B93B48007857
:10217000A8B93B48007890B93648007F50B100209C
:102180003449087702200090C87E012305220621E9
:1021900005F078FE00202F4908704870887655E0D9
:1021A0002D480078C0B92D480078A8B92C4800788F
:1021B00090B92848007F50B10020264908770220B6
:1021C0000090C87E08230522062105F05BFE002052
:1021D000204908704870887638E000201D49087052
:1021E00048700846007F48B1002008770220009020
:1021F000C87E03230522062105F044FE26E015488B
:10220000007F50B100201349087702200090C87E5B
:1022100004230522062105F035FE17E000200D49B4
:1022200048700620087011E005F020FF58B10D48F5
:102230000068012807D00B48001D0068012802D063
:1022400000200449487001E000E000BF00BF08BD65
:1022500068040020C8030020E80300200C040020CC
:10226000340400202001234210B556480078092884
:1022700006D2DFE800F0050639466373929FA0009E
:102280009DE05048807EF0B94F480068012816D183
:1022900000204C49496888704A49486806F08AFB22
:1022A000484A5268928802EB82025100454A5068BF
:1022B000002206F071FA01204249487013E0012023
:1022C000404988760FE03F48807E01280BD105F019
:1022D000CDFE40B13B4900224868114606F07EFA27
:1022E0000120384948706AE005F0C0FE40B1354928
:1022F00000224868114606F071FA01203149487001
:102300005DE03148006801280BD12E49486808F08B
:1023100087F900202B494968C86102202949487083
:102320000BE005F0A3FE40B12649002248681146A3
:1023300006F054FA01202349487040E005F096FE6B
:1023400058B1204A52689269A2F164011D4A50684E
:1023500006F0A6FA01201B49487030E00020194918
:1023600008761948006801280AD1486808F058F929
:10237000002014494968C8610220124948700BE0E6
:1023800005F074FE40B10F4900224868114606F07E
:1023900025FA01200B49487011E005F067FE40B1B5
:1023A000084A11695068002206F018FA0120054910
:1023B000487004E003E002200249487000BF00BFFB
:1023C00010BD0000C80300202801234210B5484872
:1023D0000078092806D2DFE800F005062A3D4E56AF
:1023E0006786870081E04248807E48B9404840685F
:1023F0004078D8B900203E4948700120887615E021
:102400003B48807E012811D13A480068012805D157
:102410000220374948700020887607E03448406839
:10242000407818B901210846FFF758F85DE03148B7
:102430000068012805D102202D49487000208876C7
:1024400007E02B484068407818B901210846FFF79B
:1024500045F84AE027480068012803D102202449B2
:10246000487007E022484068407818B901210846C2
:10247000FFF734F839E01E484068407810B9022070
:102480001B49487031E01B480068012803D1022035
:102490001749487007E016484068407818B901218C
:1024A0000846FFF71BF820E0114840684078C8B99B
:1024B0000F484068C0690E490969884205D1072064
:1024C0000B490870002048700FE00A48083800687F
:1024D000012803D102200649487003E003210120AE
:1024E000FEF7FCFF01E000E000BF00BF10BD0000F0
:1024F000C80300202801234210B51848407820B9AD
:10250000FFF7B2FE00201549C86014484078012842
:1025100011D1FFF75BFF1148C068401C0F49C8602C
:102520000846C06844F62061884204D90B48017807
:102530000220FEF793FF0948407802280CD1074893
:102540000078042802DCFFF7F5FD05E00448007878
:10255000022801D0FFF7EEFD10BD0000C8030020E7
:102560006804002008B571480078102809D2DFE817
:1025700000F008090C0F1822543C6E97A8C0C1C681
:10258000D8D9D0E003F0F4F8CDE003F0F1F8CAE0D8
:1025900066488068C16966A0FDF7F0FE03F0E8F8C0
:1025A000C1E00020614981F82900487088700870F6
:1025B00081F82800B7E000205C4981F829004870C4
:1025C0008870087081F82800084690F82B0058B1F0
:1025D000002081F82B000220009091F82A000823A7
:1025E0000522062105F04EFC9DE000204F4981F8B0
:1025F000280081F829004870084690F82B0058B14F
:10260000002081F82B000220009091F82A0004237A
:102610000522062105F036FC85E00020434981F8BB
:102620002900487081F8280088700870084690F8E2
:102630002B0058B1002081F82B000220009091F867
:102640002A0004230522062105F01CFC6BE03D480E
:1026500000780C2809D13B48C078022805D1002019
:10266000324988700920087019E0364800780E2831
:1026700015D12E4908700020887033480078012851
:102680000DD0324908780978491C304B197007235E
:102690000522114605F0D6FB07202B49087042E0C1
:1026A00028488068C0692749498A884208D1284853
:1026B0000068012804D100201C4988700A20087095
:1026C00031E024480078401E2249087000201F494C
:1026D000009008780978491C1C4B197001230322CB
:1026E000114605F0CFFB0020104988700B200870C0
:1026F00019E018E00321082002F00AF813E0002096
:102700001249009008780978491C104B197002236F
:102710000322114605F0B6FB0321082001F0F8FF63
:1027200001E000E000BF00BF08BD0000340400204D
:1027300061646A20626F7820706F733A25640D0AB5
:1027400000000000E803002068040020C70100200A
:10275000000123426C04002008B5F94800780028E5
:1027600003DC0120F74981F82C00F6480078102896
:1027700009D2DFE800F00809213E5ACFF0EFEEED74
:10278000ECEBEAE9E8E718E3EF48006801280AD132
:10279000EC49886807F044FF0220EA49887000206D
:1027A0008968C86107E00120E649887000228868CE
:1027B000114606F013F800E3E3480C3800680128DE
:1027C0000AD1E049486807F02BFF0220DD498870F4
:1027D00000204968C8610BE0FEF70EFA40B1D94904
:1027E00000224868114605F0F9FF0120D54988709C
:1027F000E3E20120D3498870002089688870D149BC
:10280000886806F0D7F8D0480068012806D1CD4A7C
:10281000D18C9068002205F0BFFF05E0C94A918C79
:102820009068002205F0B8FFC7E20120C54981F891
:102830002C000020C2490870C24890F8280000BB54
:10284000C1480C380068012816D10020BD494968EC
:102850008870BC49486806F0ADF8BA4A5268928858
:1028600002EB82025100B74A5068002205F094FF43
:102870000120B44988704CE00120B24981F8280059
:1028800047E0B04890F82800012808D1FEF7B4F9D5
:1028900028B3AC490878022101F03AFF39E0A94891
:1028A00090F82800022820D1A7480068012817D1F5
:1028B0000020A44989688870A249886806F07AF8DF
:1028C000A04A9268928802EB820251009D4A906869
:1028D0004FF4FA5205F060FF01209A49887018E021
:1028E0000320984981F8280013E0964890F82800C2
:1028F000032805D193490878012101F009FF08E078
:10290000904890F82800042803D10321002001F00A
:10291000FFFE52E28B4890F8280088BB8B48006885
:10292000012828D18A488068C0698949098A884273
:1029300012D187488068407870B90120814981F8B8
:10294000280063E0C8E1C6E1AAE19AE170E13CE158
:1029500014E1E5E05BE06AE07A48406840780028EE
:1029600054D178488068407838BB7649087802218D
:1029700001F0CEFE4AE00220724981F8280045E0CD
:10298000FFE7704890F8280001281CD16F480068C4
:10299000012813D16E488068C0696D49098A884250
:1029A00034D16C480068012830D1664A11695068FA
:1029B00005F076FF01206349887027E00220614915
:1029C00081F8280022E05F4890F82800022815D1FD
:1029D0006048001F0068012802D15D48007820B9D6
:1029E00058490878022101F093FE57480C380068D6
:1029F00001280BD102205349887007E0514890F814
:102A00002800032802D102204E498870D5E1012018
:102A10004C4981F82C00002049490870494A116A44
:102A2000906805F03DFF012046498870C5E14548A2
:102A300090F8280008BB474808300068012808D1F2
:102A400040498868002105F02BFF01203D4988702E
:102A500065E002203B498870072008703E480088E6
:102A600040F010003C490880FEF760FC3A480088BE
:102A700020F010003849088051E0324890F82800D2
:102A800001281AD130480068012804D102202D49BC
:102A900081F8280043E000202A4989688870294984
:102AA000886805F087FF274A116A9068002205F0C0
:102AB00095FE01202349887031E0224890F82800D3
:102AC00002282CD123480830006801281FD100209B
:102AD0002249009008780978491C204B197002237C
:102AE0000322114605F0CEF917480068012803D1EA
:102AF0003C201349087002E01E2011490870002094
:102B0000104981F82C00032101F002FE07E00020AB
:102B10000C490870887000211020FEF7DFFC4CE1A2
:102B200009480C38006801281AD10649486807F09E
:102B300077FD02200349887000204968C8611CE0C5
:102B40006C04002034040020188122420801224233
:102B5000E8030020300123426A040020C70100205E
:102B6000FEF74AF848B1964945F2C032486800215C
:102B700005F034FE0120924988701EE190484068BB
:102B8000C0698F490969884207D18D49486807F0B3
:102B900047FD02208A49887016E08A4800680128AB
:102BA00012D189488068C0698749098A88420BD157
:102BB00085488068407838B90120814988700A4684
:102BC0001169506805F06CFEF7E080480068012844
:102BD0000BD17B49486807F023FD022078498870B3
:102BE000084640694968C86121E0754890F82C00A2
:102BF000012804D100218020FEF770FC17E0FEF7C9
:102C000061F880B171481438006801280BD0FDF7D5
:102C1000F3FF60B101206A4988700A465169506823
:102C200005F03EFE03E00B210120FEF757FCC4E057
:102C3000634890F8280090B900206149896888703D
:102C40005F49886805F0B6FE5D490022886840F655
:102C5000FC0105F0A1FD01205949887010E0584899
:102C600090F82800012802D15549887008E054489E
:102C700090F82800022803D102210C2001F048FD21
:102C80009BE04F4A92689269A2F548714C4A90685D
:102C90004FF4FA5205F0A2FD0120494988708CE0FA
:102CA0004A4814380068012811D100204449896835
:102CB00088704349886805F07DFE414A91699068B3
:102CC000002205F069FD01203D49887002E00220E4
:102CD0003B49887071E070E03D48008800F01000CA
:102CE00018B102203649887066E03948008800F043
:102CF000800018B10220324988705DE034480088B5
:102D000000F40070E8B32E4890F82800F8B92F4876
:102D100008380068012808D129484068407820B95F
:102D20000120274981F8280046E02648006801284C
:102D300042D125484068407810BB214900224868AC
:102D4000114605F04BFD01201D49887034E01C48F8
:102D500090F82800012815D11B488068C0691A49DD
:102D6000498A884228D118488068407840B9144A76
:102D7000116B5068002205F031FD01201049887068
:102D80001AE016E00E4890F82800022814D11148E5
:102D90008078022810D10F48007810280CD10849FB
:102DA00000224868114605F019FD01200449887089
:102DB00002E002200249887000BF00BF08BD000089
:102DC0003404002030012342E80300201481224211
:102DD0006A0400200C04002010B5BF4800781028B9
:102DE00009D2DFE800F008091A2C345A8078A1B320
:102DF000BBD3FFFBFAF96CE1B8480068012803D1A6
:102E00000220B549887007E0B3488068407818B957
:102E10000A210120FEF762FB5BE1B0480C38006834
:102E2000012803D10220AC49887007E0AA48406815
:102E3000407818B907210120FEF750FB49E1A64868
:102E40008068407810B90220A349887041E1A24807
:102E500090F8280050B9A04840684078E0B90020B8
:102E60009D498870012081F8280015E09A4890F863
:102E70002800012810D0984890F8280002280AD18C
:102E800095488068407838B90020934988700320BD
:102E900081F8280000E000BF1BE18F4890F828006F
:102EA000C0B18D4890F8280001280DD18A484068AB
:102EB000407878B9002088498870084690F8280042
:102EC000401C81F8280005E0834890F8280002287B
:102ED00000D000BFFDE080488068407810B9022033
:102EE0007D498870F5E07C4890F8280050B97A4810
:102EF00080684078B8B9002077498870012081F84F
:102F0000280010E0744890F8280001280AD172487F
:102F10008068407838B900206F498870022081F8B5
:102F2000280000E000BFD4E06C480C38006801289D
:102F300003D102206849887007E0674840684078FC
:102F400018B907210120FEF7C9FAC2E062484068BB
:102F5000407810B9022060498870BAE05F48001FCD
:102F60000068012809D15C488068C1695CA0FDF750
:102F700005FA02205849887007E0574840684078B1
:102F800018B909210120FEF7A9FAA2E0524890F8E9
:102F9000280068B950484068407810BB4E4890F807
:102FA0002800401C4C4981F828000020887018E057
:102FB000494890F82800012812D14748C068B0F568
:102FC000FA7F0ED9444890F82800401C424981F805
:102FD00028000020887004E021E01FE010E001E0FC
:102FE00000BF76E03C488068407840B93A48806845
:102FF000C16940A0FDF7C2F902203749887068E036
:1030000035488068407840B90220334988700846C6
:103010008068C1693CA0FDF7B1F95AE059E03F482A
:10302000008800F0100018B102202B4988704FE092
:103030003A48008800F0800018B1022026498870C4
:1030400046E03648008800F4007038B3224890F813
:103050002800A0B921480C380068012806D10020BA
:103060001D498870012081F8280031E01A48406825
:10307000407898B907210120FEF730FA28E0164879
:1030800090F8280001280AD113484068407828B9F0
:10309000002011498870022081F8280018E00E48AD
:1030A00090F82800022813D10C480C380068012839
:1030B00006D1022008498870002081F8280007E026
:1030C00005484068407818B907210120FEF706FA44
:1030D00000BF00BF10BD0000340400201881224250
:1030E000656E6420626F7820706F733A25640D0AF4
:1030F000000000006F757420626F7820706F733A63
:1031000025640D0A000000006E65787420626F78F7
:1031100020706F733A25640D0A0000006A040020D5
:1031200010B51448807820B9FFF716FB002011492C
:10313000C86010488078012811D1FFF74DFE0D4876
:10314000C068401C0B49C8600846C06844F620614E
:10315000884204D9074801780520FEF77FF9054821
:103160008078022805D104480078022801D0FFF7B2
:10317000F9F910BD340400206804002030B50022A5
:103180008B071C0F0F2303FA04F20B4B8C1053F820
:1031900024309343084C8D1044F8253023468C107E
:1031A00053F824308C07240F00FA04F42343024C14
:1031B0008D1044F8253030BD080001402DE9F04164
:1031C000024600250026002000230024002791F855
:1031D00003C00CF00F0591F803C00CF0100CBCF10B
:1031E000000F03D091F802C04CEA050591F800C029
:1031F000BCF1000F31D0146800202BE04FF0010C1F
:103200000CFA00F3B1F800C00CEA03069E4220D18C
:1032100083004FF00F0C0CFA03F7BC4305FA03FCD4
:103220004CEA040491F803C0BCF1280F06D14FF01A
:10323000010C0CFA00FCC2F814C00AE091F803C0BB
:10324000BCF1480F05D14FF0010C0CFA00FCC2F89C
:1032500010C0401C0828D1D31460B1F800C0BCF1E4
:10326000FF0F34DD546800202EE000F1080C4FF011
:10327000010808FA0CF3B1F800C00CEA03069E42FC
:1032800021D183004FF00F0C0CFA03F7BC4305FA71
:1032900003FC4CEA040491F803C0BCF1280F05D1EB
:1032A00000F1080C08FA0CF8C2F8148091F803C079
:1032B000BCF1480F07D100F1080C4FF0010808FAE3
:1032C0000CF8C2F81080401C0828CED35460BDE82A
:1032D000F0810000F0B50A460023002400210025FB
:1032E00000F00046B6F1004F02D11D4EF16901E039
:1032F0001B4E7168C0F3034583B200F44016B6F567
:10330000401F08D121F07061154E766826F0706676
:10331000134F7E6012E000F48016B6F5801F06D1D0
:10332000032606FA05F4A14341F0706106E0460D5C
:10333000360103FA06F6B14341F0706122B1460D41
:10334000360103FA06F6314300F00046B6F1004FAD
:1033500002D1034EF16101E0014E7160F0BD000049
:10336000000001400246002093680B400BB1012091
:1033700000E0002070474161704701617047000024
:1033800010B56748007811280AD2DFE800F0090A72
:1033900016191C1F29334F5B6D7FA6AFB8C5C60039
:1033A000BCE000F07DFD00205D4981F824004870FC
:1033B00081F8230088700870B0E002F0CBF9ADE02E
:1033C00002F0C8F9AAE002F0C5F9A7E000205449CC
:1033D00081F82400487081F82300887008709DE00F
:1033E00000204F4981F82400487081F8230088703C
:1033F000087093E04B48007809280BDB49480078B7
:103400000B2807DC0020464981F82300887008203B
:1034100008700AE0434800780E2806D10F20404982
:1034200008700020887081F8230077E03E4800880B
:1034300038B900203A49887009200870002081F8C6
:1034400023006BE039480068012808D10020344986
:1034500088700A200870002081F8230003E0002112
:103460002020FEF73BF859E030480068012808D1D9
:1034700000202B4988700B200870002081F8230061
:1034800003E000212020FEF729F847E025480078D6
:103490000D2816D12348C078022812D1234800688D
:1034A000012808D100201E4988700C2008700020D7
:1034B00081F8230010E000214FF40070FEF70EF8B1
:1034C0000AE0184800780E2806D10F201449087029
:1034D0000020887081F8230020E0002010498870C7
:1034E0000D200870002081F8230017E000200C490F
:1034F00088700E200870002081F823000EE00B4831
:103500003C380068012806D00020054981F82300D6
:1035100088700720087001E000E000BF00BF10BD08
:103520000C040020E80300206A0400203C01234230
:1035300010B5FC48007811280AD2DFE800F0090A2B
:103540001021334488F5F3F2F1F0EFEEEDECEB00EF
:103550004BE200F0AFFC0120F249887045E2F248EE
:103560000068012803D10220EE49887007E001209D
:10357000EC49887000224868114605F02FF934E2C2
:10358000E94834380068012803D10220E5498870F1
:1035900007E00120E5490860E549C1F8AC01E149CF
:1035A000887022E20020E0495C3108600120E04997
:1035B000C1F8B801DD490C31086000F071FC012050
:1035C000D849887011E2D74890F8230028B9D54926
:1035D0000878042101F082F838E0D24890F82300FE
:1035E000012805D1CF490878032101F077F82DE0B3
:1035F000CC4890F8230002281FD1CB48006801284E
:1036000016D10020C74949688870C649486805F046
:10361000D1F9C44A5268928802EB82025100C14A31
:103620005068002205F0B8F80120BE4988700DE00E
:103630000320BC4981F8230008E0BA4890F8230031
:10364000032803D10221002001F048F8CDE1B5485C
:1036500090F82300B0B9B4480830006801280CD1B4
:10366000B249091F0860AF4A51695068002205F04D
:10367000B5F80120AB4988704BE00220A94981F8D8
:10368000230046E0A74890F82300012807D1002036
:10369000A649091F08600120A249887039E0A148A5
:1036A00090F82300022805D19E490878042101F0F2
:1036B00015F82EE09B4890F82300032805D199497E
:1036C0000878032101F00AF823E0964890F82300D7
:1036D000042811D197480068012804D00221002055
:1036E00000F0FCFF15E08F4A5169506805F0D8F8EA
:1036F00001208C4988700CE08A4890F82300052846
:1037000007D18C480068012803D00221002000F076
:10371000E5FF6AE1FAE0F8E0BFE081E06CE061E03B
:1037200048E02FE025E0FFE7FDF7BCFA00B37D4855
:1037300090F8230028B97B490878032100F0CEFFD8
:1037400016E0784890F82300012805D175490878DB
:10375000022100F0C3FF0BE0724890F8230002281A
:1037600006D10020744981F8220002206D4988703A
:103770003BE101206B4988700A465169506805F0A9
:103780008FF832E1674890F8230030B9002067498C
:1037900008600120634988700BE0624890F82300BC
:1037A000012806D100206149091F086001205D49F8
:1037B00088701AE15C480830006801280DD15A4928
:1037C0005C31086000205A49C1F8B80157490C31F2
:1037D000086001205349887003E000212020FDF794
:1037E0007DFE02E101205149091F08605349C1F8DB
:1037F0008C014C498870F8E04F488068C0694E4998
:10380000098A88420BD14C488068407838B9012039
:10381000444988700A469169506805F041F8E4E02F
:1038200041480068012803D102203E49887033E0F6
:103830003C4890F8230028B901203A49887000F0EC
:1038400039FB29E0374890F8230001280CD135498D
:1038500088700B469B690C46E469191B314B1A8C26
:10386000586804F0BBFF17E02E4890F823000228A8
:1038700005D101202B49887000F012FB0CE029488B
:1038800090F82300032807D10120264988700022E0
:103890004868114604F0A2FFA7E0224890F82300F0
:1038A00038B900202149091F086001201D4988708E
:1038B0002AE01C4890F82300012807D11B49086022
:1038C0001B49C1F8B801174988701DE0154890F8E8
:1038D0002300022806D1012014490C310860114947
:1038E000887011E00F4890F8230003280CD10020C5
:1038F0000D495C31086001200D49C1F8B8010B4940
:103900000C310860074988706FE06EE00C48008851
:1039100000F02000B0B101200449091F08600149EE
:10392000887061E00C04002034012342B0812242FF
:103930000080224208012242E803002000002342C6
:103940006A0400202A48008800F0400018B10220D4
:103950002849887048E02648008800F40070B0B319
:10396000244890F8230080B923484068C069224960
:10397000096B884238D11F4900224868114604F07B
:103980002DFF01201B4988702EE01A4890F8230073
:10399000012806D1002019490860012015498870C6
:1039A00022E0144890F82300022805D11149087834
:1039B000042100F093FE17E00E4890F8230003283E
:1039C00006D10C490878032100F088FE0CE008E0DD
:1039D000084890F82300042806D102200549887081
:1039E00002E002200349887000BF00BF10BD000044
:1039F0006A0400200C04002034040020AC81224220
:103A000010B5F848007811280AD2DFE800F0090A5A
:103A1000152639415C9899A1C7D9F1F9EEEDEC0072
:103A2000DDE1F0488068B0F5FA6F04D900F038FAAB
:103A30000220EC498870D2E1EB480068012803D1EC
:103A40000220E849887007E0E6484068407818B9E5
:103A500006210120FDF742FDC1E1E2488068B0F592
:103A60007A7F0CD9E04834380068012803D102205D
:103A7000DC49887003E00E210120FDF72FFDAEE147
:103A8000D8488068642802D90220D6498870A6E107
:103A9000D44890F82300A8B1D24890F82300012818
:103AA00010D0D04890F8230002280AD1CD484068B1
:103AB000407838B90220CB4981F823000020887073
:103AC00000E000BF8BE1C74890F8230050B9C5481B
:103AD0004068407880BB0120C24981F82300002063
:103AE00088702BE0BF4890F8230001280BD1BD4817
:103AF0008068B0F5966F21D90220BA4981F8230079
:103B0000002088701AE0B74890F82300022815D0EA
:103B1000B44890F82300032810D0B24890F823004E
:103B200004280AD1AF484068407828B90320AD493D
:103B300081F823000020887000E000BF4FE14EE1D3
:103B4000A8484068407810B90220A649887046E12C
:103B5000A44890F8230058B9A2488068B0F5967F31
:103B60001BD901209F4981F823000020887014E0B0
:103B70009C4890F8230001280FD19A488068B0F53E
:103B8000966F0AD9984834380068012805D000207B
:103B9000944981F823000220887020E191488068D0
:103BA00064280CD9904808300068012803D102200D
:103BB0008C49887003E00C210120FDF78FFC0EE199
:103BC00088488068B0F57A7F0CD987483438006817
:103BD000012803D102208349887003E00E210120CF
:103BE000FDF77CFCFBE0A4E0A2E051E008E0FFE789
:103BF0007C484068407810B902207A498870EEE02D
:103C0000784890F8230050B97648806864283ED9F7
:103C1000002074498870012081F8230037E0714842
:103C200090F8230001280AD16E484068407828BBEC
:103C300000206C498870022081F8230027E0694841
:103C400090F8230002280AD16648806864281ED9AB
:103C5000002064498870032081F8230017E0614840
:103C600090F82300032812D15F480068012806D18C
:103C700000205C4981F823000220887007E0594841
:103C80004068407818B906210120FDF727FCA6E01E
:103C9000544890F8230088B9524890F8250001282C
:103CA00045D100204F498870084690F82300401CF9
:103CB00081F82300002081F8250038E0494890F879
:103CC0002300012811D1474890F8250001282ED162
:103CD000002044498870084690F82300401C81F871
:103CE0002300002081F8250021E03E4890F82300C1
:103CF00002280BD13B488068B0F5967F17D9002089
:103D000038498870032081F8230010E0354890F886
:103D1000230003280BD133488068642807D900208A
:103D2000304981F82300022088700020886056E026
:103D300055E02E48008800F0200090B129488068A6
:103D4000B0F5966F4AD9284834380068012803D165
:103D500002202449887041E00E210120FDF7BEFBBE
:103D60003CE02248008800F0400058BB1F48008813
:103D700000F4007030B31B4890F8230090B91A4843
:103D80000068012805D1174981F8230000208870B8
:103D900024E0144840684078A0B906210120FDF7CE
:103DA0009DFB1BE00F4890F8230001280BD10D4824
:103DB0008068B0F5966F11D902200A4981F8230076
:103DC000002088700AE0074890F82300022805D0F8
:103DD000044890F82300032800D000BF00BF00BFB4
:103DE00010BD00000C040020340123426A040020AE
:103DF00010B51448807820B9FFF79AFB00201149CC
:103E0000886010488078012811D1FFF7F9FD0D482E
:103E10008068401C0B4988600846806844F6206131
:103E2000884204D9074801780420FDF717FB0548AC
:103E30008078022805D104480078022801D0FFF7D5
:103E40009FFA10BD0C0400206804002010B501F09A
:103E500019FB00F097FA00200D4908600D49C1F8E0
:103E6000A40101200A4908310860091D0860091DE4
:103E70000860074918310860091D086000200649DC
:103E800008600120054908600249C1F8B40110BD6D
:103E9000A08122420080224290012342848121425B
:103EA00010B501200249086000F02AFA10BD000098
:103EB0008481214210B5044991F8220000F02CFAC7
:103EC00000200249086010BD0C04002084812142BA
:103ED00010B501F0A7FA0F4908600F490D480068B6
:103EE00008F07FF806D201200C4908600C49C1F89F
:103EF000A00110BD0B490748006807F0F3FF06D288
:103F00000020064908600649C1F8A001F1E706480B
:103F10000078EEE7B80100200000A043A48122420F
:103F20000080224200007A43B401002010B5002432
:103F300000201C4908601C49C1F8B0010120194942
:103F40000C310860091D0860002018490860012034
:103F5000174908601349083108601349C1F8A001E6
:103F6000FFF79EFF01F05EFA04461249204607F073
:103F7000B9FF05D201200B49091F0860032010BDBD
:103F80000D49204608F02DF809D2012005490C39C9
:103F9000086000200449C1F8A8010220EFE700BF33
:103FA000EDE70000AC8122420080224290012342D2
:103FB00084812142000020410000484200BFFEE70A
:103FC00038B5002401217C2001F0C8FA10208DF8BA
:103FD000030003208DF8020041F20304ADF8004015
:103FE00069460F48FFF7EAF821460D48FFF7C5F983
:103FF0004FF47F44ADF8004069460A48FFF7DEF809
:1040000021460848FFF7B9F98024ADF80040694619
:104010000548FFF7D3F821460348FFF7AEF938BD4E
:10402000000C0140001401400018014010B50020B0
:104030000F4908600F48006820F470200D4908609F
:104040000846006840F44030086000200A49C1F882
:104050009001022004F03FFE012005490860022083
:1040600004F039FE00200549C1F8840110BD0000AC
:104070008401224200080140000021420000224247
:1040800008B50121042001F069FA0121102001F096
:1040900065FA1020ADF800008DF8030003208DF8BC
:1040A000020069460848FFF789F80220ADF80000D1
:1040B00069460648FFF782F801200549086005496E
:1040C000C1F8900108BD0000000801400010014047
:1040D000840122420000214210B500200F490860EF
:1040E0000F48006820F470200D49086008460068F9
:1040F00040F44030086001200A49C1F890010220D4
:1041000004F0E9FD012005490860022004F0E3FD08
:1041100000200549C1F8840110BD0000840122423D
:1041200000080140000021420000224270B505460F
:1041300000241648006820F47020144908600846DE
:10414000006840F400200860002615E000201049B7
:104150000860022004F0BFFD01200E49C1F884016F
:104160006006040E0C48006808B1601CC4B201204F
:1041700004F0B1FD701CC6B2082EE7DB15B9FFF7DD
:10418000ABFF01E0FFF752FF204670BD0008014081
:1041900084012242000022421001214270B50446EF
:1041A0001448006820F4702012490860084600682E
:1041B00040F44030086000200F490860002516E0F8
:1041C000E0090E4908606006040E022004F083FD39
:1041D00001200B49C1F88401022004F07CFD00207D
:1041E00005490860022004F076FD681CC5B2082D60
:1041F000E6DB70BD000801408401224290012142AB
:104200000000224210B50F48006820F470200D49CC
:1042100008600846006840F44030086001200A4900
:1042200008600A49C1F88401042004F054FD00200C
:1042300005490860042004F04EFD00200349C1F840
:10424000840110BD0008014090012142000022427B
:1042500010B50F48006820F470200D49086008462A
:10426000006840F44030086000200A4908600A49AC
:10427000C1F89001042004F02EFD012005490860DA
:104280000549C1F89001042004F025FD10BD00008F
:1042900000080140840122420000214210B50024A0
:1042A0001348006820F4702011490860084600682F
:1042B00040F40020086001200E49086004F00BFD66
:1042C00001200D49C1F8840104F005FD07E0601CE0
:1042D000C4B2FA2C03DDFFF7BBFF012010BD054877
:1042E000803800680028F2D10449086000BFF5E773
:1042F0000008014090012142000022428401224234
:1043000010B500200349086000224021902001F0F0
:10431000DFF810BD8C01234210B50446012004498A
:10432000086022464021902001F0D2F810BD000024
:104330008C01234270B50025002400BF09E0412113
:10434000902001F0A3F80444322003F0FFFE681C23
:10435000C5B2052DF3DB052094FBF0F4A4F1350084
:10436000002801D5002070BDA4F13500CC2190FBC0
:10437000F1F0C0EB001000EB40000A2101EB40001F
:10438000C0B2F0E710B5002004490860FFF778FEDE
:1043900000224021902001F09BF810BD8C012342A7
:1043A00008B501217C2001F0D9F84FF4C050ADF8D8
:1043B000000048208DF8030069461648FEF7FEFE0F
:1043C0002020ADF8000048208DF80300694612480F
:1043D000FEF7F4FE0420ADF8000048208DF803003D
:1043E00069460E48FEF7EAFEFB20ADF800004820C3
:1043F0008DF8030069460A48FEF7E0FE4FF60170AB
:10440000ADF8000048208DF8030069460548FEF726
:10441000D5FE08BD00080140000C0140001001401D
:10442000001401400018014008B50121102001F0DE
:1044300095F83020ADF8000010208DF8030003201F
:104440008DF8020069460448FEF7B8FE30210248A4
:10445000FEF793FF08BD000000100140F8B50746C5
:104460000D4616461C460D208DF8000003208DF8E1
:10447000010000208DF8020001208DF8030068463D
:1044800000F0D0F80121084601F048F83846FCF762
:1044900059FC1748048017480560466000201549FC
:1044A00088600846C46000200861802048610020C0
:1044B0008861C86108624FF48050486200208862B9
:1044C0003846FCF708FD012202210B48FCF7FAFCF4
:1044D00001210A4803F03AFA01213846FCF726FC8C
:1044E0004FF40070FCF714FC034800F009F8F8BD25
:1044F000C4010020C81E00203000024000480040D7
:1045000010B5044600212046FCF710FC0448018841
:104510002046FCF7FEFC01212046FCF707FC10BDFD
:10452000C401002000BFFEE738B5002401217C2033
:1045300001F014F810208DF8030003208DF802001C
:104540008224ADF8004069462648FEF737FE214632
:104550002448FEF710FF9824ADF800406946224831
:10456000FEF72CFE21462048FEF705FF42F281347B
:10457000ADF8004069461D48FEF720FE21461B4865
:10458000FEF7F9FE4224ADF8004069461848FEF7F0
:1045900015FE21461648FEF7EEFE4FF4E054ADF846
:1045A000004069461148FEF709FE21460F48FEF714
:1045B000E2FE0424ADF8004069460E48FEF7FEFD19
:1045C00021460C48FEF7D7FE0120ADF80000182068
:1045D0008DF8030003208DF8020069460148FEF7BC
:1045E000EDFD38BD00080140000C01400010014005
:1045F000001801400014014010B5482001F07CFC77
:10460000242002F0C9F8242001F090FF482002F095
:10461000A7FA242002F0D8F9242001F04DFE10BDA5
:104620007047000070B5002100230F22C47804B346
:10463000154C246804F4E064C4F5E064210AC1F177
:104640000403CA40447804FA03F1847814402143F7
:1046500009010E4C0678A155047804F01F050124C9
:10466000AC4005786D11AD0005F1E025C5F80041BD
:1046700009E0047804F01F050124AC40044D0678DD
:10468000761145F8264070BD0CED00E000E400E036
:1046900080E100E002490143024A116070470000D6
:1046A0000000FA050CED00E00B4A507012788242CF
:1046B00007D1094A92F82020521C074B83F8212089
:1046C00003E00022044B83F821200022024BDA7021
:1046D0001A46117070470000E80300200B4A507022
:1046E0001278824207D1094A92F82320521C074BC4
:1046F00083F8242003E00022044B83F824200022C6
:10470000024B9A701A461170704700000C0400208A
:104710000B4A50701278824207D1094A92F8282039
:10472000521C074B83F8292003E00022044B83F836
:1047300029200022024B9A701A461170704700001F
:104740003404002010B500F013F800F0EFFB00F087
:1047500017FC00F037FC00F0BFFB00F091FB00F00D
:10476000CBFC00F06FFC00F095FC00F002F810BDEF
:104770007047704706480078012808D1054800783E
:10478000FF2804D203480078401C02490870704793
:104790002E0200202102002010B500241A480078C3
:1047A000012830D1FBF78EFD04461848007820B16F
:1047B00016480078401E1549087014480078F8B96A
:1047C00013480078E0B900F0F9FC12481249097862
:1047D00050F82100114908600F4800781049097805
:1047E00088420DD00D480068806B401C0B49096859
:1047F00088630C480068401C0A490860FBF781FD8B
:104800002046FBF763FD10BD2E0200202102002090
:104810002202002058500020240200203C020020E8
:10482000230200200802002010B500240B48007865
:10483000012811D1FBF746FD04460948007840B92C
:1048400008480078FF2804D206480078401C054933
:1048500008702046FBF73AFD10BD00002E02002034
:10486000210200202202002010B500241348007805
:10487000012821D1FBF726FD044611480078C0B17C
:104880000F480078401E0E4908700846007860B94D
:104890000C48007828B92046FBF718FD00F054FCBE
:1048A0000AE02046FBF712FD06E02046FBF70EFD6E
:1048B00002E02046FBF70AFD10BD00002E0200209A
:1048C000220200202102002010B50B48007890B988
:1048D00000F074FC09480078094908700948074944
:1048E000097850F82100084908600846006807491F
:1048F0000860FBF7EEFC10BD2E0200202402002011
:1049000023020020585000203C02002034020020E6
:10491000704700002DE9FE4F06460F4690461C46A4
:104920004FF00009FBF7CEFC81461F48007828B104
:104930004846FBF7CBFC3C20BDE8FE8F1B4850F8F7
:10494000240060BB0120194941F824004846FBF7C8
:10495000BDFC002342463946304600F009F9824644
:1049600000200090019003460246514602902046E6
:1049700000F03AFC054635B90D48007801280CD105
:1049800000F0E2FB09E0FBF79DFC814600200749AF
:1049900041F824004846FBF799FC2846CCE74846F6
:1049A000FBF794FC2820C7E7210200205850002084
:1049B0002E0200202DE9F04F85B081468A469346AD
:1049C0001C46DDE90F78129D00200390FBF77AFC6E
:1049D00003902348007830B10398FBF777FC3C2024
:1049E00005B0BDE8F08F1F4850F8240088BB0120B7
:1049F0001C4941F824000398FBF768FC2A4641460D
:104A0000384600F001FD2B465A465146484600F014
:104A1000AFF804901198CDE9008002953A462046FF
:104A20000E9B049900F0E0FB064636B90E4800786C
:104A300001280CD100F088FB09E0FBF743FC039050
:104A40000020084941F824000398FBF73FFC30465A
:104A5000C6E7FFE70398FBF739FC2820C0E7000012
:104A600021020020585000202E020020704770477D
:104A70002DE9F04106460F4614464FF00008154850
:104A8000007818B112202070BDE8F081FBF71AFC05
:104A90008046FF2E03D11048006890F832600F481E
:104AA00050F826502DB94046FBF710FC43202070EB
:104AB000EAE7012D05D14046FBF708FC43202070B2
:104AC000E2E7EF644046FBF701FC0020207000BFE6
:104AD000DAE70000210200203402002058500020B4
:104AE000704700002DE9F04707460D464FF0000AD9
:104AF000002028606860FBF7E5FB8246FF2F03D1AA
:104B00001948006890F83270184850F827402CB9BE
:104B10005046FBF7DBFB4320BDE8F087012C04D1B6
:104B20005046FBF7D3FB4320F6E7207C00F0010062
:104B300020B95046FBF7CAFB4520EDE70026D4F824
:104B40000C90D4F808805046FBF7C0FB00E0761CC0
:104B500058F8041B0029FAD0B0002860A9EB060021
:104B6000800068600020D7E7340200205850002001
:104B700070B5044610464FF080750560051F284645
:104B80002C606FF00106051F28462E604FF012368C
:104B9000051F28462E604FF00336051F28462E605D
:104BA0004FF00236051F28462E607610051F284656
:104BB0002E60051F284629604FF01136051F284634
:104BC0002E604FF01036051F28462E604FF0093634
:104BD000051F28462E604FF00836051F28462E6018
:104BE0004FF00736051F28462E604FF00636051F8A
:104BF00028462E604FF00536051F28462E604FF0E0
:104C00000436051F28462E6070BD00002DE9F041D6
:104C100005464FF00008FBF755FB8046FF2D05D1F8
:104C20002048006890F83250012608E01D480068CE
:104C300090F83200A84201D1012600E000261A486F
:104C400050F825402CB94046FBF740FB4820BDE812
:104C5000F081012C04D14046FBF738FB4320F6E7F6
:104C600094F834701148C05D94F8351088430F49AA
:104C7000C8550846C05D30B994F836100C48007825
:104C800088430B49087094F8300040F0080084F81D
:104C900030004046FBF71AFB012E01D100F054FA18
:104CA0000020D4E7340200205850002026020020C3
:104CB000250200207047000070B505460026174801
:104CC000007800B170BD1648007800B1FAE71DB356
:104CD000FBF7F8FA06461348006890F8344012488B
:104CE000005D1049096891F8351088430E49085550
:104CF0000846005D40B90B48006890F836100B4834
:104D0000007888430949087006480068C562304643
:104D1000FBF7DCFA00F018FA00BFD3E7210200200D
:104D2000220200203402002026020020250200205A
:104D30002DE9F04104460D4616461F4612480078FC
:104D400010B15520BDE8F0811048007808B132203C
:104D5000F8E7B81CC82148434FF47A71B0FBF1F171
:104D60004FF461606043C5EB051200EB82003044F4
:104D700000EBC00202EB001001EBC0084046FFF759
:104D80009BFF0020DEE7000021020020220200201D
:104D900070B5002600F072F8FBF794FA0646314829
:104DA0000068401C2F4908603046FBF78FFA2E48F8
:104DB0000078012853D12D48007820B1012804D073
:104DC000022809D103E001250BE0002509E00125B7
:104DD00001202649087004E00125002023490870BD
:104DE00000BF00BF05B970BD2148046833E0FBF780
:104DF00069FA0646E06A50B3E06A401EE062E06A83
:104E000028BB94F8300000F0370040B114F8300FA0
:104E100000F0C800207001206070303C02E00020EB
:104E200084F8310094F8300000F0080078B9343488
:104E3000A0781049097808430E49087020780E4977
:104E4000085C6178084314F834190B4A50546469BB
:104E50003046FBF73BFA94F832003F28C7D100BF39
:104E6000C1E700004C0200202E0200204402002076
:104E7000400200202502002026020020704700008A
:104E80002DE9F0415021114800F02CF900250DE0EA
:104E9000681C86B20D4800EB051400EB06170020D5
:104EA000207067600AA0E060681C85B2042DEFD313
:104EB000064800EB051400202070606004A0E0604C
:104EC000024804490860BDE8F0810000084C002059
:104ED0003F0000001002002070B5C821114800F00A
:104EE00001F900230FE0581C85B203EB83000D4944
:104EF00001EB800405EB850001EB800600202070AB
:104F00006660581C83B2092BEDD303EB830005497F
:104F100001EB8004002020706060084602490860B0
:104F200070BD0000404B00200C02002000200A4908
:104F300008600A4908700A4908700A4908700A4955
:104F400008700A4908600A4908600A4908600A4965
:104F500008600A49087070474C02002021020020B6
:104F6000220200202F0200202E0200200802002032
:104F7000300200201C020020180200202002002025
:104F800000210A4A1170002004E00021084A11544F
:104F9000411CC8B20828F8D30021064A1170064AFD
:104FA0001170064A1160064A116070472502002000
:104FB0002602002023020020240200203C020020C0
:104FC0003402002070B54FF47C71194800F08AF863
:104FD0004FF48071174800F085F8002413E0601C3E
:104FE000C5B2C4EBC40000EB4000114901EB8003E3
:104FF000C5EBC50000EB400001EB80065E610EA032
:10500000D864601CC4B20B2CE9D3C4EBC40000EB21
:105010004000074901EB80030020586106A0D864D6
:1050200000200649086002480549086070BD00007C
:1050300058510020585000203F000000400200203E
:105040003802002000B587B00320002180220A4BDF
:10505000CDE90132CDE903104FF6FF703F23074A37
:1050600000900748FFF7A6FC06AA06A13F20FFF71D
:10507000FFFC07B000BD0000584E00205450002037
:105080001D53000875432F4F532D49492049646C27
:105090006500000000B587B00320002180220A4B84
:1050A000CDE90132CDE903104FF6FE703E23074AE9
:1050B00000900748FFF77EFC06AA06A13E20FFF7F6
:1050C000D7FC07B000BD0000584C0020544E002013
:1050D0004553000875432F4F532D494920537461A0
:1050E0007400000004E0002200F8012B4A1E91B277
:1050F0000029F8D1704700002DE9F04178211048CF
:10510000FFF7F0FF00240DE0601C86B204EB4400C2
:105110000B4901EBC00506EB460001EBC0072F6011
:10512000601C84B2042CEFD304EB4400044901EB6F
:10513000C00500202860084602490860BDE8F081EB
:10514000485500204802002010B50024FBF7BAF8AB
:10515000044613480078F8B912480078E0B900F026
:105160002DF811481149097850F8210010490860BC
:105170000E4800780F49097888420DD00C48006825
:10518000806B401C0A49096888630B480068401C12
:1051900009490860FBF7AEF82046FBF797F810BD09
:1051A000210200202202002058500020240200206A
:1051B0003C02002023020020080200200649074A82
:1051C0001278885C0649095C034A515C01EBC00116
:1051D000044A117070470000502B0108250200207E
:1051E00026020020240200202DE9F84F05460F4634
:1051F00090469946DDE90AAB00200090FBF762F883
:1052000000903F480468002C74D0183454F8040C03
:105210003B4908600098FBF759F844F8187CA576DC
:10522000002020766076606144F814BC44F80CAC31
:1052300044F8108C0C9824F8080C24F8069C0020E4
:10524000E077E810207705F00700E076217F012065
:105250008840A077E17E0120884060770020606070
:10526000E060A0602062A0626062E062206325A02E
:105270006063183C002606E0002104F1500040F86D
:105280002610701CC6B2002EF6D02046FFF740FB59
:105290002046FFF7EBFBFBF715F800901A4840F8A3
:1052A00025401A48006860610020A0611748006826
:1052B00010B1164800688461144804603434A07842
:1052C0001349097808431249087020781149085C8D
:1052D0006178084314F834190E4A50540E48007887
:1052E000401C0D4908700098FAF7F0FF0020BDE857
:1052F000F88FFFE70098FAF7E9FF4220F7E7000090
:10530000380200203F0000005850002040020020DA
:1053100025020020260200202F020020002400BFCA
:1053200000BFFAF7CFFF044605480068401C044957
:1053300008602046FAF7CAFFFFF799FBF1E7000083
:1053400030020020002400BF02E02820FFF7B4FC58
:10535000194800780028F8D0184800686421B0FB8C
:10536000F1F0164908600846006828B90020144981
:105370000870FF20FFF74AFC00BFFAF7A3FF0446BE
:10538000104800681049086000200E490860204657
:10539000FAF79CFF0C48006808490968B0FBF1F077
:1053A000C0F1640006490870FFF79AFB00F00EF8A0
:1053B0001420FFF781FCE0E7200200201802002003
:1053C00014020020300200201C0200207CB50025C1
:1053D00014E069462846FFF785FB064666B909488A
:1053E00050F8254044B1012C06D0D4E9020100EB6D
:1053F000810060640198A064681CC5B23F2DE8D9A3
:105400007CBD00005850002002F0010343B102F0BF
:1054100002032BB102E0491E002308C00029FAD183
:10542000704700002DE9FC474FF0000A02F050FDE4
:105430000FFA80FAAAF5CD700FFA80FABAF1000FD0
:1054400017DD504606F00CFC064600220A4B06F01B
:10545000AFFA04460022094B06F01AFC80460022EF
:10546000074B06F015FCCDE9000106F06FFABDE828
:10547000FC870020FBE700000000B0400000F43F84
:1054800000408F4010B502F03BFD10BD70B50446E2
:105490000D460026FEF7B6FE2046FEF77FFEFEF71D
:1054A000FDFE2846FEF77AFEFEF7F8FEFEF7D0FE78
:1054B000FEF7A8FE44F00100FEF770FEFEF7EEFED8
:1054C0000020FEF733FE0646FEF7C2FE304670BDF2
:1054D00070B506460C461546FEF794FE3046FEF7BC
:1054E0005DFEFEF7DBFE2046FEF758FEFEF7D6FE19
:1054F0002846FEF753FEFEF7D1FEFEF7A9FE012077
:1055000070BD000001460020034A506820F440406E
:1055100008435060704700000010024029B1064A5D
:1055200052690243044B5A6104E0034A52698243C0
:10553000014B5A61704700000010024029B1064A31
:10554000D2690243044BDA6104E0034AD269824320
:10555000014BDA61704700000010024029B1064A91
:1055600092690243044B9A6104E0034A92698243C0
:10557000014B9A61704700000010024029B1064AB1
:10558000D2680243044BDA6004E0034AD2688243E3
:10559000014BDA60704700000010024030B5002176
:1055A0000022002400232D4D6D6805F00C0121B16F
:1055B000042905D0082923D105E0294D056022E002
:1055C000274D05601FE0254D6D6805F47012234DD1
:1055D0006D6805F48034022505EB92421CB9214D1B
:1055E000554305600BE01D4D6D6805F400351DB198
:1055F0001C4D5543056002E0194D5543056002E01E
:10560000174D056000BF00BF144D6D6805F0F00137
:105610000909154D6B5C0568DD4045600F4D6D68EF
:1056200005F4E061090A104D6B5C4568DD4085605A
:105630000A4D6D6805F46051C90A0B4D6B5C4568F5
:10564000DD40C560054D6D6805F44041890B074D8F
:105650006B5CC568B5FBF3F5056130BD0010024019
:1056600000127A0000093D00F4010020040200202D
:1056700001490860704700000000424208B501215E
:105680004020FFF76BFF3C20ADF8000010208DF8A4
:10569000030003208DF8020069460848FDF78EFDDF
:1056A0000020074908600749C1F88C010449083106
:1056B00008600449C1F8940108BD000000180140C9
:1056C0008801234200002342024909888143014A9C
:1056D000118070470428004001460020064A1288C5
:1056E0000A40D0B2044A121F12880A4012B108B10F
:1056F000012000E0002070470428004010B5012080
:10570000FFF7EAFF20B10120FFF7DEFF00F00AF803
:105710000220FFF7E1FF20B10220FFF7D5FF00F0E4
:1057200001F810BD00BF0348008800F020000028E9
:10573000F9D070470428004000200549C870084689
:1057400090F8210081F820000846407808707047E2
:10575000E8030020002005498870084690F82400DE
:1057600081F8230008464078087070470C04002038
:10577000002005498870084690F8290081F8280023
:1057800008464078087070473404002070B504461D
:1057900000BF2579204600F059F8281AC0B270BD24
:1057A0002DE9F04104460F461546FAF78BFD1B49DB
:1057B00008602046FFF7EAFFA84201DD284602E024
:1057C0002046FFF7E3FF054620796179401AA84299
:1057D00001DD284602E020796179401AC6B20F48FF
:1057E0000068FAF773FD62792168881832463946F5
:1057F000FAF76AFFB54204DDAA1BB9192068FAF767
:1058000063FF6079284460716079217990FBF1F23F
:1058100001FB120060712846BDE8F08120000020E5
:10582000014600BF48798A79904204DB48798A7939
:10583000801AC0B205E088794A79801A0A79101A6C
:10584000C0B208B9012070470020FCE70146487942
:105850008A79904204DB48798A79801AC0B270470D
:1058600088794A79801A0A79101AC0B2F7E70000DD
:105870002DE9F04104460F461546FAF723FD1B4972
:1058800008602046FFF7E2FFA84201DD284602E05B
:105890002046FFF7DBFF05462079A179401AA84290
:1058A00001DD284602E02079A179401AC6B20F48EE
:1058B0000068FAF70BFDA279206881183246384655
:1058C000FAF702FFB54204DDAA1BB8192168FAF7FE
:1058D000FBFEA0792844A071A079217990FBF1F218
:1058E00001FB1200A0712846BDE8F08120000020D5
:1058F00000B587B001210820FFF730FE01218803A1
:10590000FFF71CFE4FF46040ADF8180018208DF82A
:105910001B0003208DF81A0006A91848FDF74EFC5D
:105920004FF460411548FDF728FD0020ADF8040054
:105930004FF48270ADF806000020ADF80800022098
:10594000ADF80A000120ADF80C004002ADF80E00E1
:105950003820ADF810000020ADF812000720ADF897
:10596000140001A9064800F065F80121044800F080
:1059700047F8FF2000F006F807B000BD000C01401A
:105980000038004070B50546002405E0601CC4B234
:10599000C82C01DD002070BD02210E4800F03CF84B
:1059A0000028F3D029460B4800F042F8002405E017
:1059B000601CC4B2C82C01DD0020ECE701210548C1
:1059C00000F02AF80028F3D0024800F02EF8C0B208
:1059D000E1E700000038004010B5044607480088A1
:1059E0004FF6C771084005490880084600882043E3
:1059F00008800121014800F003F810BD0038004084
:105A000021B1028842F04002028004E002884FF691
:105A1000BF731A40028070470246002013890B4072
:105A20000BB1012000E000207047014688897047D3
:105A30008181704710B50022028802F441520B8820
:105A40004C8823438C882343CC8823430C892343ED
:105A50004C8923438C892343CC8923431A430280F6
:105A6000838B4FF2FF74234083830B8A038210BD24
:105A70007047000070B50026002400251CE020219E
:105A8000002003F015FA054620212846FAF761FEAA
:105A9000202229461D48FFF7EBFE0646002404E0BD
:105AA000285D04F0C7F9601CC4B2B442F8DB294693
:105AB000002003F0EBF900251448FFF7B1FE0028A1
:105AC000DDD01CE02021002003F0F2F90546202162
:105AD0002846FAF73EFE202229460D48FFF7C8FE69
