:020000040800F2
:1000000040D400202D020008C5380008A1330008A4
:10001000E13700084B0A0008B35F00080000000049
:10002000000000000000000000000000B94A0008C5
:100030004B0D000800000000BB020008E54B000863
:10004000470200084702000847020008D549000897
:1000500047020008470200084D0D0008470200084B
:1000600047020008250F0008470200084702000861
:10007000470200084702000847020008470200083C
:10008000210B000847020008470200084702000849
:10009000470200084702000847020008710F0008E5
:1000A000470200085D4D00084702000847020008AB
:1000B000A54E00080D5100085953000847020008DA
:1000C00047020008470200084702000847020008EC
:1000D00047020008795D000847020008470200084F
:1000E000A50D000847020008470200084702000863
:1000F0008D5900084702000847020008470200081F
:100100004702000847020008E555000847020008BA
:100110004702000847020008155800085D5800080B
:10012000470200084702000847020008470200088B
:1001300000F002F800F06BF80AA090E8000C82448E
:100140008344AAF10107DA4501D100F060F8AFF26B
:10015000090EBAE80F0013F0010F18BFFB1A43F0A5
:1001600001031847E0900000009100000A444FF09E
:10017000000C10F8013B13F0070408BF10F8014B06
:100180001D1108BF10F8015B641E05D010F8016B4B
:10019000641E01F8016BF9D113F0080F1EBF10F8AF
:1001A000014BAD1C0C1B09D16D1E58BF01F801CBD2
:1001B000FAD505E014F8016B01F8016B6D1EF9D555
:1001C0009142D6D37047000000230024002500266A
:1001D000103A28BF78C1FBD8520728BF30C148BFAA
:1001E0000B607047642900F0F980752900F0F680F3
:1001F000782900F02F81632900F0B582732900F07F
:10020000BA82002070471FB51FBD10B510BD00F0A9
:10021000EDFA1146FFF7F7FF06F0C4F900F00BFB0B
:1002200003B4FFF7F2FF03BC05F0ECFE094880477A
:1002300009480047FEE7FEE7FEE7FEE7FEE7FEE7C8
:10024000FEE7FEE7FEE7FEE704480549054A064BE0
:1002500070470000014C00083101000840CE00202A
:1002600040D4002040D0002040D00020EFF3108088
:1002700072B6704780F310887047204C204D25607F
:100280004FF0000484F309881E4C4FF001052570DF
:100290001D4C4FF08055256062B6FEE730B41A4C15
:1002A0004FF08055256030BC704730B4164C4FF08D
:1002B0008055256030BC704700BF72B6EFF30980EF
:1002C00028B1203880E8F00F10490968086000B5AF
:1002D0000F4880475DF804EB0E480F490A7802701A
:1002E0000A480E490A680260106890E8F00F203052
:1002F00080F309884EF0040E62B6704720ED00E0EE
:100300000000FFFF2602002004ED00E02C02002088
:10031000513F00081B0200201C0200203402002074
:10032000704700000FB4044910B503AA029800F00A
:1003300027FA10BC5DF814FBC401002070B5044618
:1003400085690068C10601D5302600E02026C00777
:1003500007D070BDD4E9012130469047206A401C87
:1003600020626D1EF6D570BD70B5044685690078B3
:10037000C00707D170BDD4E9012120209047206A31
:10038000401C20626D1EF6D570BD70B50C4605464A
:10039000012A05D02878800600D5EA69002302E00A
:1003A000012305E05B1C934202D2E05C0028F9D1F6
:1003B000A869E618C01AA861286A18442862284665
:1003C000FFF7BCFF04E0D5E9012114F8010B9047C9
:1003D000B442F8D32846FFF7C7FF70BD2DE9F041BE
:1003E0000646002410687529314616A510D0AFF3D3
:1003F0000080002802DA404213A507E031688A072E
:1004000001D512A502E0490704D511A5012401E098
:10041000AFF3008000210A2206F1240709E0B0FBB7
:10042000F2FCB0FBF2F302FB1C00303078541846AB
:10043000491C0028F3D123462A463046BDE8F04146
:1004400000F02EB9000000002D0000002B0000007D
:100450002000000070B504460D4621461068AFF339
:1004600000802188090502D50F4A7A4402E00E4A2D
:100470007A440E32002104F1240305E000F00F0657
:100480000009965D5E54491C0028F7D120780023AE
:10049000000704D5702D02D009B102231132204685
:1004A000BDE8704000F0FCB87E8B00002DE9F05FE5
:1004B000894604464FF0000ADFF874B1FB44C0F8E7
:1004C00020A02046E1688847002874D0252806D05F
:1004D000D4E901219047206A401C2062F1E7002600
:1004E0005F462046E16888472028054607DB312D16
:1004F00005D2781910F8200C08B10643F1E7B007CF
:1005000001D526F00406C4F81CA00027C4F818A0E2
:100510002A2D09D0284605F06EFD38B304EB870874
:10052000303DC8F8185019E059F8041B204604EB78
:1005300087029161E1688847012F054618D1E0697B
:10054000002820DA26F020061DE0D8F8180000EB7D
:10055000800005EB40003038C8F818002046E168FC
:100560008847054605F047FD0028EED1012F0AD047
:100570002E2D08D12046E16888477F1C0546022FB2
:1005800046F02006C4DBA069002803DA404246F0AA
:100590000106A061F00701D026F010066C2D0BD0EB
:1005A000682D09D04C2D39D06A2D35D0742D35D019
:1005B0007A2D33D016E038E0E1682F462046884790
:1005C000B842054609D16C2F26D04FF48060E1680F
:1005D000064320468847054604E06C2F1AD04FF4A6
:1005E000807006430DB3A5F14100192802D82035CB
:1005F00046F400664A462946204626604E46FFF7E6
:10060000F1FD80B101280BD0F61D26F0070000F1A6
:10061000080956E74020E4E78020D8E70020D6E725
:1006200006F104094DE7284652E7206ABDE8F09F2D
:10063000548B00004FF0000200B5134694469646D6
:10064000203922BFA0E80C50A0E80C50B1F12001E5
:10065000BFF4F7AF090728BFA0E80C5048BF0CC093
:100660005DF804EB890028BF40F8042B08BF7047F1
:1006700048BF20F8022B11F0804F18BF00F8012B63
:100680007047704770477047704710B500F08AF8A0
:10069000006810BD10B5044600F084F8046010BD79
:1006A0002DE9F0470D4699469246044600F124088C
:1006B0000168880604D5E06921F01001216000E09E
:1006C0000120A84201DD471B00E00027A1697A193B
:1006D00002EB0900081AA0612078C00602D4204667
:1006E000FFF72CFE002608E0D4E901211AF80600E5
:1006F0009047206A401C761C20624E45F4DB20782F
:10070000C0060AD52046FFF719FE06E0D4E901210C
:1007100030209047206A401C2062381EA7F1010754
:10072000F4DC07E0D4E9012118F805009047206ABD
:10073000401C2062281EA5F10105F3DC2046FFF7CE
:1007400013FE2078000602D50220BDE8F0870120C4
:10075000FBE710B5436913B1AFF3008001E0FFF789
:1007600014FE012010BD127800F124010A7000224D
:100770004A700122EDE711684FF0FF32E9E700000F
:10078000074B70B50D467B4400F015F8044628462B
:1007900000F024F810B14FF0FF3070BD204670BD5E
:1007A000075D000000487047E0CD002001694A1C49
:1007B00002610878704700B58FB0CDE901310021A2
:1007C000059105497944CDE9031011466846FFF7C4
:1007D0006DFE0FB000BD0000E5FFFFFF007B00F0E5
:1007E0008000704700487047E0CD00207546FFF755
:1007F000F9FFAE4605006946534620F007008546DE
:1008000018B020B5FFF720FDBDE820404FF00006EE
:100810004FF000074FF000084FF0000B21F00701E8
:10082000AC46ACE8C009ACE8C009ACE8C009ACE82B
:10083000C0098D46704710B50446AFF300802046CE
:10084000BDE81040FFF7ECBC21B1826842F0010224
:10085000826003E0826822F001028260704700003B
:1008600010B504461248844208D10121401503F016
:10087000F7FF0021601503F0F3FF17E00D488442F5
:1008800008D10121001503F0EBFF0021201503F032
:10089000E7FF0BE00848844208D10121C80303F0B8
:1008A000DFFF00214FF4004003F0DAFF10BD00002D
:1008B0000024014000280140003C01400146002086
:1008C0008A6802F004020AB1012000E000207047AB
:1008D0000146C86C80B270470246002013680B4086
:1008E0000BB1012000E000207047014600208A681B
:1008F00002F008020AB1012000E000207047000069
:1009000030B502460020002350680F4C20400D797E
:100910000C6844EA05242043506090680B4C20404A
:10092000D1E902542C434D7944EA450420439060B8
:10093000D06A20F470000C7C641EE4B2234340EAC9
:100940000350D06230BD0000FFFEF0FFFDF7F1FF65
:10095000F0B504460D4600200021092D11DDE068A8
:10096000A5F10A0606EB4607072606FA07F18843B3
:10097000A5F10A0606EB460603FA06F10843E06015
:100980000CE0206905EB4507072606FA07F18843C6
:1009900005EB450603FA06F108432061072A0FDA42
:1009A000606B561E06EB86071F2606FA07F1884382
:1009B000561E06EB860605FA06F10843606322E040
:1009C0000D2A0FDA206BD61F06EB86071F2606FAC4
:1009D00007F18843D61F06EB860605FA06F10843A1
:1009E000206310E0E06AA2F10D0606EB86071F26E1
:1009F00006FA07F18843A2F10D0606EB860605FA12
:100A000006F10843E062F0BD816841F008018160B1
:100A1000704721B1826842F4A002826003E08268DC
:100A200022F4A00282607047816841F00401816075
:100A3000704710B502F056FE03F08CFF02F0B2FCD6
:100A400002F0D0FE02F00AFE10BD00BFFEE700007B
:100A500012480078042812DC11480068012801D0EF
:100A6000012070470F488068406A0E49098A884211
:100A700012D00C488068407870B90120F1E709482D
:100A80008068406A0749098A884205D0054880681D
:100A9000407808B90120E4E70020E2E710040020D4
:100AA00008012242CC0300200A480068012809D12D
:100AB0000948006801280BD108484068407838B9D7
:100AC0000120704705484068407808B90120F8E7E0
:100AD0000020F6E7080122420C8122421004002087
:100AE00010B506480068012805D00021022000F05A
:100AF000AFFB002010BD0120FCE700000481224272
:100B000010B506480068012805D00021102000F02B
:100B10009FFB002010BD0120FCE7000038012342AC
:100B200010B54FF4001000F0D1F850B14FF40010A0
:100B300000F00CF8FA210348FFF77CFD024802F0B0
:100B40003DFE10BD740900206C00024000F0805191
:100B500011B10349086001E0024948607047000094
:100B6000040402400000024021B1026842F0010288
:100B7000026004E002684FF6FE731A40026070479C
:100B800001684FF6FE721140016000210160416072
:100B90008160C1604B49884208D14A490839496897
:100BA00041F00F01474A083A51608AE04549143143
:100BB000884208D143490839496841F0F001414A67
:100BC000083A51607DE03F492831884208D13D49CB
:100BD0000839496841F470613A4A083A516070E056
:100BE00038493C31884208D136490839496841F4CE
:100BF0007041344A083A516063E0324950318842CA
:100C000008D130490839496841F470212D4A083A21
:100C1000516056E02B496431884208D1294908398E
:100C2000496841F47001274A083A516049E0254972
:100C30007831884208D123490839496841F0706108
:100C4000204A083A51603CE01F49884206D1011F02
:100C5000096841F00F01021F116032E01A49143196
:100C6000884208D11849091F096841F0F001164A65
:100C7000121F116025E014492831884208D1124919
:100C8000091F096841F470610F4A121F116018E0D2
:100C90000D493C31884208D10B49091F096841F4CC
:100CA0007041094A121F11600BE007495031884218
:100CB00007D10549091F096841F47021024A121F32
:100CC00011607047080002400804024001460020FD
:100CD000002201F0805313B1054B1A6801E0054B67
:100CE0001A6802EA01030BB1012000E000207047FE
:100CF00000040240000002401AB103680B43036085
:100D000002E003688B430360704710B5002202685D
:100D100047F6F0739A430C6A8B6823430C692343AC
:100D20004C6923438C692343CC6923434C6A234396
:100D30008C6A23431A430260CB6843600B6883606C
:100D40004B68C36010BD41607047704710B501200B
:100D500000F020FAC8B10D48807880B9322005F043
:100D6000B1FA0B480068012809D10021800704F07E
:100D7000BBFE084800690549486200204870012010
:100D800000F002FA04A0FFF7CDFA10BD2C010020FC
:100D900000812242100400206578746920310D0A18
:100DA0000000000010B541A0FFF7BCFA4FF48060CE
:100DB00000F0F0F9A8B1322005F084FA3E4800684E
:100DC000012807D100213D4804F08EFE00203C4957
:100DD000486248703BA0FFF7A5FA4FF4806000F02E
:100DE000D3F94FF4006000F0D5F9B0B1C82005F098
:100DF00069FA3148001D0068012807D000213548F4
:100E000004F072FE00203449486248704FF40060DC
:100E100000F0BAF931A0FFF785FA4FF4805000F0E6
:100E2000B9F9D0B1C82005F04DFA23480830006860
:100E300001280BD100212D4804F056FE01201E4947
:100E40007431086000202A49486248704FF480508D
:100E500000F09AF927A0FFF765FA4FF4005000F070
:100E600099F9B0B1322005F02DFA13480C30006822
:100E7000012807D10021234804F036FE0020224932
:100E8000486248704FF4005000F07EF91FA0FFF751
:100E900049FA4FF4004000F07DF930B14FF40040C2
:100EA00000F072F91CA0FFF73DFA10BD6578746977
:100EB00031352D31300D0A0028012342002C01402C
:100EC0002C00002047455F73746172745F53656E38
:100ED0000D0A0000000C00406C00002047435F72C8
:100EE0006F745F53656E0D0A00000000000400403F
:100EF000AC00002047435F7665725F73656E0D0A34
:100F00000000000000340140EC00002045787469C6
:100F10002031330D0A000000657874692031350DE9
:100F20000A00000010B5082000F034F9A0B132200A
:100F300005F0C8F909480068012807D10021800799
:100F400004F0D2FD0020064948624870082000F0F5
:100F50001BF904A0FFF7E6F910BD00000C81224246
:100F60002C0100206578746920330D0A0000000010
:100F700010B5202000F00EF9B0B1322005F0A2F932
:100F80005C480068012809D10021800704F0ACFD0D
:100F9000594840695949486200204870202000F0B3
:100FA000F3F857A0FFF7BEF9402000F0F3F8A8B11E
:100FB000322005F087F94F48001D0068012807D14D
:100FC0000021534804F090FD0020524948624870C7
:100FD000402000F0D9F850A0FFF7A4F9802000F0DD
:100FE000D9F800283BD0322005F06CF9424800784F
:100FF000072819DD3F480830006801282CD04548F3
:10100000806AB0F5C87F0BD90021414804F06CFD1F
:10101000002040494870886243A0FFF783F91BE035
:1010200045A0FFF77FF917E033480078062813D171
:10103000314890F8240001280ED12E48083000686D
:10104000012809D00021324804F04EFD002031492A
:1010500048703DA0FFF766F9802000F095F84FF446
:10106000807000F097F8E8B1322005F02BF93A488B
:101070000078072812D13948006801280ED1374876
:10108000001D0068012809D00021354804F02CFD1E
:1010900000203449487034A0FFF744F94FF48070C1
:1010A00000F072F84FF4007000F074F800B33220D2
:1010B00005F008F928480078062803D0264800786B
:1010C000072811D12548001D006801280CD10021F6
:1010D000234804F009FD00202249487026A0FFF7AC
:1010E00021F90120274908704FF4007000F04CF8F6
:1010F00010BD000014812242100400202C010020A9
:10110000474F485F656E645F73656E0D0A000000AF
:10111000000800406C010020474F565F73746172F5
:10112000745F53656E0D0A00676C6173732073748E
:101130006F700D0A00000000676C617373206572A8
:10114000726F720D0A000000474F565F67616C7343
:10115000735F73656E0D0A00B00300202001234207
:10116000002C01402C00002047455F646F776E5FC4
:1011700053656E200D0A000047455F75705F53652B
:101180006E0D0A002B000020014908607047000026
:1011900014040140014600200022074B1B6803EAAB
:1011A0000102054B14331B680B4013B10AB1012037
:1011B00000E00020704700000004014000212349A6
:1011C0008279002A3AD00A46126803689A430B468D
:1011D0001A600A1D126803689A430B1D1A6002798F
:1011E00011440A6803681A430A60184A08321268F0
:1011F00003689A43154B08331A601A1D1268036876
:101200009A43124B0C331A604279102A0ED11A1FDE
:10121000126803681A430D4B08331A601A1D1268CE
:1012200003681A43094B0C331A600DE007494279F1
:1012300011440A6803681A430A6005E00279114400
:101240000A6803689A430A6070470000000401407E
:1012500070B504460D462A46214614A0FFF762F8F1
:10126000194805F071FE194805F06EFE184805F0A2
:101270006BFE184805F068FE174805F065FE174834
:1012800005F062FE002016498875487008701549FF
:10129000087688700870144981F8230088700870F7
:1012A000124981F824008870087070BD457272720E
:1012B0006F723A25642C4572726F725F73656E733C
:1012C0006F723A25640000002C000020AC00002062
:1012D0006C000020EC0000202C0100206C0100209C
:1012E000B0030020CC030020E803002010040020FD
:1012F00008B50121302003F0A3FAFB20ADF800006F
:1013000048208DF803006946054801F033FA0420AF
:10131000ADF800006946034801F02CFA08BD000052
:10132000001401400010014008B50121402003F0E5
:1013300087FA4FF47F40ADF8000048208DF8030095
:101340006946024801F016FA08BD00000018014085
:101350001CB5FFF7CDFF0121084603F071FA00200C
:101360008DF8040001208DF806000021032001F013
:10137000E1F908208DF80500012000906846FFF78C
:101380001DFF0321084601F0D5F908208DF805005E
:1013900000906846FFF712FF0521032001F0CAF90B
:1013A00008208DF80500202000906846FFF706FF12
:1013B0000621032001F0BEF908208DF80500402029
:1013C00000906846FFF7FAFE0721032001F0B2F90A
:1013D0000C208DF80500802000906846FFF7EEFE97
:1013E0001CBD0EB5FFF7A0FF0121084603F028FA47
:1013F00000208DF8080001208DF80A000D2104203E
:1014000001F098F908208DF809008002019001A8E8
:10141000FFF7D4FE0C21042001F08CF908208DF890
:1014200009004002019001A8FFF7C8FE0B2104202B
:1014300001F080F90C208DF809004FF40060019054
:1014400001A8FFF7BBFE0A21042001F073F9082070
:101450008DF80900C001019001A8FFF7AFFE092136
:10146000042001F067F908208DF80900800101903F
:1014700001A8FFF7A3FE0821042001F05BF9082072
:101480008DF809004001019001A8FFF797FE282080
:101490008DF8000002208DF8010000208DF8020078
:1014A00001208DF80300684602F00EFA17208DF82F
:1014B000000002208DF8010000208DF802000120BC
:1014C0008DF80300684602F0FFF90EBD10B54548DF
:1014D0000078102809D2DFE800F00822257D3C09B9
:1014E000111928373F455A6F808178E000203D4927
:1014F0004870487608768870087070E00020394996
:101500004870487608768870087068E03648007839
:101510000A2803DC0321082002F018FA5FE003F038
:1015200077FA5CE003F074FA59E030480078072855
:1015300009D12E484078022805D100202949887019
:101540000876092008704AE004210A2002F0FEF91A
:1015500045E003F05DFA42E00020224988700B204C
:1015600008703CE02248007808280FD12048807895
:1015700002280BD11C484068406A1B4949698842CF
:1015800004D10020174988700C20087027E0184803
:10159000007809280FD11648807802280BD112480C
:1015A0004068406A10494969884204D100200D49C9
:1015B00088700D20087012E00B480078072808DBBF
:1015C00009480078092804DC0020064988700720B3
:1015D000087004E003F01CFA01E000E000BF00BF67
:1015E00010BD0000CC030020E8030020B003002061
:1015F0001004002010B5A5480078102809D2DFE8B3
:1016000000F0089CA6F0F1094998BBD2F8EDECEB8C
:10161000EAE938E19D48007E28B99C490878032111
:1016200002F094F935E09948007E012805D19749E8
:101630000878012102F08AF92BE09448007E022804
:101640001FD193480068012817D000208F4989686E
:1016500088708E49886805F047F98C4A92689288AC
:101660004FF4C87302FB03F1884A9068002205F02A
:101670002DF80120854988700BE003208349087606
:1016800007E08248007E032803D10221002002F0F7
:101690005DF9F8E07D48017E7EA0FEF743FE7B48C1
:1016A000007E28B979490878012102F04FF93FE01E
:1016B0007648007E012808D1FFF7F6F908B3734990
:1016C0000878022102F042F932E07048007E0228D8
:1016D0001CD175480068012814D174484068406ADC
:1016E00072490969884223D170484068407840B9FE
:1016F0000120664988700A46118A9068002205F028
:1017000007F815E002206149887011E05F48007E0B
:10171000032805D15D490878032102F017F907E095
:101720005A48007E042803D10221002002F00EF95D
:10173000A9E0022055498870A5E054490022486874
:10174000114604F0E5FF0120504988709BE05048A5
:101750000068012803D002204C4988700BE0FFF795
:10176000A3F940B1494900228868114604F0D0FF2E
:1017700001204649887086E044488068406A4349B1
:101780004969884203D10220404988700AE0FFF786
:101790008BF938B13D4A518A906805F01BF8012059
:1017A0003A4988706FE03A4808380068012810D03C
:1017B00037480C38006801280BD13D484068407814
:1017C00038B9324A5169506805F004F801202F49B0
:1017D000887058E056E054E038E021E015E008E079
:1017E00000E048E000203349086001202749887064
:1017F00049E0264A5269A2F57A51244A506804F019
:10180000E9FF0120214988703DE0204942F6361267
:101810004868002104F07CFF01201C49887032E0F8
:101820001B480068012803D00220184988700CE08A
:10183000FFF73AF948B115494FF47A7288680021E8
:1018400004F066FF0120114988701CE017484068C9
:10185000406A1649096988420CD1144840684078AA
:1018600040B90A4A118A9068002204F051FF012011
:101870000649887007E001200E4908600349887016
:1018800001E000E000BF00BF10BD0000CC0300205D
:101890002C0123424743207265736574206F6E3AB2
:1018A00025640D0A200000000801224210040020D7
:1018B000B0030020B481224210B56448007810289B
:1018C00009D2DFE800F0083E4FAC6C09203D5C64B3
:1018D0007E8697A4BEBFB6E05C48007E90B15B48B0
:1018E000007E01280ED05948007E022809D15748B1
:1018F0008068407830B90020544988700320087609
:1019000000E000BF9FE05148007EC0B14F48007E1C
:10191000012814D04D48007E02280BD14B48806826
:10192000407860B90020494988700846007E401C14
:10193000087604E04548007E032800D000BF82E01E
:1019400081E043480068012803D102203F498870A4
:1019500007E03E484068407818B910212020FFF782
:1019600077FC70E03A48001F0068012803D002208D
:101970003649887002E035488068407863E0334833
:101980008068407810B90220304988705BE02F48A9
:101990004068407810B902202C49887053E02B48E9
:1019A000C06864280CD92B480068012803D10220A4
:1019B0002649887004E04FF400412020FFF748FCDE
:1019C00041E022484068407810B902201F498870E1
:1019D00039E01F480068012803D102201B498870A4
:1019E00007E01A484068407818B910212020FFF716
:1019F0002FFC28E01648001F0068012803D00220B1
:101A00001249887002E011488068407800BF0F4892
:101A10008068407810B902200C49887013E00B48A8
:101A2000C06864280CD90B480068012803D0022044
:101A30000649887004E04FF400412020FFF708FCBD
:101A400001E000E000BF00BF10BD0000CC0300209B
:101A5000300123420801224210B51448807820B991
:101A6000FFF7C8FD00201149C860104880780128A0
:101A700010D1FFF721FF0D48C068401C0B49C8601A
:101A80000846C06844F62061884203D900214020FE
:101A9000FFF7DEFB05488078022805D1044800786E
:101AA000022801D0FFF712FD10BD0000CC0300207A
:101AB0003C04002010B52A4800780B284DD2DFE8FE
:101AC00000F006070D12171C222A434A4B0044E07F
:101AD000002023490870487088753EE000202049A6
:101AE0000870487039E000201D490870487034E0E3
:101AF00000201B49087048702FE0002018494870EA
:101B00000620087029E00020154948700720087059
:101B10000120087521E01248407D78B104F026FBD1
:101B200088B11048006801280DD00E48001D0068DB
:101B3000012808D000200A49487004E00020084924
:101B400048700820087008E0002005494875487072
:101B50000620087001E000E000BF00BF10BD0000DB
:101B6000B00300202001234210B5754800780B28EF
:101B700007D2DFE800F006073A3E5B6B8AABC1DDB7
:101B8000DE00DBE06E48807DF0B96E480068012819
:101B900016D100206A49496888706949486804F08C
:101BA000A3FE674A5268928802EB82025100644A9F
:101BB0005068002204F08AFD01206149487013E05A
:101BC00001205F4988750FE05D48807D01280BD1B9
:101BD00004F0CCFA40B15A4900224868114604F09A
:101BE00097FD012056494870A8E0022054494870EA
:101BF000A4E05448006801280BD15149486805F019
:101C0000A3F900204E494968486202204C494870B7
:101C10000BE004F0ABFA40B1494900224868114694
:101C200004F076FD01204649487087E004F09EFAF2
:101C300058B1434A5268126AA2F16401404A50689E
:101C400004F0C8FD01203E49487077E000203C497F
:101C500008753C48006801280AD1486805F074F905
:101C600000203749496848620220354948700BE036
:101C700004F07CFA40B1324900224868114604F071
:101C800047FD01202E49487058E02E48001F00688B
:101C9000012803D102202A49487016E004F066FAB0
:101CA00098B1274A1269264BDB681A44244B5B68BB
:101CB0009B8864246343C3EB4201214A506800229D
:101CC00004F026FD01201E49487037E004F04EFA6A
:101CD00088B100201A49496888701949486804F099
:101CE00003FE174AD16850684FF4FA6204F0EEFC24
:101CF00001201349487021E004F038FAB8B10020FF
:101D00000F49496888700E49486804F0EDFD0C4A97
:101D100052689288C2EB02125100094A50680022B0
:101D200004F0D4FC0120064948700020487505E005
:101D300004E0002002494870087000BF00BF10BDD9
:101D4000B00300202801234210B5544800780B2826
:101D500007D2DFE800F006072B2C3D455673979F0E
:101D6000A00099E04D48807D48B94C4840684078D3
:101D7000D8B90020494948700120887515E04748C6
:101D8000807D012811D146480068012805D1022034
:101D9000424948700020887507E040484068407814
:101DA00018B901212020FFF753FA75E074E03C4890
:101DB0000068012803D102203849487007E03748FD
:101DC0004068407818B901212020FFF741FA63E00C
:101DD00032484068407810B90220304948705BE0D2
:101DE0002F480068012803D102202C49487007E0E1
:101DF0002A484068407818B901212020FFF728FAC6
:101E00004AE0264840684078B8B92448007D38B197
:101E100000202249087502204870092008700CE053
:101E20001F48001F0068012803D102201B49487089
:101E300003E000210820FFF70BFA2DE01748406867
:101E40004078F0B91648001F006801280AD01448ED
:101E500008380068012805D1022010494870012087
:101E600048750EE00E48001F0068012805D10220C9
:101E70000A4948700020487503E006212020FFF73A
:101E8000E7F909E005484068407810B902200349A5
:101E9000487001E000E000BF00BF10BDB0030020AB
:101EA0002801234210B51448407820B9FFF75CFEA2
:101EB00000201149886010484078012810D1FFF7B0
:101EC00043FF0D488068401C0B49886008468068C5
:101ED00044F62061884203D900214020FFF7B8F979
:101EE00005484078022805D104480078022801D02E
:101EF000FFF7E0FD10BD0000B00300203C0400200F
:101F000010B54C4800780F2809D2DFE800F0083FF0
:101F100042850913271D3145526C718E8F0086E072
:101F20000020444981F8250048708870087081F8C5
:101F300024007CE000203F4981F82500487088702B
:101F4000087081F8240072E000203A4981F82500E9
:101F500048708870087081F8240068E000203549D6
:101F600081F8250048708870087081F824005EE0D0
:101F7000314800780C2808D12F488078022804D1F5
:101F800000202C4988700920087050E002F05AFDAA
:101F90004DE002F057FD4AE027488068406A264934
:101FA000498A884204D10020224988700A2008709A
:101FB0003DE0FEF75BF9214908601E4890F82600D5
:101FC000401C1C4981F826001D480078401E1C4911
:101FD00008701A480068FEF74DF90020154988700E
:101FE0000B20087023E00321082001F0DFFC1EE035
:101FF000FEF73CF9114908600E4890F82700401C94
:102000000C4981F827000D480068FEF733F90321D9
:10201000082001F0CBFC0AE006488068416A09A06C
:10202000FEF780F902F00EFD01E000E000BF00BF06
:1020300010BD000010040020CC0300201800002078
:102040004404002061646A20626F7820706F733AE4
:1020500025640D0A0000000010B5FB480078002838
:1020600003DC0120F94981F82B00F84800780F289B
:1020700009D2DFE800F008FEFDFC0978C4BBFBFADA
:10208000F9F8F7F6F5000FE2F04890F82400F8B9F7
:10209000EF480068012816D10020EC494968887093
:1020A000EA49486804F020FCE84A5268928802EB4A
:1020B00082025100E54A5068002204F007FB01202B
:1020C000E24988704EE00120E04981F8240049E0AF
:1020D000DE4890F82400012809D1FEF7B9FC002859
:1020E00040D0DA490878022101F060FC3AE0D74894
:1020F00090F82400022821D1D5480C30006801282E
:1021000017D10020D14989688870D049886804F0C7
:10211000EBFBCE4A9268928802EB82025100CB4AD6
:1021200090684FF4FA5204F0D1FA0120C749887040
:1021300018E00320C54981F8240013E0C34890F853
:102140002400032805D1C1490878012101F02EFCA3
:1021500008E0BE4890F82400042803D103210020A1
:1021600001F024FCA0E1B94890F8240098B9B848DF
:102170000068012806D10020B4498870012081F848
:10218000240032E0FEF764FC10B3B0490878022165
:1021900001F00CFC29E0AD4890F82400012818D18A
:1021A000AC480068012810D1AB488068406A78B913
:1021B000A9488068407858B9A44A1169506804F069
:1021C00009FB0120A14988700FE002209F49887017
:1021D0000BE09E4890F82400022806D1FEF738FC58
:1021E00018B10221002001F0E1FB5DE1974A116A7C
:1021F000906804F0EFFA01209449887054E1934804
:1022000090F8240058B9FEF77BFC40B38F498868EA
:10221000002104F0DFFA01208C49887042E08B48ED
:1022200090F82400012825D189480C300068012845
:1022300004D10220854981F8240033E0002083493D
:10224000896888708149886804F04EFB7F4A116A6A
:102250009068002204F03AFA01207C49887021E05D
:1022600021E11FE1D9E0C6E078E054E01BE0FBE0AB
:1022700035E0A7E0754890F82400022812D1744890
:102280000C300068012803D13C206F49087002E03F
:102290001E206D49087000206C4981F82B00032135
:1022A00001F084FB00E16A48006801280AD167490F
:1022B000486804F049FE022064498870002049689B
:1022C00048620BE0FEF7C4FB40B160490022486859
:1022D000114604F01DFA01205C498870E4E05C4876
:1022E000006801280AD15949486804F02DFE0220EF
:1022F000564988700020496848620BE0FEF7A8FB49
:1023000040B1524900224868114604F001FA012008
:102310004E498870C8E04D484068406A4B49096999
:1023200088420BD14949486804F00EFE0220474913
:10233000887008460069496848620EE047480068AE
:1023400001280AD043480068012806D13F49887017
:102350000A461169506804F03DFAA5E03C4808308F
:10236000006801280BD13949486804F0EDFD0220CE
:1023700036498870084640694968486221E0334818
:1023800090F82B00012804D100218020FEF760FF87
:1023900017E0FEF7B5FB80B12D481030006801282A
:1023A0000BD0FEF755FB60B10120284988700A4622
:1023B0005169506804F00EFA03E000211020FEF786
:1023C00047FF71E022480C30006801280AD11F49FC
:1023D000886804F0B9FD02201C49887000208968D3
:1023E000486207E001201949887000228868114678
:1023F00004F08EF958E00020144989688870134968
:10240000886804F071FA114AD1699068002204F0DA
:102410005DF901200D49887046E00D4810300068D4
:1024200001281DD1002009498968887007498868FA
:1024300004F05AFA054A91699068002204F046F9BE
:102440000120024988700EE044040020100400209E
:102450000C81224208012242CC0300202C0123429D
:102460000220124988701FE0012010498870002066
:10247000896888700D49886804F036FA0C4800684D
:10248000012807D10949002288684FF42F7104F010
:102490001DF906E00549002288684FF42F7104F009
:1024A00015F901E000E000BF00BF10BD10040020DE
:1024B0001881224210B57C4800780F2809D2DFE845
:1024C00000F008AB7FE5092F4D456E9098BED7ED23
:1024D000EF00E6E0744890F8240050B97248406874
:1024E0004078E0B9002070498870012081F824000C
:1024F00015E06D4890F82400012810D06A4890F843
:10250000240002280AD168488068407838B9002041
:1025100065498870032081F8240000E000BFC0E016
:10252000614890F8240080B15F4890F824000128A9
:102530000AD15D484068407838B900205A4988700F
:10254000022081F8240000E000BFAAE0564880681D
:10255000407810B9022054498870A2E0524890F89F
:10256000240050B9504880684078B8B900204E49DE
:102570008870012081F8240010E04B4890F8240076
:1025800001280AD148488068407838B90020464977
:102590008870022081F8240000E000BF81E04348F9
:1025A0000068012803D102203F49887007E03E48B7
:1025B0004068407818B940212020FEF749FE70E0BD
:1025C0003A480068012803D102203749887007E0A3
:1025D00035484068407818B940212020FEF738FE81
:1025E0005FE031484068407810B902202E49887079
:1025F00057E02E4808300068012803D102202A49FC
:10260000887008E028484068407820B94FF480710D
:102610002020FEF71DFE44E024480C30006801280D
:1026200003D102202049887008E01F488068407864
:1026300020B94FF400712020FEF70AFE31E01A485D
:102640008068407898B918488068416A18A0FDF7FA
:1026500069FE164810300068012803D00220124994
:10266000887004E00020104988700C20087018E081
:102670000D488068407840B902200B4988700846B0
:102680008068416A0FA0FDF74DFE0AE006488068A9
:10269000407810B902200449887002E001E0FFE7A9
:1026A00000BF00BF10BD0000100400200C812242BA
:1026B0006F757420626F7820706F733A25640D0A0D
:1026C000000000006E65787420626F7820706F7370
:1026D0003A25640D0A00000010B51448807820B92E
:1026E000FFF7BAFC00201149C86010488078012823
:1026F00010D1FFF7DFFE0D48C068401C0B49C860D1
:102700000846C06844F62061884203D90021402071
:10271000FEF79EFD05488078022805D10448007820
:10272000022801D0FFF7ECFB10BD000010040020D0
:102730003C04002030B500228B071C0F0F2303FA46
:1027400004F20B4B8C1053F824309343084C8D103B
:1027500044F8253023468C1053F824308C07240F7E
:1027600000FA04F42343024C8D1044F8253030BDA8
:10277000080001402DE9F041024600250026002016
:1027800000230024002791F803C00CF00F0591F8F6
:1027900003C00CF0100CBCF1000F03D091F802C084
:1027A0004CEA050591F800C0BCF1000F31D0146867
:1027B00000202BE04FF0010C0CFA00F3B1F800C040
:1027C0000CEA03069E4220D183004FF00F0C0CFA56
:1027D00003F7BC4305FA03FC4CEA040491F803C078
:1027E000BCF1280F06D14FF0010C0CFA00FCC2F826
:1027F00014C00AE091F803C0BCF1480F05D14FF0B6
:10280000010C0CFA00FCC2F810C0401C0828D1D3FF
:102810001460B1F800C0BCF1FF0F34DD5468002033
:102820002EE000F1080C4FF0010808FA0CF3B1F8A3
:1028300000C00CEA03069E4221D183004FF00F0C2A
:102840000CFA03F7BC4305FA03FC4CEA040491F8C4
:1028500003C0BCF1280F05D100F1080C08FA0CF8F0
:10286000C2F8148091F803C0BCF1480F07D100F101
:10287000080C4FF0010808FA0CF8C2F81080401C50
:102880000828CED35460BDE8F0810000F0B50A46B8
:10289000002300240021002500F00046B6F1004F7F
:1028A00002D11D4EF16901E01B4E7168C0F3034572
:1028B00083B200F44016B6F5401F08D121F07061D4
:1028C000154E766826F07066134F7E6012E000F4B5
:1028D0008016B6F5801F06D1032606FA05F4A1433B
:1028E00041F0706106E0460D360103FA06F6B14389
:1028F00041F0706122B1460D360103FA06F631430C
:1029000000F00046B6F1004F02D1034EF16101E044
:10291000014E7160F0BD0000000001404161704750
:102920000161704710B55448007811280AD2DFE8D9
:1029300000F0090A2E2B28131A21313A4C5E7B84B1
:102940008D9E9F0095E000F041FE00204A4981F8ED
:102950002300887008708CE00020474981F823002C
:102960008870087085E00020434981F82300887052
:1029700008707EE00020404981F8230088700870CC
:1029800077E002F051F874E002F04EF871E002F0E6
:102990004BF86EE00020384988700920087000204C
:1029A00081F8230065E035480068012808D100203F
:1029B000314988700A200870002081F8230003E064
:1029C00000210120FEF744FC53E02C480068012858
:1029D00008D10020284988700B200870002081F859
:1029E000230003E000210120FEF732FC41E02448EF
:1029F00000780D280CD122488078022808D10020C8
:102A00001D4988700C200870002081F823000AE01E
:102A10001B4800780E2806D10F20174908700020A7
:102A2000887081F8230024E00020134988700D206D
:102A30000870002081F823001BE000200E498870F8
:102A40000E200870002081F8230012E00B483C386B
:102A5000006801280AD00B480068012806D1002030
:102A6000054981F8230088700720087001E000E024
:102A700000BF00BF10BD0000E80300203C0123425E
:102A8000CC0300201081224210B5DC48007830B120
:102A9000DA4890F823200178D9A0FDF743FCD74805
:102AA000007811280AD2DFE800F0090AD2BAAE1085
:102AB0005497E2F3F1F0EFEEEDECEB009BE100F068
:102AC00099FB0120CD49887095E1CC4890F823000E
:102AD00028B9CA490878032100F04EFF38E0C748FA
:102AE00090F82300012805D1C4490878042100F09A
:102AF00043FF2DE0C14890F8230002281FD1C648AB
:102B00000068012816D10020BC4949688870BB497B
:102B1000486803F0E9FEB94A5268928802EB8202E3
:102B20005100B64A5068002203F0D0FD0120B3499D
:102B300088700DE00320B14981F8230008E0AF4818
:102B400090F82300032803D10221002000F014FF95
:102B500051E1AA4890F8230028B9A849087804212F
:102B600000F00AFF37E0A54890F82300012805D1BE
:102B7000A2490878032100F0FFFE2CE09F4890F85E
:102B8000230002281AD1A4480838006801280CD074
:102B9000A2480068012808D1A1480068012804D093
:102BA0000221002000F0E8FE15E0944A51695068C7
:102BB00003F010FE0120914988700CE08F4890F8D6
:102BC0002300032807D196480068012803D002217A
:102BD000002000F0D1FE0EE1FDF782FF90B18748A2
:102BE00090F8230028B985490878032100F0C4FE35
:102BF00008E0824890F82300012803D10221082030
:102C000000F0BAFEF7E00120864908608649C1F865
:102C1000B8018249B031086078498870EBE07E489D
:102C200034380068012808D17C48001D006801285C
:102C300003D102207149887008E001207749A4314E
:102C400008607949C1F8AC016C498870D3E07248DA
:102C50000068012803D102206849887006E001203D
:102C6000664988704868002103F0B4FDC3E0012084
:102C7000624988700A465169506803F0ABFDBAE0BA
:102C8000B8E0B6E081E043E039E031E019E0FFE789
:102C90005A4890F8230038B900206049A4310860F0
:102CA0000120564988700BE0544890F82300012811
:102CB00006D100205949A031086001204F49887091
:102CC00099E055480830006801280CD1002055498A
:102CD00008605549C1F8B8015049B0310860012079
:102CE0004649887003E000210120FEF7B1FA82E036
:102CF00001204A49A0310860404988707BE00120EA
:102D00003E4988700A469169506803F063FD72E09D
:102D100041480068012803D102203849887033E017
:102D2000364890F8230028B901203449887000F013
:102D300061FA29E0314890F8230001280CD12F498D
:102D400088700B469B690C46E469191B2B4B1A8C47
:102D5000586803F0DDFC17E0284890F823000228AB
:102D600005D101202549887000F03AFA0CE023488B
:102D700090F82300032807D1012020498870002201
:102D80004868114603F0C4FC35E01C4890F8230065
:102D900038B900202149A031086001201749887006
:102DA00026E0164890F82300012805D11B49A431DC
:102DB0000860124988701BE0104890F82300022830
:102DC00006D101201549AC3108600C4988700FE02C
:102DD0000A4890F8230003280AD10120114908600D
:102DE0001149C1F8B8010D49B03108600349887034
:102DF00001E000E000BF00BF10BD0000E8030020BC
:102E00004750207461736B3A256420737562746156
:102E1000736B3A25640D0A00340123420C8122426F
:102E200008012242808121420080224210B5C04820
:102E3000007811280AD2DFE800F0090A6C544B151B
:102E400030537E86B0C3D7DFF1F0EF006EE1B848B3
:102E50008068B0F5FA6F04D900F0C2F90220B449D5
:102E6000887063E1B24890F82300A8B1B04890F8A8
:102E70002300012810D0AE4890F8230002280AD180
:102E8000AB484068407838B90220A94981F823004E
:102E90000020887000E000BF48E1A54890F82300BA
:102EA000A8B1A34890F82300012810D0A04890F8BA
:102EB000230002280AD19E484068407838B9032090
:102EC0009B4981F823000020887000E000BF2DE1BD
:102ED00097488068642802D902209549887025E1C6
:102EE00024E19348806840F2DC51884210D991482F
:102EF0000068012807D190480068012803D102200A
:102F00008B49887004E04FF4C0412020FEF7A0F9FF
:102F10000CE1884834300068012803D1022084493C
:102F2000887007E082484068407818B92021084638
:102F3000FEF78EF9FAE07E484068407810B902202A
:102F40007B498870F2E07A4890F8230078B9784895
:102F50008068B0F5967F1FD97748006801281BD09C
:102F60000120734981F823000020887014E0704824
:102F700090F8230001280FD16D48806840F2DC51A1
:102F8000884209D96B480068012805D000206849AB
:102F900081F8230002208870C8E0654880686428B2
:102FA0000DD964483C300068012803D102206049F3
:102FB000887004E04FF400612020FEF749F9B5E085
:102FC0005B48806840F2DC5188420CD9594800685F
:102FD000012803D102205649887004E04FF40051C3
:102FE0002020FEF735F9A1E051484068407810B93B
:102FF00002204F49887099E04D4890F8230070B93D
:103000004B488068B0F57A7F42D9002048498870E3
:10301000012081F823003BE087E085E039E0444867
:1030200090F8230001280AD141484068407830BB1D
:1030300000203F498870022081F8230028E03C48A6
:1030400090F8230002280AD13948806864281FD9E3
:10305000002037498870032081F8230018E03448A5
:1030600090F82300032813D1324834300068012837
:1030700006D100202E4981F823000220887007E045
:103080002B484068407818B920210846FEF7E0F840
:103090004CE0274890F8230070B9254880682449FF
:1030A000898988423FD9002021498870012081F810
:1030B00023000020886036E01D4890F82300012896
:1030C0000ED11B4880681A49C98988422BD9002033
:1030D00017498870022081F823000020886022E0D0
:1030E000134890F8230002280CD111488068642806
:1030F00019D900200E498870032081F82300002090
:10310000886010E00A4890F8230003280BD1084893
:103110008068642807D90020054981F8230002202F
:1031200088700020886001E000E000BF00BF10BD93
:10313000E8030020000123421081224210B5134809
:10314000807820B9FFF7A0FC0020104988600F4864
:103150008078012810D1FFF769FE0C488068401C78
:103160000A4988600846806844F62061884203D98D
:1031700000214020FEF76CF804488078022804D132
:103180000348007808B9FFF7CDFB10BDE803002025
:103190002A00002010B501F0C3FA00F051FA002017
:1031A0000C4908600C49C1F8A40101200949083103
:1031B0000860091D0860091D08600649183108608B
:1031C000091D086005490860091D08600249C1F829
:1031D000B40110BDA08122420080224280812142A0
:1031E00010B501200249086000F0F0F910BD0000A0
:1031F0008481214210B5044991F8220000F002FABE
:1032000000200249086010BDE803002084812142AB
:1032100010B501F055FA1149086011490F480068CE
:1032200005F006FD0AD201200E490860642003F073
:1032300013F801200C49C1F8A00110BD0B49074843
:10324000006805F0F5FB06D2002006490860064933
:10325000C1F8A001F1E70020EFE70000B001002075
:103260000000A043A48122420080224200007A4351
:1032700010B500240020134908601349C1F8B001BB
:10328000012010490C310860091D08600F490860D1
:10329000091D08600B490831086001F011FA044665
:1032A0000B49204605F0C4FB05D201200549091F42
:1032B0000860032010BD00200249091F0860022099
:1032C000F8E70000AC812242008022428081214246
:1032D000000020412DE9F04F89B005460E46174603
:1032E000984600244146129805F00EFD089000BF54
:1032F00048E04FF08041304605F070FA4FF08041D1
:103300000790304605F06AFA0490204605F064FB09
:103310000390049905F0F8FC0590139905F0BCFBA7
:103320000690079905F05AFA82468AF0004001900B
:1033300002F0F6FF4FF07E51029005F0DBF90390AA
:1033400005F0ACF902460B46CDE904010020134913
:1033500004F036FFCDE9060104F000FF814649463E
:10336000089805F099FB4146079005F0C3F983469C
:103370005946384605F032FA079005F00DFB25F85E
:103380001400641C204605F027FB3146079005F029
:103390004FFBAED309B0BDE8F08F00000000F03F56
:1033A00000BFFEE738B5002401217C2001F048FA77
:1033B00010208DF8030003208DF8020041F2030471
:1033C000ADF8004069460F48FFF7D4F921460D4893
:1033D000FFF7A6FA4FF47F44ADF8004069460A486B
:1033E000FFF7C8F921460848FFF79AFA8024ADF89C
:1033F000004069460548FFF7BDF921460348FFF73D
:103400008FFA38BD000C0140001401400018014043
:1034100008B50121042001F013FA0121102001F068
:103420000FFA1020ADF800008DF8030003208DF88E
:10343000020069460848FFF79DF90220ADF8000038
:1034400069460648FFF796F90120054908600549D5
:10345000C1F8900108BD00000008014000100140C3
:10346000840122420000214270B5044614480068DD
:1034700020F47020124908600846006840F440308B
:10348000086000200F490860002516E0E0090E4999
:1034900008606006040E022003F013FB01200B49B4
:1034A000C1F88401022003F00CFB002005490860EC
:1034B000022003F006FB681CC5B2082DE6DB70BDD8
:1034C0000008014084012242900121420000224272
:1034D00010B50F48006820F470200D4908600846B8
:1034E000006840F44030086001200A4908600A4939
:1034F000C1F88401042003F0E4FA002005490860C3
:10350000042003F0DEFA00200349C1F8840110BD55
:1035100000080140900121420000224210B50F48EE
:10352000006820F470200D4908600846006840F4E7
:103530004030086000200A4908600A49C1F890013B
:10354000042003F0BEFA0120054908600549C1F8CE
:103550009001042003F0B5FA10BD000000080140FE
:10356000840122420000214210B500241348006863
:1035700020F47020114908600846006840F40020DB
:10358000086001200E49086003F09BFA01200D49F4
:10359000C1F8840103F095FA07E0601CC4B2FA2C6C
:1035A00003DDFFF7BBFF012010BD05488038006830
:1035B0000028F2D10449086000BFF5E70008014087
:1035C00090012142000022428401224210B506A04F
:1035D000FCF7A8FE00200A49086000224021902044
:1035E00001F0A2F810BD0000495456303031315F6F
:1035F0004949435F44697361626C650D0A000000CC
:103600008C01234210B50446214606A0FCF78AFE31
:1036100001200A49086022464021902001F084F8E8
:1036200010BD0000495456303031315F4949435F85
:10363000456E61626C652025640D0A008C01234291
:1036400010B5002004490860FFF7E2FE0022402187
:10365000902001F069F810BD8C01234208B50121CA
:103660007C2001F0EDF84FF4C050ADF80000482088
:103670008DF8030069461648FFF77CF82020ADF866
:10368000000048208DF8030069461248FFF772F8E1
:103690000420ADF8000048208DF8030069460E486C
:1036A000FFF768F8FB20ADF8000048208DF8030014
:1036B00069460A48FFF75EF84FF60170ADF8000062
:1036C00048208DF8030069460548FFF753F808BD08
:1036D00000080140000C01400010014000140140AE
:1036E0000018014008B50121102001F0A9F8302090
:1036F000ADF8000010208DF8030003208DF80200C3
:1037000069460448FFF736F830210248FFF708F908
:1037100008BD000000100140F8B507460D461646EA
:103720001C4610208DF8000002208DF801000020BA
:103730008DF8020001208DF80300684600F0C4F8FF
:103740000121084601F05CF83846FDF719FA1748E0
:1037500004801748056046600020154988600846C7
:10376000C460002008618020486100208861C86131
:1037700008624FF480504862002088623846FDF7A6
:10378000C4FA012202210B48FDF7B6FA01210A48CA
:1037900002F03AFB01213846FDF7E6F94FF400103C
:1037A000FDF7D4F9034800F009F8F8BDB80100208E
:1037B000480900206C0002400044004010B5044657
:1037C00000212046FDF7D0F9044801882046FDF786
:1037D000BAFA01212046FDF7C7F910BDB801002053
:1037E00000BFFEE738B5002401217C2001F028F855
:1037F00010208DF8030003208DF802008224ADF81C
:10380000004069462048FEF7B5FF21461E48FFF7F5
:1038100085F89824ADF8004069461C48FEF7AAFFD9
:1038200021461A48FFF77AF842F28134ADF8004099
:1038300069461748FEF79EFF21461548FFF76EF8C8
:103840004224ADF8004069461248FEF793FF214636
:103850001048FFF763F84FF4E054ADF800406946B4
:103860000B48FEF787FF21460948FFF757F8042465
:10387000ADF8004069460848FEF77CFF214606483F
:10388000FFF74CF838BD000000080140000C014073
:1038900000100140001801400014014010B54820FC
:1038A00001F0DEF9242001F03BFE242001F0F2FCBF
:1038B000482001F0F3FF242001F04AFF242001F00A
:1038C000AFFB10BD7047000070B5002100230F2230
:1038D000C47804B3154C246804F4E064C4F5E064CF
:1038E000210AC1F10403CA40447804FA03F1847840
:1038F0001440214309010E4C0678A155047804F0C8
:103900001F050124AC4005786D11AD0005F1E025DF
:10391000C5F8004109E0047804F01F050124AC401B
:10392000044D0678761145F8264070BD0CED00E098
:1039300000E400E080E100E002490143024A116036
:10394000704700000000FA050CED00E0094A5070D5
:103950001278824205D1074A127E521C054B5A76D4
:1039600002E00022034B5A760022024B9A701A465C
:1039700011707047CC0300200B4A507012788242BD
:1039800007D1094A92F82320521C074B83F82420C0
:1039900003E00022044B83F824200022024B9A709B
:1039A0001A46117070470000E80300200B4A50705F
:1039B0001278824207D1094A92F82420521C074B00
:1039C00083F8252003E00022044B83F82520002201
:1039D000024B9A701A4611707047000010040020C4
:1039E00010B500F013F800F0EFFB00F017FC00F04A
:1039F00037FC00F0BFFB00F091FB00F0CBFC00F0C7
:103A00006FFC00F095FC00F002F810BD70477047A5
:103A100006480078012808D105480078FF2804D21C
:103A200003480078401C02490870704726020020B5
:103A30001902002010B500241A480078012830D15E
:103A4000FCF714FC04461848007820B116480078AA
:103A5000401E1549087014480078F8B913480078DA
:103A6000E0B900F0F9FC12481249097850F8210039
:103A7000114908600F4800781049097888420DD034
:103A80000D480068806B401C0B49096888630C482E
:103A90000068401C0A490860FCF707FC2046FCF758
:103AA000E9FB10BD26020020190200201A020020A6
:103AB00078C800201C020020340200201B020020D5
:103AC0000002002010B500240B480078012811D115
:103AD000FCF7CCFB04460948007840B90848007858
:103AE000FF2804D206480078401C0549087020468B
:103AF000FCF7C0FB10BD00002602002019020020C8
:103B00001A02002010B5002413480078012821D1A2
:103B1000FCF7ACFB044611480078C0B10F480078B0
:103B2000401E0E4908700846007860B90C480078BD
:103B300028B92046FCF79EFB00F054FC0AE0204622
:103B4000FCF798FB06E02046FCF794FB02E02046D9
:103B5000FCF790FB10BD0000260200201A02002096
:103B60001902002010B50B48007890B900F074FCE1
:103B7000094800780949087009480749097850F848
:103B80002100084908600846006807490860FCF7FA
:103B900074FB10BD260200201C0200201B02002026
:103BA00078C80020340200202C020020704700005A
:103BB0002DE9FE4F06460F4690461C464FF0000981
:103BC000FCF754FB81461F48007828B14846FCF7B3
:103BD00051FB3C20BDE8FE8F1B4850F8240060BB21
:103BE0000120194941F824004846FCF743FB002313
:103BF00042463946304600F009F9824600200090DE
:103C000001900346024651460290204600F03AFCDD
:103C1000054635B90D48007801280CD100F0E2FBCB
:103C200009E0FCF723FB81460020074941F8240006
:103C30004846FCF71FFB2846CCE74846FCF71AFB32
:103C40002820C7E71902002078C80020260200209B
:103C50002DE9F04F85B081468A4693461C46DDE942
:103C60000F78129D00200390FCF700FB039023487F
:103C7000007830B10398FCF7FDFA3C2005B0BDE8B0
:103C8000F08F1F4850F8240088BB01201C4941F8E0
:103C900024000398FCF7EEFA2A464146384600F025
:103CA00001FD2B465A465146484600F0AFF80490B5
:103CB0001198CDE9008002953A4620460E9B049962
:103CC00000F0E0FB064636B90E48007801280CD11A
:103CD00000F088FB09E0FCF7C9FA039000200849CE
:103CE00041F824000398FCF7C5FA3046C6E7FFE721
:103CF0000398FCF7BFFA2820C0E700001902002053
:103D000078C8002026020020704770472DE9F04156
:103D100006460F4614464FF000081548007818B1C3
:103D200012202070BDE8F081FCF7A0FA8046FF2E3B
:103D300003D11048006890F832600F4850F82650C0
:103D40002DB94046FCF796FA43202070EAE7012D92
:103D500005D14046FCF78EFA43202070E2E7EF647D
:103D60004046FCF787FA0020207000BFDAE7000029
:103D7000190200202C02002078C8002070470000A3
:103D80002DE9F04707460D464FF0000A0020286055
:103D90006860FCF76BFA8246FF2F03D11948006870
:103DA00090F83270184850F827402CB95046FCF76C
:103DB00061FA4320BDE8F087012C04D15046FCF79E
:103DC00059FA4320F6E7207C00F0010020B9504664
:103DD000FCF750FA4520EDE70026D4F80C90D4F813
:103DE00008805046FCF746FA00E0761C58F8041BA1
:103DF0000029FAD0B0002860A9EB060080006860B6
:103E00000020D7E72C02002078C8002070B50446B7
:103E100010464FF080750560051F28462C606FF036
:103E20000106051F28462E604FF01236051F284652
:103E30002E604FF00336051F28462E604FF00236E5
:103E4000051F28462E607610051F28462E60051F88
:103E5000284629604FF01136051F28462E604FF086
:103E60001036051F28462E604FF00936051F2846DC
:103E70002E604FF00836051F28462E604FF007369B
:103E8000051F28462E604FF00636051F28462E6077
:103E90004FF00536051F28462E604FF00436051FEB
:103EA00028462E6070BD00002DE9F04105464FF018
:103EB0000008FCF7DBF98046FF2D05D1204800689B
:103EC00090F83250012608E01D48006890F8320052
:103ED000A84201D1012600E000261A4850F82540EA
:103EE0002CB94046FCF7C6F94820BDE8F081012C0A
:103EF00004D14046FCF7BEF94320F6E794F834704D
:103F00001148C05D94F8351088430F49C8550846DC
:103F1000C05D30B994F836100C48007888430B49DE
:103F2000087094F8300040F0080084F830004046F3
:103F3000FCF7A0F9012E01D100F054FA0020D4E7DB
:103F40002C02002078C800201E0200201D02002044
:103F50007047000070B5054600261748007800B18C
:103F600070BD1648007800B1FAE71DB3FCF77EF982
:103F700006461348006890F834401248005D104926
:103F8000096891F8351088430E4908550846005DC8
:103F900040B90B48006890F836100B480078884309
:103FA0000949087006480068C5623046FCF762F9A6
:103FB00000F018FA00BFD3E7190200201A0200200F
:103FC0002C0200201E0200201D0200202DE9F041DD
:103FD00004460D4616461F461248007810B155207B
:103FE000BDE8F0811048007808B13220F8E7B81C2D
:103FF000C82148434FF47A71B0FBF1F14FF461608E
:104000006043C5EB051200EB8200304400EBC002B8
:1040100002EB001001EBC0084046FFF79BFF0020B9
:10402000DEE70000190200201A02002070B5002609
:1040300000F072F8FCF71AF9064631480068401C97
:104040002F4908603046FCF715F92E480078012802
:1040500053D12D48007820B1012804D0022809D17D
:1040600003E001250BE0002509E001250120264998
:10407000087004E0012500202349087000BF00BF3C
:1040800005B970BD2148046833E0FCF7EFF8064637
:10409000E06A50B3E06A401EE062E06A28BB94F830
:1040A000300000F0370040B114F8300F00F0C800C5
:1040B000207001206070303C02E0002084F8310064
:1040C00094F8300000F0080078B93434A078104932
:1040D000097808430E49087020780E49085C617819
:1040E000084314F834190B4A505464693046FCF7FD
:1040F000C1F894F832003F28C7D100BFC1E70000E3
:1041000044020020260200203C0200203802002049
:104110001D0200201E020020704700002DE9F04122
:104120005021114800F02CF900250DE0681C86B2E2
:104130000D4800EB051400EB0617002020706760A7
:104140000AA0E060681C85B2042DEFD3064800EB9E
:10415000051400202070606004A0E060024804495B
:104160000860BDE8F081000028C400203F00000086
:104170000802002070B5C821114800F001F90023A1
:104180000FE0581C85B203EB83000D4901EB80045E
:1041900005EB850001EB8006002020706660581C4E
:1041A00083B2092BEDD303EB8300054901EB8004B7
:1041B00000202070606008460249086070BD000061
:1041C00060C300200402002000200A4908600A4958
:1041D00008700A4908700A4908700A4908700A49B3
:1041E00008600A4908600A4908600A4908600A49E3
:1041F0000870704744020020190200201A020020B3
:1042000027020020260200200002002028020020B1
:1042100014020020100200201802002000210A4A87
:104220001170002004E00021084A1154411CC8B25A
:104230000828F8D30021064A1170064A1170064A70
:104240001160064A116070471D0200201E02002006
:104250001B0200201C020020340200202C0200203F
:1042600070B54FF47C71194800F08AF84FF48071F2
:10427000174800F085F8002413E0601CC5B2C4EBB9
:10428000C40000EB4000114901EB8003C5EBC50001
:1042900000EB400001EB80065E610EA0D864601C5C
:1042A000C4B20B2CE9D3C4EBC40000EB40000749B7
:1042B00001EB80030020586106A0D8640020064965
:1042C000086002480549086070BD000078C90020F8
:1042D00078C800203F000000380200203002002093
:1042E00000B587B00320002180220A4BCDE90132BE
:1042F000CDE903104FF6FF703F23074A00900748AF
:10430000FFF7A6FC06AA06A13F20FFF7FFFC07B0B7
:1043100000BD000078C6002074C80020B945000820
:1043200075432F4F532D49492049646C65000000A7
:1043300000B587B00320002180220A4BCDE901326D
:10434000CDE903104FF6FE703E23074A0090074860
:10435000FFF77EFC06AA06A13E20FFF7D7FC07B0B8
:1043600000BD000078C4002074C60020E1450008AC
:1043700075432F4F532D4949205374617400000039
:1043800004E0002200F8012B4A1E91B20029F8D166
:10439000704700002DE9F04178211048FFF7F0FF49
:1043A00000240DE0601C86B204EB44000B4901EBD5
:1043B000C00506EB460001EBC0072F60601C84B20D
:1043C000042CEFD304EB4400044901EBC0050020AA
:1043D0002860084602490860BDE8F08168CD0020E9
:1043E0004002002010B50024FBF740FF04461348AC
:1043F0000078F8B912480078E0B900F02DF81148BB
:104400001149097850F82100104908600E480078D9
:104410000F49097888420DD00C480068806B401C19
:104420000A49096888630B480068401C094908600C
:10443000FBF734FF2046FBF71DFF10BD19020020DB
:104440001A02002078C800201C020020340200203C
:104450001B020020000200200649074A1278885CEF
:104460000649095C034A515C01EBC001044A117022
:1044700070470000EC8E00081D0200201E02002084
:104480001C0200202DE9F84F05460F46904699463C
:10449000DDE90AAB00200090FBF7E8FE00903F4802
:1044A0000468002C74D0183454F8040C3B4908609C
:1044B0000098FBF7DFFE44F8187CA57600202076F4
:1044C0006076606144F814BC44F80CAC44F8108C7D
:1044D0000C9824F8080C24F8069C0020E077E810DB
:1044E000207705F00700E076217F01208840A07743
:1044F000E17E01208840607700206060E060A0607D
:104500002062A0626062E062206325A06063183CC4
:10451000002606E0002104F1500040F82610701C2F
:10452000C6B2002EF6D02046FFF740FB2046FFF72C
:10453000EBFBFBF79BFE00901A4840F825401A4819
:10454000006860610020A0611748006810B116483B
:1045500000688461144804603434A07813490978F1
:1045600008431249087020781149085C61780843B3
:1045700014F834190E4A50540E480078401C0D4966
:1045800008700098FBF776FE0020BDE8F88FFFE783
:104590000098FBF76FFE4220F7E700003002002092
:1045A0003F00000078C80020380200201D020020D3
:1045B0001E02002027020020002400BF00BFFBF7DE
:1045C00055FE044605480068401C04490860204622
:1045D000FBF750FEFFF799FBF1E7000028020020EF
:1045E000002400BF02E02820FFF7B4FC194800783F
:1045F0000028F8D0184800686421B0FBF1F0164993
:1046000008600846006828B9002014490870FF2097
:10461000FFF74AFC00BFFBF729FE0446104800687C
:104620001049086000200E4908602046FBF722FE72
:104630000C48006808490968B0FBF1F0C0F164005B
:1046400006490870FFF79AFB00F00EF81420FFF7F8
:1046500081FCE0E718020020100200200C0200207C
:1046600028020020140200207CB5002514E06946D1
:104670002846FFF785FB064666B9094850F82540ED
:1046800044B1012C06D0D4E9020100EB8100606442
:104690000198A064681CC5B23F2DE8D97CBD00001C
:1046A00078C8002002F0010343B102F002032BB1ED
:1046B00002E0491E002308C00029FAD1704700001B
:1046C0002DE9FC474FF0000A01F09EFC0FFA80FA3A
:1046D000AAF5CD700FFA80FABAF1000F17DD504637
:1046E00003F0C6FE064600220A4B03F069FD0446AD
:1046F0000022094B03F0D4FE80460022074B03F052
:10470000CFFECDE9000103F029FDBDE8FC870020C4
:10471000FBE700000000B0400000F43F00408F4085
:1047200010B501F089FC10BD70B506460C46154663
:10473000FEF7CEFE3046FEF797FEFEF715FF204649
:10474000FEF792FEFEF710FF2846FEF78DFEFEF7FD
:104750000BFFFEF7E3FE012070BD000010B5164808
:10476000007816490870012013490870144802F0B7
:10477000EBFB144802F0E8FB134802F0E5FB13489A
:1047800002F0E2FB124802F0DFFB124802F0DCFB11
:10479000114800781049C875104800780F4988768C
:1047A0000F4800780E4981F825000E4800780D4921
:1047B00081F8280010BD00003C0400203D040020CA
:1047C0002C000020AC0000206C000020EC00002039
:1047D0002C0100206C010020B0030020CC0300203D
:1047E000E80300201004002001460020034A50681E
:1047F00020F4404008435060704700000010024021
:1048000029B1064A52690243044B5A6104E0034A43
:1048100052698243014B5A61704700000010024008
:1048200029B1064AD2690243044BDA6104E0034A23
:10483000D2698243014BDA617047000000100240E8
:1048400029B1064A92690243044B9A6104E0034A83
:1048500092698243014B9A61704700000010024048
:1048600029B1064AD2680243044BDA6004E0034AE5
:10487000D2688243014BDA607047000000100240AA
:1048800030B500210022002400232D4D6D6805F075
:104890000C0121B1042905D0082923D105E0294DB7
:1048A000056022E0274D05601FE0254D6D6805F489
:1048B0007012234D6D6805F48034022505EB924299
:1048C0001CB9214D554305600BE01D4D6D6805F485
:1048D00000351DB11C4D5543056002E0194D55438F
:1048E000056002E0174D056000BF00BF144D6D6804
:1048F00005F0F0010909154D6B5C0568DD40456068
:104900000F4D6D6805F4E061090A104D6B5C456858
:10491000DD4085600A4D6D6805F46051C90A0B4D94
:104920006B5C4568DD40C560054D6D6805F4404130
:10493000890B074D6B5CC568B5FBF3F5056130BDB0
:104940000010024000127A0000093D00EC01002036
:10495000FC01002008B501214020FFF771FF3C2039
:10496000ADF8000010208DF8030003208DF8020040
:1049700069460848FDF7FEFE002007490860074920
:10498000C1F88C010449083108600449C1F8940158
:1049900008BD0000001801408801234200002342A6
:1049A000024909888143014A118070470428004068
:1049B00001460020064A12880A40D0B2044A121F5B
:1049C00012880A4012B108B1012000E000207047AF
:1049D0000428004010B50120FFF7EAFF20B10120B4
:1049E000FFF7DEFF00F00AF80220FFF7E1FF20B139
:1049F0000220FFF7D5FF00F001F810BD00BF03480B
:104A0000008800F020000028F9D0704704280040FA
:104A10000020044988700846407E087608464078A1
:104A200008707047CC0300200020054988700846B4
:104A300090F8240081F823000846407808707047F9
:104A4000E8030020002005498870084690F82500FA
:104A500081F8240008464078087070471004002050
:104A600070B505461021002002F018F904460CB379
:104A7000284601F08DFD60B9B5F1004F05D92146FA
:104A8000002002F0F9F8002070BD284602F063F91A
:104A900005462946002002F001F92060206828B967
:104AA0002146002002F0E8F80020EDE765600020D4
:104AB000E060A0602046E7E7704710B500F002F81C
:104AC00010BD00000CB50020019000903348006834
:104AD00040F480303149086000BF3048006800F47D
:104AE000003000900198401C0190009818B901987E
:104AF000B0F5A06FF1D12948006800F4003010B182
:104B00000120009001E0002000900098012843D18E
:104B10002348006840F010002149086008460068FA
:104B200020F0030008600846006840F002000860BA
:104B30001A48406819494860084640684860084675
:104B4000406840F4806048600846406820F47C106B
:104B500048600846406840F4E8104860084600682D
:104B600040F08070086000BF0C48006800F00070E2
:104B70000028F9D00948406820F003000749486040
:104B80000846406840F00200486000BF03484068A3
:104B900000F00C000828F9D10CBD00000010024004
:104BA0000020024018B10121034A116002E00021F7
:104BB000014A1160704700008C812142042808D10D
:104BC0004FF0E021096941F004014FF0E02211614A
:104BD00007E04FF0E021096921F004014FF0E022E5
:104BE0001161704710B505480078012805D1FEF71E
:104BF0000FFFFFF71BFAFEF71DFF10BD2602002076
:104C000010B51348006840F00100114908600846DB
:104C10004068104908400E494860084600680E493F
:104C200008400B4908600846006820F480200860AE
:104C30000846406820F4FE0048604FF41F0088607A
:104C4000FFF73BFF4FF000600449086010BD000013
:104C5000001002400000FFF8FFFFF6FE08ED00E044
:104C600010B58AB004460121C802FFF7E9FD012111
:104C70000420FFF7E5FD01210846FFF7E1FD0121D2
:104C80003148FDF703FE314890FBF4F03049C8622B
:104C90004FF48070ADF8240018208DF82700032011
:104CA0008DF8260009A92B48FDF764FD4FF47A70B2
:104CB000ADF81C00601E80B2ADF818000020ADF801
:104CC0001E00ADF81A008DF8200006A9224800F059
:104CD0009BFF01221146204800F032FF01211E48AF
:104CE00000F0FCFE7020ADF808000020ADF81000C8
:104CF0000120ADF80A004FF4FA70ADF80E0002A9D9
:104D0000154800F027FF0821134800F06FFF01212C
:104D1000114800F0D7FE19208DF8040001208DF80D
:104D2000050000208DF8060001208DF8070001A87D
:104D3000FEF7CAFD0121084800F0E2FE0021064806
:104D400000F0D2FE0AB010BD0002300000A24A04FA
:104D50002C00002000080140002C014010B501216A
:104D60004E4800F0DCFE002842D001214B4800F004
:104D7000B8FE4B48807828B94948406A401C4849E9
:104D8000486204E04648406A401E4549486244483B
:104D9000806A401C4249886208464069896A8842A4
:104DA00007D800213D4800F09FFE00203C49487094
:104DB00010BD3B48006A3A49496A884207DC002135
:104DC000364800F091FE002035494870F0E734483D
:104DD000407802280DD13248C188304800F00FFFDA
:104DE0002F48C48804EBD47041102C4800F009FF10
:104DF00051E02B48407801284DD12948806A284944
:104E0000C969884215D82648006B254A926A30F84D
:104E10001210224800F0F3FE2148006B204A926AEB
:104E200030F8124004EBD47041101C4800F0E9FE49
:104E300031E01B4840691A49C969401A1849896A12
:104E400088421BD816484069154A926A801A144A4B
:104E5000126B32F81010114800F0D1FE1048406972
:104E60000F4A926A801A0E4A126B32F8104004EB15
:104E7000D4704110094800F0C4FE0CE00848C18815
:104E8000064800F0BCFE0648C48804EBD47041100C
:104E9000024800F0B6FE00BF8AE70000002C014087
:104EA0002C00002010B50221480700F038FE002831
:104EB00059D00221480700F014FE57480078401CE2
:104EC00055490870087800EBD0714910A0EB4101FA
:104ED000514A11701046007878BB5048807828B944
:104EE0004E48406A401C4D49486204E04B48406AC5
:104EF000401E4A4948624948806A401C47498862C6
:104F000008464069896A884208D800214FF08040ED
:104F100000F0EAFD00204149487010BD3F48006A9A
:104F20003E49496A884209DC00214FF0804000F088
:104F3000DBFD002039494870EFE7FFE7374840784C
:104F4000022811D14007808C3449C98808444FF6A3
:104F5000FF7190FBF1F201FB120084B221464FF089
:104F6000804000F04EFE55E02C484078012851D199
:104F70002A48806A2949C969884216D82748006B9F
:104F80002649896A30F811004FF08041898C084425
:104F90004FF6FF7190FBF1F201FB120084B2214643
:104FA0004FF0804000F02DFE34E01C4840691B4962
:104FB000C969401A1949896A884219D8174840694D
:104FC0001649896A401A1549096B31F810004FF0EB
:104FD0008041898C08444FF6FF7190FBF1F201FB90
:104FE000120084B221464FF0804000F00AFE11E02A
:104FF0004FF08040808C0949C98808444FF6FF7102
:1050000090FBF1F201FB120084B221464FF0804088
:1050100000F0F7FD00BF80E7CB0100202C0100204D
:1050200010B58AB0044601210846FFF7F9FB0121BB
:105030000520FFF705FC01212F48FDF727FC012182
:105040002E48FDF723FC2E4890FBF4F02D49C86252
:105050004FF40040ADF8040018208DF8070003203D
:105060008DF8060001A92848FDF784FB4FF6FF7074
:10507000ADF82000601E80B2ADF81C000020ADF835
:105080002200ADF81E0007A94FF0804000F0BCFDE3
:105090003020ADF80C004FF4FA70ADF8120001208A
:1050A000ADF80E000020ADF814004FF48070ADF89C
:1050B00018000020ADF81A0003A94FF0804000F05E
:1050C00049FD00214FF0804000F090FD01220221B7
:1050D000480700F035FD1C208DF8080001208DF8F0
:1050E000090000208DF80A0001208DF80B0002A8AD
:1050F000FEF7EAFB0AB010BD000318000002300002
:10510000005125022C0100200008014010B50221A9
:105110005C4800F004FD00285DD00221594800F0F1
:10512000E0FC59480078401C57490870087800EBAB
:10513000D0714910A0EB4101534A1170104600781C
:10514000002833D15148807828B95048406A401C23
:105150004E49486204E04D48406A401E4B4948624F
:105160004A48806A401C4949886208464069896A01
:1051700088420AD80021434800F0B6FC0120444987
:10518000086000204149487010BD4048006A3F490E
:10519000496A88420ADC00213A4800F0A5FC012057
:1051A0003B490860002039494870EDE737484078AE
:1051B000022811D13348243000883449C988084472
:1051C0004FF6FF7190FBF1F201FB120084B2214611
:1051D0002C4800F016FD52E02C48407801284ED1B2
:1051E0002A48806A2949C969884215D82748006B2E
:1051F0002649896A30F81100224924310988084477
:105200004FF6FF7190FBF1F201FB120084B22146D0
:105210001C4800F0F6FC32E01C4840691B49C96993
:10522000401A1A49896A884218D8184840691749AB
:10523000896A401A1549096B31F810001149243167
:10524000098808444FF6FF7190FBF1F201FB120050
:1052500084B221460B4800F0D4FC10E00948243009
:1052600000880A49C98808444FF6FF7190FBF1F2A3
:1052700001FB120084B22146024800F0C2FC00BFCC
:1052800082E7000000040040CC010020AC000020B8
:105290009C01234210B58AB0044601210220FFF789
:1052A000BFFA01210520FFF7CBFA274890FBF4F065
:1052B0002649C8624020ADF8040018208DF8070088
:1052C00003208DF8060001A92148FDF753FA4FF697
:1052D000FF70ADF82000601E80B2ADF81C00002009
:1052E000ADF82200ADF81E0007A91A4800F08CFCAA
:1052F0003020ADF80C004FF4FA70ADF81200012028
:10530000ADF80E000020ADF8140003A9114800F01C
:1053100021FC00210F4800F069FC012202210D4808
:1053200000F00EFC1D208DF8080001208DF809000A
:1053300000208DF80A0001208DF80B0002A8FEF76E
:10534000C3FA0AB010BD000000512502AC000020D5
:10535000000801400004004010B50221654800F03B
:10536000DEFB002874D00221624800F0BAFB6248DC
:105370000078401C60490870087800EBD071491033
:10538000A0EB41015C4A117010460078002836D12C
:105390005A48807828B95948406A401C57494862A1
:1053A00004E05648406A401E544948625348806AA7
:1053B000401C5249886208464069896A884207D879
:1053C00000214C4800F090FB00204C49487010BD73
:1053D0004A48006A4949496A884210DC0021454828
:1053E00000F082FB0020454948700120444981F8C3
:1053F0002B004248416A43A0FAF794FFE7E7404890
:10540000007806280FD13E4890F8240058B9434848
:105410000068012807D00021364800F065FB002015
:1054200036494870D3E735484078022811D13148D1
:10543000243000883149C98808444FF6FF7190FB39
:10544000F1F201FB120084B221462A4800F0D9FB98
:105450004EE02A48806A2949C969884215D82748F8
:10546000006B2649896A30F81100224924310988E5
:1054700008444FF6FF7190FBF1F201FB120084B279
:1054800021461C4800F0BDFB32E01C4840691B4926
:10549000C969401A1949896A884218D81748406969
:1054A0001649896A401A1549096B31F810001149EB
:1054B0002431098808444FF6FF7190FBF1F201FB9B
:1054C000120084B221460B4800F09BFB10E0094813
:1054D000243000880949C98808444FF6FF7190FBC1
:1054E000F1F201FB120084B22146024800F089FB70
:1054F00000BF6CE700080040CD0100206C010020D7
:105500001004002066756C6C2074686520706F73E1
:105510002069732025640D0A000000003801234231
:1055200010B58AB0044601210420FFF779F9012162
:105530000920FFF785F9274890FBF4F02649C86257
:105540004020ADF8040018208DF8070003208DF8E6
:10555000060001A92148FDF70DF94FF6FF70ADF8DF
:105560002000601E80B2ADF81C000020ADF82200C3
:10557000ADF81E0007A91A4800F046FB3020ADF830
:105580000C004FF4FA70ADF812000120ADF80E00D7
:105590000020ADF8140003A9114800F0DBFA002147
:1055A0000F4800F023FB012202210D4800F0C8FA49
:1055B0001E208DF8080001208DF8090000208DF8CC
:1055C0000A0001208DF80B0002A8FEF77DF90AB051
:1055D00010BD0000005125026C010020000C0140AC
:1055E0000008004010B50221564800F098FA002843
:1055F00056D00221534800F074FA53480078401CFA
:1056000051490870087800EBD0714910A0EB4101B6
:105610004D4A11701046007868BB4C48807828B914
:105620004A48406A401C4949486204E04748406A89
:10563000401E464948624548806A401C434988628A
:1056400008464069896A884207D800213D4800F031
:105650004BFA00203D49487010BD3C48006A3B4968
:10566000496A884207DC0021364800F03DFA0020F4
:1056700036494870F0E735484078022811D1314862
:10568000243000883149C98808444FF6FF7190FBE7
:10569000F1F201FB120084B221462A4800F0B1FA6F
:1056A0004EE02A48806A2949C969884215D82748A6
:1056B000006B2649896A30F8110022492431098893
:1056C00008444FF6FF7190FBF1F201FB120084B227
:1056D00021461C4800F095FA32E01C4840691B49FD
:1056E000C969401A1949896A884218D81748406917
:1056F0001649896A401A1549096B31F81000114999
:105700002431098808444FF6FF7190FBF1F201FB48
:10571000120084B221460B4800F073FA10E00948E9
:10572000243000880949C98808444FF6FF7190FB6E
:10573000F1F201FB120084B22146024800F061FA46
:1057400000BF89E7000C0040CE0100206C00002063
:1057500010B58AB0044601210820FFF761F8012145
:105760000520FFF76DF8274890FBF4F02649C86242
:105770000120ADF8040018208DF8070003208DF8F3
:10578000060001A92148FCF7F5FF4FF6FF70ADF8C0
:105790002000601E80B2ADF81C000020ADF8220091
:1057A000ADF81E0007A91A4800F02EFA3020ADF817
:1057B0000C004FF4FA70ADF812000120ADF80E00A5
:1057C0000020ADF8140003A9114800F0C3F900212E
:1057D0000F4800F00BFA012202210D4800F0B0F949
:1057E00032208DF8080001208DF8090000208DF886
:1057F0000A0001208DF80B0002A8FEF765F80AB038
:1058000010BD0000005125026C000020000801407E
:10581000000C004010B501210D4800F080F9B0B136
:1058200001210B4800F05DF90A480078012808D0F2
:10583000FCF738FBFCF710F9FDF780FCFCF74CFF98
:1058400005E00548007810B103200249087010BD3A
:10585000001000403C0400203E04002010B501214F
:105860000B4800F05CF9012810D10121084800F034
:1058700038F908480068401C064908600648006876
:1058800008B9012000E000200349086010BD0000B5
:1058900000140040200000209001224210B58AB080
:1058A000044601214803FEF7CBFF01211020FEF73B
:1058B000C7FF01210846FEF7C3FF304890FBF4F014
:1058C0002F49C8624020ADF8240018208DF8270029
:1058D00003208DF8260009A92A48FCF74BFF4FF456
:1058E0007A70ADF81C00601E80B2ADF81800002080
:1058F000ADF81E00ADF81A008DF8200006A9224868
:1059000000F082F9012211461F4800F019F9012127
:105910001D4800F0E3F87020ADF808000020ADF855
:1059200010000120ADF80A004FF4FA70ADF80E0037
:1059300002A9154800F00EF90821134800F056F9A5
:105940000121114800F0BEF82C208DF80400012040
:105950008DF8050000208DF8060001208DF8070065
:1059600001A8FDF7B1FF0121074800F0C9F80021A7
:10597000054800F0B9F80AB010BD000000A24A04C2
:10598000EC000020001001400034014010B501215E
:105990004A4800F0C4F8002842D00121474800F0EE
:1059A000A0F84748807828B94548406A401C4449D7
:1059B000486204E04248406A401E4149486240480B
:1059C000806A401C3E49886208464069896A88426C
:1059D00007D80021394800F087F80020384948707E
:1059E00010BD3748006A3649496A884207DC002101
:1059F000324800F079F8002031494870F0E730482B
:105A0000407802280DD12E48C1882C4800F0F7F8C4
:105A10002B48C48804EBD4704110284800F0F1F8FA
:105A20004AE02748806A2649C969884215D824482F
:105A3000006B234A926A30F81210204800F0DFF819
:105A40001F48006B1E4A926A30F8124004EBD47073
:105A500041101A4800F0D5F82EE01948406918495D
:105A6000C969401A1649896A884218D81448406999
:105A7000134A926A801A124A126B32F810100F48B9
:105A800000F0BDF80E4840690D4A926A801A0C4A2F
:105A9000126B32F81010094800F0B3F80CE0084817
:105AA000C188064800F0ABF80548C48804EBD47000
:105AB0004110024800F0A5F800BF91E70034014012
:105AC000EC00002021B1028842F08002028004E054
:105AD00002884FF67F731A4002807047CA430282E1
