:020000040800F2
:10000000D81700202D020008A70900089F09000842
:10001000A3090008DD0700085F24000800000000B5
:10002000000000000000000000000000C1170008F0
:10003000E107000800000000BB020008D518000816
:10004000470200084702000847020008470200086C
:10005000470200084702000847020008470200085C
:10006000470200084702000847020008470200084C
:10007000470200084702000847020008470200083C
:10008000470200084702000847020008470200082C
:10009000470200084702000847020008470200081C
:1000A00047020008470200084702000851190008EB
:1000B000851A0008B91B0008E91C0008470200085F
:1000C00047020008470200084702000847020008EC
:1000D00047020008352200084702000847020008CE
:1000E000E30700084702000847020008470200082B
:1000F0004702000847020008811F00084702000865
:100100004702000847020008191E000847020008BD
:10011000470200084702000847020008491F00087C
:10012000470200084702000847020008470200088B
:1001300000F002F800F06BF80AA090E8000C82448E
:100140008344AAF10107DA4501D100F060F8AFF26B
:10015000090EBAE80F0013F0010F18BFFB1A43F0A5
:100160000103184764380000843800000A444FF047
:10017000000C10F8013B13F0070408BF10F8014B06
:100180001D1108BF10F8015B641E05D010F8016B4B
:10019000641E01F8016BF9D113F0080F1EBF10F8AF
:1001A000014BAD1C0C1B09D16D1E58BF01F801CBD2
:1001B000FAD505E014F8016B01F8016B6D1EF9D555
:1001C0009142D6D37047000000230024002500266A
:1001D000103A28BF78C1FBD8520728BF30C148BFAA
:1001E0000B607047642900F0F980752900F0F680F3
:1001F000782900F02F81632900F08382732900F0B1
:100200008882002070471FB51FBD10B510BD00F0DB
:10021000B7FA1146FFF7F7FF02F0D0F900F0D5FA70
:1002200003B4FFF7F2FF03BC02F022F9094880474C
:1002300009480047FEE7FEE7FEE7FEE7FEE7FEE7C8
:10024000FEE7FEE7FEE7FEE704480549054A064BE0
:1002500070470000F118000831010008D811002093
:10026000D8170020D8130020D8130020EFF31080F7
:1002700072B6704780F310887047204C204D25607F
:100280004FF0000484F309881E4C4FF001052570DF
:100290001D4C4FF08055256062B6FEE730B41A4C15
:1002A0004FF08055256030BC704730B4164C4FF08D
:1002B0008055256030BC704700BF72B6EFF30980EF
:1002C00028B1203880E8F00F10490968086000B5AF
:1002D0000F4880475DF804EB0E480F490A7802701A
:1002E0000A480E490A680260106890E8F00F203052
:1002F00080F309884EF0040E62B6704720ED00E0EE
:100300000000FFFFDA01002004ED00E0E001002022
:100310009D0F0008CF010020D0010020E80100203F
:10032000704700000FB4044910B503AA029800F00A
:10033000F5F910BC5DF814FB9801002070B5044677
:1003400085690068C10601D5302600E02026C00777
:1003500007D070BDD4E9012130469047206A401C87
:1003600020626D1EF6D570BD70B5044685690078B3
:10037000C00707D170BDD4E9012120209047206A31
:10038000401C20626D1EF6D570BD70B50C4605464A
:10039000012A05D02878800600D5EA69002302E00A
:1003A000012305E05B1C934202D2E05C0028F9D1F6
:1003B000A869E618C01AA861286A18442862284665
:1003C000FFF7BCFF04E0D5E9012114F8010B9047C9
:1003D000B442F8D32846FFF7C7FF70BD2DE9F041BE
:1003E0000646002410687529314616A510D0AFF3D3
:1003F0000080002802DA404213A507E031688A072E
:1004000001D512A502E0490704D511A5012401E098
:10041000AFF3008000210A2206F1240709E0B0FBB7
:10042000F2FCB0FBF2F302FB1C00303078541846AB
:10043000491C0028F3D123462A463046BDE8F04146
:1004400000F0FCB8000000002D0000002B000000B0
:100450002000000070B504460D4621461068AFF339
:1004600000802188090502D50F4A7A4402E00E4A2D
:100470007A440E32002104F1240305E000F00F0657
:100480000009965D5E54491C0028F7D120780023AE
:10049000000704D5702D02D009B102231132204685
:1004A000BDE8704000F0CAB88A3400002DE9F05F62
:1004B000894604464FF0000ADFF874B1FB44C0F8E7
:1004C00020A02046E1688847002874D0252806D05F
:1004D000D4E901219047206A401C2062F1E7002600
:1004E0005F462046E16888472028054607DB312D16
:1004F00005D2781910F8200C08B10643F1E7B007CF
:1005000001D526F00406C4F81CA00027C4F818A0E2
:100510002A2D09D0284601F0A4FF38B304EB870840
:10052000303DC8F8185019E059F8041B204604EB78
:1005300087029161E1688847012F054618D1E0697B
:10054000002820DA26F020061DE0D8F8180000EB7D
:10055000800005EB40003038C8F818002046E168FC
:100560008847054601F07DFF0028EED1012F0AD013
:100570002E2D08D12046E16888477F1C0546022FB2
:1005800046F02006C4DBA069002803DA404246F0AA
:100590000106A061F00701D026F010066C2D0BD0EB
:1005A000682D09D04C2D39D06A2D35D0742D35D019
:1005B0007A2D33D016E038E0E1682F462046884790
:1005C000B842054609D16C2F26D04FF48060E1680F
:1005D000064320468847054604E06C2F1AD04FF4A6
:1005E000807006430DB3A5F14100192802D82035CB
:1005F00046F400664A462946204626604E46FFF7E6
:10060000F1FD80B101280BD0F61D26F0070000F1A6
:10061000080956E74020E4E78020D8E70020D6E725
:1006200006F104094DE7284652E7206ABDE8F09F2D
:100630006034000070477047704770472DE9F047FD
:100640000D4699469246044600F124080168880642
:1006500004D5E06921F01001216000E00120A842EA
:1006600001DD471B00E00027A1697A1902EB0900B0
:10067000081AA0612078C00602D42046FFF75EFE6B
:10068000002608E0D4E901211AF806009047206A04
:10069000401C761C20624E45F4DB2078C0060AD54B
:1006A0002046FFF74BFE06E0D4E9012130209047B9
:1006B000206A401C2062381EA7F10107F4DC07E025
:1006C000D4E9012118F805009047206A401C2062F7
:1006D000281EA5F10105F3DC2046FFF745FE207832
:1006E000000602D50220BDE8F0870120FBE710B527
:1006F000436913B1AFF3008001E0FFF746FE01202C
:1007000010BD127800F124010A7000224A70012203
:10071000EDE711684FF0FF32E9E70000074B70B5D5
:100720000D467B4400F011F80446284600F020F8FE
:1007300010B14FF0FF3070BD204670BD731E000039
:1007400001694A1C02610878704700B58FB0CDE995
:1007500001310021059105497944CDE90310114685
:100760006846FFF7A3FE0FB000BD0000E5FFFFFFE6
:10077000007B00F080007047004870477411002033
:100780007546FFF7F9FFAE4605006946534620F06F
:100790000700854618B020B5FFF756FDBDE820409C
:1007A0004FF000064FF000074FF000084FF0000B2D
:1007B00021F00701AC46ACE8C009ACE8C009ACE8E0
:1007C000C009ACE8C0098D46704710B50446AFF3C8
:1007D00000802046BDE81040FFF722BD00BFFEE7C5
:1007E000704710B54FF4806000F03AF818B14FF43C
:1007F000806000F02FF84FF4006000F031F818B17D
:100800004FF4006000F026F84FF4805000F028F814
:1008100018B14FF4805000F01DF84FF4005000F074
:100820001FF818B14FF4005000F014F84FF4804056
:1008300000F016F818B14FF4804000F00BF84FF4B8
:10084000004000F00DF818B14FF4004000F002F83D
:1008500010BD000001490860704700001404014009
:10086000014600200022074B1B6803EA0102054BEA
:1008700014331B680B4013B10AB1012000E00020C3
:1008800070470000000401402DE9F04102460025B8
:100890000026002000230024002791F803C00CF05C
:1008A0000F0591F803C00CF0100CBCF1000F03D041
:1008B00091F802C04CEA050591F800C0BCF1000FA8
:1008C00031D0146800202BE04FF0010C0CFA00F33B
:1008D000B1F800C00CEA03069E4220D183004FF01D
:1008E0000F0C0CFA03F7BC4305FA03FC4CEA0404B2
:1008F00091F803C0BCF1280F06D14FF0010C0CFA9F
:1009000000FCC2F814C00AE091F803C0BCF1480F23
:1009100005D14FF0010C0CFA00FCC2F810C0401CCD
:100920000828D1D31460B1F800C0BCF1FF0F34DD4A
:10093000546800202EE000F1080C4FF0010808FA7E
:100940000CF3B1F800C00CEA03069E4221D18300EB
:100950004FF00F0C0CFA03F7BC4305FA03FC4CEA0A
:10096000040491F803C0BCF1280F05D100F1080C74
:1009700008FA0CF8C2F8148091F803C0BCF1480FD3
:1009800007D100F1080C4FF0010808FA0CF8C2F882
:100990001080401C0828CED35460BDE8F08100BF11
:1009A000FEE700BFFEE7704770B5002100230F226D
:1009B000C47804B3154C246804F4E064C4F5E0641E
:1009C000210AC1F10403CA40447804FA03F184788F
:1009D0001440214309010E4C0678A155047804F017
:1009E0001F050124AC4005786D11AD0005F1E0252F
:1009F000C5F8004109E0047804F01F050124AC406B
:100A0000044D0678761145F8264070BD0CED00E0E7
:100A100000E400E080E100E002490143024A116085
:100A2000704700000000FA050CED00E010B500F082
:100A300013F800F0BFFB00F0E7FB00F007FC00F04C
:100A40008FFB00F061FB00F09BFC00F03FFC00F02E
:100A500065FC00F002F810BD70477047064800784A
:100A6000012808D105480078FF2804D203480078FF
:100A7000401C024908707047DA010020CD010020B7
:100A800010B500241A480078012830D1FFF7EEFB9A
:100A900004461848007820B116480078401E1549D1
:100AA000087014480078F8B913480078E0B900F0ED
:100AB000C9FC12481249097850F821001149086010
:100AC0000F4800781049097888420DD00D48006819
:100AD000806B401C0B49096888630C480068401C07
:100AE0000A490860FFF7E1FB2046FFF7C3FB10BD92
:100AF000DA010020CD010020CE0100200C0C0020E6
:100B0000D0010020E8010020CF010020B401002026
:100B100010B500240B480078012811D1FFF7A6FB7F
:100B200004460948007840B908480078FF2804D2F4
:100B300006480078401C054908702046FFF79AFBDC
:100B400010BD0000DA010020CD010020CE01002000
:100B500010B5002413480078012821D1FFF786FB47
:100B6000044611480078C0B10F480078401E0E4975
:100B700008700846007860B90C48007828B920460B
:100B8000FFF778FB00F024FC0AE02046FFF772FB39
:100B900006E02046FFF76EFB02E02046FFF76AFB07
:100BA00010BD0000DA010020CE010020CD010020A0
:100BB00010B50B48007890B900F044FC0948007863
:100BC0000949087009480749097850F8210008497F
:100BD00008600846006807490860FFF74EFB10BD33
:100BE000DA010020D0010020CF0100200C0C0020F1
:100BF000E8010020E0010020704700002DE9FE4FD1
:100C000006460F4690461C464FF00009FFF72EFBA4
:100C100081461F48007828B14846FFF72BFB3C204F
:100C2000BDE8FE8F1B4850F8240060BB0120194925
:100C300041F824004846FFF71DFB00234246394691
:100C4000304600F009F982460020009001900346EA
:100C5000024651460290204600F00AFC054635B98E
:100C60000D48007801280CD100F0B2FB09E0FFF735
:100C7000FDFA81460020074941F824004846FFF765
:100C8000F9FA2846CCE74846FFF7F4FA2820C7E7E8
:100C9000CD0100200C0C0020DA0100202DE9F04FDE
:100CA00085B081468A4693461C46DDE90F78129D41
:100CB00000200390FFF7DAFA03902348007830B160
:100CC0000398FFF7D7FA3C2005B0BDE8F08F1F4826
:100CD00050F8240088BB01201C4941F824000398E7
:100CE000FFF7C8FA2A464146384600F0D1FC2B46A9
:100CF0005A465146484600F0AFF804901198CDE9A5
:100D0000008002953A4620460E9B049900F0B0FB05
:100D1000064636B90E48007801280CD100F058FB81
:100D200009E0FFF7A3FA03900020084941F82400E6
:100D30000398FFF79FFA3046C6E7FFE70398FFF7EF
:100D400099FA2820C0E70000CD0100200C0C0020FB
:100D5000DA010020704770472DE9F04106460F4642
:100D600014464FF000081548007818B11220207082
:100D7000BDE8F081FFF77AFA8046FF2E03D11048D4
:100D8000006890F832600F4850F826502DB9404660
:100D9000FFF770FA43202070EAE7012D05D14046A5
:100DA000FFF768FA43202070E2E7EF644046FFF760
:100DB00061FA0020207000BFDAE70000CD010020BA
:100DC000E00100200C0C0020704700002DE9F047E6
:100DD00007460D464FF0000A002028606860FFF7C4
:100DE00045FA8246FF2F03D11948006890F8327007
:100DF000184850F827402CB95046FFF73BFA4320DB
:100E0000BDE8F087012C04D15046FFF733FA4320A8
:100E1000F6E7207C00F0010020B95046FFF72AFADF
:100E20004520EDE70026D4F80C90D4F80880504611
:100E3000FFF720FA00E0761C58F8041B0029FAD0CE
:100E4000B0002860A9EB0600800068600020D7E7AA
:100E5000E00100200C0C002070B5044610464FF055
:100E600080750560051F28462C606FF00106051F80
:100E700028462E604FF01236051F28462E604FF090
:100E80000336051F28462E604FF00236051F284600
:100E90002E607610051F28462E60051F2846296003
:100EA0004FF01136051F28462E604FF01036051FF3
:100EB00028462E604FF00936051F28462E604FF059
:100EC0000836051F28462E604FF00736051F2846B6
:100ED0002E604FF00636051F28462E604FF005366F
:100EE000051F28462E604FF00436051F28462E6049
:100EF00070BD00002DE9F04105464FF00008FFF7F6
:100F0000B5F98046FF2D05D12048006890F8325091
:100F1000012608E01D48006890F83200A84201D17F
:100F2000012600E000261A4850F825402CB940461A
:100F3000FFF7A0F94820BDE8F081012C04D140461C
:100F4000FFF798F94320F6E794F834701148C05D34
:100F500094F8351088430F49C8550846C05D30B92C
:100F600094F836100C48007888430B49087094F8C0
:100F7000300040F0080084F830004046FFF77AF96E
:100F8000012E01D100F024FA0020D4E7E001002076
:100F90000C0C0020D2010020D1010020704700007D
:100FA00070B5054600261748007800B170BD164898
:100FB000007800B1FAE71DB3FFF758F90646134869
:100FC000006890F834401248005D1049096891F8B3
:100FD000351088430E4908550846005D40B90B4856
:100FE000006890F836100B4800788843094908706B
:100FF00006480068C5623046FFF73CF900F0E8F9A2
:1010000000BFD3E7CD010020CE010020E001002089
:10101000D2010020D101002070B5002600F072F846
:10102000FFF724F9064631480068401C2F49086044
:101030003046FFF71FF92E480078012853D12D487C
:10104000007820B1012804D0022809D103E001254D
:101050000BE0002509E0012501202649087004E085
:10106000012500202349087000BF00BF05B970BDED
:101070002148046833E0FFF7F9F80646E06A50B308
:10108000E06A401EE062E06A28BB94F8300000F09D
:10109000370040B114F8300F00F0C8002070012074
:1010A0006070303C02E0002084F8310094F8300099
:1010B00000F0080078B93434A07810490978084362
:1010C0000E49087020780E49085C6178084314F8CE
:1010D00034190B4A505464693046FFF7CBF894F842
:1010E00032003F28C7D100BFC1E70000F80100204F
:1010F000DA010020F0010020EC010020D1010020E5
:10110000D2010020704700002DE9F0415021114824
:1011100000F02CF900250DE0681C86B20D4800EBAC
:10112000051400EB06170020207067600AA0E0603D
:10113000681C85B2042DEFD3064800EB051400208F
:101140002070606004A0E060024804490860BDE8C7
:10115000F0810000BC0700203F000000BC0100201F
:1011600070B5C821114800F001F900230FE0581CA8
:1011700085B203EB83000D4901EB800405EB85008C
:1011800001EB8006002020706660581C83B2092B9A
:10119000EDD303EB8300054901EB800400202070B0
:1011A000606008460249086070BD0000F406002037
:1011B000B801002000200A4908600A4908700A495D
:1011C00008700A4908700A4908700A4908600A4903
:1011D00008600A4908600A4908600A4908707047AF
:1011E000F8010020CD010020CE010020DB0100200D
:1011F000DA010020B4010020DC010020C801002039
:10120000C4010020CC01002000210A4A11700020F6
:1012100004E00021084A1154411CC8B20828F8D340
:101220000021064A1170064A1170064A1160064AEA
:1012300011607047D1010020D2010020CF010020B1
:10124000D0010020E8010020E001002070B54FF43B
:101250007C71194800F08AF84FF48071174800F04B
:1012600085F8002413E0601CC5B2C4EBC40000EB99
:101270004000114901EB8003C5EBC50000EB4000C5
:1012800001EB80065E610EA0D864601CC4B20B2C1A
:10129000E9D3C4EBC40000EB4000074901EB800335
:1012A0000020586106A0D864002006490860024862
:1012B0000549086070BD00000C0D00200C0C0020DA
:1012C0003F000000EC010020E401002000B587B0E1
:1012D0000320002180220A4BCDE90132CDE9031021
:1012E0004FF6FF703F23074A00900748FFF7D6FCF0
:1012F00006AA06A13F20FFF72FFD07B000BD0000A2
:101300000C0A0020080C0020A515000875432F4F7B
:10131000532D49492049646C6500000000B587B031
:101320000320002180220A4BCDE90132CDE90310D0
:101330004FF6FE703E23074A00900748FFF7AEFCC9
:1013400006AA06A13E20FFF707FD07B000BD00007A
:101350000C080020080A0020CD15000875432F4F07
:10136000532D4949205374617400000004E00022A9
:1013700000F8012B4A1E91B20029F8D170470000F5
:101380002DE9F04178211048FFF7F0FF00240DE02F
:10139000601C86B204EB44000B4901EBC00506EB70
:1013A000460001EBC0072F60601C84B2042CEFD311
:1013B00004EB4400044901EBC00500202860084606
:1013C00002490860BDE8F081FC100020F401002013
:1013D00010B50024FEF74AFF044613480078F8B918
:1013E00012480078E0B900F02DF811481149097849
:1013F00050F82100104908600E4800780F4909781C
:1014000088420DD00C480068806B401C0A4909686E
:1014100088630B480068401C09490860FEF73EFFDE
:101420002046FEF727FF10BDCD010020CE01002091
:101430000C0C0020D0010020E8010020CF0100208A
:10144000B40100200649074A1278885C0649095C05
:10145000034A515C01EBC001044A1170704700005F
:10146000F8370008D1010020D2010020D00100206F
:101470002DE9F84F05460F4690469946DDE90AAB3F
:1014800000200090FEF7F2FE00903F480468002C18
:1014900074D0183454F8040C3B4908600098FEF7E7
:1014A000E9FE44F8187CA57600202076607660611D
:1014B00044F814BC44F80CAC44F8108C0C9824F894
:1014C000080C24F8069C0020E077E810207705F04F
:1014D0000700E076217F01208840A077E17E01208F
:1014E0008840607700206060E060A0602062A062B9
:1014F0006062E062206325A06063183C002606E07D
:10150000002104F1500040F82610701CC6B2002ED5
:10151000F6D02046FFF770FB2046FFF71BFCFEF7D6
:10152000A5FE00901A4840F825401A4800686061FE
:101530000020A0611748006810B116480068846157
:10154000144804603434A0781349097808431249D8
:10155000087020781149085C6178084314F8341940
:101560000E4A50540E480078401C0D4908700098EF
:10157000FEF780FE0020BDE8F88FFFE70098FEF739
:1015800079FE4220F7E70000E40100203F00000060
:101590000C0C0020EC010020D1010020D201002021
:1015A000DB010020002400BF00BFFEF75FFE044601
:1015B00005480068401C044908602046FEF75AFEB2
:1015C000FFF7C9FBF1E70000DC010020002400BFA9
:1015D00002E02820FFF7E4FC194800780028F8D042
:1015E000184800686421B0FBF1F01649086008460D
:1015F000006828B9002014490870FF20FFF77AFC22
:1016000000BFFEF733FE044610480068104908602A
:1016100000200E4908602046FEF72CFE0C480068AA
:1016200008490968B0FBF1F0C0F164000649087090
:10163000FFF7CAFB00F00EF81420FFF7B1FCE0E75B
:10164000CC010020C4010020C0010020DC010020EA
:10165000C80100207CB5002514E069462846FFF744
:10166000B5FB064666B9094850F8254044B1012C3F
:1016700006D0D4E9020100EB810060640198A06407
:10168000681CC5B23F2DE8D97CBD00000C0C0020C1
:1016900002F0010343B102F002032BB102E0491E44
:1016A000002308C00029FAD17047000029B1064A7A
:1016B000D2690243044BDA6104E0034AD2698243EF
:1016C000014BDA61704700000010024029B1064A60
:1016D00092690243044B9A6104E0034A926982438F
:1016E000014B9A61704700000010024030B50021A4
:1016F0000022002400232D4D6D6805F00C0121B15E
:10170000042905D0082923D105E0294D056022E0F0
:10171000274D05601FE0254D6D6805F47012234DBF
:101720006D6805F48034022505EB92421CB9214D09
:10173000554305600BE01D4D6D6805F400351DB186
:101740001C4D5543056002E0194D5543056002E00C
:10175000174D056000BF00BF144D6D6805F0F00126
:101760000909154D6B5C0568DD4045600F4D6D68DE
:1017700005F4E061090A104D6B5C4568DD40856049
:101780000A4D6D6805F46051C90A0B4D6B5C4568E4
:10179000DD40C560054D6D6805F44041890B074D7E
:1017A0006B5CC568B5FBF3F5056130BD0010024008
:1017B00000127A0000093D009E010020AE010020C9
:1017C000704710B500F002F810BD00000CB5002005
:1017D000019000903348006840F48030314908603F
:1017E00000BF3048006800F4003000900198401CB1
:1017F0000190009818B90198B0F5A06FF1D129486F
:10180000006800F4003010B10120009001E00020D9
:1018100000900098012843D12348006840F0100050
:10182000214908600846006820F003000860084667
:10183000006840F0020008601A4840681949486092
:101840000846406848600846406840F48060486048
:101850000846406820F47C1048600846406840F420
:10186000E81048600846006840F08070086000BFDB
:101870000C48006800F000700028F9D00948406862
:1018800020F00300074948600846406840F0020025
:10189000486000BF0348406800F00C000828F9D1F8
:1018A0000CBD00000010024000200240042808D1B6
:1018B0004FF0E021096941F004014FF0E02211618D
:1018C00007E04FF0E021096921F004014FF0E02228
:1018D0001161704710B505480078012805D1FFF760
:1018E000BDF8FFF799FBFFF7CBF810BDDA01002038
:1018F00010B51348006840F001001149086008461F
:101900004068104908400E494860084600680E4982
:1019100008400B4908600846006820F480200860F1
:101920000846406820F4FE0048604FF41F008860BD
:10193000FFF747FF4FF000600449086010BD00004A
:10194000001002400000FFF8FFFFF6FE08ED00E087
:1019500010B50221484800F0CDFB002874D047485C
:10196000807828B94548406A401C4449486204E0F0
:101970004248406A401E414948624048806A401CD3
:101980003E498862084640693D49896A884207D1D4
:101990000021394800F096FB00203849487010BDFE
:1019A00036484078022811D1334824300088334922
:1019B000C98808444FF6FF7190FBF1F201FB120059
:1019C00084B221462C4800F0B1FB4FE02B48806ADE
:1019D0002A49C969884215D82848006B2749896A6D
:1019E00030F8110024492431098808444FF6FF716A
:1019F00090FBF1F201FB120084B221461E4800F078
:101A000095FB33E01D4840691C49C969401A1B49D0
:101A1000896A884219D8194840691849896A401A60
:101A20001649096B31F8100013492431098808441C
:101A30004FF6FF7190FBF1F201FB120084B22146D8
:101A40000D4800F073FB11E014E00B4824300088CF
:101A50000A49C98808444FF6FF7190FBF1F201FB77
:101A6000120084B22146044800F060FB02210248C3
:101A700000F025FB00BF92E7002C0140140000207D
:101A80001401002010B50221480700F033FB0028A4
:101A900076D04848807828B94648406A401C454975
:101AA000486204E04348406A401E42494862414857
:101AB000806A401C3F49886208464069896A8842BA
:101AC00008D100214FF0804000F0FCFA0020394995
:101AD000487010BD37484078022811D14007808CEB
:101AE0003449C98808444FF6FF7190FBF1F201FBBD
:101AF000120084B221464FF0804000F017FB52E004
:101B00002C48806A2B49C969884216D82948006B3D
:101B10002849896A30F811004FF08041898C0844C7
:101B20004FF6FF7190FBF1F201FB120084B22146E7
:101B30004FF0804000F0FAFA35E01E4840691D4938
:101B4000C969401A1B49896A88421AD819484069EC
:101B50001849896A401A1749096B31F810004FF08B
:101B60008041898C08444FF6FF7190FBF1F201FB34
:101B7000120084B221464FF0804000F0D7FA12E004
:101B800015E04FF08040808C0A49C98808444FF620
:101B9000FF7190FBF1F201FB120084B221464FF07D
:101BA000804000F0C3FA0221480700F088FA00BF25
:101BB0008FE700001401002010B50221474800F013
:101BC00099FA002872D04648807828B94448406A7B
:101BD000401C4349486204E04148406A401E404975
:101BE00048623F48806A401C3D4988620846406917
:101BF000896A884207D10021384800F063FA002042
:101C00003749487010BD36484078022811D1334812
:101C1000243000883249C98808444FF6FF7190FB90
:101C2000F1F201FB120084B221462C4800F07EFA4A
:101C30004EE02B48806A2A49C969884215D828484D
:101C4000006B2749896A30F811002449243109883A
:101C500008444FF6FF7190FBF1F201FB120084B2D1
:101C600021461E4800F062FA32E01D4840691C49D6
:101C7000C969401A1A49896A884218D818484069BF
:101C80001749896A401A1649096B31F8100015493D
:101C9000098808444FF6FF7190FBF1F201FB120036
:101CA00084B221460D4800F041FA11E014E00B48DF
:101CB000243000880A49C98808444FF6FF7190FB18
:101CC000F1F201FB120084B22146044800F02EFA22
:101CD0000221024800F0F3F900BF93E7000400403E
:101CE00094000020242C014010B50221484800F047
:101CF00001FA002873D04748807828B94548406ADF
:101D0000401C4449486204E04248406A401E414940
:101D100048624048806A401C3E49886208464069E3
:101D2000896A884207D10021394800F0CBF90020A8
:101D30003849487010BD37484078022811D13448DE
:101D4000243000883349C98808444FF6FF7190FB5E
:101D5000F1F201FB120084B221462D4800F0E6F9B1
:101D60004FE02C48806A2B49C969884215D8294818
:101D7000006B2849896A30F8110025492431098807
:101D800008444FF6FF7190FBF1F201FB120084B2A0
:101D900021461F4800F0CAF933E01E4840691D493A
:101DA000C969401A1B49896A884219D8194840698B
:101DB0001849896A401A1749096B31F8100014490B
:101DC0002431098808444FF6FF7190FBF1F201FBC2
:101DD000120084B221460E4800F0A8F911E014E088
:101DE0000B48243000880B49C98808444FF6FF711E
:101DF00090FBF1F201FB120084B22146044800F08E
:101E000095F90221024800F05AF900BF92E700005C
:101E1000000800405401002010B50221474800F09E
:101E200069F9002872D04648807828B94448406A49
:101E3000401C4349486204E04148406A401E404912
:101E400048623F48806A401C3D49886208464069B4
:101E5000896A884207D10021384800F033F9002010
:101E60003749487010BD36484078022811D13348B0
:101E7000243000883249C98808444FF6FF7190FB2E
:101E8000F1F201FB120084B221462C4800F04EF919
:101E90004EE02B48806A2A49C969884215D82848EB
:101EA000006B2749896A30F81100244924310988D8
:101EB00008444FF6FF7190FBF1F201FB120084B26F
:101EC00021461E4800F032F932E01D4840691C49A5
:101ED000C969401A1A49896A884218D8184840695D
:101EE0001749896A401A1649096B31F810001549DB
:101EF000098808444FF6FF7190FBF1F201FB1200D4
:101F000084B221460D4800F011F911E014E00B48AD
:101F1000243000880A49C98808444FF6FF7190FBB5
:101F2000F1F201FB120084B22146044800F0FEF8F1
:101F30000221024800F0C3F800BF93E7000C004004
:101F4000540000202408004010B501210A4800F088
:101F5000D1F801280AD109490869804700210648BB
:101F600000F0E6F86421044800F0DEF801210248A0
:101F700000F0A5F810BD0000001400403802002059
:101F800010B50221484800F0B5F8002873D0474842
:101F9000807828B94548406A401C4449486204E0BA
:101FA0004248406A401E414948624048806A401C9D
:101FB0003E49886208464069896A884207D1002103
:101FC000394800F07FF800203849487010BD374884
:101FD0004078022811D13448243000883449C98817
:101FE00008444FF6FF7190FBF1F201FB120084B23E
:101FF00021462D4800F09AF84FE02C48806A2B4982
:10200000C969884215D82948006B2849896A30F87F
:10201000110025492431098808444FF6FF7190FBCF
:10202000F1F201FB120084B221461F4800F07EF855
:1020300033E01E4840691D49C969401A1B49896A35
:10204000884219D8194840691849896A401A1749BD
:10205000096B31F8100014492431098808444FF6FF
:10206000FF7190FBF1F201FB120084B221460E4891
:1020700000F05CF811E014E00B48243000880B49B4
:10208000C98808444FF6FF7190FBF1F201FB120082
:1020900084B22146044800F049F80221054800F0C6
:1020A0000EF800BF92E7000000340140D400002089
:1020B00054000020000C0040CA4302827047CA430B
:1020C0000282704721B1028842F00102028004E0DE
:1020D00002884FF6FE731A40028070470146888CD2
:1020E000704702460020138A0B400BB1012000E02C
:1020F0000020704730B50246002000230024158AD6
:1021000005EA0103958905EA010413B10CB1012028
:1021100000E0002030BD1AB183890B43838102E0C7
:1021200083898B438381704781857047818670479F
:1021300081847047002202881D4B98420ED01D4BAF
:1021400098420BD0B0F1804F08D01B4B984205D07D
:102150001A4B984202D01A4B984204D14FF68F7313
:102160001A404B881A43174B984207D0164B984297
:1021700004D04FF6FF431A40CB881A4302808B8865
:1021800083850B8803850A4B98420BD0094B9842F4
:1021900008D00E4B984205D00D4B984202D00D4B03
:1021A000984201D10B7A0386012383827047000095
:1021B000002C0140003401400004004000080040B1
:1021C000000C00400010004000140040004001409E
:1021D00000440140004801407FB505460C460121FE
:1021E0002020FFF763FAADF80850ADF80440002056
:1021F000ADF80A00ADF8060001A90D48FFF79AFFF7
:10220000012241210A48FFF786FF37208DF80000A0
:1022100003208DF801008DF8020001208DF80300E5
:102220006846FEF7C1FB01210148FFF74BFF7FBD68
:102230000014004010B5FEF711FC40F225511E4875
:1022400000F04CF810B31C4800F004F9C4B21B486D
:10225000008800F40040C8B91848008800F48040A5
:1022600060B10A2C03D000201449088020E01348F4
:10227000008840F400401149088019E00D2C06D177
:102280000E48008840F480400C49088010E00B485C
:102290000088C0F30D000A490C5408480088401C0F
:1022A0000649088008460088C72801DD002008800C
:1022B000FEF7E6FB10BD0000003801409C01002045
:1022C0002C06002021B1828942F40052828104E070
:1022D00082894DF6FF731A408281704770B50246BD
:1022E000002400230025002040F66A16B14200D1E8
:1022F00000BFC1F3421501F01F03012606FA03F3E4
:10230000012D02D19689334006E0022D02D1168AB2
:10231000334001E0968A33400C12012606FA04F499
:102320001688344013B10CB1012000E0002070BDCC
:10233000F0B50346002400260025002040F66A1769
:10234000B94200D100BF1846C1F3421401F01F0684
:10235000012707FA06F5012C01D10C3004E0022C0C
:1023600001D1103000E014301AB107682F43076024
:1023700002E00768AF430760F0BD00002DE9F047B9
:1023800086B005460E460024A24600BFA14600279F
:10239000B08900B100BF2F462C8A4CF6FF70044074
:1023A000F08804432C82AC894EF6F3100440B088C8
:1023B00031890843718908430443AC81AC8A4FF6E4
:1023C000FF400440B0890443AC8201A8FFF78EF9B6
:1023D0001F48874202D1DDF810A001E0DDF80CA013
:1023E000A88900F4004040B10AEBCA0000EB0A10D3
:1023F00031684900B0FBF1F807E00AEBCA0000EBD6
:102400000A1031688900B0FBF1F86420B8FBF0F0E5
:1024100004012009642101FB1089A88900F400400F
:1024200040B1322000EBC900B0FBF1F000F0070032
:10243000044308E0322000EB09106421B0FBF1F006
:1024400000F00F0004432C8106B0BDE8F0870000C7
:102450000038014001468888C0F30800704700BF7B
:10246000FEE730380A2801D201207047002070476B
:1024700000BF704710B56FF00400FFF717FA10485F
:1024800000681049B0FBF1F00F4908700C48006873
:102490000C49B0FBF1F441F28830444305200B496C
:1024A00008804FF0E020006940F002004FF0E0218A
:1024B000086108464461006940F00100086110BDF0
:1024C0000000002000127A009401002096010020F4
:1024D00070B504460F480078A0B10F48007888B95D
:1024E0000E480088844206DB0C48008894FBF0F517
:1024F000284600F01DF80948008894FBF0F100FB25
:10250000114084B24FF47A7104FB01F000F016F828
:1025100070BD0000DA010020CD01002096010020EE
:1025200010B5FEF7F5FA10BD10B5FEF711FB10BDA2
:1025300010B504462046FEF733FD10BD2DE9F047E7
:10254000074600264FF0E020D0F81490114800789C
:1025500007FB00F800BFFFF7E3FF4FF0E0208569BD
:1025600011E04FF0E0208469AC420CD0AC4202D2C2
:10257000281B064403E0A9EB040028440644254632
:10258000464500D300E0ECE700BFFFF7CDFFBDE814
:10259000F08700009401002000BF054A128802F075
:1025A0004002002AF9D0C2B2014B1B1D1A807047AD
:1025B0000038014000BFFEE700BFFEE710B54FF452
:1025C000A060FEF729FAFFF755FF4FF4E13000F065
:1025D00047F80B4800680B49B0FBF1F0C4B20A4859
:1025E000416820468847FEF721FA0A23074A00215E
:1025F0000748FEF703FBFEF7DBFA002010BD0000E2
:102600000000002040420F00380200202804002073
:102610001D260008014608687047000070B5044692
:10262000002500BFFDF722FE05460723084A0021CA
:102630000848FEF7E3FA0623074A00210748FEF799
:10264000DDFA0A20FEF756FC2846FDF713FE70BDA2
:1026500028050020B525000828060020B925000817
:1026600010B586B00446012144F20400FFF72EF8AD
:102670004FF40070ADF8140003208DF816001820F8
:102680008DF8170005A91C48FEF7FEF84FF480608E
:10269000ADF8140004208DF8170005A91648FEF7C0
:1026A000F3F825208DF8000003208DF801008DF847
:1026B000020001208DF803006846FEF775F90194C9
:1026C0000020ADF80800ADF80A00ADF80C00ADF838
:1026D00010000C20ADF80E0001A90848FFF74EFECF
:1026E000012240F225510548FFF722FE012103484F
:1026F000FFF7E8FD06B010BD0008014000380140BA
:1027000030B595B0054613AB12AA09A9284600F0CA
:1027100039FA044614B1204615B030BD002014909B
:1027200026E0224909689DF8502001EBC20113AB55
:1027300011AA486801A900F025FA04460CB1204608
:10274000EAE709A901A800F0BBFC60B99DF84400C4
:102750009DF84810884201DD0220DDE79DF8500019
:10276000124988750AE09DF85000401CC0B21490D0
:102770000E48007D9DF850108842D2DC00BF0B4807
:10278000007D9DF85010884201D10420C4E714A9AF
:10279000284600F0D7FA04460CB12046BCE79DF865
:1027A0005000024948750020B6E7000038020020BA
:1027B0002DE9F0419AB09C48847D007DA04202DC66
:1027C0001AB0BDE8F0819849096801EBC40106AB75
:1027D00007AA486808A900F0D5F908A993A0FDF751
:1027E000A1FD002644E09048008B0121B140084043
:1027F000D8B122218FA0FDF795FD304600F028FBCF
:1028000089492431471839468BA0FDF78BFD2221D9
:1028100088A0FDF787FD304600F01AFB824924317D
:10282000084410A941F8260018E0304600F010FBDB
:102830007D492431085810A941F826007A48C07D06
:1028400030B910A850F826107CA0FDF76BFD05E00C
:1028500010A850F826107AA0FDF764FD9DF81C0022
:10286000401EB04202D078A0FDF75CFD701CC6B2DD
:102870009DF81C008642B6DB74A0FDF753FD00F006
:1028800039FB6948407D0B280DD2DFE800F0060DCA
:10289000151E27323F4E5F7287006349096851F861
:1028A00034008047054690E05F4A126852F83410C1
:1028B00010988847054688E05B4B1B6853F8342026
:1028C000DDE91001904705467FE0574F3F6857F814
:1028D000343010A807C89847054676E0DFF848C1AD
:1028E000DCF800C05CF8347010A80FC8B847054683
:1028F0006BE01498DFF830C10090DCF800C05CF8A1
:10290000347010A80FC8B84705465EE0DDE9140131
:10291000DFF814C1CDE90001DCF800C05CF83470C8
:1029200010A80FC8B84705464FE0DDE91412169805
:10293000DFF8F4C0CDE900120290DCF800C05CF8CA
:10294000347010A80FC8B84705463EE0DDE91423EF
:10295000DDE91610DFF8D0C0CDE90023CDE9021083
:10296000DCF800C05CF8347010A80FC8B847054602
:102970002BE0DDE91523DDE91710CDE90123CDE9D1
:1029800003101498DFF8A0C00090DCF800C05CF8D9
:10299000347010A80FC8B847054616E0DDE91623C5
:1029A000DDE91810CDE90223CDE90410DDE91401B9
:1029B000DFF874C0CDE90001DCF800C05CF83470C9
:1029C00010A80FC8B847054600BF00BF00F050FA76
:1029D0009DF8180001280CD11348C07D20B9294664
:1029E0001BA0FDF79FFC07E029461BA0FDF79AFC02
:1029F00002E018A0FDF796FC0B4890F8EC0088B1B7
:102A00000948D0F8F0000A21B0FBF1F201FB1207EF
:102A10000548D0F8F000B0FBF1F83A46414611A065
:102A2000FDF780FC00BFCBE6380200200D0A2573BD
:102A3000280000002563000025730000256C750048
:102A400030582558000000002C000000290000002C
:102A50003D256C753B0D0A003D305825583B0D0A4D
:102A60000000000046756E6374696F6E2052756ECB
:102A70002054696D653A25642E2531646D730D0A05
:102A800000000000F0B50346154600200022002695
:102A9000002455E01F782C2F01D104B901221F78A2
:102AA000292F01D01F780FB904B94AE0002E34D184
:102AB0001F78302F02DB1F78392F11DD1F78612F2F
:102AC00002DB1F78662F0BDD1F78412F02DB1F789A
:102AD000462F05DD1F78582F02D01F78782F0CD194
:102AE00002B12EE01F78612F03DB1F78203F0F70AB
:102AF00001E01F780F70491C1FE01F78222F04D1BE
:102B000002B11EE00126012417E01F78202F14D007
:102B10001F782C2F11D0FF2613E01F78222F00D111
:102B2000002402B10DE044B11F785C2F02D15B1C80
:102B3000471CF8B21F780F70491C471CF8B25B1C89
:102B4000A8E700BF00270F702E70F0BD10B5044637
:102B5000002010700BE020780870641C491C10786D
:102B6000401C10701078984201DB012010BD2078C5
:102B7000202802D020780028EDD10020087000BF66
:102B8000F4E700002DE9FF4F85B080468946002715
:102B9000002004900390012002904FF0000B0025CC
:102BA00044461DE02078202816D005F07F00052837
:102BB00012DA0DB945F0800505F07F00042803D135
:102BC00020782A2800D00EE0207805F07F010DF84B
:102BD0000100681CC5B202E0852D00D103E0641C31
:102BE00020780028DED100BF8DB1002005F07F01E4
:102BF0000DF8010051A1684600F062FA18B90021F1
:102C00000898017002E001210898017000254FF03A
:102C1000000A444614E0641C0AF1010000F0FF0AB7
:102C20002078202802D020782A2809D1204600F0D8
:102C3000D7F90646282E03D02A2E01D0CDF810A0B1
:102C40002078282802D020780028E4D1444604982F
:102C500010B10498401C04444FF0000A002654E0D0
:102C6000207810B94FF0010A50E02078282803D1CD
:102C700016B9781CC7B213E02078292808D13EB9CC
:102C800017B1781EC7B201E04FF0010A47B93DE025
:102C90002078222804D10EB9012000E00020064649
:102CA00047B9207820282FD0207889F8000009F132
:102CB000010929E020782C2804D101200290681C09
:102CC000C5B214E02078202811D0207828280ED012
:102CD0004DB9BBF1050F06DA20780DF80B000BF1AA
:102CE000010000F0FF0B0298401CC0B20290012FBF
:102CF0000AD10298022807D10298401CC0B2029063
:102D00000398401CC0B20390641CA9E700BF03985D
:102D1000012809D100200DF80B0008A1684600F039
:102D2000CFF908B900200390079903980870002094
:102D300089F80000504609B0BDE8F08F766F6964ED
:102D4000000000002DE9F043B5B005460F46002411
:102D5000002604E000213D488155701CC6B20A2EB1
:102D6000F8DB06E06D1C287818B9012035B0BDE805
:102D7000F08328782828F5D16D1C61E034AA6946D3
:102D80002846FFF77FFE064635449DF8D00020B167
:102D9000012827D0FF284CD149E09DF8000000B35E
:102DA00033A9684600F027F906460EB10220DDE798
:102DB000204600F04DF825490A31339A0A50A1F116
:102DC0002400008B0121A140884320491A3908833F
:102DD00004211E480155601CC4B20A2C01DD0320E9
:102DE000C4E726E0684600F087F9401C00F0FF08C1
:102DF000204600F02DF815490A3100EB010949463B
:102E0000684600F06EF911481A38018B0120A04085
:102E1000014388B20D491A3908830C4800F8048030
:102E2000601CC4B20A2C01DD03209FE701E00220F0
:102E30009CE700BF2878292801D0287800B900E055
:102E40009CE700BF3C70002090E700005202002089
:102E500002460020002105E0044B5B5C0344D8B22D
:102E60004B1CD9B29142F7DB7047000052020020A0
:102E700010B501210D48FFF734F9012808D10C489D
:102E8000D0F8F0004FF6FF7108440949C1F8F0008E
:102E90000648FFF723F90649D1F8F0100844044921
:102EA000C1F8F0000846D0F8F00010BD0014004052
:102EB0003802002010B5044604EBC40000EB0410F7
:102EC0000122C2EB800081B24FF47A70FFF784F9DF
:102ED00001200149C87510BD3802002010B5024616
:102EE000012000E050430B1EA1F10104E1B2F9D131
:102EF00010BD000010B501210848FFF7DDF84FF6BE
:102F0000FF710648FFF710F900210448FFF710F998
:102F100000200349C1F8F00010BD0000001400407B
:102F20003802002070B51D48008800F400400028D9
:102F300033D01A4805780020194948551948816846
:102F40001748884704461CB91649C868804721E0DD
:102F5000134800F0DDF80546012D00D02C46CCB119
:102F6000012C06D0022C08D0032C0AD0042C10D13E
:102F70000BE00DA0FDF7D6F90BE00EA0FDF7D2F99E
:102F800007E00FA0FDF7CEF903E010A0FDF7CAF9A6
:102F900000BF00BF00200149088070BD9C010020D7
:102FA0002C06002038020020BAAFCAFDB4EDCEF3E3
:102FB000210D0A00B2CECAFDB4EDCEF3210D0A00F8
:102FC000B2CECAFDCCABB6E0210D0A00CEB4D5D24C
:102FD000B5BDC6A5C5E4B5C4BAAFCAFD210D0A008A
:102FE0000146491C00E0491C0878202801D100292D
:102FF000F9D1087870472DE9F04307460E460025C1
:103000004FF00A083C46002030601FE02078392845
:1030100002DC207830280ADA2078462802DC207882
:10302000412804DA2078582809D1012D07D12078C9
:10303000412801DB4FF01008681CC5B205E020787C
:1030400000B904E00120BDE8F083641CDEE700BFA6
:103050003C46B8F1100F0FD1032D01DA0220F2E740
:103060002078302806D16078582803D1A41CA81EE7
:10307000C5B204E00320E6E70DB90420E3E71BE056
:103080000DB1681EC5B22078392806DC20783028BA
:1030900003DB2078A0F1300902E02078A0F13709A5
:1030A00029464046FFF71AFF316809FB00103060DF
:1030B000641C207800B900E0E2E700BF0020C2E70E
:1030C00002460AE010780B78984201D00120704740
:1030D000107800B902E0521C491CF3E700BF002041
:1030E000F5E706E002780A70027802B902E0401CB7
:1030F000491CF7E700BF70470146002005E00A7849
:1031000002B903E0421CD0B2491CF8E700BF704787
:1031100010B58CB004461E230BAA03A92046FFF766
:1031200015FD0090009810B101200CB010BD9DF865
:103130002C00044400200B900EE040489DF82C2009
:1031400050F8221003A8FFF7BBFF00B908E09DF874
:103150002C00401CC0B20B909DF82C000728ECD32B
:1031600000BF9DF82C00072863D2DFE800F00405BB
:103170003C5E6564630000BF31A0FDF7D3F831A069
:10318000FDF7D0F83FA0FDF7CDF84EA0FDF7CAF847
:103190005CA0FDF7C7F86BA0FDF7C4F879A0FDF7B8
:1031A000C1F886A0FDF7BEF88BA0FDF7BBF890A094
:1031B000FDF7B8F894A0FDF7B5F899A0FDF7B2F8BF
:1031C0009EA0FDF7AFF8A4A0FDF7ACF8B0A0FDF706
:1031D000A9F8BDA0FDF7A6F8C8A0FDF7A3F8D4A0F4
:1031E000FDF7A0F89AE216A0FDF79CF8E0A0FDF725
:1031F00099F800200B900EE0ED4800689DF82C2017
:1032000000EBC2004168EBA0FDF78CF89DF82C00A4
:10321000401CC0B20B90E648007D9DF82C108842FF
:10322000EADC07A0FDF77EF878E205A0FDF77AF862
:10323000C4E171E245E219E2ECE10000FC0100208A
:103240000D0A00002D2D2D2D2D2D2D2D2D2D2D2D4B
:103250002D2D2D2D2D2D2D2D2D2D2D2D55534D411C
:1032600052542056332E312D2D2D2D2D2D2D2D2D1B
:103270002D2D2D2D2D2D2D2D2D2D2D2D2D2D2D208B
:103280000D0A00002020202055534D415254CAC73A
:10329000D3C9414C49454E54454BBFAAB7A2B5C40A
:1032A000D2BBB8F6C1E9C7C9B5C4B4AEBFDAB5F789
:1032B000CAD4BBA5BDBBD7E9BCFE2CCDA8B9FD20A7
:1032C0000D0A0000CBFC2CC4E3BFC9D2D4CDA8B9F1
:1032D000FDB4AEBFDAD6FACAD6B5F7D3C3B3CCD0F5
:1032E000F2C0EFC3E6B5C4C8CEBACEBAAFCAFD2CA1
:1032F000B2A2D6B4D0D02ED2F2B4CB2CC4E3BFC984
:103300000D0A0000D2D4CBE6D2E2B8FCB8C4BAAF02
:10331000CAFDB5C4CAE4C8EBB2CECAFD28D6A7B36D
:10332000D6CAFDD7D62831302F3136BDF8D6C629BA
:10333000A1A2D7D6B7FBB4AEA1A2BAAFCAFDC8EB63
:103340000D0A0000BFDAB5D8D6B7B5C8D7F7CEAAF0
:10335000B2CECAFD292CB5A5B8F6BAAFCAFDD7EED4
:10336000B6E0D6A7B3D63130B8F6CAE4C8EBB2CED1
:10337000CAFD2CB2A2D6A7B3D6BAAFCAFDB7B52044
:103380000D0A0000BBD8D6B5CFD4CABE2ED0C2D449
:10339000F6B2CECAFDCFD4CABEBDF8D6C6C9E8D6ED
:1033A000C3B9A6C4DC2CD0C2D4F6BDF8D6C6D7AA01
:1033B000BBBBB9A6C4DC2E0D0A000000BCBCCAF51C
:1033C000D6A7B3D63A7777772E6F70656E65647639
:1033D0002E636F6D0D0A000055534D415254D3D0EA
:1033E00037B8F6CFB5CDB3C3FCC1EE3A0D0A000035
:1033F0003F3A202020202020BBF1C8A1B0EFD6FA10
:10340000D0C5CFA20D0A000068656C703A2020205C
:10341000BBF1C8A1B0EFD6FAD0C5CFA20D0A00000B
:103420006C6973743A202020BFC9D3C3B5C4BAAF46
:10343000CAFDC1D0B1ED0D0A0A00000069643A204E
:1034400020202020BFC9D3C3BAAFCAFDB5C44944A8
:10345000C1D0B1ED0D0A0A006865783A202020201D
:10346000B2CECAFD3136BDF8D6C6CFD4CABE2CBA4C
:10347000F3B8FABFD5B8F12BCAFDD7D6BCB4D6B4D1
:10348000D0D0BDF8D6C6D7AABBBB0D0A0A00000033
:103490006465633A20202020B2CECAFD3130BDF8E9
:1034A000D6C6CFD4CABE2CBAF3B8FABFD5B8F12B62
:1034B000CAFDD7D6BCB4D6B4D0D0BDF8D6C6D7AA2C
:1034C000BBBB0D0A0A00000072756E74696D653A27
:1034D000312CBFAAC6F4BAAFCAFDD4CBD0D0BCC67B
:1034E000CAB13B302CB9D8B1D5BAAFCAFDD4CBD014
:1034F000D0BCC6CAB13B0D0A0A000000C7EBB0B48D
:10350000D5D5B3CCD0F2B1E0D0B4B8F1CABDCAE4DD
:10351000C8EBBAAFCAFDC3FBBCB0B2CECAFDB2A203
:10352000D2D4BBD8B3B5BCFCBDE1CAF82E0D0A009D
:103530002D2D2D2D2D2D2D2D2D2D2D2D2D2D2D2DBB
:103540002D2D2D2D2D2D2D2D2D2D414C49454E54FC
:10355000454B2D2D2D2D2D2D2D2D2D2D2D2D2D2D65
:103560002D2D2D2D2D2D2D2D2D2D2D200D0A000035
:103570002D2D2D2D2D2D2D2D2D2D2D2D2D2D2D2D7B
:103580002D2D2D2D2D2D2D2D2DBAAFCAFDC7E5B515
:10359000A52D2D2D2D2D2D2D2D2D2D2D2D2D2D2DE3
:1035A0002D2D2D2D2D2D2D2D2D2D2D2D200D0A00C8
:1035B0003802002025730D0A0000000059A0FCF716
:1035C000B1FE00200B901AE0664909689DF82C2096
:1035D00001EBC20101AB02AA486803A9FFF7D2FAC6
:1035E000604800689DF82C1050F8312003A95EA0B7
:1035F000FCF798FE9DF82C00401CC0B20B90594877
:10360000007D9DF82C108842DEDCAFF2CC30FCF758
:1036100089FE83E0AFF2D830FCF784FE0BAA03A941
:103620002046FFF72FFA9DF82C00C8B9694603A879
:10363000FFF7E1FC0B909DF82C0020B94FA00099FA
:10364000FCF770FE0EE09DF82C00042801D002204B
:103650006BE54DA0FCF766FE01204249C87501E00C
:10366000022062E547A0FCF75DFE57E045A0FCF7AD
:1036700059FE0BAA03A92046FFF704FA9DF82C0077
:10368000C8B9694603A8FFF7B6FC0B909DF82C005B
:1036900020B942A00099FCF745FE0EE09DF82C00F1
:1036A000042801D0022040E53FA0FCF73BFE0020AB
:1036B0002C49C87501E0022037E532A0FCF732FE44
:1036C0002CE030A0FCF72EFE0BAA03A92046FFF742
:1036D000D9F99DF82C00C8B9694603A8FFF78BFCFF
:1036E0000B909DF82C0078B91E49009881F8EC00E9
:1036F000084690F8EC0018B130A0FCF713FE07E084
:1037000035A0FCF70FFE03E002200EE502200CE5D9
:103710001CA0FCF707FE01E0012006E500BF002029
:1037200003E500002D2D2D2D2D2D2D2D2D2D2D2D95
:103730002D2D2D2D2D2D2D2D2D2D2D2D2DBAAFCA0D
:10374000FD204944202D2D2D2D2D2D2D2D2D2D2DC0
:103750002D2D2D2D2D2D2D2D2D2D2D2D2D2D2D2D99
:10376000200D0A0038020020257320696420697347
:103770003A0D0A3058253038580D0A004845583A55
:10378000305825580D0A00003136BDF8D6C6B2CEE5
:10379000CAFDCFD4CABE210D0A0000004445433AF9
:1037A000256C750D0A0000003130BDF8D6C6B2CECA
:1037B000CAFDCFD4CABE210D0A00000052756E208A
:1037C00054696D652043616C63756C6174696F6EDB
:1037D000204F4E0D0A00000052756E2054696D6531
:1037E0002043616C63756C6174696F6E204F46464F
:1037F0000D0A000001607047000001000200010096
:1038000003000100020001000400010002000100A9
:103810000300010002000100050001000200010098
:103820000300010002000100040001000200010089
:103830000300010002000100060001000200010077
:103840000300010002000100040001000200010069
:103850000300010002000100050001000200010058
:103860000300010002000100040001000200010049
:103870000300010002000100070001000200010036
:103880000300010002000100040001000200010029
:103890000300010002000100050001000200010018
:1038A0000300010002000100040001000200010009
:1038B00003000100020001000600010002000100F7
:1038C00003000100020001000400010002000100E9
:1038D00003000100020001000500010002000100D8
:1038E00003000100020001000400010002000100C9
:1038F0000300010002000100303132333435363725
:103900003839414243444546403058003031323323
:103910003435363738396162636465664030780023
:103920000400000800000000000000020001000088
:10393000100000003F00000064656300696400003F
:1039400072756E74696D650068656C7000000000CA
:103950006C6973740000000068657800766F6964B4
:103960002077726974655F616464722875333220F0
:10397000616464722C7533322076616C290000001A
:1039800075333220726561645F61646472287533D7
:103990003220616464722900766F69642064656C0A
:1039A00061795F6D7328753136206E6D7329000063
:1039B000766F69642064656C61795F75732875330F
:1039C00032206E7573290000E839000800000020DD
:1039D0002C0300006C0100087C3A00082C03002036
:1039E000AC140000C80100081184A24A0400093484
:1039F000010203040607080982017C2C01400C091E
:103A00003240120C0B3A40024012040B3A40034081
:103A10000D3A3401400440210B3A4005401208DAC7
:103A2000401A2C0203040400094A0607080902048C
:103A300006081334391B0848041A50041A3C041AA7
:103A400058041A38041A40041315261B088008135A
:103A5000F5371B085C0813D1241B089808133D2573
:103A60001B08B0081318021420B52E140801271BD8
:0C3A700008B10413252F9B0804C701D4E3
:040000050800022DC0
:00000001FF
