:020000040800F2
:1000000060D400202D020008ED3D0008F138000802
:10001000F13C0008BD0A0008BF66000800000000AF
:10002000000000000000000000000000295000084F
:100030002F0E000800000000BB020008BD510008A0
:100040004702000847020008470200087D4E0008EA
:100050004702000847020008310E00084702000866
:10006000470200082D100008470200084702000858
:10007000470200084702000847020008470200083C
:10008000050C000847020008470200084702000864
:1000900047020008470200084702000879100008DC
:1000A00047020008355300084702000847020008CD
:1000B0007D540008E5560008315900084702000841
:1000C00047020008470200084702000847020008EC
:1000D000470200088564000847020008470200083C
:1000E000AD0E00084702000847020008470200085A
:1000F000AD5F0008470200084702000847020008F9
:100100004702000847020008BD5B000847020008DC
:100110004702000847020008ED5D00087D5E000808
:10012000470200084702000847020008470200088B
:1001300000F002F800F06BF80AA090E8000C82448E
:100140008344AAF10107DA4501D100F060F8AFF26B
:10015000090EBAE80F0013F0010F18BFFB1A43F0A5
:100160000103184708980000289800000A444FF03F
:10017000000C10F8013B13F0070408BF10F8014B06
:100180001D1108BF10F8015B641E05D010F8016B4B
:10019000641E01F8016BF9D113F0080F1EBF10F8AF
:1001A000014BAD1C0C1B09D16D1E58BF01F801CBD2
:1001B000FAD505E014F8016B01F8016B6D1EF9D555
:1001C0009142D6D37047000000230024002500266A
:1001D000103A28BF78C1FBD8520728BF30C148BFAA
:1001E0000B607047642900F0F980752900F0F680F3
:1001F000782900F02F81632900F0B582732900F07F
:10020000BA82002070471FB51FBD10B510BD00F0A9
:10021000EDFA1146FFF7F7FF06F04EFD00F00BFB7D
:1002200003B4FFF7F2FF03BC06F072FA09488047F7
:1002300009480047FEE7FEE7FEE7FEE7FEE7FEE7C8
:10024000FEE7FEE7FEE7FEE704480549054A064BE0
:1002500070470000D95100083101000860CE00202D
:1002600060D4002060D0002060D00020EFF3108028
:1002700072B6704780F310887047204C204D25607F
:100280004FF0000484F309881E4C4FF001052570DF
:100290001D4C4FF08055256062B6FEE730B41A4C15
:1002A0004FF08055256030BC704730B4164C4FF08D
:1002B0008055256030BC704700BF72B6EFF30980EF
:1002C00028B1203880E8F00F10490968086000B5AF
:1002D0000F4880475DF804EB0E480F490A7802701A
:1002E0000A480E490A680260106890E8F00F203052
:1002F00080F309884EF0040E62B6704720ED00E0EE
:100300000000FFFF2602002004ED00E02C02002088
:10031000794400081B0200201C0200203402002047
:10032000704700000FB4044910B503AA029800F00A
:1003300027FA10BC5DF814FBC401002070B5044618
:1003400085690068C10601D5302600E02026C00777
:1003500007D070BDD4E9012130469047206A401C87
:1003600020626D1EF6D570BD70B5044685690078B3
:10037000C00707D170BDD4E9012120209047206A31
:10038000401C20626D1EF6D570BD70B50C4605464A
:10039000012A05D02878800600D5EA69002302E00A
:1003A000012305E05B1C934202D2E05C0028F9D1F6
:1003B000A869E618C01AA861286A18442862284665
:1003C000FFF7BCFF04E0D5E9012114F8010B9047C9
:1003D000B442F8D32846FFF7C7FF70BD2DE9F041BE
:1003E0000646002410687529314616A510D0AFF3D3
:1003F0000080002802DA404213A507E031688A072E
:1004000001D512A502E0490704D511A5012401E098
:10041000AFF3008000210A2206F1240709E0B0FBB7
:10042000F2FCB0FBF2F302FB1C00303078541846AB
:10043000491C0028F3D123462A463046BDE8F04146
:1004400000F02EB9000000002D0000002B0000007D
:100450002000000070B504460D4621461068AFF339
:1004600000802188090502D50F4A7A4402E00E4A2D
:100470007A440E32002104F1240305E000F00F0657
:100480000009965D5E54491C0028F7D120780023AE
:10049000000704D5702D02D009B102231132204685
:1004A000BDE8704000F0FCB88A9200002DE9F05FD2
:1004B000894604464FF0000ADFF874B1FB44C0F8E7
:1004C00020A02046E1688847002874D0252806D05F
:1004D000D4E901219047206A401C2062F1E7002600
:1004E0005F462046E16888472028054607DB312D16
:1004F00005D2781910F8200C08B10643F1E7B007CF
:1005000001D526F00406C4F81CA00027C4F818A0E2
:100510002A2D09D0284606F0F4F838B304EB8708F2
:10052000303DC8F8185019E059F8041B204604EB78
:1005300087029161E1688847012F054618D1E0697B
:10054000002820DA26F020061DE0D8F8180000EB7D
:10055000800005EB40003038C8F818002046E168FC
:100560008847054606F0CDF80028EED1012F0AD0C5
:100570002E2D08D12046E16888477F1C0546022FB2
:1005800046F02006C4DBA069002803DA404246F0AA
:100590000106A061F00701D026F010066C2D0BD0EB
:1005A000682D09D04C2D39D06A2D35D0742D35D019
:1005B0007A2D33D016E038E0E1682F462046884790
:1005C000B842054609D16C2F26D04FF48060E1680F
:1005D000064320468847054604E06C2F1AD04FF4A6
:1005E000807006430DB3A5F14100192802D82035CB
:1005F00046F400664A462946204626604E46FFF7E6
:10060000F1FD80B101280BD0F61D26F0070000F1A6
:10061000080956E74020E4E78020D8E70020D6E725
:1006200006F104094DE7284652E7206ABDE8F09F2D
:10063000609200004FF0000200B5134694469646C3
:10064000203922BFA0E80C50A0E80C50B1F12001E5
:10065000BFF4F7AF090728BFA0E80C5048BF0CC093
:100660005DF804EB890028BF40F8042B08BF7047F1
:1006700048BF20F8022B11F0804F18BF00F8012B63
:100680007047704770477047704710B500F08AF8A0
:10069000006810BD10B5044600F084F8046010BD79
:1006A0002DE9F0470D4699469246044600F124088C
:1006B0000168880604D5E06921F01001216000E09E
:1006C0000120A84201DD471B00E00027A1697A193B
:1006D00002EB0900081AA0612078C00602D4204667
:1006E000FFF72CFE002608E0D4E901211AF80600E5
:1006F0009047206A401C761C20624E45F4DB20782F
:10070000C0060AD52046FFF719FE06E0D4E901210C
:1007100030209047206A401C2062381EA7F1010754
:10072000F4DC07E0D4E9012118F805009047206ABD
:10073000401C2062281EA5F10105F3DC2046FFF7CE
:1007400013FE2078000602D50220BDE8F0870120C4
:10075000FBE710B5436913B1AFF3008001E0FFF789
:1007600014FE012010BD127800F124010A7000224D
:100770004A700122EDE711684FF0FF32E9E700000F
:10078000074B70B50D467B4400F015F8044628462B
:1007900000F024F810B14FF0FF3070BD204670BD5E
:1007A0001B6400000048704700CE002001694A1C0D
:1007B00002610878704700B58FB0CDE901310021A2
:1007C000059105497944CDE9031011466846FFF7C4
:1007D0006DFE0FB000BD0000E5FFFFFF007B00F0E5
:1007E000800070470048704700CE00207546FFF734
:1007F000F9FFAE4605006946534620F007008546DE
:1008000018B020B5FFF720FDBDE820404FF00006EE
:100810004FF000074FF000084FF0000B21F00701E8
:10082000AC46ACE8C009ACE8C009ACE8C009ACE82B
:10083000C0098D46704710B50446AFF300802046CE
:10084000BDE81040FFF7ECBC21B1826842F0010224
:10085000826003E0826822F001028260704700003B
:1008600010B504461248844208D10121401504F015
:100870004BFA0021601504F047FA17E00D48844256
:1008800008D10121001504F03FFA0021201504F0E1
:100890003BFA0BE00848844208D10121C80304F068
:1008A00033FA00214FF4004004F02EFA10BD00008E
:1008B0000024014000280140003C01400146002086
:1008C0008A6802F004020AB1012000E000207047AB
:1008D0000146C86C80B270470246002013680B4086
:1008E0000BB1012000E000207047014600208A681B
:1008F00002F008020AB1012000E000207047000069
:1009000030B502460020002350680F4C20400D797E
:100910000C6844EA05242043506090680B4C20404A
:10092000D1E902542C434D7944EA450420439060B8
:10093000D06A20F470000C7C641EE4B2234340EAC9
:100940000350D06230BD0000FFFEF0FFFDF7F1FF65
:10095000F0B504460D4600200021092D11DDE068A8
:10096000A5F10A0606EB4607072606FA07F18843B3
:10097000A5F10A0606EB460603FA06F10843E06015
:100980000CE0206905EB4507072606FA07F18843C6
:1009900005EB450603FA06F108432061072A0FDA42
:1009A000606B561E06EB86071F2606FA07F1884382
:1009B000561E06EB860605FA06F10843606322E040
:1009C0000D2A0FDA206BD61F06EB86071F2606FAC4
:1009D00007F18843D61F06EB860605FA06F10843A1
:1009E000206310E0E06AA2F10D0606EB86071F26E1
:1009F00006FA07F18843A2F10D0606EB860605FA12
:100A000006F10843E062F0BD816841F008018160B1
:100A1000704721B1826842F4A002826003E08268DC
:100A200022F4A00282607047816841F00401816075
:100A3000704710B503F0DEF804F0E0F902F05AFF59
:100A400003F058F903F092F810BD0000002013499C
:100A500008801349086013480078012819D1002044
:100A60001149887648700120087000200F490877E6
:100A7000C8700520087000200D4981F82300887097
:100A80000520087000200B4981F828008870042098
:100A90000870042008490870704700005A040020BC
:100AA0001C000020AC010020C0030020E003002057
:100AB00000040020280400205804002000BFFEE7A6
:100AC00012480078042812DC11480068012801D07F
:100AD000012070470F488068406A0E49098A8842A1
:100AE00012D00C488068407870B90120F1E70948BD
:100AF0008068406A0749098A884205D005488068AD
:100B0000407808B90120E4E70020E2E7280400204B
:100B100008012242E003002010480068012814D197
:100B20000F480068012816D10E484068407890B9F7
:100B30000D484068406A0C49496988420BD10A480F
:100B40004068407838B901207047064840684078CE
:100B500008B90120F8E70020F6E70000080122426A
:100B60000C812242280400200004002010B5064811
:100B70000068012805D00021402000F00DFC002075
:100B800010BD0120FCE700000481224210B5064898
:100B90000068012805D00021102000F0FDFB002096
:100BA00010BD0120FCE70000380123421048007806
:100BB000062819D000200F49887648700220087056
:100BC00000200D490877C8700620087000200B49E6
:100BD00081F823008870062008700020084981F8F9
:100BE00028008870052008700820014908707047A7
:100BF00058040020C0030020E0030020000400206F
:100C00002804002010B54FF4001000F0D1F850B1C6
:100C10004FF4001000F00CF8FA210348FFF70AFD2A
:100C2000024803F053F810BD900900206C00024008
:100C300000F0805111B10349086001E002494860A9
:100C400070470000040402400000024021B1026825
:100C500042F00102026004E002684FF6FE731A409F
:100C60000260704701684FF6FE721140016000217A
:100C7000016041608160C1604B49884208D14A49A6
:100C80000839496841F00F01474A083A51608AE043
:100C900045491431884208D143490839496841F02F
:100CA000F001414A083A51607DE03F4928318842CD
:100CB00008D13D490839496841F470613A4A083A17
:100CC000516070E038493C31884208D136490839D2
:100CD000496841F47041344A083A516063E032494E
:100CE0005031884208D130490839496841F47021AF
:100CF0002D4A083A516056E02B496431884208D1A8
:100D000029490839496841F47001274A083A516075
:100D100049E025497831884208D123490839496892
:100D200041F07061204A083A51603CE01F49884216
:100D300006D1011F096841F00F01021F116032E066
:100D40001A491431884208D11849091F096841F02D
:100D5000F001164A121F116025E01449283188421B
:100D600008D11249091F096841F470610F4A121F26
:100D7000116018E00D493C31884208D10B49091F28
:100D8000096841F47041094A121F11600BE00749DC
:100D90005031884207D10549091F096841F4702183
:100DA000024A121F11607047080002400804024006
:100DB00001460020002201F0805313B1054B1A6850
:100DC00001E0054B1A6802EA01030BB1012000E0C3
:100DD0000020704700040240000002401AB103687E
:100DE0000B43036002E003688B430360704710B558
:100DF0000022026847F6F0739A430C6A8B6823431B
:100E00000C6923434C6923438C692343CC692343F6
:100E10004C6A23438C6A23431A430260CB684360C5
:100E20000B6883604B68C36010BD416070477047BA
:100E300010B5012000F0E0F970B3322005F0C8FDD4
:100E400016480078072810DD15480068012820D0D2
:100E50001448806AC8281CD90021134805F054F9A9
:100E6000002010494870886213E00C48007806287A
:100E70000FD10A4890F8280001280AD108480068D4
:100E8000012806D00021084805F03EF90020054958
:100E90004870012000F0AAF910BD000028040020CD
:100EA000008122426C0100200008004010B541A0E2
:100EB000FFF738FA4FF4806000F09EF9A8B13220B5
:100EC00005F086FD3E480068012807D100213D4815
:100ED00005F01AF900203C49486248703BA0FFF732
:100EE00021FA4FF4806000F081F94FF4006000F0C7
:100EF00083F9B0B1C82005F06BFD3148001D0068D2
:100F0000012807D00021354805F0FEF800203449BB
:100F1000486248704FF4006000F068F931A0FFF7B4
:100F200001FA4FF4805000F067F9D0B1322005F09B
:100F30004FFD23480830006801280BD100212D48BF
:100F400005F0E2F801201E497431086000202A49AA
:100F5000486248704FF4805000F048F927A0FFF72E
:100F6000E1F94FF4005000F047F9B0B1322005F03C
:100F70002FFD13480C300068012807D100212348B9
:100F800005F0C2F800202249486248704FF4005032
:100F900000F02CF91FA0FFF7C5F94FF4004000F056
:100FA0002BF930B14FF4004000F020F91CA0FFF7FE
:100FB000B9F910BD6578746931352D31300D0A00ED
:100FC00028012342002C01402C00002047455F737C
:100FD000746172745F53656E0D0A0000000C00406E
:100FE0006C00002047435F726F745F53656E0D0A9B
:100FF0000000000000040040AC00002047435F7682
:1010000065725F73656E0D0A0000000000340140D8
:10101000EC000020457874692031330D0A0000008F
:10102000657874692031350D0A00000010B508207C
:1010300000F0E2F8A0B1322005F0CAFC09480068CF
:10104000012807D10021800705F05EF8002006493D
:1010500048624870082000F0C9F804A0FFF762F960
:1010600010BD00000C8122422C01002065787469BB
:1010700020330D0A0000000010B5202000F0BCF85D
:10108000B0B1322005F0A4FC3F480068012809D126
:101090000021800705F038F83C4840693C49486227
:1010A00000204870202000F0A1F83AA0FFF73AF99C
:1010B000402000F0A1F8A8B1322005F089FC3248A8
:1010C000001D0068012807D10021364805F01CF8F2
:1010D0000020354948624870402000F087F833A06E
:1010E000FFF720F94FF4807000F086F8F8B1322055
:1010F00005F06EFC31480078072814D1304800789C
:1011000070B93048006801280DD100212E4804F044
:10111000FBFF00202D4948702DA0FFF703F902E0E6
:101120000020274908704FF4807000F05FF84FF4FA
:10113000007000F061F828B3322005F049FC1F4828
:101140000078062803D01D480078072816D11D48CE
:1011500010300068012811D11A48001D00680128CC
:101160000CD10021184804F0CFFF00201749487027
:101170001BA0FFF7D7F80120114908704FF4007049
:1011800000F034F810BD0000148122422804002031
:101190002C010020474F485F656E645F73656E0DDC
:1011A0000A000000000800406C010020474F565F15
:1011B00073746172745F53656E0D0A00C003002082
:1011C0002B00002020012342002C01402C00002095
:1011D00047455F646F776E5F53656E200D0A0000B0
:1011E00047455F75705F53656E0D0A0001490860E1
:1011F0007047000014040140014600200022074B04
:101200001B6803EA0102054B14331B680B4013B142
:101210000AB1012000E000207047000000040140F6
:10122000002123498279002A3AD00A4612680368CD
:101230009A430B461A600A1D126803689A430B1DF5
:101240001A60027911440A6803681A430A60184A4E
:101250000832126803689A43154B08331A601A1D46
:10126000126803689A43124B0C331A604279102AB1
:101270000ED11A1F126803681A430D4B08331A6007
:101280001A1D126803681A43094B0C331A600DE0EB
:101290000749427911440A6803681A430A6005E065
:1012A000027911440A6803689A430A607047000093
:1012B0000004014010B50B4806F0C4F90A4806F0D6
:1012C000C1F90A4806F0BEF9094806F0BBF9094819
:1012D00006F0B8F9084806F0B5F90020074908708B
:1012E00010BD00002C000020AC0000206C0000208D
:1012F000EC0000202C0100206C010020580400208C
:1013000010B5044802680448018804A0FFF70AF8F1
:1013100010BD00001C0000205A0400206572726F8E
:10132000723A2564206572726F725F73656E736FB7
:101330007225640D0A00000070B504460D46FFF7E3
:10134000B9FF00200F49887648700A2008700020F5
:101350000D490877C8700F20087000200B4981F8EC
:1013600023008870102008700020094981F82800A7
:1013700088700E2008700748008840F00200054978
:10138000088070BDC0030020E0030020000400209E
:10139000280400205A04002070B504460D46404839
:1013A000008820433E4908803E48006828433D4964
:1013B00008603B48008800F00100F0B1FFF77AFFB9
:1013C000FFF79EFF00203849887648700A20087091
:1013D000002036490877C8700F2008700020344973
:1013E00081F823008870102008700020314981F8AE
:1013F000280088700E20087070BDFFF781FF284814
:10140000008800F0200030B109202949C870002070
:101410008870102008702248008800F0400038B121
:10142000234800782249C870002088701020087076
:101430001B48008800F0100038B11E4800781D4994
:10144000C870002088700E2008701548008800F0D1
:10145000800038B1174800781649C870002088709D
:101460000E2008700E48008800F4807030B109200A
:101470000E4988700020C8700F2008700848008846
:1014800000F4007030B109200949C870002088704C
:101490001020087003200849087000BFACE7000066
:1014A0005A0400201C000020C0030020E00300209C
:1014B00000040020280400205804002008B5012161
:1014C000302003F011FCFB20ADF8000048208DF81F
:1014D00003006946054801F033FB0420ADF8000025
:1014E0006946034801F02CFB08BD000000140140D0
:1014F0000010014008B50121402003F0F5FB4FF436
:101500007F40ADF8000048208DF80300694602488E
:1015100001F016FB08BD0000001801401CB5FFF7E4
:10152000CDFF0121084603F0DFFB00208DF8040009
:1015300001208DF806000021032001F0E1FA0C20C3
:101540008DF80500012000906846FFF769FE032131
:10155000084601F0D5FA08208DF80500009068468D
:10156000FFF75EFE0521032001F0CAFA08208DF87E
:101570000500202000906846FFF752FE0621032058
:1015800001F0BEFA08208DF8050040200090684662
:10159000FFF746FE0721032001F0B2FA0C208DF878
:1015A0000500802000906846FFF73AFE1CBD0EB58E
:1015B000FFF7A0FF0121084603F096FB00208DF8FD
:1015C000080001208DF80A000D21042001F098FA8E
:1015D00008208DF809008002019001A8FFF720FE85
:1015E0000C21042001F08CFA08208DF8090040023B
:1015F000019001A8FFF714FE0B21042001F080FAEE
:101600000C208DF809004FF40060019001A8FFF74D
:1016100007FE0A21042001F073FA08208DF8090062
:10162000C001019001A8FFF7FBFD0921042001F092
:1016300067FA08208DF809008001019001A8FFF7E2
:10164000EFFD0821042001F05BFA08208DF8090065
:101650004001019001A8FFF7E3FD28208DF800006C
:1016600002208DF8010000208DF8020001208DF885
:101670000300684602F0BCFB17208DF80000022032
:101680008DF8010000208DF8020001208DF8030084
:10169000684602F0ADFB0EBD10B54A480078102830
:1016A00009D2DFE800F008090C120F151D252D489E
:1016B0004D556B818B8C83E003F040FC80E003F0A0
:1016C0003DFC7DE003F03AFC7AE003F037FC77E084
:1016D00000203C49487048770877C87008706FE070
:1016E00000203849487048770877C870087067E06C
:1016F0003448807F18B90321082002F0BBFB5FE06B
:101700003148007807280AD12F484078022806D1AE
:1017100000202C49C8700877092008700AE02A4880
:101720000078092806D10020264908770E20087085
:101730000020C87044E004210A2002F09BFB3FE037
:1017400000202049C8700B2008700020087737E07F
:101750001E480078082810D11C48807802280CD137
:101760001B484068406A1A494969884205D10020EF
:1017700014490877C8700C20087021E013480078DD
:10178000092810D11148807802280CD110484068EF
:10179000406A0F494969884205D100200949087704
:1017A000C8700D2008700BE00648807F28B9002023
:1017B00004490877C8700720087001E000E000BF06
:1017C00000BF10BDE0030020C0030020280400205B
:1017D0000004002010B5BF480078102809D2DFE8C7
:1017E00000F0080913282E3575E4F0EEEDECEBEA75
:1017F000E9E86DE1B74900224868114605F01CFB95
:101800000120B449C87063E1B3480068012803D0DF
:101810000220B049C8700BE0FFF77EF940B1AD4936
:1018200000228868114605F007FB0120A949C8700D
:101830004EE10120A9490860A649C87048E100208E
:10184000A64908600120A349C87041E1A148007F72
:1018500028B9A0490878032102F00CFB35E09D4827
:10186000007F012805D19B490878012102F002FB85
:101870002BE09848007F02281FD197480068012874
:1018800017D000209349896888709249886805F0CC
:10189000BFFB904A926892884FF4C87302FB03F131
:1018A0008C4A9068002205F0A5FA01208949C87089
:1018B0000BE003208749087707E08648007F03286C
:1018C00003D10221002002F0D5FA01E18148007F16
:1018D00028B980490878012102F0CCFA64E07D48FB
:1018E000007F01281AD17D48A8380068012805D159
:1018F00078490878022102F0BDFA55E0784840683E
:10190000406A7749096988424ED1754840684078F5
:10191000002849D103206F49087745E06D48007FD2
:1019200002281CD16F480068012814D16C48406817
:10193000406A6B490969884236D1694840684078F5
:1019400020BB01206349C8700A46118A90680022B2
:1019500005F072FA28E003205E49087724E05D482C
:10196000007F032805D15B490878032102F082FA41
:101970001AE05848007F042809D1564A518A9068D5
:10198000002205F059FA01205249C8700CE0514874
:10199000007F052808D15148A8380068012803D1E4
:1019A0000221002002F066FA92E002204949C87044
:1019B0008EE07BE079E064E04BE03DE02FE017E073
:1019C000FFE744488068406A42494969884203D138
:1019D00002204049C8700AE0FFF79EF838B13D4A3E
:1019E000518A906805F08AFA01203A49C8706FE080
:1019F000394808380068012810D037480C3800688A
:101A000001280BD138484068407838B9314A5169CB
:101A1000506805F073FA01202E49C87058E02D4A2D
:101A200052692C4B9B69D11A2A4A506805F066FA14
:101A300001202849C8704BE02649496809694A00D5
:101A400024494868002105F0F7F901202149C870B0
:101A50003EE021480068012803D002201D49C870DB
:101A60000EE0FFF759F858B11A49896809694A0028
:101A700018498868002105F0DFF901201549C87070
:101A800026E017484068406A1549096988420BD129
:101A900013484068407838B90E4A118A906805F0BA
:101AA0002DFA01200B49C87012E011E00F480088A0
:101AB00000F4807058B10749496809694A0005492E
:101AC0004868002105F0B8F901200249C87000BF3C
:101AD00000BF10BDE00300202C012342B48122424C
:101AE0002804002008012242C00300205A040020DC
:101AF00010B575480078102809D2DFE800F0080911
:101B00001ABE7C273E6B6C748E96A7B4D0D1D8E0F9
:101B10006E480068012803D102206B49C87007E0B5
:101B200069484068407818B910210120FFF734FC5B
:101B3000C7E06648001F0068012803D00220624900
:101B4000C87002E0604880684078BAE05E48007F74
:101B500090B15D48007F01280ED05B48007F0228CD
:101B600009D159488068407830B900205649C8707A
:101B70000320087700E000BFA3E05348007F30B3A4
:101B80005148007F012824D04F48007F02280BD104
:101B90004D4880684078D0B900204B49C87008464D
:101BA000007F401C087714E04748007F032810D0CE
:101BB0004548007F04280BD143488068407830B9FD
:101BC00000204149C8700846007F401C087700E0AB
:101BD00000BF76E075E03C488068407810B902208C
:101BE0003949C8706DE038484068407810B9022023
:101BF0003549C87065E03448C06864280CD9344859
:101C00000068012803D102202F49C87004E04FF476
:101C100000410120FFF7C0FB53E02B4840684078AB
:101C200010B902202849C8704BE0284800680128F4
:101C300003D102202449C87007E023484068407857
:101C400018B910210120FFF7A7FB3AE01F48001F39
:101C50000068012803D002201B49C87002E01A481E
:101C60008068407800BF18488068407820B901201B
:101C7000154988770220C87023E01348C06864289B
:101C80000CD913480068012803D002200E49C870FF
:101C900004E04FF400410120FFF77EFB11E010E06B
:101CA0000A480068012803D102200749C87007E0EC
:101CB00005484068407818B910210120FFF76CFBF7
:101CC00000BF00BF10BD0000E00300203001234230
:101CD0000801224210B51848C07820B9FFF77AFDF4
:101CE00000201549C8601448C078012811D1FFF7B9
:101CF000FFFE1148C068401C0F49C8600846C06814
:101D000044F62061884204D90B4801780220FFF78D
:101D100013FB0948C07802280CD107480078062830
:101D200002DCFFF7B9FC05E004480078022801D086
:101D3000FFF7B2FC10BD0000E003002058040020B3
:101D400010B52F480078012807D12E4800782D497A
:101D5000087209200870002048702A4800780B2873
:101D60004BD2DFE800F006070D1217181E28414875
:101D7000490042E0002023490870487088763CE022
:101D8000002020490870487037E000201D49087085
:101D9000487032E031E000201A494870062008708F
:101DA0002BE0002017494870072008700020487673
:101DB0000120087621E01348407E78B104F05CFDF4
:101DC00088B11148006801280DD00F48001D006837
:101DD000012808D000200B49487004E00020094980
:101DE00048700820087008E00020064948764870CE
:101DF0000620087001E000E000BF00BF10BD000039
:101E000058040020C00300202001234210B5774869
:101E100000780B2807D2DFE800F006073A47647421
:101E200093B1C6E2E300DFE07048807EF0B970480D
:101E30000068012816D100206C49496888706B49F8
:101E4000486805F0E5F8694A5268928802EB820218
:101E50005100664A5068002204F0CCFF012063491B
:101E6000487013E00120614988760FE05F48807E6A
:101E700001280BD104F000FD40B15C490022486804
:101E8000114604F0D9FF012058494870ACE004F035
:101E9000F3FC40B1554900224868114604F0CCFFDC
:101EA0000120524948709FE05148006801280BD139
:101EB0004E49486805F0C6FB00204C494968486215
:101EC00002204A4948700BE004F0D6FC40B1474973
:101ED00000224868114604F0AFFF012043494870D2
:101EE00082E004F0C9FC58B1404A5268126AA2F17B
:101EF00064013E4A506805F001F801203B494870F2
:101F000072E00020394908763948006801280AD172
:101F1000486805F097FB0020344949684862022070
:101F2000324948700BE004F0A7FC40B12F49002271
:101F30004868114604F080FF01202C49487053E0A6
:101F40002B48001F0068012803D102202749487050
:101F500013E004F091FC80B1244A52689288322345
:101F60005A43224B1B69C2EB4301204A50680022AE
:101F700004F062FF01201D49487035E004F07CFC4C
:101F800080B100201949496888701849486805F0EF
:101F90003FF8164B5A691969586804F02BFF012065
:101FA0001249487020E004F067FCB8B100200F49E6
:101FB000496888700D49486805F02AF80B4A52684C
:101FC0009288C2EB02125100084A5068002204F0C5
:101FD00011FF0120054948700020487604E003E025
:101FE00002200249487000BF00BF10BDC00300209E
:101FF0002801234210B55A4800780B2807D2DFE8A1
:1020000000F006072B3E4F57687FA3ABAC00A5E05E
:102010005348807E48B9524840684078D8B900207B
:102020004F4948700120887615E04D48807E012890
:1020300011D14C480068012805D102204849487058
:102040000020887607E046484068407818B90121AA
:102050000846FFF7A1F981E042480068012805D150
:1020600002203F4948700020887607E03C484068DD
:10207000407818B901210846FFF78EF96EE039481B
:102080000068012803D102203549487007E0344830
:102090004068407818B901210846FFF77DF95DE0F6
:1020A0002F484068407810B902202D49487055E00B
:1020B0002C480068012803D102202949487007E014
:1020C00027484068407818B901210846FFF764F9AD
:1020D00044E023484068407888B92248001F0068DF
:1020E000012804D11E4908760220487007E000202C
:1020F0001B4948700920087007201B4908702DE013
:10210000174840684078F0B91648001F0068012859
:102110000AD0144808380068012805D10220104967
:102120004870012048760EE00E48001F0068012824
:1021300005D102200A4948700020487603E00621B4
:102140000120FFF729F909E005484068407810B9F7
:1021500002200349487001E000E000BF00BF10BD4D
:10216000C0030020280123425804002010B518485D
:10217000407820B9FFF74AFE00201549C86014488E
:102180004078012811D1FFF735FF1148C068401C85
:102190000F49C8600846C06844F62061884204D9E7
:1021A0000B4801780120FFF7C7F80948407802285A
:1021B0000CD107480078042802DCFFF7C1FD05E0D8
:1021C00004480078022801D0FFF7BAFD10BD0000D6
:1021D000C00300205804002010B5524800780F2892
:1021E00009D2DFE800F008090C0F1822342C3E5702
:1021F0006882879B9C0093E002F0BAFE90E002F0B8
:10220000B7FE8DE047488068416A47A0FEF78AF82C
:1022100002F0AEFE84E00020424981F829004870B7
:102220008870087081F828007AE000203D4981F824
:10223000290048708870087081F8280070E000203C
:10224000384981F8280081F82900487068E00020AA
:10225000344981F82900487081F828008870087096
:102260005EE0364800780C2809D13448C07802284E
:1022700005D100202B4988700920087009E02F48FB
:1022800000780E2805D10D2026490870002088709E
:1022900000BF45E029488068406A2849498A884249
:1022A00008D127480068012804D100201D49887002
:1022B0000A20087034E0FDF7D9FF22490860194868
:1022C00090F82A00401C174981F82A001E4800781F
:1022D000401E1D4908701B480068FDF7CBFF002019
:1022E000104988700B2008701AE00321082001F0C3
:1022F000F1FD15E0FDF7BAFF12490860094890F8B2
:102300002B00401C074981F82B000E480068FDF7A0
:10231000B1FF0321082001F0DDFD01E000E000BF76
:1023200000BF10BD2804002061646A20626F78201D
:10233000706F733A25640D0A00000000E00300206E
:1023400000012342180000206004002010B5F74867
:102350000078002803DC0120F54981F82E00F448BC
:1023600000780F2809D2DFE800F00809213E60D587
:10237000F2F1F0EFEEEDECEBEA0074E2ED4800680C
:1023800001280AD1EA49886805F05CF90220E84989
:10239000887000208968486207E00120E44988705D
:1023A00000228868114604F047FD5CE2E1480C38E1
:1023B000006801280AD1DE49486805F043F9022087
:1023C000DB4988700020496848620BE0FEF778FB23
:1023D00040B1D74900224868114604F02DFD012084
:1023E000D34988703FE20120D14988700020896874
:1023F0008870CF49886804F00BFECE480068012839
:1024000009D1CDA0FDF78EFFC94AD18C906800227A
:1024100004F0F0FC08E0CBA0FDF784FFC44A918CE7
:102420009068002204F0E6FC1DE20120C04981F81A
:102430002E000020BD490870BD4890F8280000BB60
:10244000BC480C380068012816D10020B8494968FA
:102450008870B749486804F0DBFDB54A5268928835
:1024600002EB82025100B24A5068002204F0C2FC22
:102470000120AF4988704CE00120AD4981F8280067
:1024800047E0AB4890F82800012808D1FEF718FB78
:1024900028B3A7490878022101F01CFD39E0A448BF
:1024A00090F82800022820D1A2480068012817D1FE
:1024B00000209F49896888709D49886804F0A8FDBC
:1024C0009B4A9268928802EB82025100984A906877
:1024D0004FF4FA5204F08EFC01209549887018E000
:1024E0000320934981F8280013E0914890F82800D0
:1024F000032805D18E490878012101F0EBFC08E0A2
:102500008B4890F82800042803D10321002001F013
:10251000E1FCA8E1864890F8280048BBFEF7D0FA15
:1025200000285AD083480C380068012810D1804810
:1025300090F82800401C7E4981F828004DE080E199
:102540007EE162E14FE10BE1CCE0ADE046E055E039
:1025500080488068406A7F49498A88423DD17D48E9
:102560008068407808BB0221002001F0B3FC34E011
:102570006F4890F82800012818D177480068012892
:1025800010D176480068012827D0724880684078CA
:1025900058B9674A1169506804F0B0FC01206449D9
:1025A00088701AE002206249887016E0604890F84E
:1025B0002800022811D1FEF783FA70B165488068BF
:1025C000406A6449498A884207D1624880684078F5
:1025D00018B90221002001F07DFC44E1012054499A
:1025E00081F82E00002051490870514A116A906804
:1025F00004F084FC01204E49887034E14C4890F886
:10260000280058B9FEF7C2FA38B349498868002152
:1026100004F074FC01204649887044E0444890F876
:10262000280001281AD143480068012804D102205B
:102630003F4981F8280036E000203D4989688870CC
:102640003B49886804F0E4FC394A116A906800222A
:1026500004F0D0FB01203649887024E0344890F81B
:10266000280002281FD13D480C300068012812D1F3
:1026700030480068012803D13C202C49087002E052
:102680001E202A4908700020294981F82E000321C4
:1026900001F020FC07E00020254908708870002127
:1026A0001020FEF779FEDEE022480C380068012891
:1026B0000AD11F49486804F0C5FF02201C498870F0
:1026C0000020496848620CE0FEF7FAF948B1184961
:1026D00045F2C0324868002104F0AEFB01201449E5
:1026E0008870C0E012484068406A11490969884210
:1026F0000BD10F49486804F0A5FF02200C498870EF
:1027000008460069496848620EE0144800680128DC
:102710000AD011480068012806D1054988700A4688
:102720001169506804F0EAFB9DE00000600400209D
:1027300028040020188122426475616C20626F7841
:102740000D0A000073696E67616C20626F780D0A74
:1027500000000000E0030020080122422C01234277
:102760004248006801280BD14149486804F06AFFDB
:1027700002203F498870084640694968486231E054
:102780003B4890F82E00012813D1FDF76FFD394921
:102790000860374890F82B00401C354981F82B0021
:1027A00034480068FDF766FD00218020FEF7F4FD47
:1027B00018E0FEF7EBF980B12C48143800680128C6
:1027C0000BD0FEF77DF968B10120294988700A46CF
:1027D0005169506804F092FB04E04FF480611120CD
:1027E000FEF7DAFD3FE00020214989688870204922
:1027F000886804F00DFC1E4AD1699068002204F03C
:10280000F9FA01201A4988702DE018481438006838
:10281000012811D1002016498968887014498868F8
:1028200004F0F6FB124A91699068002204F0E2FA83
:1028300001200F49887002E002200D49887012E0E3
:1028400011E00D48008800F0100018B1022008497E
:10285000887007E00848008800F0800010B102206E
:102860000349887000BF00BF10BD000014812242E0
:1028700028040020180000205A04002010B57D48CC
:1028800000780F2809D2DFE800F008091B2D355B1E
:1028900079719AACB4C7E0F0F100E8E076480068DE
:1028A000012803D102207349887008E071488068CC
:1028B000407820B94FF400710120FEF76DFDD6E09D
:1028C0006D480C380068012803D1022069498870DE
:1028D00007E068484068407818B940210120FEF7B9
:1028E0005BFDC4E063488068407810B9022061490C
:1028F0008870BCE05F4890F8280050B95D48406897
:102900004078E0B900205B498870012081F82800F8
:1029100015E0584890F82800012810D0554890F844
:10292000280002280AD153488068407838B900202E
:1029300050498870032081F8280000E000BF96E02D
:102940004C4890F8280080B14A4890F828000128A7
:102950000AD148484068407838B900204549887015
:10296000022081F8280000E000BF80E04148806834
:10297000407810B902203F49887078E03D4890F8CF
:10298000280050B93B4880684078B8B900203949E0
:102990008870012081F8280010E0364890F828005F
:1029A00001280AD133488068407838B9002031497D
:1029B0008870022081F8280000E000BF57E02E4810
:1029C0000C380068012803D102202A49887007E0EA
:1029D00028484068407818B940210120FEF7DCFC07
:1029E00045E024484068407810B9022021498870A9
:1029F0003DE02148001F0068012803D102201D4945
:102A0000887008E01B484068407820B94FF4807116
:102A10000120FEF7C1FC2AE016488068407898B98A
:102A200014488068416A15A0FDF77CFC12481838EC
:102A30000068012803D002200E49887004E00020BD
:102A40000C4988700C20087011E00A4880684078B2
:102A500040B902200749887008468068416A0CA086
:102A6000FDF760FC03E001E0FFE700E000BF00BF0E
:102A700010BD000028040020188122426F757420C8
:102A8000626F7820706F733A25640D0A00000000B1
:102A90006E65787420626F7820706F733A25640DCC
:102AA0000A00000010B51448807820B9FFF74EFCEA
:102AB00000201149C86010488078012811D1FFF723
:102AC000DDFE0D48C068401C0B49C8600846C06860
:102AD00044F62061884204D9074801780420FEF7B3
:102AE0002BFC05488078022805D10448007802288C
:102AF00001D0FFF771FB10BD28040020580400200E
:102B000030B500228B071C0F0F2303FA04F20B4B86
:102B10008C1053F824309343084C8D1044F8253022
:102B200023468C1053F824308C07240F00FA04F449
:102B30002343024C8D1044F8253030BD080001407D
:102B40002DE9F04102460025002600200023002444
:102B5000002791F803C00CF00F0591F803C00CF0AA
:102B6000100CBCF1000F03D091F802C04CEA05052F
:102B700091F800C0BCF1000F31D0146800202BE0A8
:102B80004FF0010C0CFA00F3B1F800C00CEA030698
:102B90009E4220D183004FF00F0C0CFA03F7BC4388
:102BA00005FA03FC4CEA040491F803C0BCF1280FB9
:102BB00006D14FF0010C0CFA00FCC2F814C00AE078
:102BC00091F803C0BCF1480F05D14FF0010C0CFA8D
:102BD00000FCC2F810C0401C0828D1D31460B1F822
:102BE00000C0BCF1FF0F34DD546800202EE000F17E
:102BF000080C4FF0010808FA0CF3B1F800C00CEA19
:102C000003069E4221D183004FF00F0C0CFA03F70C
:102C1000BC4305FA03FC4CEA040491F803C0BCF180
:102C2000280F05D100F1080C08FA0CF8C2F814803E
:102C300091F803C0BCF1480F07D100F1080C4FF028
:102C4000010808FA0CF8C2F81080401C0828CED3FE
:102C50005460BDE8F0810000F0B50A46002300246E
:102C60000021002500F00046B6F1004F02D11D4EB4
:102C7000F16901E01B4E7168C0F3034583B200F4B3
:102C80004016B6F5401F08D121F07061154E7668E8
:102C900026F07066134F7E6012E000F48016B6F5E1
:102CA000801F06D1032606FA05F4A14341F07061A6
:102CB00006E0460D360103FA06F6B14341F07061B5
:102CC00022B1460D360103FA06F6314300F0004604
:102CD000B6F1004F02D1034EF16101E0014E716087
:102CE000F0BD000000000140416170470161704784
:102CF00010B56848007811280AD2DFE800F0090A08
:102D000016191C1F29334F586A7CA3ACB5C6C700DF
:102D1000BDE000F007FD00205E4981F82400487006
:102D200081F8230088700870B1E002F013F9AEE07A
:102D300002F010F9ABE002F00DF9A8E000205549CF
:102D400081F82400487081F82300887008709EE0A4
:102D50000020504981F82400487081F823008870D1
:102D6000087094E04C48007809280BDB4A4800784A
:102D70000B2807DC0020474981F8230088700820D1
:102D800008700AE0444800780E2806D10F20414917
:102D900008700020887081F8230078E000203D4909
:102DA000887009200870002081F823006FE03B48FC
:102DB0000068012808D10020364988700A20087070
:102DC000002081F8230003E000212020FEF7E4FA30
:102DD0005DE032480068012808D100202D49887044
:102DE0000B200870002081F8230003E00021202040
:102DF000FEF7D2FA4BE0284800780D2816D1264875
:102E0000C078022812D125480068012808D1002086
:102E1000204988700C200870002081F8230010E001
:102E200000214FF40070FEF7B7FA0AE01A48007864
:102E30000E2806D10F20174908700020887081F8ED
:102E4000230024E00020134988700D200870002022
:102E500081F823001BE000200E4988700E200870C6
:102E6000002081F8230012E00C483C38006801285B
:102E70000AD00B480068012806D10020054981F8D6
:102E8000230088700720087001E000E000BF00BF49
:102E900010BD000000040020E00300203C0123429C
:102EA0001081224210B5F848007811280AD2DFE8D4
:102EB00000F0090A102138478BF4F2F1F0EFEEED43
:102EC000ECEBEA000CE200F037FC0120EE498870E0
:102ED00006E2EE480068012803D10220EA49887022
:102EE00007E00120E849887000224868114603F095
:102EF000A3FFF5E1E54834380068012807D1E4482C
:102F00000068012803D10220DF49887008E0012011
:102F1000DF49A0310860DF49C1F8AC01DA498870A7
:102F2000DEE10120DC490860DA49C1F8B801D8497E
:102F3000AC31086000F0F6FB0120D3498870CFE186
:102F4000D14890F8230028B9CF490878042100F02F
:102F5000A7FF38E0CC4890F82300012805D1CA49E2
:102F60000878032100F09CFF2DE0C74890F823006B
:102F700002281FD1C5480068012816D10020C24987
:102F800049688870C049486804F042F8BE4A5268EF
:102F9000928802EB82025100BB4A5068002203F083
:102FA00029FF0120B84988700DE00320B64981F857
:102FB000230008E0B44890F82300032803D102213D
:102FC000002000F06DFF8BE1AF4890F8230090B92E
:102FD000AE4808300068012808D1AB4A51695068F2
:102FE00003F08CFF0120A84988704BE00220A6491D
:102FF00081F8230046E0A44890F82300012807D177
:103000000020A3499C31086001209F49887039E065
:103010009D4890F82300022805D19B490878042197
:1030200000F03EFF2EE0984890F82300032805D1D9
:1030300095490878032100F033FF23E0924890F887
:103040002300042811D195480068012804D00221EA
:10305000002000F025FF15E08B4A5169506803F00D
:103060004DFF0120884988700CE0874890F82300C4
:10307000052807D189480068012803D002210020D3
:1030800000F00EFF2CE1F2E0F0E0BBE07DE068E054
:1030900060E048E02EE024E0FFE7FDF767FDF8B1CF
:1030A000794890F8230028B977490878032100F07F
:1030B000F7FE15E0744890F82300012805D1724905
:1030C0000878022100F0ECFE0AE06F4890F8230037
:1030D000022805D100207249887702206A49887049
:1030E000FEE00120684988700A465169506803F083
:1030F00005FFF5E0644890F8230038B900206449E2
:10310000A03108600120604988700BE05E4890F8AB
:103110002300012806D100205D499C310860012070
:1031200059498870DCE059480830006801280CD102
:103130000020594908605749C1F8B8015449AC31D9
:10314000086001205049887003E000212020FEF72C
:1031500023F9C5E001204E499C3108604A49887036
:10316000BEE04F488068406A4D49098A88420BD1C9
:103170004B488068407838B90120434988700A4636
:103180009169506803F0BAFEAAE04048006801283F
:1031900003D102203C49887033E03B4890F823007B
:1031A00028B901203849887000F0C6FA29E036486D
:1031B00090F8230001280CD1334988700B469B6995
:1031C0000C46E469191B304B1A8C586803F034FE26
:1031D00017E02D4890F82300022805D101202A4944
:1031E000887000F09FFA0CE0274890F8230003282D
:1031F00007D101202449887000224868114603F055
:103200001BFE6DE0204890F8230038B900202049CB
:103210009C31086001201C49887026E01A4890F80B
:103220002300012805D11A49A03108601649887089
:103230001BE0154890F82300022806D1012014490C
:10324000A8310860104988700FE00F4890F82300FB
:1032500003280AD10120104908600E49C1F8B801BD
:103260000B49AC3108600849887039E038E00D48F6
:10327000008800F02000B8B1012005499C310860A9
:10328000014988702BE00000000400203401234233
:103290001081224200802242808121420801224284
:1032A000E00300205A0400200E48008800F040008F
:1032B00018B102200C49887011E00A48008800F417
:1032C000007060B10120094908600949C1F8B801DE
:1032D0000849086000F026FA02200349887000BF00
:1032E00000BF10BD5A04002000040020808121424C
:1032F00000802242BC81224210B5DD4800781128AE
:103300000AD2DFE800F0090A15263F47629FA0A80D
:10331000D3E6F9F8F7F6F500A8E1D5488068B0F5EE
:10332000FA6F04D900F0FEF90220D14988709DE1BE
:10333000D0480068012803D10220CD49887007E0F9
:10334000CB484068407818B920210120FEF724F8C6
:103350008CE1C748806840F2DC51884211D9C548E9
:1033600034380068012807D1C3480068012803D118
:103370000220BF49887004E04FF4C0410120FEF7ED
:103380000BF873E1BA488068642802D90220B84972
:1033900088706BE1B64890F82300A8B1B44890F863
:1033A0002300012810D0B24890F8230002280AD147
:1033B000AF484068407838B90220AD4981F8230011
:1033C0000020887000E000BF50E1A94890F8230079
:1033D00050B9A7484068407888BB0120A44981F8CB
:1033E0002300002088702CE0A14890F823000128D9
:1033F0000CD19F48806840F2DC51884221D90220DC
:103400009B4981F82300002088701AE0984890F8C2
:103410002300022815D0964890F82300032810D0E6
:10342000934890F8230004280AD1914840684078D6
:1034300028B903208E4981F823000020887000E01D
:1034400000BF13E112E18A484068407810B90220B9
:10345000874988700AE1864890F8230078B9844843
:103460008068B0F5967F20D98348006801281CD079
:1034700001207F4981F823000020887015E07C48F6
:1034800090F82300012810D17948806840F2DC517F
:1034900088420AD9774834380068012805D00020CE
:1034A000734981F8230002208870DFE0704880684B
:1034B00064280DD96F4808300068012803D1022024
:1034C0006B49887004E04FF400610120FDF764FF50
:1034D000CCE06748806840F2DC51884212D96548E8
:1034E00034380068012808D102206149887009E059
:1034F000A7E0A5E058E00EE005E04FF40051012000
:10350000FDF74AFFB2E05A484068407810B90220FF
:1035100057498870AAE0564890F8230058B9544893
:103520008068B0F57A7F3ED900205149887001202B
:1035300081F8230037E04E4890F8230001280AD193
:103540004B484068407828BB0020494988700220D9
:1035500081F8230027E0464890F8230002280AD18A
:103560004348806864281ED90020414988700320A0
:1035700081F8230017E03E4890F82300032812D179
:103580003C480068012806D10020394981F8230011
:103590000220887007E036484068407818B920213A
:1035A0000120FDF7F9FE61E0314890F8230070B981
:1035B0002F4880682E498989884240D900202C49AB
:1035C0008870012081F823000020886037E02848B7
:1035D00090F8230001280ED1254880682449C98924
:1035E00088422CD9002022498870022081F82300CB
:1035F0000020886023E01E4890F8230002280CD1A8
:103600001B48806864281AD9002019498870032053
:1036100081F823000020886011E0154890F823000D
:1036200003280CD112488068B0F57A7F07D90020B2
:103630000F4981F82300022088700020886015E07F
:1036400014E00B48806840F2DC5188420DD90948EB
:1036500034380068012803D102200549887004E04D
:103660004FF400510120FDF797FE00BF00BF10BDD1
:1036700000040020340123421081224210B5144876
:10368000807820B9FFF70EFC0020114988601048AF
:103690008078012811D1FFF72FFE0D488068401C6B
:1036A0000B4988600846806844F62061884204D946
:1036B000074801780320FDF73FFE0548807802287F
:1036C00005D104480078022801D0FFF711FB10BD96
:1036D000000400205804002010B501F0B5FA00F0F5
:1036E00037FA00200C4908600C49C1F8A4010120F8
:1036F000094908310860091D0860091D086006496C
:1037000018310860091D086005490860091D086036
:103710000249C1F8B40110BDA081224200802242BA
:103720008081214210B501200249086000F0F6F9BD
:1037300010BD00008481214210B5044991F8220097
:1037400000F0F8F900200249086010BD00040020D4
:103750008481214210B501F047FA114908601149EE
:103760000F48006805F0EAFD0AD201200E49086002
:10377000642003F0F7F801200C49C1F8A00110BD46
:103780000B490748006805F0D9FC06D2002006491D
:1037900008600649C1F8A001F1E706480078EEE7A5
:1037A000B00100200000A043A481224200802242F8
:1037B00000007A43AC01002010B500240020154918
:1037C00008601549C1F8B001012012490C310860A8
:1037D000091D086011490860091D08600D4908317C
:1037E00008600D49C1F8A001FFF79CFF01F0FCF94A
:1037F00004460B49204605F0A1FC05D201200549ED
:10380000091F0860032010BD00200249091F08603D
:103810000220F8E7AC8122420080224280812142CE
:10382000000020412DE9F04F89B005460E461746AD
:10383000984600244146129805F0ECFD089000BF20
:1038400048E04FF08041304605F04EFB4FF080419C
:103850000790304605F048FB0490204605F042FCF6
:103860000390049905F0D6FD0590139905F09AFC94
:103870000690079905F038FB82468AF000400190D7
:1038800003F0D8F84FF07E51029005F0B9FA03909A
:1038900005F08AFA02460B46CDE9040100201349DF
:1038A00005F014F8CDE9060104F0DEFF8146494633
:1038B000089805F077FC4146079005F0A1FA834689
:1038C0005946384605F010FB079005F0EBFB25F84C
:1038D0001400641C204605F005FC3146079005F0F5
:1038E0002DFCAED309B0BDE8F08F00000000F03F22
:1038F00000BFFEE738B5002401217C2001F0F4F977
:1039000010208DF8030003208DF8020041F203041B
:10391000ADF8004069460F48FFF712F921460D48FF
:10392000FFF7E4F94FF47F44ADF8004069460A48D8
:10393000FFF706F921460848FFF7D8F98024ADF8CB
:10394000004069460548FFF7FBF821460348FFF7AA
:10395000CDF938BD000C01400014014000180140B1
:1039600008B50121042001F0BFF90121102001F068
:10397000BBF91020ADF800008DF8030003208DF88E
:10398000020069460848FFF7DBF80220ADF80000A6
:1039900069460648FFF7D4F8012005490860054943
:1039A000C1F8900108BD000000080140001001406E
:1039B000840122420000214270B504461448006888
:1039C00020F47020124908600846006840F4403036
:1039D000086000200F490860002516E0E0090E4944
:1039E00008606006040E022003F0DFFB01200B4993
:1039F000C1F88401022003F0D8FB002005490860CB
:103A0000022003F0D2FB681CC5B2082DE6DB70BDB6
:103A1000000801408401224290012142000022421C
:103A200010B50F48006820F470200D490860084662
:103A3000006840F44030086001200A4908600A49E3
:103A4000C1F88401042003F0B0FB002005490860A0
:103A5000042003F0AAFB00200349C1F8840110BD33
:103A600000080140900121420000224210B50F4899
:103A7000006820F470200D4908600846006840F492
:103A80004030086000200A4908600A49C1F89001E6
:103A9000042003F08AFB0120054908600549C1F8AC
:103AA0009001042003F081FB10BD000000080140DC
:103AB000840122420000214210B50024134800680E
:103AC00020F47020114908600846006840F4002086
:103AD000086001200E49086003F067FB01200D49D2
:103AE000C1F8840103F061FB07E0601CC4B2FA2C4A
:103AF00003DDFFF7BBFF012010BD054880380068DB
:103B00000028F2D10449086000BFF5E70008014031
:103B100090012142000022428401224210B500207F
:103B20000349086000224021902001F091F810BD67
:103B30008C01234210B50446012004490860224646
:103B40004021902001F084F810BD00008C01234238
:103B500010B5002004490860FFF702FF0022402151
:103B6000902001F075F810BD8C01234208B50121A9
:103B70007C2001F0B9F84FF4C050ADF800004820A7
:103B80008DF8030069461648FEF7DAFF2020ADF8ED
:103B9000000048208DF8030069461248FEF7D0FF68
:103BA0000420ADF8000048208DF8030069460E4857
:103BB000FEF7C6FFFB20ADF8000048208DF803009B
:103BC00069460A48FEF7BCFF4FF60170ADF80000E9
:103BD00048208DF8030069460548FEF7B1FF08BD8F
:103BE00000080140000C0140001001400014014099
:103BF0000018014008B50121102001F075F83020AF
:103C0000ADF8000010208DF8030003208DF80200AD
:103C100069460448FEF794FF30210248FFF766F832
:103C200008BD000000100140F8B507460D461646D5
:103C30001C4610208DF8000002208DF801000020A5
:103C40008DF8020001208DF80300684600F0D0F8DE
:103C50000121084601F028F83846FDF703F8174817
:103C600004801748056046600020154988600846B2
:103C7000C460002008618020486100208861C8611C
:103C800008624FF480504862002088623846FDF791
:103C9000AEF8012202210B48FDF7A0F801210A48E5
:103CA00002F038FC01213846FCF7D0FF4FF4001039
:103CB000FCF7BEFF034800F009F8F8BDB80100208A
:103CC000640900206C0002400044004010B5044626
:103CD00000212046FCF7BAFF044801882046FDF782
:103CE000A4F801212046FCF7B1FF10BDB801002067
:103CF00000BFFEE738B5002401217C2000F0F4FF6E
:103D000010208DF8030003208DF802008224ADF806
:103D1000004069462648FEF713FF21462448FEF777
:103D2000E3FF9824ADF8004069462248FEF708FFFB
:103D300021462048FEF7D8FF42F28134ADF800401A
:103D400069461D48FEF7FCFE21461B48FEF7CCFFE6
:103D50004224ADF8004069461848FEF7F1FE2146BE
:103D60001648FEF7C1FF4FF4E054ADF80040694635
:103D70001148FEF7E5FE21460F48FEF7B5FF042483
:103D8000ADF8004069460E48FEF7DAFE21460C48C1
:103D9000FEF7AAFF0120ADF8000018208DF80300FF
:103DA00003208DF8020069460148FEF7C9FE38BDC0
:103DB00000080140000C01400010014000180140C3
:103DC0000014014010B5482001F036FA242001F01B
:103DD00093FE242001F04AFD482002F06FF82420D1
:103DE00001F0A2FF242001F007FC10BD7047000085
:103DF00070B5002100230F22C47804B3154C246849
:103E000004F4E064C4F5E064210AC1F10403CA408B
:103E1000447804FA03F184781440214309010E4CDC
:103E20000678A155047804F01F050124AC400578FC
:103E30006D11AD0005F1E025C5F8004109E00478F9
:103E400004F01F050124AC40044D0678761145F8B6
:103E5000264070BD0CED00E000E400E080E100E0F1
:103E600002490143024A1160704700000000FA0550
:103E70000CED00E0094A50701278824205D1074AE1
:103E8000127F521C054B5A7702E00022034B5A77EF
:103E90000022024BDA701A4611707047E0030020CE
:103EA0000B4A50701278824207D1094A92F82320B7
:103EB000521C074B83F8242003E00022044B83F8B4
:103EC00024200022024B9A701A461170704700009D
:103ED000000400200B4A50701278824207D1094A30
:103EE00092F82820521C074B83F8292003E0002277
:103EF000044B83F829200022024B9A701A46117055
:103F0000704700002804002010B500F013F800F0FE
:103F1000EFFB00F017FC00F037FC00F0BFFB00F0F7
:103F200091FB00F0CBFC00F06FFC00F095FC00F082
:103F300002F810BD7047704706480078012808D184
:103F400005480078FF2804D203480078401C024945
:103F500008707047260200201902002010B50024C6
:103F60001A480078012830D1FCF780F90446184837
:103F7000007820B116480078401E15490870144892
:103F80000078F8B913480078E0B900F0F9FC12485D
:103F90001249097850F82100114908600F4800784B
:103FA0001049097888420DD00D480068806B401C8C
:103FB0000B49096888630C480068401C0A4908607E
:103FC000FCF773F92046FCF755F910BD26020020D6
:103FD000190200201A02002098C800201C020020AC
:103FE000340200201B0200200002002010B5002433
:103FF0000B480078012811D1FCF738F9044609482C
:10400000007840B908480078FF2804D206480078B4
:10401000401C054908702046FCF72CF910BD000033
:1040200026020020190200201A02002010B50024E8
:1040300013480078012821D1FCF718F904461148EB
:104040000078C0B10F480078401E0E49087008463D
:10405000007860B90C48007828B92046FCF70AF9C6
:1040600000F054FC0AE02046FCF704F906E0204684
:10407000FCF700F902E02046FCF7FCF810BD000058
:10408000260200201A0200201902002010B50B4859
:10409000007890B900F074FC09480078094908706C
:1040A00009480749097850F821000849086008467E
:1040B000006807490860FCF7E0F810BD2602002000
:1040C0001C0200201B02002098C80020340200209F
:1040D0002C020020704700002DE9FE4F06460F46D7
:1040E00090461C464FF00009FCF7C0F881461F4877
:1040F000007828B14846FCF7BDF83C20BDE8FE8FAB
:104100001B4850F8240060BB0120194941F82400E5
:104110004846FCF7AFF8002342463946304600F0E7
:1041200009F982460020009001900346024651465C
:104130000290204600F03AFC054635B90D4800785B
:1041400001280CD100F0E2FB09E0FCF78FF8814672
:104150000020074941F824004846FCF78BF8284620
:10416000CCE74846FCF786F82820C7E7190200206C
:1041700098C80020260200202DE9F04F85B0814626
:104180008A4693461C46DDE90F78129D0020039075
:10419000FCF76CF803902348007830B10398FCF7E3
:1041A00069F83C2005B0BDE8F08F1F4850F82400A6
:1041B00088BB01201C4941F824000398FCF75AF8F9
:1041C0002A464146384600F001FD2B465A465146E4
:1041D000484600F0AFF804901198CDE900800295B0
:1041E0003A4620460E9B049900F0E0FB064636B99D
:1041F0000E48007801280CD100F088FB09E0FCF79C
:1042000035F803900020084941F824000398FCF792
:1042100031F83046C6E7FFE70398FCF72BF8282073
:10422000C0E700001902002098C8002026020020E4
:10423000704770472DE9F04106460F4614464FF08F
:1042400000081548007818B112202070BDE8F081F0
:10425000FCF70CF88046FF2E03D11048006890F858
:1042600032600F4850F826502DB94046FCF702F84E
:1042700043202070EAE7012D05D14046FBF7FAFF05
:1042800043202070E2E7EF644046FBF7F3FF002095
:10429000207000BFDAE70000190200202C02002085
:1042A00098C80020704700002DE9F04707460D46EA
:1042B0004FF0000A002028606860FBF7D7FF8246B5
:1042C000FF2F03D11948006890F83270184850F851
:1042D00027402CB95046FBF7CDFF4320BDE8F087BF
:1042E000012C04D15046FBF7C5FF4320F6E7207CA4
:1042F00000F0010020B95046FBF7BCFF4520EDE778
:104300000026D4F80C90D4F808805046FBF7B2FF92
:1043100000E0761C58F8041B0029FAD0B000286091
:10432000A9EB0600800068600020D7E72C0200207F
:1043300098C8002070B5044610464FF0807505609F
:10434000051F28462C606FF00106051F28462E60C9
:104350004FF01236051F28462E604FF00336051F1A
:1043600028462E604FF00236051F28462E60761034
:10437000051F28462E60051F284629604FF011367C
:10438000051F28462E604FF01036051F28462E6068
:104390004FF00936051F28462E604FF00836051FDE
:1043A00028462E604FF00736051F28462E604FF036
:1043B0000636051F28462E604FF00536051F284695
:1043C0002E604FF00436051F28462E6070BD000099
:1043D0002DE9F04105464FF00008FBF747FF804606
:1043E000FF2D05D12048006890F83250012608E0E2
:1043F0001D48006890F83200A84201D1012600E073
:1044000000261A4850F825402CB94046FBF732FFE9
:104410004820BDE8F081012C04D14046FBF72AFF7B
:104420004320F6E794F834701148C05D94F83510D5
:1044300088430F49C8550846C05D30B994F8361016
:104440000C48007888430B49087094F8300040F01D
:10445000080084F830004046FBF70CFF012E01D124
:1044600000F054FA0020D4E72C02002098C8002065
:104470001E0200201D0200207047000070B5054696
:1044800000261748007800B170BD1648007800B1CA
:10449000FAE71DB3FBF7EAFE06461348006890F8FA
:1044A00034401248005D1049096891F8351088437E
:1044B0000E4908550846005D40B90B48006890F861
:1044C00036100B4800788843094908700648006890
:1044D000C5623046FBF7CEFE00F018FA00BFD3E706
:1044E000190200201A0200202C0200201E020020C7
:1044F0001D0200202DE9F04104460D4616461F46D8
:104500001248007810B15520BDE8F08110480078BD
:1045100008B13220F8E7B81CC82148434FF47A713B
:10452000B0FBF1F14FF461606043C5EB051200EBA5
:104530008200304400EBC00202EB001001EBC00827
:104540004046FFF79BFF0020DEE700001902002035
:104550001A02002070B5002600F072F8FBF786FE04
:10456000064631480068401C2F4908603046FBF77A
:1045700081FE2E480078012853D12D48007820B1C3
:10458000012804D0022809D103E001250BE0002511
:1045900009E0012501202649087004E001250020DA
:1045A0002349087000BF00BF05B970BD21480468E9
:1045B00033E0FBF75BFE0646E06A50B3E06A401E5C
:1045C000E062E06A28BB94F8300000F0370040B1A8
:1045D00014F8300F00F0C800207001206070303CEB
:1045E00002E0002084F8310094F8300000F0080068
:1045F00078B93434A0781049097808430E49087016
:1046000020780E49085C6178084314F834190B4A85
:10461000505464693046FBF72DFE94F832003F2871
:10462000C7D100BFC1E700004402002026020020DD
:104630003C020020380200201D0200201E02002043
:10464000704700002DE9F0415021114800F02CF98D
:1046500000250DE0681C86B20D4800EB051400EB48
:1046600006170020207067600AA0E060681C85B211
:10467000042DEFD3064800EB051400202070606085
:1046800004A0E060024804490860BDE8F081000031
:1046900048C400203F0000000802002070B5C82177
:1046A000114800F001F900230FE0581C85B203EB1C
:1046B00083000D4901EB800405EB850001EB8006CA
:1046C000002020706660581C83B2092BEDD303EBE9
:1046D0008300054901EB80040020207060600846DB
:1046E0000249086070BD000080C300200402002061
:1046F00000200A4908600A4908700A4908700A49F6
:1047000008700A4908700A4908600A4908600A499D
:1047100008600A4908600A4908707047440200208E
:10472000190200201A020020270200202602002081
:1047300000020020280200201402002010020020A5
:104740001802002000210A4A1170002004E0002114
:10475000084A1154411CC8B20828F8D30021064A5F
:104760001170064A1170064A1160064A11607047BE
:104770001D0200201E0200201B0200201C0200203F
:10478000340200202C02002070B54FF47C711948CF
:1047900000F08AF84FF48071174800F085F8002483
:1047A00013E0601CC5B2C4EBC40000EB400011492B
:1047B00001EB8003C5EBC50000EB400001EB800678
:1047C0005E610EA0D864601CC4B20B2CE9D3C4EBAC
:1047D000C40000EB4000074901EB80030020586152
:1047E00006A0D86400200649086002480549086010
:1047F00070BD000098C9002098C800203F0000004C
:10480000380200203002002000B587B003200021CC
:1048100080220A4BCDE90132CDE903104FF6FF703B
:104820003F23074A00900748FFF7A6FC06AA06A107
:104830003F20FFF7FFFC07B000BD000098C6002036
:1048400094C80020E14A000875432F4F532D494971
:104850002049646C6500000000B587B0032000218A
:1048600080220A4BCDE90132CDE903104FF6FE70EC
:104870003E23074A00900748FFF77EFC06AA06A1E0
:104880003E20FFF7D7FC07B000BD000098C4002011
:1048900094C60020094B000875432F4F532D4949FA
:1048A000205374617400000004E0002200F8012B22
:1048B0004A1E91B20029F8D1704700002DE9F0415D
:1048C00078211048FFF7F0FF00240DE0601C86B24D
:1048D00004EB44000B4901EBC00506EB460001EB7D
:1048E000C0072F60601C84B2042CEFD304EB44009B
:1048F000044901EBC0050020286008460249086011
:10490000BDE8F08188CD00204002002010B50024D1
:10491000FBF7ACFC044613480078F8B9124800785D
:10492000E0B900F02DF811481149097850F821003C
:10493000104908600E4800780F49097888420DD068
:104940000C480068806B401C0A49096888630B4862
:104950000068401C09490860FBF7A0FC2046FBF7F3
:1049600089FC10BD190200201A02002098C80020FE
:104970001C020020340200201B0200200002002044
:104980000649074A1278885C0649095C034A515C6B
:1049900001EBC001044A117070470000F89500084F
:1049A0001D0200201E0200201C0200202DE9F84FED
:1049B00005460F4690469946DDE90AAB0020009077
:1049C000FBF754FC00903F480468002C74D0183466
:1049D00054F8040C3B4908600098FBF74BFC44F882
:1049E000187CA576002020766076606144F814BCBF
:1049F00044F80CAC44F8108C0C9824F8080C24F8FB
:104A0000069C0020E077E810207705F00700E076AC
:104A1000217F01208840A077E17E012088406077D7
:104A200000206060E060A0602062A0626062E062DE
:104A3000206325A06063183C002606E0002104F1F5
:104A4000500040F82610701CC6B2002EF6D020464A
:104A5000FFF740FB2046FFF7EBFBFBF707FC00905E
:104A60001A4840F825401A48006860610020A0619B
:104A70001748006810B11648006884611448046043
:104A80003434A07813490978084312490870207813
:104A90001149085C6178084314F834190E4A5054DF
:104AA0000E480078401C0D4908700098FBF7E2FBA7
:104AB0000020BDE8F88FFFE70098FBF7DBFB422002
:104AC000F7E70000300200203F00000098C80020F7
:104AD000380200201D0200201E02002027020020B4
:104AE000002400BF00BFFBF7C1FB04460548006877
:104AF000401C044908602046FBF7BCFBFFF799FB0C
:104B0000F1E7000028020020002400BF02E0282076
:104B1000FFF7B4FC194800780028F8D0184800685E
:104B20006421B0FBF1F0164908600846006828B916
:104B3000002014490870FF20FFF74AFC00BFFBF774
:104B400095FB0446104800681049086000200E4993
:104B500008602046FBF78EFB0C480068084909688E
:104B6000B0FBF1F0C0F1640006490870FFF79AFB52
:104B700000F00EF81420FFF781FCE0E71802002097
:104B8000100200200C020020280200201402002045
:104B90007CB5002514E069462846FFF785FB0646EC
:104BA00066B9094850F8254044B1012C06D0D4E933
:104BB000020100EB810060640198A064681CC5B22A
:104BC0003F2DE8D97CBD000098C8002002F0010309
:104BD00043B102F002032BB102E0491E002308C0DA
:104BE0000029FAD1704700002DE9FC474FF0000A78
:104BF00001F090FD0FFA80FAAAF5CD700FFA80FA55
:104C0000BAF1000F17DD504603F0B8FF0646002248
:104C10000A4B03F05BFE04460022094B03F0C6FF7B
:104C200080460022074B03F0C1FFCDE9000103F0ED
:104C30001BFEBDE8FC870020FBE700000000B04041
:104C40000000F43F00408F4010B501F07BFD10BD27
:104C500070B506460C461546FEF7E2FE3046FEF7F6
:104C6000ABFEFEF729FF2046FEF7A6FEFEF724FF67
:104C70002846FEF7A1FEFEF71FFFFEF7F7FE012014
:104C800070BD0000012001490870704758040020E1
:104C900001460020034A506820F440400843506019
:104CA000704700000010024029B1064A52690243D1
:104CB000044B5A6104E0034A52698243014B5A6132
:104CC000704700000010024029B1064AD269024331
:104CD000044BDA6104E0034AD2698243014BDA6192
:104CE000704700000010024029B1064A9269024351
:104CF000044B9A6104E0034A92698243014B9A6132
:104D0000704700000010024029B1064AD2680243F1
:104D1000044BDA6004E0034AD2688243014BDA6054
:104D2000704700000010024030B50021002200242E
:104D300000232D4D6D6805F00C0121B1042905D02B
:104D4000082923D105E0294D056022E0274D0560A3
:104D50001FE0254D6D6805F47012234D6D6805F454
:104D60008034022505EB92421CB9214D5543056064
:104D70000BE01D4D6D6805F400351DB11C4D55430C
:104D8000056002E0194D5543056002E0174D0560CE
:104D900000BF00BF144D6D6805F0F0010909154D05
:104DA0006B5C0568DD4045600F4D6D6805F4E061A2
:104DB000090A104D6B5C4568DD4085600A4D6D68E1
:104DC00005F46051C90A0B4D6B5C4568DD40C56058
:104DD000054D6D6805F44041890B074D6B5CC56856
:104DE000B5FBF3F5056130BD0010024000127A00FA
:104DF00000093D00EC010020FC01002008B5012164
:104E00004020FFF771FF3C20ADF8000010208DF826
:104E1000030003208DF8020069460848FDF790FE64
:104E20000020074908600749C1F88C01044908318E
:104E300008600449C1F8940108BD00000018014051
:104E40008801234200002342024909888143014A24
:104E5000118070470428004001460020064A12884D
:104E60000A40D0B2044A121F12880A4012B108B197
:104E7000012000E0002070470428004010B5012008
:104E8000FFF7EAFF20B10120FFF7DEFF00F00AF88C
:104E90000220FFF7E1FF20B10220FFF7D5FF00F06D
:104EA00001F810BD00BF0348008800F02000002872
:104EB000F9D07047042800401B48008800F418709F
:104EC00058B11948008820F418701749088017480D
:104ED000C07816490870002088701348008800F0D8
:104EE000900058B11048008820F090000E490880CA
:104EF0000F48C0780E490870002088700A48008862
:104F000000F4807058B10848008820F48070064989
:104F1000088008488078074908700020C87006207B
:104F200005490870704700005A0400200004002062
:104F300028040020E0030020580400200020044939
:104F4000C8700846407F0877084640780870704768
:104F5000E0030020002005498870084690F82400EE
:104F600081F823000846407808707047000400204C
:104F7000002005498870084690F8290081F828002B
:104F800008464078087070472804002002200B492A
:104F900048700846007A087002200949C870082045
:104FA000087002200749887007200870022006490F
:104FB000887008700620054908707047C0030020FB
:104FC000E0030020000400202804002058040020F2
:104FD00070B505461021002002F0D4F904460CB348
:104FE000284601F05FFE60B9B5F1004F05D92146B2
:104FF000002002F0B5F9002070BD284602F036FA14
:1050000005462946002002F0BDF92060206828B935
:105010002146002002F0A4F90020EDE765600020A1
:10502000E060A0602046E7E7704710B500F002F8A6
:1050300010BD00000CB500200190009033480068BE
:1050400040F480303149086000BF3048006800F407
:10505000003000900198401C0190009818B9019808
:10506000B0F5A06FF1D12948006800F4003010B10C
:105070000120009001E0002000900098012843D119
:105080002348006840F01000214908600846006885
:1050900020F0030008600846006840F00200086045
:1050A0001A48406819494860084640684860084600
:1050B000406840F4806048600846406820F47C10F6
:1050C00048600846406840F4E810486008460068B8
:1050D00040F08070086000BF0C48006800F000706D
:1050E0000028F9D00948406820F0030007494860CB
:1050F0000846406840F00200486000BF034840682E
:1051000000F00C000828F9D10CBD0000001002408E
:105110000020024010B501F03FF9042805D101F04C
:10512000D5F808B1FBF792FC10BD01F035F9032862
:1051300000D1F9E7052012490870084600780528D3
:105140001CD100200F498876487005200870002087
:105150000D490877C8700720087000200B4981F8B6
:1051600023008870072008700020094981F8280072
:1051700088700820087006200149087000BFD3E736
:1051800058040020C0030020E00300200004002099
:1051900028040020042808D14FF0E021096941F0DB
:1051A00004014FF0E022116107E04FF0E0210969AE
:1051B00021F004014FF0E0221161704710B505485D
:1051C0000078012805D1FEF7B7FEFFF7C3F9FEF717
:1051D000C5FE10BD2602002010B51348006840F03F
:1051E00001001149086008464068104908400E490E
:1051F0004860084600680E4908400B4908600846A8
:10520000006820F4802008600846406820F4FE0012
:1052100048604FF41F008860FFF707FF4FF0006001
:105220000449086010BD0000001002400000FFF8B3
:10523000FFFFF6FE08ED00E010B58AB0044601213C
:10524000C802FFF751FD01210420FFF74DFD0121A8
:105250000846FFF749FD01213148FDF7FDFC3148C3
:1052600090FBF4F03049C8624FF48070ADF8240030
:1052700018208DF8270003208DF8260009A92B4857
:10528000FDF75EFC4FF47A70ADF81C00601E80B232
:10529000ADF818000020ADF81E00ADF81A008DF82A
:1052A000200006A9224800F0BFFF01221146204835
:1052B00000F056FF01211E4800F020FF7020ADF8DD
:1052C00008000020ADF810000120ADF80A004FF4EE
:1052D000FA70ADF80E0002A9154800F04BFF082146
:1052E000134800F093FF0121114800F0FBFE192044
:1052F0008DF8040001208DF8050000208DF80600CF
:1053000001208DF8070001A8FEF772FD0121084871
:1053100000F006FF0021064800F0F6FE0AB010BDBE
:105320000002300000A24A042C00002000080140C6
:10533000002C014010B501214E4800F000FF00286C
:1053400042D001214B4800F0DCFE4B48807828B960
:105350004948406A401C4849486204E04648406A5F
:10536000401E454948624448806A401C4249886260
:1053700008464069896A884207D800213D4800F004
:10538000C3FE00203C49487010BD3B48006A3A49C2
:10539000496A884207DC0021364800F0B5FE00204B
:1053A00035494870F0E73448407802280DD132483A
:1053B000C188304800F033FF2F48C48804EBD47014
:1053C00041102C4800F02DFF51E02B484078012877
:1053D0004DD12948806A2849C969884215D826488C
:1053E000006B254A926A30F81210224800F017FF2D
:1053F0002148006B204A926A30F8124004EBD470C6
:1054000041101C4800F00DFF31E01B4840691A496B
:10541000C969401A1849896A88421BD816484069E8
:10542000154A926A801A144A126B32F81010114809
:1054300000F0F5FE104840690F4A926A801A0E4A41
:10544000126B32F8104004EBD4704110094800F0A0
:10545000E8FE0CE00848C188064800F0E0FE064877
:10546000C48804EBD4704110024800F0DAFE00BF9B
:105470008AE70000002C01402C00002010B502211A
:10548000480700F05CFE002859D00221480700F0D0
:1054900038FE57480078401C55490870087800EBE2
:1054A000D0714910A0EB4101514A117010460078AB
:1054B00078BB5048807828B94E48406A401C4D4916
:1054C000486204E04B48406A401E4A4948624948E5
:1054D000806A401C4749886208464069896A884258
:1054E00008D800214FF0804000F00EFE0020414916
:1054F000487010BD3F48006A3E49496A884209DC4D
:1055000000214FF0804000F0FFFD00203949487035
:10551000EFE7FFE737484078022811D14007808C39
:105520003449C98808444FF6FF7190FBF1F201FB42
:10553000120084B221464FF0804000F072FE55E028
:105540002C484078012851D12A48806A2949C969E4
:10555000884216D82748006B2649896A30F811001E
:105560004FF08041898C08444FF6FF7190FBF1F2B7
:1055700001FB120084B221464FF0804000F051FE42
:1055800034E01C4840691B49C969401A1949896AB5
:10559000884219D8174840691649896A401A15493E
:1055A000096B31F810004FF08041898C08444FF6A8
:1055B000FF7190FBF1F201FB120084B221464FF023
:1055C000804000F02EFE11E04FF08040808C0949B1
:1055D000C98808444FF6FF7190FBF1F201FB1200FD
:1055E00084B221464FF0804000F01BFE00BF80E7F0
:1055F000CB0100202C01002010B58AB00446012107
:105600000846FFF761FB01210520FFF76DFB012133
:105610002F48FDF721FB01212E48FDF71DFB2E48E9
:1056200090FBF4F02D49C8624FF40040ADF804003F
:1056300018208DF8070003208DF8060001A92848DE
:10564000FDF77EFA4FF6FF70ADF82000601E80B2C5
:10565000ADF81C000020ADF82200ADF81E0007A92F
:105660004FF0804000F0E0FD3020ADF80C004FF42A
:10567000FA70ADF812000120ADF80E000020ADF870
:1056800014004FF48070ADF818000020ADF81A0037
:1056900003A94FF0804000F06DFD00214FF08040E5
:1056A00000F0B4FD01220221480700F059FD1C2042
:1056B0008DF8080001208DF8090000208DF80A00FF
:1056C00001208DF80B0002A8FEF792FB0AB010BD76
:1056D0000003180000023000005125022C010020B8
:1056E0000008014010B502215C4800F028FD0028A8
:1056F0005DD00221594800F004FD59480078401C53
:1057000057490870087800EBD0714910A0EB4101AF
:10571000534A117010460078002833D151488078E0
:1057200028B95048406A401C4E49486204E04D4840
:10573000406A401E4B4948624A48806A401C4949B9
:10574000886208464069896A88420AD8002143482D
:1057500000F0DAFC0120444908600020414948700B
:1057600010BD4048006A3F49496A88420ADC00216E
:105770003A4800F0C9FC01203B4908600020394943
:105780004870EDE737484078022811D1334824307B
:1057900000883449C98808444FF6FF7190FBF1F244
:1057A00001FB120084B221462C4800F03AFD52E081
:1057B0002C48407801284ED12A48806A2949C96975
:1057C000884215D82748006B2649896A30F81100AD
:1057D00022492431098808444FF6FF7190FBF1F209
:1057E00001FB120084B221461C4800F01AFD32E091
:1057F0001C4840691B49C969401A1A49896A88428C
:1058000018D8184840691749896A401A1549096B20
:1058100031F8100011492431098808444FF6FF710E
:1058200090FBF1F201FB120084B221460B4800F01C
:10583000F8FC10E00948243000880A49C988084467
:105840004FF6FF7190FBF1F201FB120084B221468A
:10585000024800F0E6FC00BF82E7000000040040C0
:10586000CC010020AC0000209C01234210B58AB07E
:10587000044601210220FFF727FA01210520FFF746
:1058800033FA274890FBF4F02649C8624020ADF86F
:10589000040018208DF8070003208DF8060001A9E8
:1058A0002148FDF74DF94FF6FF70ADF82000601E5E
:1058B00080B2ADF81C000020ADF82200ADF81E004B
:1058C00007A91A4800F0B0FC3020ADF80C004FF4E6
:1058D000FA70ADF812000120ADF80E000020ADF80E
:1058E000140003A9114800F045FC00210F4800F006
:1058F0008DFC012202210D4800F032FC1D208DF8A4
:10590000080001208DF8090000208DF80A00012010
:105910008DF80B0002A8FEF76BFA0AB010BD00006C
:1059200000512502AC0000200008014000040040A6
:1059300010B50221654800F002FC002874D0022155
:10594000624800F0DEFB62480078401C6049087045
:10595000087800EBD0714910A0EB41015C4A11704E
:1059600010460078002836D15A48807828B959481E
:10597000406A401C5749486204E05648406A401E4D
:10598000544948625348806A401C5249886208461C
:105990004069896A884207D800214C4800F0B4FB6E
:1059A00000204C49487010BD4A48006A4949496A7C
:1059B000884210DC0021454800F0A6FB0020454944
:1059C00048700120444981F82E004248416A43A0B2
:1059D000FAF7A8FCE7E74048007806280FD13E48D0
:1059E00090F8280058B943480068012807D00021E2
:1059F000364800F089FB002036494870D3E7354827
:105A00004078022811D13148243000883149C988B2
:105A100008444FF6FF7190FBF1F201FB120084B2D3
:105A200021462A4800F0FDFB4EE02A48806A2949B9
:105A3000C969884215D82748006B2649896A30F819
:105A4000110022492431098808444FF6FF7190FB68
:105A5000F1F201FB120084B221461C4800F0E1FB88
:105A600032E01C4840691B49C969401A1949896AD2
:105A7000884218D8174840691649896A401A15495A
:105A8000096B31F8100011492431098808444FF698
:105A9000FF7190FBF1F201FB120084B221460B482A
:105AA00000F0BFFB10E00948243000880949C9888C
:105AB00008444FF6FF7190FBF1F201FB120084B233
:105AC0002146024800F0ADFB00BF6CE70008004033
:105AD000CD0100206C0100202804002066756C6C4C
