:020000040800F2
:1000000040D400202D020008293600087131000874
:10001000453500084B0A0008075D00080000000095
:100020000000000000000000000000001D48000863
:100030004B0D000800000000BB0200084949000801
:100040004702000847020008470200083947000835
:1000500047020008470200084D0D0008470200084B
:1000600047020008250F0008470200084702000861
:10007000470200084702000847020008470200083C
:10008000210B000847020008470200084702000849
:10009000470200084702000847020008710F0008E5
:1000A00047020008C14A000847020008470200084A
:1000B000094C0008714E0008BD50000847020008B6
:1000C00047020008470200084702000847020008EC
:1000D00047020008CD5A00084702000847020008FE
:1000E000A50D000847020008470200084702000863
:1000F000DD560008470200084702000847020008D2
:10010000470200084702000835530008470200086C
:10011000470200084702000865550008AD55000871
:10012000470200084702000847020008470200088B
:1001300000F002F800F06BF80AA090E8000C82448E
:100140008344AAF10107DA4501D100F060F8AFF26B
:10015000090EBAE80F0013F0010F18BFFB1A43F0A5
:10016000010318470C8E00002C8E00000A444FF04B
:10017000000C10F8013B13F0070408BF10F8014B06
:100180001D1108BF10F8015B641E05D010F8016B4B
:10019000641E01F8016BF9D113F0080F1EBF10F8AF
:1001A000014BAD1C0C1B09D16D1E58BF01F801CBD2
:1001B000FAD505E014F8016B01F8016B6D1EF9D555
:1001C0009142D6D37047000000230024002500266A
:1001D000103A28BF78C1FBD8520728BF30C148BFAA
:1001E0000B607047642900F0F980752900F0F680F3
:1001F000782900F02F81632900F0B582732900F07F
:10020000BA82002070471FB51FBD10B510BD00F0A9
:10021000EDFA1146FFF7F7FF06F05AF800F00BFB76
:1002200003B4FFF7F2FF03BC05F096FD09488047D1
:1002300009480047FEE7FEE7FEE7FEE7FEE7FEE7C8
:10024000FEE7FEE7FEE7FEE704480549054A064BE0
:1002500070470000654900083101000840CE0020C9
:1002600040D4002040D0002040D00020EFF3108088
:1002700072B6704780F310887047204C204D25607F
:100280004FF0000484F309881E4C4FF001052570DF
:100290001D4C4FF08055256062B6FEE730B41A4C15
:1002A0004FF08055256030BC704730B4164C4FF08D
:1002B0008055256030BC704700BF72B6EFF30980EF
:1002C00028B1203880E8F00F10490968086000B5AF
:1002D0000F4880475DF804EB0E480F490A7802701A
:1002E0000A480E490A680260106890E8F00F203052
:1002F00080F309884EF0040E62B6704720ED00E0EE
:100300000000FFFF2602002004ED00E02C02002088
:10031000B53C00081B0200201C0200203402002013
:10032000704700000FB4044910B503AA029800F00A
:1003300027FA10BC5DF814FBC401002070B5044618
:1003400085690068C10601D5302600E02026C00777
:1003500007D070BDD4E9012130469047206A401C87
:1003600020626D1EF6D570BD70B5044685690078B3
:10037000C00707D170BDD4E9012120209047206A31
:10038000401C20626D1EF6D570BD70B50C4605464A
:10039000012A05D02878800600D5EA69002302E00A
:1003A000012305E05B1C934202D2E05C0028F9D1F6
:1003B000A869E618C01AA861286A18442862284665
:1003C000FFF7BCFF04E0D5E9012114F8010B9047C9
:1003D000B442F8D32846FFF7C7FF70BD2DE9F041BE
:1003E0000646002410687529314616A510D0AFF3D3
:1003F0000080002802DA404213A507E031688A072E
:1004000001D512A502E0490704D511A5012401E098
:10041000AFF3008000210A2206F1240709E0B0FBB7
:10042000F2FCB0FBF2F302FB1C00303078541846AB
:10043000491C0028F3D123462A463046BDE8F04146
:1004400000F02EB9000000002D0000002B0000007D
:100450002000000070B504460D4621461068AFF339
:1004600000802188090502D50F4A7A4402E00E4A2D
:100470007A440E32002104F1240305E000F00F0657
:100480000009965D5E54491C0028F7D120780023AE
:10049000000704D5702D02D009B102231132204685
:1004A000BDE8704000F0FCB8AA8800002DE9F05FBC
:1004B000894604464FF0000ADFF874B1FB44C0F8E7
:1004C00020A02046E1688847002874D0252806D05F
:1004D000D4E901219047206A401C2062F1E7002600
:1004E0005F462046E16888472028054607DB312D16
:1004F00005D2781910F8200C08B10643F1E7B007CF
:1005000001D526F00406C4F81CA00027C4F818A0E2
:100510002A2D09D0284605F018FC38B304EB8708CB
:10052000303DC8F8185019E059F8041B204604EB78
:1005300087029161E1688847012F054618D1E0697B
:10054000002820DA26F020061DE0D8F8180000EB7D
:10055000800005EB40003038C8F818002046E168FC
:100560008847054605F0F1FB0028EED1012F0AD09F
:100570002E2D08D12046E16888477F1C0546022FB2
:1005800046F02006C4DBA069002803DA404246F0AA
:100590000106A061F00701D026F010066C2D0BD0EB
:1005A000682D09D04C2D39D06A2D35D0742D35D019
:1005B0007A2D33D016E038E0E1682F462046884790
:1005C000B842054609D16C2F26D04FF48060E1680F
:1005D000064320468847054604E06C2F1AD04FF4A6
:1005E000807006430DB3A5F14100192802D82035CB
:1005F00046F400664A462946204626604E46FFF7E6
:10060000F1FD80B101280BD0F61D26F0070000F1A6
:10061000080956E74020E4E78020D8E70020D6E725
:1006200006F104094DE7284652E7206ABDE8F09F2D
:10063000808800004FF0000200B5134694469646AD
:10064000203922BFA0E80C50A0E80C50B1F12001E5
:10065000BFF4F7AF090728BFA0E80C5048BF0CC093
:100660005DF804EB890028BF40F8042B08BF7047F1
:1006700048BF20F8022B11F0804F18BF00F8012B63
:100680007047704770477047704710B500F08AF8A0
:10069000006810BD10B5044600F084F8046010BD79
:1006A0002DE9F0470D4699469246044600F124088C
:1006B0000168880604D5E06921F01001216000E09E
:1006C0000120A84201DD471B00E00027A1697A193B
:1006D00002EB0900081AA0612078C00602D4204667
:1006E000FFF72CFE002608E0D4E901211AF80600E5
:1006F0009047206A401C761C20624E45F4DB20782F
:10070000C0060AD52046FFF719FE06E0D4E901210C
:1007100030209047206A401C2062381EA7F1010754
:10072000F4DC07E0D4E9012118F805009047206ABD
:10073000401C2062281EA5F10105F3DC2046FFF7CE
:1007400013FE2078000602D50220BDE8F0870120C4
:10075000FBE710B5436913B1AFF3008001E0FFF789
:1007600014FE012010BD127800F124010A7000224D
:100770004A700122EDE711684FF0FF32E9E700000F
:10078000074B70B50D467B4400F015F8044628462B
:1007900000F024F810B14FF0FF3070BD204670BD5E
:1007A0003F5A000000487047E0CD002001694A1C14
:1007B00002610878704700B58FB0CDE901310021A2
:1007C000059105497944CDE9031011466846FFF7C4
:1007D0006DFE0FB000BD0000E5FFFFFF007B00F0E5
:1007E0008000704700487047E0CD00207546FFF755
:1007F000F9FFAE4605006946534620F007008546DE
:1008000018B020B5FFF720FDBDE820404FF00006EE
:100810004FF000074FF000084FF0000B21F00701E8
:10082000AC46ACE8C009ACE8C009ACE8C009ACE82B
:10083000C0098D46704710B50446AFF300802046CE
:10084000BDE81040FFF7ECBC21B1826842F0010224
:10085000826003E0826822F001028260704700003B
:1008600010B504461248844208D10121401503F016
:10087000A9FE0021601503F0A5FE17E00D48844293
:1008800008D10121001503F09DFE0021201503F081
:1008900099FE0BE00848844208D10121C80303F007
:1008A00091FE00214FF4004003F08CFE10BD0000CB
:1008B0000024014000280140003C01400146002086
:1008C0008A6802F004020AB1012000E000207047AB
:1008D0000146C86C80B270470246002013680B4086
:1008E0000BB1012000E000207047014600208A681B
:1008F00002F008020AB1012000E000207047000069
:1009000030B502460020002350680F4C20400D797E
:100910000C6844EA05242043506090680B4C20404A
:10092000D1E902542C434D7944EA450420439060B8
:10093000D06A20F470000C7C641EE4B2234340EAC9
:100940000350D06230BD0000FFFEF0FFFDF7F1FF65
:10095000F0B504460D4600200021092D11DDE068A8
:10096000A5F10A0606EB4607072606FA07F18843B3
:10097000A5F10A0606EB460603FA06F10843E06015
:100980000CE0206905EB4507072606FA07F18843C6
:1009900005EB450603FA06F108432061072A0FDA42
:1009A000606B561E06EB86071F2606FA07F1884382
:1009B000561E06EB860605FA06F10843606322E040
:1009C0000D2A0FDA206BD61F06EB86071F2606FAC4
:1009D00007F18843D61F06EB860605FA06F10843A1
:1009E000206310E0E06AA2F10D0606EB86071F26E1
:1009F00006FA07F18843A2F10D0606EB860605FA12
:100A000006F10843E062F0BD816841F008018160B1
:100A1000704721B1826842F4A002826003E08268DC
:100A200022F4A00282607047816841F00401816075
:100A3000704710B502F008FD03F03EFE02F09AFB8D
:100A400002F082FD02F0BCFC10BD00BFFEE700001A
:100A500012480078042812DC11480068012801D0EF
:100A6000012070470F488068406A0E49098A884211
:100A700012D00C488068407870B90120F1E709482D
:100A80008068406A0749098A884205D0054880681D
:100A9000407808B90120E4E70020E2E710040020D4
:100AA00008012242CC0300200A480068012809D12D
:100AB0000948006801280BD108484068407838B9D7
:100AC0000120704705484068407808B90120F8E7E0
:100AD0000020F6E7080122420C8122421004002087
:100AE00010B506480068012805D00021022000F05A
:100AF000B1FB002010BD0120FCE700000481224270
:100B000010B506480068012805D00021102000F02B
:100B1000A1FB002010BD0120FCE7000038012342AA
:100B200010B54FF4001000F0D1F850B14FF40010A0
:100B300000F00CF8FA210348FFF77CFD024802F0B0
:100B4000EFFC10BD700900206C00024000F08051E5
:100B500011B10349086001E0024948607047000094
:100B6000040402400000024021B1026842F0010288
:100B7000026004E002684FF6FE731A40026070479C
:100B800001684FF6FE721140016000210160416072
:100B90008160C1604B49884208D14A490839496897
:100BA00041F00F01474A083A51608AE04549143143
:100BB000884208D143490839496841F0F001414A67
:100BC000083A51607DE03F492831884208D13D49CB
:100BD0000839496841F470613A4A083A516070E056
:100BE00038493C31884208D136490839496841F4CE
:100BF0007041344A083A516063E0324950318842CA
:100C000008D130490839496841F470212D4A083A21
:100C1000516056E02B496431884208D1294908398E
:100C2000496841F47001274A083A516049E0254972
:100C30007831884208D123490839496841F0706108
:100C4000204A083A51603CE01F49884206D1011F02
:100C5000096841F00F01021F116032E01A49143196
:100C6000884208D11849091F096841F0F001164A65
:100C7000121F116025E014492831884208D1124919
:100C8000091F096841F470610F4A121F116018E0D2
:100C90000D493C31884208D10B49091F096841F4CC
:100CA0007041094A121F11600BE007495031884218
:100CB00007D10549091F096841F47021024A121F32
:100CC00011607047080002400804024001460020FD
:100CD000002201F0805313B1054B1A6801E0054B67
:100CE0001A6802EA01030BB1012000E000207047FE
:100CF00000040240000002401AB103680B43036085
:100D000002E003688B430360704710B5002202685D
:100D100047F6F0739A430C6A8B6823430C692343AC
:100D20004C6923438C692343CC6923434C6A234396
:100D30008C6A23431A430260CB6843600B6883606C
:100D40004B68C36010BD41607047704710B501200B
:100D500000F022FAC8B10D48807880B9642005F00F
:100D60004DF90B480068012809D10021800704F0E3
:100D700063FD084800690549486200204870012069
:100D800000F004FA04A0FFF7CDFA10BD2C010020FA
:100D900000812242100400206578746920310D0A18
:100DA0000000000010B541A0FFF7BCFA4FF48060CE
:100DB00000F0F2F9A8B1642005F020F93E4800687F
:100DC000012807D100213D4804F036FD00203C49B0
:100DD000486248703BA0FFF7A5FA4FF4806000F02E
:100DE000D5F94FF4006000F0D7F9B0B1C82005F094
:100DF00005F93148001D0068012807D00021354859
:100E000004F01AFD00203449486248704FF4006035
:100E100000F0BCF931A0FFF785FA4FF4805000F0E4
:100E2000BBF9D0B1642005F0E9F823480830006828
:100E300001280BD100212D4804F0FEFC01201E49A1
:100E40007431086000202A49486248704FF480508D
:100E500000F09CF927A0FFF765FA4FF4005000F06E
:100E60009BF9B0B1642005F0C9F813480C30006854
:100E7000012807D10021234804F0DEFC002022498C
:100E8000486248704FF4005000F080F91FA0FFF74F
:100E900049FA4FF4004000F07FF930B14FF40040C0
:100EA00000F074F91CA0FFF73DFA10BD6578746975
:100EB00031352D31300D0A0028012342002C01402C
:100EC0002C00002047455F73746172745F53656E38
:100ED0000D0A0000000C00406C00002047435F72C8
:100EE0006F745F53656E0D0A00000000000400403F
:100EF000AC00002047435F7665725F73656E0D0A34
:100F00000000000000340140EC00002045787469C6
:100F10002031330D0A000000657874692031350DE9
:100F20000A00000010B5082000F036F9A0B16420D6
:100F300005F064F809480068012807D100218007FE
:100F400004F07AFC0020064948624870082000F04E
:100F50001DF904A0FFF7E6F910BD00000C81224244
:100F60002C0100206578746920330D0A0000000010
:100F700010B5202000F010F9B0B1642005F03EF863
:100F80005D480068012809D10021800704F054FC65
:100F90005A4840695A49486200204870202000F0B1
:100FA000F5F858A0FFF7BEF9402000F0F5F8A8B119
:100FB000642005F023F85048001D0068012807D17F
:100FC0000021544804F038FC00205349486248701E
:100FD000402000F0DBF851A0FFF7A4F9802000F0DA
:100FE000DBF800283BD0642005F008F8434800787F
:100FF000072819DD40480830006801282CD04648F1
:10100000806AB0F5167F0BD90021424804F014FC29
:10101000002041494870886244A0FFF783F91BE033
:1010200046A0FFF77FF917E034480078062813D16F
:10103000324890F8240001280ED12F48083000686B
:10104000012809D00021334804F0F6FB0020324982
:1010500048703EA0FFF766F9802000F097F84FF443
:10106000807000F099F8F0B14FF4967004F0C6FF6C
:101070003A480078072812D13948006801280ED173
:101080003748001D0068012809D00021354804F0C8
:10109000D3FB00203449487034A0FFF743F94FF4E4
:1010A000807000F073F84FF4007000F075F808B32A
:1010B0004FF4967004F0A2FF28480078062803D069
:1010C00026480078072811D12548001D006801280E
:1010D0000CD10021234804F0AFFB002022494870C6
:1010E00026A0FFF71FF90120274908704FF4007070
:1010F00000F04CF810BD00001481224210040020C2
:101100002C010020474F485F656E645F73656E0D6C
:101110000A000000000800406C010020474F565FA5
:1011200073746172745F53656E0D0A00676C61734E
:10113000732073746F700D0A00000000676C617398
:1011400073206572726F720D0A000000474F565F80
:1011500067616C73735F73656E0D0A00B0030020E6
:1011600020012342002C01402C00002047455F64F1
:101170006F776E5F53656E200D0A000047455F75FF
:10118000705F53656E0D0A002B0000200149086056
:101190007047000014040140014600200022074B64
:1011A0001B6803EA0102054B14331B680B4013B1A3
:1011B0000AB1012000E00020704700000004014057
:1011C000002123498279002A3AD00A46126803682E
:1011D0009A430B461A600A1D126803689A430B1D56
:1011E0001A60027911440A6803681A430A60184AAF
:1011F0000832126803689A43154B08331A601A1DA7
:10120000126803689A43124B0C331A604279102A11
:101210000ED11A1F126803681A430D4B08331A6067
:101220001A1D126803681A43094B0C331A600DE04B
:101230000749427911440A6803681A430A6005E0C5
:10124000027911440A6803689A430A6070470000F3
:101250000004014070B504460D462A46214614A0FC
:10126000FFF760F8194805F005FD194805F002FD83
:10127000184805F0FFFC184805F0FCFC174805F07D
:10128000F9FC174805F0F6FC0020164988754870EF
:1012900008701549087688700870144981F8230091
:1012A00088700870124981F824008870087070BD39
:1012B000457272726F723A25642C4572726F725F5A
:1012C00073656E736F723A25640000002C00002075
:1012D000AC0000206C000020EC0000202C0100205D
:1012E0006C010020B0030020CC030020E8030020A4
:1012F0001004002008B50121302003F053F9FB2031
:10130000ADF8000048208DF803006946054801F05B
:10131000B9F90420ADF800006946034801F0B2F9BC
:1013200008BD0000001401400010014008B5012173
:10133000402003F037F94FF47F40ADF8000048201B
:101340008DF803006946024801F09CF908BD0000D1
:10135000001801401CB5FFF7CDFF0121084603F03E
:1013600021F900208DF8040001208DF806000021ED
:10137000032001F067F908208DF805000120009096
:101380006846FFF71DFF0321084601F05BF90820BE
:101390008DF8050000906846FFF712FF0521032035
:1013A00001F050F908208DF80500202000906846D3
:1013B000FFF706FF0621032001F044F908208DF80D
:1013C0000500402000906846FFF7FAFE0721032041
:1013D00001F038F90C208DF8050080200090684657
:1013E000FFF7EEFE1CBD0EB5FFF7A0FF012108467A
:1013F00003F0D8F800208DF8080001208DF80A00CD
:101400000D21042001F01EF908208DF8090080024A
:10141000019001A8FFF7D4FE0C21042001F012F97D
:1014200008208DF809004002019001A8FFF7C8FECE
:101430000B21042001F006F90C208DF809004FF46F
:101440000060019001A8FFF7BBFE0A21042001F013
:10145000F9F808208DF80900C001019001A8FFF7F4
:10146000AFFE0921042001F0EDF808208DF80900F5
:101470008001019001A8FFF7A3FE0821042001F0DC
:10148000E1F808208DF809004001019001A8FFF75C
:1014900097FE28208DF8000001208DF801008DF8BE
:1014A00002008DF80300684602F0C0F817208DF89E
:1014B000000001208DF8010000208DF802000120BD
:1014C0008DF80300684602F0B1F80EBD10B53C4837
:1014D0000078102871D2DFE800F00822256B3C0963
:1014E000111928373F4553616E6F66E0002034497B
:1014F000487048760876887008705EE000203049B1
:101500004870487608768870087056E02D48007854
:10151000082803DC0321082002F0CAF84DE003F09C
:1015200029F94AE003F026F947E027480078072820
:1015300009D125484078022805D10020204988702B
:1015400008760920087038E004210A2002F0B0F87B
:1015500033E003F00FF930E00020194988700B20C8
:1015600008702AE019480078082808D117488078C0
:10157000022804D10020124988700C2008701CE059
:1015800012480078092808D110488078022804D130
:1015900000200B4988700D2008700EE00948007883
:1015A000062804D10020064988700720087004E04E
:1015B00003F0E0F801E000E000BF00BF10BD000054
:1015C000CC030020E8030020B0030020100400201A
:1015D00010B59F480078102809D2DFE800F0089C79
:1015E000A5F0E3094998B9D0F1FDEDECEBEA2DE166
:1015F0009748007E28B996490878032102F058F8E8
:1016000035E09348007E012805D1914908780121F1
:1016100002F04EF82BE08E48007E02281FD18D4844
:101620000068012817D00020894989688870884996
:10163000886804F0EFFF864A926892884FF4C87376
:1016400002FB03F1824A9068002204F0D5FE0120DB
:101650007F4988700BE003207D49087607E07C48CD
:10166000007E032803D10221002002F021F8EDE0E2
:101670007748017E78A0FEF755FE7548007E28B9B0
:1016800073490878012102F013F83FE07048007EAA
:10169000012808D1FFF708FA08B36D49087802213C
:1016A00002F006F832E06A48007E02281CD16F483A
:1016B0000068012814D16E484068406A6C49096985
:1016C000884223D16A484068407840B90120604987
:1016D00088700A46118A9068002204F0AFFE15E077
:1016E00002205B49887011E05948007E032805D12B
:1016F00057490878032101F0DBFF07E05448007EDA
:10170000042803D10221002001F0D2FF9EE0022034
:101710004F4988709AE04E494868002104F0F0FE75
:1017200001204B49887091E04A480068012803D0A5
:101730000220474988700AE0FFF7B6F938B14449FA
:101740008868002104F0DCFE0120414988707DE0BA
:101750003F488068406A3E494969884203D1022077
:101760003B4988700AE0FFF79FF938B1384A518A3F
:10177000906804F0C5FE01203549887066E0354860
:101780000838006801280CD032480C38006801285D
:1017900007D12F4A5169506804F0B2FE01202C494C
:1017A000887053E000203349086001202849887080
:1017B0004CE04AE048E02CE017E00DE000E03DE0BE
:1017C000234A5269A2F57A51214A506804F098FEE2
:1017D00001201F49887039E01D494868002104F044
:1017E0008FFE01201A49887030E01A4800680128ED
:1017F00003D00220164988700AE0FFF755F938B186
:1018000013498868002104F07BFE0120104988708C
:101810001CE017484068406A1549096988420CD1A4
:1018200013484068407840B9094A118A90680022FC
:1018300004F004FE01200649887007E001200D49EC
:1018400008600349887001E000E000BF00BF10BDE0
:10185000CC0300202C01234247432072657365743A
:10186000206F6E3A25640D0A200000000801224214
:1018700010040020B481224210B55F48007810287F
:1018800009D2DFE800F0083E4AA26709203D575F11
:1018900079818D9AB4B5ACE05748007E90B1564836
:1018A000007E01280ED05448007E022809D15248FB
:1018B0008068407830B900204F498870032008764E
:1018C00000E000BF95E04C48007EC0B14A48007E71
:1018D000012814D04848007E02280BD14648806871
:1018E000407860B90020444988700846007E401C5A
:1018F000087604E04048007E032800D000BF78E06E
:1019000077E03E480068012803D102203A498870F8
:1019100002E03948406840786BE03848001F0068B2
:10192000012803D002203449887002E032488068E0
:1019300040785EE030488068407810B902202E4937
:10194000887056E02C484068407810B902202A4937
:1019500088704EE02848C06864280CD92848006880
:10196000012803D102202449887004E04FF400418B
:101970002020FFF76FFC3CE01F484068407810B91A
:1019800002201D49887034E01C480068012803D1FA
:1019900002201949887002E017484068407828E022
:1019A0001648001F0068012803D0022012498870E1
:1019B00002E011488068407800BF0F488068407896
:1019C00010B902200C49887013E00B48C0686428E5
:1019D0000CD90B480068012803D002200649887002
:1019E00004E04FF400412020FFF734FC01E000E068
:1019F00000BF00BF10BD0000CC0300203001234217
:101A00000801224210B51448807820B9FFF7E0FDA4
:101A100000201149C86010488078012810D1FFF7D4
:101A20002BFF0D48C068401C0B49C8600846C068C1
:101A300044F62061884203D900214020FFF70AFCC8
:101A400005488078022805D104480078022801D092
:101A5000FFF73CFD10BD0000CC0300203C0400203B
:101A600010B52A4800780B284DD2DFE800F00607B1
:101A70000D12171C222A434A4B0044E00020234940
:101A80000870487088753EE0002020490870487052
:101A900039E000201D490870487034E000201B49DF
:101AA000087048702FE00020184948700620087020
:101AB00029E00020154948700720087001200875AA
:101AC00021E01248407D78B104F0FAF988B110485D
:101AD000006801280DD00E48001D0068012808D0BC
:101AE00000200A49487004E0002008494870082096
:101AF000087008E000200549487548700620087005
:101B000001E000E000BF00BF10BD0000B0030020F6
:101B10002001234210B5754800780B2807D2DFE872
:101B200000F006073A3E5A6A89AAC0DCDD00DAE016
:101B30006E48807DF0B96E480068012816D10020FB
:101B40006A49496888706949486804F063FD674AD2
:101B50005268928802EB82025100644A5068002267
:101B600004F04AFC01206149487013E001205F49FC
:101B700088750FE05D48807D01280BD104F0A0F945
:101B800040B15A4900224868114604F057FC012030
:101B900056494870A7E0022054494870A3E05448D1
:101BA000006801280BD15149486805F063F800200E
:101BB0004E494968486202204C4948700AE004F0E6
:101BC0007FF938B149494868002104F099FC0120A7
:101BD0004649487087E004F073F958B1434A5268A7
:101BE000126AA2F16401414A506804F089FC0120A4
:101BF0003E49487077E000203C4908753C48006841
:101C000001280AD1486805F035F8002037494968AD
:101C100048620220354948700BE004F051F940B1A8
:101C2000324900224868114604F008FC01202F497F
:101C3000487058E02E48001F0068012803D1022098
:101C40002A49487016E004F03BF998B1274A126916
:101C5000264BDB681A44254B5B689B8864246343EE
:101C6000C3EB4201214A5068002204F0E7FB012047
:101C70001E49487037E004F023F988B100201B4961
:101C8000496888701949486804F0C4FC174AD1684B
:101C900050684FF4FA6204F0AFFB0120134948701A
:101CA00021E004F00DF9B8B10020104949688870AE
:101CB0000E49486804F0AEFC0C4A52689288C2EBA8
:101CC00002125100094A5068002204F095FB0120DD
:101CD000064948700020487505E004E000200349EB
:101CE0004870087000BF00BF10BD0000B0030020A6
:101CF0002801234210B5544800780B2807D2DFE8AA
:101D000000F006072B2C3D455673979FA00099E0E5
:101D10004D48807D48B94C4840684078D8B900208B
:101D2000494948700120887515E04748807D0128A1
:101D300011D146480068012805D102204249487067
:101D40000020887507E040484068407818B90121B4
:101D50002020FFF77FFA75E074E03C480068012816
:101D600003D102203849487007E03748406840787E
:101D700018B901212020FFF76DFA63E0324840686E
:101D8000407810B90220304948705BE02F48006865
:101D9000012803D102202C49487007E02A484068F6
:101DA000407818B901212020FFF754FA4AE026486C
:101DB00040684078B8B92448007D38B100202249F5
:101DC000087502204870092008700CE01F48001FA9
:101DD0000068012803D102201B49487003E000215C
:101DE0000820FFF737FA2DE0174840684078F0B92F
:101DF0001648001F006801280AD0144808380068F7
:101E0000012805D1022010494870012048750EE0D4
:101E10000E48001F0068012805D102200A494870B9
:101E20000020487503E006212020FFF713FA09E09F
:101E300005484068407810B902200349487001E025
:101E400000E000BF00BF10BDB00300202801234206
:101E500010B51448407820B9FFF75CFE0020114906
:101E6000886010484078012810D1FFF743FF0D48E3
:101E70008068401C0B4988600846806844F62061F1
:101E8000884203D900214020FFF7E4F90548407853
:101E9000022805D104480078022801D0FFF7E0FDB0
:101EA00010BD0000B00300203C04002010B54648DF
:101EB00000780F2809D2DFE800F0083F42800913BC
:101EC000271D314552676C8384007BE000203E492A
:101ED00081F8250048708870087081F8240071E04E
:101EE0000020394981F8250048708870087081F811
:101EF000240067E00020344981F82500487088708C
:101F0000087081F824005DE000202F4981F8250049
:101F100048708870087081F8240053E02B480078DE
:101F20000C2808D129488078022804D100202649AD
:101F300088700920087045E002F036FC42E002F0AB
:101F400033FC3FE021488068406A2049498A884242
:101F500004D100201C4988700A20087032E0FEF786
:101F600085F91B490860184890F82600401C16495E
:101F700081F8260016480068FEF77CF90020124917
:101F800088700B2008701DE00321082001F0C0FBC1
:101F900018E0FEF76BF90E4908600B4890F827002F
:101FA000401C094981F8270009480068FEF762F9DA
:101FB0000321082001F0ACFB04E002F0F5FB01E096
:101FC00000E000BF00BF10BD10040020CC030020C3
:101FD0001800002010B5FB4800780F2809D2DFE870
:101FE00000F008FEFDFC0978C4BBFBFAF9F8F7F62F
:101FF000F500FBE1F34890F82400F8B9F2480068D6
:10200000012816D10020EF4949688870ED494868D9
:1020100004F000FBEB4A5268928802EB8202510006
:10202000E84A5068002204F0E7F90120E549887089
:102030004EE00120E34981F8240049E0E14890F8AE
:102040002400012809D1FEF703FD002840D0DD4916
:102050000878022101F05CFB3AE0DA4890F82400AD
:10206000022821D1D8480C300068012817D100205F
:10207000D44989688870D349886804F0CBFAD14A7A
:102080009268928802EB82025100CE4A90684FF427
:10209000FA5204F0B1F90120CA49887018E003200F
:1020A000C84981F8240013E0C64890F824000328AA
:1020B00005D1C4490878012101F02AFB08E0C14894
:1020C00090F82400042803D10321002001F020FB14
:1020D0008CE1BC4890F8240098B9BB4800680128FE
:1020E00006D10020B7498870012081F8240032E031
:1020F000FEF7AEFC10B3B3490878022101F008FBEB
:1021000029E0B04890F82400012818D1AF480068B1
:10211000012810D1AE488068406A78B9AC48806820
:10212000407858B9A74A1169506804F0E9F90120CC
:10213000A44988700FE00220A24988700BE0A148F2
:1021400090F82400022806D1FEF782FC18B1022183
:10215000002001F0DDFA49E19A4A116A906804F022
:10216000CFF901209749887040E1964890F8240003
:1021700060B9FEF7C5FC98B3924900228868114601
:1021800004F05CF901208F49887038E08D4890F8A0
:102190002400012827D18C480C300068012804D184
:1021A0000220884981F8240029E0002085498968B7
:1021B00088708449886804F02DFA824A9169906891
:1021C000002204F019F901207E490AE00DE10BE13B
:1021D000CEE0BBE06DE049E012E0DCE02BE09CE00B
:1021E0000DE088700BE0774890F82400022806D1B3
:1021F0000020744981F82B00032101F089FAF5E0F1
:102200007148006801280AD16E49486804F032FD1F
:1022100002206C4988700020496848620AE0FEF795
:1022200017FC38B167494868002104F069F90120BA
:1022300064498870DAE06448006801280AD161497D
:10224000486804F017FD02205E4988700020496844
:1022500048620AE0FEF7FCFB38B15A4948680021A1
:1022600004F04EF9012057498870BFE05548406896
:10227000406A5449096988420BD15249486804F0C0
:10228000F9FC02204F498870084600694968486295
:102290000EE05048006801280AD04C480068012828
:1022A00006D1484988700A461169506804F028F937
:1022B0009CE045480830006801280BD14149486836
:1022C00004F0D8FC02203F498870084640694968FC
:1022D000486221E03B4890F82B00012804D10021FE
:1022E0008020FEF7B7FF17E0FEF70AFC80B1364802
:1022F0001030006801280BD0FEF7AAFB60B1012066
:10230000304988700A465169506804F0F9F803E0D2
:1023100000211020FEF79EFF68E02B480C3000687B
:1023200001280AD12749886804F0A4FC0220254925
:10233000887000208968486207E001202149887080
:1023400000228868114604F079F84FE000201D490A
:10235000896888701B49886804F05CF9194AD1695A
:102360009068002204F048F80120164988703DE08A
:10237000154810300068012809D1124A116A906886
:10238000002204F05BF801200E49887002E0022070
:102390000C4988702AE001200A4988700020896869
:1023A00088700849886804F035F907480C300068DF
:1023B000012811D10349002288684FF42F7104F0DD
:1023C0001BF810E0100400200C8122420801224278
:1023D000CC0300202C0123420549002288684FF4D9
:1023E0002F7104F009F801E000E000BF00BF10BD4C
:1023F0001004002010B57B4800780F2809D2DFE8D0
:1024000000F008AB7FE4092F4D456E9098BED1ECEB
:10241000ED00E4E0734890F8240050B9714840683A
:102420004078E0B900206F498870012081F82400CD
:1024300015E06C4890F82400012810D0694890F805
:10244000240002280AD167488068407838B9002003
:1024500064498870032081F8240000E000BFBEE0DA
:10246000604890F8240080B15E4890F8240001286C
:102470000AD15C484068407838B9002059498870D2
:10248000022081F8240000E000BFA8E055488068E1
:10249000407810B9022053498870A0E0514890F864
:1024A000240050B94F4880684078B8B900204D49A1
:1024B0008870012081F8240010E04A4890F8240038
:1024C00001280AD147488068407838B9002045493A
:1024D0008870022081F8240000E000BF7FE04248BD
:1024E0000068012803D102203E49887007E03D487A
:1024F0004068407818B940212020FEF7ABFE6EE01E
:1025000039480068012803D102203649887007E065
:1025100034484068407818B940212020FEF79AFEE0
:102520005DE030484068407810B902202D4988703D
:1025300055E02D4808300068012803D102202949C0
:10254000887008E027484068407820B94FF48071CF
:102550002020FEF77FFE42E023480C30006801286F
:1025600003D102201F49887008E01E488068407827
:1025700020B94FF400712020FEF76CFE2FE01948BF
:102580008068407868B9184810300068012803D086
:1025900002201449887004E00020124988700C2041
:1025A00008701CE00F488068407868B90E48103009
:1025B0000068012803D002200A49887004E0002046
:1025C000084988700D20087009E006488068407846
:1025D00010B902200349887001E000E000BF00BF8D
:1025E00010BD0000100400200C81224210B51348D9
:1025F000807820B9FFF7EEFC00201049C8600F4832
:102600008078012810D1FFF7F5FE0C48C068401C07
:102610000A49C8600846C06844F62061884203D968
:1026200000214020FEF716FE04488078022804D1DD
:102630000348007808B9FFF739FC10BD10040020EA
:102640002A00002030B500228B071C0F0F2303FA4D
:1026500004F20B4B8C1053F824309343084C8D102C
:1026600044F8253023468C1053F824308C07240F6F
:1026700000FA04F42343024C8D1044F8253030BD99
:10268000080001402DE9F041024600250026002007
:1026900000230024002791F803C00CF00F0591F8E7
:1026A00003C00CF0100CBCF1000F03D091F802C075
:1026B0004CEA050591F800C0BCF1000F31D0146858
:1026C00000202BE04FF0010C0CFA00F3B1F800C031
:1026D0000CEA03069E4220D183004FF00F0C0CFA47
:1026E00003F7BC4305FA03FC4CEA040491F803C069
:1026F000BCF1280F06D14FF0010C0CFA00FCC2F817
:1027000014C00AE091F803C0BCF1480F05D14FF0A6
:10271000010C0CFA00FCC2F810C0401C0828D1D3F0
:102720001460B1F800C0BCF1FF0F34DD5468002024
:102730002EE000F1080C4FF0010808FA0CF3B1F894
:1027400000C00CEA03069E4221D183004FF00F0C1B
:102750000CFA03F7BC4305FA03FC4CEA040491F8B5
:1027600003C0BCF1280F05D100F1080C08FA0CF8E1
:10277000C2F8148091F803C0BCF1480F07D100F1F2
:10278000080C4FF0010808FA0CF8C2F81080401C41
:102790000828CED35460BDE8F0810000F0B50A46A9
:1027A000002300240021002500F00046B6F1004F70
:1027B00002D11D4EF16901E01B4E7168C0F3034563
:1027C00083B200F44016B6F5401F08D121F07061C5
:1027D000154E766826F07066134F7E6012E000F4A6
:1027E0008016B6F5801F06D1032606FA05F4A1432C
:1027F00041F0706106E0460D360103FA06F6B1437A
:1028000041F0706122B1460D360103FA06F63143FC
:1028100000F00046B6F1004F02D1034EF16101E035
:10282000014E7160F0BD0000000001404161704741
:102830000161704710B54D4800780F2809D2DFE8D4
:1028400000F008211E091017242D3F656E77809136
:10285000920089E00020454981F8230088700870C3
:1028600082E00020414981F82300887008707BE0F5
:1028700000203E4981F823008870087074E001F060
:1028800085FF71E001F082FF6EE00020374988701B
:1028900007200870002081F8230065E034480068B4
:1028A000012808D1002031498870082008700020D4
:1028B00081F8230003E000210120FEF7CBFC53E068
:1028C0002B480068012810D12A4800780D281CD117
:1028D00028488078022818D10020244988700920CF
:1028E0000870002081F823000FE0224800780E28AD
:1028F00007D10D201D4908700020887081F8230041
:1029000003E000210120FEF7A5FC2DE0002017497F
:1029100088700A200870002081F8230024E000203D
:10292000124988700B200870002081F823001BE0FA
:1029300000200E4988700C200870002081F82300C8
:1029400012E00B483C38006801280AD00A480068A9
:10295000012806D10020054981F823008870052050
:10296000087001E000E000BF00BF10BDE8030020D8
:102970003C012342CC0300201081224210B5BB4809
:1029800000780F2809D2DFE800F008BAA209428BCC
:10299000CAD3F3F1F0EFEEEDEC0065E1B34890F847
:1029A000230028B9B1490878022100F097FE2DE0F4
:1029B000AE4890F8230001281FD1AD4800680128D7
:1029C00016D10020A94949688870A849486803F0D1
:1029D00021FEA64A5268928802EB82025100A34A65
:1029E0005068002203F008FD0120A04988700DE026
:1029F00002209E4981F8230008E09C4890F82300BB
:102A0000022803D10121002000F068FE2CE1974844
:102A100090F8230050B90120964908609649C1F802
:102A2000B801964908609149887038E08F4890F85D
:102A30002300012805D18D490878022100F04EFEBF
:102A40002DE08A4890F8230002281BD188480838D6
:102A5000006801280DD08948B0380068012808D1E5
:102A600087480068012804D00121002000F036FECC
:102A700015E07E4A5169506803F042FD01207B4910
:102A800088700CE0794890F82300032807D17C482F
:102A90000068012803D00121002000F01FFEE3E0C0
:102AA000FEF71EF890B1714890F8230028B96F49DD
:102AB0000878022100F012FE08E06C4890F823002C
:102AC000012803D10121062000F008FECCE068486F
:102AD00034380068012808D16848AC3800680128FB
:102AE00003D102206149887008E0012063490C3954
:102AF00008606149C1F8AC015C498870B4E05C4889
:102B00000068012803D102205849887006E001209E
:102B1000564988704868002103F0F2FCA4E00120C7
:102B2000524988700A465169506803F0E9FC9BE0FD
:102B30004E4890F8230038B9002050490C390860FD
:102B400001204A4988700BE0484890F8230001288A
:102B500006D1002049491039086001204349887096
:102B600082E080E07EE04AE033E029E016E0FFE723
:102B70003F480830006801280BD100203D4908601B
:102B80003D49C1F8B8013D490860012037498870C6
:102B900003E000210120FEF75DFB65E03948806815
:102BA000406A3849098A884209D1364880684078A5
:102BB00028B901203149103908602C49887053E048
:102BC00001202A4988700A469169506803F098FCF0
:102BD0004AE027480068012803D102202349887071
:102BE0000CE001202149887000202249091D08605D
:102BF0001E490A8C4868002103F020FC34E01B4881
:102C000090F8230038B900201C49103908600120D1
:102C10001649887025E0154890F82300012805D151
:102C200016490C390860114988701AE00F4890F86D
:102C30002300022806D101201049091F08600B4912
:102C400088700EE0094890F82300032809D101207C
:102C5000084908600849C1F8B801084908600349F3
:102C6000887001E000E000BF00BF10BDE803002055
:102C7000340123428081214200802242BC812242D1
:102C800008012242CC03002010B5A54800780F2887
:102C900009D2DFE800F0085F47091F467179A4B840
:102CA000CCD4FBEDEC0038E19D4890F8230080B1D6
:102CB0009B4890F8230001280AD199484068407841
:102CC00038B90220964981F823000020887000E07E
:102CD00000BF22E1924890F8230058B990488068DC
:102CE000B0F5FA7F1CD901208D4981F8230000201E
:102CF000887015E08A4890F82300012810D0884891
:102D000090F8230002280AD185484068407838B9F5
:102D10000320834981F823000020887000E000BF71
:102D2000FBE0FAE07E48806840F2DC51884210D92E
:102D30007C480068012807D17B480068012803D13E
:102D400002207749887004E04FF4C0412020FEF74C
:102D500081FAE2E0734834300068012803D1022090
:102D60006F49887007E06E484068407818B92021A4
:102D70000846FEF76FFAD0E069484068407810B91D
:102D8000022067498870C8E0654890F8230080B940
:102D90006348806840F2DC5188421FD9624800686D
:102DA00001281BD001205E4981F823000020887093
:102DB00014E05B4890F8230001280FD15848806840
:102DC00040F2DC51884209D956480068012805D0F4
:102DD0000020534981F82300022088709DE050486C
:102DE0008068B0F5FA7F0DD94E483C300068012864
:102DF00003D102204A49887004E04FF4006120208A
:102E0000FEF728FA89E04648806840F2DC518842A3
:102E10000CD944480068012803D102204049887039
:102E200004E04FF400512020FEF714FA75E03C480E
:102E30004068407810B90220394988706DE0384800
:102E400080693749C969401A35494968496A8842E1
:102E500002D9012035490860324834300068012821
:102E600008D13249086002202D4988700DE053E0F6
:102E700051E00BE02A484068407830B901202B49E6
:102E8000086020210846FEF7E5F946E0244890F85E
:102E9000230060B92248806821498989884239D94C
:102EA00000201F498870012081F8230032E01C486F
:102EB00090F8230001280CD1194880681849C98965
:102EC000884227D9002016498870022081F8230003
:102ED00020E0134890F8230002280BD110488068A6
:102EE000B0F5FA7F16D900200D498870032081F8CB
:102EF00023000FE00A4890F8230003280AD108486D
:102F00008068B0F5FA7F05D90020054981F82300D3
:102F10000220887001E000E000BF00BF10BD00008B
:102F2000E8030020000123421081224284812142D3
:102F300010B51448807820B9FFF720FD0020114912
:102F4000886010488078012810D1FFF79DFE0D4859
:102F50008068401C0B4988600846806844F6206100
:102F6000884203D900214020FEF774F90548807893
:102F7000022805D104480078022801D0FFF75AFC46
:102F800010BD0000E80300203C04002010B501F053
:102F900079FA00F00BFA00200C4908600C49C1F8DE
:102FA000A4010120094908310860091D0860091DB4
:102FB0000860064918310860091D08600549086065
:102FC000091D08600249C1F8B40110BDA081224268
:102FD000008022428081214210B5044601F022FA8D
:102FE0001249086012491148006805F0B7FC0AD27E
:102FF000012010490860642002F0CAFF01200E4938
:10300000C1F8A00110BD0D490848006805F0A6FBF5
:1030100006D20020074908600749C1F8A001F1E77E
:10302000204600F0BBF90020ECE70000B0010020D2
:103030000000A043A48122420080224200007A4383
:1030400010B500240020134908601349C1F8B001ED
:10305000012010490C310860091D08600F49086003
:10306000091D08600B490831086001F0DBF90446CE
:103070000B49204605F072FB05D201200549091FC6
:103080000860032010BD00200249091F08600220CB
:10309000F8E70000AC812242008022428081214278
:1030A000000020412DE9F04F89B005460E46174635
:1030B000984600244146129805F0BCFC089000BFD9
:1030C00048E04FF08041304605F01EFA4FF0804155
:1030D0000790304605F018FA0490204605F012FBE0
:1030E0000390049905F0A6FC0590139905F06AFB7E
:1030F0000690079905F008FA82468AF00040019090
:1031000002F0AAFF4FF07E51029005F089F903907A
:1031100005F05AF902460B46CDE904010020134997
:1031200004F0E4FECDE9060104F0AEFE8146494616
:10313000089805F047FB4146079005F071F9834672
:103140005946384605F0E0F9079005F0BBFA25F836
:103150001400641C204605F0D5FA3146079005F0AE
:10316000FDFAAED309B0BDE8F08F00000000F03FDB
:1031700000BFFEE738B5002401217C2001F012FADF
:1031800010208DF8030003208DF8020041F20304A3
:10319000ADF8004069460F48FFF774FA21460D4824
:1031A000FFF746FB4FF47F44ADF8004069460A48FC
:1031B000FFF768FA21460848FFF73AFB8024ADF88C
:1031C000004069460548FFF75DFA21460348FFF7CE
:1031D0002FFB38BD000C01400014014000180140D5
:1031E00008B50121042001F0DDF90121102001F0D2
:1031F000D9F91020ADF800008DF8030003208DF8F8
:10320000020069460848FFF73DFA0220ADF80000C9
:1032100069460648FFF736FA012005490860054966
:10322000C1F8900108BD00000008014000100140F5
:10323000840122420000214270B50446144800680F
:1032400020F47020124908600846006840F44030BD
:10325000086000200F490860002516E0E0090E49CB
:1032600008606006040E022003F0C1FA01200B4939
:10327000C1F88401022003F0BAFA00200549086071
:10328000022003F0B4FA681CC5B2082DE6DB70BD5D
:1032900000080140840122429001214200002242A4
:1032A00010B50F48006820F470200D4908600846EA
:1032B000006840F44030086001200A4908600A496B
:1032C000C1F88401042003F092FA00200549086047
:1032D000042003F08CFA00200349C1F8840110BDDA
:1032E00000080140900121420000224210B50F4821
:1032F000006820F470200D4908600846006840F41A
:103300004030086000200A4908600A49C1F890016D
:10331000042003F06CFA0120054908600549C1F852
:103320009001042003F063FA10BD00000008014082
:10333000840122420000214210B500241348006895
:1033400020F47020114908600846006840F400200D
:10335000086001200E49086003F049FA01200D4978
:10336000C1F8840103F043FA07E0601CC4B2FA2CF0
:1033700003DDFFF7BBFF012010BD05488038006862
:103380000028F2D10449086000BFF5E700080140B9
:1033900090012142000022428401224210B50446DD
:1033A00022464021902001F071F810BD10B5FFF7C2
:1033B00017FF00224021902001F068F810BD0000A6
:1033C00008B501217C2001F0EDF84FF4C050ADF8B4
:1033D000000048208DF8030069461648FFF752F9AF
:1033E0002020ADF8000048208DF8030069461248FF
:1033F000FFF748F90420ADF8000048208DF80300DD
:1034000069460E48FFF73EF9FB20ADF80000482062
:103410008DF8030069460A48FFF734F94FF601704A
:10342000ADF8000048208DF8030069460548FFF715
:1034300029F908BD00080140000C014000100140BE
:10344000001401400018014008B50121102001F0CE
:10345000A9F83020ADF8000010208DF803000320FB
:103460008DF8020069460448FFF70CF93021024844
:10347000FFF7DEF908BD000000100140F8B507466F
:103480000D4616461C4610208DF8000002208DF8CF
:10349000010000208DF8020001208DF8030068462D
:1034A00000F0C4F80121084601F05CF83846FDF749
:1034B00067FB1748048017480560466000201549DF
:1034C00088600846C46000200861802048610020B0
:1034D0008861C86108624FF48050486200208862A9
:1034E0003846FDF712FC012202210B48FDF704FCCF
:1034F00001210A4802F032FB01213846FDF734FB76
:103500004FF40010FDF722FB034800F009F8F8BD66
:10351000B8010020440900206C0002400044004033
:1035200010B5044600212046FDF71EFB0448018823
:103530002046FDF708FC01212046FDF715FB10BDD4
:10354000B801002000BFFEE738B5002401217C202F
:1035500001F028F810208DF8030003208DF80200F8
:103560008224ADF8004069462048FFF78BF82146D9
:103570001E48FFF75BF99824ADF8004069461C48E7
:10358000FFF780F821461A48FFF750F942F28134DC
:10359000ADF8004069461748FFF774F82146154812
:1035A000FFF744F94224ADF8004069461248FFF79E
:1035B00069F821461048FFF739F94FF4E054ADF8A7
:1035C000004069460B48FFF75DF821460948FFF7C0
:1035D0002DF90424ADF8004069460848FFF752F879
:1035E00021460648FFF722F938BD000000080140D7
:1035F000000C01400010014000180140001401407F
:1036000010B5482001F0DEF9242001F031FE24201D
:1036100001F0F2FC482001F0E9FF242001F040FF16
:10362000242001F0AFFB10BD7047000070B50021F1
:1036300000230F22C47804B3154C246804F4E0641A
:10364000C4F5E064210AC1F10403CA40447804FAD5
:1036500003F184781440214309010E4C0678A155EA
:10366000047804F01F050124AC4005786D11AD000D
:1036700005F1E025C5F8004109E0047804F01F05D4
:103680000124AC40044D0678761145F8264070BD03
:103690000CED00E000E400E080E100E002490143BD
:1036A000024A1160704700000000FA050CED00E0CE
:1036B000094A50701278824205D1074A127E521C84
:1036C000054B5A7602E00022034B5A760022024B49
:1036D0009A701A4611707047CC0300200B4A507044
:1036E0001278824207D1094A92F82320521C074BD4
:1036F00083F8242003E00022044B83F824200022D6
:10370000024B9A701A46117070470000E8030020BF
:103710000B4A50701278824207D1094A92F824204D
:10372000521C074B83F8252003E00022044B83F84A
:1037300025200022024B9A701A4611707047000033
:103740001004002010B500F013F800F0EFFB00F0BB
:1037500017FC00F037FC00F0BFFB00F091FB00F01D
:10376000CBFC00F06FFC00F095FC00F002F810BDFF
:103770007047704706480078012808D1054800784E
:10378000FF2804D203480078401C024908707047A3
:10379000260200201902002010B500241A480078E3
:1037A000012830D1FCF762FD04461848007820B1AA
:1037B00016480078401E1549087014480078F8B97A
:1037C00013480078E0B900F0F9FC12481249097872
:1037D00050F82100114908600F4800781049097815
:1037E00088420DD00D480068806B401C0B49096869
:1037F00088630C480068401C0A490860FCF755FDC6
:103800002046FCF737FD10BD2602002019020020DB
:103810001A02002078C800201C0200203402002078
:103820001B0200200002002010B500240B48007885
:10383000012811D1FCF71AFD04460948007840B967
:1038400008480078FF2804D206480078401C054943
:1038500008702046FCF70EFD10BD00002602002077
:10386000190200201A02002010B500241348007825
:10387000012821D1FCF7FAFC044611480078C0B1B8
:103880000F480078401E0E4908700846007860B95D
:103890000C48007828B92046FCF7ECFC00F054FCFA
:1038A0000AE02046FCF7E6FC06E02046FCF7E2FCD6
:1038B00002E02046FCF7DEFC10BD000026020020DE
:1038C0001A0200201902002010B50B48007890B9A8
:1038D00000F074FC09480078094908700948074954
:1038E000097850F82100084908600846006807492F
:1038F0000860FCF7C2FC10BD260200201C0200205C
:103900001B02002078C80020340200202C02002076
:10391000704700002DE9FE4F06460F4690461C46B4
:103920004FF00009FCF7A2FC81461F48007828B13F
:103930004846FCF79FFC3C20BDE8FE8F1B4850F832
:10394000240060BB0120194941F824004846FCF7D7
:1039500091FC002342463946304600F009F9824680
:1039600000200090019003460246514602902046F6
:1039700000F03AFC054635B90D48007801280CD115
:1039800000F0E2FB09E0FCF771FC814600200749EA
:1039900041F824004846FCF76DFC2846CCE7484631
:1039A000FCF768FC2820C7E71902002078C800202F
:1039B000260200202DE9F04F85B081468A469346C5
:1039C0001C46DDE90F78129D00200390FCF74EFCA9
:1039D00003902348007830B10398FCF74BFC3C205F
:1039E00005B0BDE8F08F1F4850F8240088BB0120C7
:1039F0001C4941F824000398FCF73CFC2A46414648
:103A0000384600F001FD2B465A465146484600F024
:103A1000AFF804901198CDE9008002953A4620460F
:103A20000E9B049900F0E0FB064636B90E4800787C
:103A300001280CD100F088FB09E0FCF717FC03908B
:103A40000020084941F824000398FCF713FC304695
:103A5000C6E7FFE70398FCF70DFC2820C0E700004D
:103A60001902002078C80020260200207047704705
:103A70002DE9F04106460F4614464FF00008154860
:103A8000007818B112202070BDE8F081FCF7EEFB41
:103A90008046FF2E03D11048006890F832600F482E
:103AA00050F826502DB94046FCF7E4FB4320207027
:103AB000EAE7012D05D14046FCF7DCFB43202070EE
:103AC000E2E7EF644046FCF7D5FB0020207000BF22
:103AD000DAE70000190200202C02002078C800203C
:103AE000704700002DE9F04707460D464FF0000AE9
:103AF000002028606860FCF7B9FB8246FF2F03D1E5
:103B00001948006890F83270184850F827402CB9CE
:103B10005046FCF7AFFB4320BDE8F087012C04D1F1
:103B20005046FCF7A7FB4320F6E7207C00F001009D
:103B300020B95046FCF79EFB4520EDE70026D4F85F
:103B40000C90D4F808805046FCF794FB00E0761CFB
:103B500058F8041B0029FAD0B0002860A9EB060031
:103B6000800068600020D7E72C02002078C8002081
:103B700070B5044610464FF080750560051F284655
:103B80002C606FF00106051F28462E604FF012369C
:103B9000051F28462E604FF00336051F28462E606D
:103BA0004FF00236051F28462E607610051F284666
:103BB0002E60051F284629604FF01136051F284644
:103BC0002E604FF01036051F28462E604FF0093644
:103BD000051F28462E604FF00836051F28462E6028
:103BE0004FF00736051F28462E604FF00636051F9A
:103BF00028462E604FF00536051F28462E604FF0F0
:103C00000436051F28462E6070BD00002DE9F041E6
:103C100005464FF00008FCF729FB8046FF2D05D133
:103C20002048006890F83250012608E01D480068DE
:103C300090F83200A84201D1012600E000261A487F
:103C400050F825402CB94046FCF714FB4820BDE84D
:103C5000F081012C04D14046FCF70CFB4320F6E731
:103C600094F834701148C05D94F8351088430F49BA
:103C7000C8550846C05D30B994F836100C48007835
:103C800088430B49087094F8300040F0080084F82D
:103C900030004046FCF7EEFA012E01D100F054FA54
:103CA0000020D4E72C02002078C800201E0200204B
:103CB0001D0200207047000070B505460026174819
:103CC000007800B170BD1648007800B1FAE71DB366
:103CD000FCF7CCFA06461348006890F834401248C6
:103CE000005D1049096891F8351088430E49085560
:103CF0000846005D40B90B48006890F836100B4844
:103D0000007888430949087006480068C562304653
:103D1000FCF7B0FA00F018FA00BFD3E71902002050
:103D20001A0200202C0200201E0200201D0200208A
:103D30002DE9F04104460D4616461F46124800780C
:103D400010B15520BDE8F0811048007808B132204C
:103D5000F8E7B81CC82148434FF47A71B0FBF1F181
:103D60004FF461606043C5EB051200EB8200304404
:103D700000EBC00202EB001001EBC0084046FFF769
:103D80009BFF0020DEE70000190200201A0200203D
:103D900070B5002600F072F8FCF768FA0646314864
:103DA0000068401C2F4908603046FCF763FA2E4833
:103DB0000078012853D12D48007820B1012804D083
:103DC000022809D103E001250BE0002509E00125C7
:103DD00001202649087004E00125002023490870CD
:103DE00000BF00BF05B970BD2148046833E0FCF78F
:103DF0003DFA0646E06A50B3E06A401EE062E06ABF
:103E000028BB94F8300000F0370040B114F8300FB0
:103E100000F0C800207001206070303C02E00020FB
:103E200084F8310094F8300000F0080078B9343498
:103E3000A0781049097808430E49087020780E4987
:103E4000085C6178084314F834190B4A50546469CB
:103E50003046FCF70FFA94F832003F28C7D100BF74
:103E6000C1E7000044020020260200203C0200209E
:103E7000380200201D0200201E02002070470000B2
:103E80002DE9F0415021114800F02CF900250DE0FA
:103E9000681C86B20D4800EB051400EB06170020E5
:103EA000207067600AA0E060681C85B2042DEFD323
:103EB000064800EB051400202070606004A0E0605C
:103EC000024804490860BDE8F081000028C40020D1
:103ED0003F0000000802002070B5C821114800F022
:103EE00001F900230FE0581C85B203EB83000D4954
:103EF00001EB800405EB850001EB800600202070BB
:103F00006660581C83B2092BEDD303EB830005498F
:103F100001EB8004002020706060084602490860C0
:103F200070BD000060C300200402002000200A4988
:103F300008600A4908700A4908700A4908700A4965
:103F400008700A4908600A4908600A4908600A4975
:103F500008600A49087070474402002019020020D6
:103F60001A02002027020020260200200002002062
:103F70002802002014020020100200201802002055
:103F800000210A4A1170002004E00021084A11545F
:103F9000411CC8B20828F8D30021064A1170064A0D
:103FA0001170064A1160064A116070471D02002018
:103FB0001E0200201B0200201C02002034020020F0
:103FC0002C02002070B54FF47C71194800F08AF87B
:103FD0004FF48071174800F085F8002413E0601C4E
:103FE000C5B2C4EBC40000EB4000114901EB8003F3
:103FF000C5EBC50000EB400001EB80065E610EA042
:10400000D864601CC4B20B2CE9D3C4EBC40000EB31
:104010004000074901EB80030020586106A0D864E6
:1040200000200649086002480549086070BD00008C
:1040300078C9002078C800203F0000003802002026
:104040003002002000B587B00320002180220A4BF7
:10405000CDE90132CDE903104FF6FF703F23074A47
:1040600000900748FFF7A6FC06AA06A13F20FFF72D
:10407000FFFC07B000BD000078C6002074C8002017
:104080001D43000875432F4F532D49492049646C47
:104090006500000000B587B00320002180220A4B94
:1040A000CDE90132CDE903104FF6FE703E23074AF9
:1040B00000900748FFF77EFC06AA06A13E20FFF706
:1040C000D7FC07B000BD000078C4002074C60020F3
:1040D0004543000875432F4F532D494920537461C0
:1040E0007400000004E0002200F8012B4A1E91B287
:1040F0000029F8D1704700002DE9F04178211048DF
:10410000FFF7F0FF00240DE0601C86B204EB4400D2
:104110000B4901EBC00506EB460001EBC0072F6021
:10412000601C84B2042CEFD304EB4400044901EB7F
:10413000C00500202860084602490860BDE8F081FB
:1041400068CD00204002002010B50024FCF78EF856
:10415000044613480078F8B912480078E0B900F036
:104160002DF811481149097850F8210010490860CC
:104170000E4800780F49097888420DD00C48006835
:10418000806B401C0A49096888630B480068401C22
:1041900009490860FCF782F82046FCF76BF810BD6F
:1041A000190200201A02002078C800201C020020FA
:1041B000340200201B020020000200200649074AAA
:1041C0001278885C0649095C034A515C01EBC00126
:1041D000044A117070470000188C00081D0200206E
:1041E0001E0200201C0200202DE9F84F05460F4654
:1041F00090469946DDE90AAB00200090FCF736F8BE
:1042000000903F480468002C74D0183454F8040C13
:104210003B4908600098FCF72DF844F8187CA57617
:10422000002020766076606144F814BC44F80CAC41
:1042300044F8108C0C9824F8080C24F8069C0020F4
:10424000E077E810207705F00700E076217F012075
:104250008840A077E17E0120884060770020606080
:10426000E060A0602062A0626062E062206325A03E
:104270006063183C002606E0002104F1500040F87D
:104280002610701CC6B2002EF6D02046FFF740FB69
:104290002046FFF7EBFBFBF7E9FF00901A4840F8D8
:1042A00025401A48006860610020A0611748006836
:1042B00010B1164800688461144804603434A07852
:1042C0001349097808431249087020781149085C9D
:1042D0006178084314F834190E4A50540E48007897
:1042E000401C0D4908700098FBF7C4FF0020BDE892
:1042F000F88FFFE70098FBF7BDFF4220F7E70000CB
:10430000300200203F00000078C800203802002062
:104310001D0200201E02002027020020002400BFF2
:1043200000BFFBF7A3FF044605480068401C044992
:1043300008602046FBF79EFFFFF799FBF1E70000BE
:1043400028020020002400BF02E02820FFF7B4FC70
:10435000194800780028F8D0184800686421B0FB9C
:10436000F1F0164908600846006828B90020144991
:104370000870FF20FFF74AFC00BFFBF777FF0446F9
:10438000104800681049086000200E490860204667
:10439000FBF770FF0C48006808490968B0FBF1F0B2
:1043A000C0F1640006490870FFF79AFB00F00EF8B0
:1043B0001420FFF781FCE0E7180200201002002023
:1043C0000C02002028020020140200207CB50025E9
:1043D00014E069462846FFF785FB064666B909489A
:1043E00050F8254044B1012C06D0D4E9020100EB7D
:1043F000810060640198A064681CC5B23F2DE8D9B3
:104400007CBD000078C8002002F0010343B102F037
:1044100002032BB102E0491E002308C00029FAD193
:10442000704700002DE9FC474FF0000A01F096FCB0
:104430000FFA80FAAAF5CD700FFA80FABAF1000FE0
:1044400017DD504603F0AAFE064600220A4B03F091
:104450004DFD04460022094B03F0B8FE80460022C1
:10446000074B03F0B3FECDE9000103F00DFDBDE8FD
:10447000FC870020FBE700000000B0400000F43F94
:1044800000408F4010B501F081FC10BD70B50646AC
:104490000C461546FEF704FF3046FEF7CDFEFEF74C
:1044A0004BFF2046FEF7C8FEFEF746FF2846FEF704
:1044B000C3FEFEF741FFFEF719FF012070BD0000AB
:1044C00010B5164800781649087001201349087085
:1044D000144802F0CFFB144802F0CCFB134802F062
:1044E000C9FB134802F0C6FB124802F0C3FB124896
:1044F00002F0C0FB114800781049C87510480078D8
:104500000F4988760F4800780E4981F825000E483B
:1045100000780D4981F8280010BD00003C040020FF
:104520003D0400202C000020AC0000206C00002086
:10453000EC0000202C0100206C010020B0030020C2
:10454000CC030020E80300201004002001460020D6
:10455000034A506820F44040084350607047000010
:104560000010024029B1064A52690243044B5A61C5
:1045700004E0034A52698243014B5A6170470000CC
:104580000010024029B1064AD2690243044BDA61A5
:1045900004E0034AD2698243014BDA6170470000AC
:1045A0000010024029B1064A92690243044B9A6105
:1045B00004E0034A92698243014B9A61704700000C
:1045C0000010024029B1064AD2680243044BDA6067
:1045D00004E0034AD2688243014BDA60704700006E
:1045E0000010024030B500210022002400232D4D90
:1045F0006D6805F00C0121B1042905D0082923D1EB
:1046000005E0294D056022E0274D05601FE0254D9E
:104610006D6805F47012234D6D6805F48034022531
:1046200005EB92421CB9214D554305600BE01D4D31
:104630006D6805F400351DB11C4D5543056002E061
:10464000194D5543056002E0174D056000BF00BFDE
:10465000144D6D6805F0F0010909154D6B5C056896
:10466000DD4045600F4D6D6805F4E061090A104DAD
:104670006B5C4568DD4085600A4D6D6805F46051EE
:10468000C90A0B4D6B5C4568DD40C560054D6D6822
:1046900005F44041890B074D6B5CC568B5FBF3F52C
:1046A000056130BD0010024000127A0000093D0093
:1046B000EC010020FC01002008B501214020FFF79B
:1046C00071FF3C20ADF8000010208DF8030003209E
:1046D0008DF8020069460848FDF7D4FF002007491D
:1046E00008600749C1F88C01044908310860044991
:1046F000C1F8940108BD0000001801408801234260
:1047000000002342024909888143014A1180704711
:104710000428004001460020064A12880A40D0B210
:10472000044A121F12880A4012B108B1012000E0A9
:10473000002070470428004010B50120FFF7EAFF71
:1047400020B10120FFF7DEFF00F00AF80220FFF79A
:10475000E1FF20B10220FFF7D5FF00F001F810BD06
:1047600000BF0348008800F020000028F9D07047FF
:10477000042800400020044988700846407E0876DE
:104780000846407808707047CC0300200020054997
:104790008870084690F8240081F823000846407885
:1047A00008707047E803002000200549887008461B
:1047B00090F8250081F8240008464078087070477A
:1047C0001004002070B505461021002002F0FCF80E
:1047D00004460CB3284601F071FD60B9B5F1004FF5
:1047E00005D92146002002F0DDF8002070BD2846E2
:1047F00002F048F905462946002002F0E5F820605D
:10480000206828B92146002002F0CCF80020EDE70E
:1048100065600020E060A0602046E7E7704710B5C3
:1048200000F002F810BD00000CB5002001900090CF
:104830003348006840F480303149086000BF304898
:10484000006800F4003000900198401C019000982E
:1048500018B90198B0F5A06FF1D12948006800F4AB
:10486000003010B10120009001E00020009000987D
:10487000012843D12348006840F010002149086016
:104880000846006820F0030008600846006840F011
:10489000020008601A4840681949486008464068A4
:1048A00048600846406840F48060486008464068B8
:1048B00020F47C1048600846406840F4E8104860E6
:1048C0000846006840F08070086000BF0C4800682F
:1048D00000F000700028F9D00948406820F003007B
:1048E000074948600846406840F00200486000BF41
:1048F0000348406800F00C000828F9D10CBD000006
:10490000001002400020024018B10121034A11604A
:1049100002E00021014A1160704700008C812142B1
:10492000042808D14FF0E021096941F004014FF05B
:10493000E022116107E04FF0E021096921F0040154
:104940004FF0E0221161704710B50548007801284A
:1049500005D1FEF70FFFFFF71BFAFEF71DFF10BD95
:104960002602002010B51348006840F001001149EC
:10497000086008464068104908400E4948600846EB
:1049800000680E4908400B4908600846006820F49A
:10499000802008600846406820F4FE0048604FF41C
:1049A0001F008860FFF73BFF4FF00060044908607C
:1049B00010BD0000001002400000FFF8FFFFF6FEEF
:1049C00008ED00E010B58AB004460121C802FFF7E7
:1049D000E9FD01210420FFF7E5FD01210846FFF76D
:1049E000E1FD01213148FDF7D9FE314890FBF4F09B
:1049F0003049C8624FF48070ADF8240018208DF85B
:104A0000270003208DF8260009A92B48FDF73AFE60
:104A10004FF47A70ADF81C00601E80B2ADF818003B
:104A20000020ADF81E00ADF81A008DF8200006A990
:104A3000224800F091FF01221146204800F028FF93
:104A400001211E4800F0F2FE7020ADF808000020A1
:104A5000ADF810000120ADF80A004FF4FA70ADF87F
:104A60000E0002A9154800F01DFF0821134800F0B0
:104A700065FF0121114800F0CDFE19208DF80400DA
:104A800002208DF8050000208DF8060001208DF829
:104A9000070001A8FEF7CAFD0121084800F0D8FE72
:104AA0000021064800F0C8FE0AB010BD0002300028
:104AB00000A24A042C00002000080140002C014004
:104AC00010B501214E4800F0D2FE002842D001214D
:104AD0004B4800F0AEFE4B48807828B94948406A00
:104AE000401C4849486204E04648406A401E454927
:104AF00048624448806A401C4249886208464069CE
:104B0000896A884207D800213D4800F095FE0020C0
:104B10003C49487010BD3B48006A3A49496A88429E
:104B200007DC0021364800F087FE00203549487038
:104B3000F0E73448407802280DD13248C188304827
:104B400000F005FF2F48C48804EBD47041102C48B6
:104B500000F0FFFE51E02B48407801284DD1294854
:104B6000806A2849C969884215D82648006B254AB9
:104B7000926A30F81210224800F0E9FE2148006BDA
:104B8000204A926A30F8124004EBD47041101C485D
:104B900000F0DFFE31E01B4840691A49C969401A3C
:104BA0001849896A88421BD816484069154A926A92
:104BB000801A144A126B32F81010114800F0C7FE28
:104BC000104840690F4A926A801A0E4A126B32F8F6
:104BD000104004EBD4704110094800F0BAFE0CE01C
:104BE0000848C188064800F0B2FE0648C48804EBB5
:104BF000D4704110024800F0ACFE00BF8AE700000C
:104C0000002C01402C00002010B50221480700F0C4
:104C10002EFE002859D00221480700F00AFE57480E
:104C20000078401C55490870087800EBD071491095
:104C3000A0EB4101514A11701046007878BB5048F2
:104C4000807828B94E48406A401C4D49486204E0CB
:104C50004B48406A401E4A4948624948806A401CA5
:104C60004749886208464069896A884208D8002115
:104C70004FF0804000F0E0FD00204149487010BD39
:104C80003F48006A3E49496A884209DC00214FF0EA
:104C9000804000F0D1FD002039494870EFE7FFE780
:104CA00037484078022811D14007808C3449C988A0
:104CB00008444FF6FF7190FBF1F201FB120084B241
:104CC00021464FF0804000F044FE55E02C484078EB
:104CD000012851D12A48806A2949C969884216D8D1
:104CE0002748006B2649896A30F811004FF080414F
:104CF000898C08444FF6FF7190FBF1F201FB120022
:104D000084B221464FF0804000F023FE34E01C487E
:104D100040691B49C969401A1949896A884219D8EA
:104D2000174840691649896A401A1549096B31F8D4
:104D300010004FF08041898C08444FF6FF7190FBC2
:104D4000F1F201FB120084B221464FF0804000F0E6
:104D500000FE11E04FF08040808C0949C98808446A
:104D60004FF6FF7190FBF1F201FB120084B2214675
:104D70004FF0804000F0EDFD00BF80E7CB01002048
:104D80002C01002010B58AB0044601210846FFF727
:104D9000F9FB01210520FFF705FC01212F48FDF754
:104DA000FDFC01212E48FDF7F9FC2E4890FBF4F0A4
:104DB0002D49C8624FF40040ADF8040018208DF86A
:104DC000070003208DF8060001A92848FDF75AFCCA
:104DD0004FF6FF70ADF82000601E80B2ADF81C00E9
:104DE0000020ADF82200ADF81E0007A94FF080406A
:104DF00000F0B2FD3020ADF80C004FF4FA70ADF8C1
:104E000012000120ADF80E000020ADF814004FF4A0
:104E10008070ADF818000020ADF81A0003A94FF01B
:104E2000804000F03FFD00214FF0804000F086FD03
:104E300001220221480700F02BFD1C208DF80800FC
:104E400002208DF8090000208DF80A0001208DF85D
:104E50000B0002A8FEF7EAFB0AB010BD0003180021
:104E600000023000005125022C0100200008014002
:104E700010B502215C4800F0FAFC00285DD0022148
:104E8000594800F0D6FC59480078401C5749087032
:104E9000087800EBD0714910A0EB4101534A117022
:104EA00010460078002833D15148807828B95048FE
:104EB000406A401C4E49486204E04D48406A401E2A
:104EC0004B4948624A48806A401C49498862084602
:104ED0004069896A88420AD80021434800F0ACFC46
:104EE00001204449086000204149487010BD4048F5
:104EF000006A3F49496A88420ADC00213A4800F0CA
:104F00009BFC01203B490860002039494870EDE7CF
:104F100037484078022811D133482430008834497A
:104F2000C98808444FF6FF7190FBF1F201FB1200B3
:104F300084B221462C4800F00CFD52E02C48407809
:104F400001284ED12A48806A2949C969884215D862
:104F50002748006B2649896A30F81100224924311C
:104F6000098808444FF6FF7190FBF1F201FB120033
:104F700084B221461C4800F0ECFC32E01C48406939
:104F80001B49C969401A1A49896A884218D81848C1
:104F900040691749896A401A1549096B31F81000B0
:104FA00011492431098808444FF6FF7190FBF1F252
:104FB00001FB120084B221460B4800F0CAFC10E04D
:104FC0000948243000880A49C98808444FF6FF710F
:104FD00090FBF1F201FB120084B22146024800F07E
:104FE000B8FC00BF82E7000000040040CC010020B4
:104FF000AC0000209C01234210B58AB00446012178
:105000000220FFF7BFFA01210520FFF7CBFA27485E
:1050100090FBF4F02649C8624020ADF80400182047
:105020008DF8070003208DF8060001A92148FDF73F
:1050300029FB4FF6FF70ADF82000601E80B2ADF87E
:105040001C000020ADF82200ADF81E0007A91A4888
:1050500000F082FC3020ADF80C004FF4FA70ADF88F
:1050600012000120ADF80E000020ADF8140003A9D5
:10507000114800F017FC00210F4800F05FFC0122EE
:1050800002210D4800F004FC1D208DF808000220CC
:105090008DF8090000208DF80A0001208DF80B0022
:1050A00002A8FEF7C3FA0AB010BD000000512502A5
:1050B000AC000020000801400004004010B50221AF
:1050C000644800F0D4FB002872D00221614800F04F
:1050D000B0FB61480078401C5F490870087800EB1D
:1050E000D0714910A0EB41015B4A11701046007865
:1050F000002834D15948807828B95848406A401C63
:105100005649486204E05548406A401E5349486287
:105110005248806A401C5149886208464069896A41
:10512000884207D800214B4800F086FB00204B49FD
:10513000487010BD4948006A4849496A88420EDCF7
:105140000021444800F078FB0020444948700120C9
:10515000434981F82B0043A0FBF7E4F8E9E7404816
:10516000007806280FD13E4890F8240058B93F48EF
:105170000068012807D00021364800F05DFB0020C0
:1051800036494870D5E735484078022811D1314872
:10519000243000883149C98808444FF6FF7190FBDC
:1051A000F1F201FB120084B221462A4800F0D1FB43
:1051B0004EE02A48806A2949C969884215D827489B
:1051C000006B2649896A30F8110022492431098888
:1051D00008444FF6FF7190FBF1F201FB120084B21C
:1051E00021461C4800F0B5FB32E01C4840691B49D1
:1051F000C969401A1949896A884218D8174840690C
:105200001649896A401A1549096B31F8100011498D
:105210002431098808444FF6FF7190FBF1F201FB3D
:10522000120084B221460B4800F093FB10E00948BD
:10523000243000880949C98808444FF6FF7190FB63
:10524000F1F201FB120084B22146024800F081FB1A
:1052500000BF6EE700080040CD0100206C01002077
:105260001004002066756C6C0D0A000038012342A2
:1052700010B58AB0044601210420FFF783F901210B
:105280000920FFF78FF9274890FBF4F02649C86200
:105290004020ADF8040018208DF8070003208DF899
:1052A000060001A92148FDF7EDF94FF6FF70ADF8B2
:1052B0002000601E80B2ADF81C000020ADF8220076
:1052C000ADF81E0007A91A4800F046FB3020ADF8E3
:1052D0000C004FF4FA70ADF812000120ADF80E008A
:1052E0000020ADF8140003A9114800F0DBFA0021FA
:1052F0000F4800F023FB012202210D4800F0C8FAFC
:105300001E208DF8080002208DF8090000208DF87D
:105310000A0001208DF80B0002A8FEF787F90AB0F9
:1053200010BD0000005125026C010020000C01405E
:105330000008004010B50221564800F098FA0028F5
:1053400056D00221534800F074FA53480078401CAC
:1053500051490870087800EBD0714910A0EB410169
:105360004D4A11701046007868BB4C48807828B9C7
:105370004A48406A401C4949486204E04748406A3C
:10538000401E464948624548806A401C434988623D
:1053900008464069896A884207D800213D4800F0E4
:1053A0004BFA00203D49487010BD3C48006A3B491B
:1053B000496A884207DC0021364800F03DFA0020A7
:1053C00036494870F0E735484078022811D1314815
:1053D000243000883149C98808444FF6FF7190FB9A
:1053E000F1F201FB120084B221462A4800F0B1FA22
:1053F0004EE02A48806A2949C969884215D8274859
:10540000006B2649896A30F8110022492431098845
:1054100008444FF6FF7190FBF1F201FB120084B2D9
:1054200021461C4800F095FA32E01C4840691B49AF
:10543000C969401A1949896A884218D817484069C9
:105440001649896A401A1549096B31F8100011494B
:105450002431098808444FF6FF7190FBF1F201FBFB
:10546000120084B221460B4800F073FA10E009489C
:10547000243000880949C98808444FF6FF7190FB21
:10548000F1F201FB120084B22146024800F061FAF9
:1054900000BF89E7000C0040CE0100206C00002016
:1054A00010B58AB0044601210820FFF76BF80121EE
:1054B0000520FFF777F8274890FBF4F02649C862EB
:1054C0000120ADF8040018208DF8070003208DF8A6
:1054D000060001A92148FDF7D5F84FF6FF70ADF899
:1054E0002000601E80B2ADF81C000020ADF8220044
:1054F000ADF81E0007A91A4800F02EFA3020ADF8CA
:105500000C004FF4FA70ADF812000120ADF80E0057
:105510000020ADF8140003A9114800F0C3F90021E0
:105520000F4800F00BFA012202210D4800F0B0F9FB
:1055300032208DF8080002208DF8090000208DF837
:105540000A0001208DF80B0002A8FEF76FF80AB0E0
:1055500010BD0000005125026C0000200008014031
:10556000000C004010B501210D4800F080F9B0B1E9
:1055700001210B4800F05DF90A480078012808D0A5
:10558000FCF766FCFCF73EFAFDF7D2FCFDF72EF8BF
:1055900005E00548007810B103200249087010BDED
:1055A000001000403C0400203E04002010B5012102
:1055B0000B4800F05CF9012810D10121084800F0E7
:1055C00038F908480068401C064908600648006829
:1055D00008B9012000E000200349086010BD000068
:1055E00000140040200000209001224210B58AB033
:1055F000044601214803FEF7D5FF01211020FEF7E4
:10560000D1FF01210846FEF7CDFF304890FBF4F0B2
:105610002F49C8624020ADF8240018208DF82700DB
:1056200003208DF8260009A92A48FDF72BF84FF42E
:105630007A70ADF81C00601E80B2ADF81800002032
:10564000ADF81E00ADF81A008DF8200006A922481A
:1056500000F082F9012211461F4800F019F90121DA
:105660001D4800F0E3F87020ADF808000020ADF808
:1056700010000120ADF80A004FF4FA70ADF80E00EA
:1056800002A9154800F00EF90821134800F056F958
:105690000121114800F0BEF82C208DF804000220F2
:1056A0008DF8050000208DF8060001208DF8070018
:1056B00001A8FDF7BBFF0121074800F0C9F8002150
:1056C000054800F0B9F80AB010BD000000A24A0475
:1056D000EC000020001001400034014010B5012111
:1056E0004A4800F0C4F8002842D00121474800F0A1
:1056F000A0F84748807828B94548406A401C44498A
:10570000486204E04248406A401E414948624048BD
:10571000806A401C3E49886208464069896A88421E
:1057200007D80021394800F087F800203849487030
:1057300010BD3748006A3649496A884207DC0021B3
:10574000324800F079F8002031494870F0E73048DD
:10575000407802280DD12E48C1882C4800F0F7F877
:105760002B48C48804EBD4704110284800F0F1F8AD
:105770004AE02748806A2649C969884215D82448E2
:10578000006B234A926A30F81210204800F0DFF8CC
:105790001F48006B1E4A926A30F8124004EBD47026
:1057A00041101A4800F0D5F82EE019484069184910
:1057B000C969401A1649896A884218D8144840694C
:1057C000134A926A801A124A126B32F810100F486C
:1057D00000F0BDF80E4840690D4A926A801A0C4AE2
:1057E000126B32F81010094800F0B3F80CE00848CA
:1057F000C188064800F0ABF80548C48804EBD470B3
:105800004110024800F0A5F800BF91E700340140C4
:10581000EC00002021B1028842F08002028004E006
:1058200002884FF67F731A4002807047CA43028293
:105830007047CA430282704721B1028842F00102D8
:10584000028004E002884FF6FE731A40028070471F
:1058500031B1B0F8442042F40042A0F8442005E001
:10586000B0F84420C2F30E02A0F84420704730B5CF
:105870000246002000230024158A05EA01039589C9
:1058800005EA010413B10CB1012000E0002030BD95
:105890001AB183890B43838102E083898B4383811F
:1058A0007047000070B5002400220023058C4FF6DD
:1058B000FE7635400584028C8388048B4FF68F7505
:1058C0002C40B51E2C400D882C43751E2A400D8996
:1058D0002A434D882A43144DA8420BD0134DA842A9
:1058E00008D0134DA84205D0124DA84202D0124D47
:1058F000A84213D14FF6F7752A404D892A434FF637
:10590000FB752A408D882A434FF6FF652B404FF6E2
:10591000FF552B408D892B43CD892B4383800483F6
:10592000CD888586028470BD002C01400034014082
:105930000040014000440140004801400A46002167
:10594000018B4FF6F773194011430183704781852E
:105950007047818670470000002202881D4B9842E4
:105960000ED01D4B98420BD0B0F1804F08D01B4B8E
:10597000984205D01A4B984202D01A4B984204D153
:105980004FF68F731A404B881A43174B984207D033
:10599000164B984204D04FF6FF431A40CB881A4367
:1059A00002808B8883850B8803850A4B98420BD035
:1059B000094B984208D00E4B984205D00D4B9842A7
:1059C00002D00D4B984201D10B7A038601238382CA
:1059D00070470000002C01400034014000040040EA
:1059E00000080040000C004000100040001400407F
:1059F0000040014000440140004801401048007848
:105A000050B91048007838B90F48007820B90F48CD
:105A1000007808B9012070470948007809280DD19D
:105A2000084800780E2809D1074800780D2805D1CC
:105A3000064800780D2801D10120ECE70020EAE7B4
:105A4000B0030020CC030020E80300201004002055
:105A50001FB518A0FAF766FC01211020FEF792FD91
:105A60000920ADF8080041F61F40ADF80400002001
:105A7000ADF80A00ADF8060001A91348FFF76CFF66
:105A8000012211461048FFF703FF36208DF8000071
:105A900002208DF8010003208DF8020001208DF80E
:105AA00003006846FDF7C2FD01210748FFF7C4FE69
:105AB0001FBD00005461736B5468726561645F4977
:105AC0006E69740D0A0000000010004010B5FDF76B
:105AD00051FE40F225511E4800F055F810B31C4805
