:020000040800F2
:10000000485E00208502000819460008B53F000838
:100010001D450008F30B0008EB7A00080000000003
:10002000000000000000000000000000815A0008ED
:10003000170F00080000000013030008A55E000869
:100040009F0200089F0200089F020008F556000862
:100050009F0200089F020008190F00089F02000875
:100060009F020008151100089F0200089F02000867
:100070009F020008E50C00089F0200089F0200088C
:100080009F0200089F0200089F0200089F020008CC
:100090009F0200089F0200089F02000861110008EB
:1000A0009F0200081D6000089F0200089F020008D0
:1000B00065610008CD630008196600089F0200080A
:1000C0009F0200089F0200089F0200089F0200088C
:1000D0009F020008B17800089F0200089F020008F4
:1000E000950F00089F0200089F0200089F02000869
:1000F000796C00089F0200089F0200089F02000818
:100100009F0200089F020008856800089F020008FF
:100110009F0200089F020008B56A0008496B0008AA
:100120009F0200089F0200089F0200089F0200082B
:1001300000F002F800F06DF80AA090E8000C82448C
:100140008344AAF10107DA4501D100F062F8AFF269
:10015000090EBAE80F0013F0010F18BFFB1A43F0A5
:1001600001031847942D0100B42D01000A444FF0FB
:10017000000C10F8013B13F0070408BF10F8014B06
:100180001D1108BF10F8015B641E05D010F8016B4B
:10019000641E01F8016BF9D113F0080F1EBF10F8AF
:1001A000014BAD1C0C1B09D16D1E58BF01F801CBD2
:1001B000FAD505E014F8016B01F8016B6D1EF9D555
:1001C0009142D6D37047000000230024002500266A
:1001D000103A28BF78C1FBD8520728BF30C148BFAA
:1001E0000B607047642900F02581752900F0228199
:1001F000782900F05B81632900F05B83732900F0AC
:100200006083002070471FB500F055FA1FBD10B580
:1002100010BD00F0BFFB1146FFF7F5FF08F066F9CF
:1002200000F0DDFB03B4FFF7F2FF03BC07F0DBFDDA
:10023000EFF30980704780F309887047EFF3088077
:10024000704780F30888704740BA7047C0BA70475B
:100250000B49D1F800C04A685CF8043B10681844A8
:1002600042F8040B8C4528BFA1F1DC0C8A4228BF60
:10027000A1F1DC02C1F800C04A6020F000407047E4
:10028000DC5700200948804709480047FEE7FEE7A1
:10029000FEE7FEE7FEE7FEE7FEE7FEE7FEE7FEE736
:1002A00004480549054A064B70470000C15E000836
:1002B0003101000848580020485E0020485A0020BC
:1002C000485A0020EFF3108072B6704780F3108810
:1002D0007047204C204D25604FF0000484F30988BE
:1002E0001E4C4FF0010525701D4C4FF080552560C8
:1002F00062B6FEE730B41A4C4FF08055256030BC32
:10030000704730B4164C4FF08055256030BC7047B4
:1003100000BF72B6EFF3098028B1203880E8F00FF3
:1003200010490968086000B50F4880475DF804EB84
:100330000E480F490A7802700A480E490A6802609E
:10034000106890E8F00F203080F309884EF0040E1A
:1003500062B6704720ED00E00000FFFF2E02002093
:1003600004ED00E034020020AD4C00082302002020
:10037000240200203C020020704700000FB4044912
:1003800010B503AA029800F0A1FA10BC5DF814FBA6
:10039000CC01002070B5044685690068C10601D50E
:1003A000302600E02026C00707D070BDD4E9012127
:1003B00030469047206A401C20626D1EF6D570BD05
:1003C00070B5044685690078C00707D170BDD4E9CF
:1003D000012120209047206A401C20626D1EF6D526
:1003E00070BD70B50C460546012A05D028788006F8
:1003F00000D5EA69002302E0012305E05B1C93427B
:1004000002D2E05C0028F9D1A869E618C01AA861F8
:10041000286A184428622846FFF7BCFF04E0D5E9A3
:10042000012114F8010B9047B442F8D32846FFF796
:10043000C7FF70BD2DE9F0410646002410687529FC
:10044000314616A510D0AFF30080002802DA4042F2
:1004500013A507E031688A0701D512A502E0490714
:1004600004D511A5012401E0AFF3008000210A2288
:1004700006F1240709E0B0FBF2FCB0FBF2F302FB4B
:100480001C00303078541846491C0028F3D123460C
:100490002A463046BDE8F04100F0A8B9000000004F
:1004A0002D0000002B0000002000000070B5044665
:1004B0000D4621461068AFF300802188090502D55A
:1004C0000F4A7A4402E00E4A7A440E32002104F1C7
:1004D000240305E000F00F060009965D5E54491CF8
:1004E0000028F7D120780023000704D5702D02D012
:1004F00009B1022311322046BDE8704000F076B900
:10050000EE2701002DE9F05F894604464FF0000A0E
:10051000DFF874B1FB44C0F820A02046E1688847AA
:10052000002874D0252806D0D4E901219047206AFC
:10053000401C2062F1E700265F462046E1688847BC
:100540002028054607DB312D05D2781910F8200C3C
:1005500008B10643F1E7B00701D526F00406C4F858
:100560001CA00027C4F818A02A2D09D0284607F09F
:1005700033FC38B304EB8708303DC8F8185019E055
:1005800059F8041B204604EB87029161E168884713
:10059000012F054618D1E069002820DA26F0200650
:1005A0001DE0D8F8180000EB800005EB4000303863
:1005B000C8F818002046E1688847054607F00CFC9B
:1005C0000028EED1012F0AD02E2D08D12046E16857
:1005D00088477F1C0546022F46F02006C4DBA06931
:1005E000002803DA404246F00106A061F00701D07E
:1005F00026F010066C2D0BD0682D09D04C2D39D06B
:100600006A2D35D0742D35D07A2D33D016E038E0F0
:10061000E1682F4620468847B842054609D16C2F2D
:1006200026D04FF48060E16806432046884705469F
:1006300004E06C2F1AD04FF4807006430DB3A5F17F
:100640004100192802D8203546F400664A4629465A
:10065000204626604E46FFF7C5FD80B101280BD02D
:10066000F61D26F0070000F1080956E74020E4E7F0
:100670008020D8E70020D6E706F104094DE7284698
:1006800052E7206ABDE8F09FC42701000B4910B56E
:10069000A1F17C020A4CC2E93712372106E000EBD7
:1006A000104342F82130074B00FB03400B1EA1F121
:1006B0000101F4DC10BD0120E8E700007C570020B8
:1006C000E119D666CD0D0100032A40F2308010F00A
:1006D000030C00F0158011F8013BBCF1020F6244DD
:1006E00098BF11F801CB00F8013B38BF11F8013B6E
:1006F000A2F1040298BF00F801CB38BF00F8013B1B
:1007000011F0030300F0F480083AC0F0088051F8BB
:10071000043B083A51F804CBA0E80810F5E7121D95
:100720005CBF51F8043B40F8043BAFF30080D207B4
:1007300024BF11F8013B11F801CB48BF11F8012B80
:1007400024BF00F8013B00F801CB48BF00F8012BA3
:1007500070474FF000020429C0F0128010F0030C23
:1007600000F01B80CCF1040CBCF1020F18BF00F8A4
:10077000012BA8BF20F8022BA1EB0C0100F00DB853
:100780005FEAC17C24BF00F8012B00F8012B48BFB1
:1007900000F8012B70474FF0000200B51346944655
:1007A0009646203922BFA0E80C50A0E80C50B1F1C9
:1007B0002001BFF4F7AF090728BFA0E80C5048BFDD
:1007C0000CC05DF804EB890028BF40F8042B08BF7B
:1007D000704748BF20F8022B11F0804F18BF00F877
:1007E000012B704770477047704770472DE9F047FD
:1007F0000D4699469246044600F124080168880691
:1008000004D5E06921F01001216000E00120A84238
:1008100001DD471B00E00027A1697A1902EB0900FE
:10082000081AA0612078C00602D42046FFF7B2FD66
:10083000002608E0D4E901211AF806009047206A52
:10084000401C761C20624E45F4DB2078C0060AD599
:100850002046FFF79FFD06E0D4E9012130209047B4
:10086000206A401C2062381EA7F10107F4DC07E073
:10087000D4E9012118F805009047206A401C206245
:10088000281EA5F10105F3DC2046FFF799FD20782D
:10089000000602D50220BDE8F0870120FBE710B575
:1008A000436913B1AFF3008001E0FFF79AFD012027
:1008B00010BD127800F124010A7000224A70012252
:1008C000EDE711684FF0FF32E9E70000074B70B524
:1008D0000D467B4400F043F80446284600F052F8E9
:1008E00010B14FF0FF3070BD204670BDE37A0000BC
:1008F00010B5203AC0F00B80B1E81850203AA0E8BB
:100900001850B1E81850A0E81850BFF4F5AF5FEAEE
:10091000027C24BFB1E81850A0E8185044BF18C9A1
:1009200018C0BDE810405FEA827C24BF51F8043B48
:1009300040F8043B08BF7047D20728BF31F8023B9C
:1009400048BF11F8012B28BF20F8023B48BF00F830
:10095000012B704701694A1C02610878704700B595
:100960008FB0CDE901310021059105497944CDE9E8
:10097000031011466846FFF7C5FD0FB000BD00002B
:10098000E5FFFFFF007B00F08000704700487047E4
:10099000E45700207546FFF7F9FFAE4605006946AB
:1009A000534620F00700854618B020B5FFF778FCC5
:1009B000BDE820404FF000064FF000074FF0000860
:1009C0004FF0000B21F00701AC46ACE8C009ACE8E1
:1009D000C009ACE8C009ACE8C0098D46704710B545
:1009E0000446AFF300802046BDE81040FFF71ABC74
:1009F00021B1826842F00102826003E0826822F045
:100A0000010282607047000010B50446124884421B
:100A100008D10121401504F0ADFD0021601504F05E
:100A2000A9FD17E00D48844208D10121001504F00A
:100A3000A1FD0021201504F09DFD0BE00848844233
:100A400008D10121C80304F095FD00214FF40040B6
:100A500004F090FD10BD000000240140002801407A
:100A6000003C0140014600208A6802F004020AB1FD
:100A7000012000E0002070470146C86C80B270473A
:100A80000246002013680B400BB1012000E000205B
:100A90007047014600208A6802F008020AB101206E
:100AA00000E000207047000030B50246002000231F
:100AB00050680F4C20400D790C6844EA052420430F
:100AC000506090680B4C2040D1E902542C434D7982
:100AD00044EA450420439060D06A20F470000C7C06
:100AE000641EE4B2234340EA0350D06230BD0000EC
:100AF000FFFEF0FFFDF7F1FFF0B504460D460020C4
:100B00000021092D11DDE068A5F10A0606EB460774
:100B1000072606FA07F18843A5F10A0606EB460602
:100B200003FA06F10843E0600CE0206905EB450795
:100B3000072606FA07F1884305EB450603FA06F196
:100B400008432061072A0FDA606B561E06EB860702
:100B50001F2606FA07F18843561E06EB860605FA9D
:100B600006F10843606322E00D2A0FDA206BD61FDE
:100B700006EB86071F2606FA07F18843D61F06EB09
:100B8000860605FA06F10843206310E0E06AA2F148
:100B90000D0606EB86071F2606FA07F18843A2F129
:100BA0000D0606EB860605FA06F10843E062F0BD85
:100BB000816841F008018160704721B1826842F488
:100BC000A002826003E0826822F4A0028260704783
:100BD000816841F004018160704710B503F020FC8A
:100BE00004F048FD03F0E8F903F09AFC03F0D4FBAD
:100BF00010BD00BFFEE7000012480078042812DC98
:100C000011480068012801D0012070470F48806812
:100C1000C0690E49098A884212D00C488068407821
:100C200070B90120F1E709488068C0690749098A5D
:100C3000884205D005488068407808B90120E4E77B
:100C40000020E2E73404002008012242E8030020EB
:100C500010480068012814D10F480068012816D1F7
:100C60000E484068407890B90D484068C0690C490A
:100C7000496988420BD10A484068407838B9012058
:100C8000704706484068407808B90120F8E700201E
:100C9000F6E70000080122420C81224234040020C1
:100CA0000C04002010B506480068012805D000217A
:100CB000402000F019FC002010BD0120FCE70000DE
:100CC0000481224210B506480068012805D00021A1
:100CD000102000F009FC002010BD0120FCE70000FE
:100CE0003801234210B54FF4007000F0D5F850B130
:100CF0004FF4007000F00CF880210348FFF74BFD23
:100D0000024803F0F9FB10BDF41E00203000024041
:100D100000F0805111B10349086001E002494860C8
:100D200070470000040402400000024021B1026844
:100D300042F00102026004E002684FF6FE731A40BE
:100D40000260704701684FF6FE7211400160002199
:100D5000016041608160C1604B49884208D14A49C5
:100D60000839496841F00F01474A083A51608AE062
:100D700045491431884208D143490839496841F04E
:100D8000F001414A083A51607DE03F4928318842EC
:100D900008D13D490839496841F470613A4A083A36
:100DA000516070E038493C31884208D136490839F1
:100DB000496841F47041344A083A516063E032496D
:100DC0005031884208D130490839496841F47021CE
:100DD0002D4A083A516056E02B496431884208D1C7
:100DE00029490839496841F47001274A083A516095
:100DF00049E025497831884208D1234908394968B2
:100E000041F07061204A083A51603CE01F49884235
:100E100006D1011F096841F00F01021F116032E085
:100E20001A491431884208D11849091F096841F04C
:100E3000F001164A121F116025E01449283188423A
:100E400008D11249091F096841F470610F4A121F45
:100E5000116018E00D493C31884208D10B49091F47
:100E6000096841F47041094A121F11600BE00749FB
:100E70005031884207D10549091F096841F47021A2
:100E8000024A121F11607047080002400804024025
:100E90000146486880B2704701460020002201F0F8
:100EA000805313B1054B1A6801E0054B1A6802EA3A
:100EB00001030BB1012000E0002070470004024054
:100EC000000002401AB103680B43036002E00368AC
:100ED0008B430360704710B50022026847F6F07339
:100EE0009A430C6A8B6823430C6923434C69234360
:100EF0008C692343CC6923434C6A23438C6A234384
:100F00001A430260CB6843600B6883604B68C36020
:100F100010BD41607047704710B5012000F0B6F970
:100F200070B3322007F042F916480078072810DD28
:100F300015480068012820D01448006AC8281CD928
:100F40000021134805F046FF002010494870086250
:100F500013E00C48007806280FD10A4890F82800C2
:100F600001280AD108480068012806D00021084855
:100F700005F030FF002005494870012000F080F99D
:100F800010BD0000340400200081224278010020BE
:100F90000008004010B541A0FFF7F0F94FF4806061
:100FA00000F074F9A8B1322007F000F93E4800685B
:100FB000012807D100213D4805F00CFF00203C49E5
:100FC000C86148703BA0FFF7D9F94FF4806000F08A
:100FD00057F94FF4006000F059F9B0B1C82007F09C
:100FE000E5F83148001D0068012807D00021354888
:100FF00005F0F0FE00203449C86148704FF40060ED
:1010000000F03EF931A0FFF7B9F94FF4805000F03D
:101010003DF9D0B1322007F0C9F823480830006804
:1010200001280BD100212D4805F0D4FE01201E49D6
:101030007431086000202A49C86148704FF480501C
:1010400000F01EF927A0FFF799F94FF4005000F0C7
:101050001DF9B0B1322007F0A9F813480C30006830
:10106000012807D10021234805F0B4FE00202249C1
:10107000C86148704FF4005000F002F91FA0FFF75C
:101080007DF94FF4004000F001F930B14FF4004019
:1010900000F0F6F81CA0FFF771F910BD65787469CF
:1010A00031352D31300D0A0028012342002C01403A
:1010B0004C00002047455F73746172745F53656E26
:1010C0000D0A0000000C00408800002047435F72BA
:1010D0006F745F53656E0D0A00000000000400404D
:1010E000C400002047435F7665725F73656E0D0A2A
:1010F00000000000003401400001002045787469C0
:101100002031330D0A000000657874692031350DF7
:101110000A00000010B5082000F0B8F8A0B1322095
:1011200007F044F809480068012807D1002180072A
:1011300005F050FE00200649C8614870082000F004
:101140009FF804A0FFF71AF910BD00000C8122429D
:101150003C0100206578746920330D0A000000000E
:1011600010B5202000F092F8B0B1322007F01EF840
:101170002E480068012809D10021800705F02AFEC9
:101180002B4840692B49C86100204870202000F09E
:1011900077F829A0FFF7F2F8402000F077F8A8B11F
:1011A000322007F003F82148001D0068012807D10C
:1011B0000021254805F00EFE00202449C861487032
:1011C000402000F05DF822A0FFF7D8F84FF48070BF
:1011D00000F05CF8E8B1322006F0E8FF2048007823
:1011E000062812D11F48006801280ED11D48001D95
:1011F0000068012809D000211B4805F0EBFD002004
:101200001A4948701AA0FFF7B9F84FF4807000F03F
:1012100037F84FF4007000F039F830B1322006F0A2
:10122000C5FF4FF4007000F02BF810BD148122426E
:10123000340400203C010020474F485F656E645F26
:1012400073656E0D0A000000000800407801002060
:10125000474F565F73746172745F53656E0D0A0079
:10126000C803002020012342002C01404C00002034
:1012700047455F646F776E5F53656E200D0A00000F
:101280000149086070470000140401400146002035
:101290000022074B1B6803EA0102054B14331B684D
:1012A0000B4013B10AB1012000E00020704700009C
:1012B00000040140002123498279002A3AD00A46DD
:1012C000126803689A430B461A600A1D1268036885
:1012D0009A430B1D1A60027911440A6803681A4385
:1012E0000A60184A0832126803689A43154B08339B
:1012F0001A601A1D126803689A43124B0C331A6065
:101300004279102A0ED11A1F126803681A430D4B36
:1013100008331A601A1D126803681A43094B0C330C
:101320001A600DE00749427911440A6803681A43BC
:101330000A6005E0027911440A6803689A430A606A
:10134000704700000004014008B53D4802683D4870
:1013500001883DA0FFF712F83A48008800F001002C
:1013600068B1374800783F49009008780978491CEF
:101370003C4B197001230622114606F07DFD3148D1
:10138000008800F0200050B1364908780978491CDF
:10139000344B197009230622114606F04DFD2948E9
:1013A000008800F0400050B12E4908780978491CA7
:1013B0002C4B19700A230622114606F03DFD2148E8
:1013C000008800F0100050B1264908780978491CBF
:1013D000244B197008230622114606F02DFD1948EA
:1013E000008800F0800050B11E4908780978491C37
:1013F0001C4B19700B230622114606F01DFD1148E7
:10140000008800F4807050B1164908780978491CAA
:10141000144B19700C230622114606F00DFD0948E5
:10142000008800F4007050B10E4908780978491C12
:101430000C4B19700D230622114606F0FDFC08BD69
:10144000240000206A0400206572726F723A2564DD
:10145000206572726F725F73656E736F7225640DB3
:101460000A000000C701002038B504460D4605F00B
:10147000C1FE0020164988764870082008700020B8
:10148000144981F82000C8700F200870002012490C
:1014900081F8230088701020087000200F4981F81F
:1014A000280088700E2008700D48008840F0020067
:1014B0000B4908800B49009508780978491C094BAD
:1014C000197023460622114606F0D6FC38BD0000EE
:1014D000C8030020E80300200C040020340400208E
:1014E0006A040020C701002070B504460D464E482E
:1014F000008820434C4908804C4805600846008815
:1015000000F0010018B305F075FEFFF71DFF002085
:101510004749887602204870082008700020454915
:1015200081F820000220C8700F2008700020424976
:1015300081F82300022088701020087000203F49A5
:1015400081F82800022088700E20087070BDFFF717
:10155000FBFE3548008800F0200030B109203649F4
:10156000C87000208870102008702F48008800F094
:10157000400038B1304800782F49C870002088708A
:10158000102008702848008800F0100038B12B485F
:1015900000782A49C870002088700E200870224800
:1015A000008800F0800038B1244800782349C870D2
:1015B000002088700E2008701B48008800F480709E
:1015C00030B109201B4988700020C8700F200870B6
:1015D0001548008800F4007008B307201649C87049
:1015E0000020887010200870002081F82300082057
:1015F0001249C870002088700E200870002081F801
:1016000028000C4800780B2809DD0B200949887058
:101610000020C8700F200870002081F820000320EF
:101620000749087000BF91E76A04002024000020E9
:10163000C8030020E80300200C040020340400202C
:101640006804002008B50121302003F083FFFB204F
:10165000ADF8000048208DF803006946054801F008
:1016600089FD0420ADF800006946034801F082FDC1
:1016700008BD0000001401400010014008B5012120
:10168000402003F067FF4FF47F40ADF80000482092
:101690008DF803006946024801F06CFD08BD0000AA
:1016A000001801401CB5FFF7CDFF0121084603F0EB
:1016B00051FF00208DF8040001208DF80600002164
:1016C000032001F037FD0C208DF80500012000906B
:1016D0006846FFF7EFFD0321084601F02BFD0820C7
:1016E0008DF8050000906846FFF7E4FD0521032012
:1016F00001F020FD08208DF80500202000906846AC
:10170000FFF7D8FD0621032001F014FD08208DF815
:101710000500402000906846FFF7CCFD072103201C
:1017200001F008FD0C208DF805008020009068462F
:10173000FFF7C0FD1CBD0EB5FFF7A0FF0121084655
:1017400003F008FF00208DF8080001208DF80A0042
:101750000D21042001F0EEFC08208DF80900800224
:10176000019001A8FFF7A6FD0C21042001F0E2FC86
:1017700008208DF809004002019001A8FFF79AFDAA
:101780000B21042001F0D6FC0C208DF809004FF449
:101790000060019001A8FFF78DFD0A21042001F0EF
:1017A000C9FC08208DF80900C001019001A8FFF7CD
:1017B00081FD0921042001F0BDFC08208DF80900FD
:1017C0008001019001A8FFF775FD0821042001F0B8
:1017D000B1FC08208DF809004001019001A8FFF735
:1017E00069FD28208DF8000002208DF801000020FE
:1017F0008DF8020001208DF80300684602F00EFF0C
:1018000017208DF8000002208DF8010000208DF8CF
:10181000020001208DF80300684602F0FFFE0EBDB5
:101820000149C860704700000020024030B50446FE
:1018300004254FF4302000F06FF80546042D17D131
:101840000C48006940F002000A49086108464461FA
:10185000006940F0400008614FF4302000F05CF86F
:1018600005460448006941F6FD71084001490861D8
:10187000284630BD0020024004200B49C96801F011
:10188000010109B101200EE00749C96801F0040116
:1018900009B1022007E00449C96801F0100109B14B
:1018A000032000E004207047002002400348006944
:1018B00040F08000014908617047000000200240AC
:1018C00070B504460D460426F00200F025F80646E1
:1018D000042E11D10948006940F001000749086150
:1018E0002580F00200F018F806460448006941F629
:1018F000FE71084001490861304670BD0020024079
:10190000024803494860034848607047230167451F
:1019100000200240AB89EFCD00B502460423FFF75B
:10192000ABFF034603E0FFF7A7FF0346521E012B60
:1019300001D1002AF7D102B90523184600BD0000E5
:1019400010B549480078102809D2DFE800F00809EE
:101950000C120F151F292A474C556C7C888980E092
:1019600003F0E6FE7DE003F0E3FE7AE003F0E0FE44
:1019700077E003F0DDFE74E000203B49487081F819
:10198000210081F82000C87008706AE00020364904
:10199000487081F8210081F82000C870087060E06C
:1019A0005FE03248007806280BD1304840780228A2
:1019B00007D100202C49C87081F820000920087048
:1019C0000BE02A480078072807D10020264981F833
:1019D00020000E2008700020C87042E004210A2078
:1019E00002F05EFE3DE000201F49C8700B20087029
:1019F000002081F8200034E01D480078082811D12B
:101A00001B48807802280DD11A484068C0691949DE
:101A10004969884206D10020134981F82000C87026
:101A20000C2008701DE01248007809280AD11048DF
:101A30008078022806D100200B4981F82000C87068
:101A40000D2008700DE0084890F8220030B9002001
:101A5000054981F82000C8700720087001E000E007
:101A600000BF00BF10BD0000E8030020C803002035
:101A7000340400200C04002010B5F9480078102828
:101A800009D2DFE800F0080913282E357AF8F7F6B6
:101A9000F5F4F3F2F1F0F5E1F1490022486811465E
:101AA00006F09EFE0120EE49C870EBE1ED480068AB
:101AB000012803D00220EA49C8700BE0FFF7C8F8FC
:101AC00040B1E74900228868114606F089FE0120EE
:101AD000E349C870D6E10120E3490860E049C870D5
:101AE000D0E10020E04908600120DD49C870C9E16B
:101AF000DB4890F8200028B9D9490878032102F082
:101B0000CFFD39E0D64890F82000012805D1D4490E
:101B10000878012102F0C4FD2EE0D14890F82000A1
:101B2000022820D1CF480068012817D00020CC49D6
:101B300089688870CA49886806F03EFFC84A92687A
:101B400092884FF4C87302FB03F1C54A90680022E3
:101B500006F024FE0120C249C8700DE00320C049F0
:101B600081F8200008E0BE4890F82000032803D147
:101B70000221002002F094FD84E1B94890F8200091
:101B8000F0B9BA480068012815D1B5488068C06925
:101B9000B349098A884208D1B1488068407820B9A1
:101BA0000220AF4981F820007CE0AD49087801218E
:101BB00002F076FD76E00520A94981F8200071E069
:101BC000A74890F82000012812D1A748A83800683B
:101BD000012867D1A64840684078002862D1A04A11
:101BE000118A906806F05EFE01209D49C87059E098
:101BF0009B4890F82000022814D19D484068C06995
:101C00009B49096988424DD199484068407848BB52
:101C1000934AD1695068002206F0E2FD0120904904
:101C2000C8703FE08E4890F82000032805D18C4909
:101C30000878032102F034FD34E0894890F8200050
:101C4000042805D186490878022102F029FD29E0FF
:101C5000834890F8200005280ED181490878012199
:101C600002F01EFD1EE0A6E0A4E08EE07BE06DE049
:101C70005FE047E02FE016E0794890F82000062862
:101C800010D17948A838006801280BD178484068FD
:101C9000407838B9724A118A906806F003FE012034
:101CA0006F49C870EEE06E4890F8220090B96C4819
:101CB00090F8200028B96A490878032102F0F0FC66
:101CC00008E0674890F82000012803D1022108208D
:101CD00002F0E6FCD6E062488068C0696049496964
:101CE000884203D102205E49C8700AE0FEF7B0FFC7
:101CF00038B15B4A518A906806F0D4FD01205849FA
:101D0000C870BFE0574808380068012810D055480F
:101D10000C38006801280BD156484068407838B923
:101D20004F4A5169506806F0BDFD01204C49C8700A
:101D3000A8E04B4A52694A4B9B69D11A484A5068FD
:101D400006F0B0FD01204649C8709BE0444949684F
:101D500089684A0042494868002106F041FD012097
:101D60003F49C8708EE04048A838006801280BD170
:101D70003F484068407838B9394A118A906806F07F
:101D800091FD01203649C8707CE039484068C0693F
:101D90003749096988420CD135484068407840B9D4
:101DA0002F4AD1695068002206F01AFD01202C4903
:101DB000C87067E066E03048008800F4807060B169
:101DC0002749496889684A0025494868002106F082
:101DD00007FD01202249C87053E02748008800F41D
:101DE0000070E0B31E4890F8200000BB1C488068DB
:101DF000C0691B49498A884207DC194880684078D5
:101E000018B902201649C8703BE015488068407830
:101E100020BB13484068407800BB11490022486845
:101E2000114606F0DDFC01200D49C87029E00C4880
:101E300090F82000012824D10B48A8380068012818
:101E40001FD10B484068407840B9054A518A9068D4
:101E5000002206F0C5FC01200149C87011E00DE028
:101E6000E80300202C012342B481224208012242CF
:101E700034040020C80300206A0400200220024924
:101E8000C87000BF00BF10BDE803002010B599481E
:101E90000078102809D2DFE800F008091AD699273F
:101EA00042888991AAB2C3CBE7E821E19248006851
:101EB000012803D102208F49C87007E08D4840688F
:101EC000407818B905210120FFF70EFB10E18A4880
:101ED000001F0068012803D002208649C87002E074
:101EE00084488068407803E1824890F82000A8B1D7
:101EF000804890F82000012810D07E4890F82000FB
:101F000002280AD17B488068407838B90020794996
:101F1000C870032081F8200000E000BFE8E07548A9
:101F200090F8200020B3734890F8200001280DD1CC
:101F3000704880684078D8B900206E49C87008465B
:101F400090F82000401C81F820002DE0694890F8AE
:101F5000200002280DD167484068407840B9002031
:101F60006449C870084690F82000401C81F82000A1
:101F70001AE0604890F82000032815D05D4890F8DA
:101F80002000042810D05B4890F8200005280BD0D2
:101F9000584890F82000062806D1564880684078B6
:101FA00010B902205349C870A2E0A1E051488068EE
:101FB000407810B902204F49C87099E04D484068F8
:101FC000407810B902204B49C87091E04948C06878
:101FD00064280BD949480068012803D102204549EB
:101FE000C87003E010210120FFF77EFA80E041482D
:101FF0004068407810B902203E49C87078E03E48F9
:102000000068012803D102203A49C87007E0394826
:102010004068407818B905210120FFF765FA67E0AC
:1020200034488068407810B902203249C8705FE0B7
:1020300030484068407828B901202E4981F82200B4
:102040000220C87054E02B48C06864280BD92B4884
:102050000068012803D002202649C87003E010213F
:102060000120FFF741FA43E042E02548008800F4F0
:10207000807080B120480068012803D102201D49EA
:10208000C87034E01B484068407800BB052101203F
:10209000FFF72AFA2BE01A48008800F40070B0B16C
:1020A000144890F8200098B913480068012806D118
:1020B00000201049C870012081F8200017E00D4869
:1020C0004068407818B905210120FFF70DFA0EE0AD
:1020D000084890F82000012809D106488068407817
:1020E00028B902200349C870002081F8200000BFF1
:1020F00000BF10BDE8030020300123420801224246
:102100006A04002010B51848C07820B9FFF7B4FC65
:1021100000201549C8601448C078012811D1FFF784
:10212000B5FE1148C068401C0F49C8600846C06829
:1021300044F62061884204D90B4801780320FFF758
:1021400093F90948C07802280CD10748007806287E
:1021500002DCFFF7F5FB05E004480078022801D017
:10216000FFF7EEFB10BD0000E8030020680400202C
:1021700008B546480078012807D145480078444909
:10218000087207200870002048704148007809282C
:102190007AD2DFE800F005062340526167777800C5
:1021A00072E03C480078C0B93B480078A8B93B4889
:1021B000007890B93648007F50B100203449087744
:1021C00002200090C87E01230522062105F054FE5E
:1021D00000202F4908704870887655E02D48007817
:1021E000C0B92D480078A8B92C48007890B9284883
:1021F000007F50B100202649087702200090C87E59
:1022000008230522062105F037FE0020204908702A
:102210004870887638E000201D49087048700846EC
:10222000007F48B10020087702200090C87E032379
:102230000522062105F020FE26E01548007F50B15A
:1022400000201349087702200090C87E042305224D
:10225000062105F011FE17E000200D494870062008
:10226000087011E005F0FCFE58B10D480068012827
:1022700007D00B48001D0068012802D00020044947
:10228000487001E000E000BF00BF08BD6804002006
:10229000C8030020E80300200C04002034040020C0
:1022A0002001234210B556480078092806D2DFE8FD
:1022B00000F0050639466373929FA0009DE05048E8
:1022C000807EF0B94F480068012816D100204C49A3
:1022D000496888704A49486806F06EFB484A526867
:1022E000928802EB82025100454A5068002206F0B3
:1022F00055FA01204249487013E001204049887690
:102300000FE03F48807E01280BD105F0A9FE40B1C7
:102310003B4900224868114606F062FA012038491C
:1023200048706AE005F09CFE40B1354900224868DB
:10233000114606F055FA0120314948705DE03148F8
:10234000006801280BD12E49486808F07FF9002069
:102350002B494968C8610220294948700BE005F003
:102360007FFE40B1264900224868114606F038FA3F
:1023700001202349487040E005F072FE58B1204A20
:1023800052689269A2F164011D4A506806F08AFA07
:1023900001201B49487030E000201949087619488F
:1023A000006801280AD1486808F050F90020144953
:1023B0004968C8610220124948700BE005F050FEE0
:1023C00040B10F4900224868114606F009FA012081
:1023D0000B49487011E005F043FE40B1084A11690D
:1023E0005068002206F0FCF901200549487004E01D
:1023F00003E002200249487000BF00BF10BD00008A
:10240000C80300202801234210B548480078092855
:1024100006D2DFE800F005062A3D4E5667868700A3
:1024200081E04248807E48B9404840684078D8B949
:1024300000203E4948700120887615E03B48807EA8
:10244000012811D13A480068012805D102203749F6
:1024500048700020887607E034484068407818B912
:1024600001210846FFF740F85DE031480068012887
:1024700005D102202D4948700020887607E02B48BE
:102480004068407818B901210846FFF72DF84AE066
:1024900027480068012803D102202449487007E03A
:1024A00022484068407818B901210846FFF71CF817
:1024B00039E01E484068407810B902201B49487036
:1024C00031E01B480068012803D1022017494870F9
:1024D00007E016484068407818B901210846FFF720
:1024E00003F820E0114840684078C8B90F484068B8
:1024F000C0690E490969884205D107200B49087057
:10250000002048700FE00A4808380068012803D10D
:1025100002200649487003E003210120FEF7E4FF92
:1025200001E000E000BF00BF10BD0000C8030020B4
:102530002801234210B51848407820B9FFF7B2FEB1
:1025400000201549C86014484078012811D1FFF7D0
:102550005BFF1148C068401C0F49C8600846C0684E
:1025600044F62061884204D90B4801780220FEF726
:102570007BFF0948407802280CD1074800780428DE
:1025800002DCFFF7F5FD05E004480078022801D0E1
:10259000FFF7EEFD10BD0000C80300206804002016
:1025A00008B5714800780F2809D2DFE800F0080963
:1025B0000C0F1822543C6E98A9C1C6D8D900D0E09F
:1025C00003F0D2F8CDE003F0CFF8CAE066488068A7
:1025D000C16966A0FDF7D2FE03F0C6F8C1E0002095
:1025E000614981F8290048708870087081F82800D6
:1025F000B7E000205C4981F82900487088700870B5
:1026000081F82800084690F82B0058B1002081F886
:102610002B000220009091F82A00082305220621B1
:1026200005F02AFC9DE000204F4981F8280081F840
:1026300029004870084690F82B0058B1002081F816
:102640002B000220009091F82A0004230522062185
:1026500005F012FC85E00020434981F8290048700C
:1026600081F8280088700870084690F82B0058B14F
:10267000002081F82B000220009091F82A0004230A
:102680000522062105F0F8FB6BE03D4800780C2898
:1026900009D13B48C078022805D100203249887012
:1026A000092008701AE0364800780E2816D10D204F
:1026B0002D490870002088703248007801280DD01C
:1026C000314908780978491C2F4B197007230522D6
:1026D000114605F0B1FB07202A49087041E028485F
:1026E0008068C0692649498A884208D1274800681D
:1026F000012804D100201C4988700A20087030E0AD
:1027000023480078401E2249087000201E4900908E
:1027100008780978491C1C4B1970012303221146C3
:1027200005F0AAFB0020104988700B20087018E003
:102730000321082001F0E8FF13E000201249009077
:1027400008780978491C104B19700223032211469E
:1027500005F092FB0321082001F0D6FF01E000E024
:1027600000BF00BF08BD00003404002061646A207F
:10277000626F7820706F733A25640D0A00000000C4
:10278000E803002068040020C70100200001234264
:102790006C04002008B5FA480078002803DC01200A
:1027A000F84981F82C00F74800780F2809D2DFE8B3
:1027B00000F00809213E60D5F5F4F3F2F1F0EFEEF8
:1027C000ED0006E3F048006801280AD1ED49886869
:1027D00007F03CFF0220EB49887000208968C8613F
:1027E00007E00120E749887000228868114605F05B
:1027F000F7FFEEE2E4480C38006801280AD1E1490D
:10280000486807F023FF0220DE49887000204968ED
:10281000C8610BE0FEF7F0F940B1DA4900224868E0
:10282000114605F0DDFF0120D6498870D1E2012074
:10283000D4498870002089688870D249886806F079
:10284000BBF8D1480068012809D1D0A0FDF796FD5A
:10285000CC4AD18C9068002205F0A0FF08E0CEA001
:10286000FDF78CFDC74A918C9068002205F096FF19
:10287000AFE20120C34981F82C000020C049087054
:10288000C04890F8280000BBBF480C3800680128F9
:1028900016D10020BB4949688870BA49486806F0DB
:1028A0008BF8B84A5268928802EB82025100B54A0E
:1028B0005068002205F072FF0120B24988704CE098
:1028C0000120B04981F8280047E0AE4890F8280080
:1028D000012808D1FEF790F928B3AA490878022107
:1028E00001F012FF39E0A74890F82800022820D113
:1028F000A5480068012817D10020A249896888707E
:10290000A049886806F058F89E4A9268928802EBBF
:10291000820251009B4A90684FF4FA5205F03EFF44
:1029200001209849887018E00320964981F8280012
:1029300013E0944890F82800032805D191490878BD
:10294000012101F0E1FE08E08E4890F828000428FB
:1029500003D10321002001F0D7FE3AE2894890F824
:10296000280078BB90480068012826D18F488068ED
:10297000C0698E49098A884211D18C4880684078A4
:1029800068B901207F4981F828005EE0B0E1AEE13E
:1029900092E17FE14BE11FE1E1E057E066E0794839
:1029A0004068407858BB77488068407838BB7549A4
:1029B0000878022101F0A8FE47E00220714981F861
:1029C000280042E0FFE76F4890F8280001281CD15A
:1029D00075480068012813D174488068C06973493C
:1029E000098A884231D17248006801282DD1654A90
:1029F0001169506805F056FF01206249887024E093
:102A00000220604981F828001FE05E4890F8280005
:102A1000022812D16648001F0068012804D05949D5
:102A20000878022101F070FE57480C380068012830
:102A30000BD102205349887007E0524890F82800D3
:102A4000032802D102204F498870C2E101204D497C
:102A500081F82C0000204A4908704A4A116A90689F
:102A600005F020FF012047498870B2E1454890F801
:102A7000280008BB4E4808300068012808D14149A9
:102A80008868002105F00EFF01203E49887065E04E
:102A900002203C498870072008704648008840F0B2
:102AA000100044490880FEF74FFC4248008820F09F
:102AB00010004049088051E0324890F82800012871
:102AC0001AD131480068012804D102202D4981F82B
:102AD000280043E000202B498968887029498868CC
:102AE00005F06AFF274A116A9068002205F078FE17
:102AF00001202449887031E0224890F828000228FB
:102B00002CD12B480830006801281FD100202A4909
:102B1000009008780978491C274B1970022303227A
:102B2000114605F0A9F918480068012803D13C2096
:102B30001349087002E01E20114908700020114955
:102B400081F82C00032101F0DFFD07E000200D4992
:102B50000870887000211020FEF7C6FC39E10A4891
:102B60000C380068012829D10649486807F06EFD35
:102B700002200449887000204968C8612BE00000E9
:102B80006C04002034040020188122426475616CBA
:102B900020626F780D0A000073696E67616C2062B5
:102BA0006F780D0A0000000008012242E8030020AF
:102BB000300123426A040020C7010020FEF71CF800
:102BC00048B1854945F2C0324868002105F008FE49
:102BD000012081498870FCE07F484068C0697E49D7
:102BE000096988420BD17C49486807F02FFD022013
:102BF00079498870084600694968C86116E07748D5
:102C00000068012812D176488068C0697449098A31
:102C100088420BD172488068407838B901206E49EB
:102C200088700A461169506805F03CFED1E06D4895
:102C3000006801280BD16849486807F007FD0220A9
:102C400065498870084640694968C86121E0624862
:102C500090F82C00012804D100218020FEF744FCCC
:102C600017E0FEF72FF880B15E481438006801289D
:102C70000BD0FDF7C1FF60B10120574988700A46AB
:102C80005169506805F00EFE03E00B210120FEF7AC
:102C90002BFC9EE000205049896888704E49886866
:102CA00005F08AFE4C4AD1699068002205F076FD55
:102CB0000120494988708CE04A481438006801288E
:102CC00011D100204449896888704349886805F01B
:102CD00073FE414A91699068002205F05FFD012072
:102CE0003D49887002E002203B49887071E070E045
:102CF0003D48008800F0100018B102203649887065
:102D000066E03948008800F0800018B1022032499E
:102D100088705DE03448008800F40070E8B32E4805
:102D200090F82800F8B92F4808380068012808D121
:102D300029484068407820B90120274981F82800B7
:102D400046E026480068012842D12548406840787E
:102D500010BB214900224868114605F041FD0120C1
:102D60001D49887034E01C4890F82800012815D1CE
:102D70001B488068C0691A49498A884228D1184886
:102D80008068407840B9144A116B5068002205F001
:102D900027FD0120104988701AE016E00E4890F8CF
:102DA0002800022814D111488078022810D10F4839
:102DB000007810280CD1084900224868114605F017
:102DC0000FFD01200449887002E00220024988704A
:102DD00000BF00BF08BD00003404002030012342C2
:102DE000E8030020148122426A0400200C04002021
:102DF00010B5AC4800780F2809D2DFE800F00809C8
:102E00001A2C345A8078A1B3BBCDE6F6F70047E11F
:102E1000A5480068012803D10220A249887007E074
:102E2000A0488068407818B90A210120FEF75CFBB1
:102E300036E19D480C380068012803D102209949E9
:102E4000887007E097484068407818B9072101204A
:102E5000FEF74AFB24E193488068407810B90220CD
:102E6000904988701CE18F4890F8280050B98D482F
:102E700040684078E0B900208A498870012081F8D4
:102E8000280015E0874890F82800012810D08548D0
:102E900090F8280002280AD182488068407838B922
:102EA000002080498870032081F8280000E000BFDE
:102EB000F6E07C4890F82800C0B17A4890F82800E5
:102EC00001280DD177484068407878B900207549CD
:102ED0008870084690F82800401C81F8280005E01A
:102EE000704890F82800022800D000BFD8E06D4854
:102EF0008068407810B902206A498870D0E069483B
:102F000090F8280050B9674880684078B8B9002028
:102F100064498870012081F8280010E0614890F829
:102F2000280001280AD15F488068407838B900201D
:102F30005C498870022081F8280000E000BFAFE003
:102F400059480C380068012803D10220554988707F
:102F500007E054484068407818B907210120FEF77F
:102F6000C3FA9DE04F484068407810B902204D49AF
:102F7000887095E04C48001F0068012803D10220AA
:102F80004849887007E047484068407818B90921E7
:102F90000120FEF7A9FA83E042488068407898B99A
:102FA00040488068C16941A0FDF7E8F93E481838FB
:102FB0000068012803D002203A49887004E000200C
:102FC000384988700C2008706AE03648806840787C
:102FD00040B902203349887008468068C16938A02A
:102FE000FDF7CCF95CE001E0FFE759E039480088E3
:102FF00000F0100018B102202A4988704FE03548CF
:10300000008800F0800018B102202649887046E050
:103010003048008800F4007038B3224890F8280047
:10302000A0B921480C380068012806D100201D49AC
:103030008870012081F8280031E01A484068407803
:1030400098B907210120FEF74FFA28E0154890F8BB
:10305000280001280AD113484068407828B9002088
:1030600010498870022081F8280018E00D4890F877
:103070002800022813D10C480C380068012806D11A
:10308000022008498870002081F8280007E00548E0
:103090004068407818B907210120FEF725FA00BFE3
:1030A00000BF10BD34040020188122426F757420C7
:1030B000626F7820706F733A25640D0A000000007B
:1030C0006E65787420626F7820706F733A25640D96
:1030D0000A0000006A04002010B51448807820B966
:1030E000FFF758FB00201149C8601048807801287C
:1030F00011D1FFF77DFE0D48C068401C0B49C86028
:103100000846C06844F62061884204D9074801781F
:103110000520FEF7A9F905488078022805D1044862
:103120000078022801D0FFF73BFA10BD34040020DC
:103130006804002030B500228B071C0F0F2303FA10
:1031400004F20B4B8C1053F824309343084C8D1031
:1031500044F8253023468C1053F824308C07240F74
:1031600000FA04F42343024C8D1044F8253030BD9E
:10317000080001402DE9F04102460025002600200C
:1031800000230024002791F803C00CF00F0591F8EC
:1031900003C00CF0100CBCF1000F03D091F802C07A
:1031A0004CEA050591F800C0BCF1000F31D014685D
:1031B00000202BE04FF0010C0CFA00F3B1F800C036
:1031C0000CEA03069E4220D183004FF00F0C0CFA4C
:1031D00003F7BC4305FA03FC4CEA040491F803C06E
:1031E000BCF1280F06D14FF0010C0CFA00FCC2F81C
:1031F00014C00AE091F803C0BCF1480F05D14FF0AC
:10320000010C0CFA00FCC2F810C0401C0828D1D3F5
:103210001460B1F800C0BCF1FF0F34DD5468002029
:103220002EE000F1080C4FF0010808FA0CF3B1F899
:1032300000C00CEA03069E4221D183004FF00F0C20
:103240000CFA03F7BC4305FA03FC4CEA040491F8BA
:1032500003C0BCF1280F05D100F1080C08FA0CF8E6
:10326000C2F8148091F803C0BCF1480F07D100F1F7
:10327000080C4FF0010808FA0CF8C2F81080401C46
:103280000828CED35460BDE8F0810000F0B50A46AE
:10329000002300240021002500F00046B6F1004F75
:1032A00002D11D4EF16901E01B4E7168C0F3034568
:1032B00083B200F44016B6F5401F08D121F07061CA
:1032C000154E766826F07066134F7E6012E000F4AB
:1032D0008016B6F5801F06D1032606FA05F4A14331
:1032E00041F0706106E0460D360103FA06F6B1437F
:1032F00041F0706122B1460D360103FA06F6314302
:1033000000F00046B6F1004F02D1034EF16101E03A
:10331000014E7160F0BD0000000001400246002037
:1033200093680B400BB1012000E000207047416121
:10333000704701617047000010B568480078112897
:103340000AD2DFE800F0090A16191C1F29334F586A
:103350006A7CA3ACB5C6C700BDE000F0ABFD0020A1
:103360005E4981F82400487081F823008870087055
:10337000B1E002F0EBF9AEE002F0E8F9ABE002F008
:10338000E5F9A8E00020554981F82400487081F84B
:103390002300887008709EE00020504981F82400C6
:1033A000487081F823008870087094E04C480078D9
:1033B00009280BDB4A4800780B2807DC0020474926
:1033C00081F823008870082008700AE044480078DB
:1033D0000E2806D10F20414908700020887081F81E
:1033E000230078E000203D49887009200870002003
:1033F00081F823006FE03B480068012808D10020D5
:10340000364988700A200870002081F8230003E004
:1034100000212020FEF768F85DE0324800680128AE
:1034200008D100202D4988700B200870002081F8F9
:10343000230003E000212020FEF756F84BE0284847
:1034400000780D2816D12648C078022812D12548C8
:103450000068012808D10020204988700C200870DD
:10346000002081F8230010E000214FF40070FEF7E7
:103470003BF80AE01A4800780E2806D10F201749B9
:1034800008700020887081F8230024E00020134990
:1034900088700D200870002081F823001BE00020B8
:1034A0000E4988700E200870002081F8230012E079
:1034B0000C483C38006801280AD00B4800680128F5
:1034C00006D10020054981F8230088700720087084
:1034D00001E000E000BF00BF10BD00000C040020B0
:1034E000E80300203C0123421081224210B5FA4833
:1034F000007811280AD2DFE800F0090A10213847C5
:103500008BF4F2F1F0EFEEEDECEBEA0049E200F0C3
:10351000DBFC0120F049887043E2F0480068012894
:1035200003D10220EC49887007E00120EA49887045
:1035300000224868114605F053F932E2E748343872
:103540000068012807D1E6480068012803D102205D
:10355000E149887008E00120E149A0310860E149B3
:10356000C1F8AC01DC4988701BE20120DE4908602B
:10357000DC49C1F8B801DA49AC31086000F09AFCC6
:103580000120D54988700CE2D34890F8230028B96F
:10359000D1490878042101F09DF838E0CE4890F830
:1035A0002300012805D1CC490878032101F092F8C5
:1035B0002DE0C94890F8230002281FD1C7480068B1
:1035C000012816D10020C44949688870C24948685A
:1035D00005F0F2F9C04A5268928802EB820251006B
:1035E000BD4A5068002205F0D9F80120BA49887018
:1035F0000DE00320B84981F8230008E0B64890F8B0
:103600002300032803D10221002001F063F8C8E160
:10361000B14890F8230090B9B048083000680128FC
:1036200008D1AD4A5169506805F03CF90120AA491A
:1036300088704BE00220A84981F8230046E0A648A4
:1036400090F82300012807D10020A5499C3108608B
:103650000120A149887039E09F4890F82300022892
:1036600005D19D490878042101F034F82EE09A48EC
:1036700090F82300032805D197490878032101F029
:1036800029F823E0944890F82300042811D19748A2
:103690000068012804D00221002001F01BF815E089
:1036A0008D4A5169506805F0FDF801208A498870FB
:1036B0000CE0894890F82300052807D18B48006862
:1036C000012803D00221002001F004F869E1F6E0AE
:1036D000F4E0BFE081E06CE061E049E02FE025E04C
:1036E000FFE7FDF7DFFA00B37B4890F8230028B925
:1036F00079490878032100F0EDFF16E0764890F84C
:103700002300012805D174490878022100F0E2FF66
:103710000BE0714890F82300022806D1002074497C
:1037200081F8220002206C4988703AE101206A4940
:1037300088700A465169506805F0B4F831E166486E
:1037400090F8230038B900206549A03108600120B5
:10375000614988700BE0604890F82300012806D189
:1037600000205F499C31086001205B49887018E1A6
:103770005A480830006801280CD100205A490860D6
:103780005849C1F8B8015649AC3108600120524986
:10379000887003E000212020FDF7A6FE01E1012052
:1037A0004F499C3108605349C1F88C014A498870DF
:1037B000F7E04F488068C0694D49098A88420BD1BB
:1037C0004B488068407838B90120434988700A46E0
:1037D0009169506805F066F8E3E040480068012808
:1037E00003D102203C49887033E03B4890F8230025
:1037F00028B901203849887000F066FB29E0364876
:1038000090F8230001280CD1334988700B469B693E
:103810000C46E469191B304B1A8C586804F0E0FF21
:1038200017E02D4890F82300022805D101202A49ED
:10383000887000F03FFB0CE0274890F82300032835
:1038400007D101202449887000224868114604F0FD
:10385000C7FFA6E0204890F8230038B9002020498F
:103860009C31086001201C49887026E01A4890F8B5
:103870002300012805D11A49A03108601649887033
:103880001BE0154890F82300022806D101201449B6
:10389000A8310860104988700FE00F4890F82300A5
:1038A00003280AD10120104908600E49C1F8B80167
:1038B0000B49AC3108600849887072E071E00E482D
:1038C000008800F02000C8B1012005499C31086043
:1038D0000149887064E000000C0400203401234298
:1038E000108122420080224280812142080122422E
:1038F000E8030020000023426A0400202A480088D0
:1039000000F0400018B102202849887048E026489D
:10391000008800F40070A0B3244890F8230080B918
:1039200023484068C0692249096B884238D11F4941
:1039300000224868114604F053FF01201B4988709B
:103940002EE01A4890F82300012806D100201949DA
:10395000086001201549887022E0144890F823007F
:1039600002280FD10120144908601449C1F8B80198
:1039700010491031086000F09DFA01200B49887051
:103980000EE00AE0094890F82300032808D101203E
:10399000084908600549887002E0022003498870E0
:1039A00000BF00BF10BD00006A0400200C0400200E
:1039B00034040020AC8122428081214200802242D6
:1039C00010B5FD48007811280AD2DFE800F0090A96
:1039D00015263D45609D9EA6D1E3FBF4F3F2F10070
:1039E0000DE2F5488068B0F5FA6F04D900F062FA8C
:1039F0000220F149887002E2F0480068012803D1F2
:103A00000220ED49887007E0EB484068407818B91B
:103A100006210120FDF768FDF1E1E7488068B0F577
:103A20007A7F10D9E54834380068012807D1E44886
:103A30000068012803D10220DF49887003E00E21CD
:103A40000120FDF751FDDAE1DB488068642802D9E6
:103A50000220D9498870D2E1D74890F82300A8B154
:103A6000D54890F82300012810D0D34890F82300BF
:103A700002280AD1D0484068407838B90220CE499F
:103A800081F823000020887000E000BFB7E1CA4839
:103A900090F8230050B9C8484068407888BB01209E
:103AA000C54981F82300002088702CE0C24890F8B6
:103AB000230001280CD1C048806840F2DC518842C4
:103AC00021D90220BC4981F82300002088701AE027
:103AD000B94890F82300022815D0B74890F8230081
:103AE000032810D0B44890F8230004280AD1B24823
:103AF0004068407828B90320AF4981F823000020AE
:103B0000887000E000BF7AE179E1AB484068407816
:103B100010B90220A849887071E1A74890F82300E5
:103B200078B9A5488068B0F5967F20D9A448006888
:103B300001281CD00120A04981F8230000208870B2
:103B400015E09D4890F82300012810D19A4880681C
:103B500040F2DC5188420AD998483438006801287C
:103B600005D00020944981F823000220887046E1A6
:103B70009148806864280CD9904808300068012872
:103B800003D102208C49887003E00C210120FDF74D
:103B9000ABFC34E188488068B0F57A7F11D987485A
:103BA00034380068012808D102208349887008E071
:103BB000A5E0A3E056E00DE004E00E210120FDF7B2
:103BC00093FC1CE17C484068407810B902207A4997
:103BD000887014E1784890F8230050B976488068DE
:103BE00064283ED9002074498870012081F82300A0
:103BF00037E0714890F8230001280AD16E484068E8
:103C0000407828BB00206C498870022081F823008E
:103C100027E0694890F8230002280AD166488068A6
:103C200064281ED9002064498870032081F823008D
:103C300017E0614890F82300032812D15F4800681C
:103C4000012806D100205C4981F8230002208870F9
:103C500007E059484068407818B906210120FDF76F
:103C600043FCCCE0544890F8230070B95248806877
:103C700051498989884240D900204F4988700120E4
:103C800081F823000020886037E04B4890F823003B
:103C900001280ED1484880684749C98988422CD9F3
:103CA000002045498870022081F8230000208860A8
:103CB00023E0414890F8230002280CD13E48806858
:103CC00064281AD900203C498870032081F8230019
:103CD0000020886011E0384890F8230003280CD1B8
:103CE00035488068B0F5FA7F07D90020324981F85D
:103CF0002300022088700020886080E07FE0314847
:103D0000008800F0200098B12B48806840F2DC5118
:103D1000884273D9294834380068012803D1022029
:103D2000254988706AE00E210120FDF7DDFB65E082
:103D30002448008800F0400060BB2248008800F45E
:103D4000007038B31C4890F8230090B91B480068F5
:103D5000012805D1184981F82300002088704DE022
:103D6000154840684078A8B906210120FDF7BCFB42
:103D700044E0114890F8230001280CD10E488068D7
:103D800040F2DC51884239D902200B4981F82300E6
:103D90000020887032E0084890F82300022813D1F0
:103DA00005488068642829D90320034981F8230045
:103DB0000020887022E000000C040020340123421F
:103DC000108122426A0400200E4890F82300032844
:103DD00014D10C48806840F2DC5188420ED90A4860
:103DE0000068012806D1022006498870002081F869
:103DF000230003E00E210120FDF776FB00BF00BF8A
:103E000010BD00000C0400200001234210B514482E
:103E1000807820B9FFF76AFB0020114988601048BC
:103E20008078012811D1FFF7CBFD0D488068401C38
:103E30000B4988600846806844F62061884204D9AE
:103E4000074801780420FDF70FFB05488078022819
:103E500005D104480078022801D0FFF76DFA10BDA3
:103E60000C0400206804002010B501F007FB00F0EE
:103E700085FA00200C4908600C49C1F8A401012012
:103E8000094908310860091D0860091D08600649D4
:103E900018310860091D086005490860091D08609F
:103EA0000249C1F8B40110BDA08122420080224223
:103EB0008081214210B501200249086000F01CFAFF
:103EC00010BD00008481214210B5044991F8220000
:103ED00000F01EFA00200249086010BD0C0400200A
:103EE0008481214210B501F099FA11490860114905
:103EF0000F48006808F0A7F80AD201200E490860B0
:103F0000642004F01DF901200C49C1F8A00110BD86
:103F10000B490748006808F017F806D20020064948
:103F200008600649C1F8A001F1E706480078EEE70D
:103F3000B80100200000A043A48122420080224258
:103F400000007A43B401002010B500240020154978
:103F500008601549C1F8B001012012490C31086010
:103F6000091D086011490860091D08600D490831E4
:103F700008600D49C1F8A001FFF79CFF01F04EFA5F
:103F800004460B49204607F0DFFF05D20120054912
:103F9000091F0860032010BD00200249091F0860A6
:103FA0000220F8E7AC812242008022428081214237
:103FB0000000204100BFFEE738B5002401217C202D
:103FC00001F0C8FA10208DF8030003208DF80200DC
:103FD00041F20304ADF8004069460F48FFF7CAF804
:103FE00021460D48FFF7A5F94FF47F44ADF8004096
:103FF00069460A48FFF7BEF821460848FFF799F9D5
:104000008024ADF8004069460548FFF7B3F8214623
:104010000348FFF78EF938BD000C01400014014041
:104020000018014010B500200F4908600F480068D3
:1040300020F470200D4908600846006840F44030C4
:10404000086000200A49C1F89001022004F045FEF2
:10405000012005490860022004F03FFE00200549C8
:10406000C1F8840110BD0000840122420008014013
:10407000000021420000224208B50121042001F085
:1040800069FA0121102001F065FA1020ADF8000056
:104090008DF8030003208DF8020069460848FFF7F9
:1040A00069F80220ADF8000069460648FFF762F89B
:1040B0000120054908600549C1F8900108BD0000CC
:1040C000000801400010014084012242000021420A
:1040D00010B500200F4908600F48006820F47020D8
:1040E0000D4908600846006840F44030086001202F
:1040F0000A49C1F89001022004F0EFFD01200549B2
:104100000860022004F0E9FD00200549C1F884019F
:1041100010BD00008401224200080140000021423D
:104120000000224270B5054600241648006820F4BD
:104130007020144908600846006840F400200860B8
:10414000002615E0002010490860022004F0C5FD9B
:1041500001200E49C1F884016006040E0C48006875
:1041600008B1601CC4B2012004F0B7FD701CC6B2D7
:10417000082EE7DB15B9FFF7ABFF01E0FFF752FFB1
:10418000204670BD00080140840122420000224206
:104190001001214270B504461448006820F47020D4
:1041A000124908600846006840F44030086000206A
:1041B0000F490860002516E0E0090E490860600616
:1041C000040E022004F089FD01200B49C1F884018E
:1041D000022004F082FD002005490860022004F05E
:1041E0007CFD681CC5B2082DE6DB70BD00080140EF
:1041F00084012242900121420000224210B50F4862
:10420000006820F470200D4908600846006840F4FA
:104210004030086001200A4908600A49C1F8840159
:10422000042004F05AFD002005490860042004F031
:1042300054FD00200349C1F8840110BD000801406D
:10424000900121420000224210B50F48006820F47E
:1042500070200D4908600846006840F4403008604E
:1042600000200A4908600A49C1F89001042004F0BE
:1042700034FD0120054908600549C1F8900104207A
:1042800004F02BFD10BD0000000801408401224213
:104290000000214210B500241348006820F470206B
:1042A000114908600846006840F4002008600120B9
:1042B0000E49086004F011FD01200D49C1F8840188
:1042C00004F00BFD07E0601CC4B2FA2C03DDFFF71D
:1042D000BBFF012010BD0548803800680028F2D1DE
:1042E0000449086000BFF5E7000801409001214241
:1042F000000022428401224210B5002003490860D8
:1043000000224021902001F0DFF810BD8C012342F3
:1043100010B504460120044908602246402190203F
:1043200001F0D2F810BD00008C01234270B50025C9
:10433000002400BF09E04121902001F0A3F80444CB
:10434000322003F0FDFE681CC5B2052DF3DB05200D
:1043500094FBF0F4A4F13500002801D5002070BDD5
:10436000A4F13500CC2190FBF1F0C0EB001000EB84
:1043700040000A2101EB4000C0B2F0E710B5002078
:1043800004490860FFF778FE00224021902001F0E8
:104390009BF810BD8C01234208B501217C2001F05F
:1043A000D9F84FF4C050ADF8000048208DF8030054
:1043B00069461648FEF7DEFE2020ADF800004820D2
:1043C0008DF8030069461248FEF7D4FE0420ADF8CC
:1043D000000048208DF8030069460E48FEF7CAFE2B
:1043E000FB20ADF8000048208DF8030069460A481C
:1043F000FEF7C0FE4FF60170ADF8000048208DF8C2
:10440000030069460548FEF7B5FE08BD00080140F7
:10441000000C014000100140001401400018014050
:1044200008B50121102001F095F83020ADF800000A
:1044300010208DF8030003208DF80200694604481F
:10444000FEF798FE30210248FEF773FF08BD00001A
:1044500000100140F8B507460D4616461C460D20D3
:104460008DF8000003208DF8010000208DF8020077
:1044700001208DF80300684600F0D0F801210846BD
:1044800001F048F83846FCF75DFC174804801748EF
:10449000056046600020154988600846C460002019
:1044A00008618020486100208861C86108624FF47B
:1044B00080504862002088623846FCF70CFD0122DB
:1044C00002210B48FCF7FEFC01210A4803F038FAF0
:1044D00001213846FCF72AFC4FF40070FCF718FC69
:1044E000034800F009F8F8BDC4010020C81E0020F0
:1044F000300002400048004010B50446002120462C
:10450000FCF714FC044801882046FCF702FD012159
:104510002046FCF70BFC10BDC401002000BFFEE7E5
:1045200038B5002401217C2001F014F810208DF80A
:10453000030003208DF802008224ADF80040694694
:104540002648FEF717FE21462448FEF7F0FE982481
:10455000ADF8004069462248FEF70CFE214620488F
:10456000FEF7E5FE42F28134ADF8004069461D4891
:10457000FEF700FE21461B48FEF7D9FE4224ADF8A7
:10458000004069461848FEF7F5FD21461648FEF73B
:10459000CEFE4FF4E054ADF8004069461148FEF7F6
:1045A000E9FD21460F48FEF7C2FE0424ADF80040A5
:1045B00069460E48FEF7DEFD21460C48FEF7B7FEC1
:1045C0000120ADF8000018208DF8030003208DF8BD
:1045D000020069460148FEF7CDFD38BD00080140E4
:1045E000000C01400010014000180140001401407F
:1045F00010B5482001F094FC242002F0E1F82420BA
:1046000001F0A8FF482002F0BFFA242002F0F0F9E0
:10461000242001F065FE10BD7047000070B5002138
:1046200000230F22C47804B3154C246804F4E0641A
:10463000C4F5E064210AC1F10403CA40447804FAD5
:1046400003F184781440214309010E4C0678A155EA
:10465000047804F01F050124AC4005786D11AD000D
:1046600005F1E025C5F8004109E0047804F01F05D4
:104670000124AC40044D0678761145F8264070BD03
:104680000CED00E000E400E080E100E002490143BD
:10469000024A1160704700000000FA050CED00E0CE
:1046A0000B4A50701278824207D1094A92F82020B2
:1046B000521C074B83F8212003E00022044B83F8AF
:1046C00021200022024BDA701A4611707047000058
:1046D000E80300200B4A50701278824207D1094A41
:1046E00092F82320521C074B83F8242003E0002279
:1046F000044B83F824200022024B9A701A46117052
:10470000704700000C0400200B4A5070127882425F
:1047100007D1094A92F82820521C074B83F8292018
:1047200003E00022044B83F829200022024B9A70F8
:104730001A461170704700003404002010B500F0D4
:1047400013F800F0EFFB00F017FC00F037FC00F06E
:10475000BFFB00F091FB00F0CBFC00F06FFC00F021
:1047600095FC00F002F810BD7047704706480078CD
:10477000012808D105480078FF2804D203480078B2
:10478000401C0249087070472E02002021020020C0
:1047900010B500241A480078012830D1FBF792FDAB
:1047A00004461848007820B116480078401E154984
:1047B000087014480078F8B913480078E0B900F0A0
:1047C000F9FC12481249097850F821001149086093
:1047D0000F4800781049097888420DD00D480068CC
:1047E000806B401C0B49096888630C480068401CBA
:1047F0000A490860FBF785FD2046FBF767FD10BD01
:104800002E02002021020020220200205850002009
:10481000240200203C020020230200200802002085
:1048200010B500240B480078012811D1FBF74AFD90
:1048300004460948007840B908480078FF2804D2A7
:1048400006480078401C054908702046FBF73EFDED
:1048500010BD00002E0200202102002022020020B4
:1048600010B5002413480078012821D1FBF72AFD58
:10487000044611480078C0B10F480078401E0E4928
:1048800008700846007860B90C48007828B92046BE
:10489000FBF71CFD00F054FC0AE02046FBF716FD78
:1048A00006E02046FBF712FD02E02046FBF70EFD76
:1048B00010BD00002E020020220200202102002054
:1048C00010B50B48007890B900F074FC09480078E6
:1048D0000949087009480749097850F82100084932
:1048E00008600846006807490860FBF7F2FC10BD45
:1048F0002E02002024020020230200205850002015
:104900003C02002034020020704700002DE9FE4FD9
:1049100006460F4690461C464FF00009FBF7D2FCB6
:1049200081461F48007828B14846FBF7CFFC3C2061
:10493000BDE8FE8F1B4850F8240060BB01201949D8
:1049400041F824004846FBF7C1FC002342463946A3
:10495000304600F009F9824600200090019003469D
:10496000024651460290204600F03AFC054635B911
:104970000D48007801280CD100F0E2FB09E0FBF7BC
:10498000A1FC81460020074941F824004846FBF776
:104990009DFC2846CCE74846FBF798FC2820C7E753
:1049A00021020020585000202E0200202DE9F04F57
:1049B00085B081468A4693461C46DDE90F78129DF4
:1049C00000200390FBF77EFC03902348007830B171
:1049D0000398FBF77BFC3C2005B0BDE8F08F1F4837
:1049E00050F8240088BB01201C4941F8240003989A
:1049F000FBF76CFC2A464146384600F001FD2B4689
:104A00005A465146484600F0AFF804901198CDE957
:104A1000008002953A4620460E9B049900F0E0FB88
:104A2000064636B90E48007801280CD100F088FB04
:104A300009E0FBF747FC03900020084941F82400F7
:104A40000398FBF743FC3046C6E7FFE70398FBF704
:104A50003DFC2820C0E70000210200205850002023
:104A60002E020020704770472DE9F04106460F46A0
:104A700014464FF000081548007818B11220207035
:104A8000BDE8F081FBF71EFC8046FF2E03D11048E5
:104A9000006890F832600F4850F826502DB9404613
:104AA000FBF714FC43202070EAE7012D05D14046B6
:104AB000FBF70CFC43202070E2E7EF644046FBF775
:104AC00005FC0020207000BFDAE700002102002072
:104AD0003402002058500020704700002DE9F047B4
:104AE00007460D464FF0000A002028606860FBF77B
:104AF000E9FB8246FF2F03D11948006890F8327015
:104B0000184850F827402CB95046FBF7DFFB4320EC
:104B1000BDE8F087012C04D15046FBF7D7FB4320BA
:104B2000F6E7207C00F0010020B95046FBF7CEFBF1
:104B30004520EDE70026D4F80C90D4F808805046C4
:104B4000FBF7C4FB00E0761C58F8041B0029FAD0E0
:104B5000B0002860A9EB0600800068600020D7E75D
:104B6000340200205850002070B5044610464FF023
:104B700080750560051F28462C606FF00106051F33
:104B800028462E604FF01236051F28462E604FF043
:104B90000336051F28462E604FF00236051F2846B3
:104BA0002E607610051F28462E60051F28462960B6
:104BB0004FF01136051F28462E604FF01036051FA6
:104BC00028462E604FF00936051F28462E604FF00C
:104BD0000836051F28462E604FF00736051F284669
:104BE0002E604FF00636051F28462E604FF0053622
:104BF000051F28462E604FF00436051F28462E60FC
:104C000070BD00002DE9F04105464FF00008FBF7AC
:104C100059FB8046FF2D05D12048006890F832509E
:104C2000012608E01D48006890F83200A84201D132
:104C3000012600E000261A4850F825402CB94046CD
:104C4000FBF744FB4820BDE8F081012C04D140462D
:104C5000FBF73CFB4320F6E794F834701148C05D45
:104C600094F8351088430F49C8550846C05D30B9DF
:104C700094F836100C48007888430B49087094F873
:104C8000300040F0080084F830004046FBF71EFB7F
:104C9000012E01D100F054FA0020D4E734020020A4
:104CA00058500020260200202502002070470000F6
:104CB00070B5054600261748007800B170BD16484B
:104CC000007800B1FAE71DB3FBF7FCFA064613487B
:104CD000006890F834401248005D1049096891F866
:104CE000351088430E4908550846005D40B90B4809
:104CF000006890F836100B4800788843094908701E
:104D000006480068C5623046FBF7E0FA00F018FA82
:104D100000BFD3E72102002022020020340200203D
:104D200026020020250200202DE9F04104460D4610
:104D300016461F461248007810B15520BDE8F08194
:104D40001048007808B13220F8E7B81CC821484361
:104D50004FF47A71B0FBF1F14FF461606043C5EB41
:104D6000051200EB8200304400EBC00202EB0010A1
:104D700001EBC0084046FFF79BFF0020DEE7000084
:104D8000210200202202002070B5002600F072F8F7
:104D9000FBF798FA064631480068401C2F49086026
:104DA0003046FBF793FA2E480078012853D12D485E
:104DB000007820B1012804D0022809D103E00125A0
:104DC0000BE0002509E0012501202649087004E0D8
:104DD000012500202349087000BF00BF05B970BD40
:104DE0002148046833E0FBF76DFA0646E06A50B3E9
:104DF000E06A401EE062E06A28BB94F8300000F0F0
:104E0000370040B114F8300F00F0C80020700120C6
:104E10006070303C02E0002084F8310094F83000EB
:104E200000F0080078B93434A078104909780843B4
:104E30000E49087020780E49085C6178084314F820
:104E400034190B4A505464693046FBF73FFA94F822
:104E500032003F28C7D100BFC1E700004C0200204C
:104E60002E020020440200204002002025020020E3
:104E700026020020704700002DE9F0415021114822
:104E800000F02CF900250DE0681C86B20D4800EBFF
:104E9000051400EB06170020207067600AA0E06090
:104EA000681C85B2042DEFD3064800EB05140020E2
:104EB0002070606004A0E060024804490860BDE81A
:104EC000F0810000084C00203F000000100200208C
:104ED00070B5C821114800F001F900230FE0581CFB
:104EE00085B203EB83000D4901EB800405EB8500DF
:104EF00001EB8006002020706660581C83B2092BED
:104F0000EDD303EB8300054901EB80040020207002
:104F1000606008460249086070BD0000404B0020F8
:104F20000C02002000200A4908600A4908700A495A
:104F300008700A4908700A4908700A4908600A4955
:104F400008600A4908600A4908600A490870704701
:104F50004C02002021020020220200202F0200200B
:104F60002E02002008020020300200201C02002037
:104F7000180200202002002000210A4A117000209F
:104F800004E00021084A1154411CC8B20828F8D393
:104F90000021064A1170064A1170064A1160064A3D
:104FA0001160704725020020260200202302002005
:104FB000240200203C0200203402002070B54FF48F
:104FC0007C71194800F08AF84FF48071174800F09E
:104FD00085F8002413E0601CC5B2C4EBC40000EBEC
:104FE0004000114901EB8003C5EBC50000EB400018
:104FF00001EB80065E610EA0D864601CC4B20B2C6D
:10500000E9D3C4EBC40000EB4000074901EB800387
:105010000020586106A0D8640020064908600248B4
:105020000549086070BD000058510020585000200C
:105030003F000000400200203802002000B587B089
:105040000320002180220A4BCDE90132CDE9031073
:105050004FF6FF703F23074A00900748FFF7A6FC72
:1050600006AA06A13F20FFF7FFFC07B000BD000025
:10507000584E0020545000201553000875432F4F00
:10508000532D49492049646C6500000000B587B084
:105090000320002180220A4BCDE90132CDE9031023
:1050A0004FF6FE703E23074A00900748FFF77EFC4C
:1050B00006AA06A13E20FFF7D7FC07B000BD0000FE
:1050C000584C0020544E00203D53000875432F4F8C
:1050D000532D4949205374617400000004E00022FC
:1050E00000F8012B4A1E91B20029F8D17047000048
:1050F0002DE9F04178211048FFF7F0FF00240DE082
:10510000601C86B204EB44000B4901EBC00506EBC2
:10511000460001EBC0072F60601C84B2042CEFD363
:1051200004EB4400044901EBC00500202860084658
:1051300002490860BDE8F08148550020480200207F
:1051400010B50024FBF7BEF8044613480078F8B900
:1051500012480078E0B900F02DF81148114909789B
:1051600050F82100104908600E4800780F4909786E
:1051700088420DD00C480068806B401C0A490968C1
:1051800088630B480068401C09490860FBF7B2F8C7
:105190002046FBF79BF810BD2102002022020020D0
:1051A00058500020240200203C020020230200204E
:1051B000080200200649074A1278885C0649095C03
:1051C000034A515C01EBC001044A117070470000B2
:1051D000B42B010825020020260200202402002012
:1051E0002DE9F84F05460F4690469946DDE90AAB92
:1051F00000200090FBF766F800903F480468002C00
:1052000074D0183454F8040C3B4908600098FBF73C
:105210005DF844F8187CA576002020766076606101
:1052200044F814BC44F80CAC44F8108C0C9824F8E6
:10523000080C24F8069C0020E077E810207705F0A1
:105240000700E076217F01208840A077E17E0120E1
:105250008840607700206060E060A0602062A0620B
:105260006062E062206325A06063183C002606E0CF
:10527000002104F1500040F82610701CC6B2002E28
:10528000F6D02046FFF740FB2046FFF7EBFBFBF78D
:1052900019F800901A4840F825401A4800686061E3
:1052A0000020A0611748006810B1164800688461AA
:1052B000144804603434A07813490978084312492B
:1052C000087020781149085C6178084314F8341993
:1052D0000E4A50540E480078401C0D490870009842
:1052E000FAF7F4FF0020BDE8F88FFFE70098FAF71F
:1052F000EDFF4220F7E70000380200203F000000E9
:1053000058500020400200202502002026020020E4
:105310002F020020002400BF00BFFAF7D3FF04468D
:1053200005480068401C044908602046FAF7CEFF93
:10533000FFF799FBF1E7000030020020002400BFD6
:1053400002E02820FFF7B4FC194800780028F8D0C4
:10535000184800686421B0FBF1F01649086008465F
:10536000006828B9002014490870FF20FFF74AFCA4
:1053700000BFFAF7A7FF044610480068104908600C
:1053800000200E4908602046FAF7A0FF0C4800688C
:1053900008490968B0FBF1F0C0F1640006490870E3
:1053A000FFF79AFB00F00EF81420FFF781FCE0E70E
:1053B00020020020180200201402002030020020E9
:1053C0001C0200207CB5002514E069462846FFF742
:1053D00085FB064666B9094850F8254044B1012CC2
:1053E00006D0D4E9020100EB810060640198A0645A
:1053F000681CC5B23F2DE8D97CBD00005850002084
:1054000002F0010343B102F002032BB102E0491E96
:10541000002308C00029FAD1704700002DE9FC479D
:105420004FF0000A02F04EFD0FFA80FAAAF5CD7097
:105430000FFA80FABAF1000F17DD504606F042FC71
:10544000064600220A4B06F0E5FA04460022094B04
:1054500006F050FC80460022074B06F04BFCCDE9DD
:10546000000106F0A5FABDE8FC870020FBE700007C
:105470000000B0400000F43F00408F4010B502F043
:1054800039FD10BD70B504460D460026FEF7B6FE88
:105490002046FEF77FFEFEF7FDFE2846FEF77AFE69
:1054A000FEF7F8FEFEF7D0FEFEF7A8FE44F001007E
:1054B000FEF770FEFEF7EEFE0020FEF733FE064616
:1054C000FEF7C2FE304670BD70B506460C46154666
:1054D000FEF794FE3046FEF75DFEFEF7DBFE20464B
:1054E000FEF758FEFEF7D6FE2846FEF753FEFEF7FF
:1054F000D1FEFEF7A9FE012070BD0000014600208C
:10550000034A506820F44040084350607047000050
:105510000010024029B1064A52690243044B5A6105
:1055200004E0034A52698243014B5A61704700000C
:105530000010024029B1064AD2690243044BDA61E5
:1055400004E0034AD2698243014BDA6170470000EC
:105550000010024029B1064A92690243044B9A6145
:1055600004E0034A92698243014B9A61704700004C
:105570000010024029B1064AD2680243044BDA60A7
:1055800004E0034AD2688243014BDA6070470000AE
:105590000010024030B500210022002400232D4DD0
:1055A0006D6805F00C0121B1042905D0082923D12B
:1055B00005E0294D056022E0274D05601FE0254DDF
:1055C0006D6805F47012234D6D6805F48034022572
:1055D00005EB92421CB9214D554305600BE01D4D72
:1055E0006D6805F400351DB11C4D5543056002E0A2
:1055F000194D5543056002E0174D056000BF00BF1F
:10560000144D6D6805F0F0010909154D6B5C0568D6
:10561000DD4045600F4D6D6805F4E061090A104DED
:105620006B5C4568DD4085600A4D6D6805F460512E
:10563000C90A0B4D6B5C4568DD40C560054D6D6862
:1056400005F44041890B074D6B5CC568B5FBF3F56C
:10565000056130BD0010024000127A0000093D00D3
:10566000F401002004020020014908607047000096
:105670000000424208B501214020FFF76BFF3C20AB
:10568000ADF8000010208DF8030003208DF8020013
:1056900069460848FDF76EFD002007490860074984
:1056A000C1F88C010449083108600449C1F894012B
:1056B00008BD000000180140880123420000234279
:1056C000024909888143014A11807047042800403B
:1056D00001460020064A12880A40D0B2044A121F2E
:1056E00012880A4012B108B1012000E00020704782
:1056F0000428004010B50120FFF7EAFF20B1012087
:10570000FFF7DEFF00F00AF80220FFF7E1FF20B10B
:105710000220FFF7D5FF00F001F810BD00BF0348DD
:10572000008800F020000028F9D0704704280040CD
:1057300000200549C870084690F8210081F8200033
:105740000846407808707047E803002000200549AB
:105750008870084690F8240081F8230008464078B5
:10576000087070470C040020002005498870084626
:1057700090F8290081F828000846407808707047A2
:105780003404002070B5044600BF2579204600F09F
:105790005FF8281AC0B270BD2DE9F04104460F46EB
:1057A0001546FAF78FFD1B4908602046FFF7EAFF10
:1057B000A84201DD284602E02046FFF7E3FF054648
:1057C00020796179401AA84201DD284602E020795B
:1057D0006179401AC6B20F480068FAF777FD62791E
:1057E0002168881832463946FAF76EFFB54204DD63
:1057F000AA1BB9192068FAF767FF6079284460711D
:105800006079217990FBF1F201FB1200607128466A
:10581000BDE8F08120000020014600BF48798A7968
:10582000904204DD48798A79801AC0B20BE0887909
:105830004A79904206DD88794A79801A0A79101AE5
:10584000C0B200E0002008B9012070470020FCE74A
:10585000014648798A79904204DD48798A79801A2C
:10586000C0B2704788794A79904206DD88794A79D2
:10587000801A0A79101AC0B2F3E70020F1E700009D
:105880002DE9F04104460F461546FAF71BFD1B496A
:1058900008602046FFF7DCFFA84201DD284602E051
:1058A0002046FFF7D5FF05462079A179401AA84286
:1058B00001DD284602E02079A179401AC6B20F48DE
:1058C0000068FAF703FDA27920688118324638464D
:1058D000FAF7FAFEB54204DDAA1BB8192168FAF7F7
:1058E000F3FEA0792844A071A079217990FBF1F210
:1058F00001FB1200A0712846BDE8F08120000020C5
:1059000000B587B001210820FFF724FE012188039C
:10591000FFF710FE4FF46040ADF8180018208DF826
:105920001B0003208DF81A0006A91848FDF722FC79
:105930004FF460411548FDF7FCFC0020ADF8040071
:105940004FF48270ADF806000020ADF80800022088
:10595000ADF80A000120ADF80C004002ADF80E00D1
:105960003820ADF810000020ADF812000720ADF887
:10597000140001A9064800F065F80121044800F070
:1059800047F8FF2000F006F807B000BD000C01400A
:105990000038004070B50546002405E0601CC4B224
:1059A000C82C01DD002070BD02210E4800F03CF83B
:1059B0000028F3D029460B4800F042F8002405E007
:1059C000601CC4B2C82C01DD0020ECE701210548B1
:1059D00000F02AF80028F3D0024800F02EF8C0B2F8
:1059E000E1E700000038004010B504460748008891
:1059F0004FF6C771084005490880084600882043D3
:105A000008800121014800F003F810BD0038004073
:105A100021B1028842F04002028004E002884FF681
:105A2000BF731A40028070470246002013890B4062
:105A30000BB1012000E000207047014688897047C3
:105A40008181704710B50022028802F441520B8810
:105A50004C8823438C882343CC8823430C892343DD
:105A60004C8923438C892343CC8923431A430280E6
:105A7000838B4FF2FF74234083830B8A038210BD14
:105A80007047000070B50026002400252648FFF767
:105A9000C3FEE0B92021002003F00CFA05462021C6
:105AA0002846FAF756FE202229461F48FFF7E8FE4F
:105AB000064600BF04E0285D04F0FCF9601CC4B297
:105AC000B442F8DB2946002003F0E2F9002517482C
:105AD000FFF7A2FE30BB2021002003F0EBF90546C2
