:020000040800F2
:1000000060D400202D020008493C00084D3700084C
:100010004D3B0008BD0A0008FF6400080000000016
:10002000000000000000000000000000854E0008F5
:10003000130E000800000000BB0200081950000861
:10004000470200084702000847020008D94C000890
:100050004702000847020008150E00084702000882
:100060004702000811100008470200084702000874
:10007000470200084702000847020008470200083C
:10008000E90B000847020008470200084702000881
:100090004702000847020008470200085D100008F8
:1000A0004702000891510008470200084702000873
:1000B000D9520008415500088D5700084702000832
:1000C00047020008470200084702000847020008EC
:1000D00047020008C56200084702000847020008FE
:1000E000910E000847020008470200084702000876
:1000F000095E00084702000847020008470200089E
:100100004702000847020008195A00084702000881
:100110004702000847020008495C0008D95C000853
:10012000470200084702000847020008470200088B
:1001300000F002F800F06BF80AA090E8000C82448E
:100140008344AAF10107DA4501D100F060F8AFF26B
:10015000090EBAE80F0013F0010F18BFFB1A43F0A5
:100160000103184748960000689600000A444FF0C3
:10017000000C10F8013B13F0070408BF10F8014B06
:100180001D1108BF10F8015B641E05D010F8016B4B
:10019000641E01F8016BF9D113F0080F1EBF10F8AF
:1001A000014BAD1C0C1B09D16D1E58BF01F801CBD2
:1001B000FAD505E014F8016B01F8016B6D1EF9D555
:1001C0009142D6D37047000000230024002500266A
:1001D000103A28BF78C1FBD8520728BF30C148BFAA
:1001E0000B607047642900F0F980752900F0F680F3
:1001F000782900F02F81632900F0B582732900F07F
:10020000BA82002070471FB51FBD10B510BD00F0A9
:10021000EDFA1146FFF7F7FF06F06EFC00F00BFB5E
:1002200003B4FFF7F2FF03BC06F092F909488047D8
:1002300009480047FEE7FEE7FEE7FEE7FEE7FEE7C8
:10024000FEE7FEE7FEE7FEE704480549054A064BE0
:1002500070470000355000083101000860CE0020D2
:1002600060D4002060D0002060D00020EFF3108028
:1002700072B6704780F310887047204C204D25607F
:100280004FF0000484F309881E4C4FF001052570DF
:100290001D4C4FF08055256062B6FEE730B41A4C15
:1002A0004FF08055256030BC704730B4164C4FF08D
:1002B0008055256030BC704700BF72B6EFF30980EF
:1002C00028B1203880E8F00F10490968086000B5AF
:1002D0000F4880475DF804EB0E480F490A7802701A
:1002E0000A480E490A680260106890E8F00F203052
:1002F00080F309884EF0040E62B6704720ED00E0EE
:100300000000FFFF2602002004ED00E02C02002088
:10031000D54200081B0200201C02002034020020ED
:10032000704700000FB4044910B503AA029800F00A
:1003300027FA10BC5DF814FBC401002070B5044618
:1003400085690068C10601D5302600E02026C00777
:1003500007D070BDD4E9012130469047206A401C87
:1003600020626D1EF6D570BD70B5044685690078B3
:10037000C00707D170BDD4E9012120209047206A31
:10038000401C20626D1EF6D570BD70B50C4605464A
:10039000012A05D02878800600D5EA69002302E00A
:1003A000012305E05B1C934202D2E05C0028F9D1F6
:1003B000A869E618C01AA861286A18442862284665
:1003C000FFF7BCFF04E0D5E9012114F8010B9047C9
:1003D000B442F8D32846FFF7C7FF70BD2DE9F041BE
:1003E0000646002410687529314616A510D0AFF3D3
:1003F0000080002802DA404213A507E031688A072E
:1004000001D512A502E0490704D511A5012401E098
:10041000AFF3008000210A2206F1240709E0B0FBB7
:10042000F2FCB0FBF2F302FB1C00303078541846AB
:10043000491C0028F3D123462A463046BDE8F04146
:1004400000F02EB9000000002D0000002B0000007D
:100450002000000070B504460D4621461068AFF339
:1004600000802188090502D50F4A7A4402E00E4A2D
:100470007A440E32002104F1240305E000F00F0657
:100480000009965D5E54491C0028F7D120780023AE
:10049000000704D5702D02D009B102231132204685
:1004A000BDE8704000F0FCB8CA9000002DE9F05F94
:1004B000894604464FF0000ADFF874B1FB44C0F8E7
:1004C00020A02046E1688847002874D0252806D05F
:1004D000D4E901219047206A401C2062F1E7002600
:1004E0005F462046E16888472028054607DB312D16
:1004F00005D2781910F8200C08B10643F1E7B007CF
:1005000001D526F00406C4F81CA00027C4F818A0E2
:100510002A2D09D0284606F014F838B304EB8708D2
:10052000303DC8F8185019E059F8041B204604EB78
:1005300087029161E1688847012F054618D1E0697B
:10054000002820DA26F020061DE0D8F8180000EB7D
:10055000800005EB40003038C8F818002046E168FC
:100560008847054605F0EDFF0028EED1012F0AD09F
:100570002E2D08D12046E16888477F1C0546022FB2
:1005800046F02006C4DBA069002803DA404246F0AA
:100590000106A061F00701D026F010066C2D0BD0EB
:1005A000682D09D04C2D39D06A2D35D0742D35D019
:1005B0007A2D33D016E038E0E1682F462046884790
:1005C000B842054609D16C2F26D04FF48060E1680F
:1005D000064320468847054604E06C2F1AD04FF4A6
:1005E000807006430DB3A5F14100192802D82035CB
:1005F00046F400664A462946204626604E46FFF7E6
:10060000F1FD80B101280BD0F61D26F0070000F1A6
:10061000080956E74020E4E78020D8E70020D6E725
:1006200006F104094DE7284652E7206ABDE8F09F2D
:10063000A09000004FF0000200B513469446964685
:10064000203922BFA0E80C50A0E80C50B1F12001E5
:10065000BFF4F7AF090728BFA0E80C5048BF0CC093
:100660005DF804EB890028BF40F8042B08BF7047F1
:1006700048BF20F8022B11F0804F18BF00F8012B63
:100680007047704770477047704710B500F08AF8A0
:10069000006810BD10B5044600F084F8046010BD79
:1006A0002DE9F0470D4699469246044600F124088C
:1006B0000168880604D5E06921F01001216000E09E
:1006C0000120A84201DD471B00E00027A1697A193B
:1006D00002EB0900081AA0612078C00602D4204667
:1006E000FFF72CFE002608E0D4E901211AF80600E5
:1006F0009047206A401C761C20624E45F4DB20782F
:10070000C0060AD52046FFF719FE06E0D4E901210C
:1007100030209047206A401C2062381EA7F1010754
:10072000F4DC07E0D4E9012118F805009047206ABD
:10073000401C2062281EA5F10105F3DC2046FFF7CE
:1007400013FE2078000602D50220BDE8F0870120C4
:10075000FBE710B5436913B1AFF3008001E0FFF789
:1007600014FE012010BD127800F124010A7000224D
:100770004A700122EDE711684FF0FF32E9E700000F
:10078000074B70B50D467B4400F015F8044628462B
:1007900000F024F810B14FF0FF3070BD204670BD5E
:1007A0005B6200000048704700CE002001694A1CCF
:1007B00002610878704700B58FB0CDE901310021A2
:1007C000059105497944CDE9031011466846FFF7C4
:1007D0006DFE0FB000BD0000E5FFFFFF007B00F0E5
:1007E000800070470048704700CE00207546FFF734
:1007F000F9FFAE4605006946534620F007008546DE
:1008000018B020B5FFF720FDBDE820404FF00006EE
:100810004FF000074FF000084FF0000B21F00701E8
:10082000AC46ACE8C009ACE8C009ACE8C009ACE82B
:10083000C0098D46704710B50446AFF300802046CE
:10084000BDE81040FFF7ECBC21B1826842F0010224
:10085000826003E0826822F001028260704700003B
:1008600010B504461248844208D10121401504F015
:1008700079F90021601504F075F917E00D488442FC
:1008800008D10121001504F06DF90021201504F0B4
:1008900069F90BE00848844208D10121C80304F03B
:1008A00061F900214FF4004004F05CF910BD000034
:1008B0000024014000280140003C01400146002086
:1008C0008A6802F004020AB1012000E000207047AB
:1008D0000146C86C80B270470246002013680B4086
:1008E0000BB1012000E000207047014600208A681B
:1008F00002F008020AB1012000E000207047000069
:1009000030B502460020002350680F4C20400D797E
:100910000C6844EA05242043506090680B4C20404A
:10092000D1E902542C434D7944EA450420439060B8
:10093000D06A20F470000C7C641EE4B2234340EAC9
:100940000350D06230BD0000FFFEF0FFFDF7F1FF65
:10095000F0B504460D4600200021092D11DDE068A8
:10096000A5F10A0606EB4607072606FA07F18843B3
:10097000A5F10A0606EB460603FA06F10843E06015
:100980000CE0206905EB4507072606FA07F18843C6
:1009900005EB450603FA06F108432061072A0FDA42
:1009A000606B561E06EB86071F2606FA07F1884382
:1009B000561E06EB860605FA06F10843606322E040
:1009C0000D2A0FDA206BD61F06EB86071F2606FAC4
:1009D00007F18843D61F06EB860605FA06F10843A1
:1009E000206310E0E06AA2F10D0606EB86071F26E1
:1009F00006FA07F18843A2F10D0606EB860605FA12
:100A000006F10843E062F0BD816841F008018160B1
:100A1000704721B1826842F4A002826003E08268DC
:100A200022F4A00282607047816841F00401816075
:100A3000704710B503F00CF804F00EF902F088FED0
:100A400003F086F802F0C0FF10BD0000002013493B
:100A500008801349086013480078012819D1002044
:100A60001149887648700120087000200F490876E7
:100A7000C8700520087000200D4981F82300887097
:100A80000520087000200B4981F82400887004209C
:100A900008700420084908707047000052040020C4
:100AA0001C000020AC010020C0030020E003002057
:100AB000FC030020240400205004002000BFFEE7B7
:100AC00012480078042812DC11480068012801D07F
:100AD000012070470F488068406A0E49098A8842A1
:100AE00012D00C488068407870B90120F1E70948BD
:100AF0008068406A0749098A884205D005488068AD
:100B0000407808B90120E4E70020E2E7240400204F
:100B100008012242E003002010480068012814D197
:100B20000F480068012816D10E484068407890B9F7
:100B30000D484068406A0C49496988420BD10A480F
:100B40004068407838B901207047064840684078CE
:100B500008B90120F8E70020F6E70000080122426A
:100B60000C81224224040020FC0300200120704755
:100B700010B506480068012805D00021102000F0BB
:100B8000CDFB002010BD0120FCE70000380123420E
:100B900010480078062819D000200F498876487040
:100BA0000220087000200D490876C87006200870E1
:100BB00000200B4981F8230088700620087000206F
:100BC000084981F824008870052008700820014930
:100BD0000870704750040020C0030020E00300208C
:100BE000FC0300202404002010B54FF4001000F096
:100BF000D1F850B14FF4001000F00CF8FA2103487E
:100C0000FFF718FD024802F08FFF10BD8809002091
:100C10006C00024000F0805111B10349086001E00E
:100C2000024948607047000004040240000002408E
:100C300021B1026842F00102026004E002684FF64E
:100C4000FE731A400260704701684FF6FE72114051
:100C500001600021016041608160C1604B498842B0
:100C600008D14A490839496841F00F01474A083A12
:100C700051608AE045491431884208D14349083916
:100C8000496841F0F001414A083A51607DE03F492E
:100C90002831884208D13D490839496841F47061DA
:100CA0003A4A083A516070E038493C31884208D1EC
:100CB00036490839496841F47041344A083A51606C
:100CC00063E032495031884208D1304908394968D7
:100CD00041F470212D4A083A516056E02B496431A5
:100CE000884208D129490839496841F47001274AE6
:100CF000083A516049E025497831884208D12349B2
:100D00000839496841F07061204A083A51603CE076
:100D10001F49884206D1011F096841F00F01021FD7
:100D2000116032E01A491431884208D11849091F6C
:100D3000096841F0F001164A121F116025E01449BC
:100D40002831884208D11249091F096841F47061AD
:100D50000F4A121F116018E00D493C31884208D13A
:100D60000B49091F096841F47041094A121F1160BB
:100D70000BE007495031884207D10549091F09682E
:100D800041F47021024A121F1160704708000240AE
:100D90000804024001460020002201F0805313B1F4
:100DA000054B1A6801E0054B1A6802EA01030BB112
:100DB000012000E0002070470004024000000240D3
:100DC0001AB103680B43036002E003688B430360BE
:100DD000704710B50022026847F6F0739A430C6A18
:100DE0008B6823430C6923434C6923438C69234359
:100DF000CC6923434C6A23438C6A23431A43026021
:100E0000CB6843600B6883604B68C36010BD416072
:100E10007047704710B5012000F0E0F970B3322040
:100E200005F0F6FC16480078072810DD1548006824
:100E3000012820D01448806AC8281CD900211348F2
:100E400005F090F8002010494870886213E00C48C3
:100E5000007806280FD10A4890F8240001280AD10A
:100E600008480068012806D00021084805F07AF8F3
:100E7000002005494870012000F0AAF910BD0000CB
:100E800024040020008122426C0100200008004060
:100E900010B541A0FFF746FA4FF4806000F09EF9CC
:100EA000A8B1322005F0B4FC3E480068012807D103
:100EB00000213D4805F056F800203C494862487042
:100EC0003BA0FFF72FFA4FF4806000F081F94FF458
:100ED000006000F083F9B0B1C82005F099FC3148FA
:100EE000001D0068012807D00021354805F03AF8B8
:100EF00000203449486248704FF4006000F068F9FF
:100F000031A0FFF70FFA4FF4805000F067F9D0B12D
:100F1000322005F07DFC23480830006801280BD101
:100F200000212D4805F01EF801201E49743108608B
:100F300000202A49486248704FF4805000F048F978
:100F400027A0FFF7EFF94FF4005000F047F9B0B1D8
:100F5000322005F05DFC13480C300068012807D1F1
:100F60000021234804F0FEFF002022494862487017
:100F70004FF4005000F02CF91FA0FFF7D3F94FF405
:100F8000004000F02BF930B14FF4004000F020F9A0
:100F90001CA0FFF7C7F910BD6578746931352D3194
:100FA000300D0A0028012342002C01402C000020B3
:100FB00047455F73746172745F53656E0D0A00007C
:100FC000000C00406C00002047435F726F745F5359
:100FD000656E0D0A0000000000040040AC00002017
:100FE00047435F7665725F73656E0D0A000000000F
:100FF00000340140EC000020457874692031330D45
:101000000A000000657874692031350D0A0000007F
:1010100010B5082000F0E2F8A0B1322005F0F8FB8E
:1010200009480068012807D10021800704F09AFFD1
:101030000020064948624870082000F0C9F804A062
:10104000FFF770F910BD00000C8122422C01002036
:101050006578746920330D0A0000000010B5202067
:1010600000F0BCF8B0B1322005F0D2FB3F48006878
:10107000012809D10021800704F074FF3C48406931
:101080003C49486200204870202000F0A1F83AA0B6
:10109000FFF748F9402000F0A1F8A8B1322005F090
:1010A000B7FB3248001D0068012807D100213648EF
:1010B00004F058FF0020354948624870402000F095
:1010C00087F833A0FFF72EF94FF4807000F086F810
:1010D000F8B1322005F09CFB31480078072814D184
:1010E0003048007870B93048006801280DD10021DF
:1010F0002E4804F037FF00202D4948702DA0FFF73F
:1011000011F902E00020274908704FF4807000F0C8
:101110005FF84FF4007000F061F828B3322005F05A
:1011200077FB1F480078062803D01D480078072861
:1011300016D11D4810300068012811D11A48001D31
:10114000006801280CD10021184804F00BFF002092
:10115000174948701BA0FFF7E5F8012011490870F6
:101160004FF4007000F034F810BD000014812242EA
:10117000240400202C010020474F485F656E645F07
:1011800073656E0D0A000000000800406C0100202D
:10119000474F565F73746172745F53656E0D0A003A
:1011A000C00300202B00002020012342002C01401E
:1011B0002C00002047455F646F776E5F53656E209B
:1011C0000D0A000047455F75705F53656E0D0A009C
:1011D00001490860704700001404014001460020E6
:1011E0000022074B1B6803EA0102054B14331B68FE
:1011F0000B4013B10AB1012000E00020704700004D
:1012000000040140002123498279002A3AD00A468D
:10121000126803689A430B461A600A1D1268036835
:101220009A430B1D1A60027911440A6803681A4335
:101230000A60184A0832126803689A43154B08334B
:101240001A601A1D126803689A43124B0C331A6015
:101250004279102A0ED11A1F126803681A430D4BE7
:1012600008331A601A1D126803681A43094B0C33BD
:101270001A600DE00749427911440A6803681A436D
:101280000A6005E0027911440A6803689A430A601B
:10129000704700000004014010B50B4806F0F2F85A
:1012A0000A4806F0EFF80A4806F0ECF8094806F09C
:1012B000E9F8094806F0E6F8084806F0E3F80020E7
:1012C0000749087010BD00002C000020AC00002071
:1012D0006C000020EC0000202C0100206C0100209C
:1012E0005004002010B5044802680448018804A096
:1012F000FFF718F810BD00001C0000205204002069
:101300006572726F723A2564206572726F725F73D4
:10131000656E736F7225640D0A00000070B5044697
:101320000D464048008820433E4908803E480068FA
:1013300028433D4908603B48008800F00300F0B1B5
:10134000FFF7AAFFFFF7CEFF0020384988764870E4
:101350000A200870002036490876C8700F200870EF
:101360000020344981F82300887010200870002084
:10137000314981F8240088700E20087070BDFFF795
:10138000B1FF2848008800F0200030B10920294929
:10139000C87000208870102008702248008800F073
:1013A000400038B1234800782249C8700020887076
:1013B000102008701B48008800F0100038B11E484B
:1013C00000781D49C870002088700E2008701548EC
:1013D000008800F0800038B1174800781649C870BE
:1013E000002088700E2008700E48008800F480707D
:1013F00030B109200E4988700020C8700F20087095
:101400000848008800F4007030B109200949C8700C
:10141000002088701020087003200849087000BF61
:10142000ACE70000520400201C000020C003002094
:10143000E0030020FC0300202404002050040020CE
:1014400008B50121302003F07DFBFB20ADF8000042
:1014500048208DF803006946054801F0FFFA042092
:10146000ADF800006946034801F0F8FA08BD000035
:10147000001401400010014008B50121402003F094
:1014800061FB4FF47F40ADF8000048208DF8030069
:101490006946024801F0E2FA08BD00000018014068
:1014A0001CB5FFF7CDFF0121084603F04BFB0020E0
:1014B0008DF8040001208DF806000021032001F0C2
:1014C000ADFA0C208DF80500012000906846FFF76A
:1014D00099FE0321084601F0A1FA08208DF80500C5
:1014E00000906846FFF78EFE0521032001F096FA72
:1014F00008208DF80500202000906846FFF782FE46
:101500000621032001F08AFA08208DF8050040200A
:1015100000906846FFF776FE0721032001F07EFA6F
:101520000C208DF80500802000906846FFF76AFEC9
:101530001CBD0EB5FFF7A0FF0121084603F002FB1A
:1015400000208DF8080001208DF80A000D210420EC
:1015500001F064FA08208DF809008002019001A8CA
:10156000FFF750FE0C21042001F058FA08208DF8F6
:1015700009004002019001A8FFF744FE0B2104205E
:1015800001F04CFA0C208DF809004FF40060019036
:1015900001A8FFF737FE0A21042001F03FFA0820D6
:1015A0008DF80900C001019001A8FFF72BFE092169
:1015B000042001F033FA08208DF809008001019021
:1015C00001A8FFF71FFE0821042001F027FA0820D8
:1015D0008DF809004001019001A8FFF713FE2820B3
:1015E0008DF8000002208DF8010000208DF8020027
:1015F00001208DF80300684602F028FB17208DF8C3
:10160000000002208DF8010000208DF8020001206A
:101610008DF80300684602F019FB0EBD10B547486F
:101620000078102809D2DFE800F008090C120F1525
:101630001D252D464B51667B84857CE003F0ACFB79
:1016400079E003F0A9FB76E003F0A6FB73E003F07A
:10165000A3FB70E000203949487048760876C870CE
:10166000087068E000203549487048760876C870F0
:10167000087060E03148807E18B90321082002F02C
:1016800027FB58E02E48007807280AD12C484078DC
:10169000022806D100202949C87008760920087060
:1016A00008E027480078092804D10E202349087053
:1016B0000020C8703FE004210A2002F009FB3AE054
:1016C00000201E49C8700B20087034E01D480078C7
:1016D00008280FD11B48807802280BD11A4840688F
:1016E000406A19494969884204D100201349C870E9
:1016F0000C2008701FE01348007809280FD111480A
:10170000807802280BD110484068406A0E49496928
:10171000884204D100200949C8700D2008700AE0F1
:101720000648807E20B900200449C8700720087050
:1017300001E000E000BF00BF10BD0000E00300209A
:10174000C003002024040020FC03002010B5BC4886
:101750000078102809D2DFE800F0080913282E3598
:1017600075E4F0EEEDECEBEAE9E867E1B44900225C
:101770004868114605F080FA0120B149C8705DE162
:10178000B0480068012803D00220AD49C8700BE0C2
:10179000FFF7C2F940B1AA4900228868114605F056
:1017A0006BFA0120A649C87048E10120A6490860EB
:1017B000A349C87042E10020A34908600120A04964
:1017C000C8703BE19E48007E28B99D4908780321F6
:1017D00002F07EFA35E09A48007E012805D198494A
:1017E0000878012102F074FA2BE09548007E022867
:1017F0001FD194480068012817D0002090498968BB
:1018000088708F49886805F023FB8D4A926892881A
:101810004FF4C87302FB03F1894A9068002205F077
:1018200009FA01208649C8700BE003208449087634
:1018300007E08348007E032803D10221002002F044
:1018400047FAFBE07E48007E28B97D4908780121EF
:1018500002F03EFA64E07A48007E01281AD17A4804
:10186000A8380068012805D175490878022102F0DE
:101870002FFA55E075484068406A74490969884202
:101880004ED1724840684078002849D103206C4905
:10189000087645E06A48007E02281CD16C48006842
:1018A000012814D169484068406A6849096988423A
:1018B00036D166484068407820BB01206049C87036
:1018C0000A46118A9068002205F0D6F928E0032024
:1018D0005B49087624E05A48007E032805D1584920
:1018E0000878032102F0F4F91AE05548007E042834
:1018F00009D1534A518A9068002205F0BDF90120B0
:101900004F49C8700CE04E48007E052808D14E486B
:10191000A8380068012803D10221002002F0D8F97C
:101920008CE002204649C87088E077E075E05FE00F
:1019300048E03CE02FE017E0FFE741488068406A5C
:101940003F494969884203D102203D49C8700AE0F5
:10195000FFF7E2F838B13A4A518A906805F0EEF99B
:1019600001203749C87069E0364808380068012806
:1019700010D034480C38006801280BD13548406835
:10198000407838B92E4A5169506805F0D7F90120DE
:101990002B49C87052E02A4A5269A2F57A51284A66
:1019A000506805F0CBF901202549C87046E024496C
:1019B00043F274124868002105F05EF901202049C5
:1019C000C8703BE01F480068012803D002201C4972
:1019D000C8700CE0FFF7A0F848B119494FF4C8628D
:1019E0008868002105F048F901201549C87025E0F4
:1019F00016484068406A1549096988420CD1134865
:101A00004068407840B90E4A118A9068002205F07B
:101A100033F901200A49C87010E00FE00E48008831
:101A200000F4807048B1064943F2741248680021FE
:101A300005F022F901200249C87000BF00BF10BDA7
:101A4000E00300202C012342B48122422404002020
:101A500008012242C00300205204002010B575483E
:101A60000078102809D2DFE800F008091ABE7C27A8
:101A70003E6B6C748E96A7B4D0D1D8E06E480068E7
:101A8000012803D102206B49C87007E0694840680B
:101A9000407818B910210120FFF740FCC7E06648E4
:101AA000001F0068012803D002206249C87002E0CC
:101AB000604880684078BAE05E48007E90B15D483A
:101AC000007E01280ED05B48007E022809D15948CB
:101AD0008068407830B900205649C87003200876E5
:101AE00000E000BFA3E05348007E30B35148007EC1
:101AF000012824D04F48007E02280BD14D48806831
:101B00004078D0B900204B49C8700846007E401C80
:101B1000087614E04748007E032810D04548007E30
:101B200004280BD143488068407830B900204149EF
:101B3000C8700846007E401C087600E000BF76E0D2
:101B400075E03C488068407810B902203949C87077
:101B50006DE038484068407810B902203549C870B7
:101B600065E03448C06864280CD93448006801280E
:101B700003D102202F49C87004E04FF40041012036
:101B8000FFF7CCFB53E02B484068407810B90220A7
:101B90002849C8704BE028480068012803D102207A
:101BA0002449C87007E023484068407818B91021DC
:101BB0000120FFF7B3FB3AE01F48001F006801282F
:101BC00003D002201B49C87002E01A4880684078A0
:101BD00000BF18488068407820B9012015498876F0
:101BE0000220C87023E01348C06864280CD9134849
:101BF0000068012803D002200E49C87004E04FF4A9
:101C000000410120FFF78AFB11E010E00A4800685C
:101C1000012803D102200749C87007E00548406841
:101C2000407818B910210120FFF778FB00BF00BFF2
:101C300010BD0000E00300203001234208012242D1
:101C400010B51448C07820B9FFF780FD0020114975
:101C5000C8601048C078012810D1FFF7FFFE0D487A
:101C6000C068401C0B49C8600846C06844F6206143
:101C7000884203D900210220FFF750FB0548C078B5
:101C8000022805D104480078022801D0FFF7C6FCDD
:101C900010BD0000E00300205004002010B52F48C4
:101CA0000078012807D12E4800782D4908720920B4
:101CB0000870002048702A4800780B284BD2DFE8D3
:101CC00000F006070D1217181E284148490042E08F
:101CD000002023490870487088763CE000202049A5
:101CE0000870487037E000201D490870487032E0E5
:101CF00031E000201A494870062008702BE00020CF
:101D0000174948700720087000204876012008769F
:101D100021E01348407E78B104F0CEFC88B1114830
:101D2000006801280DD00F48001D0068012808D068
:101D300000200B49487004E0002009494870082041
:101D4000087008E0002006494876487006200870B0
:101D500001E000E000BF00BF10BD00005004002003
:101D6000C00300202001234210B5794800780B28D9
:101D700007D2DFE800F006073A47647493B4CAE676
:101D8000E700E3E07248807EF0B9724800680128FD
:101D900016D100206E49496888706D49486805F081
:101DA00057F86B4A5268928802EB82025100684AE7
:101DB0005068002204F03EFF01206549487013E09E
:101DC0000120634988760FE06148807E01280BD1AD
:101DD00004F072FC40B15E4900224868114604F0EC
:101DE0004BFF01205A494870B0E004F065FC40B157
:101DF000574900224868114604F03EFF012054492B
:101E00004870A3E05348006801280BD15049486846
:101E100005F038FB00204E494968486202204C49D1
:101E200048700BE004F048FC40B149490022486882
:101E3000114604F021FF01204549487086E004F076
:101E40003BFC58B1424A5268126AA2F16401404A0E
:101E5000506804F073FF01203D49487076E000208F
:101E60003B4908763B48006801280AD1486805F0DC
:101E700009FB00203649496848620220344948700D
:101E80000BE004F019FC40B13149002248681146CA
:101E900004F0F2FE01202E49487057E02D48001F43
:101EA0000068012803D102202949487016E004F097
:101EB00003FC98B1264A5269254B1B691A44244BEE
:101EC0005B689B8832246343C3EB4201204A50681D
:101ED000002204F0D1FE01201D49487036E004F0D4
:101EE000EBFB88B100201A49496888701849486896
:101EF00004F0AEFF164A116950684FF4FA6204F01C
:101F000099FE01201249487020E004F0D5FBB8B1D9
:101F100000200F49496888700D49486804F098FF0F
:101F20000B4A52689288C2EB02125100084A50686C
:101F3000002204F07FFE0120054948700020487609
:101F400004E003E002200249487000BF00BF10BD5A
:101F5000C00300202801234210B55A4800780B28FE
:101F600007D2DFE800F006072B3E4F57687FA3AB90
:101F7000AC00A5E05348807E48B95248406840789C
:101F8000D8B900204F4948700120887615E04D48A7
:101F9000807E012811D14C480068012805D102201B
:101FA000484948700020887607E0464840684078F5
:101FB00018B901210846FFF7B1F981E042480068ED
:101FC000012805D102203F4948700020887607E0AB
:101FD0003C484068407818B901210846FFF79EF94F
:101FE0006EE039480068012803D102203549487065
:101FF00007E034484068407818B901210846FFF7E7
:102000008DF95DE02F484068407810B902202D49D5
:10201000487055E02C480068012803D10220294966
:10202000487007E027484068407818B90121084601
:10203000FFF774F944E023484068407888B92248A3
:10204000001F0068012804D11E490876022048704C
:1020500007E000201B4948700920087007201B4931
:1020600008702DE0174840684078F0B91648001F06
:10207000006801280AD0144808380068012805D1F2
:10208000022010494870012048760EE00E48001FDB
:102090000068012805D102200A49487000204876CE
:1020A00003E006210120FFF739F909E005484068FF
:1020B000407810B902200349487001E000E000BFF9
:1020C00000BF10BDC003002028012342500400209F
:1020D00010B51448407820B9FFF746FE002011499A
:1020E000C86010484078012810D1FFF735FF0D482F
:1020F000C068401C0B49C8600846C06844F62061AF
:10210000884203D900210220FFF708F905484078EA
:10211000022805D104480078022801D0FFF7BEFD4F
:1021200010BD0000C00300205004002010B553482B
:1021300000780F2809D2DFE800F008090C0F1822F8
:10214000362C40596A84899D9E0095E002F03EFE3F
:1021500092E002F03BFE8FE048488068416A48A068
:10216000FEF7E0F802F032FE86E00020434981F8F5
:10217000250048708870087081F824007CE00020F9
:102180003E4981F8250048708870087081F8240065
:1021900072E00020394981F8250048708870087085
:1021A00081F8240068E00020344981F82500487057
:1021B0008870087081F824005EE0364800780C28AA
:1021C00009D13448C078022805D100202B498870F5
:1021D0000920087009E02F4800780E2805D10D204D
:1021E000264908700020887000BF45E029488068B3
:1021F000406A2849498A884208D12748006801284E
:1022000004D100201D4988700A20087034E0FEF7D0
:102210002DF822490860194890F82600401C1749FB
:1022200081F826001E480078401E1D4908701B4892
:102230000068FEF71FF80020104988700B20087016
:102240001AE00321082001F073FD15E0FEF70EF8F7
:1022500012490860094890F82700401C074981F896
:1022600027000E480068FEF705F80321082001F05A
:102270005FFD01E000E000BF00BF10BD24040020AE
:1022800061646A20626F7820706F733A25640D0A6A
:1022900000000000E003002000012342180000209D
:1022A0005804002010B5FA480078002803DC01200B
:1022B000F84981F82A00F74800780F2809D2DFE8AA
:1022C00000F00809213F63D8F5F4F3F2F1F0EFEEE6
:1022D000ED0059E2F048006801280AD1ED4988680C
:1022E00005F0D0F80220EB49887000208968486228
:1022F00007E00120E749887000228868114604F051
:10230000BBFC41E2E4480C38006801280AD1E149ED
:10231000486805F0B7F80220DE4988700020496857
:1023200048620CE0FEF7CCFB48B1DA4945F2C03216
:102330004868002104F0A0FC0120D649887023E2FF
:102340000120D4498870002089688870D149886844
:1023500004F07EFDD048006801280AD1CFA0FDF727
:10236000E1FFCC49002288684FF4FA7104F062FC66
:1023700009E0CDA0FDF7D6FFC649002288684FF4DA
:102380002F7104F057FCFFE10120C24981F82A00B7
:102390000020BF490870BF4890F8240000BBBE4829
:1023A0000C380068012816D10020BA4949688870A5
:1023B000B849486804F04CFDB64A5268928802EB6E
:1023C00082025100B34A5068002204F033FC01201D
:1023D000B04988704CE00120AE4981F8240047E004
:1023E000AC4890F82400012808D1FEF769FB28B317
:1023F000A8490878022101F09BFC39E0A54890F833
:102400002400022820D1A4480068012817D1002008
:10241000A049896888709F49886804F019FD9D4A21
:102420009268928802EB820251009A4A90684FF4B7
:10243000FA5204F0FFFB01209649887018E003204F
:10244000944981F8240013E0924890F8240003286E
:1024500005D190490878012101F06AFC08E08D4817
:1024600090F82400042803D10321002001F060FC2F
:102470008AE1884890F8240048BBFEF721FB002839
:102480005AD085480C380068012810D1814890F84E
:102490002400401C7F4981F824004DE062E160E1A6
:1024A00045E132E1E2E0BEE09FE046E055E08248EF
:1024B0008068406A8049498A88423DD17E48806868
:1024C000407808BB0221002001F032FC34E0714862
:1024D00090F82400012818D178480068012810D10C
:1024E00077480068012827D073488068407858B939
:1024F000684A1169506804F021FC01206549887020
:102500001AE002206349887016E0624890F82400BF
:10251000022811D1FEF7D4FA70B167488068406A8A
:102520006549498A884207D163488068407818B96C
:102530000221002001F0FCFB26E10120554981F831
:102540002A00002052490870524A116A906804F02B
:10255000F5FB01204F49887016E14E4890F82400A1
:1025600058B9FEF705FB38B34A498868002104F0E2
:10257000E5FB01204749887036E0464890F8240082
:1025800001281AD144480068012804D10220414999
:1025900081F8240028E000203E49896888703D4980
:1025A000886804F055FC3B4A116A9068002204F0E8
:1025B00041FB01203749887016E0364890F8240026
:1025C000022811D134480068012803D13C20304949
:1025D000087002E01E202E49087000202D4981F865
:1025E0002A00032101F0A4FBCEE02B480C38006840
:1025F00001280AD12749486804F044FF02202549F0
:1026000088700020496848620CE0FEF759FA48B12A
:10261000204945F2C0324868002104F02DFB01201A
:102620001C498870B0E01B484068406A1949096934
:1026300088420BD11749486804F024FF022015494D
:10264000887008460069496848620EE01C480068C6
:1026500001280AD019480068012806D10D49887060
:102660000A461169506804F069FB8DE00A48001FB2
:102670000068012826D10749486804F003FF0220BA
:102680000449887008464069496848623CE0000097
:102690005804002024040020188122426475616CD3
:1026A00020626F780D0A000073696E67616C2062AA
:1026B0006F780D0A00000000E003002008012242AC
:1026C0002C012342314890F82A00012804D100212E
:1026D0008020FEF723FE17E0FEF74AFA78B12C4877
:1026E000006801280BD0FEF7EBF968B101202749FB
:1026F00088700A465169506804F020FB04E04FF4EA
:1027000080611120FEF70AFE3EE000201F49896823
:1027100088701E49886804F09BFB1C4AD169906848
:10272000002204F087FA0120184988702CE018482C
:102730000068012811D10020144989688870134964
:10274000886804F085FB114A91699068002204F0C2
:1027500071FA01200D49887002E002200B4988704F
:1027600012E011E00B48008800F0100018B10220C0
:102770000649887007E00748008800F0800010B123
:1027800002200249887000BF00BF10BD2404002051
:10279000008122425204002010B57D4800780F28A5
:1027A00009D2DFE800F008091B2D355B79719AAC7E
:1027B000B4C7E0F0F100E8E076480068012803D1F2
:1027C00002207349887008E071488068407820B919
:1027D0004FF400710120FEF7A1FDD6E06D480C38E2
:1027E0000068012803D102206949887007E0684821
:1027F0004068407818B940210120FEF78FFDC4E001
:1028000063488068407810B9022061498870BCE054
:102810005F4890F8240050B95D4840684078E0B9BE
:1028200000205B498870012081F8240015E0584899
:1028300090F82400012810D0554890F82400022870
:102840000AD153488068407838B9002050498870D0
:10285000032081F8240000E000BF96E04C4890F887
:10286000240080B14A4890F8240001280AD1484841
:102870004068407838B9002045498870022081F8C6
:10288000240000E000BF80E041488068407810B933
:1028900002203F49887078E03D4890F8240050B904
:1028A0003B4880684078B8B90020394988700120D9
:1028B00081F8240010E0364890F8240001280AD15D
:1028C00033488068407838B9002031498870022048
:1028D00081F8240000E000BF57E02E480C38006863
:1028E000012803D102202A49887007E0284840685F
:1028F000407818B940210120FEF710FD45E024483A
:102900004068407810B90220214988703DE0214894
:10291000001F0068012803D102201D49887008E0CB
:102920001B484068407820B94FF480710120FEF7C1
:10293000F5FC2AE016488068407898B91448806809
:10294000416A15A0FDF7EEFC12481838006801280E
:1029500003D002200E49887004E000200C498870E2
:102960000C20087011E00A488068407840B90220C5
:102970000749887008468068416A0CA0FDF7D2FCC0
:1029800003E001E0FFE700E000BF00BF10BD000072
:1029900024040020188122426F757420626F782011
:1029A000706F733A25640D0A000000006E6578743C
:1029B00020626F7820706F733A25640D0A00000062
:1029C00010B51448807820B9FFF76CFC002011493D
:1029D000C86010488078012810D1FFF7DDFE0D484F
:1029E000C068401C0B49C8600846C06844F62061B6
:1029F000884203D900210220FEF790FC0548807828
:102A0000022805D104480078022801D0FFF78EFB88
:102A100010BD0000240400205004002030B5002226
:102A20008B071C0F0F2303FA04F20B4B8C1053F887
:102A300024309343084C8D1044F8253023468C10E5
:102A400053F824308C07240F00FA04F42343024C7B
:102A50008D1044F8253030BD080001402DE9F041CB
:102A6000024600250026002000230024002791F8BC
:102A700003C00CF00F0591F803C00CF0100CBCF172
:102A8000000F03D091F802C04CEA050591F800C090
:102A9000BCF1000F31D0146800202BE04FF0010C86
:102AA0000CFA00F3B1F800C00CEA03069E4220D1F4
:102AB00083004FF00F0C0CFA03F7BC4305FA03FC3C
:102AC0004CEA040491F803C0BCF1280F06D14FF082
:102AD000010C0CFA00FCC2F814C00AE091F803C023
:102AE000BCF1480F05D14FF0010C0CFA00FCC2F804
:102AF00010C0401C0828D1D31460B1F800C0BCF14C
:102B0000FF0F34DD546800202EE000F1080C4FF078
:102B1000010808FA0CF3B1F800C00CEA03069E4263
:102B200021D183004FF00F0C0CFA03F7BC4305FAD8
:102B300003FC4CEA040491F803C0BCF1280F05D152
:102B400000F1080C08FA0CF8C2F8148091F803C0E0
:102B5000BCF1480F07D100F1080C4FF0010808FA4A
:102B60000CF8C2F81080401C0828CED35460BDE891
:102B7000F0810000F0B50A46002300240021002562
:102B800000F00046B6F1004F02D11D4EF16901E0A0
:102B90001B4E7168C0F3034583B200F44016B6F5CE
:102BA000401F08D121F07061154E766826F07066DE
:102BB000134F7E6012E000F48016B6F5801F06D138
:102BC000032606FA05F4A14341F0706106E0460DC4
:102BD000360103FA06F6B14341F0706122B1460DA9
:102BE000360103FA06F6314300F00046B6F1004F15
:102BF00002D1034EF16101E0014E7160F0BD0000B1
:102C000000000140416170470161704710B56248A2
:102C1000007811280AD2DFE800F0090A1316191CFF
:102C2000232A444D5F7198A1AABBBC00B2E000F01A
:102C3000A3FE0020584981F8230088700870A9E09D
:102C400002F0B6F8A6E002F0B3F8A3E002F0B0F8A4
:102C5000A0E00020504981F823008870087099E0B6
:102C600000204D4981F823008870087092E04B489D
:102C7000007809280BDB494800780B2807DC002086
:102C8000454981F8230088700820087008E043480F
:102C900000780E2804D10F203F490870002088706A
:102CA00078E000203C49887009200870002081F8F5
:102CB00023006FE03A480068012808D10020364917
:102CC00088700A200870002081F8230003E00021AA
:102CD0002020FEF723FB5DE031480068012808D181
:102CE00000202D4988700B200870002081F82300F7
:102CF00003E000212020FEF711FB4BE0274800787D
:102D00000D2816D12548C078022812D12448006821
:102D1000012808D10020204988700C20087000206C
:102D200081F8230010E000214FF40070FEF7F6FA5E
:102D30000AE01A4800780E2806D10F2016490870BC
:102D40000020887081F8230024E000201249887058
:102D50000D200870002081F823001BE000200E49A0
:102D600088700E200870002081F8230012E00C48C3
:102D70003C38006801280AD00A480068012806D1BA
:102D80000020054981F8230088700720087001E0C1
:102D900000E000BF00BF10BDFC030020E0030020E6
:102DA0003C0123421081224210B5F44800781128DA
:102DB0000AD2DFE800F0090A102138478BC5F2FB80
:102DC000EFEEEDECEBEAE900D6E100F0E3FB0120E9
:102DD000EA498870D0E1EA480068012803D102205E
:102DE000E649887007E00120E449887000224868BD
:102DF000114603F041FFBFE1E14834380068012883
:102E000007D1E0480068012803D10220DB4988701F
:102E100008E00120DB49A0310860DB49C1F8AC01C2
:102E2000D6498870A8E10120D8490860D649C1F880
:102E3000B801D449AC31086000F0A2FB0120CF49B1
:102E4000887099E1CD4890F8230028B9CB490878DB
:102E5000042100F053FF38E0C84890F8230001280F
:102E600005D1C6490878032100F048FF2DE0C3488A
:102E700090F8230002281FD1C1480068012816D10C
:102E80000020BE4949688870BC49486803F0E0FFEB
:102E9000BA4A5268928802EB82025100B74A5068DF
:102EA000002203F0C7FE0120B44988700DE0032022
:102EB000B24981F8230008E0B04890F823000328C5
:102EC00003D10221002000F019FF55E1AB4890F832
:102ED000230028B9A9490878042100F00FFF2EE04B
:102EE000A64890F82300012805D1A44908780321B9
:102EF00000F004FF23E0A14890F82300022811D13C
:102F0000A3480068012804D00221002000F0F6FE4A
:102F100015E09A4A5169506803F010FF0120974963
:102F200088700CE0954890F82300032807D1984852
:102F30000068012803D00221002000F0DFFE1BE121
:102F4000FDF714FEF8B18D4890F8230028B98B499D
:102F50000878032100F0D2FE15E0884890F823009D
:102F6000012805D185490878022100F0C7FE0AE052
:102F7000824890F82300022805D1002085498876F0
:102F800002207E498870F7E0CDE0CBE096E058E083
:102F900043E03BE023E009E0FFE701207749887048
:102FA0000A465169506803F0C9FEE5E0734890F89D
:102FB000230038B900207349A031086001206F490F
:102FC00088700BE06D4890F82300012806D100209E
:102FD0006C499C310860012068498870CCE06848E1
:102FE0000830006801280CD1002068490860664953
:102FF000C1F8B8016349AC31086001205F498870AD
:1030000003E000212020FEF789F9B5E001205D49A9
:103010009C31086059498870AEE05E488068406A1B
:103020005C49098A88420BD15A488068407838B98F
:103030000120524988700A469169506803F07EFE6B
:103040009AE04F480068012803D102204B4988705C
:1030500033E04A4890F8230028B901204749887096
:1030600000F098FA29E0454890F8230001280CD197
:10307000424988700B469B690C46E469191B3F4B1B
:103080001A8C586803F0F8FD17E03C4890F82300CC
:10309000022805D101203949887000F071FA0CE04E
:1030A000364890F82300032807D10120334988705F
:1030B00000224868114603F0DFFD5DE02F4890F8DC
:1030C000230038B900202F499C31086001202B498A
:1030D000887026E0294890F82300012805D1294965
:1030E000A0310860254988701BE0244890F823002F
:1030F000022806D101202349A83108601F498870A1
:103100000FE01E4890F8230003280AD101201F4930
:1031100008601D49C1F8B8011A49AC310860174967
:10312000887029E028E01C48008800F0200030B1B9
:10313000012014499C310860104988701BE0164832
:10314000008800F0400018B102200C49887012E09D
:103150001148008800F4007068B101200B49086034
:103160000949C1F8B8010749AC31086000F008FA14
:1031700002200249887000BF00BF10BDFC03002080
:103180003401234210812242008022428081214268
:1031900008012242E00300205204002010B5CB4871
:1031A000007811280AD2DFE800F0090A15263F4707
:1031B000627D7E86B1C4D9E1F3F2F10084E1C348B7
:1031C0008068B0F5FA6F04D900F0DAF90220BF493F
:1031D000887079E1BE480068012803D10220BB490C
:1031E000887007E0B9484068407818B9202101206C
:1031F000FEF794F868E1B548806840F2DC518842F7
:1032000011D9B34834380068012807D1B1480068A3
:10321000012803D10220AD49887004E04FF4C04179
:103220000120FEF77BF84FE1A8488068642802D9A6
:103230000220A649887047E1A44890F82300A8B16D
:10324000A24890F82300012810D0A04890F823004D
:1032500002280AD19D484068407838B902209B492D
:1032600081F823000020887000E000BF2CE197481F
:1032700090F82300A8B1954890F82300012810D0B9
:10328000924890F8230002280AD19048406840787C
:1032900038B903208D4981F823000020887000E0B0
:1032A00000BF11E110E189484068407810B9022060
:1032B0008649887008E1854890F8230078B98348EA
:1032C0008068B0F5967F20D98248006801281CD01C
:1032D00001207E4981F823000020887015E07B489A
:1032E00090F82300012810D17848806840F2DC5122
:1032F00088420AD9764834380068012805D0002071
:10330000724981F8230002208870DDE06F488068F0
:1033100064280DD96E4808300068012803D10220C6
:103320006A49887004E04FF400610120FDF7F6FF60
:10333000CAE06648806840F2DC5188420DD9644892
:1033400034380068012803D102206049887004E005
:103350004FF400510120FDF7E1FFB5E05B48406804
:10336000407810B9022059498870ADE0574890F86C
:10337000230070B955488068B0F57A7F41D90020A4
:1033800052498870012081F823003AE087E085E007
:1033900038E04E4890F8230001280AD14B48406895
:1033A000407828BB002049498870022081F823001A
:1033B00027E0464890F8230002280AD14348806855
:1033C00064281ED9002041498870032081F8230019
:1033D00017E03E4890F82300032812D13C480068CB
:1033E000012806D10020394981F823000220887085
:1033F00007E036484068407818B920210120FDF7E1
:103400008DFF61E0314890F8230070B92F48806843
:103410002E498989884240D900202C498870012092
:1034200081F823000020886037E0284890F82300C6
:1034300001280ED1254880682449C98988422CD9A1
:10344000002022498870022081F823000020886033
:1034500023E01E4890F8230002280CD11B48806806
:1034600064281AD9002019498870032081F82300A4
:103470000020886011E0154890F8230003280CD143
:1034800012488068B0F57A7F07D900200F4981F88B
:103490002300022088700020886015E014E00B48AB
:1034A000806840F2DC5188420DD909483438006800
:1034B000012803D102200549887004E04FF400512F
:1034C0000120FDF72BFF00BF00BF10BDFC03002053
:1034D000340123421081224210B51448807820B96B
:1034E000FFF762FC002011498860104880780128AD
:1034F00010D1FFF753FE0D488068401C0B498860CF
:103500000846806844F62061884203D900210220E1
:10351000FDF704FF05488078022805D104480078AB
:10352000022801D0FFF772FB10BD0000FC03002051
:103530005004002010B501F0B5FA00F037FA002071
:103540000C4908600C49C1F8A4010120094908315F
:103550000860091D0860091D0860064918310860E7
:10356000091D086005490860091D08600249C1F885
:10357000B40110BDA08122420080224280812142FC
:1035800010B501200249086000F0F6F910BD0000F6
:103590008481214210B5044991F8220000F0F8F925
:1035A00000200249086010BDFC03002084812142F4
:1035B00010B501F047FA1149086011490F48006839
:1035C00005F0DCFD0AD201200E490860642003F0FA
:1035D000E9F801200C49C1F8A00110BD0B490748CA
:1035E000006805F0CBFC06D20020064908600649B9
:1035F000C1F8A001F1E706480078EEE7B00100202D
:103600000000A043A48122420080224200007A43AD
:10361000AC01002010B500240020154908601549B0
:10362000C1F8B001012012490C310860091D086081
:1036300011490860091D08600D49083108600D49ED
:10364000C1F8A001FFF79CFF01F0FCF904460B490B
:10365000204605F093FC05D201200549091F0860AA
:10366000032010BD00200249091F08600220F8E76E
:10367000AC81224200802242808121420000204110
:103680002DE9F04F89B005460E46174698460024AE
:103690004146129805F0DEFD089000BF48E04FF06B
:1036A0008041304605F040FB4FF0804107903046A6
:1036B00005F03AFB0490204605F034FC0390049991
:1036C00005F0C8FD0590139905F08CFC069007994C
:1036D00005F02AFB82468AF00040019003F0CAF808
:1036E0004FF07E51029005F0ABFA039005F07CFAA2
:1036F00002460B46CDE904010020134905F006F807
:10370000CDE9060104F0D0FF81464946089805F04E
:1037100069FC4146079005F093FA834659463846BE
:1037200005F002FB079005F0DDFB25F81400641C92
:10373000204605F0F7FB3146079005F01FFCAED39D
:1037400009B0BDE8F08F00000000F03F00BFFEE7C9
:1037500038B5002401217C2001F0F4F910208DF807
:10376000030003208DF8020041F20304ADF800408D
:1037700069460F48FFF772F921460D48FFF744FAF2
:103780004FF47F44ADF8004069460A48FFF766F9F8
:1037900021460848FFF738FA8024ADF80040694612
:1037A0000548FFF75BF921460348FFF72DFA38BDBE
:1037B000000C0140001401400018014008B501212F
:1037C000042001F0BFF90121102001F0BBF9102005
:1037D000ADF800008DF8030003208DF80200694663
:1037E0000848FFF73BF90220ADF80000694606489B
:1037F000FFF734F90120054908600549C1F8900137
:1038000008BD000000080140001001408401224270
:103810000000214270B504461448006820F470206E
:10382000124908600846006840F4403008600020F3
:103830000F490860002516E0E0090E49086060069F
:10384000040E022003F0D1FB01200B49C1F88401D2
:10385000022003F0CAFB002005490860022003F0A3
:10386000C4FB681CC5B2082DE6DB70BD0008014032
:1038700084012242900121420000224210B50F48EB
:10388000006820F470200D4908600846006840F484
:103890004030086001200A4908600A49C1F88401E3
:1038A000042003F0A2FB002005490860042003F077
:1038B0009CFB00200349C1F8840110BD00080140B1
:1038C000900121420000224210B50F48006820F408
:1038D00070200D4908600846006840F440300860D8
:1038E00000200A4908600A49C1F89001042003F049
:1038F0007CFB0120054908600549C1F890010420BE
:1039000003F073FB10BD0000000801408401224257
:103910000000214210B500241348006820F47020F4
:10392000114908600846006840F400200860012042
:103930000E49086003F059FB01200D49C1F88401CC
:1039400003F053FB07E0601CC4B2FA2C03DDFFF761
:10395000BBFF012010BD0548803800680028F2D167
:103960000449086000BFF5E70008014090012142CA
:10397000000022428401224210B500200349086061
:1039800000224021902001F091F810BD8C012342CB
:1039900010B50446012004490860224640219020C9
:1039A00001F084F810BD00008C01234210B5002006
:1039B00004490860FFF702FF00224021902001F037
:1039C00075F810BD8C01234208B501217C2001F05F
:1039D000B9F84FF4C050ADF8000048208DF803004E
:1039E00069461648FFF73AF82020ADF80000482055
:1039F0008DF8030069461248FFF730F80420ADF84F
:103A0000000048208DF8030069460E48FFF726F8AD
:103A1000FB20ADF8000048208DF8030069460A48F5
:103A2000FFF71CF84FF60170ADF8000048208DF844
:103A3000030069460548FFF711F808BD000801407A
:103A4000000C01400010014000140140001801402A
:103A500008B50121102001F075F83020ADF8000004
:103A600010208DF8030003208DF8020069460448F9
:103A7000FEF7F4FF30210248FFF7C6F808BD00004A
:103A800000100140F8B507460D4616461C461020AA
:103A90008DF8000002208DF8010000208DF8020052
:103AA00001208DF80300684600F0D0F80121084697
:103AB00001F028F83846FDF7C7F817480480174882
:103AC000056046600020154988600846C4600020F3
:103AD00008618020486100208861C86108624FF455
:103AE00080504862002088623846FDF772F9012252
:103AF00002210B48FDF764F901210A4802F02AFC73
:103B000001213846FDF794F84FF40010FDF782F8D4
:103B1000034800F009F8F8BDB80100205C09002056
:103B20006C0002400044004010B5044600212046CD
:103B3000FDF77EF8044801882046FDF768F9012169
:103B40002046FDF775F810BDB801002000BFFEE764
:103B500038B5002401217C2000F0F4FF10208DF8FE
:103B6000030003208DF802008224ADF8004069466E
:103B70002648FEF773FF21462448FFF743F89824B0
:103B8000ADF8004069462248FEF768FF214620480C
:103B9000FFF738F842F28134ADF8004069461D481D
:103BA000FEF75CFF21461B48FFF72CF84224ADF8D6
:103BB000004069461848FEF751FF21461648FFF7B6
:103BC00021F84FF4E054ADF8004069461148FEF783
:103BD00045FF21460F48FFF715F80424ADF80040D3
:103BE00069460E48FEF73AFF21460C48FFF70AF8EF
:103BF0000120ADF8000018208DF8030003208DF897
:103C0000020069460148FEF729FF38BD000801405F
:103C1000000C014000100140001801400014014058
:103C200010B5482001F036FA242001F093FE24203C
:103C300001F04AFD482002F06FF8242001F0A2FFB5
:103C4000242001F007FC10BD7047000070B5002172
:103C500000230F22C47804B3154C246804F4E064F4
:103C6000C4F5E064210AC1F10403CA40447804FAAF
:103C700003F184781440214309010E4C0678A155C4
:103C8000047804F01F050124AC4005786D11AD00E7
:103C900005F1E025C5F8004109E0047804F01F05AE
:103CA0000124AC40044D0678761145F8264070BDDD
:103CB0000CED00E000E400E080E100E00249014397
:103CC000024A1160704700000000FA050CED00E0A8
:103CD000094A50701278824205D1074A127E521C5E
:103CE000054B5A7602E00022034B5A760022024B23
:103CF000DA701A4611707047E00300200B4A5070CA
:103D00001278824207D1094A92F82320521C074BAD
:103D100083F8242003E00022044B83F824200022AF
:103D2000024B9A701A46117070470000FC03002085
:103D30000B4A50701278824207D1094A92F8242027
:103D4000521C074B83F8252003E00022044B83F824
:103D500025200022024B9A701A461170704700000D
:103D60002404002010B500F013F800F0EFFB00F081
:103D700017FC00F037FC00F0BFFB00F091FB00F0F7
:103D8000CBFC00F06FFC00F095FC00F002F810BDD9
:103D90007047704706480078012808D10548007828
:103DA000FF2804D203480078401C0249087070477D
:103DB000260200201902002010B500241A480078BD
:103DC000012830D1FCF752FA04461848007820B197
:103DD00016480078401E1549087014480078F8B954
:103DE00013480078E0B900F0F9FC1248124909784C
:103DF00050F82100114908600F48007810490978EF
:103E000088420DD00D480068806B401C0B49096842
:103E100088630C480068401C0A490860FCF745FAB2
:103E20002046FCF727FA10BD2602002019020020C8
:103E30001A02002098C800201C0200203402002032
:103E40001B0200200002002010B500240B4800785F
:103E5000012811D1FCF70AFA04460948007840B954
:103E600008480078FF2804D206480078401C05491D
:103E700008702046FCF7FEF910BD00002602002065
:103E8000190200201A02002010B5002413480078FF
:103E9000012821D1FCF7EAF9044611480078C0B1A5
:103EA0000F480078401E0E4908700846007860B937
:103EB0000C48007828B92046FCF7DCF900F054FCE7
:103EC0000AE02046FCF7D6F906E02046FCF7D2F9D6
:103ED00002E02046FCF7CEF910BD000026020020CB
:103EE0001A0200201902002010B50B48007890B982
:103EF00000F074FC0948007809490870094807492E
:103F0000097850F821000849086008460068074908
:103F10000860FCF7B2F910BD260200201C02002048
:103F20001B02002098C80020340200202C02002030
:103F3000704700002DE9FE4F06460F4690461C468E
:103F40004FF00009FCF792F981461F48007828B12C
:103F50004846FCF78FF93C20BDE8FE8F1B4850F81F
:103F6000240060BB0120194941F824004846FCF7B1
:103F700081F9002342463946304600F009F982466D
:103F800000200090019003460246514602902046D0
:103F900000F03AFC054635B90D48007801280CD1EF
:103FA00000F0E2FB09E0FCF761F9814600200749D7
:103FB00041F824004846FCF75DF92846CCE748461E
:103FC000FCF758F92820C7E71902002098C80020FC
:103FD000260200202DE9F04F85B081468A4693469F
:103FE0001C46DDE90F78129D00200390FCF73EF996
:103FF00003902348007830B10398FCF73BF93C204C
:1040000005B0BDE8F08F1F4850F8240088BB0120A0
:104010001C4941F824000398FCF72CF92A46414634
:10402000384600F001FD2B465A465146484600F0FE
:10403000AFF804901198CDE9008002953A462046E9
:104040000E9B049900F0E0FB064636B90E48007856
:1040500001280CD100F088FB09E0FCF707F9039078
:104060000020084941F824000398FCF703F9304682
:10407000C6E7FFE70398FCF7FDF82820C0E700003B
:104080001902002098C800202602002070477047BF
:104090002DE9F04106460F4614464FF0000815483A
:1040A000007818B112202070BDE8F081FCF7DEF82E
:1040B0008046FF2E03D11048006890F832600F4808
:1040C00050F826502DB94046FCF7D4F84320207014
:1040D000EAE7012D05D14046FCF7CCF843202070DB
:1040E000E2E7EF644046FCF7C5F80020207000BF0F
:1040F000DAE70000190200202C02002098C80020F6
:10410000704700002DE9F04707460D464FF0000AC2
:10411000002028606860FCF7A9F88246FF2F03D1D1
:104120001948006890F83270184850F827402CB9A8
:104130005046FCF79FF84320BDE8F087012C04D1DE
:104140005046FCF797F84320F6E7207C00F001008A
:1041500020B95046FCF78EF84520EDE70026D4F84C
:104160000C90D4F808805046FCF784F800E0761CE8
:1041700058F8041B0029FAD0B0002860A9EB06000B
:10418000800068600020D7E72C02002098C800203B
:1041900070B5044610464FF080750560051F28462F
:1041A0002C606FF00106051F28462E604FF0123676
:1041B000051F28462E604FF00336051F28462E6047
:1041C0004FF00236051F28462E607610051F284640
:1041D0002E60051F284629604FF01136051F28461E
:1041E0002E604FF01036051F28462E604FF009361E
:1041F000051F28462E604FF00836051F28462E6002
:104200004FF00736051F28462E604FF00636051F73
:1042100028462E604FF00536051F28462E604FF0C9
:104220000436051F28462E6070BD00002DE9F041C0
:1042300005464FF00008FCF719F88046FF2D05D120
:104240002048006890F83250012608E01D480068B8
:1042500090F83200A84201D1012600E000261A4859
:1042600050F825402CB94046FCF704F84820BDE83A
:10427000F081012C04D14046FBF7FCFF4320F6E718
:1042800094F834701148C05D94F8351088430F4994
:10429000C8550846C05D30B994F836100C4800780F
:1042A00088430B49087094F8300040F0080084F807
:1042B00030004046FBF7DEFF012E01D100F054FA3A
:1042C0000020D4E72C02002098C800201E02002005
:1042D0001D0200207047000070B5054600261748F3
:1042E000007800B170BD1648007800B1FAE71DB340
:1042F000FBF7BCFF06461348006890F834401248AC
:10430000005D1049096891F8351088430E49085539
:104310000846005D40B90B48006890F836100B481D
:10432000007888430949087006480068C56230462D
:10433000FBF7A0FF00F018FA00BFD3E71902002036
:104340001A0200202C0200201E0200201D02002064
:104350002DE9F04104460D4616461F4612480078E6
:1043600010B15520BDE8F0811048007808B1322026
:10437000F8E7B81CC82148434FF47A71B0FBF1F15B
:104380004FF461606043C5EB051200EB82003044DE
:1043900000EBC00202EB001001EBC0084046FFF743
:1043A0009BFF0020DEE70000190200201A02002017
:1043B00070B5002600F072F8FBF758FF064631484A
:1043C0000068401C2F4908603046FBF753FF2E4819
:1043D0000078012853D12D48007820B1012804D05D
:1043E000022809D103E001250BE0002509E00125A1
:1043F00001202649087004E00125002023490870A7
:1044000000BF00BF05B970BD2148046833E0FBF769
:104410002DFF0646E06A50B3E06A401EE062E06AA3
:1044200028BB94F8300000F0370040B114F8300F8A
:1044300000F0C800207001206070303C02E00020D5
:1044400084F8310094F8300000F0080078B9343472
:10445000A0781049097808430E49087020780E4961
:10446000085C6178084314F834190B4A50546469A5
:104470003046FBF7FFFE94F832003F28C7D100BF5B
:10448000C1E7000044020020260200203C02002078
:10449000380200201D0200201E020020704700008C
:1044A0002DE9F0415021114800F02CF900250DE0D4
:1044B000681C86B20D4800EB051400EB06170020BF
:1044C000207067600AA0E060681C85B2042DEFD3FD
:1044D000064800EB051400202070606004A0E06036
:1044E000024804490860BDE8F081000048C400208B
:1044F0003F0000000802002070B5C821114800F0FC
:1045000001F900230FE0581C85B203EB83000D492D
:1045100001EB800405EB850001EB80060020207094
:104520006660581C83B2092BEDD303EB8300054969
:1045300001EB80040020207060600846024908609A
:1045400070BD000080C300200402002000200A4942
:1045500008600A4908700A4908700A4908700A493F
:1045600008700A4908600A4908600A4908600A494F
:1045700008600A49087070474402002019020020B0
:104580001A0200202702002026020020000200203C
:10459000280200201402002010020020180200202F
:1045A00000210A4A1170002004E00021084A115439
:1045B000411CC8B20828F8D30021064A1170064AE7
:1045C0001170064A1160064A116070471D020020F2
:1045D0001E0200201B0200201C02002034020020CA
:1045E0002C02002070B54FF47C71194800F08AF855
:1045F0004FF48071174800F085F8002413E0601C28
:10460000C5B2C4EBC40000EB4000114901EB8003CC
:10461000C5EBC50000EB400001EB80065E610EA01B
:10462000D864601CC4B20B2CE9D3C4EBC40000EB0B
:104630004000074901EB80030020586106A0D864C0
:1046400000200649086002480549086070BD000066
:1046500098C9002098C800203F00000038020020C0
:104660003002002000B587B00320002180220A4BD1
:10467000CDE90132CDE903104FF6FF703F23074A21
:1046800000900748FFF7A6FC06AA06A13F20FFF707
:10469000FFFC07B000BD000098C6002094C80020B1
:1046A0003D49000875432F4F532D49492049646CFB
:1046B0006500000000B587B00320002180220A4B6E
:1046C000CDE90132CDE903104FF6FE703E23074AD3
:1046D00000900748FFF77EFC06AA06A13E20FFF7E0
:1046E000D7FC07B000BD000098C4002094C600208D
:1046F0006549000875432F4F532D49492053746174
:104700007400000004E0002200F8012B4A1E91B260
:104710000029F8D1704700002DE9F04178211048B8
:10472000FFF7F0FF00240DE0601C86B204EB4400AC
:104730000B4901EBC00506EB460001EBC0072F60FB
:10474000601C84B2042CEFD304EB4400044901EB59
:10475000C00500202860084602490860BDE8F081D5
:1047600088CD00204002002010B50024FBF77EFD1C
:10477000044613480078F8B912480078E0B900F010
:104780002DF811481149097850F8210010490860A6
:104790000E4800780F49097888420DD00C4800680F
:1047A000806B401C0A49096888630B480068401CFC
:1047B00009490860FBF772FD2046FBF75BFD10BD61
:1047C000190200201A02002098C800201C020020B4
:1047D000340200201B020020000200200649074A84
:1047E0001278885C0649095C034A515C01EBC00100
:1047F000044A117070470000389400081D02002020
:104800001E0200201C0200202DE9F84F05460F462D
:1048100090469946DDE90AAB00200090FBF726FDA3
:1048200000903F480468002C74D0183454F8040CED
:104830003B4908600098FBF71DFD44F8187CA576FD
:10484000002020766076606144F814BC44F80CAC1B
:1048500044F8108C0C9824F8080C24F8069C0020CE
:10486000E077E810207705F00700E076217F01204F
:104870008840A077E17E012088406077002060605A
:10488000E060A0602062A0626062E062206325A018
:104890006063183C002606E0002104F1500040F857
:1048A0002610701CC6B2002EF6D02046FFF740FB43
:1048B0002046FFF7EBFBFBF7D9FC00901A4840F8C5
:1048C00025401A48006860610020A0611748006810
:1048D00010B1164800688461144804603434A0782C
:1048E0001349097808431249087020781149085C77
:1048F0006178084314F834190E4A50540E48007871
:10490000401C0D4908700098FBF7B4FC0020BDE87E
:10491000F88FFFE70098FBF7ADFC4220F7E70000B7
:10492000300200203F00000098C80020380200201C
:104930001D0200201E02002027020020002400BFCC
:1049400000BFFBF793FC044605480068401C04497F
:1049500008602046FBF78EFCFFF799FBF1E70000AB
:1049600028020020002400BF02E02820FFF7B4FC4A
:10497000194800780028F8D0184800686421B0FB76
:10498000F1F0164908600846006828B9002014496B
:104990000870FF20FFF74AFC00BFFBF767FC0446E6
:1049A000104800681049086000200E490860204641
:1049B000FBF760FC0C48006808490968B0FBF1F09F
:1049C000C0F1640006490870FFF79AFB00F00EF88A
:1049D0001420FFF781FCE0E71802002010020020FD
:1049E0000C02002028020020140200207CB50025C3
:1049F00014E069462846FFF785FB064666B9094874
:104A000050F8254044B1012C06D0D4E9020100EB56
:104A1000810060640198A064681CC5B23F2DE8D98C
:104A20007CBD000098C8002002F0010343B102F0F1
:104A300002032BB102E0491E002308C00029FAD16D
:104A4000704700002DE9FC474FF0000A01F082FD9D
:104A50000FFA80FAAAF5CD700FFA80FABAF1000FBA
:104A600017DD504603F0AAFF064600220A4B03F06A
:104A70004DFE04460022094B03F0B8FF8046002299
:104A8000074B03F0B3FFCDE9000103F00DFEBDE8D5
:104A9000FC870020FBE700000000B0400000F43F6E
:104AA00000408F4010B501F06DFD10BD70B5064699
:104AB0000C461546FEF7E2FE3046FEF7ABFEFEF76B
:104AC00029FF2046FEF7A6FEFEF724FF2846FEF744
:104AD000A1FEFEF71FFFFEF7F7FE012070BD0000EC
:104AE0000120014908707047500400200146002051
:104AF000034A506820F4404008435060704700006B
:104B00000010024029B1064A52690243044B5A611F
:104B100004E0034A52698243014B5A617047000026
:104B20000010024029B1064AD2690243044BDA61FF
:104B300004E0034AD2698243014BDA617047000006
:104B40000010024029B1064A92690243044B9A615F
:104B500004E0034A92698243014B9A617047000066
:104B60000010024029B1064AD2680243044BDA60C1
:104B700004E0034AD2688243014BDA6070470000C8
:104B80000010024030B500210022002400232D4DEA
:104B90006D6805F00C0121B1042905D0082923D145
:104BA00005E0294D056022E0274D05601FE0254DF9
:104BB0006D6805F47012234D6D6805F4803402258C
:104BC00005EB92421CB9214D554305600BE01D4D8C
:104BD0006D6805F400351DB11C4D5543056002E0BC
:104BE000194D5543056002E0174D056000BF00BF39
:104BF000144D6D6805F0F0010909154D6B5C0568F1
:104C0000DD4045600F4D6D6805F4E061090A104D07
:104C10006B5C4568DD4085600A4D6D6805F4605148
:104C2000C90A0B4D6B5C4568DD40C560054D6D687C
:104C300005F44041890B074D6B5CC568B5FBF3F586
:104C4000056130BD0010024000127A0000093D00ED
:104C5000EC010020FC01002008B501214020FFF7F5
:104C600071FF3C20ADF8000010208DF803000320F8
:104C70008DF8020069460848FDF7F0FE002007495C
:104C800008600749C1F88C010449083108600449EB
:104C9000C1F8940108BD00000018014088012342BA
:104CA00000002342024909888143014A118070476C
:104CB0000428004001460020064A12880A40D0B26B
:104CC000044A121F12880A4012B108B1012000E004
:104CD000002070470428004010B50120FFF7EAFFCC
:104CE00020B10120FFF7DEFF00F00AF80220FFF7F5
:104CF000E1FF20B10220FFF7D5FF00F001F810BD61
:104D000000BF0348008800F020000028F9D0704759
:104D1000042800401B48008800F4187058B1194856
:104D2000008820F41870174908801748C078164981
:104D30000870002088701348008800F0900058B177
:104D40001048008820F090000E4908800F48C07875
:104D50000E490870002088700A48008800F48070AE
:104D600058B10848008820F4807006490880084837
:104D70008078074908700020C8700620054908702F
:104D80007047000052040020FC030020240400208F
:104D9000E00300205004002000200449C8700846A9
:104DA000407E08760846407808707047E00300208F
:104DB000002005498870084690F8240081F82300F7
:104DC0000846407808707047FC0300200020054921
:104DD0008870084690F8250081F82400084640783D
:104DE000087070472404002002200B4948700846D0
:104DF000007A087002200949C87008200870022053
:104E000007498870072008700220064988700870DA
:104E10000620054908707047C0030020E003002009
:104E2000FC030020240400205004002070B5054637
:104E30001021002002F0C6F904460CB3284601F008
:104E400051FE60B9B5F1004F05D92146002002F0AE
:104E5000A7F9002070BD284602F028FA0546294629
:104E6000002002F0AFF92060206828B92146002018
:104E700002F096F90020EDE765600020E060A06098
:104E80002046E7E7704710B500F002F810BD0000BB
:104E90000CB50020019000903348006840F4803049
:104EA0003149086000BF3048006800F400300090CD
:104EB0000198401C0190009818B90198B0F5A06FB6
:104EC000F1D12948006800F4003010B101200090B1
:104ED00001E0002000900098012843D12348006899
:104EE00040F01000214908600846006820F00300E7
:104EF00008600846006840F0020008601A484068F0
:104F0000194948600846406848600846406840F4CF
:104F1000806048600846406820F47C10486008467D
:104F2000406840F4E81048600846006840F080702F
:104F3000086000BF0C48006800F000700028F9D03D
:104F40000948406820F00300074948600846406867
:104F500040F00200486000BF0348406800F00C00C9
:104F60000828F9D10CBD00000010024000200240CA
:104F700010B501F03FF9042805D101F0D5F808B1CA
:104F8000FBF764FD10BD01F035F9032800D1F9E706
:104F90000520124908700846007805281CD1002019
:104FA0000F49887648700520087000200D49087662
:104FB000C8700720087000200B4981F82300887012
:104FC000072008700020094981F824008870082013
:104FD000087006200149087000BFD3E75004002084
:104FE000C0030020E0030020FC0300202404002074
:104FF000042808D14FF0E021096941F004014FF085
:10500000E022116107E04FF0E021096921F004017D
:105010004FF0E0221161704710B505480078012873
:1050200005D1FEF7B7FEFFF7C3F9FEF7C5FE10BDC9
:105030002602002010B51348006840F00100114915
:10504000086008464068104908400E494860084614
:1050500000680E4908400B4908600846006820F4C3
:10506000802008600846406820F4FE0048604FF445
:105070001F008860FFF707FF4FF0006004490860D9
:1050800010BD0000001002400000FFF8FFFFF6FE18
:1050900008ED00E010B58AB004460121C802FFF710
:1050A00051FD01210420FFF74DFD01210846FFF7C6
:1050B00049FD01213148FDF75DFD314890FBF4F0D9
:1050C0003049C8624FF48070ADF8240018208DF884
:1050D000270003208DF8260009A92B48FDF7BEFC08
:1050E0004FF47A70ADF81C00601E80B2ADF8180065
:1050F0000020ADF81E00ADF81A008DF8200006A9BA
:10510000224800F0BFFF01221146204800F056FF60
:1051100001211E4800F020FF7020ADF8080000209B
:10512000ADF810000120ADF80A004FF4FA70ADF8A8
:105130000E0002A9154800F04BFF0821134800F0AB
:1051400093FF0121114800F0FBFE19208DF80400A7
:1051500001208DF8050000208DF8060001208DF853
:10516000070001A8FEF772FD0121084800F006FFC4
:105170000021064800F0F6FE0AB010BD0002300023
:1051800000A24A042C00002000080140002C01402D
:1051900010B501214E4800F000FF002842D0012147
:1051A0004B4800F0DCFE4B48807828B94948406AFB
:1051B000401C4849486204E04648406A401E454950
:1051C00048624448806A401C4249886208464069F7
:1051D000896A884207D800213D4800F0C3FE0020BC
:1051E0003C49487010BD3B48006A3A49496A8842C8
:1051F00007DC0021364800F0B5FE00203549487034
:10520000F0E73448407802280DD13248C188304850
:1052100000F033FF2F48C48804EBD47041102C48B1
:1052200000F02DFF51E02B48407801284DD129484E
:10523000806A2849C969884215D82648006B254AE2
:10524000926A30F81210224800F017FF2148006BD4
:10525000204A926A30F8124004EBD47041101C4886
:1052600000F00DFF31E01B4840691A49C969401A36
:105270001849896A88421BD816484069154A926ABB
:10528000801A144A126B32F81010114800F0F5FE23
:10529000104840690F4A926A801A0E4A126B32F81F
:1052A000104004EBD4704110094800F0E8FE0CE017
:1052B0000848C188064800F0E0FE0648C48804EBB0
:1052C000D4704110024800F0DAFE00BF8AE7000007
:1052D000002C01402C00002010B50221480700F0EE
:1052E0005CFE002859D00221480700F038FE5748DC
:1052F0000078401C55490870087800EBD0714910BF
:10530000A0EB4101514A11701046007878BB50481B
:10531000807828B94E48406A401C4D49486204E0F4
:105320004B48406A401E4A4948624948806A401CCE
:105330004749886208464069896A884208D800213E
:105340004FF0804000F00EFE00204149487010BD33
:105350003F48006A3E49496A884209DC00214FF013
:10536000804000F0FFFD002039494870EFE7FFE77B
:1053700037484078022811D14007808C3449C988C9
:1053800008444FF6FF7190FBF1F201FB120084B26A
:1053900021464FF0804000F072FE55E02C484078E6
:1053A000012851D12A48806A2949C969884216D8FA
:1053B0002748006B2649896A30F811004FF0804178
:1053C000898C08444FF6FF7190FBF1F201FB12004B
:1053D00084B221464FF0804000F051FE34E01C487A
:1053E00040691B49C969401A1949896A884219D814
:1053F000174840691649896A401A1549096B31F8FE
:1054000010004FF08041898C08444FF6FF7190FBEB
:10541000F1F201FB120084B221464FF0804000F00F
:105420002EFE11E04FF08040808C0949C988084465
:105430004FF6FF7190FBF1F201FB120084B221469E
:105440004FF0804000F01BFE00BF80E7CB01002042
:105450002C01002010B58AB0044601210846FFF750
:1054600061FB01210520FFF76DFB01212F48FDF7AE
:1054700081FB01212E48FDF77DFB2E4890FBF4F0C7
:105480002D49C8624FF40040ADF8040018208DF893
:10549000070003208DF8060001A92848FDF7DEFA71
:1054A0004FF6FF70ADF82000601E80B2ADF81C0012
:1054B0000020ADF82200ADF81E0007A94FF0804093
:1054C00000F0E0FD3020ADF80C004FF4FA70ADF8BC
:1054D00012000120ADF80E000020ADF814004FF4CA
:1054E0008070ADF818000020ADF81A0003A94FF045
:1054F000804000F06DFD00214FF0804000F0B4FDD1
:1055000001220221480700F059FD1C208DF80800F7
:1055100001208DF8090000208DF80A0001208DF887
:105520000B0002A8FEF792FB0AB010BD00031800A2
:1055300000023000005125022C010020000801402B
:1055400010B502215C4800F028FD00285DD0022142
:10555000594800F004FD59480078401C574908702C
:10556000087800EBD0714910A0EB4101534A11704B
:1055700010460078002833D15148807828B9504827
:10558000406A401C4E49486204E04D48406A401E53
:105590004B4948624A48806A401C4949886208462B
:1055A0004069896A88420AD80021434800F0DAFC41
:1055B00001204449086000204149487010BD40481E
:1055C000006A3F49496A88420ADC00213A4800F0F3
:1055D000C9FC01203B490860002039494870EDE7CB
:1055E00037484078022811D13348243000883449A4
:1055F000C98808444FF6FF7190FBF1F201FB1200DD
:1056000084B221462C4800F03AFD52E02C48407804
:1056100001284ED12A48806A2949C969884215D88B
:105620002748006B2649896A30F811002249243145
:10563000098808444FF6FF7190FBF1F201FB12005C
:1056400084B221461C4800F01AFD32E01C48406933
:105650001B49C969401A1A49896A884218D81848EA
:1056600040691749896A401A1549096B31F81000D9
:1056700011492431098808444FF6FF7190FBF1F27B
:1056800001FB120084B221460B4800F0F8FC10E048
:105690000948243000880A49C98808444FF6FF7138
:1056A00090FBF1F201FB120084B22146024800F0A7
:1056B000E6FC00BF82E7000000040040CC010020AF
:1056C000AC0000209C01234210B58AB004460121A1
:1056D0000220FFF727FA01210520FFF733FA2748B8
:1056E00090FBF4F02649C8624020ADF80400182071
:1056F0008DF8070003208DF8060001A92148FDF769
:10570000ADF94FF6FF70ADF82000601E80B2ADF825
:105710001C000020ADF82200ADF81E0007A91A48B1
:1057200000F0B0FC3020ADF80C004FF4FA70ADF88A
:1057300012000120ADF80E000020ADF8140003A9FE
:10574000114800F045FC00210F4800F08DFC0122BB
:1057500002210D4800F032FC1D208DF808000120C8
:105760008DF8090000208DF80A0001208DF80B004B
:1057700002A8FEF76BFA0AB010BD00000051250226
:10578000AC000020000801400004004010B50221D8
:10579000654800F002FC002874D00221624800F045
:1057A000DEFB62480078401C60490870087800EB16
:1057B000D0714910A0EB41015C4A1170104600788D
:1057C000002836D15A48807828B95948406A401C88
:1057D0005749486204E05648406A401E54494862AE
:1057E0005348806A401C5249886208464069896A69
:1057F000884207D800214C4800F0B4FB00204C49F7
:10580000487010BD4A48006A4949496A884210DC1C
:105810000021454800F0A6FB0020454948700120C2
:10582000444981F82A004248416A43A0FAF77AFDC8
:10583000E7E74048007806280FD13E4890F824005A
:1058400058B943480068012807D00021364800F0C5
:1058500089FB002036494870D3E735484078022854
:1058600011D13148243000883149C98808444FF6A5
:10587000FF7190FBF1F201FB120084B221462A482D
:1058800000F0FDFB4EE02A48806A2949C969884238
:1058900015D82748006B2649896A30F8110022493B
:1058A0002431098808444FF6FF7190FBF1F201FBA7
:1058B000120084B221461C4800F0E1FB32E01C4893
:1058C00040691B49C969401A1949896A884218D830
:1058D000174840691649896A401A1549096B31F819
:1058E000100011492431098808444FF6FF7190FBDC
:1058F000F1F201FB120084B221460B4800F0BFFB1D
:1059000010E00948243000880949C98808444FF646
:10591000FF7190FBF1F201FB120084B221460248B4
:1059200000F0ADFB00BF6CE700080040CD01002097
:105930006C0100202404002066756C6C207468657E
:1059400020706F732069732025640D0A0000000029
:105950003801234210B58AB0044601210420FFF724
:10596000E1F801210920FFF7EDF8274890FBF4F05A
:105970002649C8624020ADF8040018208DF80700C1
:1059800003208DF8060001A92148FDF767F84FF6BE
:10599000FF70ADF82000601E80B2ADF81C00002042
:1059A000ADF82200ADF81E0007A91A4800F06AFB06
:1059B0003020ADF80C004FF4FA70ADF81200012061
:1059C000ADF80E000020ADF8140003A9114800F056
:1059D000FFFA00210F4800F047FB012202210D4889
:1059E00000F0ECFA1E208DF8080001208DF8090067
:1059F00000208DF80A0001208DF80B0002A8FEF7A8
:105A000025F90AB010BD0000005125026C010020EC
:105A1000000C01400008004010B50221564800F07B
:105A2000BCFA002856D00221534800F098FA534897
:105A30000078401C51490870087800EBD07149107B
:105A4000A0EB41014D4A11701046007868BB4C48EC
:105A5000807828B94A48406A401C4949486204E0B5
:105A60004748406A401E464948624548806A401C93
:105A70004349886208464069896A884207D80021FC
:105A80003D4800F06FFA00203D49487010BD3C4889
:105A9000006A3B49496A884207DC0021364800F029
:105AA00061FA002036494870F0E73548407802280E
:105AB00011D13148243000883149C98808444FF653
:105AC000FF7190FBF1F201FB120084B221462A48DB
:105AD00000F0D5FA4EE02A48806A2949C96988420F
