:020000040800F2
:10000000A05D00204D020008C9440008653E0008BC
:10001000CD4300087F0B0008E379000800000000D2
:10002000000000000000000000000000115900085E
:10003000A30E000800000000DB020008B95D000804
:10004000670200086702000867020008A55500085B
:100050006702000867020008A50E00086702000892
:1000600067020008A1100008670200086702000884
:1000700067020008710C00086702000867020008A8
:1000800067020008670200086702000867020008AC
:10009000670200086702000867020008ED10000808
:1000A00067020008315F0008670200086702000865
:1000B00079600008E16200082D6500086702000809
:1000C000670200086702000867020008670200086C
:1000D00067020008A97700086702000867020008A5
:1000E000210F000867020008670200086702000885
:1000F0008D6B0008670200086702000867020008AD
:100100006702000867020008996700086702000894
:100110006702000867020008C96900085D6A0008F4
:10012000670200086702000867020008670200080B
:1001300000F002F800F06BF80AA090E8000C82448E
:100140008344AAF10107DA4501D100F060F8AFF26B
:10015000090EBAE80F0013F0010F18BFFB1A43F0A5
:1001600001031847482C0100682C01000A444FF095
:10017000000C10F8013B13F0070408BF10F8014B06
:100180001D1108BF10F8015B641E05D010F8016B4B
:10019000641E01F8016BF9D113F0080F1EBF10F8AF
:1001A000014BAD1C0C1B09D16D1E58BF01F801CBD2
:1001B000FAD505E014F8016B01F8016B6D1EF9D555
:1001C0009142D6D37047000000230024002500266A
:1001D000103A28BF78C1FBD8520728BF30C148BFAA
:1001E0000B607047642900F00981752900F00681D1
:1001F000782900F03F81632900F02183732900F002
:100200002683002070471FB51FBD10B510BD00F03C
:1002100087FB1146FFF7F7FF08F0D8F800F0A5FBC1
:1002200003B4FFF7F2FF03BC07F059FDEFF30980B9
:10023000704780F309887047EFF30880704780F3B8
:100240000888704740BA7047C0BA7047094880476D
:1002500009480047FEE7FEE7FEE7FEE7FEE7FEE7A8
:10026000FEE7FEE7FEE7FEE704480549054A064BC0
:1002700070470000D55D000831010008A05700203C
:10028000A05D0020A0590020A0590020EFF31080AD
:1002900072B6704780F310887047204C204D25605F
:1002A0004FF0000484F309881E4C4FF001052570BF
:1002B0001D4C4FF08055256062B6FEE730B41A4CF5
:1002C0004FF08055256030BC704730B4164C4FF06D
:1002D0008055256030BC704700BF72B6EFF30980CF
:1002E00028B1203880E8F00F10490968086000B58F
:1002F0000F4880475DF804EB0E480F490A780270FA
:100300000A480E490A680260106890E8F00F203031
:1003100080F309884EF0040E62B6704720ED00E0CD
:100320000000FFFF4202002004ED00E04802002030
:100330005D4B0008370200203802002050020020E8
:10034000704700000FB4044910B503AA029800F0EA
:1003500083FA10BC5DF814FBE001002070B5044680
:1003600085690068C10601D5302600E02026C00757
:1003700007D070BDD4E9012130469047206A401C67
:1003800020626D1EF6D570BD70B504468569007893
:10039000C00707D170BDD4E9012120209047206A11
:1003A000401C20626D1EF6D570BD70B50C4605462A
:1003B000012A05D02878800600D5EA69002302E0EA
:1003C000012305E05B1C934202D2E05C0028F9D1D6
:1003D000A869E618C01AA861286A18442862284645
:1003E000FFF7BCFF04E0D5E9012114F8010B9047A9
:1003F000B442F8D32846FFF7C7FF70BD2DE9F0419E
:100400000646002410687529314616A510D0AFF3B2
:100410000080002802DA404213A507E031688A070D
:1004200001D512A502E0490704D511A5012401E078
:10043000AFF3008000210A2206F1240709E0B0FB97
:10044000F2FCB0FBF2F302FB1C003030785418468B
:10045000491C0028F3D123462A463046BDE8F04126
:1004600000F08AB9000000002D0000002B00000001
:100470002000000070B504460D4621461068AFF319
:1004800000802188090502D50F4A7A4402E00E4A0D
:100490007A440E32002104F1240305E000F00F0637
:1004A0000009965D5E54491C0028F7D1207800238E
:1004B000000704D5702D02D009B102231132204665
:1004C000BDE8704000F058B9DA2601002DE9F05F70
:1004D000894604464FF0000ADFF874B1FB44C0F8C7
:1004E00020A02046E1688847002874D0252806D03F
:1004F000D4E901219047206A401C2062F1E70026E0
:100500005F462046E16888472028054607DB312DF5
:1005100005D2781910F8200C08B10643F1E7B007AE
:1005200001D526F00406C4F81CA00027C4F818A0C2
:100530002A2D09D0284607F0CBFB38B304EB8708F7
:10054000303DC8F8185019E059F8041B204604EB58
:1005500087029161E1688847012F054618D1E0695B
:10056000002820DA26F020061DE0D8F8180000EB5D
:10057000800005EB40003038C8F818002046E168DC
:100580008847054607F0A4FB0028EED1012F0AD0CA
:100590002E2D08D12046E16888477F1C0546022F92
:1005A00046F02006C4DBA069002803DA404246F08A
:1005B0000106A061F00701D026F010066C2D0BD0CB
:1005C000682D09D04C2D39D06A2D35D0742D35D0F9
:1005D0007A2D33D016E038E0E1682F462046884770
:1005E000B842054609D16C2F26D04FF48060E168EF
:1005F000064320468847054604E06C2F1AD04FF486
:10060000807006430DB3A5F14100192802D82035AA
:1006100046F400664A462946204626604E46FFF7C5
:10062000E1FD80B101280BD0F61D26F0070000F196
:10063000080956E74020E4E78020D8E70020D6E705
:1006400006F104094DE7284652E7206ABDE8F09F0D
:10065000B0260100032A40F2308010F0030C00F0B5
:10066000158011F8013BBCF1020F624498BF11F8EC
:1006700001CB00F8013B38BF11F8013BA2F10402A5
:1006800098BF00F801CB38BF00F8013B11F003031D
:1006900000F0F480083AC0F0088051F8043B083AB2
:1006A00051F804CBA0E80810F5E7121D5CBF51F823
:1006B000043B40F8043BAFF30080D20724BF11F89D
:1006C000013B11F801CB48BF11F8012B24BF00F802
:1006D000013B00F801CB48BF00F8012B70474FF0F9
:1006E00000020429C0F0128010F0030C00F01B80FF
:1006F000CCF1040CBCF1020F18BF00F8012BA8BF0D
:1007000020F8022BA1EB0C0100F00DB85FEAC17CD0
:1007100024BF00F8012B00F8012B48BF00F8012B83
:1007200070474FF0000200B51346944696462039B4
:1007300022BFA0E80C50A0E80C50B1F12001BFF49A
:10074000F7AF090728BFA0E80C5048BF0CC05DF800
:1007500004EB890028BF40F8042B08BF704748BF4E
:1007600020F8022B11F0804F18BF00F8012B7047C2
:1007700070477047704770472DE9F0470D4699461E
:100780009246044600F124080168880604D5E06911
:1007900021F01001216000E00120A84201DD471B8B
:1007A00000E00027A1697A1902EB0900081AA0618C
:1007B0002078C00602D42046FFF7D0FD002608E0CE
:1007C000D4E901211AF806009047206A401C761CE3
:1007D00020624E45F4DB2078C0060AD52046FFF79C
:1007E000BDFD06E0D4E9012130209047206A401C7D
:1007F0002062381EA7F10107F4DC07E0D4E90121EB
:1008000018F805009047206A401C2062281EA5F1B8
:100810000105F3DC2046FFF7B7FD2078000602D57E
:100820000220BDE8F0870120FBE710B5436913B152
:10083000AFF3008001E0FFF7B8FD012010BD127892
:1008400000F124010A7000224A700122EDE71168CC
:100850004FF0FF32E9E70000074B70B50D467B44CF
:1008600000F043F80446284600F052F810B14FF06B
:10087000FF3070BD204670BD377A000010B5203AB9
:10088000C0F00B80B1E81850203AA0E81850B1E849
:100890001850A0E81850BFF4F5AF5FEA027C24BFFF
:1008A000B1E81850A0E8185044BF18C918C0BDE8F6
:1008B00010405FEA827C24BF51F8043B40F8043BBF
:1008C00008BF7047D20728BF31F8023B48BF11F874
:1008D000012B28BF20F8023B48BF00F8012B7047CE
:1008E00001694A1C02610878704700B58FB0CDE9F4
:1008F00001310021059105497944CDE903101146E4
:100900006846FFF7E3FD0FB000BD0000E5FFFFFF05
:10091000007B00F08000704700487047405700207F
:100920007546FFF7F9FFAE4605006946534620F0CD
:100930000700854618B020B5FFF796FCBDE82040BB
:100940004FF000064FF000074FF000084FF0000B8B
:1009500021F00701AC46ACE8C009ACE8C009ACE83E
:10096000C009ACE8C0098D46704710B50446AFF326
:1009700000802046BDE81040FFF752BC21B18268DC
:1009800042F00102826003E0826822F0010282608C
:100990007047000010B504461248844208D1012176
:1009A000401504F03FFD0021601504F03BFD17E009
:1009B0000D48844208D10121001504F033FD0021C7
:1009C000201504F02FFD0BE00848844208D10121D6
:1009D000C80304F027FD00214FF4004004F022FD7D
:1009E00010BD00000024014000280140003C0140EF
:1009F000014600208A6802F004020AB1012000E0EA
:100A0000002070470146C86C80B270470246002043
:100A100013680B400BB1012000E000207047014635
:100A200000208A6802F008020AB1012000E00020DC
:100A30007047000030B502460020002350680F4C7C
:100A400020400D790C6844EA0524204350609068EA
:100A50000B4C2040D1E902542C434D7944EA450423
:100A600020439060D06A20F470000C7C641EE4B2D5
:100A7000234340EA0350D06230BD0000FFFEF0FF88
:100A8000FDF7F1FFF0B504460D4600200021092DC9
:100A900011DDE068A5F10A0606EB4607072606FA0F
:100AA00007F18843A5F10A0606EB460603FA06F1AC
:100AB0000843E0600CE0206905EB4507072606FACD
:100AC00007F1884305EB450603FA06F10843206168
:100AD000072A0FDA606B561E06EB86071F2606FAFA
:100AE00007F18843561E06EB860605FA06F1084311
:100AF000606322E00D2A0FDA206BD61F06EB860713
:100B00001F2606FA07F18843D61F06EB860605FA6C
:100B100006F10843206310E0E06AA2F10D0606EB3F
:100B200086071F2606FA07F18843A2F10D0606EB99
:100B3000860605FA06F10843E062F0BD816841F0DF
:100B400008018160704721B1826842F4A00282608E
:100B500003E0826822F4A00282607047816841F05D
:100B600004018160704710B503F0B2FB04F0DAFCB9
:100B700003F07AF903F02CFC03F066FB10BD00BF14
:100B8000FEE7000012480078042812DC11480068D3
:100B9000012801D0012070470F488068406A0E4943
:100BA000098A884212D00C488068407870B90120C8
:100BB000F1E709488068406A0749098A884205D0F8
:100BC00005488068407808B90120E4E70020E2E7A2
:100BD0004804002008012242FC030020104800685D
:100BE000012814D10F480068012816D10E4840682A
:100BF000407890B90D484068406A0C49496988427C
:100C00000BD10A484068407838B90120704706483F
:100C10004068407808B90120F8E70020F6E70000B6
:100C2000080122420C8122424804002020040020B6
:100C300010B506480068012805D00021402000F0CA
:100C400019FC002010BD0120FCE7000004812242B5
:100C500010B506480068012805D00021102000F0DA
:100C600009FC002010BD0120FCE7000038012342F0
:100C700010B54FF4007000F0D5F850B14FF400708B
:100C800000F00CF880210348FFF74BFD024803F009
:100C90008BFB10BD1C1F00203000024000F0805173
:100CA00011B10349086001E0024948607047000043
:100CB000040402400000024021B1026842F0010237
:100CC000026004E002684FF6FE731A40026070474B
:100CD00001684FF6FE721140016000210160416021
:100CE0008160C1604B49884208D14A490839496846
:100CF00041F00F01474A083A51608AE045491431F2
:100D0000884208D143490839496841F0F001414A15
:100D1000083A51607DE03F492831884208D13D4979
:100D20000839496841F470613A4A083A516070E004
:100D300038493C31884208D136490839496841F47C
:100D40007041344A083A516063E032495031884278
:100D500008D130490839496841F470212D4A083AD0
:100D6000516056E02B496431884208D1294908393D
:100D7000496841F47001274A083A516049E0254921
:100D80007831884208D123490839496841F07061B7
:100D9000204A083A51603CE01F49884206D1011FB1
:100DA000096841F00F01021F116032E01A49143145
:100DB000884208D11849091F096841F0F001164A14
:100DC000121F116025E014492831884208D11249C8
:100DD000091F096841F470610F4A121F116018E081
:100DE0000D493C31884208D10B49091F096841F47B
:100DF0007041094A121F11600BE0074950318842C7
:100E000007D10549091F096841F47021024A121FE0
:100E1000116070470800024008040240014648681B
:100E200080B2704701460020002201F0805313B1C8
:100E3000054B1A6801E0054B1A6802EA01030BB181
:100E4000012000E000207047000402400000024042
:100E50001AB103680B43036002E003688B4303602D
:100E6000704710B50022026847F6F0739A430C6A87
:100E70008B6823430C6923434C6923438C692343C8
:100E8000CC6923434C6A23438C6A23431A43026090
:100E9000CB6843600B6883604B68C36010BD4160E2
:100EA0007047704710B5012000F0B6F970B33220DA
:100EB00007F0ECF816480078072810DD15480068A0
:100EC000012820D01448806AC8281CD90021134862
:100ED00005F00AFF002010494870886213E00C48B2
:100EE000007806280FD10A4890F8280001280AD176
:100EF00008480068012806D00021084805F0F4FEE3
:100F0000002005494870012000F080F910BD000064
:100F1000480400200081224288010020000800408F
:100F200010B541A0FFF70EFA4FF4806000F074F99D
:100F3000A8B1322007F0AAF83E480068012807D17E
:100F400000213D4805F0D0FE00203C494862487031
:100F50003BA0FFF7F7F94FF4806000F057F94FF42A
:100F6000006000F059F9B0B1C82007F08FF831489F
:100F7000001D0068012807D00021354805F0B4FEA7
:100F800000203449486248704FF4006000F03EF998
:100F900031A0FFF7D7F94FF4805000F03DF9D0B100
:100FA000322007F073F823480830006801280BD17D
:100FB00000212D4805F098FE01201E49743108607B
:100FC00000202A49486248704FF4805000F01EF912
:100FD00027A0FFF7B7F94FF4005000F01DF9B0B1AA
:100FE000322007F053F813480C300068012807D16D
:100FF0000021234805F078FE00202249486248700D
:101000004FF4005000F002F91FA0FFF79BF94FF4D6
:10101000004000F001F930B14FF4004000F0F6F864
:101020001CA0FFF78FF910BD6578746931352D313B
:10103000300D0A0028012342002C01404800002006
:1010400047455F73746172745F53656E0D0A0000EB
:10105000000C00408800002047435F726F745F53AC
:10106000656E0D0A0000000000040040C80000206A
:1010700047435F7665725F73656E0D0A000000007E
:101080000034014008010020457874692031330D97
:101090000A000000657874692031350D0A000000EF
:1010A00010B5082000F0B8F8A0B1322006F0EEFF2D
:1010B00009480068012807D10021800705F014FEC7
:1010C0000020064948624870082000F09FF804A0FC
:1010D000FFF738F910BD00000C81224248010020C2
:1010E0006578746920330D0A0000000010B52020D7
:1010F00000F092F8B0B1322006F0C8FF2E48006828
:10110000012809D10021800705F0EEFD2B48406938
:101110002B49486200204870202000F077F829A071
:10112000FFF710F9402000F077F8A8B1322006F060
:10113000ADFF2148001D0068012807D10021254886
:1011400005F0D2FD0020244948624870402000F09C
:101150005DF822A0FFF7F6F84FF4807000F05CF81D
:10116000E8B1322006F092FF20480078062812D11C
:101170001F48006801280ED11D48001D0068012885
:1011800009D000211B4805F0AFFD00201A49487026
:101190001AA0FFF7D7F84FF4807000F037F84FF43B
:1011A000007000F039F830B1322006F06FFF4FF4D4
:1011B000007000F02BF810BD14812242480400207A
:1011C00048010020474F485F656E645F73656E0D90
:1011D0000A0000000008004088010020474F565FC9
:1011E00073746172745F53656E0D0A00DC03002036
:1011F00020012342002C01404800002047455F6445
:101200006F776E5F53656E200D0A0000014908601C
:101210007047000014040140014600200022074BE3
:101220001B6803EA0102054B14331B680B4013B122
:101230000AB1012000E000207047000000040140D6
:10124000002123498279002A3AD00A4612680368AD
:101250009A430B461A600A1D126803689A430B1DD5
:101260001A60027911440A6803681A430A60184A2E
:101270000832126803689A43154B08331A601A1D26
:10128000126803689A43124B0C331A604279102A91
:101290000ED11A1F126803681A430D4B08331A60E7
:1012A0001A1D126803681A43094B0C331A600DE0CB
:1012B0000749427911440A6803681A430A6005E045
:1012C000027911440A6803689A430A607047000073
:1012D0000004014008B53D4802683D4801883DA032
:1012E000FFF730F83A48008840F0010068B137480D
:1012F00000783F49009008780978491C3C4B1970E8
:1013000001230622114606F033FD3148008800F023
:10131000200050B1364908780978491C344B1970BF
:1013200009230622114606F003FD2948008800F033
:10133000400050B12E4908780978491C2C4B19708F
:101340000A230622114606F0F3FC2148008800F02B
:10135000100050B1264908780978491C244B1970AF
:1013600008230622114606F0E3FC1948008800F025
:10137000800050B11E4908780978491C1C4B19702F
:101380000B230622114606F0D3FC1148008800F416
:10139000807050B1164908780978491C144B1970AF
:1013A0000C230622114606F0C3FC0948008800F40D
:1013B000007050B10E4908780978491C0C4B19701F
:1013C0000D230622114606F0B3FC08BD20000020C4
:1013D0007E0400206572726F723A25642065727215
:1013E0006F725F73656E736F7225640D0A00000083
:1013F000DB01002038B504460D4605F065FE0020EF
:10140000164988764870082008700020144981F831
:101410002000C8700F2008700020124981F82300B6
:1014200088701020087000200F4981F8280088700B
:101430000E2008700D48008840F002000B4908801B
:101440000B49009508780978491C094B1970234607
:101450000622114606F08CFC38BD0000DC0300209B
:10146000FC03002020040020480400207E0400200B
:10147000DB01002070B504460D464E48008820432D
:101480004C4908804C4805600846008800F001007F
:1014900018B305F019FEFFF71DFF002047498876B5
:1014A00002204870082008700020454981F820007B
:1014B0000220C8700F2008700020424981F82300E4
:1014C000022088701020087000203F4981F8280011
:1014D000022088700E20087070BDFFF7FBFE3548B3
:1014E000008800F0200030B109203649C870002083
:1014F0008870102008702F48008800F0400038B134
:10150000304800782F49C87000208870102008707B
:101510002848008800F0100038B12B4800782A498C
:10152000C870002088700E2008702248008800F0E3
:10153000800038B1244800782349C87000208870A2
:101540000E2008701B48008800F4807030B109201C
:101550001B4988700020C8700F200870154800884B
:1015600000F4007008B307201649C8700020887086
:1015700010200870002081F8230008201249C8704C
:10158000002088700E200870002081F828000C4888
:1015900000780B2809DD0B20094988700020C870ED
:1015A0000F200870002081F82000032007490870F0
:1015B00000BF91E77E04002020000020DC03002013
:1015C000FC03002020040020480400207C040020AC
:1015D00008B50121302003F015FFFB20ADF8000015
:1015E00048208DF803006946054801F01FFD0420DE
:1015F000ADF800006946034801F018FD08BD000081
:10160000001401400010014008B50121402003F002
:10161000F9FE4FF47F40ADF8000048208DF803003C
:101620006946024801F002FD08BD000000180140B3
:101630001CB5FFF7CDFF0121084603F0E3FE0020B3
:101640008DF8040001208DF806000021032001F030
:10165000CDFC0C208DF80500012000906846FFF7B6
:10166000EFFD0321084601F0C1FC08208DF80500BC
:1016700000906846FFF7E4FD0521032001F0B6FC69
:1016800008208DF80500202000906846FFF7D8FD5F
:101690000621032001F0AAFC08208DF80500402057
:1016A00000906846FFF7CCFD0721032001F09EFC67
:1016B0000C208DF80500802000906846FFF7C0FDE3
:1016C0001CBD0EB5FFF7A0FF0121084603F09AFEEE
:1016D00000208DF8080001208DF80A000D2104205B
:1016E00001F084FC08208DF809008002019001A817
:1016F000FFF7A6FD0C21042001F078FC08208DF8EE
:1017000009004002019001A8FFF79AFD0B21042077
:1017100001F06CFC0C208DF809004FF40060019082
:1017200001A8FFF78DFD0A21042001F05FFC0820CD
:101730008DF80900C001019001A8FFF781FD092182
:10174000042001F053FC08208DF80900800101906D
:1017500001A8FFF775FD0821042001F047FC0820CF
:101760008DF809004001019001A8FFF769FD2820CC
:101770008DF8000002208DF8010000208DF8020095
:1017800001208DF80300684602F0A0FE17208DF8B6
:10179000000002208DF8010000208DF802000120D9
:1017A0008DF80300684602F091FE0EBD0149C86045
:1017B000704700000020024030B5044604254FF475
:1017C000302000F06FF80546042D17D10C48006951
:1017D00040F002000A49086108464461006940F08F
:1017E000400008614FF4302000F05CF805460448E2
:1017F000006941F6FD71084001490861284630BD85
:101800000020024004200B49C96801F0010109B120
:1018100001200EE00749C96801F0040109B1022066
:1018200007E00449C96801F0100109B1032000E094
:1018300004207047002002400348006940F0800007
:1018400001490861704700000020024070B504465D
:101850000D460426F00200F025F80646042E11D1AC
:101860000948006940F00100074908612580F0023D
:1018700000F018F806460448006941F6FE71084079
:1018800001490861304670BD00200240024803490A
:1018900048600348486070472301674500200240C4
:1018A000AB89EFCD00B502460423FFF7ABFF03463B
:1018B00003E0FFF7A7FF0346521E012B01D1002AC8
:1018C000F7D102B90523184600BD000010B55048F5
:1018D0000078102809D2DFE800F008090C120F1573
:1018E0001F29324F545D748B97988FE003F078FE78
:1018F0008CE003F075FE89E003F072FE86E003F0F1
:101900006FFE83E000204249487081F8210081F891
:101910002000C870087079E000203D49487081F8C7
:10192000210081F82000C87008706FE0384890F8F6
:10193000220018B90321082002F00AFE66E03548AB
:10194000007806280BD133484078022807D10020C0
:101950002F49C87081F82000092008700BE02D483D
:101960000078072807D10020294981F820000E209F
:1019700008700020C87049E004210A2002F0E8FD48
:1019800044E000202249C8700B200870002081F834
:1019900020003BE020480078082811D11E488078BC
:1019A00002280DD11D484068406A1C494969884297
:1019B00006D10020164981F82000C8700C2008705C
:1019C00024E015480078092811D1134880780228AE
:1019D0000DD112484068406A10494969884206D1D1
:1019E00000200B4981F82000C8700D2008700DE020
:1019F000074890F8220030B90020054981F82000FE
:101A0000C8700720087001E000E000BF00BF10BDF3
:101A1000FC030020DC0300204804002020040020F8
:101A200010B5E5480078102809D2DFE800F0080971
:101A300013282E357AFAFEF7F6F5F4F3F2F1B9E150
:101A4000DD4900224868114606F0ECFD0120DA4924
:101A5000C870AFE1D9480068012803D00220D649F8
:101A6000C8700BE0FFF7BAF840B1D349002288688C
:101A7000114606F0D7FD0120CF49C8709AE1012038
:101A8000CF490860CC49C87094E10020CC49086077
:101A90000120C949C8708DE1C74890F8200028B9D5
:101AA000C5490878032102F053FD39E0C24890F897
:101AB0002000012805D1C0490878012102F048FD25
:101AC0002EE0BD4890F82000022820D1BB480068D5
:101AD000012817D00020B84989688870B6498868FD
:101AE00006F08CFEB44A926892884FF4C87302FBE9
:101AF00003F1B14A9068002206F072FD0120AE4960
:101B0000C8700DE00320AC4981F8200008E0AA4825
:101B100090F82000032803D10221002002F018FDD4
:101B200048E1A54890F8200028B9A3490878012188
:101B300002F00EFD6BE0A04890F8200001281BD1B8
:101B40009F48A8380068012805D19B4908780221E0
:101B500002F0FEFC5BE09B484068406A99490969D5
:101B6000884254D197484068407800284FD10320DC
:101B7000914981F820004AE08F4890F8200002281F
:101B80001DD191480068012814D18E484068406AF0
:101B90008C49096988423AD18A484068407838BB04
:101BA00001208549C8700A46118A9068002206F013
:101BB00039FD2CE00320804981F8200027E07E4891
:101BC00090F82000032805D17B490878032102F012
:101BD000BFFC1CE0784890F82000042809D1764A20
:101BE000518A9068002206F01DFD01207249C870DC
:101BF0000DE0714890F82000052808D17048A838F9
:101C00000068012803D10221002002F0A1FCD1E0EC
:101C100080E07EE069E050E042E034E01CE004E077
:101C2000FFE702206449C870C4E063488068406AE6
:101C300061494969884203D102205F49C8700AE0BE
:101C4000FEF7CCFF38B15C4A518A906806F04CFD33
:101C500001205949C870ADE058480838006801288B
:101C600010D056480C38006801280BD157484068FE
:101C7000407838B9504A5169506806F035FD012066
:101C80004D49C87096E04C4A52694B4B9B69D11A3A
:101C9000494A506806F028FD01204749C87089E08C
:101CA0004549496809694A0043494868002106F0E6
:101CB000B9FC01204049C8707CE040480068012818
:101CC00003D002203C49C8700EE0FEF787FF58B1F0
:101CD0003949896809694A0037498868002106F04E
:101CE000A1FC01203449C87064E036484068406A6D
:101CF0003449096988420BD132484068407838B984
:101D00002D4A118A906806F0EFFC01202A49C8701C
:101D100050E04FE02E48008800F4807060B1264902
:101D2000496809694A0024494868002106F07AFC9C
:101D300001202149C8703CE02548008800F400706B
:101D4000F8B11D4890F82000E0B91B488068406A4F
:101D50001949498A884207D117488068407818B9DC
:101D600002201549C87024E016484068407840B900
:101D7000114900228868114606F054FC01200E49E2
:101D8000C87016E00C4890F82000012811D10C48CA
:101D9000A838006801280CD10A484068407840B94A
:101DA000054A518A9068002206F03CFC0120024955
:101DB000C87000BF00BF10BDFC0300202C012342EF
:101DC000B48122424804002008012242DC030020A2
:101DD0007E04002010B592480078102809D2DFE870
:101DE00000F008091ACB8927427879819AA2B3C0FA
:101DF000DCDD12E18B480068012803D1022088490C
:101E0000C87007E086484068407818B9052101206D
:101E1000FFF730FB01E18348001F0068012803D071
:101E200002207F49C87002E07D4880684078F4E075
:101E30007B4890F82000A8B1794890F8200001284C
:101E400010D0774890F8200002280AD174488068A2
:101E5000407838B900207249C870032081F820000A
:101E600000E000BFD9E06E4890F8200070B36C48E5
:101E700090F8200001282BD0694890F82000022813
:101E80000DD167488068407800BB00206449C87065
:101E9000084690F82000401C81F8200018E06048B7
:101EA00090F82000032813D05D4890F82000042803
:101EB0000DD15B488068407840B900205849C8700F
:101EC000084690F82000401C81F8200000E000BF88
:101ED000A3E0A2E052488068407810B9022050493F
:101EE000C8709AE04E484068407810B902204C49CA
:101EF000C87092E04A48C06864280BD94A48006814
:101F0000012803D102204649C87003E010210120B6
:101F1000FFF7B0FA81E042484068407810B90220EB
:101F20003F49C87079E03F480068012803D102208A
:101F30003B49C87007E03A484068407818B9052125
:101F40000120FFF797FA68E03648001F0068012873
:101F500003D002203249C87002E0314880684078DE
:101F600000BF2F488068407828B901202C4981F8AB
:101F700022000220C87050E02948C06864280BD9AC
:101F800029480068012803D002202549C87003E0D1
:101F900010210120FFF76EFA3FE03EE02348008861
:101FA00000F4807080B11F480068012803D102202E
:101FB0001B49C87030E01A484068407860BB052172
:101FC0000120FFF757FA27E01848008800F4007056
:101FD00010B3134890F8200078B91248001F006829
:101FE000012806D000200E49C870012081F8200089
:101FF00012E00B48806840780EE0094890F8200015
:10200000012809D106488068407828B9022004498F
:10201000C870002081F8200000BF00BF10BD000084
:10202000FC03002030012342080122427E040020EC
:1020300010B51848C07820B9FFF7F2FC0020154908
:10204000C8601448C078012811D1FFF7C3FE1148B9
:10205000C068401C0F49C8600846C06844F620614B
:10206000884204D90B4801780320FFF7C3F90948D7
:10207000C07802280CD107480078062802DCFFF758
:1020800025FC05E004480078022801D0FFF71EFC7B
:1020900010BD0000FC0300207C04002008B5464869
:1020A0000078012807D14548007844490872072084
:1020B0000870002048704148007809287AD2DFE88B
:1020C00000F00506234052616777780072E03C48D3
:1020D0000078C0B93B480078A8B93B48007890B96F
:1020E0003648007F50B10020344908770220009024
:1020F000C87E01230522062105F03AFE00202F4963
:1021000008704870887655E02D480078C0B92D4891
:102110000078A8B92C48007890B92848007F50B1C1
:1021200000202649087702200090C87E0823052257
:10213000062105F01DFE00202049087048708876B1
:1021400038E000201D49087048700846007F48B1FB
:102150000020087702200090C87E03230522062174
:1021600005F006FE26E01548007F50B10020134917
:10217000087702200090C87E04230522062105F07E
:10218000F7FD17E000200D4948700620087011E0A7
:1021900005F0D8FE58B10D480068012807D00B485B
:1021A000001D0068012802D000200449487001E0A9
:1021B00000E000BF00BF08BD7C040020DC0300205D
:1021C000FC030020200400204804002020012342BA
:1021D00010B556480078092806D2DFE800F0050659
:1021E00039466373929FA0009DE05048807EF0B90D
:1021F0004F480068012816D100204C494968887072
:102200004A49486806F0FAFA484A5268928802EB4E
:1022100082025100454A5068002206F0E1F901208F
:102220004249487013E00120404988760FE03F485A
:10223000807E01280BD105F085FE40B13B4900228C
:102240004868114606F0EEF90120384948706AE006
:1022500005F078FE40B1354900224868114606F085
:10226000E1F90120314948705DE0314800680128FA
:102270000BD12E49486808F043F900202B494968E2
:1022800048620220294948700BE005F05BFE40B12E
:10229000264900224868114606F0C4F90120234966
:1022A000487040E005F04EFE58B1204A5268126A6C
:1022B000A2F164011D4A506806F016FA01201B497C
:1022C000487030E000201949087619480068012854
:1022D0000AD1486808F014F9002014494968486296
:1022E0000220124948700BE005F02CFE40B10F4966
:1022F00000224868114606F095F901200B49487004
:1023000011E005F01FFE40B1084A11695068002233
:1023100006F088F901200549487004E003E0022036
:102320000249487000BF00BF10BD0000DC03002060
:102330002801234210B548480078092806D2DFE872
:1023400000F005062A3D4E566786870081E0424828
:10235000807E48B9404840684078D8B900203E495E
:1023600048700120887615E03B48807E012811D115
:102370003A480068012805D10220374948700020FA
:10238000887607E034484068407818B9012108464B
:10239000FFF770F85DE031480068012805D10220A0
:1023A0002D4948700020887607E02B484068407827
:1023B00018B901210846FFF75DF84AE02748006890
:1023C000012803D102202449487007E022484068D0
:1023D000407818B901210846FFF74CF839E01E484B
:1023E0004068407810B902201B49487031E01B4812
:1023F0000068012803D102201749487007E01648F9
:102400004068407818B901210846FFF733F820E00A
:10241000114840684078C8B90F484068406A0E4982
:102420000969884205D107200B49087000204870CF
:102430000FE00A4808380068012803D10220064945
:10244000487003E003210120FFF714F801E000E0E9
:1024500000BF00BF10BD0000DC03002028012342A4
:1024600010B51848407820B9FFF7B2FE0020154992
:10247000C86014484078012811D1FFF75BFF11486C
:10248000C068401C0F49C8600846C06844F6206117
:10249000884204D90B4801780220FEF7ABFF0948B7
:1024A000407802280CD107480078042802DCFFF7A6
:1024B000F5FD05E004480078022801D0FFF7EEFDA5
:1024C00010BD0000DC0300207C04002008B5694832
:1024D00000780F2809D2DFE800F008090C0F182255
:1024E000442C5E8899B1B6C8C900C0E003F094F8E6
:1024F000BDE003F091F8BAE05E488068416A5EA0F2
:10250000FDF720FF03F088F8B1E00020594981F879
:10251000290048708870087081F82800A7E0002022
:10252000544981F8290048708870087081F82800A3
:102530009DE000204F4981F8280081F8290048706B
:10254000084690F82B0058B1002081F82B0002209B
:10255000009091F82A0004230522062105F008FCCA
:1025600085E00020434981F82900487081F828005F
:1025700088700870084690F82B0058B1002081F848
:102580002B000220009091F82A0004230522062146
:1025900005F0EEFB6BE03D4800780C2809D13B4884
:1025A000C078022805D100203249887009200870BF
:1025B0001AE0364800780E2816D10D202D490870F3
:1025C000002088703248007801280DD03149087801
:1025D0000978491C2F4B197007230522062105F0A5
:1025E000A7FB07202A49087041E028488068406A14
:1025F0002649498A884208D127480068012804D121
:1026000000201C4988700A20087030E023480078B8
:10261000401E2249087000201E4900900878097861
:10262000491C1C4B197001230322114605F0A0FB25
:102630000020104988700B20087018E00321082042
:1026400001F0BAFF13E000201249009008780978E1
:10265000491C104B197002230322114605F088FB18
:102660000321082001F0A8FF01E000E000BF00BF47
:1026700008BD00004804002061646A20626F782071
:10268000706F733A25640D0A00000000FC030020FF
:102690007C040020DB010020000123428004002094
:1026A00008B5FE480078002803DC0120FC4981F8C9
:1026B0002C00FB4800780F2809D2DFE800F0080959
:1026C000213E60D5F2F1F0EFEEEDECEBEA00E4E252
:1026D000F448006801280AD1F149886807F010FF22
:1026E0000220EF49887000208968486207E00120D5
:1026F000EB49887000228868114605F093FFCCE210
:10270000E8480C38006801280AD1E549486807F014
:10271000F7FE0220E24988700020496848620BE019
:10272000FEF730FA40B1DE4900224868114605F054
:1027300079FF0120DA498870AFE20120D84988701A
:10274000002089688870D649886806F057F8D5480F
:102750000068012809D1D4A0FDF7F4FDD04AD18C3E
:102760009068002205F03CFF08E0D2A0FDF7EAFDEA
:10277000CB4A918C9068002205F032FF8DE2012057
:10278000C74981F82C000020C4490870C44890F85B
:10279000280000BBC3480C380068012816D100206F
:1027A000BF4949688870BE49486806F027F8BC4AA6
:1027B0005268928802EB82025100B94A50680022A6
:1027C00005F00EFF0120B64988704CE00120B449A5
:1027D00081F8280047E0B24890F82800012808D185
:1027E000FEF7D0F928B3AE490878022101F0E4FEE3
:1027F00039E0AB4890F82800022820D1A9480068A9
:10280000012817D10020A64989688870A4498868E2
:1028100005F0F4FFA24A9268928802EB820251000E
:102820009F4A90684FF4FA5205F0DAFE01209C4965
:10283000887018E003209A4981F8280013E098482E
:1028400090F82800032805D195490878012101F066
:10285000B3FE08E0924890F82800042803D1032131
:10286000002001F0A9FE18E28D4890F8280048BB2E
:10287000FEF788F900285AD08A480C3800680128E9
:1028800010D1874890F82800401C854981F828001D
:102890004DE096E194E178E165E130E1ECE0CDE0F6
:1028A00046E055E087488068406A8649498A884200
:1028B0003DD184488068407808BB0221002001F0A7
:1028C0007BFE34E0764890F82800012818D17E4835
:1028D0000068012810D17D480068012827D0794878
:1028E0008068407858B96E4A1169506805F0FCFE5E
:1028F00001206B4988701AE002206949887016E04F
:10290000674890F82800022811D1FEF73BF970B112
:102910006C488068406A6B49498A884207D1694897
:102920008068407818B90221002001F045FEB4E12A
:1029300001205B4981F82C00002058490870584A52
:10294000116A906805F0D0FE012055498870A4E115
:10295000534890F82800F0B95C480C300068012812
:1029600008D14F498868002105F0BEFE01204C497E
:10297000887062E002204A49887007200870544835
:10298000008840F0100052490880FEF7A3FC0020A8
:102990004F49088051E0424890F8280001281AD198
:1029A00040480068012804D102203D4981F82800F0
:1029B00043E000203A49896888703949886805F001
:1029C0001DFF374A116A9068002205F009FE0120B8
:1029D0003349887031E0324890F8280002282CD121
:1029E0003A480C30006801281FD100203949009076
:1029F00008780978491C374B1970022303221146C5
:102A000005F0B6F927480068012803D13C20234986
:102A1000087002E01E20214908700020204981F83A
:102A20002C00032101F0C8FD07E000201C490870BC
:102A3000887000211020FEF71DFD2EE119480C388A
:102A4000006801280AD11649486807F059FD02209C
:102A5000134988700020496848620CE0FEF792F83C
:102A600048B10F4945F2C0324868002105F0DAFD4F
:102A700001200B49887010E109484068406A084904
:102A8000096988422AD10649486807F039FD0220C1
:102A9000034988700846006949681DE080040020E9
:102AA00048040020188122426475616C20626F78AE
:102AB0000D0A000073696E67616C20626F780D0A01
:102AC00000000000FC030020080122422C012342E8
:102AD0007E040020DB01002048620FE0704800689F
:102AE00001280BD06F480068012807D16E49887013
:102AF0000A4611695068002205F094FDCDE06B484C
:102B0000006801280BD16849486807F0F9FC0220E9
:102B100065498870084640694968486222E0624811
:102B200090F82C00012804D100218020FEF7A2FC9F
:102B300018E0FEF78DF888B15C4814380068012869
:102B40000CD0FEF71FF868B10120574988700A467B
:102B500051695068002205F065FD03E00B2101205A
:102B6000FEF788FC99E000204F49896888704E493B
:102B7000886805F043FE4C4AD1699068002205F050
:102B80002FFD01204849887087E0484814380068C4
:102B9000012811D100204449896888704249886819
:102BA00005F02CFE404A91699068002205F018FD5E
:102BB00001203D49887002E002203B4988706CE0AA
:102BC0006BE03B48008800F0100018B10220364945
:102BD000887061E03648008800F0800018B102205B
:102BE0003149887058E03248008800F4007010B312
:102BF0002D4890F82800F8B92C48083800680128BA
:102C000008D129484068407820B90120264981F838
:102C1000280041E02248006801283DD0254880680E
:102C2000407840B9204900224868114605F0FAFC76
:102C300001201D4988702FE01B4890F828000128CA
:102C400014D11C488068406A1A49498A884223D1B5
:102C5000184880684078F8B9134A116B5068002210
:102C600005F0E0FC01201049887015E00E4890F84E
:102C70002800022810D11048807802280CD10E4874
:102C80000078102808D1084900224868114605F04C
:102C9000C9FC01200449887000BF00BF08BD0000C6
:102CA0002C012342080122424804002014812242C0
:102CB0007E040020FC0300202004002010B5A7485B
:102CC00000780F2809D2DFE800F008091A2C345ADE
:102CD000787099ABB3C5DEECED003DE1A04800682B
:102CE000012803D102209D49887007E09B48806835
:102CF000407818B90A210120FEF7BCFB2CE1984866
:102D00000C380068012803D102209449887007E03C
:102D100092484068407818B907210120FEF7AAFBC5
:102D20001AE18E488068407810B902208B4988707B
:102D300012E18A4890F8280050B9884840684078E5
:102D4000E0B9002085498870012081F8280015E04D
:102D5000824890F82800012810D0804890F8280078
:102D600002280AD17D488068407838B900207B4924
:102D70008870032081F8280000E000BFECE077486D
:102D800090F8280080B1754890F8280001280AD1F1
:102D900072484068407838B9002070498870022035
:102DA00081F8280000E000BFD6E06C4880684078D9
:102DB00010B9022069498870CEE0684890F8280070
:102DC00050B9664880684078B8B900206349887077
:102DD000012081F8280010E0604890F828000128C0
:102DE0000AD15E488068407838B900205B49887015
:102DF000022081F8280000E000BFADE058480C3800
:102E00000068012803D102205449887007E0534824
:102E10004068407818B907210120FEF72BFB9BE0A2
:102E20004E484068407810B902204C49887093E0C1
:102E30004B48001F0068012803D1022047498870D1
:102E400007E046484068407818B909210120FEF79C
:102E500011FB81E041488068407898B93F4880681C
:102E6000416A40A0FDF76EFA3D4818380068012815
:102E700003D002203949887004E000203749887067
:102E80000C20087068E035488068407840B902201E
:102E90003249887008468068416A37A0FDF752FAC7
:102EA0005AE059E03948008800F0100018B10220BB
:102EB0002A4988704FE03548008800F0800018B13A
:102EC00002202649887046E03048008800F40070EF
:102ED00038B3224890F82800A0B921480C3800687F
:102EE000012806D100201D498870012081F82800A2
:102EF00031E01A484068407898B907210120FEF770
:102F0000B9FA28E0154890F8280001280AD113489A
:102F10004068407828B9002010498870022081F864
:102F2000280018E00D4890F82800022813D10C481A
:102F30000C380068012806D102200849887000205A
:102F400081F8280007E005484068407818B9072153
:102F50000120FEF78FFA00BF00BF10BD480400201B
:102F6000188122426F757420626F7820706F733AF7
:102F700025640D0A000000006E65787420626F7889
:102F800020706F733A25640D0A0000007E04002053
:102F900010B51448807820B9FFF782FB0020114952
:102FA000C86010488078012811D1FFF787FE0D48CE
:102FB000C068401C0B49C8600846C06844F62061E0
:102FC000884204D9074801780520FEF713FA05481E
:102FD0008078022805D104480078022801D0FFF744
:102FE00075FA10BD480400207C04002030B5002292
:102FF0008B071C0F0F2303FA04F20B4B8C1053F8B2
:1030000024309343084C8D1044F8253023468C100F
:1030100053F824308C07240F00FA04F42343024CA5
:103020008D1044F8253030BD080001402DE9F041F5
:10303000024600250026002000230024002791F8E6
:1030400003C00CF00F0591F803C00CF0100CBCF19C
:10305000000F03D091F802C04CEA050591F800C0BA
:10306000BCF1000F31D0146800202BE04FF0010CB0
:103070000CFA00F3B1F800C00CEA03069E4220D11E
:1030800083004FF00F0C0CFA03F7BC4305FA03FC66
:103090004CEA040491F803C0BCF1280F06D14FF0AC
:1030A000010C0CFA00FCC2F814C00AE091F803C04D
:1030B000BCF1480F05D14FF0010C0CFA00FCC2F82E
:1030C00010C0401C0828D1D31460B1F800C0BCF176
:1030D000FF0F34DD546800202EE000F1080C4FF0A3
:1030E000010808FA0CF3B1F800C00CEA03069E428E
:1030F00021D183004FF00F0C0CFA03F7BC4305FA03
:1031000003FC4CEA040491F803C0BCF1280F05D17C
:1031100000F1080C08FA0CF8C2F8148091F803C00A
:10312000BCF1480F07D100F1080C4FF0010808FA74
:103130000CF8C2F81080401C0828CED35460BDE8BB
:10314000F0810000F0B50A4600230024002100258C
:1031500000F00046B6F1004F02D11D4EF16901E0CA
:103160001B4E7168C0F3034583B200F44016B6F5F8
:10317000401F08D121F07061154E766826F0706608
:10318000134F7E6012E000F48016B6F5801F06D162
:10319000032606FA05F4A14341F0706106E0460DEE
:1031A000360103FA06F6B14341F0706122B1460DD3
:1031B000360103FA06F6314300F00046B6F1004F3F
:1031C00002D1034EF16101E0014E7160F0BD0000DB
:1031D000000001400246002093680B400BB1012023
:1031E00000E00020704741617047016170470000B6
:1031F00010B56848007811280AD2DFE800F0090A03
:1032000016191C1F29334F586A7CA3ACB5C6C700DA
:10321000BDE000F0A7FD00205E4981F82400487061
:1032200081F8230088700870B1E002F0E7F9AEE0A1
:1032300002F0E4F9ABE002F0E1F9A8E00020554922
:1032400081F82400487081F82300887008709EE09F
:103250000020504981F82400487081F823008870CC
:10326000087094E04C48007809280BDB4A48007845
:103270000B2807DC0020474981F8230088700820CC
:1032800008700AE0444800780E2806D10F20414912
:1032900008700020887081F8230078E000203D4904
:1032A000887009200870002081F823006FE03B48F7
:1032B0000068012808D10020364988700A2008706B
:1032C000002081F8230003E000212020FEF7D2F83F
:1032D0005DE032480068012808D100202D4988703F
:1032E0000B200870002081F8230003E0002120203B
:1032F000FEF7C0F84BE0284800780D2816D1264884
:10330000C078022812D125480068012808D1002081
:10331000204988700C200870002081F8230010E0FC
:1033200000214FF40070FEF7A5F80AE01A48007873
:103330000E2806D10F20174908700020887081F8E8
:10334000230024E00020134988700D20087000201D
:1033500081F823001BE000200E4988700E200870C1
:10336000002081F8230012E00C483C380068012856
:103370000AD00B480068012806D10020054981F8D1
:10338000230088700720087001E000E000BF00BF44
:1033900010BD000020040020FC0300203C0123425B
:1033A0001081224210B5FA48007811280AD2DFE8CD
:1033B00000F0090A102138478BF4F2F1F0EFEEED3E
:1033C000ECEBEA0044E200F0D7FC0120F049887001
:1033D0003EE2F0480068012803D10220EC498870E1
:1033E00007E00120EA49887000224868114605F08C
:1033F00019F92DE2E74834380068012807D1E6487A
:103400000068012803D10220E149887008E001200A
:10341000E149A0310860E149C1F8AC01DC4988709C
:1034200016E20120DE490860DC49C1F8B801DA493A
:10343000AC31086000F096FC0120D549887007E2A5
:10344000D34890F8230028B9D1490878042101F025
:1034500099F838E0CE4890F82300012805D1CC49EE
:103460000878032101F08EF82DE0C94890F8230078
:1034700002281FD1C7480068012816D10020C4497E
:1034800049688870C249486805F0B8F9C04A52686E
:10349000928802EB82025100BD4A5068002205F07A
:1034A0009FF80120BA4988700DE00320B84981F8DF
:1034B000230008E0B64890F82300032803D1022136
:1034C000002001F05FF8C3E1B14890F8230090B903
:1034D000B04808300068012808D1AD4A51695068E9
:1034E00005F002F90120AA4988704BE00220A849A2
:1034F00081F8230046E0A64890F82300012807D170
:103500000020A5499C3108600120A149887039E05C
:103510009F4890F82300022805D19D49087804218E
:1035200001F030F82EE09A4890F82300032805D1E6
:1035300097490878032101F025F823E0944890F892
:103540002300042811D197480068012804D00221E3
:10355000002001F017F815E08D4A5169506805F018
:10356000C3F801208A4988700CE0894890F823004C
:10357000052807D18B480068012803D002210020CC
:1035800001F000F864E1F6E0F4E0BFE081E06CE017
:1035900061E049E02FE025E0FFE7FDF749FB00B3DC
:1035A0007B4890F8230028B979490878032100F076
:1035B000E9FF16E0764890F82300012805D1744908
:1035C0000878022100F0DEFF0BE0714890F823003C
:1035D000022806D10020744981F8220002206C499B
:1035E000887035E101206A4988700A46516950683F
:1035F00005F07AF82CE1664890F8230038B90020ED
:103600006549A03108600120614988700BE060487D
:1036100090F82300012806D100205F499C31086002
:1036200001205B49887013E15A480830006801287E
:103630000CD100205A4908605849C1F8B8015649D0
:10364000AC31086001205249887003E0002120203D
:10365000FDF710FFFCE001204F499C310860534901
:10366000C1F88C014A498870F2E04F488068406A8E
:103670004D49098A88420BD14B488068407838B957
:103680000120434988700A469169506805F02CF87A
:10369000DEE040480068012803D102203C498870E0
:1036A00033E03B4890F8230028B90120384988705E
:1036B00000F062FB29E0364890F8230001280CD185
:1036C000334988700B469B690C46E469191B304BE3
:1036D0001A8C586804F0A6FF17E02D4890F82300D4
:1036E000022805D101202A49887000F03BFB0CE03C
:1036F000274890F82300032807D101202449887027
:1037000000224868114604F08DFFA1E0204890F89F
:10371000230038B9002020499C31086001201C4951
:10372000887026E01A4890F82300012805D11A492C
:10373000A0310860164988701BE0154890F82300F6
:10374000022806D101201449A83108601049887068
:103750000FE00F4890F8230003280AD101201049F8
:1037600008600E49C1F8B8010B49AC31086008493E
:1037700088706DE06CE00E48008800F02000C8B151
:10378000012005499C310860014988705FE0000014
:103790002004002034012342108122420080224272
:1037A0008081214208012242FC03002000002342C4
:1037B0007E0400202748008800F0400018B1022055
:1037C0002549887043E02348008800F40070F8B170
:1037D000214890F8230080B920484068406A1F497A
:1037E000096B884233D11C4900224868114604F015
:1037F00019FF01201849887029E0174890F8230024
:10380000012806D10020164908600120124988705D
:103810001DE0114890F8230002280ED10120114923
:1038200008601149C1F8B8010D491031086000F075
:1038300099FA01200849887009E0074890F82300A8
:10384000032804D10120064908600349887000BF9D
:1038500000BF10BD7E04002020040020480400208A
:10386000AC812242808121420080224210B5FE4874
:10387000007811280AD2DFE800F0090A15263E4632
:10388000619E9FA7D2E4FDF6F5F4F3000FE2F6483F
:103890008068B0F5FA6F04D900F064FA0220F249AA
:1038A000887004E2F1480068012803D10220EE4943
:1038B000887007E0EC484068407818B9062101207C
:1038C000FDF7D8FDF3E1E848806840F2DC5188421A
:1038D00010D9E64834380068012807D1E448006868
:1038E000012803D10220E049887003E00F21012064
:1038F000FDF7C0FDDBE1DC488068642802D90220C6
:10390000D9498870D3E1D84890F82300A8B1D648A7
:1039100090F82300012810D0D34890F82300022803
:103920000AD1D1484068407838B90220CE4981F8A0
:1039300023000020887000E000BFB8E1CA4890F87A
:10394000230050B9C8484068407888BB0120C64968
:1039500081F82300002088702CE0C34890F82300F1
:1039600001280CD1C048806840F2DC51884221D93E
:103970000220BD4981F82300002088701AE0BA486F
:1039800090F82300022815D0B74890F823000328A8
:1039900010D0B54890F8230004280AD1B2484068F6
:1039A000407828B90320B04981F8230000208870AE
:1039B00000E000BF7BE17AE1AB484068407810B995
:1039C0000220A949887072E1A74890F8230078B9CD
:1039D000A5488068B0F5967F20D9A54800680128E1
:1039E0001CD00120A04981F823000020887015E038
:1039F0009D4890F82300012810D19B48806840F230
:103A0000DC5188420AD9994834380068012805D029
:103A10000020954981F823000220887047E19248F0
:103A2000806864280CD9914808300068012803D1C7
:103A300002208D49887003E00C210120FDF71AFD5A
:103A400035E18948806840F2DC51884211D98748C5
:103A500034380068012808D102208349887008E0C2
:103A6000A5E0A3E056E00DE004E00E210120FDF703
:103A700001FD1CE17C484068407810B902207A4979
:103A8000887014E1784890F8230050B9764880682F
:103A900064283ED9002074498870012081F82300F1
:103AA00037E0714890F8230001280AD16E48406839
:103AB000407828BB00206C498870022081F82300E0
:103AC00027E0694890F8230002280AD166488068F8
:103AD00064281ED9002064498870032081F82300DF
:103AE00017E0614890F82300032812D15F4800686E
:103AF000012806D100205C4981F82300022088704B
:103B000007E059484068407818B906210120FDF7C0
:103B1000B1FCCCE0544890F8230070B9524880685A
:103B200051498989884240D900204F498870012035
:103B300081F823000020886037E04B4890F823008C
:103B400001280ED1484880684749C98988422CD944
:103B5000002045498870022081F8230000208860F9
:103B600023E0414890F8230002280CD13E488068A9
:103B700064281AD900203C498870032081F823006A
:103B80000020886011E0384890F8230003280CD109
:103B900035488068B0F57A7F07D90020324981F82E
:103BA0002300022088700020886080E07FE0314898
:103BB000008800F0200098B12B48806840F2DC516A
:103BC000884273D9294834380068012803D102207B
:103BD000254988706AE00E210120FDF74BFC65E065
:103BE0002448008800F0400060BB2248008800F4B0
:103BF000007038B31C4890F8230090B91B48006847
:103C0000012805D1184981F82300002088704DE073
:103C1000154840684078A8B906210120FDF72AFC24
:103C200044E0114890F8230001280CD10E48806828
:103C300040F2DC51884239D902200B4981F8230037
:103C40000020887032E0084890F82300022813D141
:103C500005488068642829D90320034981F8230096
:103C60000020887022E0000020040020340123425C
:103C7000108122427E0400200E4890F82300032881
:103C800014D10C48806840F2DC5188420ED90A48B1
:103C90000068012806D1022006498870002081F8BA
:103CA000230003E00E210120FDF7E4FB00BF00BF6D
:103CB00010BD0000200400200001234210B514486C
:103CC000807820B9FFF76EFB00201149886010480A
:103CD0008078012811D1FFF7C9FD0D488068401C8C
:103CE0000B4988600846806844F62061884204D900
:103CF000074801780420FDF77DFB054880780228FD
:103D000005D104480078022801D0FFF771FA10BDF0
:103D1000200400207C04002010B501F007FB00F017
:103D200085FA00200C4908600C49C1F8A401012063
:103D3000094908310860091D0860091D0860064925
:103D400018310860091D086005490860091D0860F0
:103D50000249C1F8B40110BDA08122420080224274
:103D60008081214210B501200249086000F01CFA50
:103D700010BD00008481214210B5044991F8220051
:103D800000F01EFA00200249086010BD2004002047
:103D90008481214210B501F099FA11490860114956
:103DA0000F48006808F0A9F80AD201200E490860FF
:103DB000642004F035F901200C49C1F8A00110BDC0
:103DC0000B490748006808F019F806D20020064998
:103DD00008600649C1F8A001F1E706480078EEE75F
:103DE000CC0100200000A043A48122420080224296
:103DF00000007A43C801002010B5002400201549B6
:103E000008601549C1F8B001012012490C31086061
:103E1000091D086011490860091D08600D49083135
:103E200008600D49C1F8A001FFF79CFF01F04EFAB0
:103E300004460B49204607F0E1FF05D20120054961
:103E4000091F0860032010BD00200249091F0860F7
:103E50000220F8E7AC812242008022428081214288
:103E60000000204100BFFEE738B5002401217C207E
:103E700001F0C8FA10208DF8030003208DF802002D
:103E800041F20304ADF8004069460F48FFF7CEF851
:103E900021460D48FFF7A9F94FF47F44ADF80040E3
:103EA00069460A48FFF7C2F821460848FFF79DF91E
:103EB0008024ADF8004069460548FFF7B7F8214671
:103EC0000348FFF792F938BD000C0140001401408F
:103ED0000018014010B500200F4908600F48006825
:103EE00020F470200D4908600846006840F4403016
:103EF000086000200A49C1F89001022004F02FFE5A
:103F0000012005490860022004F029FE002005492F
:103F1000C1F8840110BD0000840122420008014064
:103F2000000021420000224208B50121042001F0D6
:103F300069FA0121102001F065FA1020ADF80000A7
:103F40008DF8030003208DF8020069460848FFF74A
:103F50006DF80220ADF8000069460648FFF766F8E4
:103F60000120054908600549C1F8900108BD00001D
:103F7000000801400010014084012242000021425B
:103F800010B500200F4908600F48006820F4702029
:103F90000D4908600846006840F440300860012080
:103FA0000A49C1F89001022004F0D9FD0120054919
:103FB0000860022004F0D3FD00200549C1F8840107
:103FC00010BD00008401224200080140000021428F
:103FD0000000224270B5054600241648006820F40F
:103FE0007020144908600846006840F4002008600A
:103FF000002615E0002010490860022004F0AFFD03
:1040000001200E49C1F884016006040E0C480068C6
:1040100008B1601CC4B2012004F0A1FD701CC6B23E
:10402000082EE7DB15B9FFF7ABFF01E0FFF752FF02
:10403000204670BD00080140840122420000224257
:104040001001214270B504461448006820F4702025
:10405000124908600846006840F4403008600020BB
:104060000F490860002516E0E0090E490860600667
:10407000040E022004F073FD01200B49C1F88401F5
:10408000022004F06CFD002005490860022004F0C5
:1040900066FD681CC5B2082DE6DB70BD0008014056
:1040A00084012242900121420000224210B50F48B3
:1040B000006820F470200D4908600846006840F44C
:1040C0004030086001200A4908600A49C1F88401AB
:1040D000042004F044FD002005490860042004F099
:1040E0003EFD00200349C1F8840110BD00080140D5
:1040F000900121420000224210B50F48006820F4D0
:1041000070200D4908600846006840F4403008609F
:1041100000200A4908600A49C1F89001042004F00F
:104120001EFD0120054908600549C1F890010420E1
:1041300004F015FD10BD000000080140840122427A
:104140000000214210B500241348006820F47020BC
:10415000114908600846006840F40020086001200A
:104160000E49086004F0FBFC01200D49C1F88401F0
:1041700004F0F5FC07E0601CC4B2FA2C03DDFFF785
:10418000BBFF012010BD0548803800680028F2D12F
:104190000449086000BFF5E7000801409001214292
:1041A000000022428401224210B500200349086029
:1041B00000224021902001F0DFF810BD8C01234245
:1041C00010B5044601200449086022464021902091
:1041D00001F0D2F810BD00008C01234270B500251B
:1041E000002400BF09E04121902001F0A3F804441D
:1041F000322003F015FF681CC5B2052DF3DB052046
:1042000094FBF0F4A4F13500002801D5002070BD26
:10421000A4F13500CC2190FBF1F0C0EB001000EBD5
:1042200040000A2101EB4000C0B2F0E710B50020C9
:1042300004490860FFF778FE00224021902001F039
:104240009BF810BD8C01234208B501217C2001F0B0
:10425000D9F84FF4C050ADF8000048208DF80300A5
:1042600069461648FEF7E2FE2020ADF8000048201F
:104270008DF8030069461248FEF7D8FE0420ADF819
:10428000000048208DF8030069460E48FEF7CEFE78
:10429000FB20ADF8000048208DF8030069460A486D
:1042A000FEF7C4FE4FF60170ADF8000048208DF80F
:1042B000030069460548FEF7B9FE08BD0008014045
:1042C000000C0140001001400014014000180140A2
:1042D00008B50121102001F095F83020ADF800005C
:1042E00010208DF8030003208DF802006946044871
:1042F000FEF79CFE30210248FEF777FF08BD000064
:1043000000100140F8B507460D4616461C460D2024
:104310008DF8000003208DF8010000208DF80200C8
:1043200001208DF80300684600F0D0F8012108460E
:1043300001F048F83846FCF7CBFC174804801748D2
:10434000056046600020154988600846C46000206A
:1043500008618020486100208861C86108624FF4CC
:1043600080504862002088623846FCF77AFD0122BE
:1043700002210B48FCF76CFD01210A4803F05CFAAE
:1043800001213846FCF798FC4FF40070FCF786FCDE
:10439000034800F009F8F8BDD8010020F01E002005
:1043A000300002400048004010B50446002120467D
:1043B000FCF782FC044801882046FCF770FD0121CF
:1043C0002046FCF779FC10BDD801002000BFFEE7B5
:1043D00038B5002401217C2001F014F810208DF85C
:1043E000030003208DF802008224ADF800406946E6
:1043F0002648FEF71BFE21462448FEF7F4FE9824CB
:10440000ADF8004069462248FEF710FE21462048DC
:10441000FEF7E9FE42F28134ADF8004069461D48DE
:10442000FEF704FE21461B48FEF7DDFE4224ADF8F0
:10443000004069461848FEF7F9FD21461648FEF788
:10444000D2FE4FF4E054ADF8004069461148FEF743
:10445000EDFD21460F48FEF7C6FE0424ADF80040EE
:1044600069460E48FEF7E2FD21460C48FEF7BBFE0A
:104470000120ADF8000018208DF8030003208DF80E
:10448000020069460148FEF7D1FD38BD0008014031
:10449000000C0140001001400018014000140140D0
:1044A00010B5482001F0C6FC242002F013F92420A6
:1044B00001F0DAFF482002F0F1FA242002F022FA9B
:1044C000242001F097FE10BD7047000070B5002158
:1044D00000230F22C47804B3154C246804F4E0646C
:1044E000C4F5E064210AC1F10403CA40447804FA27
:1044F00003F184781440214309010E4C0678A1553C
:10450000047804F01F050124AC4005786D11AD005E
:1045100005F1E025C5F8004109E0047804F01F0525
:104520000124AC40044D0678761145F8264070BD54
:104530000CED00E000E400E080E100E0024901430E
:10454000024A1160704700000000FA050CED00E01F
:104550000B4A50701278824207D1094A92F8202003
:10456000521C074B83F8212003E00022044B83F800
:1045700021200022024BDA701A46117070470000A9
:10458000FC0300200B4A50701278824207D1094A7E
:1045900092F82320521C074B83F8242003E00022CA
:1045A000044B83F824200022024B9A701A461170A3
:1045B00070470000200400200B4A5070127882429D
:1045C00007D1094A92F82820521C074B83F829206A
:1045D00003E00022044B83F829200022024B9A704A
:1045E0001A461170704700004804002010B500F012
:1045F00013F800F0EFFB00F017FC00F037FC00F0C0
:10460000BFFB00F091FB00F0CBFC00F06FFC00F072
:1046100095FC00F002F810BD70477047064800781E
:10462000012808D105480078FF2804D20348007803
:10463000401C0249087070474202002035020020E9
:1046400010B500241A480078012830D1FBF71EFE6F
:1046500004461848007820B116480078401E1549D5
:10466000087014480078F8B913480078E0B900F0F1
:10467000F9FC12481249097850F8210011490860E4
:104680000F4800781049097888420DD00D4800681D
:10469000806B401C0B49096888630C480068401C0B
:1046A0000A490860FBF711FE2046FBF7F3FD10BD39
:1046B00042020020350200203602002098500020DF
:1046C0003802002050020020370200201C02002087
:1046D00010B500240B480078012811D1FBF7D6FD56
:1046E00004460948007840B908480078FF2804D2F9
:1046F00006480078401C054908702046FBF7CAFDB3
:1047000010BD0000420200203502002036020020C9
:1047100010B5002413480078012821D1FBF7B6FD1D
:10472000044611480078C0B10F480078401E0E4979
:1047300008700846007860B90C48007828B920460F
:10474000FBF7A8FD00F054FC0AE02046FBF7A2FDB1
:1047500006E02046FBF79EFD02E02046FBF79AFDAF
:1047600010BD000042020020360200203502002069
:1047700010B50B48007890B900F074FC0948007837
:104780000949087009480749097850F82100084983
:1047900008600846006807490860FBF77EFD10BD09
:1047A00042020020380200203702002098500020EA
:1047B0005002002048020020704700002DE9FE4F03
:1047C00006460F4690461C464FF00009FBF75EFD7B
:1047D00081461F48007828B14846FBF75BFD3C2026
:1047E000BDE8FE8F1B4850F8240060BB012019492A
:1047F00041F824004846FBF74DFD00234246394668
:10480000304600F009F982460020009001900346EE
:10481000024651460290204600F03AFC054635B962
:104820000D48007801280CD100F0E2FB09E0FBF70D
:104830002DFD81460020074941F824004846FBF73A
:1048400029FD2846CCE74846FBF724FD2820C7E78A
:104850003502002098500020420200202DE9F04F40
:1048600085B081468A4693461C46DDE90F78129D45
:1048700000200390FBF70AFD03902348007830B135
:104880000398FBF707FD3C2005B0BDE8F08F1F48FB
:1048900050F8240088BB01201C4941F824000398EB
:1048A000FBF7F8FC2A464146384600F001FD2B464E
:1048B0005A465146484600F0AFF804901198CDE9A9
:1048C000008002953A4620460E9B049900F0E0FBDA
:1048D000064636B90E48007801280CD100F088FB56
:1048E00009E0FBF7D3FC03900020084941F82400BD
:1048F0000398FBF7CFFC3046C6E7FFE70398FBF7CA
:10490000C9FC2820C0E70000350200209850002094
:1049100042020020704770472DE9F04106460F46DD
:1049200014464FF000081548007818B11220207086
:10493000BDE8F081FBF7AAFC8046FF2E03D11048AA
:10494000006890F832600F4850F826502DB9404664
:10495000FBF7A0FC43202070EAE7012D05D140467B
:10496000FBF798FC43202070E2E7EF644046FBF73A
:1049700091FC0020207000BFDAE700003502002023
:104980004802002098500020704700002DE9F047B1
:1049900007460D464FF0000A002028606860FBF7CC
:1049A00075FC8246FF2F03D11948006890F83270D9
:1049B000184850F827402CB95046FBF76BFC4320B1
:1049C000BDE8F087012C04D15046FBF763FC43207F
:1049D000F6E7207C00F0010020B95046FBF75AFCB6
:1049E0004520EDE70026D4F80C90D4F80880504616
:1049F000FBF750FC00E0761C58F8041B0029FAD0A5
:104A0000B0002860A9EB0600800068600020D7E7AE
:104A1000480200209850002070B5044610464FF020
:104A200080750560051F28462C606FF00106051F84
:104A300028462E604FF01236051F28462E604FF094
:104A40000336051F28462E604FF00236051F284604
:104A50002E607610051F28462E60051F2846296007
:104A60004FF01136051F28462E604FF01036051FF7
:104A700028462E604FF00936051F28462E604FF05D
:104A80000836051F28462E604FF00736051F2846BA
:104A90002E604FF00636051F28462E604FF0053673
:104AA000051F28462E604FF00436051F28462E604D
:104AB00070BD00002DE9F04105464FF00008FBF7FE
:104AC000E5FB8046FF2D05D12048006890F8325064
:104AD000012608E01D48006890F83200A84201D184
:104AE000012600E000261A4850F825402CB940461F
:104AF000FBF7D0FB4820BDE8F081012C04D14046F3
:104B0000FBF7C8FB4320F6E794F834701148C05D0A
:104B100094F8351088430F49C8550846C05D30B930
:104B200094F836100C48007888430B49087094F8C4
:104B3000300040F0080084F830004046FBF7AAFB44
:104B4000012E01D100F054FA0020D4E748020020E1
:104B5000985000203A0200203902002070470000DF
:104B600070B5054600261748007800B170BD16489C
:104B7000007800B1FAE71DB3FBF788FB064613483F
:104B8000006890F834401248005D1049096891F8B7
:104B9000351088430E4908550846005D40B90B485A
:104BA000006890F836100B4800788843094908706F
:104BB00006480068C5623046FBF76CFB00F018FA47
:104BC00000BFD3E735020020360200204802002053
:104BD0003A020020390200202DE9F04104460D463A
:104BE00016461F461248007810B15520BDE8F081E6
:104BF0001048007808B13220F8E7B81CC8214843B3
:104C00004FF47A71B0FBF1F14FF461606043C5EB92
:104C1000051200EB8200304400EBC00202EB0010F2
:104C200001EBC0084046FFF79BFF0020DEE70000D5
:104C3000350200203602002070B5002600F072F820
:104C4000FBF724FB064631480068401C2F490860EA
:104C50003046FBF71FFB2E480078012853D12D4822
:104C6000007820B1012804D0022809D103E00125F1
:104C70000BE0002509E0012501202649087004E029
:104C8000012500202349087000BF00BF05B970BD91
:104C90002148046833E0FBF7F9FA0646E06A50B3AE
:104CA000E06A401EE062E06A28BB94F8300000F041
:104CB000370040B114F8300F00F0C8002070012018
:104CC0006070303C02E0002084F8310094F830003D
:104CD00000F0080078B93434A07810490978084306
:104CE0000E49087020780E49085C6178084314F872
:104CF00034190B4A505464693046FBF7CBFA94F8E8
:104D000032003F28C7D100BFC1E700006002002089
:104D100042020020580200205402002039020020E4
:104D20003A020020704700002DE9F041502111485F
:104D300000F02CF900250DE0681C86B20D4800EB50
:104D4000051400EB06170020207067600AA0E060E1
:104D5000681C85B2042DEFD3064800EB0514002033
:104D60002070606004A0E060024804490860BDE86B
:104D7000F0810000484C00203F0000002402002089
:104D800070B5C821114800F001F900230FE0581C4C
:104D900085B203EB83000D4901EB800405EB850030
:104DA00001EB8006002020706660581C83B2092B3E
:104DB000EDD303EB8300054901EB80040020207054
:104DC000606008460249086070BD0000804B00200A
:104DD0002002002000200A4908600A4908700A4998
:104DE00008700A4908700A4908700A4908600A49A7
:104DF00008600A4908600A4908600A490870704753
:104E0000600200203502002036020020430200200C
:104E1000420200201C020020440200203002002038
:104E20002C0200203402002000210A4A11700020C8
:104E300004E00021084A1154411CC8B20828F8D3E4
:104E40000021064A1170064A1170064A1160064A8E
:104E500011607047390200203A020020370200201A
:104E600038020020500200204802002070B54FF4A4
:104E70007C71194800F08AF84FF48071174800F0EF
:104E800085F8002413E0601CC5B2C4EBC40000EB3D
:104E90004000114901EB8003C5EBC50000EB400069
:104EA00001EB80065E610EA0D864601CC4B20B2CBE
:104EB000E9D3C4EBC40000EB4000074901EB8003D9
:104EC0000020586106A0D864002006490860024806
:104ED0000549086070BD00009851002098500020DE
:104EE0003F000000540200204C02002000B587B0B3
:104EF0000320002180220A4BCDE90132CDE90310C5
:104F00004FF6FF703F23074A00900748FFF7A6FCC3
:104F100006AA06A13F20FFF7FFFC07B000BD000076
:104F2000984E002094500020C551000875432F4F23
:104F3000532D49492049646C6500000000B587B0D5
:104F40000320002180220A4BCDE90132CDE9031074
:104F50004FF6FE703E23074A00900748FFF77EFC9D
:104F600006AA06A13E20FFF7D7FC07B000BD00004F
:104F7000984C0020944E0020ED51000875432F4FAF
:104F8000532D4949205374617400000004E000224D
:104F900000F8012B4A1E91B20029F8D17047000099
:104FA0002DE9F04178211048FFF7F0FF00240DE0D3
:104FB000601C86B204EB44000B4901EBC00506EB14
:104FC000460001EBC0072F60601C84B2042CEFD3B5
:104FD00004EB4400044901EBC005002028600846AA
:104FE00002490860BDE8F081885500205C0200207D
:104FF00010B50024FBF74AF9044613480078F8B9C5
:1050000012480078E0B900F02DF8114811490978EC
:1050100050F82100104908600E4800780F490978BF
:1050200088420DD00C480068806B401C0A49096812
:1050300088630B480068401C09490860FBF73EF98B
:105040002046FBF727F910BD35020020360200206C
:105050009850002038020020500200203702002023
:105060001C0200200649074A1278885C0649095C40
:10507000034A515C01EBC001044A11707047000003
:10508000682A0108390200203A0200203802002074
:105090002DE9F84F05460F4690469946DDE90AABE3
:1050A00000200090FBF7F2F800903F480468002CC5
:1050B00074D0183454F8040C3B4908600098FBF78E
:1050C000E9F844F8187CA5760020207660766061C7
:1050D00044F814BC44F80CAC44F8108C0C9824F838
:1050E000080C24F8069C0020E077E810207705F0F3
:1050F0000700E076217F01208840A077E17E012033
:105100008840607700206060E060A0602062A0625C
:105110006062E062206325A06063183C002606E020
:10512000002104F1500040F82610701CC6B2002E79
:10513000F6D02046FFF740FB2046FFF7EBFBFBF7DE
:10514000A5F800901A4840F825401A4800686061A8
:105150000020A0611748006810B1164800688461FB
:10516000144804603434A07813490978084312497C
:10517000087020781149085C6178084314F83419E4
:105180000E4A50540E480078401C0D490870009893
:10519000FBF780F80020BDE8F88FFFE70098FBF7E9
:1051A00079F84220F7E700004C0200203F000000A1
:1051B0009850002054020020390200203A020020BA
:1051C00043020020002400BF00BFFBF75FF8044645
:1051D00005480068401C044908602046FBF75AF85F
:1051E000FFF799FBF1E7000044020020002400BF14
:1051F00002E02820FFF7B4FC194800780028F8D016
:10520000184800686421B0FBF1F0164908600846B0
:10521000006828B9002014490870FF20FFF74AFCF5
:1052200000BFFBF733F804461048006810490860D7
:1052300000200E4908602046FBF72CF80C48006857
:1052400008490968B0FBF1F0C0F164000649087034
:10525000FFF79AFB00F00EF81420FFF781FCE0E75F
:10526000340200202C0200202802002044020020EA
:10527000300200207CB5002514E069462846FFF77F
:1052800085FB064666B9094850F8254044B1012C13
:1052900006D0D4E9020100EB810060640198A064AB
:1052A000681CC5B23F2DE8D97CBD00009850002095
:1052B00002F0010343B102F002032BB102E0491EE8
:1052C000002308C00029FAD1704700002DE9FC47EF
:1052D0004FF0000A02F072FD0FFA80FAAAF5CD70C5
:1052E0000FFA80FABAF1000F17DD504606F044FCC1
:1052F000064600220A4B06F0E7FA04460022094B54
:1053000006F052FC80460022074B06F04DFCCDE92A
:10531000000106F0A7FABDE8FC870020FBE70000CB
:105320000000B0400000F43F00408F4010B502F094
:105330005DFD10BD70B504460D460026FEF7B6FEB5
:105340002046FEF77FFEFEF7FDFE2846FEF77AFEBA
:10535000FEF7F8FEFEF7D0FEFEF7A8FE44F00100CF
:10536000FEF770FEFEF7EEFE0020FEF733FE064667
:10537000FEF7C2FE304670BD70B506460C461546B7
:10538000FEF794FE3046FEF75DFEFEF7DBFE20469C
:10539000FEF758FEFEF7D6FE2846FEF753FEFEF750
:1053A000D1FEFEF7A9FE012070BD000001460020DD
:1053B000034A506820F440400843506070470000A2
:1053C0000010024029B1064A52690243044B5A6157
:1053D00004E0034A52698243014B5A61704700005E
:1053E0000010024029B1064AD2690243044BDA6137
:1053F00004E0034AD2698243014BDA61704700003E
:105400000010024029B1064A92690243044B9A6196
:1054100004E0034A92698243014B9A61704700009D
:105420000010024029B1064AD2680243044BDA60F8
:1054300004E0034AD2688243014BDA6070470000FF
:105440000010024030B500210022002400232D4D21
:105450006D6805F00C0121B1042905D0082923D17C
:1054600005E0294D056022E0274D05601FE0254D30
:105470006D6805F47012234D6D6805F480340225C3
:1054800005EB92421CB9214D554305600BE01D4DC3
:105490006D6805F400351DB11C4D5543056002E0F3
:1054A000194D5543056002E0174D056000BF00BF70
:1054B000144D6D6805F0F0010909154D6B5C056828
:1054C000DD4045600F4D6D6805F4E061090A104D3F
:1054D0006B5C4568DD4085600A4D6D6805F4605180
:1054E000C90A0B4D6B5C4568DD40C560054D6D68B4
:1054F00005F44041890B074D6B5CC568B5FBF3F5BE
:10550000056130BD0010024000127A0000093D0024
:1055100008020020180200200149086070470000BE
:105520000000424208B501214020FFF76BFF3C20FC
:10553000ADF8000010208DF8030003208DF8020064
:1055400069460848FDF772FD0020074908600749D1
:10555000C1F88C010449083108600449C1F894017C
:1055600008BD0000001801408801234200002342CA
:10557000024909888143014A11807047042800408C
:1055800001460020064A12880A40D0B2044A121F7F
:1055900012880A4012B108B1012000E000207047D3
:1055A0000428004010B50120FFF7EAFF20B10120D8
:1055B000FFF7DEFF00F00AF80220FFF7E1FF20B15D
:1055C0000220FFF7D5FF00F001F810BD00BF03482F
:1055D000008800F020000028F9D07047042800401F
:1055E00000200549C870084690F8210081F8200085
:1055F0000846407808707047FC03002000200549E9
:105600008870084690F8240081F823000846407806
:105610000870704720040020002005498870084663
:1056200090F8290081F828000846407808707047F3
:105630004804002070B5044600BF2579204600F0DC
:1056400057F8281AC0B270BD2DE9F04104460F4644
:105650001546FAF71BFE1B4908602046FFF7EAFFD4
:10566000A84201DD284602E02046FFF7E3FF054699
:1056700020796179401AA84201DD284602E02079AC
:105680006179401AC6B20F480068FAF703FE6279E2
:105690002168881832463946FAF7DCFFB54204DD46
:1056A000AA1BB9192068FAF7D5FF60792844607100
:1056B0006079217990FBF1F201FB120060712846BC
:1056C000BDE8F0811C000020014600BF48798A79BE
:1056D000904204DD48798A79801AC0B203E0887963
:1056E0004A79801AC0B208B9012070470020FCE74F
:1056F000014648798A79904204DD48798A79801A8E
:10570000C0B2704788794A79801AC0B2F9E70000C0
:105710002DE9F04104460F461546FAF7B7FD1B493F
:1057200008602046FFF7E4FFA84201DD284602E0BA
:105730002046FFF7DDFF05462079A179401AA842EF
:1057400001DD284602E02079A179401AC6B20F484F
:105750000068FAF79FFDA279206881183246384622
:10576000FAF778FFB54204DDAA1BB8192168FAF7E9
:1057700071FFA0792844A071A079217990FBF1F202
:1057800001FB1200A0712846BDE8F0811C0000203A
:1057900000B587B001210820FFF734FE01218803FE
:1057A000FFF720FE4FF46040ADF8180018208DF888
:1057B0001B0003208DF81A0006A91848FDF736FCD7
:1057C0004FF460411548FDF710FD0020ADF80400CE
:1057D0004FF48270ADF806000020ADF808000220FA
:1057E000ADF80A000120ADF80C004002ADF80E0043
:1057F0003820ADF810000020ADF812000720ADF8F9
:10580000140001A9064800F065F80121044800F0E1
:1058100047F8FF2000F006F807B000BD000C01407B
:105820000038004070B50546002405E0601CC4B295
:10583000C82C01DD002070BD02210E4800F03CF8AC
:105840000028F3D029460B4800F042F8002405E078
:10585000601CC4B2C82C01DD0020ECE70121054822
:1058600000F02AF80028F3D0024800F02EF8C0B269
:10587000E1E700000038004010B504460748008802
:105880004FF6C77108400549088008460088204344
:1058900008800121014800F003F810BD00380040E5
:1058A00021B1028842F04002028004E002884FF6F3
:1058B000BF731A40028070470246002013890B40D4
:1058C0000BB1012000E00020704701468889704735
:1058D0008181704710B50022028802F441520B8882
:1058E0004C8823438C882343CC8823430C8923434F
:1058F0004C8923438C892343CC8923431A43028058
:10590000838B4FF2FF74234083830B8A038210BD85
:105910007047000070B50026002400252D4800784F
:10592000002855D12C48FFF7CFFE002825D1202193
:1059300003F002FA054620212846FAF7D0FE20227D
:1059400029462548FFF7E4FE064624A0FAF7FAFCAC
:1059500000BF08E0295D23A0FAF7F4FC285D04F0FD
:10596000FBF9601CC4B2B442F4DB1DA0FAF7EAFCF8
:105970002946002003F0CEF900251B48FFF7A4FEBE
:1059800030BB2021002003F0D7F90546202128460E
:10599000FAF7A5FE202229461348FFF7B9FE06466E
:1059A0000EA0FAF7CFFC002408E0295D0DA0FAF75D
:1059B000C9FC285D04F0D0F9601CC4B2B442F4DB29
:1059C00007A0FAF7BFFC2946002003F0A3F9002541
:1059D00070BD0000DC01002084040020616E733A79
:1059E0000D0A0000257820008C04002010B500F07E
:1059F00001F810BD0CB500200190009033480068FC
:105A000040F480303149086000BF3048006800F43D
:105A1000003000900198401C0190009818B901983E
:105A2000B0F5A06FF1D12948006800F4003010B142
:105A30000120009001E0002000900098012843D14F
:105A40002348006840F010002149086008460068BB
:105A500020F0030008600846006840F0020008607B
:105A60001A48406819494860084640684860084636
:105A7000406840F4806048600846406820F47C102C
:105A800048600846406840F4E810486008460068EE
:105A900040F08070086000BF0C48006800F00070A3
:105AA0000028F9D00948406820F003000749486001
:105AB0000846406840F00200486000BF0348406864
:105AC00000F00C000828F9D10CBD000000100240C5
:105AD00000200240A348006900EB80004000A2497A
